{
  "contractName": "AggregatorContract",
  "abi": [
    {
      "inputs": [
        {
          "internalType": "address",
          "name": "_addr",
          "type": "address"
        }
      ],
      "stateMutability": "nonpayable",
      "type": "constructor"
    },
    {
      "anonymous": false,
      "inputs": [
        {
          "indexed": false,
          "internalType": "uint256",
          "name": "",
          "type": "uint256"
        },
        {
          "indexed": false,
          "internalType": "string",
          "name": "",
          "type": "string"
        }
      ],
      "name": "AggregationCompleted",
      "type": "event"
    },
    {
      "anonymous": false,
      "inputs": [
        {
          "indexed": false,
          "internalType": "bytes32",
          "name": "",
          "type": "bytes32"
        },
        {
          "indexed": false,
          "internalType": "bytes32",
          "name": "",
          "type": "bytes32"
        }
      ],
      "name": "LogHashes",
      "type": "event"
    },
    {
      "anonymous": false,
      "inputs": [
        {
          "indexed": false,
          "internalType": "address",
          "name": "",
          "type": "address"
        },
        {
          "indexed": false,
          "internalType": "string",
          "name": "",
          "type": "string"
        }
      ],
      "name": "ResponseReceived",
      "type": "event"
    },
    {
      "inputs": [
        {
          "internalType": "uint256",
          "name": "",
          "type": "uint256"
        }
      ],
      "name": "answers",
      "outputs": [
        {
          "internalType": "uint256",
          "name": "requestID",
          "type": "uint256"
        },
        {
          "internalType": "bytes",
          "name": "dataType",
          "type": "bytes"
        },
        {
          "internalType": "uint256",
          "name": "oracleCounter",
          "type": "uint256"
        },
        {
          "internalType": "uint32",
          "name": "t",
          "type": "uint32"
        },
        {
          "internalType": "uint32",
          "name": "f",
          "type": "uint32"
        },
        {
          "internalType": "uint256",
          "name": "cancelFlag",
          "type": "uint256"
        },
        {
          "internalType": "bool",
          "name": "lastOracle",
          "type": "bool"
        }
      ],
      "stateMutability": "view",
      "type": "function"
    },
    {
      "inputs": [],
      "name": "owner",
      "outputs": [
        {
          "internalType": "address",
          "name": "",
          "type": "address"
        }
      ],
      "stateMutability": "view",
      "type": "function"
    },
    {
      "inputs": [
        {
          "internalType": "uint256",
          "name": "_requestID",
          "type": "uint256"
        },
        {
          "internalType": "bytes",
          "name": "_actualResult",
          "type": "bytes"
        }
      ],
      "name": "receiveResponse",
      "outputs": [
        {
          "internalType": "bool",
          "name": "",
          "type": "bool"
        }
      ],
      "stateMutability": "nonpayable",
      "type": "function"
    },
    {
      "inputs": [
        {
          "internalType": "uint256",
          "name": "_requestID",
          "type": "uint256"
        }
      ],
      "name": "cancelRequest",
      "outputs": [
        {
          "internalType": "bool",
          "name": "",
          "type": "bool"
        }
      ],
      "stateMutability": "nonpayable",
      "type": "function"
    }
  ],
  "bytecode": "0x60806040523480156200001157600080fd5b5060405162001f7b38038062001f7b833981810160405281019062000037919062000129565b336000806101000a81548173ffffffffffffffffffffffffffffffffffffffff021916908373ffffffffffffffffffffffffffffffffffffffff16021790555080600160006101000a81548173ffffffffffffffffffffffffffffffffffffffff021916908373ffffffffffffffffffffffffffffffffffffffff160217905550506200015b565b600080fd5b600073ffffffffffffffffffffffffffffffffffffffff82169050919050565b6000620000f182620000c4565b9050919050565b6200010381620000e4565b81146200010f57600080fd5b50565b6000815190506200012381620000f8565b92915050565b600060208284031215620001425762000141620000bf565b5b6000620001528482850162000112565b91505092915050565b611e10806200016b6000396000f3fe608060405234801561001057600080fd5b506004361061004c5760003560e01c806317599cc5146100515780633015394c146100875780638da5cb5b146100b7578063f8f14f42146100d5575b600080fd5b61006b60048036038101906100669190611099565b610105565b60405161007e97969594939291906111a8565b60405180910390f35b6100a1600480360381019061009c9190611099565b610202565b6040516100ae919061121e565b60405180910390f35b6100bf6102b2565b6040516100cc919061127a565b60405180910390f35b6100ef60048036038101906100ea91906113ca565b6102d6565b6040516100fc919061121e565b60405180910390f35b6002816064811061011557600080fd5b600a020160009150905080600001549080600101805461013490611455565b80601f016020809104026020016040519081016040528092919081815260200182805461016090611455565b80156101ad5780601f10610182576101008083540402835291602001916101ad565b820191906000526020600020905b81548152906001019060200180831161019057829003601f168201915b5050505050908060050154908060070160009054906101000a900463ffffffff16908060070160049054906101000a900463ffffffff16908060080154908060090160009054906101000a900460ff16905087565b60008160006002826064811061021b5761021a611486565b5b600a0201600801541461022d57600080fd5b600160009054906101000a900473ffffffffffffffffffffffffffffffffffffffff1673ffffffffffffffffffffffffffffffffffffffff163373ffffffffffffffffffffffffffffffffffffffff161461028757600080fd5b60016002846064811061029d5761029c611486565b5b600a0201600801819055506001915050919050565b60008054906101000a900473ffffffffffffffffffffffffffffffffffffffff1681565b600082600160009054906101000a900473ffffffffffffffffffffffffffffffffffffffff1673ffffffffffffffffffffffffffffffffffffffff1663a37b354d82336040518363ffffffff1660e01b81526004016103369291906114b5565b602060405180830381865afa158015610353573d6000803e3d6000fd5b505050506040513d601f19601f82011682018060405250810190610377919061150a565b61038057600080fd5b600015156002826064811061039857610397611486565b5b600a020160020160003373ffffffffffffffffffffffffffffffffffffffff1673ffffffffffffffffffffffffffffffffffffffff16815260200190815260200160002060009054906101000a900460ff161515146103f657600080fd5b8360006002826064811061040d5761040c611486565b5b600a0201600801541461041f57600080fd5b600160009054906101000a900473ffffffffffffffffffffffffffffffffffffffff1673ffffffffffffffffffffffffffffffffffffffff166391a3632a866040518263ffffffff1660e01b815260040161047a9190611537565b602060405180830381865afa158015610497573d6000803e3d6000fd5b505050506040513d601f19601f820116820180604052508101906104bb919061157e565b63ffffffff16600286606481106104d5576104d4611486565b5b600a02016005015410156106ea5784600286606481106104f8576104f7611486565b5b600a020160000181905550836002866064811061051857610517611486565b5b600a020160030160003373ffffffffffffffffffffffffffffffffffffffff1673ffffffffffffffffffffffffffffffffffffffff16815260200190815260200160002090816105689190611757565b5060016002866064811061057f5761057e611486565b5b600a020160020160003373ffffffffffffffffffffffffffffffffffffffff1673ffffffffffffffffffffffffffffffffffffffff16815260200190815260200160002060006101000a81548160ff02191690831515021790555033600286606481106105ef576105ee611486565b5b600a020160040160006002886064811061060c5761060b611486565b5b600a020160050154815260200190815260200160002060006101000a81548173ffffffffffffffffffffffffffffffffffffffff021916908373ffffffffffffffffffffffffffffffffffffffff1602179055506002856064811061067457610673611486565b5b600a0201600501600081548092919061068c90611858565b91905055506000600286606481106106a7576106a6611486565b5b600a0201600801819055507fe4cba15a82b5f91e40e6fcd30c425c90aa715d1d6d73eb1fedb1baf58c28d6dd336040516106e191906118fd565b60405180910390a15b600160009054906101000a900473ffffffffffffffffffffffffffffffffffffffff1673ffffffffffffffffffffffffffffffffffffffff166391a3632a866040518263ffffffff1660e01b81526004016107459190611537565b602060405180830381865afa158015610762573d6000803e3d6000fd5b505050506040513d601f19601f82011682018060405250810190610786919061157e565b63ffffffff16600286606481106107a05761079f611486565b5b600a02016005015403610897576001600286606481106107c3576107c2611486565b5b600a020160090160006101000a81548160ff0219169083151502179055506000806107ed87610907565b91509150600160009054906101000a900473ffffffffffffffffffffffffffffffffffffffff1673ffffffffffffffffffffffffffffffffffffffff16639fbcc5558884846040518463ffffffff1660e01b8152600401610850939291906119e9565b6020604051808303816000875af115801561086f573d6000803e3d6000fd5b505050506040513d601f19601f82011682018060405250810190610893919061150a565b5050505b600285606481106108ab576108aa611486565b5b600a020160020160003373ffffffffffffffffffffffffffffffffffffffff1673ffffffffffffffffffffffffffffffffffffffff16815260200190815260200160002060009054906101000a900460ff169250505092915050565b6060808260006002826064811061092157610920611486565b5b600a0201600801541461093357600080fd5b6060600160009054906101000a900473ffffffffffffffffffffffffffffffffffffffff1673ffffffffffffffffffffffffffffffffffffffff166357442e79866040518263ffffffff1660e01b81526004016109909190611537565b600060405180830381865afa1580156109ad573d6000803e3d6000fd5b505050506040513d6000823e3d601f19601f820116820180604052508101906109d69190611a9e565b600286606481106109ea576109e9611486565b5b600a020160010190816109fd9190611757565b5060005b60028660648110610a1557610a14611486565b5b600a020160050154811015610ec157600060028760648110610a3a57610a39611486565b5b600a0201600401600083815260200190815260200160002060009054906101000a900473ffffffffffffffffffffffffffffffffffffffff169050600060028860648110610a8b57610a8a611486565b5b600a020160010160028960648110610aa657610aa5611486565b5b600a020160030160008473ffffffffffffffffffffffffffffffffffffffff1673ffffffffffffffffffffffffffffffffffffffff168152602001908152602001600020604051602001610afb929190611b75565b6040516020818303038152906040528051906020012090507f1034809265ff4258719a9aebc8a98d3ae11c847f3db81864425e812fd387c188600160009054906101000a900473ffffffffffffffffffffffffffffffffffffffff1673ffffffffffffffffffffffffffffffffffffffff1663829c22fd8a6040518263ffffffff1660e01b8152600401610b8f9190611537565b602060405180830381865afa158015610bac573d6000803e3d6000fd5b505050506040513d601f19601f82011682018060405250810190610bd09190611bcf565b82604051610bdf929190611c0b565b60405180910390a1600160009054906101000a900473ffffffffffffffffffffffffffffffffffffffff1673ffffffffffffffffffffffffffffffffffffffff1663829c22fd896040518263ffffffff1660e01b8152600401610c429190611537565b602060405180830381865afa158015610c5f573d6000803e3d6000fd5b505050506040513d601f19601f82011682018060405250810190610c839190611bcf565b8103610e515760028860648110610c9d57610c9c611486565b5b600a0201600701600081819054906101000a900463ffffffff1680929190610cc490611c34565b91906101000a81548163ffffffff021916908363ffffffff1602179055505060028860648110610cf757610cf6611486565b5b600a0201600601829080600181540180825580915050600190039060005260206000200160009091909190916101000a81548173ffffffffffffffffffffffffffffffffffffffff021916908373ffffffffffffffffffffffffffffffffffffffff1602179055506000845111610e4c5760028860648110610d7c57610d7b611486565b5b600a020160030160008373ffffffffffffffffffffffffffffffffffffffff1673ffffffffffffffffffffffffffffffffffffffff1681526020019081526020016000208054610dcb90611455565b80601f0160208091040260200160405190810160405280929190818152602001828054610df790611455565b8015610e445780601f10610e1957610100808354040283529160200191610e44565b820191906000526020600020905b815481529060010190602001808311610e2757829003601f168201915b505050505093505b610eac565b60028860648110610e6557610e64611486565b5b600a0201600701600481819054906101000a900463ffffffff1680929190610e8c90611c34565b91906101000a81548163ffffffff021916908363ffffffff160217905550505b50508080610eb990611858565b915050610a01565b506003600160028760648110610eda57610ed9611486565b5b600a020160050154610eec9190611c60565b610ef69190611cc3565b60028660648110610f0a57610f09611486565b5b600a020160070160049054906101000a900463ffffffff1663ffffffff161115610f69576040517f08c379a0000000000000000000000000000000000000000000000000000000008152600401610f6090611d40565b60405180910390fd5b7fab982296b91a9b70c6739c96524c481cf0a1714be617e9bb39538f46ad5c880085604051610f989190611dac565b60405180910390a18060028660648110610fb557610fb4611486565b5b600a02016006018080548060200260200160405190810160405280929190818152602001828054801561103d57602002820191906000526020600020905b8160009054906101000a900473ffffffffffffffffffffffffffffffffffffffff1673ffffffffffffffffffffffffffffffffffffffff1681526020019060010190808311610ff3575b50505050509050935093505050915091565b6000604051905090565b600080fd5b600080fd5b6000819050919050565b61107681611063565b811461108157600080fd5b50565b6000813590506110938161106d565b92915050565b6000602082840312156110af576110ae611059565b5b60006110bd84828501611084565b91505092915050565b6110cf81611063565b82525050565b600081519050919050565b600082825260208201905092915050565b60005b8381101561110f5780820151818401526020810190506110f4565b8381111561111e576000848401525b50505050565b6000601f19601f8301169050919050565b6000611140826110d5565b61114a81856110e0565b935061115a8185602086016110f1565b61116381611124565b840191505092915050565b600063ffffffff82169050919050565b6111878161116e565b82525050565b60008115159050919050565b6111a28161118d565b82525050565b600060e0820190506111bd600083018a6110c6565b81810360208301526111cf8189611135565b90506111de60408301886110c6565b6111eb606083018761117e565b6111f8608083018661117e565b61120560a08301856110c6565b61121260c0830184611199565b98975050505050505050565b60006020820190506112336000830184611199565b92915050565b600073ffffffffffffffffffffffffffffffffffffffff82169050919050565b600061126482611239565b9050919050565b61127481611259565b82525050565b600060208201905061128f600083018461126b565b92915050565b600080fd5b600080fd5b7f4e487b7100000000000000000000000000000000000000000000000000000000600052604160045260246000fd5b6112d782611124565b810181811067ffffffffffffffff821117156112f6576112f561129f565b5b80604052505050565b600061130961104f565b905061131582826112ce565b919050565b600067ffffffffffffffff8211156113355761133461129f565b5b61133e82611124565b9050602081019050919050565b82818337600083830152505050565b600061136d6113688461131a565b6112ff565b9050828152602081018484840111156113895761138861129a565b5b61139484828561134b565b509392505050565b600082601f8301126113b1576113b0611295565b5b81356113c184826020860161135a565b91505092915050565b600080604083850312156113e1576113e0611059565b5b60006113ef85828601611084565b925050602083013567ffffffffffffffff8111156114105761140f61105e565b5b61141c8582860161139c565b9150509250929050565b7f4e487b7100000000000000000000000000000000000000000000000000000000600052602260045260246000fd5b6000600282049050600182168061146d57607f821691505b6020821081036114805761147f611426565b5b50919050565b7f4e487b7100000000000000000000000000000000000000000000000000000000600052603260045260246000fd5b60006040820190506114ca60008301856110c6565b6114d7602083018461126b565b9392505050565b6114e78161118d565b81146114f257600080fd5b50565b600081519050611504816114de565b92915050565b6000602082840312156115205761151f611059565b5b600061152e848285016114f5565b91505092915050565b600060208201905061154c60008301846110c6565b92915050565b61155b8161116e565b811461156657600080fd5b50565b60008151905061157881611552565b92915050565b60006020828403121561159457611593611059565b5b60006115a284828501611569565b91505092915050565b60008190508160005260206000209050919050565b60006020601f8301049050919050565b600082821b905092915050565b60006008830261160d7fffffffffffffffffffffffffffffffffffffffffffffffffffffffffffffffff826115d0565b61161786836115d0565b95508019841693508086168417925050509392505050565b6000819050919050565b600061165461164f61164a84611063565b61162f565b611063565b9050919050565b6000819050919050565b61166e83611639565b61168261167a8261165b565b8484546115dd565b825550505050565b600090565b61169761168a565b6116a2818484611665565b505050565b5b818110156116c6576116bb60008261168f565b6001810190506116a8565b5050565b601f82111561170b576116dc816115ab565b6116e5846115c0565b810160208510156116f4578190505b611708611700856115c0565b8301826116a7565b50505b505050565b600082821c905092915050565b600061172e60001984600802611710565b1980831691505092915050565b6000611747838361171d565b9150826002028217905092915050565b611760826110d5565b67ffffffffffffffff8111156117795761177861129f565b5b6117838254611455565b61178e8282856116ca565b600060209050601f8311600181146117c157600084156117af578287015190505b6117b9858261173b565b865550611821565b601f1984166117cf866115ab565b60005b828110156117f7578489015182556001820191506020850194506020810190506117d2565b868310156118145784890151611810601f89168261171d565b8355505b6001600288020188555050505b505050505050565b7f4e487b7100000000000000000000000000000000000000000000000000000000600052601160045260246000fd5b600061186382611063565b91507fffffffffffffffffffffffffffffffffffffffffffffffffffffffffffffffff820361189557611894611829565b5b600182019050919050565b600082825260208201905092915050565b7f726573706f6e7365206c6f676765640000000000000000000000000000000000600082015250565b60006118e7600f836118a0565b91506118f2826118b1565b602082019050919050565b6000604082019050611912600083018461126b565b8181036020830152611923816118da565b905092915050565b600081519050919050565b600082825260208201905092915050565b6000819050602082019050919050565b61196081611259565b82525050565b60006119728383611957565b60208301905092915050565b6000602082019050919050565b60006119968261192b565b6119a08185611936565b93506119ab83611947565b8060005b838110156119dc5781516119c38882611966565b97506119ce8361197e565b9250506001810190506119af565b5085935050505092915050565b60006060820190506119fe60008301866110c6565b8181036020830152611a108185611135565b90508181036040830152611a24818461198b565b9050949350505050565b6000611a41611a3c8461131a565b6112ff565b905082815260208101848484011115611a5d57611a5c61129a565b5b611a688482856110f1565b509392505050565b600082601f830112611a8557611a84611295565b5b8151611a95848260208601611a2e565b91505092915050565b600060208284031215611ab457611ab3611059565b5b600082015167ffffffffffffffff811115611ad257611ad161105e565b5b611ade84828501611a70565b91505092915050565b600081905092915050565b60008154611aff81611455565b611b098186611ae7565b94506001821660008114611b245760018114611b3957611b6c565b60ff1983168652811515820286019350611b6c565b611b42856115ab565b60005b83811015611b6457815481890152600182019150602081019050611b45565b838801955050505b50505092915050565b6000611b818285611af2565b9150611b8d8284611af2565b91508190509392505050565b6000819050919050565b611bac81611b99565b8114611bb757600080fd5b50565b600081519050611bc981611ba3565b92915050565b600060208284031215611be557611be4611059565b5b6000611bf384828501611bba565b91505092915050565b611c0581611b99565b82525050565b6000604082019050611c206000830185611bfc565b611c2d6020830184611bfc565b9392505050565b6000611c3f8261116e565b915063ffffffff8203611c5557611c54611829565b5b600182019050919050565b6000611c6b82611063565b9150611c7683611063565b925082821015611c8957611c88611829565b5b828203905092915050565b7f4e487b7100000000000000000000000000000000000000000000000000000000600052601260045260246000fd5b6000611cce82611063565b9150611cd983611063565b925082611ce957611ce8611c94565b5b828204905092915050565b7f746f6f206d616e7920696e636f7272656374206e6f6465730000000000000000600082015250565b6000611d2a6018836118a0565b9150611d3582611cf4565b602082019050919050565b60006020820190508181036000830152611d5981611d1d565b9050919050565b7f6167677265676174696f6e20636f6d706c657465000000000000000000000000600082015250565b6000611d966014836118a0565b9150611da182611d60565b602082019050919050565b6000604082019050611dc160008301846110c6565b8181036020830152611dd281611d89565b90509291505056fea2646970667358221220112ee0aafbe2eb9924eb028b2c0abe0912dfd70edf4e3f3ee709859aafa7314364736f6c634300080f0033",
  "immutableReferences": {},
  "source": "// SPDX-License-Identifier: MIT\npragma solidity ^0.8.0;\n\nimport \"./OracleRequestContract.sol\";\n\ncontract AggregatorContract {\n    address public owner; // owner of contract\n    OracleRequestContract orc; // instance of ORC contract\n    Answer[100] public answers; // array of 100 Answer structs to keep track of answers\n    struct Answer {\n        uint256 requestID; // the request ID\n        bytes dataType; // data type of request 'bool' 'temp' etc\n        mapping (address => bool) oracleHasSubmitted; // authorised oracles, marked true when voted\n        mapping (address => bytes) oracleResults; // add their result to a map with their address as index\n        mapping (uint => address) oracleAddresses; // uint to address to match counter and iterate through\n        uint256 oracleCounter; // keep an index of the oracles\n        address[] correctOracles; // dynamic array to keep track of correct oracle address to be paid\n        uint32 t; // a true counter;\n        uint32 f; // a false counter: we need this under (n-1)/3\n        uint cancelFlag; // cancelFlag == 0, == 1 if canceled\n        bool lastOracle; // last oracle\n    }\n\n    event ResponseReceived(address, string); // emits logs of each response received\n    event AggregationCompleted(uint256, string); // emits logs once the aggregation is complete\n    event LogHashes(bytes32, bytes32); // emits logs of hashes\n    // @notice constructor called when deployed\n    constructor(address _addr)\n    {\n        owner = msg.sender; // set deploying address as owner\n        orc = OracleRequestContract(_addr); // initialise the Oracle Request Contract contract\n    }\n    // @notice each oracle sends their response to through this function\n    // filling up the Answer struct at index requestID.\n    // @dev\n    // @param _requestID ID of request\n    // @param _actualResult the value the off-chain oracle has collected\n    // @return bool, true to say answer has been submitted\n    function receiveResponse(\n        uint256 _requestID,\n        bytes memory _actualResult\n    )\n    public\n    onlyAuthorisedOraclesYetToVote(_requestID) // makes sure only oracles that are authorised call call this function,\n    // also only if it has not yet submitted an answer\n    cancelFlagCheck(_requestID) // requires cancelFlag == 0\n    returns(bool)\n    {\n        // only logs answers for any number of oracles that are under the number required\n        if (answers[_requestID].oracleCounter < orc.getNumberOfOracles(_requestID)) {\n            answers[_requestID].requestID = _requestID; // assign correct id\n            answers[_requestID].oracleResults[msg.sender] = _actualResult; // orcale nodes answer mapped to its address\n            answers[_requestID].oracleHasSubmitted[msg.sender] = true; // it has now submitted.\n            answers[_requestID].oracleAddresses[answers[_requestID].oracleCounter] = msg.sender; // map counter to oracle addr\n            answers[_requestID].oracleCounter++; // once this is equal we know to enter next if statement\n            answers[_requestID].cancelFlag = 0; // sets cancelFlag to 0\n            emit ResponseReceived(msg.sender, \"response logged\"); // emits to listeners that a response has been logged\n        }\n        // if the counter has reached the number of oracles needed, on the last oracle,\n        // we can call the deliverResponse with the aggregation() method with returns a single result\n        if(answers[_requestID].oracleCounter == orc.getNumberOfOracles(_requestID)) {\n            answers[_requestID].lastOracle = true; // flag to know all oracles have submitted a vote\n            // call aggregator function, returns a final result and an array of correct oracles\n            (bytes memory finalResult, address[] memory correctOracles) = aggregation(_requestID);\n            orc.deliverResponse(_requestID, finalResult, correctOracles); // call the deliverResponse function\n        }\n        return answers[_requestID].oracleHasSubmitted[msg.sender]; // returns true\n    }\n\n    // @notice aggregates results on a voting system, also requires that false votes are not larger than a threshold\n    // @dev\n    // @param _requestID pass in requestID to index the answers\n    // @return final result\n    function aggregation(\n        uint256 _requestID)\n    internal\n    cancelFlagCheck(_requestID) // requires cancelFlag == 0\n    returns(\n        bytes memory,\n        address[] memory)\n    {\n        // local finalResult initialised\n        bytes memory finalResult;\n        //gets dataType from ORC request struct which is then used for a hash of the params to match the results\n        answers[_requestID].dataType = orc.getDataType(_requestID);\n        // loop through the oracle counter to get oracle address and determine their result\n        for (uint i=0; i<answers[_requestID].oracleCounter; i++){\n            address oracleAddress = answers[_requestID].oracleAddresses[i]; // assign oracleAddress\n            // ensures actual result and required result are the same\n            bytes32 responseHash = keccak256(abi.encodePacked(\n                    answers[_requestID].dataType, answers[_requestID].oracleResults[oracleAddress]\n                )); // response hash from answer\n            emit LogHashes(orc.getPHash(_requestID), responseHash); // emits to listeners to 2 hashes, these should equal\n            if (responseHash == orc.getPHash(_requestID)){\n                answers[_requestID].t++; // if correct increment the true count\n                answers[_requestID].correctOracles.push(oracleAddress); // adds correct oracles to an array\n                if (finalResult.length <= 0) {\n                    // first response will assign its answer to the actual answer\n                    finalResult = answers[_requestID].oracleResults[oracleAddress]; // as these are all the same\n                }\n            } else {\n                //otherwise increment the false count\n                answers[_requestID].f++;\n            }\n        }\n        // requires a threshold for false answers\n        require(!(answers[_requestID].f > (answers[_requestID].oracleCounter - 1) / 3), 'too many incorrect nodes');\n        emit AggregationCompleted(_requestID, \"aggregation complete\");\n        return (finalResult, answers[_requestID].correctOracles);\n    }\n\n    function cancelRequest(\n        uint256 _requestID)\n    public\n    cancelFlagCheck(_requestID)\n    onlyORC() // only ORC contract can call this function\n    returns(bool)\n    {\n        answers[_requestID].cancelFlag = 1;\n        return true;\n    }\n    // ***modifiers***\n    modifier onlyAuthorisedOraclesYetToVote(\n        uint256 _requestID)\n    {\n        // checks that the oracle is in request list\n        require(orc.getOracleForRequest(_requestID, msg.sender));\n        // checks that the oracle hasn't yet voted.\n        require(answers[_requestID].oracleHasSubmitted[msg.sender] == false);\n        _;\n    }\n    modifier onlyOwner()\n    {\n        require(msg.sender == owner);\n        _;\n    }\n    modifier cancelFlagCheck(\n        uint256 _requestID)\n    {\n        require(answers[_requestID].cancelFlag == 0);\n        _;\n    }\n    modifier onlyORC()\n    {\n        require(msg.sender == address(orc));\n        _;\n    }\n\n}\n\n\n\n\n\n\n",
  "sourcePath": "/home/willp/Documents/MSc_Computer_Science/PROJECT/Research_Code/july22_projectcode/IoToracle/contracts/AggregatorContract.sol",
  "compiler": {
    "name": "solc",
    "version": "0.8.15+commit.e14f2714.Emscripten.clang"
  },
  "schemaVersion": "3.4.8",
  "updatedAt": "2022-08-05T11:50:56.836Z",
  "devdoc": {
    "kind": "dev",
    "methods": {},
    "version": 1
  },
  "userdoc": {
    "kind": "user",
    "methods": {},
    "version": 1
  }
}