{
  "contractName": "AggregatorContract",
  "abi": [
    {
      "inputs": [
        {
          "internalType": "address",
          "name": "_addr",
          "type": "address"
        }
      ],
      "stateMutability": "nonpayable",
      "type": "constructor"
    },
    {
      "anonymous": false,
      "inputs": [
        {
          "indexed": false,
          "internalType": "uint256",
          "name": "",
          "type": "uint256"
        },
        {
          "indexed": false,
          "internalType": "string",
          "name": "",
          "type": "string"
        }
      ],
      "name": "AggregationCompleted",
      "type": "event"
    },
    {
      "anonymous": false,
      "inputs": [
        {
          "indexed": false,
          "internalType": "address",
          "name": "",
          "type": "address"
        },
        {
          "indexed": false,
          "internalType": "string",
          "name": "",
          "type": "string"
        }
      ],
      "name": "ResponseReceived",
      "type": "event"
    },
    {
      "inputs": [],
      "name": "owner",
      "outputs": [
        {
          "internalType": "address payable",
          "name": "",
          "type": "address"
        }
      ],
      "stateMutability": "view",
      "type": "function",
      "constant": true
    },
    {
      "inputs": [
        {
          "internalType": "uint256",
          "name": "_requestID",
          "type": "uint256"
        },
        {
          "internalType": "bytes",
          "name": "_actualResult",
          "type": "bytes"
        }
      ],
      "name": "receiveResponse",
      "outputs": [
        {
          "internalType": "bool",
          "name": "",
          "type": "bool"
        }
      ],
      "stateMutability": "nonpayable",
      "type": "function"
    }
  ],
  "bytecode": "0x60806040523480156200001157600080fd5b5060405162001940380380620019408339818101604052810190620000379190620000e9565b80600160006101000a81548173ffffffffffffffffffffffffffffffffffffffff021916908373ffffffffffffffffffffffffffffffffffffffff160217905550506200011b565b600080fd5b600073ffffffffffffffffffffffffffffffffffffffff82169050919050565b6000620000b18262000084565b9050919050565b620000c381620000a4565b8114620000cf57600080fd5b50565b600081519050620000e381620000b8565b92915050565b6000602082840312156200010257620001016200007f565b5b60006200011284828501620000d2565b91505092915050565b611815806200012b6000396000f3fe608060405234801561001057600080fd5b50600436106100365760003560e01c80638da5cb5b1461003b578063f8f14f4214610059575b600080fd5b610043610089565b6040516100509190610c31565b60405180910390f35b610073600480360381019061006e9190610ddc565b6100ad565b6040516100809190610e53565b60405180910390f35b60008054906101000a900473ffffffffffffffffffffffffffffffffffffffff1681565b600082600160009054906101000a900473ffffffffffffffffffffffffffffffffffffffff1673ffffffffffffffffffffffffffffffffffffffff1663a37b354d82336040518363ffffffff1660e01b815260040161010d929190610e9e565b602060405180830381865afa15801561012a573d6000803e3d6000fd5b505050506040513d601f19601f8201168201806040525081019061014e9190610ef3565b61015757600080fd5b600015156002826064811061016f5761016e610f20565b5b6007020160020160003373ffffffffffffffffffffffffffffffffffffffff1673ffffffffffffffffffffffffffffffffffffffff16815260200190815260200160002060009054906101000a900460ff161515146101cd57600080fd5b600160009054906101000a900473ffffffffffffffffffffffffffffffffffffffff1673ffffffffffffffffffffffffffffffffffffffff166391a3632a856040518263ffffffff1660e01b81526004016102289190610f4f565b602060405180830381865afa158015610245573d6000803e3d6000fd5b505050506040513d601f19601f820116820180604052508101906102699190610fa6565b63ffffffff166002856064811061028357610282610f20565b5b600702016005015410156104405783600285606481106102a6576102a5610f20565b5b600702016000018190555082600285606481106102c6576102c5610f20565b5b6007020160030160003373ffffffffffffffffffffffffffffffffffffffff1673ffffffffffffffffffffffffffffffffffffffff168152602001908152602001600020908161031691906111ea565b5060016002856064811061032d5761032c610f20565b5b6007020160020160003373ffffffffffffffffffffffffffffffffffffffff1673ffffffffffffffffffffffffffffffffffffffff16815260200190815260200160002060006101000a81548160ff021916908315150217905550336002856064811061039d5761039c610f20565b5b600702016004016000600287606481106103ba576103b9610f20565b5b6007020160050154815260200190815260200160002060006101000a81548173ffffffffffffffffffffffffffffffffffffffff021916908373ffffffffffffffffffffffffffffffffffffffff1602179055506002846064811061042257610421610f20565b5b60070201600501600081548092919061043a906112eb565b91905055505b600160009054906101000a900473ffffffffffffffffffffffffffffffffffffffff1673ffffffffffffffffffffffffffffffffffffffff166391a3632a856040518263ffffffff1660e01b815260040161049b9190610f4f565b602060405180830381865afa1580156104b8573d6000803e3d6000fd5b505050506040513d601f19601f820116820180604052508101906104dc9190610fa6565b63ffffffff16600285606481106104f6576104f5610f20565b5b6007020160050154036105d2577fe4cba15a82b5f91e40e6fcd30c425c90aa715d1d6d73eb1fedb1baf58c28d6dd336040516105329190611390565b60405180910390a1600160009054906101000a900473ffffffffffffffffffffffffffffffffffffffff1673ffffffffffffffffffffffffffffffffffffffff1663ea317d5d8561058287610641565b6040518363ffffffff1660e01b815260040161059f92919061143b565b600060405180830381600087803b1580156105b957600080fd5b505af11580156105cd573d6000803e3d6000fd5b505050505b600284606481106105e6576105e5610f20565b5b6007020160020160003373ffffffffffffffffffffffffffffffffffffffff1673ffffffffffffffffffffffffffffffffffffffff16815260200190815260200160002060009054906101000a900460ff1691505092915050565b606080600160009054906101000a900473ffffffffffffffffffffffffffffffffffffffff1673ffffffffffffffffffffffffffffffffffffffff166357442e79846040518263ffffffff1660e01b815260040161069f9190610f4f565b600060405180830381865afa1580156106bc573d6000803e3d6000fd5b505050506040513d6000823e3d601f19601f820116820180604052508101906106e591906114db565b600284606481106106f9576106f8610f20565b5b60070201600101908161070c91906111ea565b5060005b6002846064811061072457610723610f20565b5b60070201600501548111610a795760006002856064811061074857610747610f20565b5b60070201600401600083815260200190815260200160002060009054906101000a900473ffffffffffffffffffffffffffffffffffffffff169050600160009054906101000a900473ffffffffffffffffffffffffffffffffffffffff1673ffffffffffffffffffffffffffffffffffffffff1663829c22fd866040518263ffffffff1660e01b81526004016107de9190610f4f565b602060405180830381865afa1580156107fb573d6000803e3d6000fd5b505050506040513d601f19601f8201168201806040525081019061081f919061155a565b6002866064811061083357610832610f20565b5b600702016001016002876064811061084e5761084d610f20565b5b6007020160030160008473ffffffffffffffffffffffffffffffffffffffff1673ffffffffffffffffffffffffffffffffffffffff1681526020019081526020016000206040516020016108a3929190611615565b6040516020818303038152906040528051906020012003610a0a57600285606481106108d2576108d1610f20565b5b60070201600601600081819054906101000a900463ffffffff16809291906108f990611639565b91906101000a81548163ffffffff021916908363ffffffff160217905550506000835111610a05576002856064811061093557610934610f20565b5b6007020160030160008273ffffffffffffffffffffffffffffffffffffffff1673ffffffffffffffffffffffffffffffffffffffff16815260200190815260200160002080546109849061100d565b80601f01602080910402602001604051908101604052809291908181526020018280546109b09061100d565b80156109fd5780601f106109d2576101008083540402835291602001916109fd565b820191906000526020600020905b8154815290600101906020018083116109e057829003601f168201915b505050505092505b610a65565b60028560648110610a1e57610a1d610f20565b5b60070201600601600481819054906101000a900463ffffffff1680929190610a4590611639565b91906101000a81548163ffffffff021916908363ffffffff160217905550505b508080610a71906112eb565b915050610710565b506003600160028560648110610a9257610a91610f20565b5b6007020160050154610aa49190611665565b610aae91906116c8565b60028460648110610ac257610ac1610f20565b5b6007020160060160049054906101000a900463ffffffff1663ffffffff161115610b21576040517f08c379a0000000000000000000000000000000000000000000000000000000008152600401610b1890611745565b60405180910390fd5b7fab982296b91a9b70c6739c96524c481cf0a1714be617e9bb39538f46ad5c880083604051610b5091906117b1565b60405180910390a1600160009054906101000a900473ffffffffffffffffffffffffffffffffffffffff1673ffffffffffffffffffffffffffffffffffffffff1663ea317d5d84836040518363ffffffff1660e01b8152600401610bb592919061143b565b600060405180830381600087803b158015610bcf57600080fd5b505af1158015610be3573d6000803e3d6000fd5b5050505080915050919050565b600073ffffffffffffffffffffffffffffffffffffffff82169050919050565b6000610c1b82610bf0565b9050919050565b610c2b81610c10565b82525050565b6000602082019050610c466000830184610c22565b92915050565b6000604051905090565b600080fd5b600080fd5b6000819050919050565b610c7381610c60565b8114610c7e57600080fd5b50565b600081359050610c9081610c6a565b92915050565b600080fd5b600080fd5b6000601f19601f8301169050919050565b7f4e487b7100000000000000000000000000000000000000000000000000000000600052604160045260246000fd5b610ce982610ca0565b810181811067ffffffffffffffff82111715610d0857610d07610cb1565b5b80604052505050565b6000610d1b610c4c565b9050610d278282610ce0565b919050565b600067ffffffffffffffff821115610d4757610d46610cb1565b5b610d5082610ca0565b9050602081019050919050565b82818337600083830152505050565b6000610d7f610d7a84610d2c565b610d11565b905082815260208101848484011115610d9b57610d9a610c9b565b5b610da6848285610d5d565b509392505050565b600082601f830112610dc357610dc2610c96565b5b8135610dd3848260208601610d6c565b91505092915050565b60008060408385031215610df357610df2610c56565b5b6000610e0185828601610c81565b925050602083013567ffffffffffffffff811115610e2257610e21610c5b565b5b610e2e85828601610dae565b9150509250929050565b60008115159050919050565b610e4d81610e38565b82525050565b6000602082019050610e686000830184610e44565b92915050565b610e7781610c60565b82525050565b6000610e8882610bf0565b9050919050565b610e9881610e7d565b82525050565b6000604082019050610eb36000830185610e6e565b610ec06020830184610e8f565b9392505050565b610ed081610e38565b8114610edb57600080fd5b50565b600081519050610eed81610ec7565b92915050565b600060208284031215610f0957610f08610c56565b5b6000610f1784828501610ede565b91505092915050565b7f4e487b7100000000000000000000000000000000000000000000000000000000600052603260045260246000fd5b6000602082019050610f646000830184610e6e565b92915050565b600063ffffffff82169050919050565b610f8381610f6a565b8114610f8e57600080fd5b50565b600081519050610fa081610f7a565b92915050565b600060208284031215610fbc57610fbb610c56565b5b6000610fca84828501610f91565b91505092915050565b600081519050919050565b7f4e487b7100000000000000000000000000000000000000000000000000000000600052602260045260246000fd5b6000600282049050600182168061102557607f821691505b60208210810361103857611037610fde565b5b50919050565b60008190508160005260206000209050919050565b60006020601f8301049050919050565b600082821b905092915050565b6000600883026110a07fffffffffffffffffffffffffffffffffffffffffffffffffffffffffffffffff82611063565b6110aa8683611063565b95508019841693508086168417925050509392505050565b6000819050919050565b60006110e76110e26110dd84610c60565b6110c2565b610c60565b9050919050565b6000819050919050565b611101836110cc565b61111561110d826110ee565b848454611070565b825550505050565b600090565b61112a61111d565b6111358184846110f8565b505050565b5b818110156111595761114e600082611122565b60018101905061113b565b5050565b601f82111561119e5761116f8161103e565b61117884611053565b81016020851015611187578190505b61119b61119385611053565b83018261113a565b50505b505050565b600082821c905092915050565b60006111c1600019846008026111a3565b1980831691505092915050565b60006111da83836111b0565b9150826002028217905092915050565b6111f382610fd3565b67ffffffffffffffff81111561120c5761120b610cb1565b5b611216825461100d565b61122182828561115d565b600060209050601f8311600181146112545760008415611242578287015190505b61124c85826111ce565b8655506112b4565b601f1984166112628661103e565b60005b8281101561128a57848901518255600182019150602085019450602081019050611265565b868310156112a757848901516112a3601f8916826111b0565b8355505b6001600288020188555050505b505050505050565b7f4e487b7100000000000000000000000000000000000000000000000000000000600052601160045260246000fd5b60006112f682610c60565b91507fffffffffffffffffffffffffffffffffffffffffffffffffffffffffffffffff8203611328576113276112bc565b5b600182019050919050565b600082825260208201905092915050565b7f726573706f6e7365206c6f676765640000000000000000000000000000000000600082015250565b600061137a600f83611333565b915061138582611344565b602082019050919050565b60006040820190506113a56000830184610e8f565b81810360208301526113b68161136d565b905092915050565b600082825260208201905092915050565b60005b838110156113ed5780820151818401526020810190506113d2565b838111156113fc576000848401525b50505050565b600061140d82610fd3565b61141781856113be565b93506114278185602086016113cf565b61143081610ca0565b840191505092915050565b60006040820190506114506000830185610e6e565b81810360208301526114628184611402565b90509392505050565b600061147e61147984610d2c565b610d11565b90508281526020810184848401111561149a57611499610c9b565b5b6114a58482856113cf565b509392505050565b600082601f8301126114c2576114c1610c96565b5b81516114d284826020860161146b565b91505092915050565b6000602082840312156114f1576114f0610c56565b5b600082015167ffffffffffffffff81111561150f5761150e610c5b565b5b61151b848285016114ad565b91505092915050565b6000819050919050565b61153781611524565b811461154257600080fd5b50565b6000815190506115548161152e565b92915050565b6000602082840312156115705761156f610c56565b5b600061157e84828501611545565b91505092915050565b600081905092915050565b6000815461159f8161100d565b6115a98186611587565b945060018216600081146115c457600181146115d95761160c565b60ff198316865281151582028601935061160c565b6115e28561103e565b60005b83811015611604578154818901526001820191506020810190506115e5565b838801955050505b50505092915050565b60006116218285611592565b915061162d8284611592565b91508190509392505050565b600061164482610f6a565b915063ffffffff820361165a576116596112bc565b5b600182019050919050565b600061167082610c60565b915061167b83610c60565b92508282101561168e5761168d6112bc565b5b828203905092915050565b7f4e487b7100000000000000000000000000000000000000000000000000000000600052601260045260246000fd5b60006116d382610c60565b91506116de83610c60565b9250826116ee576116ed611699565b5b828204905092915050565b7f746f6f206d616e7920696e636f7272656374206e6f6465730000000000000000600082015250565b600061172f601883611333565b915061173a826116f9565b602082019050919050565b6000602082019050818103600083015261175e81611722565b9050919050565b7f6167677265676174696f6e20636f6d706c657465000000000000000000000000600082015250565b600061179b601483611333565b91506117a682611765565b602082019050919050565b60006040820190506117c66000830184610e6e565b81810360208301526117d78161178e565b90509291505056fea2646970667358221220cdb98ecf8b3ea5330e8b99fc47fa7f161e443f76f0df4cb8cdd8f6a891525b8a64736f6c634300080f0033",
  "immutableReferences": {},
  "source": "// SPDX-License-Identifier: MIT\npragma solidity ^0.8.0;\n\nimport \"./OracleRequesterContract.sol\";\n\ncontract AggregatorContract {\n\n    address payable public owner;\n    // need an answers struct\n    OracleRequesterContract orc;\n    //orc = OracleRequesterContract() // address of deployed contract\n    Answer[100] answers; // array of 100 Answer structs\n    struct Answer {\n        uint256 requestID; // the request ID\n        bytes dataType; // data type of request 'bool' 'temp' etc\n        mapping (address => bool) oracleHasSubmitted; // authorised oracles, marked true when voted\n        mapping (address => bytes) oracleResults; // add their result to a map of their address\n        mapping (uint => address) oracleAddresses; // uint to address to match counter and iterate through\n        uint256 oracleCounter; // keep an index of the oracles\n        uint32 t; // a true counter;\n        uint32 f; // a false counter: we need this under (n-1)/3\n    }\n\n    event ResponseReceived(address, string);\n    event AggregationCompleted(uint256, string);\n\n    constructor(address _addr) {\n        // initialise the Oracle Request Contract contract\n        orc = OracleRequesterContract(_addr);\n    }\n\n    // @notice each oracle sends their response to through this function\n    // filling up the Answer struct at index requestID.\n    // @dev\n    // @param _requestID ID of request\n    // @param _actualResult the value the off-chain oracle has collected\n    // @return bool, true to say answer has been submitted\n    function receiveResponse(\n        uint256 _requestID,\n        bytes memory _actualResult\n    )\n    public\n    onlyAuthorisedOraclesYetToVote(_requestID)\n    returns(bool){\n        if (answers[_requestID].oracleCounter < orc.getNumberOfOracles(_requestID)) {\n            answers[_requestID].requestID = _requestID;\n            answers[_requestID].oracleResults[msg.sender] = _actualResult;\n            answers[_requestID].oracleHasSubmitted[msg.sender] = true;\n            answers[_requestID].oracleAddresses[answers[_requestID].oracleCounter] = msg.sender;\n            answers[_requestID].oracleCounter++;\n        }\n        // if the counter has reached the number of oracles needed,\n        // we can call the deliverResponse with the aggregation() method with returns a single result\n        if(answers[_requestID].oracleCounter == orc.getNumberOfOracles(_requestID)) {\n            // call aggregator function\n            emit ResponseReceived(msg.sender, \"response logged\");\n            orc.deliverResponse(_requestID, aggregation(_requestID));\n        }\n        return answers[_requestID].oracleHasSubmitted[msg.sender];\n    }\n\n    // @notice aggregates results on a voting system, also requires that false votes are not larger than a threshold\n    // @dev\n    // @param _requestID pass in requestID to index the answers\n    // @return final result\n    function aggregation(uint256 _requestID) internal returns(bytes memory) {\n        // local finalResult initialised\n        bytes memory finalResult;\n        //gets dataType from ORC request struct which is then used for a hash of the params to match the results\n        answers[_requestID].dataType = orc.getDataType(_requestID);\n        for (uint i=0; i<=answers[_requestID].oracleCounter; i++){\n            address oracleAddress = answers[_requestID].oracleAddresses[i];\n            // ensures actual result and required result are the same\n            if (keccak256(abi.encodePacked(\n                    answers[_requestID].dataType, answers[_requestID].oracleResults[oracleAddress]\n                )) == orc.getPHash(_requestID)){\n                // if correct increment the true count\n                answers[_requestID].t++;\n                if (finalResult.length <= 0) {\n                    // first response will assign its answer to the actual answer\n                    finalResult = answers[_requestID].oracleResults[oracleAddress];\n                }\n            } else {\n                //otherwise increment the false count\n                answers[_requestID].f++;\n            }\n        }\n        // requires a threshold for false answers\n        require(!(answers[_requestID].f > (answers[_requestID].oracleCounter - 1) / 3), 'too many incorrect nodes');\n        emit AggregationCompleted(_requestID, \"aggregation complete\");\n        orc.deliverResponse(_requestID, finalResult);\n        return finalResult;\n    }\n\n\n\n    modifier onlyAuthorisedOraclesYetToVote(uint256 _requestID) {\n        // checks that the oracle is in request list\n        require(orc.getOracleForRequest(_requestID, msg.sender));\n        // checks that the oracle hasn't yet voted.\n        require(answers[_requestID].oracleHasSubmitted[msg.sender] == false);\n        _;\n    }\n}\n\n\n\n\n\n\n",
  "sourcePath": "/home/willp/Documents/MSc_Computer_Science/PROJECT/Research_Code/july22_projectcode/IoToracle/contracts/AggregatorContract.sol",
  "compiler": {
    "name": "solc",
    "version": "0.8.15+commit.e14f2714.Emscripten.clang"
  },
  "schemaVersion": "3.4.8",
  "updatedAt": "2022-07-20T13:05:28.881Z",
  "networkType": "ethereum",
  "devdoc": {
    "kind": "dev",
    "methods": {},
    "version": 1
  },
  "userdoc": {
    "kind": "user",
    "methods": {},
    "version": 1
  }
}