{
  "contractName": "AggregatorContract",
  "abi": [
    {
      "inputs": [
        {
          "internalType": "address",
          "name": "_addr",
          "type": "address"
        }
      ],
      "stateMutability": "nonpayable",
      "type": "constructor"
    },
    {
      "anonymous": false,
      "inputs": [
        {
          "indexed": false,
          "internalType": "uint256",
          "name": "",
          "type": "uint256"
        },
        {
          "indexed": false,
          "internalType": "string",
          "name": "",
          "type": "string"
        }
      ],
      "name": "AggregationCompleted",
      "type": "event"
    },
    {
      "anonymous": false,
      "inputs": [
        {
          "indexed": false,
          "internalType": "uint256",
          "name": "",
          "type": "uint256"
        },
        {
          "indexed": false,
          "internalType": "string",
          "name": "",
          "type": "string"
        }
      ],
      "name": "CommitsPlaced",
      "type": "event"
    },
    {
      "anonymous": false,
      "inputs": [
        {
          "indexed": false,
          "internalType": "bool",
          "name": "",
          "type": "bool"
        }
      ],
      "name": "LogBool",
      "type": "event"
    },
    {
      "anonymous": false,
      "inputs": [
        {
          "indexed": false,
          "internalType": "bytes32",
          "name": "",
          "type": "bytes32"
        },
        {
          "indexed": false,
          "internalType": "bytes32",
          "name": "",
          "type": "bytes32"
        }
      ],
      "name": "LogHashes",
      "type": "event"
    },
    {
      "anonymous": false,
      "inputs": [
        {
          "indexed": false,
          "internalType": "int256",
          "name": "",
          "type": "int256"
        }
      ],
      "name": "LogInt",
      "type": "event"
    },
    {
      "anonymous": false,
      "inputs": [
        {
          "indexed": false,
          "internalType": "string",
          "name": "",
          "type": "string"
        }
      ],
      "name": "Logging",
      "type": "event"
    },
    {
      "anonymous": false,
      "inputs": [
        {
          "indexed": false,
          "internalType": "uint256",
          "name": "",
          "type": "uint256"
        },
        {
          "indexed": false,
          "internalType": "string",
          "name": "",
          "type": "string"
        }
      ],
      "name": "RevealsPlaced",
      "type": "event"
    },
    {
      "inputs": [
        {
          "internalType": "uint256",
          "name": "",
          "type": "uint256"
        }
      ],
      "name": "answers",
      "outputs": [
        {
          "internalType": "uint256",
          "name": "requestID",
          "type": "uint256"
        },
        {
          "internalType": "bytes",
          "name": "dataType",
          "type": "bytes"
        },
        {
          "internalType": "uint256",
          "name": "oracleCounter",
          "type": "uint256"
        },
        {
          "internalType": "uint256",
          "name": "t",
          "type": "uint256"
        },
        {
          "internalType": "uint256",
          "name": "f",
          "type": "uint256"
        },
        {
          "internalType": "uint256",
          "name": "cancelFlag",
          "type": "uint256"
        },
        {
          "internalType": "uint256",
          "name": "commitsFlag",
          "type": "uint256"
        },
        {
          "internalType": "uint256",
          "name": "revealsFlag",
          "type": "uint256"
        },
        {
          "internalType": "bool",
          "name": "lastOracle",
          "type": "bool"
        }
      ],
      "stateMutability": "view",
      "type": "function",
      "constant": true
    },
    {
      "inputs": [],
      "name": "owner",
      "outputs": [
        {
          "internalType": "address",
          "name": "",
          "type": "address"
        }
      ],
      "stateMutability": "view",
      "type": "function",
      "constant": true
    },
    {
      "inputs": [
        {
          "internalType": "uint256",
          "name": "_requestID",
          "type": "uint256"
        },
        {
          "internalType": "bytes32",
          "name": "_commitHash",
          "type": "bytes32"
        }
      ],
      "name": "commitResponse",
      "outputs": [
        {
          "internalType": "bool",
          "name": "",
          "type": "bool"
        }
      ],
      "stateMutability": "nonpayable",
      "type": "function"
    },
    {
      "inputs": [
        {
          "internalType": "uint256",
          "name": "_requestID",
          "type": "uint256"
        },
        {
          "internalType": "bytes",
          "name": "_result",
          "type": "bytes"
        },
        {
          "internalType": "bytes",
          "name": "_secret",
          "type": "bytes"
        }
      ],
      "name": "revealVoteResponse",
      "outputs": [],
      "stateMutability": "nonpayable",
      "type": "function"
    },
    {
      "inputs": [
        {
          "internalType": "uint256",
          "name": "_requestID",
          "type": "uint256"
        },
        {
          "internalType": "bytes",
          "name": "_result",
          "type": "bytes"
        },
        {
          "internalType": "bytes",
          "name": "_secret",
          "type": "bytes"
        }
      ],
      "name": "revealAverageResponse",
      "outputs": [
        {
          "internalType": "bool",
          "name": "",
          "type": "bool"
        }
      ],
      "stateMutability": "nonpayable",
      "type": "function"
    },
    {
      "inputs": [
        {
          "internalType": "uint256",
          "name": "_requestID",
          "type": "uint256"
        }
      ],
      "name": "cancelRequest",
      "outputs": [
        {
          "internalType": "bool",
          "name": "",
          "type": "bool"
        }
      ],
      "stateMutability": "nonpayable",
      "type": "function"
    },
    {
      "inputs": [
        {
          "internalType": "bytes",
          "name": "data",
          "type": "bytes"
        }
      ],
      "name": "decodeBool",
      "outputs": [
        {
          "internalType": "bool",
          "name": "b",
          "type": "bool"
        }
      ],
      "stateMutability": "pure",
      "type": "function",
      "constant": true
    },
    {
      "inputs": [
        {
          "internalType": "bytes",
          "name": "data",
          "type": "bytes"
        }
      ],
      "name": "decodeInt",
      "outputs": [
        {
          "internalType": "int256",
          "name": "i",
          "type": "int256"
        }
      ],
      "stateMutability": "pure",
      "type": "function",
      "constant": true
    }
  ],
  "bytecode": "0x60806040523480156200001157600080fd5b506040516200340438038062003404833981810160405281019062000037919062000129565b336000806101000a81548173ffffffffffffffffffffffffffffffffffffffff021916908373ffffffffffffffffffffffffffffffffffffffff16021790555080600160006101000a81548173ffffffffffffffffffffffffffffffffffffffff021916908373ffffffffffffffffffffffffffffffffffffffff160217905550506200015b565b600080fd5b600073ffffffffffffffffffffffffffffffffffffffff82169050919050565b6000620000f182620000c4565b9050919050565b6200010381620000e4565b81146200010f57600080fd5b50565b6000815190506200012381620000f8565b92915050565b600060208284031215620001425762000141620000bf565b5b6000620001528482850162000112565b91505092915050565b613299806200016b6000396000f3fe608060405234801561001057600080fd5b50600436106100885760003560e01c8063582b56561161005b578063582b5656146101415780638da5cb5b14610171578063b44d54951461018f578063c62173d0146101bf57610088565b8063074e324d1461008d57806317599cc5146100bd5780633015394c146100f55780633560540714610125575b600080fd5b6100a760048036038101906100a291906122e3565b6101ef565b6040516100b4919061233e565b60405180910390f35b6100d760048036038101906100d29190612359565b61077b565b6040516100ec9998979695949392919061242e565b60405180910390f35b61010f600480360381019061010a9190612359565b610864565b60405161011c919061233e565b60405180910390f35b61013f600480360381019061013a91906125f7565b610914565b005b61015b60048036038101906101569190612682565b6110de565b60405161016891906126e4565b60405180910390f35b6101796110ef565b6040516101869190612740565b60405180910390f35b6101a960048036038101906101a491906125f7565b611113565b6040516101b6919061233e565b60405180910390f35b6101d960048036038101906101d49190612682565b611848565b6040516101e6919061233e565b60405180910390f35b600082600160009054906101000a900473ffffffffffffffffffffffffffffffffffffffff1673ffffffffffffffffffffffffffffffffffffffff1663a37b354d82336040518363ffffffff1660e01b815260040161024f92919061275b565b602060405180830381865afa15801561026c573d6000803e3d6000fd5b505050506040513d601f19601f8201168201806040525081019061029091906127b0565b61029957600080fd5b60001515600282606481106102b1576102b06127dd565b5b6013020160020160003373ffffffffffffffffffffffffffffffffffffffff1673ffffffffffffffffffffffffffffffffffffffff16815260200190815260200160002060009054906101000a900460ff1615151461030f57600080fd5b83600060028260648110610326576103256127dd565b5b60130201600f01541461033857600080fd5b8460006002826064811061034f5761034e6127dd565b5b60130201601001541461036157600080fd5b600060028760648110610377576103766127dd565b5b6013020160000154036103e7578560028760648110610399576103986127dd565b5b60130201600001819055506000600287606481106103ba576103b96127dd565b5b60130201600d01819055506000600287606481106103db576103da6127dd565b5b60130201600e01819055505b600160009054906101000a900473ffffffffffffffffffffffffffffffffffffffff1673ffffffffffffffffffffffffffffffffffffffff166391a3632a876040518263ffffffff1660e01b8152600401610442919061280c565b602060405180830381865afa15801561045f573d6000803e3d6000fd5b505050506040513d601f19601f820116820180604052508101906104839190612863565b63ffffffff166002876064811061049d5761049c6127dd565b5b601302016008015410156106315784600287606481106104c0576104bf6127dd565b5b6013020160040160003373ffffffffffffffffffffffffffffffffffffffff1673ffffffffffffffffffffffffffffffffffffffff1681526020019081526020016000208190555060016002876064811061051e5761051d6127dd565b5b6013020160020160003373ffffffffffffffffffffffffffffffffffffffff1673ffffffffffffffffffffffffffffffffffffffff16815260200190815260200160002060006101000a81548160ff021916908315150217905550336002876064811061058e5761058d6127dd565b5b601302016007016000600289606481106105ab576105aa6127dd565b5b6013020160080154815260200190815260200160002060006101000a81548173ffffffffffffffffffffffffffffffffffffffff021916908373ffffffffffffffffffffffffffffffffffffffff16021790555060028660648110610613576106126127dd565b5b60130201600801600081548092919061062b906128bf565b91905055505b600160009054906101000a900473ffffffffffffffffffffffffffffffffffffffff1673ffffffffffffffffffffffffffffffffffffffff166391a3632a876040518263ffffffff1660e01b815260040161068c919061280c565b602060405180830381865afa1580156106a9573d6000803e3d6000fd5b505050506040513d601f19601f820116820180604052508101906106cd9190612863565b63ffffffff16600287606481106106e7576106e66127dd565b5b60130201600801540361076e5760016002876064811061070a576107096127dd565b5b601302016010018190555060006002876064811061072b5761072a6127dd565b5b60130201600801819055507f94654b3250060d23222c9a81fdafe2f23accfb1dc46fb56b8e4aa75c0776e0fd866040516107659190612964565b60405180910390a15b6001935050505092915050565b6002816064811061078b57600080fd5b601302016000915090508060000154908060010180546107aa906129c1565b80601f01602080910402602001604051908101604052809291908181526020018280546107d6906129c1565b80156108235780601f106107f857610100808354040283529160200191610823565b820191906000526020600020905b81548152906001019060200180831161080657829003601f168201915b50505050509080600801549080600d01549080600e01549080600f0154908060100154908060110154908060120160009054906101000a900460ff16905089565b60008160006002826064811061087d5761087c6127dd565b5b60130201600f01541461088f57600080fd5b600160009054906101000a900473ffffffffffffffffffffffffffffffffffffffff1673ffffffffffffffffffffffffffffffffffffffff163373ffffffffffffffffffffffffffffffffffffffff16146108e957600080fd5b6001600284606481106108ff576108fe6127dd565b5b60130201600f01819055506001915050919050565b82600160009054906101000a900473ffffffffffffffffffffffffffffffffffffffff1673ffffffffffffffffffffffffffffffffffffffff1663a37b354d82336040518363ffffffff1660e01b815260040161097292919061275b565b602060405180830381865afa15801561098f573d6000803e3d6000fd5b505050506040513d601f19601f820116820180604052508101906109b391906127b0565b6109bc57600080fd5b60001515600282606481106109d4576109d36127dd565b5b6013020160030160003373ffffffffffffffffffffffffffffffffffffffff1673ffffffffffffffffffffffffffffffffffffffff16815260200190815260200160002060009054906101000a900460ff16151514610a3257600080fd5b83600060028260648110610a4957610a486127dd565b5b60130201600f015414610a5b57600080fd5b84600160028260648110610a7257610a716127dd565b5b601302016010015414610a8457600080fd5b85600060028260648110610a9b57610a9a6127dd565b5b601302016011015414610aad57600080fd5b8660018060009054906101000a900473ffffffffffffffffffffffffffffffffffffffff1673ffffffffffffffffffffffffffffffffffffffff1663e4888222836040518263ffffffff1660e01b8152600401610b0a919061280c565b602060405180830381865afa158015610b27573d6000803e3d6000fd5b505050506040513d601f19601f82011682018060405250810190610b4b9190612a07565b14610b5557600080fd5b60008688604051602001610b6a929190612a70565b6040516020818303038152906040528051906020012090507f1034809265ff4258719a9aebc8a98d3ae11c847f3db81864425e812fd387c18860028a60648110610bb757610bb66127dd565b5b6013020160040160003373ffffffffffffffffffffffffffffffffffffffff1673ffffffffffffffffffffffffffffffffffffffff1681526020019081526020016000205482604051610c0b929190612aa3565b60405180910390a16000610c1e89611848565b90507fc33356bc2bad2ce263b056da5d061d4e89c336823d5e77f14c1383aedb7a1b3a81604051610c4f919061233e565b60405180910390a18160028b60648110610c6c57610c6b6127dd565b5b6013020160040160003373ffffffffffffffffffffffffffffffffffffffff1673ffffffffffffffffffffffffffffffffffffffff1681526020019081526020016000205403610e4d578060028b60648110610ccb57610cca6127dd565b5b6013020160050160003373ffffffffffffffffffffffffffffffffffffffff1673ffffffffffffffffffffffffffffffffffffffff16815260200190815260200160002060006101000a81548160ff021916908315150217905550600160028b60648110610d3c57610d3b6127dd565b5b6013020160030160003373ffffffffffffffffffffffffffffffffffffffff1673ffffffffffffffffffffffffffffffffffffffff16815260200190815260200160002060006101000a81548160ff02191690831515021790555060028a60648110610dab57610daa6127dd565b5b60130201600901339080600181540180825580915050600190039060005260206000200160009091909190916101000a81548173ffffffffffffffffffffffffffffffffffffffff021916908373ffffffffffffffffffffffffffffffffffffffff1602179055507fb1ed47ced4562a888b3c47e728f82f7863e472cad724018fe1585bc6853ec82d604051610e4090612b18565b60405180910390a1610f70565b7fb1ed47ced4562a888b3c47e728f82f7863e472cad724018fe1585bc6853ec82d604051610e7a90612b84565b60405180910390a160028a60648110610e9657610e956127dd565b5b60130201600a01339080600181540180825580915050600190039060005260206000200160009091909190916101000a81548173ffffffffffffffffffffffffffffffffffffffff021916908373ffffffffffffffffffffffffffffffffffffffff160217905550600160028b60648110610f1457610f136127dd565b5b6013020160030160003373ffffffffffffffffffffffffffffffffffffffff1673ffffffffffffffffffffffffffffffffffffffff16815260200190815260200160002060006101000a81548160ff0219169083151502179055505b60018060009054906101000a900473ffffffffffffffffffffffffffffffffffffffff1673ffffffffffffffffffffffffffffffffffffffff166391a3632a8c6040518263ffffffff1660e01b8152600401610fcc919061280c565b602060405180830381865afa158015610fe9573d6000803e3d6000fd5b505050506040513d601f19601f8201168201806040525081019061100d9190612863565b6110179190612ba4565b63ffffffff1660028b60648110611031576110306127dd565b5b6013020160080154036110a1577fcd9014e59ca398764ef85e5719d2151f53668c6d08f5ea98e064a65a6cccf06e8a60405161106d9190612c24565b60405180910390a1600160028b6064811061108b5761108a6127dd565b5b601302016011018190555061109f8a611859565b505b60028a606481106110b5576110b46127dd565b5b6013020160080160008154809291906110cd906128bf565b919050555050505050505050505050565b600081516020830151915050919050565b60008054906101000a900473ffffffffffffffffffffffffffffffffffffffff1681565b600083600160009054906101000a900473ffffffffffffffffffffffffffffffffffffffff1673ffffffffffffffffffffffffffffffffffffffff1663a37b354d82336040518363ffffffff1660e01b815260040161117392919061275b565b602060405180830381865afa158015611190573d6000803e3d6000fd5b505050506040513d601f19601f820116820180604052508101906111b491906127b0565b6111bd57600080fd5b60001515600282606481106111d5576111d46127dd565b5b6013020160030160003373ffffffffffffffffffffffffffffffffffffffff1673ffffffffffffffffffffffffffffffffffffffff16815260200190815260200160002060009054906101000a900460ff1615151461123357600080fd5b8460006002826064811061124a576112496127dd565b5b60130201600f01541461125c57600080fd5b85600160028260648110611273576112726127dd565b5b60130201601001541461128557600080fd5b8660006002826064811061129c5761129b6127dd565b5b6013020160110154146112ae57600080fd5b876002600160009054906101000a900473ffffffffffffffffffffffffffffffffffffffff1673ffffffffffffffffffffffffffffffffffffffff1663e4888222836040518263ffffffff1660e01b815260040161130c919061280c565b602060405180830381865afa158015611329573d6000803e3d6000fd5b505050506040513d601f19601f8201168201806040525081019061134d9190612a07565b1461135757600080fd5b6000611362896110de565b90506000888a604051602001611379929190612a70565b6040516020818303038152906040528051906020012090507f1034809265ff4258719a9aebc8a98d3ae11c847f3db81864425e812fd387c18860028c606481106113c6576113c56127dd565b5b6013020160040160003373ffffffffffffffffffffffffffffffffffffffff1673ffffffffffffffffffffffffffffffffffffffff168152602001908152602001600020548260405161141a929190612aa3565b60405180910390a17f1aa4309bfd99af8afa7454590e1bdaa5a9b3b63e5baa109ae9afa3ecd0c67f398260405161145191906126e4565b60405180910390a18060028c6064811061146e5761146d6127dd565b5b6013020160040160003373ffffffffffffffffffffffffffffffffffffffff1673ffffffffffffffffffffffffffffffffffffffff1681526020019081526020016000205403611607578160028c606481106114cd576114cc6127dd565b5b6013020160060160003373ffffffffffffffffffffffffffffffffffffffff1673ffffffffffffffffffffffffffffffffffffffff16815260200190815260200160002081905550600160028c6064811061152b5761152a6127dd565b5b6013020160030160003373ffffffffffffffffffffffffffffffffffffffff1673ffffffffffffffffffffffffffffffffffffffff16815260200190815260200160002060006101000a81548160ff02191690831515021790555060028b6064811061159a576115996127dd565b5b60130201600901339080600181540180825580915050600190039060005260206000200160009091909190916101000a81548173ffffffffffffffffffffffffffffffffffffffff021916908373ffffffffffffffffffffffffffffffffffffffff1602179055506116f5565b60028b6064811061161b5761161a6127dd565b5b60130201600a01339080600181540180825580915050600190039060005260206000200160009091909190916101000a81548173ffffffffffffffffffffffffffffffffffffffff021916908373ffffffffffffffffffffffffffffffffffffffff160217905550600160028c60648110611699576116986127dd565b5b6013020160030160003373ffffffffffffffffffffffffffffffffffffffff1673ffffffffffffffffffffffffffffffffffffffff16815260200190815260200160002060006101000a81548160ff0219169083151502179055505b60018060009054906101000a900473ffffffffffffffffffffffffffffffffffffffff1673ffffffffffffffffffffffffffffffffffffffff166391a3632a8d6040518263ffffffff1660e01b8152600401611751919061280c565b602060405180830381865afa15801561176e573d6000803e3d6000fd5b505050506040513d601f19601f820116820180604052508101906117929190612863565b61179c9190612ba4565b63ffffffff1660028c606481106117b6576117b56127dd565b5b601302016008015403611805577fcd9014e59ca398764ef85e5719d2151f53668c6d08f5ea98e064a65a6cccf06e8b6040516117f29190612c24565b60405180910390a16118038b612015565b505b60028b60648110611819576118186127dd565b5b601302016008016000815480929190611831906128bf565b919050555060019750505050505050509392505050565b600081516020830151915050919050565b600080600080600090505b60028560648110611878576118776127dd565b5b6013020160090180549050811015611b67577fb1ed47ced4562a888b3c47e728f82f7863e472cad724018fe1585bc6853ec82d6040516118b790612c9e565b60405180910390a1600285606481106118d3576118d26127dd565b5b6013020160090181815481106118ec576118eb6127dd565b5b9060005260206000200160009054906101000a900473ffffffffffffffffffffffffffffffffffffffff1691506001151560028660648110611931576119306127dd565b5b6013020160050160008473ffffffffffffffffffffffffffffffffffffffff1673ffffffffffffffffffffffffffffffffffffffff16815260200190815260200160002060009054906101000a900460ff16151503611a71577fb1ed47ced4562a888b3c47e728f82f7863e472cad724018fe1585bc6853ec82d6040516119b790612d0a565b60405180910390a1600285606481106119d3576119d26127dd565b5b60130201600b01829080600181540180825580915050600190039060005260206000200160009091909190916101000a81548173ffffffffffffffffffffffffffffffffffffffff021916908373ffffffffffffffffffffffffffffffffffffffff16021790555060028560648110611a4f57611a4e6127dd565b5b60130201600d016000815480929190611a67906128bf565b9190505550611b54565b7fb1ed47ced4562a888b3c47e728f82f7863e472cad724018fe1585bc6853ec82d604051611a9e90612d76565b60405180910390a160028560648110611aba57611ab96127dd565b5b60130201600c01829080600181540180825580915050600190039060005260206000200160009091909190916101000a81548173ffffffffffffffffffffffffffffffffffffffff021916908373ffffffffffffffffffffffffffffffffffffffff16021790555060028560648110611b3657611b356127dd565b5b60130201600e016000815480929190611b4e906128bf565b91905055505b8080611b5f906128bf565b915050611864565b5060028460648110611b7c57611b7b6127dd565b5b60130201600e015460028560648110611b9857611b976127dd565b5b60130201600d01541115611d2f57600360028560648110611bbc57611bbb6127dd565b5b6013020160080154611bce9190612dc5565b60028560648110611be257611be16127dd565b5b60130201600e01541115611c2b576040517f08c379a0000000000000000000000000000000000000000000000000000000008152600401611c2290612e42565b60405180910390fd5b60019150600160009054906101000a900473ffffffffffffffffffffffffffffffffffffffff1673ffffffffffffffffffffffffffffffffffffffff166330407ad9858460028860648110611c8357611c826127dd565b5b60130201600b0160028960648110611c9e57611c9d6127dd565b5b60130201600c0160028a60648110611cb957611cb86127dd565b5b60130201600a016040518663ffffffff1660e01b8152600401611ce0959493929190612f86565b6020604051808303816000875af1158015611cff573d6000803e3d6000fd5b505050506040513d601f19601f82011682018060405250810190611d2391906127b0565b50600192505050612010565b60028460648110611d4357611d426127dd565b5b60130201600d015460028560648110611d5f57611d5e6127dd565b5b60130201600e01541115611ef657600360028560648110611d8357611d826127dd565b5b6013020160080154611d959190612dc5565b60028560648110611da957611da86127dd565b5b60130201600d01541115611df2576040517f08c379a0000000000000000000000000000000000000000000000000000000008152600401611de990612e42565b60405180910390fd5b60009150600160009054906101000a900473ffffffffffffffffffffffffffffffffffffffff1673ffffffffffffffffffffffffffffffffffffffff166330407ad9858460028860648110611e4a57611e496127dd565b5b60130201600c0160028960648110611e6557611e646127dd565b5b60130201600b0160028a60648110611e8057611e7f6127dd565b5b60130201600a016040518663ffffffff1660e01b8152600401611ea7959493929190612f86565b6020604051808303816000875af1158015611ec6573d6000803e3d6000fd5b505050506040513d601f19601f82011682018060405250810190611eea91906127b0565b50600192505050612010565b600160009054906101000a900473ffffffffffffffffffffffffffffffffffffffff1673ffffffffffffffffffffffffffffffffffffffff1663498d7df08560028760648110611f4957611f486127dd565b5b60130201600a016040518363ffffffff1660e01b8152600401611f6d929190612fee565b6020604051808303816000875af1158015611f8c573d6000803e3d6000fd5b505050506040513d601f19601f82011682018060405250810190611fb091906127b0565b50600160028560648110611fc757611fc66127dd565b5b60130201600f01819055507fab982296b91a9b70c6739c96524c481cf0a1714be617e9bb39538f46ad5c880084604051612001919061306a565b60405180910390a16000925050505b919050565b60008060008080600090505b60028660648110612035576120346127dd565b5b601302016009018054905081101561211a576002866064811061205b5761205a6127dd565b5b601302016009018181548110612074576120736127dd565b5b9060005260206000200160009054906101000a900473ffffffffffffffffffffffffffffffffffffffff169350600286606481106120b5576120b46127dd565b5b6013020160060160008573ffffffffffffffffffffffffffffffffffffffff1673ffffffffffffffffffffffffffffffffffffffff16815260200190815260200160002054836121059190613098565b92508080612112906128bf565b915050612021565b506002856064811061212f5761212e6127dd565b5b601302016009018054905082612145919061312c565b9050600160009054906101000a900473ffffffffffffffffffffffffffffffffffffffff1673ffffffffffffffffffffffffffffffffffffffff166358621b7a86836002896064811061219b5761219a6127dd565b5b6013020160090160028a606481106121b6576121b56127dd565b5b60130201600a016040518563ffffffff1660e01b81526004016121dc9493929190613196565b6020604051808303816000875af11580156121fb573d6000803e3d6000fd5b505050506040513d601f19601f8201168201806040525081019061221f91906127b0565b507fab982296b91a9b70c6739c96524c481cf0a1714be617e9bb39538f46ad5c88008560405161224f9190613235565b60405180910390a160019350505050919050565b6000604051905090565b600080fd5b600080fd5b6000819050919050565b61228a81612277565b811461229557600080fd5b50565b6000813590506122a781612281565b92915050565b6000819050919050565b6122c0816122ad565b81146122cb57600080fd5b50565b6000813590506122dd816122b7565b92915050565b600080604083850312156122fa576122f961226d565b5b600061230885828601612298565b9250506020612319858286016122ce565b9150509250929050565b60008115159050919050565b61233881612323565b82525050565b6000602082019050612353600083018461232f565b92915050565b60006020828403121561236f5761236e61226d565b5b600061237d84828501612298565b91505092915050565b61238f81612277565b82525050565b600081519050919050565b600082825260208201905092915050565b60005b838110156123cf5780820151818401526020810190506123b4565b838111156123de576000848401525b50505050565b6000601f19601f8301169050919050565b600061240082612395565b61240a81856123a0565b935061241a8185602086016123b1565b612423816123e4565b840191505092915050565b600061012082019050612444600083018c612386565b8181036020830152612456818b6123f5565b9050612465604083018a612386565b6124726060830189612386565b61247f6080830188612386565b61248c60a0830187612386565b61249960c0830186612386565b6124a660e0830185612386565b6124b461010083018461232f565b9a9950505050505050505050565b600080fd5b600080fd5b7f4e487b7100000000000000000000000000000000000000000000000000000000600052604160045260246000fd5b612504826123e4565b810181811067ffffffffffffffff82111715612523576125226124cc565b5b80604052505050565b6000612536612263565b905061254282826124fb565b919050565b600067ffffffffffffffff821115612562576125616124cc565b5b61256b826123e4565b9050602081019050919050565b82818337600083830152505050565b600061259a61259584612547565b61252c565b9050828152602081018484840111156125b6576125b56124c7565b5b6125c1848285612578565b509392505050565b600082601f8301126125de576125dd6124c2565b5b81356125ee848260208601612587565b91505092915050565b6000806000606084860312156126105761260f61226d565b5b600061261e86828701612298565b935050602084013567ffffffffffffffff81111561263f5761263e612272565b5b61264b868287016125c9565b925050604084013567ffffffffffffffff81111561266c5761266b612272565b5b612678868287016125c9565b9150509250925092565b6000602082840312156126985761269761226d565b5b600082013567ffffffffffffffff8111156126b6576126b5612272565b5b6126c2848285016125c9565b91505092915050565b6000819050919050565b6126de816126cb565b82525050565b60006020820190506126f960008301846126d5565b92915050565b600073ffffffffffffffffffffffffffffffffffffffff82169050919050565b600061272a826126ff565b9050919050565b61273a8161271f565b82525050565b60006020820190506127556000830184612731565b92915050565b60006040820190506127706000830185612386565b61277d6020830184612731565b9392505050565b61278d81612323565b811461279857600080fd5b50565b6000815190506127aa81612784565b92915050565b6000602082840312156127c6576127c561226d565b5b60006127d48482850161279b565b91505092915050565b7f4e487b7100000000000000000000000000000000000000000000000000000000600052603260045260246000fd5b60006020820190506128216000830184612386565b92915050565b600063ffffffff82169050919050565b61284081612827565b811461284b57600080fd5b50565b60008151905061285d81612837565b92915050565b6000602082840312156128795761287861226d565b5b60006128878482850161284e565b91505092915050565b7f4e487b7100000000000000000000000000000000000000000000000000000000600052601160045260246000fd5b60006128ca82612277565b91507fffffffffffffffffffffffffffffffffffffffffffffffffffffffffffffffff82036128fc576128fb612890565b5b600182019050919050565b600082825260208201905092915050565b7f636f6d6d6974732061726520706c616365640000000000000000000000000000600082015250565b600061294e601283612907565b915061295982612918565b602082019050919050565b60006040820190506129796000830184612386565b818103602083015261298a81612941565b905092915050565b7f4e487b7100000000000000000000000000000000000000000000000000000000600052602260045260246000fd5b600060028204905060018216806129d957607f821691505b6020821081036129ec576129eb612992565b5b50919050565b600081519050612a0181612281565b92915050565b600060208284031215612a1d57612a1c61226d565b5b6000612a2b848285016129f2565b91505092915050565b600081905092915050565b6000612a4a82612395565b612a548185612a34565b9350612a648185602086016123b1565b80840191505092915050565b6000612a7c8285612a3f565b9150612a888284612a3f565b91508190509392505050565b612a9d816122ad565b82525050565b6000604082019050612ab86000830185612a94565b612ac56020830184612a94565b9392505050565b7f77652061726520696e2074686520666972737420696620626c6f636b00000000600082015250565b6000612b02601c83612907565b9150612b0d82612acc565b602082019050919050565b60006020820190508181036000830152612b3181612af5565b9050919050565b7f57652061726520696e2074686520656c736520626c6f636b0000000000000000600082015250565b6000612b6e601883612907565b9150612b7982612b38565b602082019050919050565b60006020820190508181036000830152612b9d81612b61565b9050919050565b6000612baf82612827565b9150612bba83612827565b925082821015612bcd57612bcc612890565b5b828203905092915050565b7f416c6c2072657665616c732068617665206265656e20706c6163656400000000600082015250565b6000612c0e601c83612907565b9150612c1982612bd8565b602082019050919050565b6000604082019050612c396000830184612386565b8181036020830152612c4a81612c01565b905092915050565b7f776520656e74657220746865206c6f6f70000000000000000000000000000000600082015250565b6000612c88601183612907565b9150612c9382612c52565b602082019050919050565b60006020820190508181036000830152612cb781612c7b565b9050919050565b7f696e207468652069662073746174656d656e7400000000000000000000000000600082015250565b6000612cf4601383612907565b9150612cff82612cbe565b602082019050919050565b60006020820190508181036000830152612d2381612ce7565b9050919050565b7f696e2074686520656c73652073746174656d656e740000000000000000000000600082015250565b6000612d60601583612907565b9150612d6b82612d2a565b602082019050919050565b60006020820190508181036000830152612d8f81612d53565b9050919050565b7f4e487b7100000000000000000000000000000000000000000000000000000000600052601260045260246000fd5b6000612dd082612277565b9150612ddb83612277565b925082612deb57612dea612d96565b5b828204905092915050565b7f746f6f206d616e7920696e636f7272656374206e6f6465730000000000000000600082015250565b6000612e2c601883612907565b9150612e3782612df6565b602082019050919050565b60006020820190508181036000830152612e5b81612e1f565b9050919050565b600081549050919050565b600082825260208201905092915050565b60008190508160005260206000209050919050565b612e9c8161271f565b82525050565b6000612eae8383612e93565b60208301905092915050565b60008160001c9050919050565b600073ffffffffffffffffffffffffffffffffffffffff82169050919050565b6000612efa612ef583612eba565b612ec7565b9050919050565b6000612f0d8254612ee7565b9050919050565b6000600182019050919050565b6000612f2c82612e62565b612f368185612e6d565b9350612f4183612e7e565b8060005b83811015612f7957612f5682612f01565b612f608882612ea2565b9750612f6b83612f14565b925050600181019050612f45565b5085935050505092915050565b600060a082019050612f9b6000830188612386565b612fa8602083018761232f565b8181036040830152612fba8186612f21565b90508181036060830152612fce8185612f21565b90508181036080830152612fe28184612f21565b90509695505050505050565b60006040820190506130036000830185612386565b81810360208301526130158184612f21565b90509392505050565b7f566f7465204167677265676174696f6e20436f6d706c65746500000000000000600082015250565b6000613054601983612907565b915061305f8261301e565b602082019050919050565b600060408201905061307f6000830184612386565b818103602083015261309081613047565b905092915050565b60006130a3826126cb565b91506130ae836126cb565b9250817f7fffffffffffffffffffffffffffffffffffffffffffffffffffffffffffffff038313600083121516156130e9576130e8612890565b5b817f800000000000000000000000000000000000000000000000000000000000000003831260008312161561312157613120612890565b5b828201905092915050565b6000613137826126cb565b9150613142836126cb565b92508261315257613151612d96565b5b600160000383147f80000000000000000000000000000000000000000000000000000000000000008314161561318b5761318a612890565b5b828205905092915050565b60006080820190506131ab6000830187612386565b6131b860208301866126d5565b81810360408301526131ca8185612f21565b905081810360608301526131de8184612f21565b905095945050505050565b7f41766572616765204167677265676174696f6e20436f6d706c65746500000000600082015250565b600061321f601c83612907565b915061322a826131e9565b602082019050919050565b600060408201905061324a6000830184612386565b818103602083015261325b81613212565b90509291505056fea26469706673582212208bb9a15d298ddb3e4443351e168a54b162156bb35036046e7ca81f6b434b151564736f6c634300080f0033",
  "immutableReferences": {},
  "source": "// SPDX-License-Identifier: MIT\npragma solidity ^0.8.0;\n\nimport \"./OracleRequestContract.sol\";\n\ncontract AggregatorContract {\n    address public owner; // owner of contract\n    OracleRequestContract orc; // instance of ORC contract\n    Answer[100] public answers; // array of 100 Answer structs to keep track of answers\n    struct Answer {\n        //bytes test;\n        uint256 requestID; // the request ID\n        bytes dataType; // data type of request 'bool' 'temp' etc\n        mapping (address => bool) oracleHasSubmittedCommit; // authorised oracles, marked true when committed\n        mapping(address => bool) oracleHasSubmittedReveal; // authorised oracles, marked true when revealed\n        mapping (address => bytes32) oracleCommits; // add their result to a map with their address as index\n        mapping (address => bool) oracleVoteReveals; // adds oracle answers to addresses\n        mapping (address => int256) oracleAverageReveals; // adds oracle answers to addresses\n        mapping (uint256 => address) oracleAddresses; // uint to address to match counter and iterate through\n        uint256 oracleCounter; // keep an index of the oracles\n        address[] correctRevealOracles; // dynamic array to keep track of correct oracle address to be passed to ORC\n        address[] incorrectRevealOracles; // dynamic array to keep track of incorrect oracle address to be penalised\n        address[] trueOracleResults; // oracles that answer true\n        address[] falseOracleResults; // oracles that answer false\n        uint t; // a true counter;\n        uint f; // a false counter: we need this under (n-1)/3\n        uint cancelFlag; // cancelFlag == 0, == 1 if canceled\n        uint commitsFlag; // 0 = needing commits still 1 = commits are complete\n        uint revealsFlag; // 0 = needing reveals still 1 = reveals are complete\n        bool lastOracle; // last oracle\n\n    }\n\n    event AggregationCompleted(uint256, string); // emits logs once the aggregation is complete\n    event LogHashes(bytes32, bytes32); // emits logs of hashes\n    event CommitsPlaced(uint, string); // emits a commits placed event\n    event RevealsPlaced(uint, string); // emits reveals placed event\n    event Logging(string);\n    event LogBool(bool);\n    event LogInt(int256);\n\n\n    // @notice constructor called when deployed\n    constructor(address _addr)\n    {\n        owner = msg.sender; // set deploying address as owner\n        orc = OracleRequestContract(_addr); // initialise the Oracle Request Contract contract\n    }\n    // @notice commitResponse oracles first commit a hash of their answer and a random string\n    function commitResponse(uint256 _requestID, bytes32 _commitHash )\n    public\n    onlyAuthorisedOraclesYetToCommit(_requestID)\n    cancelFlagCheck(_requestID)\n    commitFlagCheck(_requestID)\n    returns(bool)\n    {\n        if (answers[_requestID].requestID == 0) {\n            answers[_requestID].requestID = _requestID; // assign correct id\n            answers[_requestID].t = 0;\n            answers[_requestID].f = 0;\n        }\n        if (answers[_requestID].oracleCounter < orc.getNumberOfOracles(_requestID)) {\n            answers[_requestID].oracleCommits[msg.sender] = _commitHash; // oracle nodes add commit to map\n            answers[_requestID].oracleHasSubmittedCommit[msg.sender] = true; // it has now submitted.\n            answers[_requestID].oracleAddresses[answers[_requestID].oracleCounter] = msg.sender; // map counter to oracle addr\n            answers[_requestID].oracleCounter++; // once this is equal we know to enter next if statement\n        }\n        if (answers[_requestID].oracleCounter == orc.getNumberOfOracles(_requestID)) {\n            answers[_requestID].commitsFlag = 1;\n            answers[_requestID].oracleCounter = 0;\n            emit CommitsPlaced(_requestID, \"commits are placed\");\n        }\n        return true;\n    }\n    // @notice called by oracle node once all commits are in and a response with the result and secret is given to check against commit\n    // @param _requestID\n    // @param _result, the answer that was fetch by IoT\n    // @param _secret, the string that was hashed with the IoT result in the commit\n    function revealVoteResponse(uint256 _requestID, bytes memory _result, bytes memory _secret)\n    public\n    onlyAuthorisedOraclesYetToReveal(_requestID) // only oracles yet to reveal\n    cancelFlagCheck(_requestID) // make sure cancel flag = 0\n    commitCompleteFlagCheck(_requestID) // checks all commits are in and flag is equal to 1\n    revealsFlagCheck(_requestID) // checks that reveal flag is 0 otherwise function will not run\n    onlyVoteAggregationType(_requestID) // makes sure only vote responses are received\n    {\n\n\n        // need to check the hash of the _result and _secret against answers[_requestID].oracleCommits[msg.sender]\n        bytes32 revealHash =  keccak256(abi.encodePacked(_secret, _result));// hash of _result and _secret\n        emit LogHashes(answers[_requestID].oracleCommits[msg.sender], revealHash);\n        bool decodedResult = decodeBool(_result);\n        emit LogBool(decodedResult);\n        if (answers[_requestID].oracleCommits[msg.sender] == revealHash) {\n\n            answers[_requestID].oracleVoteReveals[msg.sender] = decodedResult; // add oracles answer to reveals\n            answers[_requestID].oracleHasSubmittedReveal[msg.sender] = true; // has submitted so can only vote once\n            answers[_requestID].correctRevealOracles.push(msg.sender); // adds to the correct reveals for aggregation\n            emit Logging(\"we are in the first if block\");\n\n        } else {\n            emit Logging(\"We are in the else block\");\n            answers[_requestID].incorrectRevealOracles.push(msg.sender); // an incorrect match of commit and reveal hashes\n            answers[_requestID].oracleHasSubmittedReveal[msg.sender] = true; // has submitted so can only vote once\n        }\n\n        if (answers[_requestID].oracleCounter == (orc.getNumberOfOracles(_requestID) - 1)){\n            emit RevealsPlaced(_requestID, \"All reveals have been placed\");\n            answers[_requestID].revealsFlag = 1;\n            voteAggregation(_requestID); // once number of oracles has been reached call voteAggregation\n        }\n        answers[_requestID].oracleCounter++; // increment counter for next oracle\n    }\n    // @notice called by oracle node once all commits are in and a response with the result and secret is given to check against commit\n    // @param _requestID\n    // @param _result, the answer that was fetch by IoT\n    // @param _secret, the string that was hashed with the IoT result in the commit\n    function revealAverageResponse(\n        uint256 _requestID,\n        bytes memory _result,\n        bytes memory _secret)\n    public\n    onlyAuthorisedOraclesYetToReveal(_requestID) // only oracles yet to reveal\n    cancelFlagCheck(_requestID) // make sure cancel flag = 0\n    commitCompleteFlagCheck(_requestID) // checks all commits are in and flag is equal to 1\n    revealsFlagCheck(_requestID) // checks that reveal flag is 0 otherwise function will not run\n    onlyAverageAggregationType(_requestID) // makes sure only average responses are received\n    returns(bool){\n        // need to check the hash of the _result and _secret against answers[_requestID].oracleCommits[msg.sender]\n        int256 decodeResult = decodeInt(_result);\n        bytes32 revealHash = keccak256(abi.encodePacked(_secret, _result)); // hash of _result and _secret\n        emit LogHashes(answers[_requestID].oracleCommits[msg.sender], revealHash);\n        emit LogInt(decodeResult);\n        if (answers[_requestID].oracleCommits[msg.sender] == revealHash) {\n            answers[_requestID].oracleAverageReveals[msg.sender] = decodeResult; // adds the int result to map\n            answers[_requestID].oracleHasSubmittedReveal[msg.sender] = true; // can only submit once\n            answers[_requestID].correctRevealOracles.push(msg.sender); // adds correct oracles for aggregation\n        } else {\n            answers[_requestID].incorrectRevealOracles.push(msg.sender); // an incorrect match of commit and reveal hashes\n            answers[_requestID].oracleHasSubmittedReveal[msg.sender] = true; // has submitted so can only respond once\n        }\n        if (answers[_requestID].oracleCounter == (orc.getNumberOfOracles(_requestID) - 1)){\n            emit RevealsPlaced(_requestID, \"All reveals have been placed\");\n            averageAggregation(_requestID); // once number of oracles has been reached call averageAggregation\n        }\n        answers[_requestID].oracleCounter++; // increment oracle counter\n        return true;\n    }\n    // @notice vote aggregation, splits the correct reveals into true and false lists, then chooses the bool\n    //         with the most votes as correct. and the others are penalised in ORC contract. Majority vote\n    // @param _requestID\n    function voteAggregation(uint256 _requestID) internal returns(bool) {\n        bool _result; // the final result to send to ORC contract\n        address orcAddress; // placeholder oracle address var\n        // loop through the oracles that provided a correct reveal\n        for (uint i = 0; i < answers[_requestID].correctRevealOracles.length; i++) {\n            emit Logging(\"we enter the loop\");\n            orcAddress = answers[_requestID].correctRevealOracles[i]; // assign address\n            // if the reveal result is true add to true array and increment true counter\n            if (answers[_requestID].oracleVoteReveals[orcAddress] == true ) {\n                emit Logging(\"in the if statement\");\n                answers[_requestID].trueOracleResults.push(orcAddress); // add oracle address to true array\n                answers[_requestID].t++; // increment true counter\n            } else { // if false add address to false array\n                emit Logging(\"in the else statement\");\n                answers[_requestID].falseOracleResults.push(orcAddress);\n                answers[_requestID].f++; // increment false counter\n            }\n        }\n        // which ever is greater pass to call deliverVoteResponse in true(correct) then false(incorrect) order\n        if (answers[_requestID].t > answers[_requestID].f) {\n            // call\n            require(!(answers[_requestID].f > (answers[_requestID].oracleCounter) / 3), 'too many incorrect nodes');\n            _result = true; // final result\n            // pass in requestID the result, trueOracleResults as the correct field and falseOracleResults as the incorrect\n            orc.deliverVoteResponse(_requestID, _result, answers[_requestID].trueOracleResults,\n                answers[_requestID].falseOracleResults,\n                answers[_requestID].incorrectRevealOracles);\n            return true;\n        } else if (answers[_requestID].f > answers[_requestID].t) {\n            // which ever is greater pass to call deliverVoteResponse in false(correct) then true(incorrect) order\n            require(!(answers[_requestID].t > (answers[_requestID].oracleCounter) / 3), 'too many incorrect nodes');\n            _result = false;\n            // pass in requestID the result, falseOracleResults as the correct field and trueOracleResults as the incorrect\n            orc.deliverVoteResponse(_requestID, _result,\n                answers[_requestID].falseOracleResults,\n                answers[_requestID].trueOracleResults,\n                answers[_requestID].incorrectRevealOracles);\n            return true;\n        } else {\n            // when the t and f counters are the same, deadlock as appeared so we need to cancel and refund\n            orc.cancelRequestDueToDeadlock(_requestID, answers[_requestID].incorrectRevealOracles);\n            answers[_requestID].cancelFlag = 1;\n        }\n        emit AggregationCompleted(_requestID, \"Vote Aggregation Complete\");\n        return false;\n    }\n    // @notice averaging aggregation this function takes an average of the correct reveal oracles\n    function averageAggregation(\n        uint256 _requestID)\n    internal\n    returns(bool)\n    {\n        address orcAddress; // placeholder for orcAddress\n        int256 total = 0; // total of the results\n        int256 average; // an average of the results\n        for (uint i=0; i<answers[_requestID].correctRevealOracles.length; i++){\n            orcAddress = answers[_requestID].correctRevealOracles[i]; // orc address\n            total += answers[_requestID].oracleAverageReveals[orcAddress]; // sums the results to total\n        }\n        average = total / int(answers[_requestID].correctRevealOracles.length); // averages the result\n        orc.deliverAverageResponse(\n                _requestID,\n                average,\n                answers[_requestID].correctRevealOracles,\n                    answers[_requestID].incorrectRevealOracles);\n        emit AggregationCompleted(_requestID, \"Average Aggregation Complete\");\n        return true;\n    }\n    // @notice cancel request only ORC contract can call this\n    function cancelRequest(\n        uint256 _requestID)\n    public\n    cancelFlagCheck(_requestID)\n    onlyORC() // only ORC contract can call this function\n    returns(bool)\n    {\n        answers[_requestID].cancelFlag = 1;\n        return true;\n    }\n    // ***modifiers***\n    modifier onlyAuthorisedOraclesYetToCommit(\n        uint256 _requestID)\n    {\n        // checks that the oracle is in request list\n        require(orc.getOracleForRequest(_requestID, msg.sender));\n        // checks that the oracle hasn't yet committed.\n        require(answers[_requestID].oracleHasSubmittedCommit[msg.sender] == false);\n        _;\n    }\n    modifier onlyAuthorisedOraclesYetToReveal(\n        uint256 _requestID)\n    {\n        // checks that the oracle is in request list\n        require(orc.getOracleForRequest(_requestID, msg.sender));\n        // checks that the oracle hasn't yet revealed.\n        require(answers[_requestID].oracleHasSubmittedReveal[msg.sender] == false);\n        _;\n    }\n    modifier onlyOwner()\n    {\n        require(msg.sender == owner);\n        _;\n    }\n    modifier cancelFlagCheck(\n        uint256 _requestID)\n    {\n        require(answers[_requestID].cancelFlag == 0);\n        _;\n    }\n    modifier commitFlagCheck(uint256 _requestID) {\n        require(answers[_requestID].commitsFlag == 0 );\n        _;\n    }\n    modifier commitCompleteFlagCheck(uint256 _requestID) {\n        require(answers[_requestID].commitsFlag == 1);\n        _;\n    }\n    modifier revealsFlagCheck(uint256 _requestID){\n        require(answers[_requestID].revealsFlag == 0);\n        _;\n    }\n    modifier onlyORC()\n    {\n        require(msg.sender == address(orc));\n        _;\n    }\n    modifier onlyVoteAggregationType(uint256 _requestID) {\n        require(orc.getAggregationType(_requestID) == 1);\n        _;\n    }\n    modifier onlyAverageAggregationType(uint256 _requestID) {\n        require(orc.getAggregationType(_requestID) == 2);\n        _;\n    }\n    function decodeBool(bytes memory data) public pure returns (bool b){\n        assembly {\n        // Load the length of data (first 32 bytes)\n            let len := mload(data)\n        // Load the data after 32 bytes, so add 0x20\n            b := mload(add(data, 0x20))\n        }\n    }\n    function decodeInt(bytes memory data) public pure returns (int256 i) {\n        assembly {\n            let len := mload(data)\n\n            i := mload(add(data, 0x20))\n        }\n    }\n}\n\n\n\n\n\n\n\n\n\n/////////////////////////////////////////////////////////////////////////////////////////////////\n//    // not needed\n//    // @notice each oracle sends their response to through this function\n//    // filling up the Answer struct at index requestID.\n//    // @dev\n//    // @param _requestID ID of request\n//    // @param _actualResult the value the off-chain oracle has collected\n//    // @return bool, true to say answer has been submitted\n//    function receiveResponse(\n//        uint256 _requestID,\n//        bytes memory _actualResult\n//    )\n//    public\n//    onlyAuthorisedOraclesYetToVote(_requestID) // makes sure only oracles that are authorised call call this function,\n//    // also only if it has not yet submitted an answer\n//    cancelFlagCheck(_requestID) // requires cancelFlag == 0\n//    returns(bool)\n//    {\n//        // only logs answers for any number of oracles that are under the number required\n//        if (answers[_requestID].oracleCounter < orc.getNumberOfOracles(_requestID)) {\n//            answers[_requestID].requestID = _requestID; // assign correct id\n//            answers[_requestID].oracleCommits[msg.sender] = _actualResult; // orcale nodes answer mapped to its address\n//            answers[_requestID].oracleHasSubmitted[msg.sender] = true; // it has now submitted.\n//            answers[_requestID].oracleAddresses[answers[_requestID].oracleCounter] = msg.sender; // map counter to oracle addr\n//            answers[_requestID].oracleCounter++; // once this is equal we know to enter next if statement\n//            answers[_requestID].cancelFlag = 0; // sets cancelFlag to 0\n//            emit ResponseReceived(msg.sender, \"response logged\"); // emits to listeners that a response has been logged\n//        }\n//        // if the counter has reached the number of oracles needed, on the last oracle,\n//        // we can call the deliverResponse with the aggregation() method with returns a single result\n//        if(answers[_requestID].oracleCounter == orc.getNumberOfOracles(_requestID)) {\n//            answers[_requestID].lastOracle = true; // flag to know all oracles have submitted a vote\n//            // call aggregator function, returns a final result and an array of correct oracles\n//            (bytes memory finalResult, address[] memory correctOracles) = aggregation(_requestID);\n//            orc.deliverResponse(_requestID, finalResult, correctOracles); // call the deliverResponse function\n//        }\n//        return answers[_requestID].oracleHasSubmitted[msg.sender]; // returns true\n//    }\n\n//    // @notice aggregates results on a voting system, also requires that false votes are not larger than a threshold\n//    // @dev\n//    // @param _requestID pass in requestID to index the answers\n//    // @return final result\n//    function aggregation(\n//        uint256 _requestID)\n//    internal\n//    cancelFlagCheck(_requestID) // requires cancelFlag == 0\n//    returns(\n//        bytes memory,\n//        address[] memory)\n//    {\n//        // local finalResult initialised\n//        bytes memory finalResult;\n//        //gets dataType from ORC request struct which is then used for a hash of the params to match the results\n//        answers[_requestID].dataType = orc.getDataType(_requestID);\n//        // loop through the oracle counter to get oracle address and determine their result\n//        for (uint i=0; i<answers[_requestID].oracleCounter; i++){\n//            address oracleAddress = answers[_requestID].oracleAddresses[i]; // assign oracleAddress\n//            // ensures actual result and required result are the same\n//            bytes32 responseHash = keccak256(abi.encodePacked(\n//                    answers[_requestID].dataType, answers[_requestID].oracleResults[oracleAddress]\n//                )); // response hash from answer\n//            emit LogHashes(orc.getPHash(_requestID), responseHash); // emits to listeners to 2 hashes, these should equal\n//            if (responseHash == orc.getPHash(_requestID)){\n//                answers[_requestID].t++; // if correct increment the true count\n//                answers[_requestID].correctOracles.push(oracleAddress); // adds correct oracles to an array\n//                if (finalResult.length <= 0) {\n//                    // first response will assign its answer to the actual answer\n//                    finalResult = answers[_requestID].oracleResults[oracleAddress]; // as these are all the same\n//                }\n//            } else {\n//                //otherwise increment the false count\n//                answers[_requestID].f++;\n//            }\n//        }\n//        // requires a threshold for false answers\n//        require(!(answers[_requestID].f > (answers[_requestID].oracleCounter - 1) / 3), 'too many incorrect nodes');\n//        emit AggregationCompleted(_requestID, \"aggregation complete\");\n//        return (finalResult, answers[_requestID].correctOracles);\n//    }\n\n\n\n\n\n\n",
  "sourcePath": "/home/willp/Documents/MSc_Computer_Science/PROJECT/Research_Code/july22_projectcode/IoToracle/contracts/AggregatorContract.sol",
  "compiler": {
    "name": "solc",
    "version": "0.8.15+commit.e14f2714.Emscripten.clang"
  },
  "schemaVersion": "3.4.8",
  "updatedAt": "2022-08-15T17:32:25.951Z",
  "networkType": "ethereum",
  "devdoc": {
    "kind": "dev",
    "methods": {},
    "version": 1
  },
  "userdoc": {
    "kind": "user",
    "methods": {},
    "version": 1
  }
}