{
  "contractName": "AggregatorContract",
  "abi": [
    {
      "inputs": [
        {
          "internalType": "address",
          "name": "_addr",
          "type": "address"
        }
      ],
      "stateMutability": "nonpayable",
      "type": "constructor"
    },
    {
      "anonymous": false,
      "inputs": [
        {
          "indexed": false,
          "internalType": "uint256",
          "name": "",
          "type": "uint256"
        },
        {
          "indexed": false,
          "internalType": "string",
          "name": "",
          "type": "string"
        }
      ],
      "name": "AggregationCompleted",
      "type": "event"
    },
    {
      "anonymous": false,
      "inputs": [
        {
          "indexed": false,
          "internalType": "uint256",
          "name": "",
          "type": "uint256"
        },
        {
          "indexed": false,
          "internalType": "string",
          "name": "",
          "type": "string"
        }
      ],
      "name": "CommitsPlaced",
      "type": "event"
    },
    {
      "anonymous": false,
      "inputs": [
        {
          "indexed": false,
          "internalType": "bool",
          "name": "",
          "type": "bool"
        }
      ],
      "name": "LogBool",
      "type": "event"
    },
    {
      "anonymous": false,
      "inputs": [
        {
          "indexed": false,
          "internalType": "bytes32",
          "name": "",
          "type": "bytes32"
        },
        {
          "indexed": false,
          "internalType": "bytes32",
          "name": "",
          "type": "bytes32"
        }
      ],
      "name": "LogHashes",
      "type": "event"
    },
    {
      "anonymous": false,
      "inputs": [
        {
          "indexed": false,
          "internalType": "int256",
          "name": "",
          "type": "int256"
        }
      ],
      "name": "LogInt",
      "type": "event"
    },
    {
      "anonymous": false,
      "inputs": [
        {
          "indexed": false,
          "internalType": "string",
          "name": "",
          "type": "string"
        }
      ],
      "name": "Logging",
      "type": "event"
    },
    {
      "anonymous": false,
      "inputs": [
        {
          "indexed": false,
          "internalType": "uint256",
          "name": "",
          "type": "uint256"
        },
        {
          "indexed": false,
          "internalType": "string",
          "name": "",
          "type": "string"
        }
      ],
      "name": "RevealsPlaced",
      "type": "event"
    },
    {
      "inputs": [
        {
          "internalType": "uint256",
          "name": "",
          "type": "uint256"
        }
      ],
      "name": "answers",
      "outputs": [
        {
          "internalType": "uint256",
          "name": "requestID",
          "type": "uint256"
        },
        {
          "internalType": "bytes",
          "name": "dataType",
          "type": "bytes"
        },
        {
          "internalType": "uint256",
          "name": "oracleCounter",
          "type": "uint256"
        },
        {
          "internalType": "uint256",
          "name": "t",
          "type": "uint256"
        },
        {
          "internalType": "uint256",
          "name": "f",
          "type": "uint256"
        },
        {
          "internalType": "uint256",
          "name": "cancelFlag",
          "type": "uint256"
        },
        {
          "internalType": "uint256",
          "name": "commitsFlag",
          "type": "uint256"
        },
        {
          "internalType": "uint256",
          "name": "revealsFlag",
          "type": "uint256"
        },
        {
          "internalType": "bool",
          "name": "lastOracle",
          "type": "bool"
        }
      ],
      "stateMutability": "view",
      "type": "function",
      "constant": true
    },
    {
      "inputs": [],
      "name": "owner",
      "outputs": [
        {
          "internalType": "address",
          "name": "",
          "type": "address"
        }
      ],
      "stateMutability": "view",
      "type": "function",
      "constant": true
    },
    {
      "inputs": [
        {
          "internalType": "uint256",
          "name": "_requestID",
          "type": "uint256"
        },
        {
          "internalType": "bytes32",
          "name": "_commitHash",
          "type": "bytes32"
        }
      ],
      "name": "commitResponse",
      "outputs": [
        {
          "internalType": "bool",
          "name": "",
          "type": "bool"
        }
      ],
      "stateMutability": "nonpayable",
      "type": "function"
    },
    {
      "inputs": [
        {
          "internalType": "uint256",
          "name": "_requestID",
          "type": "uint256"
        },
        {
          "internalType": "bytes",
          "name": "_result",
          "type": "bytes"
        },
        {
          "internalType": "bytes",
          "name": "_secret",
          "type": "bytes"
        }
      ],
      "name": "revealVoteResponse",
      "outputs": [],
      "stateMutability": "nonpayable",
      "type": "function"
    },
    {
      "inputs": [
        {
          "internalType": "uint256",
          "name": "_requestID",
          "type": "uint256"
        },
        {
          "internalType": "bytes",
          "name": "_result",
          "type": "bytes"
        },
        {
          "internalType": "bytes",
          "name": "_secret",
          "type": "bytes"
        }
      ],
      "name": "revealAverageResponse",
      "outputs": [
        {
          "internalType": "bool",
          "name": "",
          "type": "bool"
        }
      ],
      "stateMutability": "nonpayable",
      "type": "function"
    },
    {
      "inputs": [
        {
          "internalType": "uint256",
          "name": "_requestID",
          "type": "uint256"
        }
      ],
      "name": "cancelRequest",
      "outputs": [
        {
          "internalType": "bool",
          "name": "",
          "type": "bool"
        }
      ],
      "stateMutability": "nonpayable",
      "type": "function"
    },
    {
      "inputs": [
        {
          "internalType": "bytes",
          "name": "data",
          "type": "bytes"
        }
      ],
      "name": "decodeBool",
      "outputs": [
        {
          "internalType": "bool",
          "name": "b",
          "type": "bool"
        }
      ],
      "stateMutability": "pure",
      "type": "function",
      "constant": true
    },
    {
      "inputs": [
        {
          "internalType": "bytes",
          "name": "data",
          "type": "bytes"
        }
      ],
      "name": "decodeInt",
      "outputs": [
        {
          "internalType": "int256",
          "name": "i",
          "type": "int256"
        }
      ],
      "stateMutability": "pure",
      "type": "function",
      "constant": true
    }
  ],
  "bytecode": "0x60806040523480156200001157600080fd5b506040516200321638038062003216833981810160405281019062000037919062000129565b336000806101000a81548173ffffffffffffffffffffffffffffffffffffffff021916908373ffffffffffffffffffffffffffffffffffffffff16021790555080600160006101000a81548173ffffffffffffffffffffffffffffffffffffffff021916908373ffffffffffffffffffffffffffffffffffffffff160217905550506200015b565b600080fd5b600073ffffffffffffffffffffffffffffffffffffffff82169050919050565b6000620000f182620000c4565b9050919050565b6200010381620000e4565b81146200010f57600080fd5b50565b6000815190506200012381620000f8565b92915050565b600060208284031215620001425762000141620000bf565b5b6000620001528482850162000112565b91505092915050565b6130ab806200016b6000396000f3fe608060405234801561001057600080fd5b50600436106100885760003560e01c8063582b56561161005b578063582b5656146101415780638da5cb5b14610171578063b44d54951461018f578063c62173d0146101bf57610088565b8063074e324d1461008d57806317599cc5146100bd5780633015394c146100f55780633560540714610125575b600080fd5b6100a760048036038101906100a29190612239565b6101ef565b6040516100b49190612294565b60405180910390f35b6100d760048036038101906100d291906122af565b61077b565b6040516100ec99989796959493929190612384565b60405180910390f35b61010f600480360381019061010a91906122af565b610864565b60405161011c9190612294565b60405180910390f35b61013f600480360381019061013a919061254d565b610914565b005b61015b600480360381019061015691906125d8565b6110de565b604051610168919061263a565b60405180910390f35b6101796110ef565b6040516101869190612696565b60405180910390f35b6101a960048036038101906101a4919061254d565b611113565b6040516101b69190612294565b60405180910390f35b6101d960048036038101906101d491906125d8565b611848565b6040516101e69190612294565b60405180910390f35b600082600160009054906101000a900473ffffffffffffffffffffffffffffffffffffffff1673ffffffffffffffffffffffffffffffffffffffff1663a37b354d82336040518363ffffffff1660e01b815260040161024f9291906126b1565b602060405180830381865afa15801561026c573d6000803e3d6000fd5b505050506040513d601f19601f820116820180604052508101906102909190612706565b61029957600080fd5b60001515600282606481106102b1576102b0612733565b5b6013020160020160003373ffffffffffffffffffffffffffffffffffffffff1673ffffffffffffffffffffffffffffffffffffffff16815260200190815260200160002060009054906101000a900460ff1615151461030f57600080fd5b8360006002826064811061032657610325612733565b5b60130201600f01541461033857600080fd5b8460006002826064811061034f5761034e612733565b5b60130201601001541461036157600080fd5b60006002876064811061037757610376612733565b5b6013020160000154036103e757856002876064811061039957610398612733565b5b60130201600001819055506000600287606481106103ba576103b9612733565b5b60130201600d01819055506000600287606481106103db576103da612733565b5b60130201600e01819055505b600160009054906101000a900473ffffffffffffffffffffffffffffffffffffffff1673ffffffffffffffffffffffffffffffffffffffff166391a3632a876040518263ffffffff1660e01b81526004016104429190612762565b602060405180830381865afa15801561045f573d6000803e3d6000fd5b505050506040513d601f19601f8201168201806040525081019061048391906127b9565b63ffffffff166002876064811061049d5761049c612733565b5b601302016008015410156106315784600287606481106104c0576104bf612733565b5b6013020160040160003373ffffffffffffffffffffffffffffffffffffffff1673ffffffffffffffffffffffffffffffffffffffff1681526020019081526020016000208190555060016002876064811061051e5761051d612733565b5b6013020160020160003373ffffffffffffffffffffffffffffffffffffffff1673ffffffffffffffffffffffffffffffffffffffff16815260200190815260200160002060006101000a81548160ff021916908315150217905550336002876064811061058e5761058d612733565b5b601302016007016000600289606481106105ab576105aa612733565b5b6013020160080154815260200190815260200160002060006101000a81548173ffffffffffffffffffffffffffffffffffffffff021916908373ffffffffffffffffffffffffffffffffffffffff1602179055506002866064811061061357610612612733565b5b60130201600801600081548092919061062b90612815565b91905055505b600160009054906101000a900473ffffffffffffffffffffffffffffffffffffffff1673ffffffffffffffffffffffffffffffffffffffff166391a3632a876040518263ffffffff1660e01b815260040161068c9190612762565b602060405180830381865afa1580156106a9573d6000803e3d6000fd5b505050506040513d601f19601f820116820180604052508101906106cd91906127b9565b63ffffffff16600287606481106106e7576106e6612733565b5b60130201600801540361076e5760016002876064811061070a57610709612733565b5b601302016010018190555060006002876064811061072b5761072a612733565b5b60130201600801819055507f94654b3250060d23222c9a81fdafe2f23accfb1dc46fb56b8e4aa75c0776e0fd8660405161076591906128ba565b60405180910390a15b6001935050505092915050565b6002816064811061078b57600080fd5b601302016000915090508060000154908060010180546107aa90612917565b80601f01602080910402602001604051908101604052809291908181526020018280546107d690612917565b80156108235780601f106107f857610100808354040283529160200191610823565b820191906000526020600020905b81548152906001019060200180831161080657829003601f168201915b50505050509080600801549080600d01549080600e01549080600f0154908060100154908060110154908060120160009054906101000a900460ff16905089565b60008160006002826064811061087d5761087c612733565b5b60130201600f01541461088f57600080fd5b600160009054906101000a900473ffffffffffffffffffffffffffffffffffffffff1673ffffffffffffffffffffffffffffffffffffffff163373ffffffffffffffffffffffffffffffffffffffff16146108e957600080fd5b6001600284606481106108ff576108fe612733565b5b60130201600f01819055506001915050919050565b82600160009054906101000a900473ffffffffffffffffffffffffffffffffffffffff1673ffffffffffffffffffffffffffffffffffffffff1663a37b354d82336040518363ffffffff1660e01b81526004016109729291906126b1565b602060405180830381865afa15801561098f573d6000803e3d6000fd5b505050506040513d601f19601f820116820180604052508101906109b39190612706565b6109bc57600080fd5b60001515600282606481106109d4576109d3612733565b5b6013020160030160003373ffffffffffffffffffffffffffffffffffffffff1673ffffffffffffffffffffffffffffffffffffffff16815260200190815260200160002060009054906101000a900460ff16151514610a3257600080fd5b83600060028260648110610a4957610a48612733565b5b60130201600f015414610a5b57600080fd5b84600160028260648110610a7257610a71612733565b5b601302016010015414610a8457600080fd5b85600060028260648110610a9b57610a9a612733565b5b601302016011015414610aad57600080fd5b8660018060009054906101000a900473ffffffffffffffffffffffffffffffffffffffff1673ffffffffffffffffffffffffffffffffffffffff1663e4888222836040518263ffffffff1660e01b8152600401610b0a9190612762565b602060405180830381865afa158015610b27573d6000803e3d6000fd5b505050506040513d601f19601f82011682018060405250810190610b4b919061295d565b14610b5557600080fd5b60008688604051602001610b6a9291906129c6565b6040516020818303038152906040528051906020012090507f1034809265ff4258719a9aebc8a98d3ae11c847f3db81864425e812fd387c18860028a60648110610bb757610bb6612733565b5b6013020160040160003373ffffffffffffffffffffffffffffffffffffffff1673ffffffffffffffffffffffffffffffffffffffff1681526020019081526020016000205482604051610c0b9291906129f9565b60405180910390a16000610c1e89611848565b90507fc33356bc2bad2ce263b056da5d061d4e89c336823d5e77f14c1383aedb7a1b3a81604051610c4f9190612294565b60405180910390a18160028b60648110610c6c57610c6b612733565b5b6013020160040160003373ffffffffffffffffffffffffffffffffffffffff1673ffffffffffffffffffffffffffffffffffffffff1681526020019081526020016000205403610e4d578060028b60648110610ccb57610cca612733565b5b6013020160050160003373ffffffffffffffffffffffffffffffffffffffff1673ffffffffffffffffffffffffffffffffffffffff16815260200190815260200160002060006101000a81548160ff021916908315150217905550600160028b60648110610d3c57610d3b612733565b5b6013020160030160003373ffffffffffffffffffffffffffffffffffffffff1673ffffffffffffffffffffffffffffffffffffffff16815260200190815260200160002060006101000a81548160ff02191690831515021790555060028a60648110610dab57610daa612733565b5b60130201600901339080600181540180825580915050600190039060005260206000200160009091909190916101000a81548173ffffffffffffffffffffffffffffffffffffffff021916908373ffffffffffffffffffffffffffffffffffffffff1602179055507fb1ed47ced4562a888b3c47e728f82f7863e472cad724018fe1585bc6853ec82d604051610e4090612a6e565b60405180910390a1610f70565b7fb1ed47ced4562a888b3c47e728f82f7863e472cad724018fe1585bc6853ec82d604051610e7a90612ada565b60405180910390a160028a60648110610e9657610e95612733565b5b60130201600a01339080600181540180825580915050600190039060005260206000200160009091909190916101000a81548173ffffffffffffffffffffffffffffffffffffffff021916908373ffffffffffffffffffffffffffffffffffffffff160217905550600160028b60648110610f1457610f13612733565b5b6013020160030160003373ffffffffffffffffffffffffffffffffffffffff1673ffffffffffffffffffffffffffffffffffffffff16815260200190815260200160002060006101000a81548160ff0219169083151502179055505b60018060009054906101000a900473ffffffffffffffffffffffffffffffffffffffff1673ffffffffffffffffffffffffffffffffffffffff166391a3632a8c6040518263ffffffff1660e01b8152600401610fcc9190612762565b602060405180830381865afa158015610fe9573d6000803e3d6000fd5b505050506040513d601f19601f8201168201806040525081019061100d91906127b9565b6110179190612afa565b63ffffffff1660028b6064811061103157611030612733565b5b6013020160080154036110a1577fcd9014e59ca398764ef85e5719d2151f53668c6d08f5ea98e064a65a6cccf06e8a60405161106d9190612b7a565b60405180910390a1600160028b6064811061108b5761108a612733565b5b601302016011018190555061109f8a611859565b505b60028a606481106110b5576110b4612733565b5b6013020160080160008154809291906110cd90612815565b919050555050505050505050505050565b600081516020830151915050919050565b60008054906101000a900473ffffffffffffffffffffffffffffffffffffffff1681565b600083600160009054906101000a900473ffffffffffffffffffffffffffffffffffffffff1673ffffffffffffffffffffffffffffffffffffffff1663a37b354d82336040518363ffffffff1660e01b81526004016111739291906126b1565b602060405180830381865afa158015611190573d6000803e3d6000fd5b505050506040513d601f19601f820116820180604052508101906111b49190612706565b6111bd57600080fd5b60001515600282606481106111d5576111d4612733565b5b6013020160030160003373ffffffffffffffffffffffffffffffffffffffff1673ffffffffffffffffffffffffffffffffffffffff16815260200190815260200160002060009054906101000a900460ff1615151461123357600080fd5b8460006002826064811061124a57611249612733565b5b60130201600f01541461125c57600080fd5b8560016002826064811061127357611272612733565b5b60130201601001541461128557600080fd5b8660006002826064811061129c5761129b612733565b5b6013020160110154146112ae57600080fd5b876002600160009054906101000a900473ffffffffffffffffffffffffffffffffffffffff1673ffffffffffffffffffffffffffffffffffffffff1663e4888222836040518263ffffffff1660e01b815260040161130c9190612762565b602060405180830381865afa158015611329573d6000803e3d6000fd5b505050506040513d601f19601f8201168201806040525081019061134d919061295d565b1461135757600080fd5b6000611362896110de565b90506000888a6040516020016113799291906129c6565b6040516020818303038152906040528051906020012090507f1034809265ff4258719a9aebc8a98d3ae11c847f3db81864425e812fd387c18860028c606481106113c6576113c5612733565b5b6013020160040160003373ffffffffffffffffffffffffffffffffffffffff1673ffffffffffffffffffffffffffffffffffffffff168152602001908152602001600020548260405161141a9291906129f9565b60405180910390a17f1aa4309bfd99af8afa7454590e1bdaa5a9b3b63e5baa109ae9afa3ecd0c67f3982604051611451919061263a565b60405180910390a18060028c6064811061146e5761146d612733565b5b6013020160040160003373ffffffffffffffffffffffffffffffffffffffff1673ffffffffffffffffffffffffffffffffffffffff1681526020019081526020016000205403611607578160028c606481106114cd576114cc612733565b5b6013020160060160003373ffffffffffffffffffffffffffffffffffffffff1673ffffffffffffffffffffffffffffffffffffffff16815260200190815260200160002081905550600160028c6064811061152b5761152a612733565b5b6013020160030160003373ffffffffffffffffffffffffffffffffffffffff1673ffffffffffffffffffffffffffffffffffffffff16815260200190815260200160002060006101000a81548160ff02191690831515021790555060028b6064811061159a57611599612733565b5b60130201600901339080600181540180825580915050600190039060005260206000200160009091909190916101000a81548173ffffffffffffffffffffffffffffffffffffffff021916908373ffffffffffffffffffffffffffffffffffffffff1602179055506116f5565b60028b6064811061161b5761161a612733565b5b60130201600a01339080600181540180825580915050600190039060005260206000200160009091909190916101000a81548173ffffffffffffffffffffffffffffffffffffffff021916908373ffffffffffffffffffffffffffffffffffffffff160217905550600160028c6064811061169957611698612733565b5b6013020160030160003373ffffffffffffffffffffffffffffffffffffffff1673ffffffffffffffffffffffffffffffffffffffff16815260200190815260200160002060006101000a81548160ff0219169083151502179055505b60018060009054906101000a900473ffffffffffffffffffffffffffffffffffffffff1673ffffffffffffffffffffffffffffffffffffffff166391a3632a8d6040518263ffffffff1660e01b81526004016117519190612762565b602060405180830381865afa15801561176e573d6000803e3d6000fd5b505050506040513d601f19601f8201168201806040525081019061179291906127b9565b61179c9190612afa565b63ffffffff1660028c606481106117b6576117b5612733565b5b601302016008015403611805577fcd9014e59ca398764ef85e5719d2151f53668c6d08f5ea98e064a65a6cccf06e8b6040516117f29190612b7a565b60405180910390a16118038b611f6b565b505b60028b6064811061181957611818612733565b5b60130201600801600081548092919061183190612815565b919050555060019750505050505050509392505050565b600081516020830151915050919050565b600080600080600090505b6002856064811061187857611877612733565b5b6013020160090180549050811015611ac8576002856064811061189e5761189d612733565b5b6013020160090181815481106118b7576118b6612733565b5b9060005260206000200160009054906101000a900473ffffffffffffffffffffffffffffffffffffffff16915060011515600286606481106118fc576118fb612733565b5b6013020160050160008473ffffffffffffffffffffffffffffffffffffffff1673ffffffffffffffffffffffffffffffffffffffff16815260200190815260200160002060009054906101000a900460ff16151503611a07576002856064811061196957611968612733565b5b60130201600b01829080600181540180825580915050600190039060005260206000200160009091909190916101000a81548173ffffffffffffffffffffffffffffffffffffffff021916908373ffffffffffffffffffffffffffffffffffffffff160217905550600285606481106119e5576119e4612733565b5b60130201600d0160008154809291906119fd90612815565b9190505550611ab5565b60028560648110611a1b57611a1a612733565b5b60130201600c01829080600181540180825580915050600190039060005260206000200160009091909190916101000a81548173ffffffffffffffffffffffffffffffffffffffff021916908373ffffffffffffffffffffffffffffffffffffffff16021790555060028560648110611a9757611a96612733565b5b60130201600e016000815480929190611aaf90612815565b91905055505b8080611ac090612815565b915050611864565b5060028460648110611add57611adc612733565b5b60130201600e015460028560648110611af957611af8612733565b5b60130201600d01541115611c8a57600360028560648110611b1d57611b1c612733565b5b6013020160080154611b2f9190612bd7565b60028560648110611b4357611b42612733565b5b60130201600e01541115611b8c576040517f08c379a0000000000000000000000000000000000000000000000000000000008152600401611b8390612c54565b60405180910390fd5b60019150600160009054906101000a900473ffffffffffffffffffffffffffffffffffffffff1673ffffffffffffffffffffffffffffffffffffffff166330407ad9858460028860648110611be457611be3612733565b5b60130201600b0160028960648110611bff57611bfe612733565b5b60130201600c0160028a60648110611c1a57611c19612733565b5b60130201600a016040518663ffffffff1660e01b8152600401611c41959493929190612d98565b6020604051808303816000875af1158015611c60573d6000803e3d6000fd5b505050506040513d601f19601f82011682018060405250810190611c849190612706565b50611f29565b60028460648110611c9e57611c9d612733565b5b60130201600d015460028560648110611cba57611cb9612733565b5b60130201600e01541115611e4b57600360028560648110611cde57611cdd612733565b5b6013020160080154611cf09190612bd7565b60028560648110611d0457611d03612733565b5b60130201600d01541115611d4d576040517f08c379a0000000000000000000000000000000000000000000000000000000008152600401611d4490612c54565b60405180910390fd5b60009150600160009054906101000a900473ffffffffffffffffffffffffffffffffffffffff1673ffffffffffffffffffffffffffffffffffffffff166330407ad9858460028860648110611da557611da4612733565b5b60130201600c0160028960648110611dc057611dbf612733565b5b60130201600b0160028a60648110611ddb57611dda612733565b5b60130201600a016040518663ffffffff1660e01b8152600401611e02959493929190612d98565b6020604051808303816000875af1158015611e21573d6000803e3d6000fd5b505050506040513d601f19601f82011682018060405250810190611e459190612706565b50611f28565b600160009054906101000a900473ffffffffffffffffffffffffffffffffffffffff1673ffffffffffffffffffffffffffffffffffffffff1663498d7df08560028760648110611e9e57611e9d612733565b5b60130201600a016040518363ffffffff1660e01b8152600401611ec2929190612e00565b6020604051808303816000875af1158015611ee1573d6000803e3d6000fd5b505050506040513d601f19601f82011682018060405250810190611f059190612706565b50600160028560648110611f1c57611f1b612733565b5b60130201600f01819055505b5b7fab982296b91a9b70c6739c96524c481cf0a1714be617e9bb39538f46ad5c880084604051611f589190612e7c565b60405180910390a1600192505050919050565b60008060008080600090505b60028660648110611f8b57611f8a612733565b5b60130201600901805490508110156120705760028660648110611fb157611fb0612733565b5b601302016009018181548110611fca57611fc9612733565b5b9060005260206000200160009054906101000a900473ffffffffffffffffffffffffffffffffffffffff1693506002866064811061200b5761200a612733565b5b6013020160060160008573ffffffffffffffffffffffffffffffffffffffff1673ffffffffffffffffffffffffffffffffffffffff168152602001908152602001600020548361205b9190612eaa565b9250808061206890612815565b915050611f77565b506002856064811061208557612084612733565b5b60130201600901805490508261209b9190612f3e565b9050600160009054906101000a900473ffffffffffffffffffffffffffffffffffffffff1673ffffffffffffffffffffffffffffffffffffffff166358621b7a8683600289606481106120f1576120f0612733565b5b6013020160090160028a6064811061210c5761210b612733565b5b60130201600a016040518563ffffffff1660e01b81526004016121329493929190612fa8565b6020604051808303816000875af1158015612151573d6000803e3d6000fd5b505050506040513d601f19601f820116820180604052508101906121759190612706565b507fab982296b91a9b70c6739c96524c481cf0a1714be617e9bb39538f46ad5c8800856040516121a59190613047565b60405180910390a160019350505050919050565b6000604051905090565b600080fd5b600080fd5b6000819050919050565b6121e0816121cd565b81146121eb57600080fd5b50565b6000813590506121fd816121d7565b92915050565b6000819050919050565b61221681612203565b811461222157600080fd5b50565b6000813590506122338161220d565b92915050565b600080604083850312156122505761224f6121c3565b5b600061225e858286016121ee565b925050602061226f85828601612224565b9150509250929050565b60008115159050919050565b61228e81612279565b82525050565b60006020820190506122a96000830184612285565b92915050565b6000602082840312156122c5576122c46121c3565b5b60006122d3848285016121ee565b91505092915050565b6122e5816121cd565b82525050565b600081519050919050565b600082825260208201905092915050565b60005b8381101561232557808201518184015260208101905061230a565b83811115612334576000848401525b50505050565b6000601f19601f8301169050919050565b6000612356826122eb565b61236081856122f6565b9350612370818560208601612307565b6123798161233a565b840191505092915050565b60006101208201905061239a600083018c6122dc565b81810360208301526123ac818b61234b565b90506123bb604083018a6122dc565b6123c860608301896122dc565b6123d560808301886122dc565b6123e260a08301876122dc565b6123ef60c08301866122dc565b6123fc60e08301856122dc565b61240a610100830184612285565b9a9950505050505050505050565b600080fd5b600080fd5b7f4e487b7100000000000000000000000000000000000000000000000000000000600052604160045260246000fd5b61245a8261233a565b810181811067ffffffffffffffff8211171561247957612478612422565b5b80604052505050565b600061248c6121b9565b90506124988282612451565b919050565b600067ffffffffffffffff8211156124b8576124b7612422565b5b6124c18261233a565b9050602081019050919050565b82818337600083830152505050565b60006124f06124eb8461249d565b612482565b90508281526020810184848401111561250c5761250b61241d565b5b6125178482856124ce565b509392505050565b600082601f83011261253457612533612418565b5b81356125448482602086016124dd565b91505092915050565b600080600060608486031215612566576125656121c3565b5b6000612574868287016121ee565b935050602084013567ffffffffffffffff811115612595576125946121c8565b5b6125a18682870161251f565b925050604084013567ffffffffffffffff8111156125c2576125c16121c8565b5b6125ce8682870161251f565b9150509250925092565b6000602082840312156125ee576125ed6121c3565b5b600082013567ffffffffffffffff81111561260c5761260b6121c8565b5b6126188482850161251f565b91505092915050565b6000819050919050565b61263481612621565b82525050565b600060208201905061264f600083018461262b565b92915050565b600073ffffffffffffffffffffffffffffffffffffffff82169050919050565b600061268082612655565b9050919050565b61269081612675565b82525050565b60006020820190506126ab6000830184612687565b92915050565b60006040820190506126c660008301856122dc565b6126d36020830184612687565b9392505050565b6126e381612279565b81146126ee57600080fd5b50565b600081519050612700816126da565b92915050565b60006020828403121561271c5761271b6121c3565b5b600061272a848285016126f1565b91505092915050565b7f4e487b7100000000000000000000000000000000000000000000000000000000600052603260045260246000fd5b600060208201905061277760008301846122dc565b92915050565b600063ffffffff82169050919050565b6127968161277d565b81146127a157600080fd5b50565b6000815190506127b38161278d565b92915050565b6000602082840312156127cf576127ce6121c3565b5b60006127dd848285016127a4565b91505092915050565b7f4e487b7100000000000000000000000000000000000000000000000000000000600052601160045260246000fd5b6000612820826121cd565b91507fffffffffffffffffffffffffffffffffffffffffffffffffffffffffffffffff8203612852576128516127e6565b5b600182019050919050565b600082825260208201905092915050565b7f636f6d6d6974732061726520706c616365640000000000000000000000000000600082015250565b60006128a460128361285d565b91506128af8261286e565b602082019050919050565b60006040820190506128cf60008301846122dc565b81810360208301526128e081612897565b905092915050565b7f4e487b7100000000000000000000000000000000000000000000000000000000600052602260045260246000fd5b6000600282049050600182168061292f57607f821691505b602082108103612942576129416128e8565b5b50919050565b600081519050612957816121d7565b92915050565b600060208284031215612973576129726121c3565b5b600061298184828501612948565b91505092915050565b600081905092915050565b60006129a0826122eb565b6129aa818561298a565b93506129ba818560208601612307565b80840191505092915050565b60006129d28285612995565b91506129de8284612995565b91508190509392505050565b6129f381612203565b82525050565b6000604082019050612a0e60008301856129ea565b612a1b60208301846129ea565b9392505050565b7f77652061726520696e2074686520666972737420696620626c6f636b00000000600082015250565b6000612a58601c8361285d565b9150612a6382612a22565b602082019050919050565b60006020820190508181036000830152612a8781612a4b565b9050919050565b7f57652061726520696e2074686520656c736520626c6f636b0000000000000000600082015250565b6000612ac460188361285d565b9150612acf82612a8e565b602082019050919050565b60006020820190508181036000830152612af381612ab7565b9050919050565b6000612b058261277d565b9150612b108361277d565b925082821015612b2357612b226127e6565b5b828203905092915050565b7f416c6c2072657665616c732068617665206265656e20706c6163656400000000600082015250565b6000612b64601c8361285d565b9150612b6f82612b2e565b602082019050919050565b6000604082019050612b8f60008301846122dc565b8181036020830152612ba081612b57565b905092915050565b7f4e487b7100000000000000000000000000000000000000000000000000000000600052601260045260246000fd5b6000612be2826121cd565b9150612bed836121cd565b925082612bfd57612bfc612ba8565b5b828204905092915050565b7f746f6f206d616e7920696e636f7272656374206e6f6465730000000000000000600082015250565b6000612c3e60188361285d565b9150612c4982612c08565b602082019050919050565b60006020820190508181036000830152612c6d81612c31565b9050919050565b600081549050919050565b600082825260208201905092915050565b60008190508160005260206000209050919050565b612cae81612675565b82525050565b6000612cc08383612ca5565b60208301905092915050565b60008160001c9050919050565b600073ffffffffffffffffffffffffffffffffffffffff82169050919050565b6000612d0c612d0783612ccc565b612cd9565b9050919050565b6000612d1f8254612cf9565b9050919050565b6000600182019050919050565b6000612d3e82612c74565b612d488185612c7f565b9350612d5383612c90565b8060005b83811015612d8b57612d6882612d13565b612d728882612cb4565b9750612d7d83612d26565b925050600181019050612d57565b5085935050505092915050565b600060a082019050612dad60008301886122dc565b612dba6020830187612285565b8181036040830152612dcc8186612d33565b90508181036060830152612de08185612d33565b90508181036080830152612df48184612d33565b90509695505050505050565b6000604082019050612e1560008301856122dc565b8181036020830152612e278184612d33565b90509392505050565b7f566f7465204167677265676174696f6e20436f6d706c65746500000000000000600082015250565b6000612e6660198361285d565b9150612e7182612e30565b602082019050919050565b6000604082019050612e9160008301846122dc565b8181036020830152612ea281612e59565b905092915050565b6000612eb582612621565b9150612ec083612621565b9250817f7fffffffffffffffffffffffffffffffffffffffffffffffffffffffffffffff03831360008312151615612efb57612efa6127e6565b5b817f8000000000000000000000000000000000000000000000000000000000000000038312600083121615612f3357612f326127e6565b5b828201905092915050565b6000612f4982612621565b9150612f5483612621565b925082612f6457612f63612ba8565b5b600160000383147f800000000000000000000000000000000000000000000000000000000000000083141615612f9d57612f9c6127e6565b5b828205905092915050565b6000608082019050612fbd60008301876122dc565b612fca602083018661262b565b8181036040830152612fdc8185612d33565b90508181036060830152612ff08184612d33565b905095945050505050565b7f41766572616765204167677265676174696f6e20436f6d706c65746500000000600082015250565b6000613031601c8361285d565b915061303c82612ffb565b602082019050919050565b600060408201905061305c60008301846122dc565b818103602083015261306d81613024565b90509291505056fea26469706673582212205bd0b81cd6f3530deb6065e3a6a1ed27f27588bb209e2a158f9733648b34372864736f6c634300080f0033",
  "immutableReferences": {},
  "source": "// SPDX-License-Identifier: MIT\npragma solidity ^0.8.0;\n\nimport \"./OracleRequestContract.sol\";\n\ncontract AggregatorContract {\n    address public owner; // owner of contract\n    OracleRequestContract orc; // instance of ORC contract\n    Answer[100] public answers; // array of 100 Answer structs to keep track of answers\n    struct Answer {\n        //bytes test;\n        uint256 requestID; // the request ID\n        bytes dataType; // data type of request 'bool' 'temp' etc\n        mapping (address => bool) oracleHasSubmittedCommit; // authorised oracles, marked true when committed\n        mapping(address => bool) oracleHasSubmittedReveal; // authorised oracles, marked true when revealed\n        mapping (address => bytes32) oracleCommits; // add their result to a map with their address as index\n        mapping (address => bool) oracleVoteReveals; // adds oracle answers to addresses\n        mapping (address => int256) oracleAverageReveals; // adds oracle answers to addresses\n        mapping (uint256 => address) oracleAddresses; // uint to address to match counter and iterate through\n        uint256 oracleCounter; // keep an index of the oracles\n        address[] correctRevealOracles; // dynamic array to keep track of correct oracle address to be passed to ORC\n        address[] incorrectRevealOracles; // dynamic array to keep track of incorrect oracle address to be penalised\n        address[] trueOracleResults; // oracles that answer true\n        address[] falseOracleResults; // oracles that answer false\n        uint t; // a true counter;\n        uint f; // a false counter: we need this under (n-1)/3\n        uint cancelFlag; // cancelFlag == 0, == 1 if canceled\n        uint commitsFlag; // 0 = needing commits still 1 = commits are complete\n        uint revealsFlag; // 0 = needing reveals still 1 = reveals are complete\n        bool lastOracle; // last oracle\n\n    }\n\n    event AggregationCompleted(uint256, string); // emits logs once the aggregation is complete\n    event LogHashes(bytes32, bytes32); // emits logs of hashes\n    event CommitsPlaced(uint, string); // emits a commits placed event\n    event RevealsPlaced(uint, string); // emits reveals placed event\n    event Logging(string);\n    event LogBool(bool);\n    event LogInt(int256);\n\n\n    // @notice constructor called when deployed\n    constructor(address _addr)\n    {\n        owner = msg.sender; // set deploying address as owner\n        orc = OracleRequestContract(_addr); // initialise the Oracle Request Contract contract\n    }\n    // @notice commitResponse oracles first commit a hash of their answer and a random string\n    function commitResponse(uint256 _requestID, bytes32 _commitHash )\n    public\n    onlyAuthorisedOraclesYetToCommit(_requestID)\n    cancelFlagCheck(_requestID)\n    commitFlagCheck(_requestID)\n    returns(bool)\n    {\n        if (answers[_requestID].requestID == 0) {\n            answers[_requestID].requestID = _requestID; // assign correct id\n            answers[_requestID].t = 0;\n            answers[_requestID].f = 0;\n        }\n        if (answers[_requestID].oracleCounter < orc.getNumberOfOracles(_requestID)) {\n            answers[_requestID].oracleCommits[msg.sender] = _commitHash; // oracle nodes add commit to map\n            answers[_requestID].oracleHasSubmittedCommit[msg.sender] = true; // it has now submitted.\n            answers[_requestID].oracleAddresses[answers[_requestID].oracleCounter] = msg.sender; // map counter to oracle addr\n            answers[_requestID].oracleCounter++; // once this is equal we know to enter next if statement\n        }\n        if (answers[_requestID].oracleCounter == orc.getNumberOfOracles(_requestID)) {\n            answers[_requestID].commitsFlag = 1;\n            answers[_requestID].oracleCounter = 0;\n            emit CommitsPlaced(_requestID, \"commits are placed\");\n        }\n        return true;\n    }\n    // @notice called by oracle node once all commits are in and a response with the result and secret is given to check against commit\n    // @param _requestID\n    // @param _result, the answer that was fetch by IoT\n    // @param _secret, the string that was hashed with the IoT result in the commit\n    function revealVoteResponse(uint256 _requestID, bytes memory _result, bytes memory _secret)\n    public\n    onlyAuthorisedOraclesYetToReveal(_requestID) // only oracles yet to reveal\n    cancelFlagCheck(_requestID) // make sure cancel flag = 0\n    commitCompleteFlagCheck(_requestID) // checks all commits are in and flag is equal to 1\n    revealsFlagCheck(_requestID) // checks that reveal flag is 0 otherwise function will not run\n    onlyVoteAggregationType(_requestID) // makes sure only vote responses are received\n    {\n\n\n        // need to check the hash of the _result and _secret against answers[_requestID].oracleCommits[msg.sender]\n        bytes32 revealHash =  keccak256(abi.encodePacked(_secret, _result));// hash of _result and _secret\n        emit LogHashes(answers[_requestID].oracleCommits[msg.sender], revealHash);\n        bool decodedResult = decodeBool(_result);\n        emit LogBool(decodedResult);\n        if (answers[_requestID].oracleCommits[msg.sender] == revealHash) {\n\n            answers[_requestID].oracleVoteReveals[msg.sender] = decodedResult; // add oracles answer to reveals\n            answers[_requestID].oracleHasSubmittedReveal[msg.sender] = true; // has submitted so can only vote once\n            answers[_requestID].correctRevealOracles.push(msg.sender); // adds to the correct reveals for aggregation\n            emit Logging(\"we are in the first if block\");\n\n        } else {\n            emit Logging(\"We are in the else block\");\n            answers[_requestID].incorrectRevealOracles.push(msg.sender); // an incorrect match of commit and reveal hashes\n            answers[_requestID].oracleHasSubmittedReveal[msg.sender] = true; // has submitted so can only vote once\n        }\n\n        if (answers[_requestID].oracleCounter == (orc.getNumberOfOracles(_requestID) - 1)){\n            emit RevealsPlaced(_requestID, \"All reveals have been placed\");\n            answers[_requestID].revealsFlag = 1;\n            voteAggregation(_requestID); // once number of oracles has been reached call voteAggregation\n        }\n        answers[_requestID].oracleCounter++; // increment counter for next oracle\n    }\n    // @notice called by oracle node once all commits are in and a response with the result and secret is given to check against commit\n    // @param _requestID\n    // @param _result, the answer that was fetch by IoT\n    // @param _secret, the string that was hashed with the IoT result in the commit\n    function revealAverageResponse(\n        uint256 _requestID,\n        bytes memory _result,\n        bytes memory _secret)\n    public\n    onlyAuthorisedOraclesYetToReveal(_requestID) // only oracles yet to reveal\n    cancelFlagCheck(_requestID) // make sure cancel flag = 0\n    commitCompleteFlagCheck(_requestID) // checks all commits are in and flag is equal to 1\n    revealsFlagCheck(_requestID) // checks that reveal flag is 0 otherwise function will not run\n    onlyAverageAggregationType(_requestID) // makes sure only average responses are received\n    returns(bool){\n        // need to check the hash of the _result and _secret against answers[_requestID].oracleCommits[msg.sender]\n        int256 decodeResult = decodeInt(_result);\n        bytes32 revealHash = keccak256(abi.encodePacked(_secret, _result)); // hash of _result and _secret\n        emit LogHashes(answers[_requestID].oracleCommits[msg.sender], revealHash);\n        emit LogInt(decodeResult);\n        if (answers[_requestID].oracleCommits[msg.sender] == revealHash) {\n            answers[_requestID].oracleAverageReveals[msg.sender] = decodeResult; // adds the int result to map\n            answers[_requestID].oracleHasSubmittedReveal[msg.sender] = true; // can only submit once\n            answers[_requestID].correctRevealOracles.push(msg.sender); // adds correct oracles for aggregation\n        } else {\n            answers[_requestID].incorrectRevealOracles.push(msg.sender); // an incorrect match of commit and reveal hashes\n            answers[_requestID].oracleHasSubmittedReveal[msg.sender] = true; // has submitted so can only respond once\n        }\n        if (answers[_requestID].oracleCounter == (orc.getNumberOfOracles(_requestID) - 1)){\n            emit RevealsPlaced(_requestID, \"All reveals have been placed\");\n            averageAggregation(_requestID); // once number of oracles has been reached call averageAggregation\n        }\n        answers[_requestID].oracleCounter++; // increment oracle counter\n        return true;\n    }\n    // @notice vote aggregation, splits the correct reveals into true and false lists, then chooses the bool\n    //         with the most votes as correct. and the others are penalised in ORC contract. Majority vote\n    // @param _requestID\n    function voteAggregation(uint256 _requestID) internal returns(bool) {\n        bool _result; // the final result to send to ORC contract\n        address orcAddress; // placeholder oracle address var\n        // loop through the oracles that provided a correct reveal\n        for (uint i = 0; i < answers[_requestID].correctRevealOracles.length; i++) {\n\n            orcAddress = answers[_requestID].correctRevealOracles[i]; // assign address\n            // if the reveal result is true add to true array and increment true counter\n            if (answers[_requestID].oracleVoteReveals[orcAddress] == true ) {\n\n                answers[_requestID].trueOracleResults.push(orcAddress); // add oracle address to true array\n                answers[_requestID].t++; // increment true counter\n            } else { // if false add address to false array\n\n                answers[_requestID].falseOracleResults.push(orcAddress);\n                answers[_requestID].f++; // increment false counter\n            }\n        }\n        // which ever is greater pass to call deliverVoteResponse in true(correct) then false(incorrect) order\n        if (answers[_requestID].t > answers[_requestID].f) {\n            // call\n            require(!(answers[_requestID].f > (answers[_requestID].oracleCounter) / 3), 'too many incorrect nodes');\n            _result = true; // final result\n            // pass in requestID the result, trueOracleResults as the correct field and falseOracleResults as the incorrect\n            orc.deliverVoteResponse(_requestID, _result, answers[_requestID].trueOracleResults,\n                answers[_requestID].falseOracleResults,\n                answers[_requestID].incorrectRevealOracles);\n        } else if (answers[_requestID].f > answers[_requestID].t) {\n            // which ever is greater pass to call deliverVoteResponse in false(correct) then true(incorrect) order\n            require(!(answers[_requestID].t > (answers[_requestID].oracleCounter) / 3), 'too many incorrect nodes');\n            _result = false;\n            // pass in requestID the result, falseOracleResults as the correct field and trueOracleResults as the incorrect\n            orc.deliverVoteResponse(_requestID, _result,\n                answers[_requestID].falseOracleResults,\n                answers[_requestID].trueOracleResults,\n                answers[_requestID].incorrectRevealOracles);\n        } else {\n            // when the t and f counters are the same, deadlock as appeared so we need to cancel and refund\n            orc.cancelRequestDueToDeadlock(_requestID, answers[_requestID].incorrectRevealOracles);\n            answers[_requestID].cancelFlag = 1;\n        }\n        emit AggregationCompleted(_requestID, \"Vote Aggregation Complete\");\n        return true;\n    }\n    // @notice averaging aggregation this function takes an average of the correct reveal oracles\n    function averageAggregation(\n        uint256 _requestID)\n    internal\n    returns(bool)\n    {\n        address orcAddress; // placeholder for orcAddress\n        int256 total = 0; // total of the results\n        int256 average; // an average of the results\n        for (uint i=0; i<answers[_requestID].correctRevealOracles.length; i++){\n            orcAddress = answers[_requestID].correctRevealOracles[i]; // orc address\n            total += answers[_requestID].oracleAverageReveals[orcAddress]; // sums the results to total\n        }\n        average = total / int(answers[_requestID].correctRevealOracles.length); // averages the result\n        orc.deliverAverageResponse(\n                _requestID,\n                average,\n                answers[_requestID].correctRevealOracles,\n                    answers[_requestID].incorrectRevealOracles);\n        emit AggregationCompleted(_requestID, \"Average Aggregation Complete\");\n        return true;\n    }\n    // @notice cancel request only ORC contract can call this\n    function cancelRequest(\n        uint256 _requestID)\n    public\n    cancelFlagCheck(_requestID)\n    onlyORC() // only ORC contract can call this function\n    returns(bool)\n    {\n        answers[_requestID].cancelFlag = 1;\n        return true;\n    }\n    // ***modifiers***\n    modifier onlyAuthorisedOraclesYetToCommit(\n        uint256 _requestID)\n    {\n        // checks that the oracle is in request list\n        require(orc.getOracleForRequest(_requestID, msg.sender));\n        // checks that the oracle hasn't yet committed.\n        require(answers[_requestID].oracleHasSubmittedCommit[msg.sender] == false);\n        _;\n    }\n    modifier onlyAuthorisedOraclesYetToReveal(\n        uint256 _requestID)\n    {\n        // checks that the oracle is in request list\n        require(orc.getOracleForRequest(_requestID, msg.sender));\n        // checks that the oracle hasn't yet revealed.\n        require(answers[_requestID].oracleHasSubmittedReveal[msg.sender] == false);\n        _;\n    }\n    modifier onlyOwner()\n    {\n        require(msg.sender == owner);\n        _;\n    }\n    modifier cancelFlagCheck(\n        uint256 _requestID)\n    {\n        require(answers[_requestID].cancelFlag == 0);\n        _;\n    }\n    modifier commitFlagCheck(uint256 _requestID) {\n        require(answers[_requestID].commitsFlag == 0 );\n        _;\n    }\n    modifier commitCompleteFlagCheck(uint256 _requestID) {\n        require(answers[_requestID].commitsFlag == 1);\n        _;\n    }\n    modifier revealsFlagCheck(uint256 _requestID){\n        require(answers[_requestID].revealsFlag == 0);\n        _;\n    }\n    modifier onlyORC()\n    {\n        require(msg.sender == address(orc));\n        _;\n    }\n    modifier onlyVoteAggregationType(uint256 _requestID) {\n        require(orc.getAggregationType(_requestID) == 1);\n        _;\n    }\n    modifier onlyAverageAggregationType(uint256 _requestID) {\n        require(orc.getAggregationType(_requestID) == 2);\n        _;\n    }\n    function decodeBool(bytes memory data) public pure returns (bool b){\n        assembly {\n        // Load the length of data (first 32 bytes)\n            let len := mload(data)\n        // Load the data after 32 bytes, so add 0x20\n            b := mload(add(data, 0x20))\n        }\n    }\n    function decodeInt(bytes memory data) public pure returns (int256 i) {\n        assembly {\n            let len := mload(data)\n\n            i := mload(add(data, 0x20))\n        }\n    }\n}\n\n\n\n\n\n\n\n\n\n/////////////////////////////////////////////////////////////////////////////////////////////////\n//    // not needed\n//    // @notice each oracle sends their response to through this function\n//    // filling up the Answer struct at index requestID.\n//    // @dev\n//    // @param _requestID ID of request\n//    // @param _actualResult the value the off-chain oracle has collected\n//    // @return bool, true to say answer has been submitted\n//    function receiveResponse(\n//        uint256 _requestID,\n//        bytes memory _actualResult\n//    )\n//    public\n//    onlyAuthorisedOraclesYetToVote(_requestID) // makes sure only oracles that are authorised call call this function,\n//    // also only if it has not yet submitted an answer\n//    cancelFlagCheck(_requestID) // requires cancelFlag == 0\n//    returns(bool)\n//    {\n//        // only logs answers for any number of oracles that are under the number required\n//        if (answers[_requestID].oracleCounter < orc.getNumberOfOracles(_requestID)) {\n//            answers[_requestID].requestID = _requestID; // assign correct id\n//            answers[_requestID].oracleCommits[msg.sender] = _actualResult; // orcale nodes answer mapped to its address\n//            answers[_requestID].oracleHasSubmitted[msg.sender] = true; // it has now submitted.\n//            answers[_requestID].oracleAddresses[answers[_requestID].oracleCounter] = msg.sender; // map counter to oracle addr\n//            answers[_requestID].oracleCounter++; // once this is equal we know to enter next if statement\n//            answers[_requestID].cancelFlag = 0; // sets cancelFlag to 0\n//            emit ResponseReceived(msg.sender, \"response logged\"); // emits to listeners that a response has been logged\n//        }\n//        // if the counter has reached the number of oracles needed, on the last oracle,\n//        // we can call the deliverResponse with the aggregation() method with returns a single result\n//        if(answers[_requestID].oracleCounter == orc.getNumberOfOracles(_requestID)) {\n//            answers[_requestID].lastOracle = true; // flag to know all oracles have submitted a vote\n//            // call aggregator function, returns a final result and an array of correct oracles\n//            (bytes memory finalResult, address[] memory correctOracles) = aggregation(_requestID);\n//            orc.deliverResponse(_requestID, finalResult, correctOracles); // call the deliverResponse function\n//        }\n//        return answers[_requestID].oracleHasSubmitted[msg.sender]; // returns true\n//    }\n\n//    // @notice aggregates results on a voting system, also requires that false votes are not larger than a threshold\n//    // @dev\n//    // @param _requestID pass in requestID to index the answers\n//    // @return final result\n//    function aggregation(\n//        uint256 _requestID)\n//    internal\n//    cancelFlagCheck(_requestID) // requires cancelFlag == 0\n//    returns(\n//        bytes memory,\n//        address[] memory)\n//    {\n//        // local finalResult initialised\n//        bytes memory finalResult;\n//        //gets dataType from ORC request struct which is then used for a hash of the params to match the results\n//        answers[_requestID].dataType = orc.getDataType(_requestID);\n//        // loop through the oracle counter to get oracle address and determine their result\n//        for (uint i=0; i<answers[_requestID].oracleCounter; i++){\n//            address oracleAddress = answers[_requestID].oracleAddresses[i]; // assign oracleAddress\n//            // ensures actual result and required result are the same\n//            bytes32 responseHash = keccak256(abi.encodePacked(\n//                    answers[_requestID].dataType, answers[_requestID].oracleResults[oracleAddress]\n//                )); // response hash from answer\n//            emit LogHashes(orc.getPHash(_requestID), responseHash); // emits to listeners to 2 hashes, these should equal\n//            if (responseHash == orc.getPHash(_requestID)){\n//                answers[_requestID].t++; // if correct increment the true count\n//                answers[_requestID].correctOracles.push(oracleAddress); // adds correct oracles to an array\n//                if (finalResult.length <= 0) {\n//                    // first response will assign its answer to the actual answer\n//                    finalResult = answers[_requestID].oracleResults[oracleAddress]; // as these are all the same\n//                }\n//            } else {\n//                //otherwise increment the false count\n//                answers[_requestID].f++;\n//            }\n//        }\n//        // requires a threshold for false answers\n//        require(!(answers[_requestID].f > (answers[_requestID].oracleCounter - 1) / 3), 'too many incorrect nodes');\n//        emit AggregationCompleted(_requestID, \"aggregation complete\");\n//        return (finalResult, answers[_requestID].correctOracles);\n//    }\n\n\n\n\n\n\n",
  "sourcePath": "/home/willp/Documents/MSc_Computer_Science/PROJECT/Research_Code/july22_projectcode/IoToracle/contracts/AggregatorContract.sol",
  "compiler": {
    "name": "solc",
    "version": "0.8.15+commit.e14f2714.Emscripten.clang"
  },
  "schemaVersion": "3.4.8",
  "updatedAt": "2022-08-16T08:24:43.287Z",
  "networkType": "ethereum",
  "devdoc": {
    "kind": "dev",
    "methods": {},
    "version": 1
  },
  "userdoc": {
    "kind": "user",
    "methods": {},
    "version": 1
  }
}