{
  "contractName": "AggregatorContract",
  "abi": [
    {
      "inputs": [
        {
          "internalType": "address",
          "name": "_addr",
          "type": "address"
        }
      ],
      "stateMutability": "nonpayable",
      "type": "constructor"
    },
    {
      "anonymous": false,
      "inputs": [
        {
          "indexed": false,
          "internalType": "uint256",
          "name": "",
          "type": "uint256"
        },
        {
          "indexed": false,
          "internalType": "string",
          "name": "",
          "type": "string"
        }
      ],
      "name": "AggregationCompleted",
      "type": "event"
    },
    {
      "anonymous": false,
      "inputs": [
        {
          "indexed": false,
          "internalType": "uint256",
          "name": "",
          "type": "uint256"
        },
        {
          "indexed": false,
          "internalType": "string",
          "name": "",
          "type": "string"
        }
      ],
      "name": "CommitsPlaced",
      "type": "event"
    },
    {
      "anonymous": false,
      "inputs": [
        {
          "indexed": false,
          "internalType": "bool",
          "name": "",
          "type": "bool"
        }
      ],
      "name": "LogBool",
      "type": "event"
    },
    {
      "anonymous": false,
      "inputs": [
        {
          "indexed": false,
          "internalType": "bytes32",
          "name": "",
          "type": "bytes32"
        },
        {
          "indexed": false,
          "internalType": "bytes32",
          "name": "",
          "type": "bytes32"
        }
      ],
      "name": "LogHashes",
      "type": "event"
    },
    {
      "anonymous": false,
      "inputs": [
        {
          "indexed": false,
          "internalType": "string",
          "name": "",
          "type": "string"
        }
      ],
      "name": "Logging",
      "type": "event"
    },
    {
      "anonymous": false,
      "inputs": [
        {
          "indexed": false,
          "internalType": "uint256",
          "name": "",
          "type": "uint256"
        },
        {
          "indexed": false,
          "internalType": "string",
          "name": "",
          "type": "string"
        }
      ],
      "name": "RevealsPlaced",
      "type": "event"
    },
    {
      "inputs": [
        {
          "internalType": "uint256",
          "name": "",
          "type": "uint256"
        }
      ],
      "name": "answers",
      "outputs": [
        {
          "internalType": "uint256",
          "name": "requestID",
          "type": "uint256"
        },
        {
          "internalType": "bytes",
          "name": "dataType",
          "type": "bytes"
        },
        {
          "internalType": "uint256",
          "name": "oracleCounter",
          "type": "uint256"
        },
        {
          "internalType": "uint256",
          "name": "t",
          "type": "uint256"
        },
        {
          "internalType": "uint256",
          "name": "f",
          "type": "uint256"
        },
        {
          "internalType": "uint256",
          "name": "cancelFlag",
          "type": "uint256"
        },
        {
          "internalType": "uint256",
          "name": "commitsFlag",
          "type": "uint256"
        },
        {
          "internalType": "uint256",
          "name": "revealsFlag",
          "type": "uint256"
        },
        {
          "internalType": "bool",
          "name": "lastOracle",
          "type": "bool"
        }
      ],
      "stateMutability": "view",
      "type": "function",
      "constant": true
    },
    {
      "inputs": [],
      "name": "owner",
      "outputs": [
        {
          "internalType": "address",
          "name": "",
          "type": "address"
        }
      ],
      "stateMutability": "view",
      "type": "function",
      "constant": true
    },
    {
      "inputs": [
        {
          "internalType": "uint256",
          "name": "_requestID",
          "type": "uint256"
        },
        {
          "internalType": "bytes32",
          "name": "_commitHash",
          "type": "bytes32"
        }
      ],
      "name": "commitResponse",
      "outputs": [
        {
          "internalType": "bool",
          "name": "",
          "type": "bool"
        }
      ],
      "stateMutability": "nonpayable",
      "type": "function"
    },
    {
      "inputs": [
        {
          "internalType": "uint256",
          "name": "_requestID",
          "type": "uint256"
        },
        {
          "internalType": "bytes",
          "name": "_result",
          "type": "bytes"
        },
        {
          "internalType": "bytes",
          "name": "_secret",
          "type": "bytes"
        }
      ],
      "name": "revealVoteResponse",
      "outputs": [],
      "stateMutability": "nonpayable",
      "type": "function"
    },
    {
      "inputs": [
        {
          "internalType": "uint256",
          "name": "_requestID",
          "type": "uint256"
        },
        {
          "internalType": "int256",
          "name": "_result",
          "type": "int256"
        },
        {
          "internalType": "bytes[]",
          "name": "_secret",
          "type": "bytes[]"
        }
      ],
      "name": "revealAverageResponse",
      "outputs": [
        {
          "internalType": "bool",
          "name": "",
          "type": "bool"
        }
      ],
      "stateMutability": "nonpayable",
      "type": "function"
    },
    {
      "inputs": [
        {
          "internalType": "uint256",
          "name": "_requestID",
          "type": "uint256"
        }
      ],
      "name": "cancelRequest",
      "outputs": [
        {
          "internalType": "bool",
          "name": "",
          "type": "bool"
        }
      ],
      "stateMutability": "nonpayable",
      "type": "function"
    },
    {
      "inputs": [
        {
          "internalType": "bytes",
          "name": "data",
          "type": "bytes"
        }
      ],
      "name": "decode",
      "outputs": [
        {
          "internalType": "bool",
          "name": "b",
          "type": "bool"
        }
      ],
      "stateMutability": "pure",
      "type": "function",
      "constant": true
    }
  ],
  "bytecode": "0x60806040523480156200001157600080fd5b506040516200358438038062003584833981810160405281019062000037919062000129565b336000806101000a81548173ffffffffffffffffffffffffffffffffffffffff021916908373ffffffffffffffffffffffffffffffffffffffff16021790555080600160006101000a81548173ffffffffffffffffffffffffffffffffffffffff021916908373ffffffffffffffffffffffffffffffffffffffff160217905550506200015b565b600080fd5b600073ffffffffffffffffffffffffffffffffffffffff82169050919050565b6000620000f182620000c4565b9050919050565b6200010381620000e4565b81146200010f57600080fd5b50565b6000815190506200012381620000f8565b92915050565b600060208284031215620001425762000141620000bf565b5b6000620001528482850162000112565b91505092915050565b613419806200016b6000396000f3fe608060405234801561001057600080fd5b506004361061007d5760003560e01c8063356054071161005b578063356054071461011a5780638259a8c1146101365780638da5cb5b14610166578063e5c5e9a3146101845761007d565b8063074e324d1461008257806317599cc5146100b25780633015394c146100ea575b600080fd5b61009c600480360381019061009791906121c1565b6101b4565b6040516100a9919061221c565b60405180910390f35b6100cc60048036038101906100c79190612237565b610740565b6040516100e19998979695949392919061230c565b60405180910390f35b61010460048036038101906100ff9190612237565b610829565b604051610111919061221c565b60405180910390f35b610134600480360381019061012f91906124d5565b6108d9565b005b610150600480360381019061014b919061267c565b6110a3565b60405161015d919061221c565b60405180910390f35b61016e611702565b60405161017b919061272c565b60405180910390f35b61019e60048036038101906101999190612747565b611726565b6040516101ab919061221c565b60405180910390f35b600082600160009054906101000a900473ffffffffffffffffffffffffffffffffffffffff1673ffffffffffffffffffffffffffffffffffffffff1663a37b354d82336040518363ffffffff1660e01b8152600401610214929190612790565b602060405180830381865afa158015610231573d6000803e3d6000fd5b505050506040513d601f19601f8201168201806040525081019061025591906127e5565b61025e57600080fd5b600015156002826064811061027657610275612812565b5b6013020160020160003373ffffffffffffffffffffffffffffffffffffffff1673ffffffffffffffffffffffffffffffffffffffff16815260200190815260200160002060009054906101000a900460ff161515146102d457600080fd5b836000600282606481106102eb576102ea612812565b5b60130201600f0154146102fd57600080fd5b8460006002826064811061031457610313612812565b5b60130201601001541461032657600080fd5b60006002876064811061033c5761033b612812565b5b6013020160000154036103ac57856002876064811061035e5761035d612812565b5b601302016000018190555060006002876064811061037f5761037e612812565b5b60130201600d01819055506000600287606481106103a05761039f612812565b5b60130201600e01819055505b600160009054906101000a900473ffffffffffffffffffffffffffffffffffffffff1673ffffffffffffffffffffffffffffffffffffffff166391a3632a876040518263ffffffff1660e01b81526004016104079190612841565b602060405180830381865afa158015610424573d6000803e3d6000fd5b505050506040513d601f19601f820116820180604052508101906104489190612898565b63ffffffff166002876064811061046257610461612812565b5b601302016008015410156105f657846002876064811061048557610484612812565b5b6013020160040160003373ffffffffffffffffffffffffffffffffffffffff1673ffffffffffffffffffffffffffffffffffffffff168152602001908152602001600020819055506001600287606481106104e3576104e2612812565b5b6013020160020160003373ffffffffffffffffffffffffffffffffffffffff1673ffffffffffffffffffffffffffffffffffffffff16815260200190815260200160002060006101000a81548160ff021916908315150217905550336002876064811061055357610552612812565b5b601302016007016000600289606481106105705761056f612812565b5b6013020160080154815260200190815260200160002060006101000a81548173ffffffffffffffffffffffffffffffffffffffff021916908373ffffffffffffffffffffffffffffffffffffffff160217905550600286606481106105d8576105d7612812565b5b6013020160080160008154809291906105f0906128f4565b91905055505b600160009054906101000a900473ffffffffffffffffffffffffffffffffffffffff1673ffffffffffffffffffffffffffffffffffffffff166391a3632a876040518263ffffffff1660e01b81526004016106519190612841565b602060405180830381865afa15801561066e573d6000803e3d6000fd5b505050506040513d601f19601f820116820180604052508101906106929190612898565b63ffffffff16600287606481106106ac576106ab612812565b5b601302016008015403610733576001600287606481106106cf576106ce612812565b5b60130201601001819055506000600287606481106106f0576106ef612812565b5b60130201600801819055507f94654b3250060d23222c9a81fdafe2f23accfb1dc46fb56b8e4aa75c0776e0fd8660405161072a9190612999565b60405180910390a15b6001935050505092915050565b6002816064811061075057600080fd5b6013020160009150905080600001549080600101805461076f906129f6565b80601f016020809104026020016040519081016040528092919081815260200182805461079b906129f6565b80156107e85780601f106107bd576101008083540402835291602001916107e8565b820191906000526020600020905b8154815290600101906020018083116107cb57829003601f168201915b50505050509080600801549080600d01549080600e01549080600f0154908060100154908060110154908060120160009054906101000a900460ff16905089565b60008160006002826064811061084257610841612812565b5b60130201600f01541461085457600080fd5b600160009054906101000a900473ffffffffffffffffffffffffffffffffffffffff1673ffffffffffffffffffffffffffffffffffffffff163373ffffffffffffffffffffffffffffffffffffffff16146108ae57600080fd5b6001600284606481106108c4576108c3612812565b5b60130201600f01819055506001915050919050565b82600160009054906101000a900473ffffffffffffffffffffffffffffffffffffffff1673ffffffffffffffffffffffffffffffffffffffff1663a37b354d82336040518363ffffffff1660e01b8152600401610937929190612790565b602060405180830381865afa158015610954573d6000803e3d6000fd5b505050506040513d601f19601f8201168201806040525081019061097891906127e5565b61098157600080fd5b600015156002826064811061099957610998612812565b5b6013020160030160003373ffffffffffffffffffffffffffffffffffffffff1673ffffffffffffffffffffffffffffffffffffffff16815260200190815260200160002060009054906101000a900460ff161515146109f757600080fd5b83600060028260648110610a0e57610a0d612812565b5b60130201600f015414610a2057600080fd5b84600160028260648110610a3757610a36612812565b5b601302016010015414610a4957600080fd5b85600060028260648110610a6057610a5f612812565b5b601302016011015414610a7257600080fd5b8660018060009054906101000a900473ffffffffffffffffffffffffffffffffffffffff1673ffffffffffffffffffffffffffffffffffffffff1663e4888222836040518263ffffffff1660e01b8152600401610acf9190612841565b602060405180830381865afa158015610aec573d6000803e3d6000fd5b505050506040513d601f19601f82011682018060405250810190610b109190612a3c565b14610b1a57600080fd5b60008688604051602001610b2f929190612aa5565b6040516020818303038152906040528051906020012090507f1034809265ff4258719a9aebc8a98d3ae11c847f3db81864425e812fd387c18860028a60648110610b7c57610b7b612812565b5b6013020160040160003373ffffffffffffffffffffffffffffffffffffffff1673ffffffffffffffffffffffffffffffffffffffff1681526020019081526020016000205482604051610bd0929190612ad8565b60405180910390a16000610be389611726565b90507fc33356bc2bad2ce263b056da5d061d4e89c336823d5e77f14c1383aedb7a1b3a81604051610c14919061221c565b60405180910390a18160028b60648110610c3157610c30612812565b5b6013020160040160003373ffffffffffffffffffffffffffffffffffffffff1673ffffffffffffffffffffffffffffffffffffffff1681526020019081526020016000205403610e12578060028b60648110610c9057610c8f612812565b5b6013020160050160003373ffffffffffffffffffffffffffffffffffffffff1673ffffffffffffffffffffffffffffffffffffffff16815260200190815260200160002060006101000a81548160ff021916908315150217905550600160028b60648110610d0157610d00612812565b5b6013020160030160003373ffffffffffffffffffffffffffffffffffffffff1673ffffffffffffffffffffffffffffffffffffffff16815260200190815260200160002060006101000a81548160ff02191690831515021790555060028a60648110610d7057610d6f612812565b5b60130201600901339080600181540180825580915050600190039060005260206000200160009091909190916101000a81548173ffffffffffffffffffffffffffffffffffffffff021916908373ffffffffffffffffffffffffffffffffffffffff1602179055507fb1ed47ced4562a888b3c47e728f82f7863e472cad724018fe1585bc6853ec82d604051610e0590612b4d565b60405180910390a1610f35565b7fb1ed47ced4562a888b3c47e728f82f7863e472cad724018fe1585bc6853ec82d604051610e3f90612bb9565b60405180910390a160028a60648110610e5b57610e5a612812565b5b60130201600a01339080600181540180825580915050600190039060005260206000200160009091909190916101000a81548173ffffffffffffffffffffffffffffffffffffffff021916908373ffffffffffffffffffffffffffffffffffffffff160217905550600160028b60648110610ed957610ed8612812565b5b6013020160030160003373ffffffffffffffffffffffffffffffffffffffff1673ffffffffffffffffffffffffffffffffffffffff16815260200190815260200160002060006101000a81548160ff0219169083151502179055505b60018060009054906101000a900473ffffffffffffffffffffffffffffffffffffffff1673ffffffffffffffffffffffffffffffffffffffff166391a3632a8c6040518263ffffffff1660e01b8152600401610f919190612841565b602060405180830381865afa158015610fae573d6000803e3d6000fd5b505050506040513d601f19601f82011682018060405250810190610fd29190612898565b610fdc9190612bd9565b63ffffffff1660028b60648110610ff657610ff5612812565b5b601302016008015403611066577fcd9014e59ca398764ef85e5719d2151f53668c6d08f5ea98e064a65a6cccf06e8a6040516110329190612c59565b60405180910390a1600160028b606481106110505761104f612812565b5b60130201601101819055506110648a611737565b505b60028a6064811061107a57611079612812565b5b601302016008016000815480929190611092906128f4565b919050555050505050505050505050565b600083600160009054906101000a900473ffffffffffffffffffffffffffffffffffffffff1673ffffffffffffffffffffffffffffffffffffffff1663a37b354d82336040518363ffffffff1660e01b8152600401611103929190612790565b602060405180830381865afa158015611120573d6000803e3d6000fd5b505050506040513d601f19601f8201168201806040525081019061114491906127e5565b61114d57600080fd5b600015156002826064811061116557611164612812565b5b6013020160030160003373ffffffffffffffffffffffffffffffffffffffff1673ffffffffffffffffffffffffffffffffffffffff16815260200190815260200160002060009054906101000a900460ff161515146111c357600080fd5b846000600282606481106111da576111d9612812565b5b60130201600f0154146111ec57600080fd5b8560016002826064811061120357611202612812565b5b60130201601001541461121557600080fd5b8660006002826064811061122c5761122b612812565b5b60130201601101541461123e57600080fd5b876002600160009054906101000a900473ffffffffffffffffffffffffffffffffffffffff1673ffffffffffffffffffffffffffffffffffffffff1663e4888222836040518263ffffffff1660e01b815260040161129c9190612841565b602060405180830381865afa1580156112b9573d6000803e3d6000fd5b505050506040513d601f19601f820116820180604052508101906112dd9190612a3c565b146112e757600080fd5b600087896040516020016112fc929190612da2565b6040516020818303038152906040528051906020012090508060028b6064811061132957611328612812565b5b6013020160040160003373ffffffffffffffffffffffffffffffffffffffff1673ffffffffffffffffffffffffffffffffffffffff16815260200190815260200160002054036114c2578860028b6064811061138857611387612812565b5b6013020160060160003373ffffffffffffffffffffffffffffffffffffffff1673ffffffffffffffffffffffffffffffffffffffff16815260200190815260200160002081905550600160028b606481106113e6576113e5612812565b5b6013020160030160003373ffffffffffffffffffffffffffffffffffffffff1673ffffffffffffffffffffffffffffffffffffffff16815260200190815260200160002060006101000a81548160ff02191690831515021790555060028a6064811061145557611454612812565b5b60130201600901339080600181540180825580915050600190039060005260206000200160009091909190916101000a81548173ffffffffffffffffffffffffffffffffffffffff021916908373ffffffffffffffffffffffffffffffffffffffff1602179055506115b0565b60028a606481106114d6576114d5612812565b5b60130201600a01339080600181540180825580915050600190039060005260206000200160009091909190916101000a81548173ffffffffffffffffffffffffffffffffffffffff021916908373ffffffffffffffffffffffffffffffffffffffff160217905550600160028b6064811061155457611553612812565b5b6013020160030160003373ffffffffffffffffffffffffffffffffffffffff1673ffffffffffffffffffffffffffffffffffffffff16815260200190815260200160002060006101000a81548160ff0219169083151502179055505b60028a606481106115c4576115c3612812565b5b6013020160080160008154809291906115dc906128f4565b919050555060018060009054906101000a900473ffffffffffffffffffffffffffffffffffffffff1673ffffffffffffffffffffffffffffffffffffffff166391a3632a8c6040518263ffffffff1660e01b815260040161163d9190612841565b602060405180830381865afa15801561165a573d6000803e3d6000fd5b505050506040513d601f19601f8201168201806040525081019061167e9190612898565b6116889190612bd9565b63ffffffff1660028b606481106116a2576116a1612812565b5b6013020160080154036116f1577fcd9014e59ca398764ef85e5719d2151f53668c6d08f5ea98e064a65a6cccf06e8a6040516116de9190612c59565b60405180910390a16116ef8a611ef3565b505b600196505050505050509392505050565b60008054906101000a900473ffffffffffffffffffffffffffffffffffffffff1681565b600081516020830151915050919050565b600080600080600090505b6002856064811061175657611755612812565b5b6013020160090180549050811015611a45577fb1ed47ced4562a888b3c47e728f82f7863e472cad724018fe1585bc6853ec82d60405161179590612e1e565b60405180910390a1600285606481106117b1576117b0612812565b5b6013020160090181815481106117ca576117c9612812565b5b9060005260206000200160009054906101000a900473ffffffffffffffffffffffffffffffffffffffff169150600115156002866064811061180f5761180e612812565b5b6013020160050160008473ffffffffffffffffffffffffffffffffffffffff1673ffffffffffffffffffffffffffffffffffffffff16815260200190815260200160002060009054906101000a900460ff1615150361194f577fb1ed47ced4562a888b3c47e728f82f7863e472cad724018fe1585bc6853ec82d60405161189590612e8a565b60405180910390a1600285606481106118b1576118b0612812565b5b60130201600b01829080600181540180825580915050600190039060005260206000200160009091909190916101000a81548173ffffffffffffffffffffffffffffffffffffffff021916908373ffffffffffffffffffffffffffffffffffffffff1602179055506002856064811061192d5761192c612812565b5b60130201600d016000815480929190611945906128f4565b9190505550611a32565b7fb1ed47ced4562a888b3c47e728f82f7863e472cad724018fe1585bc6853ec82d60405161197c90612ef6565b60405180910390a16002856064811061199857611997612812565b5b60130201600c01829080600181540180825580915050600190039060005260206000200160009091909190916101000a81548173ffffffffffffffffffffffffffffffffffffffff021916908373ffffffffffffffffffffffffffffffffffffffff16021790555060028560648110611a1457611a13612812565b5b60130201600e016000815480929190611a2c906128f4565b91905055505b8080611a3d906128f4565b915050611742565b5060028460648110611a5a57611a59612812565b5b60130201600e015460028560648110611a7657611a75612812565b5b60130201600d01541115611c0d57600360028560648110611a9a57611a99612812565b5b6013020160080154611aac9190612f45565b60028560648110611ac057611abf612812565b5b60130201600e01541115611b09576040517f08c379a0000000000000000000000000000000000000000000000000000000008152600401611b0090612fc2565b60405180910390fd5b60019150600160009054906101000a900473ffffffffffffffffffffffffffffffffffffffff1673ffffffffffffffffffffffffffffffffffffffff166330407ad9858460028860648110611b6157611b60612812565b5b60130201600b0160028960648110611b7c57611b7b612812565b5b60130201600c0160028a60648110611b9757611b96612812565b5b60130201600a016040518663ffffffff1660e01b8152600401611bbe959493929190613106565b6020604051808303816000875af1158015611bdd573d6000803e3d6000fd5b505050506040513d601f19601f82011682018060405250810190611c0191906127e5565b50600192505050611eee565b60028460648110611c2157611c20612812565b5b60130201600d015460028560648110611c3d57611c3c612812565b5b60130201600e01541115611dd457600360028560648110611c6157611c60612812565b5b6013020160080154611c739190612f45565b60028560648110611c8757611c86612812565b5b60130201600d01541115611cd0576040517f08c379a0000000000000000000000000000000000000000000000000000000008152600401611cc790612fc2565b60405180910390fd5b60009150600160009054906101000a900473ffffffffffffffffffffffffffffffffffffffff1673ffffffffffffffffffffffffffffffffffffffff166330407ad9858460028860648110611d2857611d27612812565b5b60130201600c0160028960648110611d4357611d42612812565b5b60130201600b0160028a60648110611d5e57611d5d612812565b5b60130201600a016040518663ffffffff1660e01b8152600401611d85959493929190613106565b6020604051808303816000875af1158015611da4573d6000803e3d6000fd5b505050506040513d601f19601f82011682018060405250810190611dc891906127e5565b50600192505050611eee565b600160009054906101000a900473ffffffffffffffffffffffffffffffffffffffff1673ffffffffffffffffffffffffffffffffffffffff1663498d7df08560028760648110611e2757611e26612812565b5b60130201600a016040518363ffffffff1660e01b8152600401611e4b92919061316e565b6020604051808303816000875af1158015611e6a573d6000803e3d6000fd5b505050506040513d601f19601f82011682018060405250810190611e8e91906127e5565b50600160028560648110611ea557611ea4612812565b5b60130201600f01819055507fab982296b91a9b70c6739c96524c481cf0a1714be617e9bb39538f46ad5c880084604051611edf91906131ea565b60405180910390a16000925050505b919050565b60008060008080600090505b60028660648110611f1357611f12612812565b5b6013020160090180549050811015611ff85760028660648110611f3957611f38612812565b5b601302016009018181548110611f5257611f51612812565b5b9060005260206000200160009054906101000a900473ffffffffffffffffffffffffffffffffffffffff16935060028660648110611f9357611f92612812565b5b6013020160060160008573ffffffffffffffffffffffffffffffffffffffff1673ffffffffffffffffffffffffffffffffffffffff1681526020019081526020016000205483611fe39190613218565b92508080611ff0906128f4565b915050611eff565b506002856064811061200d5761200c612812565b5b60130201600901805490508261202391906132ac565b9050600160009054906101000a900473ffffffffffffffffffffffffffffffffffffffff1673ffffffffffffffffffffffffffffffffffffffff166358621b7a86836002896064811061207957612078612812565b5b6013020160090160028a6064811061209457612093612812565b5b60130201600a016040518563ffffffff1660e01b81526004016120ba9493929190613316565b6020604051808303816000875af11580156120d9573d6000803e3d6000fd5b505050506040513d601f19601f820116820180604052508101906120fd91906127e5565b507fab982296b91a9b70c6739c96524c481cf0a1714be617e9bb39538f46ad5c88008560405161212d91906133b5565b60405180910390a160019350505050919050565b6000604051905090565b600080fd5b600080fd5b6000819050919050565b61216881612155565b811461217357600080fd5b50565b6000813590506121858161215f565b92915050565b6000819050919050565b61219e8161218b565b81146121a957600080fd5b50565b6000813590506121bb81612195565b92915050565b600080604083850312156121d8576121d761214b565b5b60006121e685828601612176565b92505060206121f7858286016121ac565b9150509250929050565b60008115159050919050565b61221681612201565b82525050565b6000602082019050612231600083018461220d565b92915050565b60006020828403121561224d5761224c61214b565b5b600061225b84828501612176565b91505092915050565b61226d81612155565b82525050565b600081519050919050565b600082825260208201905092915050565b60005b838110156122ad578082015181840152602081019050612292565b838111156122bc576000848401525b50505050565b6000601f19601f8301169050919050565b60006122de82612273565b6122e8818561227e565b93506122f881856020860161228f565b612301816122c2565b840191505092915050565b600061012082019050612322600083018c612264565b8181036020830152612334818b6122d3565b9050612343604083018a612264565b6123506060830189612264565b61235d6080830188612264565b61236a60a0830187612264565b61237760c0830186612264565b61238460e0830185612264565b61239261010083018461220d565b9a9950505050505050505050565b600080fd5b600080fd5b7f4e487b7100000000000000000000000000000000000000000000000000000000600052604160045260246000fd5b6123e2826122c2565b810181811067ffffffffffffffff82111715612401576124006123aa565b5b80604052505050565b6000612414612141565b905061242082826123d9565b919050565b600067ffffffffffffffff8211156124405761243f6123aa565b5b612449826122c2565b9050602081019050919050565b82818337600083830152505050565b600061247861247384612425565b61240a565b905082815260208101848484011115612494576124936123a5565b5b61249f848285612456565b509392505050565b600082601f8301126124bc576124bb6123a0565b5b81356124cc848260208601612465565b91505092915050565b6000806000606084860312156124ee576124ed61214b565b5b60006124fc86828701612176565b935050602084013567ffffffffffffffff81111561251d5761251c612150565b5b612529868287016124a7565b925050604084013567ffffffffffffffff81111561254a57612549612150565b5b612556868287016124a7565b9150509250925092565b6000819050919050565b61257381612560565b811461257e57600080fd5b50565b6000813590506125908161256a565b92915050565b600067ffffffffffffffff8211156125b1576125b06123aa565b5b602082029050602081019050919050565b600080fd5b60006125da6125d584612596565b61240a565b905080838252602082019050602084028301858111156125fd576125fc6125c2565b5b835b8181101561264457803567ffffffffffffffff811115612622576126216123a0565b5b80860161262f89826124a7565b855260208501945050506020810190506125ff565b5050509392505050565b600082601f830112612663576126626123a0565b5b81356126738482602086016125c7565b91505092915050565b6000806000606084860312156126955761269461214b565b5b60006126a386828701612176565b93505060206126b486828701612581565b925050604084013567ffffffffffffffff8111156126d5576126d4612150565b5b6126e18682870161264e565b9150509250925092565b600073ffffffffffffffffffffffffffffffffffffffff82169050919050565b6000612716826126eb565b9050919050565b6127268161270b565b82525050565b6000602082019050612741600083018461271d565b92915050565b60006020828403121561275d5761275c61214b565b5b600082013567ffffffffffffffff81111561277b5761277a612150565b5b612787848285016124a7565b91505092915050565b60006040820190506127a56000830185612264565b6127b2602083018461271d565b9392505050565b6127c281612201565b81146127cd57600080fd5b50565b6000815190506127df816127b9565b92915050565b6000602082840312156127fb576127fa61214b565b5b6000612809848285016127d0565b91505092915050565b7f4e487b7100000000000000000000000000000000000000000000000000000000600052603260045260246000fd5b60006020820190506128566000830184612264565b92915050565b600063ffffffff82169050919050565b6128758161285c565b811461288057600080fd5b50565b6000815190506128928161286c565b92915050565b6000602082840312156128ae576128ad61214b565b5b60006128bc84828501612883565b91505092915050565b7f4e487b7100000000000000000000000000000000000000000000000000000000600052601160045260246000fd5b60006128ff82612155565b91507fffffffffffffffffffffffffffffffffffffffffffffffffffffffffffffffff8203612931576129306128c5565b5b600182019050919050565b600082825260208201905092915050565b7f636f6d6d6974732061726520706c616365640000000000000000000000000000600082015250565b600061298360128361293c565b915061298e8261294d565b602082019050919050565b60006040820190506129ae6000830184612264565b81810360208301526129bf81612976565b905092915050565b7f4e487b7100000000000000000000000000000000000000000000000000000000600052602260045260246000fd5b60006002820490506001821680612a0e57607f821691505b602082108103612a2157612a206129c7565b5b50919050565b600081519050612a368161215f565b92915050565b600060208284031215612a5257612a5161214b565b5b6000612a6084828501612a27565b91505092915050565b600081905092915050565b6000612a7f82612273565b612a898185612a69565b9350612a9981856020860161228f565b80840191505092915050565b6000612ab18285612a74565b9150612abd8284612a74565b91508190509392505050565b612ad28161218b565b82525050565b6000604082019050612aed6000830185612ac9565b612afa6020830184612ac9565b9392505050565b7f77652061726520696e2074686520666972737420696620626c6f636b00000000600082015250565b6000612b37601c8361293c565b9150612b4282612b01565b602082019050919050565b60006020820190508181036000830152612b6681612b2a565b9050919050565b7f57652061726520696e2074686520656c736520626c6f636b0000000000000000600082015250565b6000612ba360188361293c565b9150612bae82612b6d565b602082019050919050565b60006020820190508181036000830152612bd281612b96565b9050919050565b6000612be48261285c565b9150612bef8361285c565b925082821015612c0257612c016128c5565b5b828203905092915050565b7f416c6c2072657665616c732068617665206265656e20706c6163656400000000600082015250565b6000612c43601c8361293c565b9150612c4e82612c0d565b602082019050919050565b6000604082019050612c6e6000830184612264565b8181036020830152612c7f81612c36565b905092915050565b600081519050919050565b600082825260208201905092915050565b6000819050602082019050919050565b600082825260208201905092915050565b6000612ccf82612273565b612cd98185612cb3565b9350612ce981856020860161228f565b612cf2816122c2565b840191505092915050565b6000612d098383612cc4565b905092915050565b6000602082019050919050565b6000612d2982612c87565b612d338185612c92565b935083602082028501612d4585612ca3565b8060005b85811015612d815784840389528151612d628582612cfd565b9450612d6d83612d11565b925060208a01995050600181019050612d49565b50829750879550505050505092915050565b612d9c81612560565b82525050565b60006040820190508181036000830152612dbc8185612d1e565b9050612dcb6020830184612d93565b9392505050565b7f776520656e74657220746865206c6f6f70000000000000000000000000000000600082015250565b6000612e0860118361293c565b9150612e1382612dd2565b602082019050919050565b60006020820190508181036000830152612e3781612dfb565b9050919050565b7f696e207468652069662073746174656d656e7400000000000000000000000000600082015250565b6000612e7460138361293c565b9150612e7f82612e3e565b602082019050919050565b60006020820190508181036000830152612ea381612e67565b9050919050565b7f696e2074686520656c73652073746174656d656e740000000000000000000000600082015250565b6000612ee060158361293c565b9150612eeb82612eaa565b602082019050919050565b60006020820190508181036000830152612f0f81612ed3565b9050919050565b7f4e487b7100000000000000000000000000000000000000000000000000000000600052601260045260246000fd5b6000612f5082612155565b9150612f5b83612155565b925082612f6b57612f6a612f16565b5b828204905092915050565b7f746f6f206d616e7920696e636f7272656374206e6f6465730000000000000000600082015250565b6000612fac60188361293c565b9150612fb782612f76565b602082019050919050565b60006020820190508181036000830152612fdb81612f9f565b9050919050565b600081549050919050565b600082825260208201905092915050565b60008190508160005260206000209050919050565b61301c8161270b565b82525050565b600061302e8383613013565b60208301905092915050565b60008160001c9050919050565b600073ffffffffffffffffffffffffffffffffffffffff82169050919050565b600061307a6130758361303a565b613047565b9050919050565b600061308d8254613067565b9050919050565b6000600182019050919050565b60006130ac82612fe2565b6130b68185612fed565b93506130c183612ffe565b8060005b838110156130f9576130d682613081565b6130e08882613022565b97506130eb83613094565b9250506001810190506130c5565b5085935050505092915050565b600060a08201905061311b6000830188612264565b613128602083018761220d565b818103604083015261313a81866130a1565b9050818103606083015261314e81856130a1565b9050818103608083015261316281846130a1565b90509695505050505050565b60006040820190506131836000830185612264565b818103602083015261319581846130a1565b90509392505050565b7f566f7465204167677265676174696f6e20436f6d706c65746500000000000000600082015250565b60006131d460198361293c565b91506131df8261319e565b602082019050919050565b60006040820190506131ff6000830184612264565b8181036020830152613210816131c7565b905092915050565b600061322382612560565b915061322e83612560565b9250817f7fffffffffffffffffffffffffffffffffffffffffffffffffffffffffffffff03831360008312151615613269576132686128c5565b5b817f80000000000000000000000000000000000000000000000000000000000000000383126000831216156132a1576132a06128c5565b5b828201905092915050565b60006132b782612560565b91506132c283612560565b9250826132d2576132d1612f16565b5b600160000383147f80000000000000000000000000000000000000000000000000000000000000008314161561330b5761330a6128c5565b5b828205905092915050565b600060808201905061332b6000830187612264565b6133386020830186612d93565b818103604083015261334a81856130a1565b9050818103606083015261335e81846130a1565b905095945050505050565b7f41766572616765204167677265676174696f6e20436f6d706c65746500000000600082015250565b600061339f601c8361293c565b91506133aa82613369565b602082019050919050565b60006040820190506133ca6000830184612264565b81810360208301526133db81613392565b90509291505056fea2646970667358221220b4887c0ccb91e4ad468007b0d65acd7e16f58edfb9e3f7f0ad2352918a2f45be64736f6c634300080f0033",
  "immutableReferences": {},
  "source": "// SPDX-License-Identifier: MIT\npragma solidity ^0.8.0;\n\nimport \"./OracleRequestContract.sol\";\n\ncontract AggregatorContract {\n    address public owner; // owner of contract\n    OracleRequestContract orc; // instance of ORC contract\n    Answer[100] public answers; // array of 100 Answer structs to keep track of answers\n    struct Answer {\n        //bytes test;\n        uint256 requestID; // the request ID\n        bytes dataType; // data type of request 'bool' 'temp' etc\n        mapping (address => bool) oracleHasSubmittedCommit; // authorised oracles, marked true when committed\n        mapping(address => bool) oracleHasSubmittedReveal; // authorised oracles, marked true when revealed\n        mapping (address => bytes32) oracleCommits; // add their result to a map with their address as index\n        mapping (address => bool) oracleVoteReveals; // adds oracle answers to addresses\n        mapping (address => int256) oracleAverageReveals; // adds oracle answers to addresses\n        mapping (uint256 => address) oracleAddresses; // uint to address to match counter and iterate through\n        uint256 oracleCounter; // keep an index of the oracles\n        address[] correctRevealOracles; // dynamic array to keep track of correct oracle address to be passed to ORC\n        address[] incorrectRevealOracles; // dynamic array to keep track of incorrect oracle address to be penalised\n        address[] trueOracleResults; // oracles that answer true\n        address[] falseOracleResults; // oracles that answer false\n        uint t; // a true counter;\n        uint f; // a false counter: we need this under (n-1)/3\n        uint cancelFlag; // cancelFlag == 0, == 1 if canceled\n        uint commitsFlag; // 0 = needing commits still 1 = commits are complete\n        uint revealsFlag; // 0 = needing reveals still 1 = reveals are complete\n        bool lastOracle; // last oracle\n\n    }\n\n    event AggregationCompleted(uint256, string); // emits logs once the aggregation is complete\n    event LogHashes(bytes32, bytes32); // emits logs of hashes\n    event CommitsPlaced(uint, string); // emits a commits placed event\n    event RevealsPlaced(uint, string); // emits reveals placed event\n    event Logging(string);\n    event LogBool(bool);\n\n\n    // @notice constructor called when deployed\n    constructor(address _addr)\n    {\n        owner = msg.sender; // set deploying address as owner\n        orc = OracleRequestContract(_addr); // initialise the Oracle Request Contract contract\n    }\n    // @notice commitResponse oracles first commit a hash of their answer and a random string\n    function commitResponse(uint256 _requestID, bytes32 _commitHash )\n    public\n    onlyAuthorisedOraclesYetToCommit(_requestID)\n    cancelFlagCheck(_requestID)\n    commitFlagCheck(_requestID)\n    returns(bool)\n    {\n        if (answers[_requestID].requestID == 0) {\n            answers[_requestID].requestID = _requestID; // assign correct id\n            answers[_requestID].t = 0;\n            answers[_requestID].f = 0;\n        }\n        if (answers[_requestID].oracleCounter < orc.getNumberOfOracles(_requestID)) {\n            answers[_requestID].oracleCommits[msg.sender] = _commitHash; // oracle nodes add commit to map\n            answers[_requestID].oracleHasSubmittedCommit[msg.sender] = true; // it has now submitted.\n            answers[_requestID].oracleAddresses[answers[_requestID].oracleCounter] = msg.sender; // map counter to oracle addr\n            answers[_requestID].oracleCounter++; // once this is equal we know to enter next if statement\n        }\n        if (answers[_requestID].oracleCounter == orc.getNumberOfOracles(_requestID)) {\n            answers[_requestID].commitsFlag = 1;\n            answers[_requestID].oracleCounter = 0;\n            emit CommitsPlaced(_requestID, \"commits are placed\");\n        }\n        return true;\n    }\n    // @notice called by oracle node once all commits are in and a response with the result and secret is given to check against commit\n    // @param _requestID\n    // @param _result, the answer that was fetch by IoT\n    // @param _secret, the string that was hashed with the IoT result in the commit\n    function revealVoteResponse(uint256 _requestID, bytes memory _result, bytes memory _secret)\n    public\n    onlyAuthorisedOraclesYetToReveal(_requestID) // only oracles yet to reveal\n    cancelFlagCheck(_requestID) // make sure cancel flag = 0\n    commitCompleteFlagCheck(_requestID) // checks all commits are in and flag is equal to 1\n    revealsFlagCheck(_requestID) // checks that reveal flag is 0 otherwise function will not run\n    onlyVoteAggregationType(_requestID) // makes sure only vote responses are received\n    {\n\n\n        // need to check the hash of the _result and _secret against answers[_requestID].oracleCommits[msg.sender]\n        bytes32 revealHash =  keccak256(abi.encodePacked(_secret, _result));// hash of _result and _secret\n        emit LogHashes(answers[_requestID].oracleCommits[msg.sender], revealHash);\n        bool decodedResult = decode(_result);\n        emit LogBool(decodedResult);\n        if (answers[_requestID].oracleCommits[msg.sender] == revealHash) {\n\n            answers[_requestID].oracleVoteReveals[msg.sender] = decodedResult; // add oracles answer to reveals\n            answers[_requestID].oracleHasSubmittedReveal[msg.sender] = true; // has submitted so can only vote once\n            answers[_requestID].correctRevealOracles.push(msg.sender); // adds to the correct reveals for aggregation\n            emit Logging(\"we are in the first if block\");\n\n        } else {\n            emit Logging(\"We are in the else block\");\n            answers[_requestID].incorrectRevealOracles.push(msg.sender); // an incorrect match of commit and reveal hashes\n            answers[_requestID].oracleHasSubmittedReveal[msg.sender] = true; // has submitted so can only vote once\n        }\n\n        if (answers[_requestID].oracleCounter == (orc.getNumberOfOracles(_requestID) - 1)){\n            emit RevealsPlaced(_requestID, \"All reveals have been placed\");\n            answers[_requestID].revealsFlag = 1;\n            voteAggregation(_requestID); // once number of oracles has been reached call voteAggregation\n        }\n        answers[_requestID].oracleCounter++; // increment counter for next oracle\n    }\n    // @notice called by oracle node once all commits are in and a response with the result and secret is given to check against commit\n    // @param _requestID\n    // @param _result, the answer that was fetch by IoT\n    // @param _secret, the string that was hashed with the IoT result in the commit\n    function revealAverageResponse(\n        uint256 _requestID,\n        int256 _result,\n        bytes[] memory _secret)\n    public\n    onlyAuthorisedOraclesYetToReveal(_requestID) // only oracles yet to reveal\n    cancelFlagCheck(_requestID) // make sure cancel flag = 0\n    commitCompleteFlagCheck(_requestID) // checks all commits are in and flag is equal to 1\n    revealsFlagCheck(_requestID) // checks that reveal flag is 0 otherwise function will not run\n    onlyAverageAggregationType(_requestID) // makes sure only average responses are received\n    returns(bool){\n        // need to check the hash of the _result and _secret against answers[_requestID].oracleCommits[msg.sender]\n        bytes32 revealHash = keccak256(abi.encode(_secret, _result)); // hash of _result and _secret\n        if (answers[_requestID].oracleCommits[msg.sender] == revealHash) {\n            answers[_requestID].oracleAverageReveals[msg.sender] = _result; // adds the int result to map\n            answers[_requestID].oracleHasSubmittedReveal[msg.sender] = true; // can only submit once\n            answers[_requestID].correctRevealOracles.push(msg.sender); // adds correct oracles for aggregation\n        } else {\n            answers[_requestID].incorrectRevealOracles.push(msg.sender); // an incorrect match of commit and reveal hashes\n            answers[_requestID].oracleHasSubmittedReveal[msg.sender] = true; // has submitted so can only respond once\n        }\n        answers[_requestID].oracleCounter++; // increment oracle counter\n        if (answers[_requestID].oracleCounter == (orc.getNumberOfOracles(_requestID) - 1)){\n            emit RevealsPlaced(_requestID, \"All reveals have been placed\");\n            averageAggregation(_requestID); // once number of oracles has been reached call averageAggregation\n        }\n        return true;\n    }\n    // @notice vote aggregation, splits the correct reveals into true and false lists, then chooses the bool\n    //         with the most votes as correct. and the others are penalised in ORC contract. Majority vote\n    // @param _requestID\n    function voteAggregation(uint256 _requestID) internal returns(bool) {\n        bool _result; // the final result to send to ORC contract\n        address orcAddress; // placeholder oracle address var\n        // loop through the oracles that provided a correct reveal\n        for (uint i = 0; i < answers[_requestID].correctRevealOracles.length; i++) {\n            emit Logging(\"we enter the loop\");\n            orcAddress = answers[_requestID].correctRevealOracles[i]; // assign address\n            // if the reveal result is true add to true array and increment true counter\n            if (answers[_requestID].oracleVoteReveals[orcAddress] == true ) {\n                emit Logging(\"in the if statement\");\n                answers[_requestID].trueOracleResults.push(orcAddress); // add oracle address to true array\n                answers[_requestID].t++; // increment true counter\n            } else { // if false add address to false array\n                emit Logging(\"in the else statement\");\n                answers[_requestID].falseOracleResults.push(orcAddress);\n                answers[_requestID].f++; // increment false counter\n            }\n        }\n        // which ever is greater pass to call deliverVoteResponse in true(correct) then false(incorrect) order\n        if (answers[_requestID].t > answers[_requestID].f) {\n            // call\n            require(!(answers[_requestID].f > (answers[_requestID].oracleCounter) / 3), 'too many incorrect nodes');\n            _result = true; // final result\n            // pass in requestID the result, trueOracleResults as the correct field and falseOracleResults as the incorrect\n            orc.deliverVoteResponse(_requestID, _result, answers[_requestID].trueOracleResults,\n                answers[_requestID].falseOracleResults,\n                answers[_requestID].incorrectRevealOracles);\n            return true;\n        } else if (answers[_requestID].f > answers[_requestID].t) {\n            // which ever is greater pass to call deliverVoteResponse in false(correct) then true(incorrect) order\n            require(!(answers[_requestID].t > (answers[_requestID].oracleCounter) / 3), 'too many incorrect nodes');\n            _result = false;\n            // pass in requestID the result, falseOracleResults as the correct field and trueOracleResults as the incorrect\n            orc.deliverVoteResponse(_requestID, _result,\n                answers[_requestID].falseOracleResults,\n                answers[_requestID].trueOracleResults,\n                answers[_requestID].incorrectRevealOracles);\n            return true;\n        } else {\n            // when the t and f counters are the same, deadlock as appeared so we need to cancel and refund\n            orc.cancelRequestDueToDeadlock(_requestID, answers[_requestID].incorrectRevealOracles);\n            answers[_requestID].cancelFlag = 1;\n        }\n        emit AggregationCompleted(_requestID, \"Vote Aggregation Complete\");\n        return false;\n    }\n    // @notice averaging aggregation this function takes an average of the correct reveal oracles\n    function averageAggregation(\n        uint256 _requestID)\n    internal\n    returns(bool)\n    {\n        address orcAddress; // placeholder for orcAddress\n        int256 total = 0; // total of the results\n        int256 average; // an average of the results\n        for (uint i=0; i<answers[_requestID].correctRevealOracles.length; i++){\n            orcAddress = answers[_requestID].correctRevealOracles[i]; // orc address\n            total += answers[_requestID].oracleAverageReveals[orcAddress]; // sums the results to total\n        }\n        average = total / int(answers[_requestID].correctRevealOracles.length); // averages the result\n        orc.deliverAverageResponse(\n                _requestID,\n                average,\n                answers[_requestID].correctRevealOracles,\n                    answers[_requestID].incorrectRevealOracles);\n        emit AggregationCompleted(_requestID, \"Average Aggregation Complete\");\n        return true;\n    }\n    // @notice cancel request only ORC contract can call this\n    function cancelRequest(\n        uint256 _requestID)\n    public\n    cancelFlagCheck(_requestID)\n    onlyORC() // only ORC contract can call this function\n    returns(bool)\n    {\n        answers[_requestID].cancelFlag = 1;\n        return true;\n    }\n    // ***modifiers***\n    modifier onlyAuthorisedOraclesYetToCommit(\n        uint256 _requestID)\n    {\n        // checks that the oracle is in request list\n        require(orc.getOracleForRequest(_requestID, msg.sender));\n        // checks that the oracle hasn't yet committed.\n        require(answers[_requestID].oracleHasSubmittedCommit[msg.sender] == false);\n        _;\n    }\n    modifier onlyAuthorisedOraclesYetToReveal(\n        uint256 _requestID)\n    {\n        // checks that the oracle is in request list\n        require(orc.getOracleForRequest(_requestID, msg.sender));\n        // checks that the oracle hasn't yet revealed.\n        require(answers[_requestID].oracleHasSubmittedReveal[msg.sender] == false);\n        _;\n    }\n    modifier onlyOwner()\n    {\n        require(msg.sender == owner);\n        _;\n    }\n    modifier cancelFlagCheck(\n        uint256 _requestID)\n    {\n        require(answers[_requestID].cancelFlag == 0);\n        _;\n    }\n    modifier commitFlagCheck(uint256 _requestID) {\n        require(answers[_requestID].commitsFlag == 0 );\n        _;\n    }\n    modifier commitCompleteFlagCheck(uint256 _requestID) {\n        require(answers[_requestID].commitsFlag == 1);\n        _;\n    }\n    modifier revealsFlagCheck(uint256 _requestID){\n        require(answers[_requestID].revealsFlag == 0);\n        _;\n    }\n    modifier onlyORC()\n    {\n        require(msg.sender == address(orc));\n        _;\n    }\n    modifier onlyVoteAggregationType(uint256 _requestID) {\n        require(orc.getAggregationType(_requestID) == 1);\n        _;\n    }\n    modifier onlyAverageAggregationType(uint256 _requestID) {\n        require(orc.getAggregationType(_requestID) == 2);\n        _;\n    }\n    function decode(bytes memory data) public pure returns (bool b){\n        assembly {\n        // Load the length of data (first 32 bytes)\n            let len := mload(data)\n        // Load the data after 32 bytes, so add 0x20\n            b := mload(add(data, 0x20))\n        }\n    }\n}\n\n\n\n\n\n\n\n\n\n/////////////////////////////////////////////////////////////////////////////////////////////////\n//    // not needed\n//    // @notice each oracle sends their response to through this function\n//    // filling up the Answer struct at index requestID.\n//    // @dev\n//    // @param _requestID ID of request\n//    // @param _actualResult the value the off-chain oracle has collected\n//    // @return bool, true to say answer has been submitted\n//    function receiveResponse(\n//        uint256 _requestID,\n//        bytes memory _actualResult\n//    )\n//    public\n//    onlyAuthorisedOraclesYetToVote(_requestID) // makes sure only oracles that are authorised call call this function,\n//    // also only if it has not yet submitted an answer\n//    cancelFlagCheck(_requestID) // requires cancelFlag == 0\n//    returns(bool)\n//    {\n//        // only logs answers for any number of oracles that are under the number required\n//        if (answers[_requestID].oracleCounter < orc.getNumberOfOracles(_requestID)) {\n//            answers[_requestID].requestID = _requestID; // assign correct id\n//            answers[_requestID].oracleCommits[msg.sender] = _actualResult; // orcale nodes answer mapped to its address\n//            answers[_requestID].oracleHasSubmitted[msg.sender] = true; // it has now submitted.\n//            answers[_requestID].oracleAddresses[answers[_requestID].oracleCounter] = msg.sender; // map counter to oracle addr\n//            answers[_requestID].oracleCounter++; // once this is equal we know to enter next if statement\n//            answers[_requestID].cancelFlag = 0; // sets cancelFlag to 0\n//            emit ResponseReceived(msg.sender, \"response logged\"); // emits to listeners that a response has been logged\n//        }\n//        // if the counter has reached the number of oracles needed, on the last oracle,\n//        // we can call the deliverResponse with the aggregation() method with returns a single result\n//        if(answers[_requestID].oracleCounter == orc.getNumberOfOracles(_requestID)) {\n//            answers[_requestID].lastOracle = true; // flag to know all oracles have submitted a vote\n//            // call aggregator function, returns a final result and an array of correct oracles\n//            (bytes memory finalResult, address[] memory correctOracles) = aggregation(_requestID);\n//            orc.deliverResponse(_requestID, finalResult, correctOracles); // call the deliverResponse function\n//        }\n//        return answers[_requestID].oracleHasSubmitted[msg.sender]; // returns true\n//    }\n\n//    // @notice aggregates results on a voting system, also requires that false votes are not larger than a threshold\n//    // @dev\n//    // @param _requestID pass in requestID to index the answers\n//    // @return final result\n//    function aggregation(\n//        uint256 _requestID)\n//    internal\n//    cancelFlagCheck(_requestID) // requires cancelFlag == 0\n//    returns(\n//        bytes memory,\n//        address[] memory)\n//    {\n//        // local finalResult initialised\n//        bytes memory finalResult;\n//        //gets dataType from ORC request struct which is then used for a hash of the params to match the results\n//        answers[_requestID].dataType = orc.getDataType(_requestID);\n//        // loop through the oracle counter to get oracle address and determine their result\n//        for (uint i=0; i<answers[_requestID].oracleCounter; i++){\n//            address oracleAddress = answers[_requestID].oracleAddresses[i]; // assign oracleAddress\n//            // ensures actual result and required result are the same\n//            bytes32 responseHash = keccak256(abi.encodePacked(\n//                    answers[_requestID].dataType, answers[_requestID].oracleResults[oracleAddress]\n//                )); // response hash from answer\n//            emit LogHashes(orc.getPHash(_requestID), responseHash); // emits to listeners to 2 hashes, these should equal\n//            if (responseHash == orc.getPHash(_requestID)){\n//                answers[_requestID].t++; // if correct increment the true count\n//                answers[_requestID].correctOracles.push(oracleAddress); // adds correct oracles to an array\n//                if (finalResult.length <= 0) {\n//                    // first response will assign its answer to the actual answer\n//                    finalResult = answers[_requestID].oracleResults[oracleAddress]; // as these are all the same\n//                }\n//            } else {\n//                //otherwise increment the false count\n//                answers[_requestID].f++;\n//            }\n//        }\n//        // requires a threshold for false answers\n//        require(!(answers[_requestID].f > (answers[_requestID].oracleCounter - 1) / 3), 'too many incorrect nodes');\n//        emit AggregationCompleted(_requestID, \"aggregation complete\");\n//        return (finalResult, answers[_requestID].correctOracles);\n//    }\n\n\n\n\n\n\n",
  "sourcePath": "/home/willp/Documents/MSc_Computer_Science/PROJECT/Research_Code/july22_projectcode/IoToracle/contracts/AggregatorContract.sol",
  "compiler": {
    "name": "solc",
    "version": "0.8.15+commit.e14f2714.Emscripten.clang"
  },
  "schemaVersion": "3.4.8",
  "updatedAt": "2022-08-14T12:55:08.921Z",
  "networkType": "ethereum",
  "devdoc": {
    "kind": "dev",
    "methods": {},
    "version": 1
  },
  "userdoc": {
    "kind": "user",
    "methods": {},
    "version": 1
  }
}