{
  "contractName": "AggregatorContract",
  "abi": [
    {
      "inputs": [],
      "stateMutability": "nonpayable",
      "type": "constructor"
    },
    {
      "anonymous": false,
      "inputs": [
        {
          "indexed": false,
          "internalType": "uint256",
          "name": "",
          "type": "uint256"
        }
      ],
      "name": "AggregationCompleted",
      "type": "event"
    },
    {
      "anonymous": false,
      "inputs": [
        {
          "indexed": false,
          "internalType": "address",
          "name": "",
          "type": "address"
        }
      ],
      "name": "ResponseReceived",
      "type": "event"
    },
    {
      "inputs": [
        {
          "internalType": "uint256",
          "name": "_requestID",
          "type": "uint256"
        },
        {
          "internalType": "bytes",
          "name": "_actualResult",
          "type": "bytes"
        }
      ],
      "name": "receiveResponse",
      "outputs": [
        {
          "internalType": "bool",
          "name": "",
          "type": "bool"
        }
      ],
      "stateMutability": "nonpayable",
      "type": "function"
    }
  ],
  "bytecode": "0x608060405234801561001057600080fd5b50738e51114031b705a8e4ccde32d9a4efbfb00231636000806101000a81548173ffffffffffffffffffffffffffffffffffffffff021916908373ffffffffffffffffffffffffffffffffffffffff160217905550611616806100746000396000f3fe608060405234801561001057600080fd5b506004361061002b5760003560e01c8063f8f14f4214610030575b600080fd5b61004a60048036038101906100459190610c96565b610060565b6040516100579190610d0d565b60405180910390f35b60008260008054906101000a900473ffffffffffffffffffffffffffffffffffffffff1673ffffffffffffffffffffffffffffffffffffffff1663a37b354d82336040518363ffffffff1660e01b81526004016100be929190610d78565b602060405180830381865afa1580156100db573d6000803e3d6000fd5b505050506040513d601f19601f820116820180604052508101906100ff9190610dcd565b61010857600080fd5b60001515600182606481106101205761011f610dfa565b5b6007020160020160003373ffffffffffffffffffffffffffffffffffffffff1673ffffffffffffffffffffffffffffffffffffffff16815260200190815260200160002060009054906101000a900460ff1615151461017e57600080fd5b60008054906101000a900473ffffffffffffffffffffffffffffffffffffffff1673ffffffffffffffffffffffffffffffffffffffff166391a3632a856040518263ffffffff1660e01b81526004016101d79190610e29565b602060405180830381865afa1580156101f4573d6000803e3d6000fd5b505050506040513d601f19601f820116820180604052508101906102189190610e80565b63ffffffff166001856064811061023257610231610dfa565b5b600702016005015410156103ee57836001856064811061025557610254610dfa565b5b6007020160000181905550826001856064811061027557610274610dfa565b5b6007020160030160003373ffffffffffffffffffffffffffffffffffffffff1673ffffffffffffffffffffffffffffffffffffffff16815260200190815260200160002090816102c591906110c4565b5060018085606481106102db576102da610dfa565b5b6007020160020160003373ffffffffffffffffffffffffffffffffffffffff1673ffffffffffffffffffffffffffffffffffffffff16815260200190815260200160002060006101000a81548160ff021916908315150217905550336001856064811061034b5761034a610dfa565b5b6007020160040160006001876064811061036857610367610dfa565b5b6007020160050154815260200190815260200160002060006101000a81548173ffffffffffffffffffffffffffffffffffffffff021916908373ffffffffffffffffffffffffffffffffffffffff160217905550600184606481106103d0576103cf610dfa565b5b6007020160050160008154809291906103e8906111c5565b91905055505b60008054906101000a900473ffffffffffffffffffffffffffffffffffffffff1673ffffffffffffffffffffffffffffffffffffffff166391a3632a856040518263ffffffff1660e01b81526004016104479190610e29565b602060405180830381865afa158015610464573d6000803e3d6000fd5b505050506040513d601f19601f820116820180604052508101906104889190610e80565b63ffffffff16600185606481106104a2576104a1610dfa565b5b60070201600501540361057c577fdb6a1be88b156bfd9b133836dd159e1312a4587a2c8f5f53b66174081b9a7664336040516104de919061120d565b60405180910390a160008054906101000a900473ffffffffffffffffffffffffffffffffffffffff1673ffffffffffffffffffffffffffffffffffffffff1663ea317d5d8561052c876105eb565b6040518363ffffffff1660e01b81526004016105499291906112a5565b600060405180830381600087803b15801561056357600080fd5b505af1158015610577573d6000803e3d6000fd5b505050505b600184606481106105905761058f610dfa565b5b6007020160020160003373ffffffffffffffffffffffffffffffffffffffff1673ffffffffffffffffffffffffffffffffffffffff16815260200190815260200160002060009054906101000a900460ff1691505092915050565b60608060008054906101000a900473ffffffffffffffffffffffffffffffffffffffff1673ffffffffffffffffffffffffffffffffffffffff166357442e79846040518263ffffffff1660e01b81526004016106479190610e29565b600060405180830381865afa158015610664573d6000803e3d6000fd5b505050506040513d6000823e3d601f19601f8201168201806040525081019061068d9190611345565b600184606481106106a1576106a0610dfa565b5b6007020160010190816106b491906110c4565b5060005b600184606481106106cc576106cb610dfa565b5b60070201600501548111610a1f576000600185606481106106f0576106ef610dfa565b5b60070201600401600083815260200190815260200160002060009054906101000a900473ffffffffffffffffffffffffffffffffffffffff16905060008054906101000a900473ffffffffffffffffffffffffffffffffffffffff1673ffffffffffffffffffffffffffffffffffffffff1663829c22fd866040518263ffffffff1660e01b81526004016107849190610e29565b602060405180830381865afa1580156107a1573d6000803e3d6000fd5b505050506040513d601f19601f820116820180604052508101906107c591906113c4565b600186606481106107d9576107d8610dfa565b5b60070201600101600187606481106107f4576107f3610dfa565b5b6007020160030160008473ffffffffffffffffffffffffffffffffffffffff1673ffffffffffffffffffffffffffffffffffffffff16815260200190815260200160002060405160200161084992919061147f565b60405160208183030381529060405280519060200120036109b0576001856064811061087857610877610dfa565b5b60070201600601600081819054906101000a900463ffffffff168092919061089f906114a3565b91906101000a81548163ffffffff021916908363ffffffff1602179055505060008351116109ab57600185606481106108db576108da610dfa565b5b6007020160030160008273ffffffffffffffffffffffffffffffffffffffff1673ffffffffffffffffffffffffffffffffffffffff168152602001908152602001600020805461092a90610ee7565b80601f016020809104026020016040519081016040528092919081815260200182805461095690610ee7565b80156109a35780601f10610978576101008083540402835291602001916109a3565b820191906000526020600020905b81548152906001019060200180831161098657829003601f168201915b505050505092505b610a0b565b600185606481106109c4576109c3610dfa565b5b60070201600601600481819054906101000a900463ffffffff16809291906109eb906114a3565b91906101000a81548163ffffffff021916908363ffffffff160217905550505b508080610a17906111c5565b9150506106b8565b5060036001808560648110610a3757610a36610dfa565b5b6007020160050154610a4991906114cf565b610a539190611532565b60018460648110610a6757610a66610dfa565b5b6007020160060160049054906101000a900463ffffffff1663ffffffff161115610ac6576040517f08c379a0000000000000000000000000000000000000000000000000000000008152600401610abd906115c0565b60405180910390fd5b7fa5f8a09a18fd77f9ed5fe4f5811fe7d73d84a8a92188ebc287ca8f4a96a5f6d583604051610af59190610e29565b60405180910390a180915050919050565b6000604051905090565b600080fd5b600080fd5b6000819050919050565b610b2d81610b1a565b8114610b3857600080fd5b50565b600081359050610b4a81610b24565b92915050565b600080fd5b600080fd5b6000601f19601f8301169050919050565b7f4e487b7100000000000000000000000000000000000000000000000000000000600052604160045260246000fd5b610ba382610b5a565b810181811067ffffffffffffffff82111715610bc257610bc1610b6b565b5b80604052505050565b6000610bd5610b06565b9050610be18282610b9a565b919050565b600067ffffffffffffffff821115610c0157610c00610b6b565b5b610c0a82610b5a565b9050602081019050919050565b82818337600083830152505050565b6000610c39610c3484610be6565b610bcb565b905082815260208101848484011115610c5557610c54610b55565b5b610c60848285610c17565b509392505050565b600082601f830112610c7d57610c7c610b50565b5b8135610c8d848260208601610c26565b91505092915050565b60008060408385031215610cad57610cac610b10565b5b6000610cbb85828601610b3b565b925050602083013567ffffffffffffffff811115610cdc57610cdb610b15565b5b610ce885828601610c68565b9150509250929050565b60008115159050919050565b610d0781610cf2565b82525050565b6000602082019050610d226000830184610cfe565b92915050565b610d3181610b1a565b82525050565b600073ffffffffffffffffffffffffffffffffffffffff82169050919050565b6000610d6282610d37565b9050919050565b610d7281610d57565b82525050565b6000604082019050610d8d6000830185610d28565b610d9a6020830184610d69565b9392505050565b610daa81610cf2565b8114610db557600080fd5b50565b600081519050610dc781610da1565b92915050565b600060208284031215610de357610de2610b10565b5b6000610df184828501610db8565b91505092915050565b7f4e487b7100000000000000000000000000000000000000000000000000000000600052603260045260246000fd5b6000602082019050610e3e6000830184610d28565b92915050565b600063ffffffff82169050919050565b610e5d81610e44565b8114610e6857600080fd5b50565b600081519050610e7a81610e54565b92915050565b600060208284031215610e9657610e95610b10565b5b6000610ea484828501610e6b565b91505092915050565b600081519050919050565b7f4e487b7100000000000000000000000000000000000000000000000000000000600052602260045260246000fd5b60006002820490506001821680610eff57607f821691505b602082108103610f1257610f11610eb8565b5b50919050565b60008190508160005260206000209050919050565b60006020601f8301049050919050565b600082821b905092915050565b600060088302610f7a7fffffffffffffffffffffffffffffffffffffffffffffffffffffffffffffffff82610f3d565b610f848683610f3d565b95508019841693508086168417925050509392505050565b6000819050919050565b6000610fc1610fbc610fb784610b1a565b610f9c565b610b1a565b9050919050565b6000819050919050565b610fdb83610fa6565b610fef610fe782610fc8565b848454610f4a565b825550505050565b600090565b611004610ff7565b61100f818484610fd2565b505050565b5b8181101561103357611028600082610ffc565b600181019050611015565b5050565b601f8211156110785761104981610f18565b61105284610f2d565b81016020851015611061578190505b61107561106d85610f2d565b830182611014565b50505b505050565b600082821c905092915050565b600061109b6000198460080261107d565b1980831691505092915050565b60006110b4838361108a565b9150826002028217905092915050565b6110cd82610ead565b67ffffffffffffffff8111156110e6576110e5610b6b565b5b6110f08254610ee7565b6110fb828285611037565b600060209050601f83116001811461112e576000841561111c578287015190505b61112685826110a8565b86555061118e565b601f19841661113c86610f18565b60005b828110156111645784890151825560018201915060208501945060208101905061113f565b86831015611181578489015161117d601f89168261108a565b8355505b6001600288020188555050505b505050505050565b7f4e487b7100000000000000000000000000000000000000000000000000000000600052601160045260246000fd5b60006111d082610b1a565b91507fffffffffffffffffffffffffffffffffffffffffffffffffffffffffffffffff820361120257611201611196565b5b600182019050919050565b60006020820190506112226000830184610d69565b92915050565b600082825260208201905092915050565b60005b8381101561125757808201518184015260208101905061123c565b83811115611266576000848401525b50505050565b600061127782610ead565b6112818185611228565b9350611291818560208601611239565b61129a81610b5a565b840191505092915050565b60006040820190506112ba6000830185610d28565b81810360208301526112cc818461126c565b90509392505050565b60006112e86112e384610be6565b610bcb565b90508281526020810184848401111561130457611303610b55565b5b61130f848285611239565b509392505050565b600082601f83011261132c5761132b610b50565b5b815161133c8482602086016112d5565b91505092915050565b60006020828403121561135b5761135a610b10565b5b600082015167ffffffffffffffff81111561137957611378610b15565b5b61138584828501611317565b91505092915050565b6000819050919050565b6113a18161138e565b81146113ac57600080fd5b50565b6000815190506113be81611398565b92915050565b6000602082840312156113da576113d9610b10565b5b60006113e8848285016113af565b91505092915050565b600081905092915050565b6000815461140981610ee7565b61141381866113f1565b9450600182166000811461142e576001811461144357611476565b60ff1983168652811515820286019350611476565b61144c85610f18565b60005b8381101561146e5781548189015260018201915060208101905061144f565b838801955050505b50505092915050565b600061148b82856113fc565b915061149782846113fc565b91508190509392505050565b60006114ae82610e44565b915063ffffffff82036114c4576114c3611196565b5b600182019050919050565b60006114da82610b1a565b91506114e583610b1a565b9250828210156114f8576114f7611196565b5b828203905092915050565b7f4e487b7100000000000000000000000000000000000000000000000000000000600052601260045260246000fd5b600061153d82610b1a565b915061154883610b1a565b92508261155857611557611503565b5b828204905092915050565b600082825260208201905092915050565b7f746f6f206d616e7920696e636f7272656374206e6f6465730000000000000000600082015250565b60006115aa601883611563565b91506115b582611574565b602082019050919050565b600060208201905081810360008301526115d98161159d565b905091905056fea26469706673582212202c22a156ee86eb7e7c5a4e05af1c1f6773cacd872a09e13ed3c9c39da88034ca64736f6c634300080f0033",
  "immutableReferences": {},
  "source": "// SPDX-License-Identifier: MIT\npragma solidity ^0.8.0;\n\nimport \"./OracleRequesterContract.sol\";\n\ncontract AggregatorContract {\n\n    // need an answers struct\n    OracleRequesterContract orc;\n    //orc = OracleRequesterContract() // address of deployed contract\n    Answer[100] answers; // array of 100 Answer structs\n    struct Answer {\n        uint256 requestID; // the request ID\n        bytes dataType; // data type of request 'bool' 'temp' etc\n        mapping (address => bool) oracleHasSubmitted; // authorised oracles, marked true when voted\n        mapping (address => bytes) oracleResults; // add their result to a map of their address\n        mapping (uint => address) oracleAddresses; // uint to address to match counter and iterate through\n        uint256 oracleCounter; // keep an index of the oracles\n        uint32 t; // a true counter;\n        uint32 f; // a false counter: we need this under (n-1)/3\n    }\n\n    event ResponseReceived(address);\n    event AggregationCompleted(uint256);\n\n    constructor() {\n        // initialise the Oracle Request Contract contract\n        orc = OracleRequesterContract(0x8e51114031B705A8E4CCDE32d9A4efbfb0023163);\n    }\n\n    // @notice each oracle sends their response to through this function\n    // filling up the Answer struct at index requestID.\n    // @dev\n    // @param _requestID ID of request\n    // @param _actualResult the value the off-chain oracle has collected\n    // @return bool, true to say answer has been submitted\n    function receiveResponse(\n       uint256 _requestID,\n       bytes memory _actualResult\n    )\n    public\n    onlyAuthorisedOraclesYetToVote(_requestID)\n    returns(bool){\n        if (answers[_requestID].oracleCounter < orc.getNumberOfOracles(_requestID)) {\n            answers[_requestID].requestID = _requestID;\n            answers[_requestID].oracleResults[msg.sender] = _actualResult;\n            answers[_requestID].oracleHasSubmitted[msg.sender] = true;\n            answers[_requestID].oracleAddresses[answers[_requestID].oracleCounter] = msg.sender;\n            answers[_requestID].oracleCounter++;\n        }\n        // if the counter has reached the number of oracles needed,\n        // we can call the deliverResponse with the aggregation() method with returns a single result\n        if(answers[_requestID].oracleCounter == orc.getNumberOfOracles(_requestID)) {\n            // call aggregator function\n            emit ResponseReceived(msg.sender);\n            orc.deliverResponse(_requestID, aggregation(_requestID));\n        }\n        return answers[_requestID].oracleHasSubmitted[msg.sender];\n    }\n\n    // @notice aggregates results on a voting system, also requires that false votes are not larger than a threshold\n    // @dev\n    // @param _requestID pass in requestID to index the answers\n    // @return final result\n    function aggregation(uint256 _requestID) internal returns(bytes memory) {\n        // local finalResult initialised\n        bytes memory finalResult;\n        //gets dataType from ORC request struct which is then used for a hash of the params to match the results\n        answers[_requestID].dataType = orc.getDataType(_requestID);\n        for (uint i=0; i<=answers[_requestID].oracleCounter; i++){\n            address oracleAddress = answers[_requestID].oracleAddresses[i];\n            // ensures actual result and required result are the same\n            if (keccak256(abi.encodePacked(\n            answers[_requestID].dataType, answers[_requestID].oracleResults[oracleAddress]\n                )) == orc.getPHash(_requestID)){\n                // if correct increment the true count\n                answers[_requestID].t++;\n                if (finalResult.length <= 0) {\n                    // first response will assign its answer to the actual answer\n                    finalResult = answers[_requestID].oracleResults[oracleAddress];\n                }\n            } else {\n                //otherwise increment the false count\n                answers[_requestID].f++;\n            }\n        }\n        // requires a threshold for false answers\n        require(!(answers[_requestID].f > (answers[_requestID].oracleCounter - 1) / 3), 'too many incorrect nodes');\n        emit AggregationCompleted(_requestID);\n        return finalResult;\n    }\n\n\n    modifier onlyAuthorisedOraclesYetToVote(uint256 _requestID) {\n        // checks that the oracle is in request list\n        require(orc.getOracleForRequest(_requestID, msg.sender));\n        // checks that the oracle hasn't yet voted.\n        require(answers[_requestID].oracleHasSubmitted[msg.sender] == false);\n        _;\n    }\n}\n\n\n\n\n\n\n",
  "sourcePath": "/home/willp/Documents/MSc_Computer_Science/PROJECT/Research_Code/july22_projectcode/IoToracle/contracts/AggregatorContract.sol",
  "compiler": {
    "name": "solc",
    "version": "0.8.15+commit.e14f2714.Emscripten.clang"
  },
  "schemaVersion": "3.4.8",
  "updatedAt": "2022-07-18T14:12:18.322Z",
  "devdoc": {
    "kind": "dev",
    "methods": {},
    "version": 1
  },
  "userdoc": {
    "kind": "user",
    "methods": {},
    "version": 1
  }
}