{
  "contractName": "AggregatorContract",
  "abi": [
    {
      "inputs": [
        {
          "internalType": "address",
          "name": "_addr",
          "type": "address"
        }
      ],
      "stateMutability": "nonpayable",
      "type": "constructor"
    },
    {
      "anonymous": false,
      "inputs": [
        {
          "indexed": false,
          "internalType": "address",
          "name": "",
          "type": "address"
        },
        {
          "indexed": false,
          "internalType": "string",
          "name": "",
          "type": "string"
        }
      ],
      "name": "AddressLogging",
      "type": "event"
    },
    {
      "anonymous": false,
      "inputs": [
        {
          "indexed": false,
          "internalType": "uint256",
          "name": "",
          "type": "uint256"
        },
        {
          "indexed": false,
          "internalType": "string",
          "name": "",
          "type": "string"
        }
      ],
      "name": "AggregationCompleted",
      "type": "event"
    },
    {
      "anonymous": false,
      "inputs": [
        {
          "indexed": false,
          "internalType": "uint256",
          "name": "",
          "type": "uint256"
        },
        {
          "indexed": false,
          "internalType": "string",
          "name": "",
          "type": "string"
        }
      ],
      "name": "CommitsPlaced",
      "type": "event"
    },
    {
      "anonymous": false,
      "inputs": [
        {
          "indexed": false,
          "internalType": "bool",
          "name": "",
          "type": "bool"
        }
      ],
      "name": "LogBool",
      "type": "event"
    },
    {
      "anonymous": false,
      "inputs": [
        {
          "indexed": false,
          "internalType": "bytes32",
          "name": "",
          "type": "bytes32"
        },
        {
          "indexed": false,
          "internalType": "bytes32",
          "name": "",
          "type": "bytes32"
        }
      ],
      "name": "LogHashes",
      "type": "event"
    },
    {
      "anonymous": false,
      "inputs": [
        {
          "indexed": false,
          "internalType": "int256",
          "name": "",
          "type": "int256"
        }
      ],
      "name": "LogInt",
      "type": "event"
    },
    {
      "anonymous": false,
      "inputs": [
        {
          "indexed": false,
          "internalType": "uint256",
          "name": "",
          "type": "uint256"
        },
        {
          "indexed": false,
          "internalType": "string",
          "name": "",
          "type": "string"
        }
      ],
      "name": "LogNumOr",
      "type": "event"
    },
    {
      "anonymous": false,
      "inputs": [
        {
          "indexed": false,
          "internalType": "string",
          "name": "",
          "type": "string"
        }
      ],
      "name": "Logging",
      "type": "event"
    },
    {
      "anonymous": false,
      "inputs": [
        {
          "indexed": false,
          "internalType": "address",
          "name": "",
          "type": "address"
        },
        {
          "indexed": false,
          "internalType": "string",
          "name": "",
          "type": "string"
        }
      ],
      "name": "PrintAddress",
      "type": "event"
    },
    {
      "anonymous": false,
      "inputs": [
        {
          "indexed": false,
          "internalType": "uint256",
          "name": "",
          "type": "uint256"
        },
        {
          "indexed": false,
          "internalType": "string",
          "name": "",
          "type": "string"
        }
      ],
      "name": "RevealsPlaced",
      "type": "event"
    },
    {
      "inputs": [
        {
          "internalType": "uint256",
          "name": "",
          "type": "uint256"
        }
      ],
      "name": "answers",
      "outputs": [
        {
          "internalType": "uint256",
          "name": "requestID",
          "type": "uint256"
        },
        {
          "internalType": "bytes",
          "name": "dataType",
          "type": "bytes"
        },
        {
          "internalType": "uint256",
          "name": "oracleCounter",
          "type": "uint256"
        },
        {
          "internalType": "uint256",
          "name": "t",
          "type": "uint256"
        },
        {
          "internalType": "uint256",
          "name": "f",
          "type": "uint256"
        },
        {
          "internalType": "uint256",
          "name": "cancelFlag",
          "type": "uint256"
        },
        {
          "internalType": "uint256",
          "name": "commitsFlag",
          "type": "uint256"
        },
        {
          "internalType": "uint256",
          "name": "revealsFlag",
          "type": "uint256"
        },
        {
          "internalType": "bool",
          "name": "lastOracle",
          "type": "bool"
        }
      ],
      "stateMutability": "view",
      "type": "function",
      "constant": true
    },
    {
      "inputs": [],
      "name": "owner",
      "outputs": [
        {
          "internalType": "address",
          "name": "",
          "type": "address"
        }
      ],
      "stateMutability": "view",
      "type": "function",
      "constant": true
    },
    {
      "inputs": [
        {
          "internalType": "uint256",
          "name": "_requestID",
          "type": "uint256"
        },
        {
          "internalType": "bytes32",
          "name": "_commitHash",
          "type": "bytes32"
        }
      ],
      "name": "commitResponse",
      "outputs": [
        {
          "internalType": "bool",
          "name": "",
          "type": "bool"
        }
      ],
      "stateMutability": "nonpayable",
      "type": "function"
    },
    {
      "inputs": [
        {
          "internalType": "uint256",
          "name": "_requestID",
          "type": "uint256"
        },
        {
          "internalType": "bytes",
          "name": "_result",
          "type": "bytes"
        },
        {
          "internalType": "bytes",
          "name": "_secret",
          "type": "bytes"
        }
      ],
      "name": "revealVoteResponse",
      "outputs": [],
      "stateMutability": "nonpayable",
      "type": "function"
    },
    {
      "inputs": [
        {
          "internalType": "uint256",
          "name": "_requestID",
          "type": "uint256"
        },
        {
          "internalType": "bytes",
          "name": "_result",
          "type": "bytes"
        },
        {
          "internalType": "bytes",
          "name": "_secret",
          "type": "bytes"
        }
      ],
      "name": "revealAverageResponse",
      "outputs": [
        {
          "internalType": "bool",
          "name": "",
          "type": "bool"
        }
      ],
      "stateMutability": "nonpayable",
      "type": "function"
    },
    {
      "inputs": [
        {
          "internalType": "uint256",
          "name": "_requestID",
          "type": "uint256"
        }
      ],
      "name": "cancelRequest",
      "outputs": [
        {
          "internalType": "bool",
          "name": "",
          "type": "bool"
        }
      ],
      "stateMutability": "nonpayable",
      "type": "function"
    },
    {
      "inputs": [
        {
          "internalType": "uint256",
          "name": "_requestID",
          "type": "uint256"
        },
        {
          "internalType": "address",
          "name": "_oracleAddr",
          "type": "address"
        }
      ],
      "name": "getOracleHasSubmittedCommit",
      "outputs": [
        {
          "internalType": "bool",
          "name": "",
          "type": "bool"
        }
      ],
      "stateMutability": "view",
      "type": "function",
      "constant": true
    },
    {
      "inputs": [
        {
          "internalType": "uint256",
          "name": "_requestID",
          "type": "uint256"
        },
        {
          "internalType": "address",
          "name": "_oracleAddr",
          "type": "address"
        }
      ],
      "name": "getOracleHasSubmittedReveal",
      "outputs": [
        {
          "internalType": "bool",
          "name": "",
          "type": "bool"
        }
      ],
      "stateMutability": "view",
      "type": "function",
      "constant": true
    },
    {
      "inputs": [
        {
          "internalType": "uint256",
          "name": "_requestID",
          "type": "uint256"
        }
      ],
      "name": "getCommitFlag",
      "outputs": [
        {
          "internalType": "uint256",
          "name": "",
          "type": "uint256"
        }
      ],
      "stateMutability": "view",
      "type": "function",
      "constant": true
    },
    {
      "inputs": [
        {
          "internalType": "uint256",
          "name": "_requestID",
          "type": "uint256"
        }
      ],
      "name": "getRevealFlag",
      "outputs": [
        {
          "internalType": "uint256",
          "name": "",
          "type": "uint256"
        }
      ],
      "stateMutability": "view",
      "type": "function",
      "constant": true
    },
    {
      "inputs": [
        {
          "internalType": "uint256",
          "name": "_requestID",
          "type": "uint256"
        }
      ],
      "name": "getUnRespondedCommitOracles",
      "outputs": [
        {
          "internalType": "address[]",
          "name": "",
          "type": "address[]"
        }
      ],
      "stateMutability": "nonpayable",
      "type": "function"
    },
    {
      "inputs": [
        {
          "internalType": "uint256",
          "name": "_requestID",
          "type": "uint256"
        }
      ],
      "name": "getUnRespondedRevealOracles",
      "outputs": [
        {
          "internalType": "address[]",
          "name": "",
          "type": "address[]"
        }
      ],
      "stateMutability": "nonpayable",
      "type": "function"
    },
    {
      "inputs": [
        {
          "internalType": "uint256",
          "name": "_requestID",
          "type": "uint256"
        }
      ],
      "name": "forceCommitsPlaced",
      "outputs": [
        {
          "internalType": "bool",
          "name": "",
          "type": "bool"
        }
      ],
      "stateMutability": "nonpayable",
      "type": "function"
    },
    {
      "inputs": [
        {
          "internalType": "uint256",
          "name": "_requestID",
          "type": "uint256"
        },
        {
          "internalType": "uint256",
          "name": "_aggregationType",
          "type": "uint256"
        }
      ],
      "name": "forceRevealsPlaced",
      "outputs": [
        {
          "internalType": "bool",
          "name": "",
          "type": "bool"
        }
      ],
      "stateMutability": "nonpayable",
      "type": "function"
    },
    {
      "inputs": [
        {
          "internalType": "bytes",
          "name": "data",
          "type": "bytes"
        }
      ],
      "name": "decodeBool",
      "outputs": [
        {
          "internalType": "bool",
          "name": "b",
          "type": "bool"
        }
      ],
      "stateMutability": "pure",
      "type": "function",
      "constant": true
    },
    {
      "inputs": [
        {
          "internalType": "bytes",
          "name": "data",
          "type": "bytes"
        }
      ],
      "name": "decodeInt",
      "outputs": [
        {
          "internalType": "int256",
          "name": "i",
          "type": "int256"
        }
      ],
      "stateMutability": "pure",
      "type": "function",
      "constant": true
    }
  ],
  "bytecode": "0x60806040523480156200001157600080fd5b506040516200490038038062004900833981810160405281019062000037919062000129565b336000806101000a81548173ffffffffffffffffffffffffffffffffffffffff021916908373ffffffffffffffffffffffffffffffffffffffff16021790555080600160006101000a81548173ffffffffffffffffffffffffffffffffffffffff021916908373ffffffffffffffffffffffffffffffffffffffff160217905550506200015b565b600080fd5b600073ffffffffffffffffffffffffffffffffffffffff82169050919050565b6000620000f182620000c4565b9050919050565b6200010381620000e4565b81146200010f57600080fd5b50565b6000815190506200012381620000f8565b92915050565b600060208284031215620001425762000141620000bf565b5b6000620001528482850162000112565b91505092915050565b614795806200016b6000396000f3fe608060405234801561001057600080fd5b50600436106101005760003560e01c80638da5cb5b11610097578063c62173d011610066578063c62173d014610327578063c6d9607214610357578063f681ee1114610387578063f76b365e146103b757610100565b80638da5cb5b146102795780639c0daa7c14610297578063b44d5495146102c7578063ba26ed59146102f757610100565b80633015394c116100d35780633015394c146101cd57806335605407146101fd5780634a62715214610219578063582b56561461024957610100565b8063074e324d1461010557806317599cc51461013557806319ff76c01461016d5780632d214d2e1461019d575b600080fd5b61011f600480360381019061011a9190613315565b6103e7565b60405161012c9190613370565b60405180910390f35b61014f600480360381019061014a919061338b565b610a7a565b60405161016499989796959493929190613460565b60405180910390f35b6101876004803603810190610182919061338b565b610b63565b60405161019491906135e4565b60405180910390f35b6101b760048036038101906101b29190613632565b610e71565b6040516101c49190613370565b60405180910390f35b6101e760048036038101906101e2919061338b565b610f3b565b6040516101f49190613370565b60405180910390f35b610217600480360381019061021291906137a7565b610feb565b005b610233600480360381019061022e9190613832565b611a51565b6040516102409190613370565b60405180910390f35b610263600480360381019061025e9190613872565b611b3a565b60405161027091906138d4565b60405180910390f35b610281611b4b565b60405161028e91906138fe565b60405180910390f35b6102b160048036038101906102ac919061338b565b611b6f565b6040516102be9190613919565b60405180910390f35b6102e160048036038101906102dc91906137a7565b611bee565b6040516102ee9190613370565b60405180910390f35b610311600480360381019061030c919061338b565b6123c9565b60405161031e9190613919565b60405180910390f35b610341600480360381019061033c9190613872565b612448565b60405161034e9190613370565b60405180910390f35b610371600480360381019061036c919061338b565b612459565b60405161037e9190613370565b60405180910390f35b6103a1600480360381019061039c919061338b565b612537565b6040516103ae91906135e4565b60405180910390f35b6103d160048036038101906103cc9190613632565b6128ce565b6040516103de9190613370565b60405180910390f35b600082600160009054906101000a900473ffffffffffffffffffffffffffffffffffffffff1673ffffffffffffffffffffffffffffffffffffffff1663a37b354d82336040518363ffffffff1660e01b8152600401610447929190613934565b602060405180830381865afa158015610464573d6000803e3d6000fd5b505050506040513d601f19601f820116820180604052508101906104889190613989565b61049157600080fd5b60001515600282606481106104a9576104a86139b6565b5b6015020160020160003373ffffffffffffffffffffffffffffffffffffffff1673ffffffffffffffffffffffffffffffffffffffff16815260200190815260200160002060009054906101000a900460ff1615151461050757600080fd5b8360006002826064811061051e5761051d6139b6565b5b60150201601101541461053057600080fd5b84600060028260648110610547576105466139b6565b5b60150201601201541461055957600080fd5b7fcebe62229293f3221e09170f6939e08a8a24f881105fbcd32f9413cd2b1d2a4c336040516105889190613a42565b60405180910390a16000600287606481106105a6576105a56139b6565b5b6015020160000154036106e65785600287606481106105c8576105c76139b6565b5b60150201600001819055506000600287606481106105e9576105e86139b6565b5b60150201600f018190555060006002876064811061060a576106096139b6565b5b6015020160100181905550600160009054906101000a900473ffffffffffffffffffffffffffffffffffffffff1673ffffffffffffffffffffffffffffffffffffffff1663c26cc94f876040518263ffffffff1660e01b81526004016106709190613919565b600060405180830381865afa15801561068d573d6000803e3d6000fd5b505050506040513d6000823e3d601f19601f820116820180604052508101906106b69190613b4d565b600287606481106106ca576106c96139b6565b5b6015020160090190805190602001906106e49291906131ee565b505b600160009054906101000a900473ffffffffffffffffffffffffffffffffffffffff1673ffffffffffffffffffffffffffffffffffffffff166391a3632a876040518263ffffffff1660e01b81526004016107419190613919565b602060405180830381865afa15801561075e573d6000803e3d6000fd5b505050506040513d601f19601f820116820180604052508101906107829190613bd2565b63ffffffff166002876064811061079c5761079b6139b6565b5b601502016008015410156109305784600287606481106107bf576107be6139b6565b5b6015020160040160003373ffffffffffffffffffffffffffffffffffffffff1673ffffffffffffffffffffffffffffffffffffffff1681526020019081526020016000208190555060016002876064811061081d5761081c6139b6565b5b6015020160020160003373ffffffffffffffffffffffffffffffffffffffff1673ffffffffffffffffffffffffffffffffffffffff16815260200190815260200160002060006101000a81548160ff021916908315150217905550336002876064811061088d5761088c6139b6565b5b601502016007016000600289606481106108aa576108a96139b6565b5b6015020160080154815260200190815260200160002060006101000a81548173ffffffffffffffffffffffffffffffffffffffff021916908373ffffffffffffffffffffffffffffffffffffffff16021790555060028660648110610912576109116139b6565b5b60150201600801600081548092919061092a90613c2e565b91905055505b600160009054906101000a900473ffffffffffffffffffffffffffffffffffffffff1673ffffffffffffffffffffffffffffffffffffffff166391a3632a876040518263ffffffff1660e01b815260040161098b9190613919565b602060405180830381865afa1580156109a8573d6000803e3d6000fd5b505050506040513d601f19601f820116820180604052508101906109cc9190613bd2565b63ffffffff16600287606481106109e6576109e56139b6565b5b601502016008015403610a6d57600160028760648110610a0957610a086139b6565b5b6015020160120181905550600060028760648110610a2a57610a296139b6565b5b60150201600801819055507f94654b3250060d23222c9a81fdafe2f23accfb1dc46fb56b8e4aa75c0776e0fd86604051610a649190613cc2565b60405180910390a15b6001935050505092915050565b60028160648110610a8a57600080fd5b60150201600091509050806000015490806001018054610aa990613d1f565b80601f0160208091040260200160405190810160405280929190818152602001828054610ad590613d1f565b8015610b225780601f10610af757610100808354040283529160200191610b22565b820191906000526020600020905b815481529060010190602001808311610b0557829003601f168201915b50505050509080600801549080600f0154908060100154908060110154908060120154908060130154908060140160009054906101000a900460ff16905089565b6060600160009054906101000a900473ffffffffffffffffffffffffffffffffffffffff1673ffffffffffffffffffffffffffffffffffffffff163373ffffffffffffffffffffffffffffffffffffffff1614610bbf57600080fd5b60005b600160009054906101000a900473ffffffffffffffffffffffffffffffffffffffff1673ffffffffffffffffffffffffffffffffffffffff166391a3632a846040518263ffffffff1660e01b8152600401610c1d9190613919565b602060405180830381865afa158015610c3a573d6000803e3d6000fd5b505050506040513d601f19601f82011682018060405250810190610c5e9190613bd2565b63ffffffff16811015610dc957600060028460648110610c8157610c806139b6565b5b601502016009018281548110610c9a57610c996139b6565b5b9060005260206000200160009054906101000a900473ffffffffffffffffffffffffffffffffffffffff1690506000151560028560648110610cdf57610cde6139b6565b5b6015020160030160008373ffffffffffffffffffffffffffffffffffffffff1673ffffffffffffffffffffffffffffffffffffffff16815260200190815260200160002060009054906101000a900460ff16151503610db55760028460648110610d4c57610d4b6139b6565b5b60150201600e01819080600181540180825580915050600190039060005260206000200160009091909190916101000a81548173ffffffffffffffffffffffffffffffffffffffff021916908373ffffffffffffffffffffffffffffffffffffffff1602179055505b508080610dc190613c2e565b915050610bc2565b5060028260648110610dde57610ddd6139b6565b5b60150201600e01805480602002602001604051908101604052809291908181526020018280548015610e6557602002820191906000526020600020905b8160009054906101000a900473ffffffffffffffffffffffffffffffffffffffff1673ffffffffffffffffffffffffffffffffffffffff1681526020019060010190808311610e1b575b50505050509050919050565b6000600160009054906101000a900473ffffffffffffffffffffffffffffffffffffffff1673ffffffffffffffffffffffffffffffffffffffff163373ffffffffffffffffffffffffffffffffffffffff1614610ecd57600080fd5b60028360648110610ee157610ee06139b6565b5b6015020160030160008373ffffffffffffffffffffffffffffffffffffffff1673ffffffffffffffffffffffffffffffffffffffff16815260200190815260200160002060009054906101000a900460ff16905092915050565b600081600060028260648110610f5457610f536139b6565b5b601502016011015414610f6657600080fd5b600160009054906101000a900473ffffffffffffffffffffffffffffffffffffffff1673ffffffffffffffffffffffffffffffffffffffff163373ffffffffffffffffffffffffffffffffffffffff1614610fc057600080fd5b600160028460648110610fd657610fd56139b6565b5b60150201601101819055506001915050919050565b82600160009054906101000a900473ffffffffffffffffffffffffffffffffffffffff1673ffffffffffffffffffffffffffffffffffffffff1663a37b354d82336040518363ffffffff1660e01b8152600401611049929190613934565b602060405180830381865afa158015611066573d6000803e3d6000fd5b505050506040513d601f19601f8201168201806040525081019061108a9190613989565b61109357600080fd5b60001515600282606481106110ab576110aa6139b6565b5b6015020160030160003373ffffffffffffffffffffffffffffffffffffffff1673ffffffffffffffffffffffffffffffffffffffff16815260200190815260200160002060009054906101000a900460ff1615151461110957600080fd5b836000600282606481106111205761111f6139b6565b5b60150201601101541461113257600080fd5b84600160028260648110611149576111486139b6565b5b60150201601201541461115b57600080fd5b85600060028260648110611172576111716139b6565b5b60150201601301541461118457600080fd5b8660018060009054906101000a900473ffffffffffffffffffffffffffffffffffffffff1673ffffffffffffffffffffffffffffffffffffffff1663e4888222836040518263ffffffff1660e01b81526004016111e19190613919565b602060405180830381865afa1580156111fe573d6000803e3d6000fd5b505050506040513d601f19601f820116820180604052508101906112229190613d65565b1461122c57600080fd5b60008688604051602001611241929190613dce565b6040516020818303038152906040528051906020012090507f1034809265ff4258719a9aebc8a98d3ae11c847f3db81864425e812fd387c18860028a6064811061128e5761128d6139b6565b5b6015020160040160003373ffffffffffffffffffffffffffffffffffffffff1673ffffffffffffffffffffffffffffffffffffffff16815260200190815260200160002054826040516112e2929190613e01565b60405180910390a160006112f589612448565b90507fc33356bc2bad2ce263b056da5d061d4e89c336823d5e77f14c1383aedb7a1b3a816040516113269190613370565b60405180910390a18160028b60648110611343576113426139b6565b5b6015020160040160003373ffffffffffffffffffffffffffffffffffffffff1673ffffffffffffffffffffffffffffffffffffffff1681526020019081526020016000205403611524578060028b606481106113a2576113a16139b6565b5b6015020160050160003373ffffffffffffffffffffffffffffffffffffffff1673ffffffffffffffffffffffffffffffffffffffff16815260200190815260200160002060006101000a81548160ff021916908315150217905550600160028b60648110611413576114126139b6565b5b6015020160030160003373ffffffffffffffffffffffffffffffffffffffff1673ffffffffffffffffffffffffffffffffffffffff16815260200190815260200160002060006101000a81548160ff02191690831515021790555060028a60648110611482576114816139b6565b5b60150201600a01339080600181540180825580915050600190039060005260206000200160009091909190916101000a81548173ffffffffffffffffffffffffffffffffffffffff021916908373ffffffffffffffffffffffffffffffffffffffff1602179055507fb1ed47ced4562a888b3c47e728f82f7863e472cad724018fe1585bc6853ec82d60405161151790613e76565b60405180910390a1611647565b7fb1ed47ced4562a888b3c47e728f82f7863e472cad724018fe1585bc6853ec82d60405161155190613ee2565b60405180910390a160028a6064811061156d5761156c6139b6565b5b60150201600b01339080600181540180825580915050600190039060005260206000200160009091909190916101000a81548173ffffffffffffffffffffffffffffffffffffffff021916908373ffffffffffffffffffffffffffffffffffffffff160217905550600160028b606481106115eb576115ea6139b6565b5b6015020160030160003373ffffffffffffffffffffffffffffffffffffffff1673ffffffffffffffffffffffffffffffffffffffff16815260200190815260200160002060006101000a81548160ff0219169083151502179055505b7f9dc8a8cab78f19e344d97e9a17a1655efc8d43e96b22a82d74f8199c70d142eb600160009054906101000a900473ffffffffffffffffffffffffffffffffffffffff1673ffffffffffffffffffffffffffffffffffffffff166391a3632a8c6040518263ffffffff1660e01b81526004016116c39190613919565b602060405180830381865afa1580156116e0573d6000803e3d6000fd5b505050506040513d601f19601f820116820180604052508101906117049190613bd2565b6040516117119190613f89565b60405180910390a17f9dc8a8cab78f19e344d97e9a17a1655efc8d43e96b22a82d74f8199c70d142eb600160009054906101000a900473ffffffffffffffffffffffffffffffffffffffff1673ffffffffffffffffffffffffffffffffffffffff16631c6fd0fc8c6040518263ffffffff1660e01b81526004016117959190613919565b602060405180830381865afa1580156117b2573d6000803e3d6000fd5b505050506040513d601f19601f820116820180604052508101906117d69190613bd2565b6040516117e39190614003565b60405180910390a17f9dc8a8cab78f19e344d97e9a17a1655efc8d43e96b22a82d74f8199c70d142eb60028b606481106118205761181f6139b6565b5b6015020160080154604051611835919061407d565b60405180910390a160018060009054906101000a900473ffffffffffffffffffffffffffffffffffffffff1673ffffffffffffffffffffffffffffffffffffffff16631c6fd0fc8c6040518263ffffffff1660e01b81526004016118999190613919565b602060405180830381865afa1580156118b6573d6000803e3d6000fd5b505050506040513d601f19601f820116820180604052508101906118da9190613bd2565b600160009054906101000a900473ffffffffffffffffffffffffffffffffffffffff1673ffffffffffffffffffffffffffffffffffffffff166391a3632a8d6040518263ffffffff1660e01b81526004016119359190613919565b602060405180830381865afa158015611952573d6000803e3d6000fd5b505050506040513d601f19601f820116820180604052508101906119769190613bd2565b61198091906140ab565b61198a91906140ab565b63ffffffff1660028b606481106119a4576119a36139b6565b5b601502016008015403611a14577fcd9014e59ca398764ef85e5719d2151f53668c6d08f5ea98e064a65a6cccf06e8a6040516119e0919061412b565b60405180910390a1600160028b606481106119fe576119fd6139b6565b5b6015020160130181905550611a128a612998565b505b60028a60648110611a2857611a276139b6565b5b601502016008016000815480929190611a4090613c2e565b919050555050505050505050505050565b6000600160009054906101000a900473ffffffffffffffffffffffffffffffffffffffff1673ffffffffffffffffffffffffffffffffffffffff163373ffffffffffffffffffffffffffffffffffffffff1614611aad57600080fd5b600160028460648110611ac357611ac26139b6565b5b60150201601301819055507fcd9014e59ca398764ef85e5719d2151f53668c6d08f5ea98e064a65a6cccf06e83604051611afd91906141a5565b60405180910390a160018203611b1c57611b1683612998565b50611b30565b60028203611b2f57611b2d83612fa0565b505b5b6001905092915050565b600081516020830151915050919050565b60008054906101000a900473ffffffffffffffffffffffffffffffffffffffff1681565b6000600160009054906101000a900473ffffffffffffffffffffffffffffffffffffffff1673ffffffffffffffffffffffffffffffffffffffff163373ffffffffffffffffffffffffffffffffffffffff1614611bcb57600080fd5b60028260648110611bdf57611bde6139b6565b5b60150201601201549050919050565b600083600160009054906101000a900473ffffffffffffffffffffffffffffffffffffffff1673ffffffffffffffffffffffffffffffffffffffff1663a37b354d82336040518363ffffffff1660e01b8152600401611c4e929190613934565b602060405180830381865afa158015611c6b573d6000803e3d6000fd5b505050506040513d601f19601f82011682018060405250810190611c8f9190613989565b611c9857600080fd5b6000151560028260648110611cb057611caf6139b6565b5b6015020160030160003373ffffffffffffffffffffffffffffffffffffffff1673ffffffffffffffffffffffffffffffffffffffff16815260200190815260200160002060009054906101000a900460ff16151514611d0e57600080fd5b84600060028260648110611d2557611d246139b6565b5b601502016011015414611d3757600080fd5b85600160028260648110611d4e57611d4d6139b6565b5b601502016012015414611d6057600080fd5b86600060028260648110611d7757611d766139b6565b5b601502016013015414611d8957600080fd5b876002600160009054906101000a900473ffffffffffffffffffffffffffffffffffffffff1673ffffffffffffffffffffffffffffffffffffffff1663e4888222836040518263ffffffff1660e01b8152600401611de79190613919565b602060405180830381865afa158015611e04573d6000803e3d6000fd5b505050506040513d601f19601f82011682018060405250810190611e289190613d65565b14611e3257600080fd5b6000611e3d89611b3a565b90506000888a604051602001611e54929190613dce565b6040516020818303038152906040528051906020012090507f1034809265ff4258719a9aebc8a98d3ae11c847f3db81864425e812fd387c18860028c60648110611ea157611ea06139b6565b5b6015020160040160003373ffffffffffffffffffffffffffffffffffffffff1673ffffffffffffffffffffffffffffffffffffffff1681526020019081526020016000205482604051611ef5929190613e01565b60405180910390a17f1aa4309bfd99af8afa7454590e1bdaa5a9b3b63e5baa109ae9afa3ecd0c67f3982604051611f2c91906138d4565b60405180910390a18060028c60648110611f4957611f486139b6565b5b6015020160040160003373ffffffffffffffffffffffffffffffffffffffff1673ffffffffffffffffffffffffffffffffffffffff16815260200190815260200160002054036120e2578160028c60648110611fa857611fa76139b6565b5b6015020160060160003373ffffffffffffffffffffffffffffffffffffffff1673ffffffffffffffffffffffffffffffffffffffff16815260200190815260200160002081905550600160028c60648110612006576120056139b6565b5b6015020160030160003373ffffffffffffffffffffffffffffffffffffffff1673ffffffffffffffffffffffffffffffffffffffff16815260200190815260200160002060006101000a81548160ff02191690831515021790555060028b60648110612075576120746139b6565b5b60150201600a01339080600181540180825580915050600190039060005260206000200160009091909190916101000a81548173ffffffffffffffffffffffffffffffffffffffff021916908373ffffffffffffffffffffffffffffffffffffffff1602179055506121d0565b60028b606481106120f6576120f56139b6565b5b60150201600b01339080600181540180825580915050600190039060005260206000200160009091909190916101000a81548173ffffffffffffffffffffffffffffffffffffffff021916908373ffffffffffffffffffffffffffffffffffffffff160217905550600160028c60648110612174576121736139b6565b5b6015020160030160003373ffffffffffffffffffffffffffffffffffffffff1673ffffffffffffffffffffffffffffffffffffffff16815260200190815260200160002060006101000a81548160ff0219169083151502179055505b60018060009054906101000a900473ffffffffffffffffffffffffffffffffffffffff1673ffffffffffffffffffffffffffffffffffffffff16631c6fd0fc8d6040518263ffffffff1660e01b815260040161222c9190613919565b602060405180830381865afa158015612249573d6000803e3d6000fd5b505050506040513d601f19601f8201168201806040525081019061226d9190613bd2565b600160009054906101000a900473ffffffffffffffffffffffffffffffffffffffff1673ffffffffffffffffffffffffffffffffffffffff166391a3632a8e6040518263ffffffff1660e01b81526004016122c89190613919565b602060405180830381865afa1580156122e5573d6000803e3d6000fd5b505050506040513d601f19601f820116820180604052508101906123099190613bd2565b61231391906140ab565b61231d91906140ab565b63ffffffff1660028c60648110612337576123366139b6565b5b601502016008015403612386577fcd9014e59ca398764ef85e5719d2151f53668c6d08f5ea98e064a65a6cccf06e8b604051612373919061412b565b60405180910390a16123848b612fa0565b505b60028b6064811061239a576123996139b6565b5b6015020160080160008154809291906123b290613c2e565b919050555060019750505050505050509392505050565b6000600160009054906101000a900473ffffffffffffffffffffffffffffffffffffffff1673ffffffffffffffffffffffffffffffffffffffff163373ffffffffffffffffffffffffffffffffffffffff161461242557600080fd5b60028260648110612439576124386139b6565b5b60150201601301549050919050565b600081516020830151915050919050565b6000600160009054906101000a900473ffffffffffffffffffffffffffffffffffffffff1673ffffffffffffffffffffffffffffffffffffffff163373ffffffffffffffffffffffffffffffffffffffff16146124b557600080fd5b6001600283606481106124cb576124ca6139b6565b5b60150201601201819055506000600283606481106124ec576124eb6139b6565b5b60150201600801819055507f94654b3250060d23222c9a81fdafe2f23accfb1dc46fb56b8e4aa75c0776e0fd82604051612526919061421f565b60405180910390a160019050919050565b6060600160009054906101000a900473ffffffffffffffffffffffffffffffffffffffff1673ffffffffffffffffffffffffffffffffffffffff163373ffffffffffffffffffffffffffffffffffffffff161461259357600080fd5b7f9dc8a8cab78f19e344d97e9a17a1655efc8d43e96b22a82d74f8199c70d142eb600283606481106125c8576125c76139b6565b5b60150201600801546040516125dd9190614299565b60405180910390a160005b600160009054906101000a900473ffffffffffffffffffffffffffffffffffffffff1673ffffffffffffffffffffffffffffffffffffffff166391a3632a846040518263ffffffff1660e01b81526004016126439190613919565b602060405180830381865afa158015612660573d6000803e3d6000fd5b505050506040513d601f19601f820116820180604052508101906126849190613bd2565b63ffffffff16811015612826576000600284606481106126a7576126a66139b6565b5b6015020160090182815481106126c0576126bf6139b6565b5b9060005260206000200160009054906101000a900473ffffffffffffffffffffffffffffffffffffffff1690506000151560028560648110612705576127046139b6565b5b6015020160020160008373ffffffffffffffffffffffffffffffffffffffff1673ffffffffffffffffffffffffffffffffffffffff16815260200190815260200160002060009054906101000a900460ff16151503612812577f530a3977f28343b356cd4d1f0b8b03c9b0bb4968bdf81b0f1d85ced49176e97b8160405161278d9190614339565b60405180910390a1600284606481106127a9576127a86139b6565b5b60150201600e01819080600181540180825580915050600190039060005260206000200160009091909190916101000a81548173ffffffffffffffffffffffffffffffffffffffff021916908373ffffffffffffffffffffffffffffffffffffffff1602179055505b50808061281e90613c2e565b9150506125e8565b506002826064811061283b5761283a6139b6565b5b60150201600e018054806020026020016040519081016040528092919081815260200182805480156128c257602002820191906000526020600020905b8160009054906101000a900473ffffffffffffffffffffffffffffffffffffffff1673ffffffffffffffffffffffffffffffffffffffff1681526020019060010190808311612878575b50505050509050919050565b6000600160009054906101000a900473ffffffffffffffffffffffffffffffffffffffff1673ffffffffffffffffffffffffffffffffffffffff163373ffffffffffffffffffffffffffffffffffffffff161461292a57600080fd5b6002836064811061293e5761293d6139b6565b5b6015020160020160008373ffffffffffffffffffffffffffffffffffffffff1673ffffffffffffffffffffffffffffffffffffffff16815260200190815260200160002060009054906101000a900460ff16905092915050565b600080600080600090505b600285606481106129b7576129b66139b6565b5b60150201600a0180549050811015612c0757600285606481106129dd576129dc6139b6565b5b60150201600a0181815481106129f6576129f56139b6565b5b9060005260206000200160009054906101000a900473ffffffffffffffffffffffffffffffffffffffff1691506001151560028660648110612a3b57612a3a6139b6565b5b6015020160050160008473ffffffffffffffffffffffffffffffffffffffff1673ffffffffffffffffffffffffffffffffffffffff16815260200190815260200160002060009054906101000a900460ff16151503612b465760028560648110612aa857612aa76139b6565b5b60150201600c01829080600181540180825580915050600190039060005260206000200160009091909190916101000a81548173ffffffffffffffffffffffffffffffffffffffff021916908373ffffffffffffffffffffffffffffffffffffffff16021790555060028560648110612b2457612b236139b6565b5b60150201600f016000815480929190612b3c90613c2e565b9190505550612bf4565b60028560648110612b5a57612b596139b6565b5b60150201600d01829080600181540180825580915050600190039060005260206000200160009091909190916101000a81548173ffffffffffffffffffffffffffffffffffffffff021916908373ffffffffffffffffffffffffffffffffffffffff16021790555060028560648110612bd657612bd56139b6565b5b601502016010016000815480929190612bee90613c2e565b91905055505b8080612bff90613c2e565b9150506129a3565b5060028460648110612c1c57612c1b6139b6565b5b601502016010015460028560648110612c3857612c376139b6565b5b60150201600f01541115612d445760019150600160009054906101000a900473ffffffffffffffffffffffffffffffffffffffff1673ffffffffffffffffffffffffffffffffffffffff166330407ad9858460028860648110612c9e57612c9d6139b6565b5b60150201600c0160028960648110612cb957612cb86139b6565b5b60150201600d0160028a60648110612cd457612cd36139b6565b5b60150201600b016040518663ffffffff1660e01b8152600401612cfb959493929190614453565b6020604051808303816000875af1158015612d1a573d6000803e3d6000fd5b505050506040513d601f19601f82011682018060405250810190612d3e9190613989565b50612f5e565b60028460648110612d5857612d576139b6565b5b60150201600f015460028560648110612d7457612d736139b6565b5b60150201601001541115612e805760009150600160009054906101000a900473ffffffffffffffffffffffffffffffffffffffff1673ffffffffffffffffffffffffffffffffffffffff166330407ad9858460028860648110612dda57612dd96139b6565b5b60150201600d0160028960648110612df557612df46139b6565b5b60150201600c0160028a60648110612e1057612e0f6139b6565b5b60150201600b016040518663ffffffff1660e01b8152600401612e37959493929190614453565b6020604051808303816000875af1158015612e56573d6000803e3d6000fd5b505050506040513d601f19601f82011682018060405250810190612e7a9190613989565b50612f5d565b600160009054906101000a900473ffffffffffffffffffffffffffffffffffffffff1673ffffffffffffffffffffffffffffffffffffffff1663498d7df08560028760648110612ed357612ed26139b6565b5b60150201600b016040518363ffffffff1660e01b8152600401612ef79291906144bb565b6020604051808303816000875af1158015612f16573d6000803e3d6000fd5b505050506040513d601f19601f82011682018060405250810190612f3a9190613989565b50600160028560648110612f5157612f506139b6565b5b60150201601101819055505b5b7fab982296b91a9b70c6739c96524c481cf0a1714be617e9bb39538f46ad5c880084604051612f8d9190614537565b60405180910390a1600192505050919050565b60008060008080600090505b60028660648110612fc057612fbf6139b6565b5b60150201600a01805490508110156130a55760028660648110612fe657612fe56139b6565b5b60150201600a018181548110612fff57612ffe6139b6565b5b9060005260206000200160009054906101000a900473ffffffffffffffffffffffffffffffffffffffff169350600286606481106130405761303f6139b6565b5b6015020160060160008573ffffffffffffffffffffffffffffffffffffffff1673ffffffffffffffffffffffffffffffffffffffff16815260200190815260200160002054836130909190614565565b9250808061309d90613c2e565b915050612fac565b50600285606481106130ba576130b96139b6565b5b60150201600a0180549050826130d09190614628565b9050600160009054906101000a900473ffffffffffffffffffffffffffffffffffffffff1673ffffffffffffffffffffffffffffffffffffffff166358621b7a868360028960648110613126576131256139b6565b5b60150201600a0160028a60648110613141576131406139b6565b5b60150201600b016040518563ffffffff1660e01b81526004016131679493929190614692565b6020604051808303816000875af1158015613186573d6000803e3d6000fd5b505050506040513d601f19601f820116820180604052508101906131aa9190613989565b507fab982296b91a9b70c6739c96524c481cf0a1714be617e9bb39538f46ad5c8800856040516131da9190614731565b60405180910390a160019350505050919050565b828054828255906000526020600020908101928215613267579160200282015b828111156132665782518260006101000a81548173ffffffffffffffffffffffffffffffffffffffff021916908373ffffffffffffffffffffffffffffffffffffffff1602179055509160200191906001019061320e565b5b5090506132749190613278565b5090565b5b80821115613291576000816000905550600101613279565b5090565b6000604051905090565b600080fd5b600080fd5b6000819050919050565b6132bc816132a9565b81146132c757600080fd5b50565b6000813590506132d9816132b3565b92915050565b6000819050919050565b6132f2816132df565b81146132fd57600080fd5b50565b60008135905061330f816132e9565b92915050565b6000806040838503121561332c5761332b61329f565b5b600061333a858286016132ca565b925050602061334b85828601613300565b9150509250929050565b60008115159050919050565b61336a81613355565b82525050565b60006020820190506133856000830184613361565b92915050565b6000602082840312156133a1576133a061329f565b5b60006133af848285016132ca565b91505092915050565b6133c1816132a9565b82525050565b600081519050919050565b600082825260208201905092915050565b60005b838110156134015780820151818401526020810190506133e6565b83811115613410576000848401525b50505050565b6000601f19601f8301169050919050565b6000613432826133c7565b61343c81856133d2565b935061344c8185602086016133e3565b61345581613416565b840191505092915050565b600061012082019050613476600083018c6133b8565b8181036020830152613488818b613427565b9050613497604083018a6133b8565b6134a460608301896133b8565b6134b160808301886133b8565b6134be60a08301876133b8565b6134cb60c08301866133b8565b6134d860e08301856133b8565b6134e6610100830184613361565b9a9950505050505050505050565b600081519050919050565b600082825260208201905092915050565b6000819050602082019050919050565b600073ffffffffffffffffffffffffffffffffffffffff82169050919050565b600061354b82613520565b9050919050565b61355b81613540565b82525050565b600061356d8383613552565b60208301905092915050565b6000602082019050919050565b6000613591826134f4565b61359b81856134ff565b93506135a683613510565b8060005b838110156135d75781516135be8882613561565b97506135c983613579565b9250506001810190506135aa565b5085935050505092915050565b600060208201905081810360008301526135fe8184613586565b905092915050565b61360f81613540565b811461361a57600080fd5b50565b60008135905061362c81613606565b92915050565b600080604083850312156136495761364861329f565b5b6000613657858286016132ca565b92505060206136688582860161361d565b9150509250929050565b600080fd5b600080fd5b7f4e487b7100000000000000000000000000000000000000000000000000000000600052604160045260246000fd5b6136b482613416565b810181811067ffffffffffffffff821117156136d3576136d261367c565b5b80604052505050565b60006136e6613295565b90506136f282826136ab565b919050565b600067ffffffffffffffff8211156137125761371161367c565b5b61371b82613416565b9050602081019050919050565b82818337600083830152505050565b600061374a613745846136f7565b6136dc565b90508281526020810184848401111561376657613765613677565b5b613771848285613728565b509392505050565b600082601f83011261378e5761378d613672565b5b813561379e848260208601613737565b91505092915050565b6000806000606084860312156137c0576137bf61329f565b5b60006137ce868287016132ca565b935050602084013567ffffffffffffffff8111156137ef576137ee6132a4565b5b6137fb86828701613779565b925050604084013567ffffffffffffffff81111561381c5761381b6132a4565b5b61382886828701613779565b9150509250925092565b600080604083850312156138495761384861329f565b5b6000613857858286016132ca565b9250506020613868858286016132ca565b9150509250929050565b6000602082840312156138885761388761329f565b5b600082013567ffffffffffffffff8111156138a6576138a56132a4565b5b6138b284828501613779565b91505092915050565b6000819050919050565b6138ce816138bb565b82525050565b60006020820190506138e960008301846138c5565b92915050565b6138f881613540565b82525050565b600060208201905061391360008301846138ef565b92915050565b600060208201905061392e60008301846133b8565b92915050565b600060408201905061394960008301856133b8565b61395660208301846138ef565b9392505050565b61396681613355565b811461397157600080fd5b50565b6000815190506139838161395d565b92915050565b60006020828403121561399f5761399e61329f565b5b60006139ad84828501613974565b91505092915050565b7f4e487b7100000000000000000000000000000000000000000000000000000000600052603260045260246000fd5b600082825260208201905092915050565b7f4e6f646520706c61636564206120636f6d6d6974000000000000000000000000600082015250565b6000613a2c6014836139e5565b9150613a37826139f6565b602082019050919050565b6000604082019050613a5760008301846138ef565b8181036020830152613a6881613a1f565b905092915050565b600067ffffffffffffffff821115613a8b57613a8a61367c565b5b602082029050602081019050919050565b600080fd5b600081519050613ab081613606565b92915050565b6000613ac9613ac484613a70565b6136dc565b90508083825260208201905060208402830185811115613aec57613aeb613a9c565b5b835b81811015613b155780613b018882613aa1565b845260208401935050602081019050613aee565b5050509392505050565b600082601f830112613b3457613b33613672565b5b8151613b44848260208601613ab6565b91505092915050565b600060208284031215613b6357613b6261329f565b5b600082015167ffffffffffffffff811115613b8157613b806132a4565b5b613b8d84828501613b1f565b91505092915050565b600063ffffffff82169050919050565b613baf81613b96565b8114613bba57600080fd5b50565b600081519050613bcc81613ba6565b92915050565b600060208284031215613be857613be761329f565b5b6000613bf684828501613bbd565b91505092915050565b7f4e487b7100000000000000000000000000000000000000000000000000000000600052601160045260246000fd5b6000613c39826132a9565b91507fffffffffffffffffffffffffffffffffffffffffffffffffffffffffffffffff8203613c6b57613c6a613bff565b5b600182019050919050565b7f636f6d6d6974732061726520706c616365640000000000000000000000000000600082015250565b6000613cac6012836139e5565b9150613cb782613c76565b602082019050919050565b6000604082019050613cd760008301846133b8565b8181036020830152613ce881613c9f565b905092915050565b7f4e487b7100000000000000000000000000000000000000000000000000000000600052602260045260246000fd5b60006002820490506001821680613d3757607f821691505b602082108103613d4a57613d49613cf0565b5b50919050565b600081519050613d5f816132b3565b92915050565b600060208284031215613d7b57613d7a61329f565b5b6000613d8984828501613d50565b91505092915050565b600081905092915050565b6000613da8826133c7565b613db28185613d92565b9350613dc28185602086016133e3565b80840191505092915050565b6000613dda8285613d9d565b9150613de68284613d9d565b91508190509392505050565b613dfb816132df565b82525050565b6000604082019050613e166000830185613df2565b613e236020830184613df2565b9392505050565b7f77652061726520696e2074686520666972737420696620626c6f636b00000000600082015250565b6000613e60601c836139e5565b9150613e6b82613e2a565b602082019050919050565b60006020820190508181036000830152613e8f81613e53565b9050919050565b7f57652061726520696e2074686520656c736520626c6f636b0000000000000000600082015250565b6000613ecc6018836139e5565b9150613ed782613e96565b602082019050919050565b60006020820190508181036000830152613efb81613ebf565b9050919050565b6000819050919050565b6000613f27613f22613f1d84613b96565b613f02565b6132a9565b9050919050565b613f3781613f0c565b82525050565b7f6e756d626572206f66206f7261636c6573000000000000000000000000000000600082015250565b6000613f736011836139e5565b9150613f7e82613f3d565b602082019050919050565b6000604082019050613f9e6000830184613f2e565b8181036020830152613faf81613f66565b905092915050565b7f6e756d626572206f662074696d6564206f7574206f7261636c65730000000000600082015250565b6000613fed601b836139e5565b9150613ff882613fb7565b602082019050919050565b60006040820190506140186000830184613f2e565b818103602083015261402981613fe0565b905092915050565b7f6f7261636c6520636f756e746572000000000000000000000000000000000000600082015250565b6000614067600e836139e5565b915061407282614031565b602082019050919050565b600060408201905061409260008301846133b8565b81810360208301526140a38161405a565b905092915050565b60006140b682613b96565b91506140c183613b96565b9250828210156140d4576140d3613bff565b5b828203905092915050565b7f416c6c2072657665616c732068617665206265656e20706c6163656400000000600082015250565b6000614115601c836139e5565b9150614120826140df565b602082019050919050565b600060408201905061414060008301846133b8565b818103602083015261415181614108565b905092915050565b7f466f7263652072657665616c732068617665206265656e20706c616365640000600082015250565b600061418f601e836139e5565b915061419a82614159565b602082019050919050565b60006040820190506141ba60008301846133b8565b81810360208301526141cb81614182565b905092915050565b7f466f72636520636f6d6d6974732061726520706c616365640000000000000000600082015250565b60006142096018836139e5565b9150614214826141d3565b602082019050919050565b600060408201905061423460008301846133b8565b8181036020830152614245816141fc565b905092915050565b7f6c656e20696e20756e2d726573706f6e642063616c6c00000000000000000000600082015250565b60006142836016836139e5565b915061428e8261424d565b602082019050919050565b60006040820190506142ae60008301846133b8565b81810360208301526142bf81614276565b905092915050565b7f61646472657373206f6620756e2d726573706f6e646564206f7261636c65206e60008201527f6f64650000000000000000000000000000000000000000000000000000000000602082015250565b60006143236023836139e5565b915061432e826142c7565b604082019050919050565b600060408201905061434e60008301846138ef565b818103602083015261435f81614316565b905092915050565b600081549050919050565b60008190508160005260206000209050919050565b60008160001c9050919050565b600073ffffffffffffffffffffffffffffffffffffffff82169050919050565b60006143c76143c283614387565b614394565b9050919050565b60006143da82546143b4565b9050919050565b6000600182019050919050565b60006143f982614367565b61440381856134ff565b935061440e83614372565b8060005b8381101561444657614423826143ce565b61442d8882613561565b9750614438836143e1565b925050600181019050614412565b5085935050505092915050565b600060a08201905061446860008301886133b8565b6144756020830187613361565b818103604083015261448781866143ee565b9050818103606083015261449b81856143ee565b905081810360808301526144af81846143ee565b90509695505050505050565b60006040820190506144d060008301856133b8565b81810360208301526144e281846143ee565b90509392505050565b7f566f7465204167677265676174696f6e20436f6d706c65746500000000000000600082015250565b60006145216019836139e5565b915061452c826144eb565b602082019050919050565b600060408201905061454c60008301846133b8565b818103602083015261455d81614514565b905092915050565b6000614570826138bb565b915061457b836138bb565b9250817f7fffffffffffffffffffffffffffffffffffffffffffffffffffffffffffffff038313600083121516156145b6576145b5613bff565b5b817f80000000000000000000000000000000000000000000000000000000000000000383126000831216156145ee576145ed613bff565b5b828201905092915050565b7f4e487b7100000000000000000000000000000000000000000000000000000000600052601260045260246000fd5b6000614633826138bb565b915061463e836138bb565b92508261464e5761464d6145f9565b5b600160000383147f80000000000000000000000000000000000000000000000000000000000000008314161561468757614686613bff565b5b828205905092915050565b60006080820190506146a760008301876133b8565b6146b460208301866138c5565b81810360408301526146c681856143ee565b905081810360608301526146da81846143ee565b905095945050505050565b7f41766572616765204167677265676174696f6e20436f6d706c65746500000000600082015250565b600061471b601c836139e5565b9150614726826146e5565b602082019050919050565b600060408201905061474660008301846133b8565b81810360208301526147578161470e565b90509291505056fea2646970667358221220b8d2d6e8bcb3769f9cb4b72239a61051b9bc0c699e3f15c9043b8962a02bd68864736f6c634300080f0033",
  "immutableReferences": {},
  "source": "// SPDX-License-Identifier: MIT\npragma solidity ^0.8.0;\n\nimport \"./OracleRequestContract.sol\";\n\ncontract AggregatorContract {\n    address public owner; // owner of contract\n    OracleRequestContract orc; // instance of ORC contract\n    Answer[100] public answers; // array of 100 Answer structs to keep track of answers\n    struct Answer {\n        //bytes test;\n        uint256 requestID; // the request ID\n        bytes dataType; // data type of request 'bool' 'temp' etc\n        mapping (address => bool) oracleHasSubmittedCommit; // authorised oracles, marked true when committed\n        mapping(address => bool) oracleHasSubmittedReveal; // authorised oracles, marked true when revealed\n        mapping (address => bytes32) oracleCommits; // add their result to a map with their address as index\n        mapping (address => bool) oracleVoteReveals; // adds oracle answers to addresses\n        mapping (address => int256) oracleAverageReveals; // adds oracle answers to addresses\n        mapping (uint256 => address) oracleAddresses; // uint to address to match counter and iterate through\n        uint256 oracleCounter; // keep an index of the oracles\n        address[] oracleList;\n        address[] correctRevealOracles; // dynamic array to keep track of correct oracle address to be passed to ORC\n        address[] incorrectRevealOracles; // dynamic array to keep track of incorrect oracle address to be penalised\n        address[] trueOracleResults; // oracles that answer true\n        address[] falseOracleResults; // oracles that answer false\n        address[] unRespondedOracles;\n        uint t; // a true counter;\n        uint f; // a false counter: we need this under (n-1)/3\n        uint cancelFlag; // cancelFlag == 0, == 1 if canceled\n        uint commitsFlag; // 0 = needing commits still 1 = commits are complete\n        uint revealsFlag; // 0 = needing reveals still 1 = reveals are complete\n        bool lastOracle; // last oracle\n    }\n\n    event AggregationCompleted(uint256, string); // emits logs once the aggregation is complete\n    event LogHashes(bytes32, bytes32); // emits logs of hashes\n    event CommitsPlaced(uint, string); // emits a commits placed event\n    event RevealsPlaced(uint, string); // emits reveals placed event\n    event Logging(string);\n    event LogBool(bool);\n    event LogInt(int256);\n    event AddressLogging(address, string);\n    event LogNumOr(uint, string);\n    event PrintAddress(address, string);\n\n\n    // @notice constructor called when deployed\n    constructor(address _addr)\n    {\n        owner = msg.sender; // set deploying address as owner\n        orc = OracleRequestContract(_addr); // initialise the Oracle Request Contract contract\n    }\n    // @notice commitResponse oracles first commit a hash of their answer and a random string\n    function commitResponse(uint256 _requestID, bytes32 _commitHash )\n    public\n    onlyAuthorisedOraclesYetToCommit(_requestID)\n    cancelFlagCheck(_requestID)\n    commitFlagCheck(_requestID)\n    returns(bool)\n    {\n        emit AddressLogging(msg.sender, \"Node placed a commit\");\n        if (answers[_requestID].requestID == 0) {\n            answers[_requestID].requestID = _requestID; // assign correct id\n            answers[_requestID].t = 0;\n            answers[_requestID].f = 0;\n            answers[_requestID].oracleList = orc.getOracleAddresses(_requestID);\n        }\n        if (answers[_requestID].oracleCounter < orc.getNumberOfOracles(_requestID)) {\n            answers[_requestID].oracleCommits[msg.sender] = _commitHash; // oracle nodes add commit to map\n            answers[_requestID].oracleHasSubmittedCommit[msg.sender] = true; // it has now submitted.\n            answers[_requestID].oracleAddresses[answers[_requestID].oracleCounter] = msg.sender; // map counter to oracle addr\n            answers[_requestID].oracleCounter++; // once this is equal we know to enter next if statement\n        }\n        if (answers[_requestID].oracleCounter == orc.getNumberOfOracles(_requestID)) {\n            answers[_requestID].commitsFlag = 1;\n            answers[_requestID].oracleCounter = 0;\n            emit CommitsPlaced(_requestID, \"commits are placed\");\n        }\n        return true;\n    }\n    // @notice called by oracle node once all commits are in and a response with the result and secret is given to check against commit\n    // @param _requestID\n    // @param _result, the answer that was fetch by IoT\n    // @param _secret, the string that was hashed with the IoT result in the commit\n    function revealVoteResponse(uint256 _requestID, bytes memory _result, bytes memory _secret)\n    public\n    onlyAuthorisedOraclesYetToReveal(_requestID) // only oracles yet to reveal\n    cancelFlagCheck(_requestID) // make sure cancel flag = 0\n    commitCompleteFlagCheck(_requestID) // checks all commits are in and flag is equal to 1\n    revealsFlagCheck(_requestID) // checks that reveal flag is 0 otherwise function will not run\n    onlyVoteAggregationType(_requestID) // makes sure only vote responses are received\n    {\n\n\n        // need to check the hash of the _result and _secret against answers[_requestID].oracleCommits[msg.sender]\n        bytes32 revealHash =  keccak256(abi.encodePacked(_secret, _result));// hash of _result and _secret\n        emit LogHashes(answers[_requestID].oracleCommits[msg.sender], revealHash);\n        bool decodedResult = decodeBool(_result);\n        emit LogBool(decodedResult);\n        if (answers[_requestID].oracleCommits[msg.sender] == revealHash) {\n\n            answers[_requestID].oracleVoteReveals[msg.sender] = decodedResult; // add oracles answer to reveals\n            answers[_requestID].oracleHasSubmittedReveal[msg.sender] = true; // has submitted so can only vote once\n            answers[_requestID].correctRevealOracles.push(msg.sender); // adds to the correct reveals for aggregation\n            emit Logging(\"we are in the first if block\");\n\n        } else {\n            emit Logging(\"We are in the else block\");\n            answers[_requestID].incorrectRevealOracles.push(msg.sender); // an incorrect match of commit and reveal hashes\n            answers[_requestID].oracleHasSubmittedReveal[msg.sender] = true; // has submitted so can only vote once\n        }\n        emit LogNumOr(orc.getNumberOfOracles(_requestID), \"number of oracles\");\n        emit LogNumOr(orc.getTimeoutOracleLength(_requestID), \"number of timed out oracles\");\n        emit LogNumOr(answers[_requestID].oracleCounter, \"oracle counter\");\n        if (answers[_requestID].oracleCounter == ((orc.getNumberOfOracles(_requestID) -\n        orc.getTimeoutOracleLength(_requestID))- 1)){\n            emit RevealsPlaced(_requestID, \"All reveals have been placed\");\n            answers[_requestID].revealsFlag = 1;\n            voteAggregation(_requestID); // once number of oracles has been reached call voteAggregation\n        }\n        answers[_requestID].oracleCounter++; // increment counter for next oracle\n    }\n    // @notice called by oracle node once all commits are in and a response with the result and secret is given to check against commit\n    // @param _requestID\n    // @param _result, the answer that was fetch by IoT\n    // @param _secret, the string that was hashed with the IoT result in the commit\n    function revealAverageResponse(\n        uint256 _requestID,\n        bytes memory _result,\n        bytes memory _secret)\n    public\n    onlyAuthorisedOraclesYetToReveal(_requestID) // only oracles yet to reveal\n    cancelFlagCheck(_requestID) // make sure cancel flag = 0\n    commitCompleteFlagCheck(_requestID) // checks all commits are in and flag is equal to 1\n    revealsFlagCheck(_requestID) // checks that reveal flag is 0 otherwise function will not run\n    onlyAverageAggregationType(_requestID) // makes sure only average responses are received\n    returns(bool){\n        // need to check the hash of the _result and _secret against answers[_requestID].oracleCommits[msg.sender]\n        int256 decodeResult = decodeInt(_result);\n        bytes32 revealHash = keccak256(abi.encodePacked(_secret, _result)); // hash of _result and _secret\n        emit LogHashes(answers[_requestID].oracleCommits[msg.sender], revealHash);\n        emit LogInt(decodeResult);\n        if (answers[_requestID].oracleCommits[msg.sender] == revealHash) {\n            answers[_requestID].oracleAverageReveals[msg.sender] = decodeResult; // adds the int result to map\n            answers[_requestID].oracleHasSubmittedReveal[msg.sender] = true; // can only submit once\n            answers[_requestID].correctRevealOracles.push(msg.sender); // adds correct oracles for aggregation\n        } else {\n            answers[_requestID].incorrectRevealOracles.push(msg.sender); // an incorrect match of commit and reveal hashes\n            answers[_requestID].oracleHasSubmittedReveal[msg.sender] = true; // has submitted so can only respond once\n        }\n        if (answers[_requestID].oracleCounter == ((orc.getNumberOfOracles(_requestID) -\n        orc.getTimeoutOracleLength(_requestID)) - 1)){\n            emit RevealsPlaced(_requestID, \"All reveals have been placed\");\n            averageAggregation(_requestID); // once number of oracles has been reached call averageAggregation\n        }\n        answers[_requestID].oracleCounter++; // increment oracle counter\n        return true;\n    }\n    // @notice vote aggregation, splits the correct reveals into true and false lists, then chooses the bool\n    //         with the most votes as correct. and the others are penalised in ORC contract. Majority vote\n    // @param _requestID\n    function voteAggregation(uint256 _requestID) internal returns(bool) {\n        bool _result; // the final result to send to ORC contract\n        address orcAddress; // placeholder oracle address var\n        // loop through the oracles that provided a correct reveal\n        for (uint i = 0; i < answers[_requestID].correctRevealOracles.length; i++) {\n\n            orcAddress = answers[_requestID].correctRevealOracles[i]; // assign address\n            // if the reveal result is true add to true array and increment true counter\n            if (answers[_requestID].oracleVoteReveals[orcAddress] == true ) {\n\n                answers[_requestID].trueOracleResults.push(orcAddress); // add oracle address to true array\n                answers[_requestID].t++; // increment true counter\n            } else { // if false add address to false array\n\n                answers[_requestID].falseOracleResults.push(orcAddress);\n                answers[_requestID].f++; // increment false counter\n            }\n        }\n        // which ever is greater pass to call deliverVoteResponse in true(correct) then false(incorrect) order\n        if (answers[_requestID].t > answers[_requestID].f) {\n            // call\n            //require(!(answers[_requestID].f > (answers[_requestID].oracleCounter) / 3), 'too many incorrect nodes');\n            _result = true; // final result\n            // pass in requestID the result, trueOracleResults as the correct field and falseOracleResults as the incorrect\n            orc.deliverVoteResponse(_requestID, _result, answers[_requestID].trueOracleResults,\n                answers[_requestID].falseOracleResults,\n                answers[_requestID].incorrectRevealOracles);\n        } else if (answers[_requestID].f > answers[_requestID].t) {\n            // which ever is greater pass to call deliverVoteResponse in false(correct) then true(incorrect) order\n            //require(!(answers[_requestID].t > (answers[_requestID].oracleCounter) / 3), 'too many incorrect nodes');\n            _result = false;\n            // pass in requestID the result, falseOracleResults as the correct field and trueOracleResults as the incorrect\n            orc.deliverVoteResponse(_requestID, _result,\n                answers[_requestID].falseOracleResults,\n                answers[_requestID].trueOracleResults,\n                answers[_requestID].incorrectRevealOracles);\n        } else {\n            // when the t and f counters are the same, deadlock as appeared so we need to cancel and refund\n            orc.cancelRequestDueToDeadlock(_requestID, answers[_requestID].incorrectRevealOracles);\n            answers[_requestID].cancelFlag = 1;\n        }\n        emit AggregationCompleted(_requestID, \"Vote Aggregation Complete\");\n        return true;\n    }\n    // @notice averaging aggregation this function takes an average of the correct reveal oracles\n    function averageAggregation(\n        uint256 _requestID)\n    internal\n    returns(bool)\n    {\n        address orcAddress; // placeholder for orcAddress\n        int256 total = 0; // total of the results\n        int256 average; // an average of the results\n        for (uint i=0; i<answers[_requestID].correctRevealOracles.length; i++){\n            orcAddress = answers[_requestID].correctRevealOracles[i]; // orc address\n            total += answers[_requestID].oracleAverageReveals[orcAddress]; // sums the results to total\n        }\n        average = total / int(answers[_requestID].correctRevealOracles.length); // averages the result\n        orc.deliverAverageResponse(\n                _requestID,\n                average,\n                answers[_requestID].correctRevealOracles,\n                    answers[_requestID].incorrectRevealOracles);\n        emit AggregationCompleted(_requestID, \"Average Aggregation Complete\");\n        return true;\n    }\n    // @notice cancel request only ORC contract can call this\n    function cancelRequest(\n        uint256 _requestID)\n    public\n    cancelFlagCheck(_requestID)\n    onlyORC() // only ORC contract can call this function\n    returns(bool)\n    {\n        answers[_requestID].cancelFlag = 1;\n        return true;\n    }\n\n    function getOracleHasSubmittedCommit(\n        uint256 _requestID,\n        address _oracleAddr)\n    onlyORC()\n    external\n    view\n    returns(bool) {\n        return answers[_requestID].oracleHasSubmittedCommit[_oracleAddr];\n    }\n\n    function getOracleHasSubmittedReveal(\n        uint256 _requestID,\n        address _oracleAddr)\n    onlyORC()\n    external\n    view\n    returns(bool)\n    {\n        return answers[_requestID].oracleHasSubmittedReveal[_oracleAddr];\n    }\n\n    function getCommitFlag(\n        uint256 _requestID)\n    onlyORC()\n    external\n    view\n    returns(uint)\n    {\n        return answers[_requestID].commitsFlag;\n    }\n\n    function getRevealFlag(\n        uint256 _requestID)\n    onlyORC()\n    external\n    view\n    returns(uint) {\n        return answers[_requestID].revealsFlag;\n    }\n\n    function getUnRespondedCommitOracles(uint256 _requestID) onlyORC() external returns(address[] memory){\n        emit LogNumOr(answers[_requestID].oracleCounter, \"len in un-respond call\");\n        for (uint i = 0; i < orc.getNumberOfOracles(_requestID); i++) {\n            address orcAdd = answers[_requestID].oracleList[i];\n\n            if (answers[_requestID].oracleHasSubmittedCommit[orcAdd] == false){\n                emit PrintAddress(orcAdd, \"address of un-responded oracle node\");\n                answers[_requestID].unRespondedOracles.push(orcAdd);\n            }\n        }\n        return answers[_requestID].unRespondedOracles;\n    }\n\n    function getUnRespondedRevealOracles(uint256 _requestID) onlyORC() external returns(address[] memory){\n        for (uint i = 0; i < orc.getNumberOfOracles(_requestID); i++) {\n            address orcAdd = answers[_requestID].oracleList[i];\n            if (answers[_requestID].oracleHasSubmittedReveal[orcAdd] == false){\n                answers[_requestID].unRespondedOracles.push(orcAdd);\n            }\n        }\n        return answers[_requestID].unRespondedOracles;\n    }\n\n    function forceCommitsPlaced(uint _requestID) onlyORC() external returns(bool) {\n        answers[_requestID].commitsFlag = 1;\n        answers[_requestID].oracleCounter = 0;\n        emit CommitsPlaced(_requestID, \"Force commits are placed\");\n        return true;\n    }\n\n    function forceRevealsPlaced(uint _requestID , uint256 _aggregationType ) onlyORC() external returns(bool) {\n        answers[_requestID].revealsFlag = 1;\n        emit RevealsPlaced(_requestID, \"Force reveals have been placed\");\n        if (_aggregationType == 1) {\n            voteAggregation(_requestID);\n        } else if (_aggregationType == 2) {\n            averageAggregation(_requestID);\n        }\n        return true;\n    }\n\n    // ***modifiers***\n    modifier onlyAuthorisedOraclesYetToCommit(\n        uint256 _requestID)\n    {\n        // checks that the oracle is in request list\n        require(orc.getOracleForRequest(_requestID, msg.sender));\n        // checks that the oracle hasn't yet committed.\n        require(answers[_requestID].oracleHasSubmittedCommit[msg.sender] == false);\n        _;\n    }\n    modifier onlyAuthorisedOraclesYetToReveal(\n        uint256 _requestID)\n    {\n        // checks that the oracle is in request list\n        require(orc.getOracleForRequest(_requestID, msg.sender));\n        // checks that the oracle hasn't yet revealed.\n        require(answers[_requestID].oracleHasSubmittedReveal[msg.sender] == false);\n        _;\n    }\n    modifier onlyOwner()\n    {\n        require(msg.sender == owner);\n        _;\n    }\n    modifier cancelFlagCheck(\n        uint256 _requestID)\n    {\n        require(answers[_requestID].cancelFlag == 0);\n        _;\n    }\n    modifier commitFlagCheck(uint256 _requestID) {\n        require(answers[_requestID].commitsFlag == 0 );\n        _;\n    }\n    modifier commitCompleteFlagCheck(uint256 _requestID) {\n        require(answers[_requestID].commitsFlag == 1);\n        _;\n    }\n    modifier revealsFlagCheck(uint256 _requestID){\n        require(answers[_requestID].revealsFlag == 0);\n        _;\n    }\n    modifier onlyORC()\n    {\n        require(msg.sender == address(orc));\n        _;\n    }\n    modifier onlyVoteAggregationType(uint256 _requestID) {\n        require(orc.getAggregationType(_requestID) == 1);\n        _;\n    }\n    modifier onlyAverageAggregationType(uint256 _requestID) {\n        require(orc.getAggregationType(_requestID) == 2);\n        _;\n    }\n    function decodeBool(bytes memory data) public pure returns (bool b){\n        assembly {\n        // Load the length of data (first 32 bytes)\n            let len := mload(data)\n        // Load the data after 32 bytes, so add 0x20\n            b := mload(add(data, 0x20))\n        }\n    }\n    function decodeInt(bytes memory data) public pure returns (int256 i) {\n        assembly {\n            let len := mload(data)\n\n            i := mload(add(data, 0x20))\n        }\n    }\n}\n\n",
  "sourcePath": "/home/willp/Documents/MSc_Computer_Science/PROJECT/Research_Code/july22_projectcode/IoToracle/contracts/AggregatorContract.sol",
  "compiler": {
    "name": "solc",
    "version": "0.8.15+commit.e14f2714.Emscripten.clang"
  },
  "schemaVersion": "3.4.8",
  "updatedAt": "2022-09-08T18:39:40.940Z",
  "networkType": "ethereum",
  "devdoc": {
    "kind": "dev",
    "methods": {},
    "version": 1
  },
  "userdoc": {
    "kind": "user",
    "methods": {},
    "version": 1
  }
}