{
  "contractName": "AggregatorContract",
  "abi": [
    {
      "inputs": [
        {
          "internalType": "address",
          "name": "_addr",
          "type": "address"
        }
      ],
      "stateMutability": "nonpayable",
      "type": "constructor"
    },
    {
      "anonymous": false,
      "inputs": [
        {
          "indexed": false,
          "internalType": "uint256",
          "name": "",
          "type": "uint256"
        },
        {
          "indexed": false,
          "internalType": "string",
          "name": "",
          "type": "string"
        }
      ],
      "name": "AggregationCompleted",
      "type": "event"
    },
    {
      "anonymous": false,
      "inputs": [
        {
          "indexed": false,
          "internalType": "bytes32",
          "name": "",
          "type": "bytes32"
        },
        {
          "indexed": false,
          "internalType": "bytes32",
          "name": "",
          "type": "bytes32"
        }
      ],
      "name": "LogHashes",
      "type": "event"
    },
    {
      "anonymous": false,
      "inputs": [
        {
          "indexed": false,
          "internalType": "address",
          "name": "",
          "type": "address"
        },
        {
          "indexed": false,
          "internalType": "string",
          "name": "",
          "type": "string"
        }
      ],
      "name": "ResponseReceived",
      "type": "event"
    },
    {
      "inputs": [
        {
          "internalType": "uint256",
          "name": "",
          "type": "uint256"
        }
      ],
      "name": "answers",
      "outputs": [
        {
          "internalType": "uint256",
          "name": "requestID",
          "type": "uint256"
        },
        {
          "internalType": "bytes",
          "name": "dataType",
          "type": "bytes"
        },
        {
          "internalType": "uint256",
          "name": "oracleCounter",
          "type": "uint256"
        },
        {
          "internalType": "uint32",
          "name": "t",
          "type": "uint32"
        },
        {
          "internalType": "uint32",
          "name": "f",
          "type": "uint32"
        },
        {
          "internalType": "uint256",
          "name": "cancelFlag",
          "type": "uint256"
        },
        {
          "internalType": "bool",
          "name": "lastOracle",
          "type": "bool"
        }
      ],
      "stateMutability": "view",
      "type": "function",
      "constant": true
    },
    {
      "inputs": [],
      "name": "owner",
      "outputs": [
        {
          "internalType": "address payable",
          "name": "",
          "type": "address"
        }
      ],
      "stateMutability": "view",
      "type": "function",
      "constant": true
    },
    {
      "inputs": [
        {
          "internalType": "uint256",
          "name": "_requestID",
          "type": "uint256"
        },
        {
          "internalType": "bytes",
          "name": "_actualResult",
          "type": "bytes"
        }
      ],
      "name": "receiveResponse",
      "outputs": [
        {
          "internalType": "bool",
          "name": "",
          "type": "bool"
        }
      ],
      "stateMutability": "nonpayable",
      "type": "function"
    },
    {
      "inputs": [
        {
          "internalType": "uint256",
          "name": "_requestID",
          "type": "uint256"
        }
      ],
      "name": "cancelRequest",
      "outputs": [
        {
          "internalType": "bool",
          "name": "",
          "type": "bool"
        }
      ],
      "stateMutability": "nonpayable",
      "type": "function"
    }
  ],
  "bytecode": "0x60806040523480156200001157600080fd5b5060405162001d7c38038062001d7c8339818101604052810190620000379190620000e9565b80600160006101000a81548173ffffffffffffffffffffffffffffffffffffffff021916908373ffffffffffffffffffffffffffffffffffffffff160217905550506200011b565b600080fd5b600073ffffffffffffffffffffffffffffffffffffffff82169050919050565b6000620000b18262000084565b9050919050565b620000c381620000a4565b8114620000cf57600080fd5b50565b600081519050620000e381620000b8565b92915050565b6000602082840312156200010257620001016200007f565b5b60006200011284828501620000d2565b91505092915050565b611c51806200012b6000396000f3fe608060405234801561001057600080fd5b506004361061004c5760003560e01c806317599cc5146100515780633015394c146100875780638da5cb5b146100b7578063f8f14f42146100d5575b600080fd5b61006b60048036038101906100669190610f8c565b610105565b60405161007e979695949392919061109b565b60405180910390f35b6100a1600480360381019061009c9190610f8c565b610202565b6040516100ae9190611111565b60405180910390f35b6100bf6102e5565b6040516100cc919061116d565b60405180910390f35b6100ef60048036038101906100ea91906112bd565b610309565b6040516100fc9190611111565b60405180910390f35b6002816064811061011557600080fd5b6009020160009150905080600001549080600101805461013490611348565b80601f016020809104026020016040519081016040528092919081815260200182805461016090611348565b80156101ad5780601f10610182576101008083540402835291602001916101ad565b820191906000526020600020905b81548152906001019060200180831161019057829003601f168201915b5050505050908060050154908060060160009054906101000a900463ffffffff16908060060160049054906101000a900463ffffffff16908060070154908060080160009054906101000a900460ff16905087565b60008160006002826064811061021b5761021a611379565b5b60090201600701541461022d57600080fd5b60016002846064811061024357610242611379565b5b6009020160070181905550600160009054906101000a900473ffffffffffffffffffffffffffffffffffffffff1673ffffffffffffffffffffffffffffffffffffffff16633015394c846040518263ffffffff1660e01b81526004016102a991906113a8565b600060405180830381600087803b1580156102c357600080fd5b505af11580156102d7573d6000803e3d6000fd5b505050506001915050919050565b60008054906101000a900473ffffffffffffffffffffffffffffffffffffffff1681565b600082600160009054906101000a900473ffffffffffffffffffffffffffffffffffffffff1673ffffffffffffffffffffffffffffffffffffffff1663a37b354d82336040518363ffffffff1660e01b81526004016103699291906113e4565b602060405180830381865afa158015610386573d6000803e3d6000fd5b505050506040513d601f19601f820116820180604052508101906103aa9190611439565b6103b357600080fd5b60001515600282606481106103cb576103ca611379565b5b6009020160020160003373ffffffffffffffffffffffffffffffffffffffff1673ffffffffffffffffffffffffffffffffffffffff16815260200190815260200160002060009054906101000a900460ff1615151461042957600080fd5b836000600282606481106104405761043f611379565b5b60090201600701541461045257600080fd5b600160009054906101000a900473ffffffffffffffffffffffffffffffffffffffff1673ffffffffffffffffffffffffffffffffffffffff166391a3632a866040518263ffffffff1660e01b81526004016104ad91906113a8565b602060405180830381865afa1580156104ca573d6000803e3d6000fd5b505050506040513d601f19601f820116820180604052508101906104ee9190611492565b63ffffffff166002866064811061050857610507611379565b5b600902016005015410156106e657846002866064811061052b5761052a611379565b5b6009020160000181905550836002866064811061054b5761054a611379565b5b6009020160030160003373ffffffffffffffffffffffffffffffffffffffff1673ffffffffffffffffffffffffffffffffffffffff168152602001908152602001600020908161059b919061166b565b506001600286606481106105b2576105b1611379565b5b6009020160020160003373ffffffffffffffffffffffffffffffffffffffff1673ffffffffffffffffffffffffffffffffffffffff16815260200190815260200160002060006101000a81548160ff021916908315150217905550336002866064811061062257610621611379565b5b6009020160040160006002886064811061063f5761063e611379565b5b6009020160050154815260200190815260200160002060006101000a81548173ffffffffffffffffffffffffffffffffffffffff021916908373ffffffffffffffffffffffffffffffffffffffff160217905550600285606481106106a7576106a6611379565b5b6009020160050160008154809291906106bf9061176c565b91905055506000600286606481106106da576106d9611379565b5b60090201600701819055505b600160009054906101000a900473ffffffffffffffffffffffffffffffffffffffff1673ffffffffffffffffffffffffffffffffffffffff166391a3632a866040518263ffffffff1660e01b815260040161074191906113a8565b602060405180830381865afa15801561075e573d6000803e3d6000fd5b505050506040513d601f19601f820116820180604052508101906107829190611492565b63ffffffff166002866064811061079c5761079b611379565b5b6009020160050154036108ac577fe4cba15a82b5f91e40e6fcd30c425c90aa715d1d6d73eb1fedb1baf58c28d6dd336040516107d89190611811565b60405180910390a16001600286606481106107f6576107f5611379565b5b6009020160080160006101000a81548160ff021916908315150217905550600160009054906101000a900473ffffffffffffffffffffffffffffffffffffffff1673ffffffffffffffffffffffffffffffffffffffff1663ea317d5d8661085c8861091c565b6040518363ffffffff1660e01b815260040161087992919061183f565b600060405180830381600087803b15801561089357600080fd5b505af11580156108a7573d6000803e3d6000fd5b505050505b600285606481106108c0576108bf611379565b5b6009020160020160003373ffffffffffffffffffffffffffffffffffffffff1673ffffffffffffffffffffffffffffffffffffffff16815260200190815260200160002060009054906101000a900460ff169250505092915050565b60608160006002826064811061093557610934611379565b5b60090201600701541461094757600080fd5b6060600160009054906101000a900473ffffffffffffffffffffffffffffffffffffffff1673ffffffffffffffffffffffffffffffffffffffff166357442e79856040518263ffffffff1660e01b81526004016109a491906113a8565b600060405180830381865afa1580156109c1573d6000803e3d6000fd5b505050506040513d6000823e3d601f19601f820116820180604052508101906109ea91906118df565b600285606481106109fe576109fd611379565b5b600902016001019081610a11919061166b565b5060005b60028560648110610a2957610a28611379565b5b6009020160050154811015610e5957600060028660648110610a4e57610a4d611379565b5b60090201600401600083815260200190815260200160002060009054906101000a900473ffffffffffffffffffffffffffffffffffffffff169050600060028760648110610a9f57610a9e611379565b5b6009020160010160028860648110610aba57610ab9611379565b5b6009020160030160008473ffffffffffffffffffffffffffffffffffffffff1673ffffffffffffffffffffffffffffffffffffffff168152602001908152602001600020604051602001610b0f9291906119b6565b6040516020818303038152906040528051906020012090507f1034809265ff4258719a9aebc8a98d3ae11c847f3db81864425e812fd387c188600160009054906101000a900473ffffffffffffffffffffffffffffffffffffffff1673ffffffffffffffffffffffffffffffffffffffff1663829c22fd896040518263ffffffff1660e01b8152600401610ba391906113a8565b602060405180830381865afa158015610bc0573d6000803e3d6000fd5b505050506040513d601f19601f82011682018060405250810190610be49190611a10565b82604051610bf3929190611a4c565b60405180910390a1600160009054906101000a900473ffffffffffffffffffffffffffffffffffffffff1673ffffffffffffffffffffffffffffffffffffffff1663829c22fd886040518263ffffffff1660e01b8152600401610c5691906113a8565b602060405180830381865afa158015610c73573d6000803e3d6000fd5b505050506040513d601f19601f82011682018060405250810190610c979190611a10565b8103610de95760028760648110610cb157610cb0611379565b5b60090201600601600081819054906101000a900463ffffffff1680929190610cd890611a75565b91906101000a81548163ffffffff021916908363ffffffff160217905550506000845111610de45760028760648110610d1457610d13611379565b5b6009020160030160008373ffffffffffffffffffffffffffffffffffffffff1673ffffffffffffffffffffffffffffffffffffffff1681526020019081526020016000208054610d6390611348565b80601f0160208091040260200160405190810160405280929190818152602001828054610d8f90611348565b8015610ddc5780601f10610db157610100808354040283529160200191610ddc565b820191906000526020600020905b815481529060010190602001808311610dbf57829003601f168201915b505050505093505b610e44565b60028760648110610dfd57610dfc611379565b5b60090201600601600481819054906101000a900463ffffffff1680929190610e2490611a75565b91906101000a81548163ffffffff021916908363ffffffff160217905550505b50508080610e519061176c565b915050610a15565b506003600160028660648110610e7257610e71611379565b5b6009020160050154610e849190611aa1565b610e8e9190611b04565b60028560648110610ea257610ea1611379565b5b6009020160060160049054906101000a900463ffffffff1663ffffffff161115610f01576040517f08c379a0000000000000000000000000000000000000000000000000000000008152600401610ef890611b81565b60405180910390fd5b7fab982296b91a9b70c6739c96524c481cf0a1714be617e9bb39538f46ad5c880084604051610f309190611bed565b60405180910390a18092505050919050565b6000604051905090565b600080fd5b600080fd5b6000819050919050565b610f6981610f56565b8114610f7457600080fd5b50565b600081359050610f8681610f60565b92915050565b600060208284031215610fa257610fa1610f4c565b5b6000610fb084828501610f77565b91505092915050565b610fc281610f56565b82525050565b600081519050919050565b600082825260208201905092915050565b60005b83811015611002578082015181840152602081019050610fe7565b83811115611011576000848401525b50505050565b6000601f19601f8301169050919050565b600061103382610fc8565b61103d8185610fd3565b935061104d818560208601610fe4565b61105681611017565b840191505092915050565b600063ffffffff82169050919050565b61107a81611061565b82525050565b60008115159050919050565b61109581611080565b82525050565b600060e0820190506110b0600083018a610fb9565b81810360208301526110c28189611028565b90506110d16040830188610fb9565b6110de6060830187611071565b6110eb6080830186611071565b6110f860a0830185610fb9565b61110560c083018461108c565b98975050505050505050565b6000602082019050611126600083018461108c565b92915050565b600073ffffffffffffffffffffffffffffffffffffffff82169050919050565b60006111578261112c565b9050919050565b6111678161114c565b82525050565b6000602082019050611182600083018461115e565b92915050565b600080fd5b600080fd5b7f4e487b7100000000000000000000000000000000000000000000000000000000600052604160045260246000fd5b6111ca82611017565b810181811067ffffffffffffffff821117156111e9576111e8611192565b5b80604052505050565b60006111fc610f42565b905061120882826111c1565b919050565b600067ffffffffffffffff82111561122857611227611192565b5b61123182611017565b9050602081019050919050565b82818337600083830152505050565b600061126061125b8461120d565b6111f2565b90508281526020810184848401111561127c5761127b61118d565b5b61128784828561123e565b509392505050565b600082601f8301126112a4576112a3611188565b5b81356112b484826020860161124d565b91505092915050565b600080604083850312156112d4576112d3610f4c565b5b60006112e285828601610f77565b925050602083013567ffffffffffffffff81111561130357611302610f51565b5b61130f8582860161128f565b9150509250929050565b7f4e487b7100000000000000000000000000000000000000000000000000000000600052602260045260246000fd5b6000600282049050600182168061136057607f821691505b60208210810361137357611372611319565b5b50919050565b7f4e487b7100000000000000000000000000000000000000000000000000000000600052603260045260246000fd5b60006020820190506113bd6000830184610fb9565b92915050565b60006113ce8261112c565b9050919050565b6113de816113c3565b82525050565b60006040820190506113f96000830185610fb9565b61140660208301846113d5565b9392505050565b61141681611080565b811461142157600080fd5b50565b6000815190506114338161140d565b92915050565b60006020828403121561144f5761144e610f4c565b5b600061145d84828501611424565b91505092915050565b61146f81611061565b811461147a57600080fd5b50565b60008151905061148c81611466565b92915050565b6000602082840312156114a8576114a7610f4c565b5b60006114b68482850161147d565b91505092915050565b60008190508160005260206000209050919050565b60006020601f8301049050919050565b600082821b905092915050565b6000600883026115217fffffffffffffffffffffffffffffffffffffffffffffffffffffffffffffffff826114e4565b61152b86836114e4565b95508019841693508086168417925050509392505050565b6000819050919050565b600061156861156361155e84610f56565b611543565b610f56565b9050919050565b6000819050919050565b6115828361154d565b61159661158e8261156f565b8484546114f1565b825550505050565b600090565b6115ab61159e565b6115b6818484611579565b505050565b5b818110156115da576115cf6000826115a3565b6001810190506115bc565b5050565b601f82111561161f576115f0816114bf565b6115f9846114d4565b81016020851015611608578190505b61161c611614856114d4565b8301826115bb565b50505b505050565b600082821c905092915050565b600061164260001984600802611624565b1980831691505092915050565b600061165b8383611631565b9150826002028217905092915050565b61167482610fc8565b67ffffffffffffffff81111561168d5761168c611192565b5b6116978254611348565b6116a28282856115de565b600060209050601f8311600181146116d557600084156116c3578287015190505b6116cd858261164f565b865550611735565b601f1984166116e3866114bf565b60005b8281101561170b578489015182556001820191506020850194506020810190506116e6565b868310156117285784890151611724601f891682611631565b8355505b6001600288020188555050505b505050505050565b7f4e487b7100000000000000000000000000000000000000000000000000000000600052601160045260246000fd5b600061177782610f56565b91507fffffffffffffffffffffffffffffffffffffffffffffffffffffffffffffffff82036117a9576117a861173d565b5b600182019050919050565b600082825260208201905092915050565b7f726573706f6e7365206c6f676765640000000000000000000000000000000000600082015250565b60006117fb600f836117b4565b9150611806826117c5565b602082019050919050565b600060408201905061182660008301846113d5565b8181036020830152611837816117ee565b905092915050565b60006040820190506118546000830185610fb9565b81810360208301526118668184611028565b90509392505050565b600061188261187d8461120d565b6111f2565b90508281526020810184848401111561189e5761189d61118d565b5b6118a9848285610fe4565b509392505050565b600082601f8301126118c6576118c5611188565b5b81516118d684826020860161186f565b91505092915050565b6000602082840312156118f5576118f4610f4c565b5b600082015167ffffffffffffffff81111561191357611912610f51565b5b61191f848285016118b1565b91505092915050565b600081905092915050565b6000815461194081611348565b61194a8186611928565b94506001821660008114611965576001811461197a576119ad565b60ff19831686528115158202860193506119ad565b611983856114bf565b60005b838110156119a557815481890152600182019150602081019050611986565b838801955050505b50505092915050565b60006119c28285611933565b91506119ce8284611933565b91508190509392505050565b6000819050919050565b6119ed816119da565b81146119f857600080fd5b50565b600081519050611a0a816119e4565b92915050565b600060208284031215611a2657611a25610f4c565b5b6000611a34848285016119fb565b91505092915050565b611a46816119da565b82525050565b6000604082019050611a616000830185611a3d565b611a6e6020830184611a3d565b9392505050565b6000611a8082611061565b915063ffffffff8203611a9657611a9561173d565b5b600182019050919050565b6000611aac82610f56565b9150611ab783610f56565b925082821015611aca57611ac961173d565b5b828203905092915050565b7f4e487b7100000000000000000000000000000000000000000000000000000000600052601260045260246000fd5b6000611b0f82610f56565b9150611b1a83610f56565b925082611b2a57611b29611ad5565b5b828204905092915050565b7f746f6f206d616e7920696e636f7272656374206e6f6465730000000000000000600082015250565b6000611b6b6018836117b4565b9150611b7682611b35565b602082019050919050565b60006020820190508181036000830152611b9a81611b5e565b9050919050565b7f6167677265676174696f6e20636f6d706c657465000000000000000000000000600082015250565b6000611bd76014836117b4565b9150611be282611ba1565b602082019050919050565b6000604082019050611c026000830184610fb9565b8181036020830152611c1381611bca565b90509291505056fea26469706673582212204f5777636ec6b89a0cd43a6f0f630611935746df78652263b9ddeb5567c6091f64736f6c634300080f0033",
  "immutableReferences": {},
  "source": "// SPDX-License-Identifier: MIT\npragma solidity ^0.8.0;\n\nimport \"./OracleRequesterContract.sol\";\n\ncontract AggregatorContract {\n\n    address payable public owner;\n    // need an answers struct\n    OracleRequesterContract orc;\n    //orc = OracleRequesterContract() // address of deployed contract\n    Answer[100] public answers; // array of 100 Answer structs\n    struct Answer {\n        uint256 requestID; // the request ID\n        bytes dataType; // data type of request 'bool' 'temp' etc\n        mapping (address => bool) oracleHasSubmitted; // authorised oracles, marked true when voted\n        mapping (address => bytes) oracleResults; // add their result to a map of their address\n        mapping (uint => address) oracleAddresses; // uint to address to match counter and iterate through\n        uint256 oracleCounter; // keep an index of the oracles\n        uint32 t; // a true counter;\n        uint32 f; // a false counter: we need this under (n-1)/3\n        uint cancelFlag;\n        bool lastOracle;\n    }\n\n    event ResponseReceived(address, string);\n    event AggregationCompleted(uint256, string);\n    event LogHashes(bytes32, bytes32);\n\n    constructor(address _addr) {\n        // initialise the Oracle Request Contract contract\n        orc = OracleRequesterContract(_addr);\n    }\n\n    // @notice each oracle sends their response to through this function\n    // filling up the Answer struct at index requestID.\n    // @dev\n    // @param _requestID ID of request\n    // @param _actualResult the value the off-chain oracle has collected\n    // @return bool, true to say answer has been submitted\n    function receiveResponse(\n        uint256 _requestID,\n        bytes memory _actualResult\n    )\n    public\n    onlyAuthorisedOraclesYetToVote(_requestID) cancelFlagCheck(_requestID)\n    returns(bool){\n        if (answers[_requestID].oracleCounter < orc.getNumberOfOracles(_requestID)) {\n            answers[_requestID].requestID = _requestID;\n            answers[_requestID].oracleResults[msg.sender] = _actualResult;\n            answers[_requestID].oracleHasSubmitted[msg.sender] = true;\n            answers[_requestID].oracleAddresses[answers[_requestID].oracleCounter] = msg.sender;\n            answers[_requestID].oracleCounter++;\n            answers[_requestID].cancelFlag = 0;\n        }\n        // if the counter has reached the number of oracles needed,\n        // we can call the deliverResponse with the aggregation() method with returns a single result\n        if(answers[_requestID].oracleCounter == orc.getNumberOfOracles(_requestID)) {\n            // call aggregator function\n            emit ResponseReceived(msg.sender, \"response logged\");\n            answers[_requestID].lastOracle = true;\n            orc.deliverResponse(_requestID, aggregation(_requestID));\n        }\n        return answers[_requestID].oracleHasSubmitted[msg.sender];\n    }\n\n    // @notice aggregates results on a voting system, also requires that false votes are not larger than a threshold\n    // @dev\n    // @param _requestID pass in requestID to index the answers\n    // @return final result\n    function aggregation(uint256 _requestID) internal cancelFlagCheck(_requestID) returns(bytes memory) {\n        // local finalResult initialised\n        bytes memory finalResult;\n        //gets dataType from ORC request struct which is then used for a hash of the params to match the results\n        answers[_requestID].dataType = orc.getDataType(_requestID);\n        for (uint i=0; i<answers[_requestID].oracleCounter; i++){\n            address oracleAddress = answers[_requestID].oracleAddresses[i];\n            // ensures actual result and required result are the same\n            bytes32 responseHash = keccak256(abi.encodePacked(\n                    answers[_requestID].dataType, answers[_requestID].oracleResults[oracleAddress]\n                ));\n            emit LogHashes(orc.getPHash(_requestID), responseHash);\n            if (responseHash == orc.getPHash(_requestID)){\n                // if correct increment the true count\n                answers[_requestID].t++;\n                if (finalResult.length <= 0) {\n                    // first response will assign its answer to the actual answer\n                    finalResult = answers[_requestID].oracleResults[oracleAddress];\n                }\n            } else {\n                //otherwise increment the false count\n                answers[_requestID].f++;\n            }\n        }\n        // requires a threshold for false answers\n        require(!(answers[_requestID].f > (answers[_requestID].oracleCounter - 1) / 3), 'too many incorrect nodes');\n\n        emit AggregationCompleted(_requestID, \"aggregation complete\");\n        return finalResult;\n    }\n   /* function getHashes(uint256 _requestID, address _oracleAddress) public view returns(bytes32, bytes32) {\n        bytes32 ogHash = orc.getPHash(_requestID);\n        bytes32 orcHash = keccak256(abi.encodePacked(\n                answers[_requestID].dataType, answers[_requestID].oracleResults[_oracleAddress]\n        ));\n        return (ogHash, orcHash);\n    }\n    function getResultInfo(uint256 _requestID, address _oracleAddress) public view returns(bytes memory, bytes memory){\n        bytes memory dataType = orc.getDataType(_requestID);\n        bytes memory answer = answers[_requestID].oracleResults[_oracleAddress];\n        return (dataType, answer);\n    }*/\n\n    modifier onlyAuthorisedOraclesYetToVote(uint256 _requestID) {\n        // checks that the oracle is in request list\n        require(orc.getOracleForRequest(_requestID, msg.sender));\n        // checks that the oracle hasn't yet voted.\n        require(answers[_requestID].oracleHasSubmitted[msg.sender] == false);\n        _;\n    }\n\n    function cancelRequest(uint256 _requestID) public cancelFlagCheck(_requestID) returns(bool){\n        answers[_requestID].cancelFlag = 1;\n        orc.cancelRequest(_requestID);\n        return true;\n    }\n\n    modifier cancelFlagCheck(uint256 _requestID) {\n        require(answers[_requestID].cancelFlag == 0);\n        _;\n    }\n\n}\n\n\n\n\n\n\n",
  "sourcePath": "/home/willp/Documents/MSc_Computer_Science/PROJECT/Research_Code/july22_projectcode/IoToracle/contracts/AggregatorContract.sol",
  "compiler": {
    "name": "solc",
    "version": "0.8.15+commit.e14f2714.Emscripten.clang"
  },
  "schemaVersion": "3.4.8",
  "updatedAt": "2022-07-25T14:37:03.886Z",
  "networkType": "ethereum",
  "devdoc": {
    "kind": "dev",
    "methods": {},
    "version": 1
  },
  "userdoc": {
    "kind": "user",
    "methods": {},
    "version": 1
  }
}