{
  "contractName": "AggregatorContract",
  "abi": [
    {
      "inputs": [
        {
          "internalType": "address",
          "name": "_addr",
          "type": "address"
        }
      ],
      "stateMutability": "nonpayable",
      "type": "constructor"
    },
    {
      "anonymous": false,
      "inputs": [
        {
          "indexed": false,
          "internalType": "uint256",
          "name": "",
          "type": "uint256"
        },
        {
          "indexed": false,
          "internalType": "string",
          "name": "",
          "type": "string"
        }
      ],
      "name": "AggregationCompleted",
      "type": "event"
    },
    {
      "anonymous": false,
      "inputs": [
        {
          "indexed": false,
          "internalType": "uint256",
          "name": "",
          "type": "uint256"
        },
        {
          "indexed": false,
          "internalType": "string",
          "name": "",
          "type": "string"
        }
      ],
      "name": "CommitsPlaced",
      "type": "event"
    },
    {
      "anonymous": false,
      "inputs": [
        {
          "indexed": false,
          "internalType": "bytes32",
          "name": "",
          "type": "bytes32"
        },
        {
          "indexed": false,
          "internalType": "bytes32",
          "name": "",
          "type": "bytes32"
        }
      ],
      "name": "LogHashes",
      "type": "event"
    },
    {
      "anonymous": false,
      "inputs": [
        {
          "indexed": false,
          "internalType": "string",
          "name": "",
          "type": "string"
        }
      ],
      "name": "Logging",
      "type": "event"
    },
    {
      "anonymous": false,
      "inputs": [
        {
          "indexed": false,
          "internalType": "uint256",
          "name": "",
          "type": "uint256"
        },
        {
          "indexed": false,
          "internalType": "string",
          "name": "",
          "type": "string"
        }
      ],
      "name": "RevealsPlaced",
      "type": "event"
    },
    {
      "inputs": [
        {
          "internalType": "uint256",
          "name": "",
          "type": "uint256"
        }
      ],
      "name": "answers",
      "outputs": [
        {
          "internalType": "uint256",
          "name": "requestID",
          "type": "uint256"
        },
        {
          "internalType": "bytes",
          "name": "dataType",
          "type": "bytes"
        },
        {
          "internalType": "uint256",
          "name": "oracleCounter",
          "type": "uint256"
        },
        {
          "internalType": "uint32",
          "name": "t",
          "type": "uint32"
        },
        {
          "internalType": "uint32",
          "name": "f",
          "type": "uint32"
        },
        {
          "internalType": "uint256",
          "name": "cancelFlag",
          "type": "uint256"
        },
        {
          "internalType": "uint256",
          "name": "commitsFlag",
          "type": "uint256"
        },
        {
          "internalType": "uint256",
          "name": "revealsFlag",
          "type": "uint256"
        },
        {
          "internalType": "bool",
          "name": "lastOracle",
          "type": "bool"
        }
      ],
      "stateMutability": "view",
      "type": "function",
      "constant": true
    },
    {
      "inputs": [],
      "name": "owner",
      "outputs": [
        {
          "internalType": "address",
          "name": "",
          "type": "address"
        }
      ],
      "stateMutability": "view",
      "type": "function",
      "constant": true
    },
    {
      "inputs": [
        {
          "internalType": "uint256",
          "name": "_requestID",
          "type": "uint256"
        },
        {
          "internalType": "bytes32",
          "name": "_commitHash",
          "type": "bytes32"
        }
      ],
      "name": "commitResponse",
      "outputs": [
        {
          "internalType": "bool",
          "name": "",
          "type": "bool"
        }
      ],
      "stateMutability": "nonpayable",
      "type": "function"
    },
    {
      "inputs": [
        {
          "internalType": "uint256",
          "name": "_requestID",
          "type": "uint256"
        },
        {
          "internalType": "bytes",
          "name": "_result",
          "type": "bytes"
        },
        {
          "internalType": "bytes",
          "name": "_secret",
          "type": "bytes"
        }
      ],
      "name": "revealVoteResponse",
      "outputs": [
        {
          "internalType": "bool",
          "name": "",
          "type": "bool"
        }
      ],
      "stateMutability": "nonpayable",
      "type": "function"
    },
    {
      "inputs": [
        {
          "internalType": "uint256",
          "name": "_requestID",
          "type": "uint256"
        },
        {
          "internalType": "int256",
          "name": "_result",
          "type": "int256"
        },
        {
          "internalType": "bytes[]",
          "name": "_secret",
          "type": "bytes[]"
        }
      ],
      "name": "revealAverageResponse",
      "outputs": [
        {
          "internalType": "bool",
          "name": "",
          "type": "bool"
        }
      ],
      "stateMutability": "nonpayable",
      "type": "function"
    },
    {
      "inputs": [
        {
          "internalType": "uint256",
          "name": "_requestID",
          "type": "uint256"
        }
      ],
      "name": "cancelRequest",
      "outputs": [
        {
          "internalType": "bool",
          "name": "",
          "type": "bool"
        }
      ],
      "stateMutability": "nonpayable",
      "type": "function"
    }
  ],
  "bytecode": "0x60806040523480156200001157600080fd5b5060405162002a3138038062002a31833981810160405281019062000037919062000129565b336000806101000a81548173ffffffffffffffffffffffffffffffffffffffff021916908373ffffffffffffffffffffffffffffffffffffffff16021790555080600160006101000a81548173ffffffffffffffffffffffffffffffffffffffff021916908373ffffffffffffffffffffffffffffffffffffffff160217905550506200015b565b600080fd5b600073ffffffffffffffffffffffffffffffffffffffff82169050919050565b6000620000f182620000c4565b9050919050565b6200010381620000e4565b81146200010f57600080fd5b50565b6000815190506200012381620000f8565b92915050565b600060208284031215620001425762000141620000bf565b5b6000620001528482850162000112565b91505092915050565b6128c6806200016b6000396000f3fe608060405234801561001057600080fd5b50600436106100625760003560e01c8063074e324d1461006757806317599cc5146100975780633015394c146100cf57806335605407146100ff5780638259a8c11461012f5780638da5cb5b1461015f575b600080fd5b610081600480360381019061007c919061192e565b61017d565b60405161008e9190611989565b60405180910390f35b6100b160048036038101906100ac91906119a4565b6106c7565b6040516100c699989796959493929190611a98565b60405180910390f35b6100e960048036038101906100e491906119a4565b6107d0565b6040516100f69190611989565b60405180910390f35b61011960048036038101906101149190611c61565b610880565b6040516101269190611989565b60405180910390f35b61014960048036038101906101449190611e08565b610f9b565b6040516101569190611989565b60405180910390f35b6101676115fa565b6040516101749190611eb8565b60405180910390f35b600082600160009054906101000a900473ffffffffffffffffffffffffffffffffffffffff1673ffffffffffffffffffffffffffffffffffffffff1663a37b354d82336040518363ffffffff1660e01b81526004016101dd929190611ed3565b602060405180830381865afa1580156101fa573d6000803e3d6000fd5b505050506040513d601f19601f8201168201806040525081019061021e9190611f28565b61022757600080fd5b600015156002826064811061023f5761023e611f55565b5b6010020160020160003373ffffffffffffffffffffffffffffffffffffffff1673ffffffffffffffffffffffffffffffffffffffff16815260200190815260200160002060009054906101000a900460ff1615151461029d57600080fd5b836000600282606481106102b4576102b3611f55565b5b60100201600c0154146102c657600080fd5b846000600282606481106102dd576102dc611f55565b5b60100201600d0154146102ef57600080fd5b60006002876064811061030557610304611f55565b5b60100201600001540361033357856002876064811061032757610326611f55565b5b60100201600001819055505b600160009054906101000a900473ffffffffffffffffffffffffffffffffffffffff1673ffffffffffffffffffffffffffffffffffffffff166391a3632a876040518263ffffffff1660e01b815260040161038e9190611f84565b602060405180830381865afa1580156103ab573d6000803e3d6000fd5b505050506040513d601f19601f820116820180604052508101906103cf9190611fcb565b63ffffffff16600287606481106103e9576103e8611f55565b5b6010020160080154101561057d57846002876064811061040c5761040b611f55565b5b6010020160040160003373ffffffffffffffffffffffffffffffffffffffff1673ffffffffffffffffffffffffffffffffffffffff1681526020019081526020016000208190555060016002876064811061046a57610469611f55565b5b6010020160020160003373ffffffffffffffffffffffffffffffffffffffff1673ffffffffffffffffffffffffffffffffffffffff16815260200190815260200160002060006101000a81548160ff02191690831515021790555033600287606481106104da576104d9611f55565b5b601002016007016000600289606481106104f7576104f6611f55565b5b6010020160080154815260200190815260200160002060006101000a81548173ffffffffffffffffffffffffffffffffffffffff021916908373ffffffffffffffffffffffffffffffffffffffff1602179055506002866064811061055f5761055e611f55565b5b60100201600801600081548092919061057790612027565b91905055505b600160009054906101000a900473ffffffffffffffffffffffffffffffffffffffff1673ffffffffffffffffffffffffffffffffffffffff166391a3632a876040518263ffffffff1660e01b81526004016105d89190611f84565b602060405180830381865afa1580156105f5573d6000803e3d6000fd5b505050506040513d601f19601f820116820180604052508101906106199190611fcb565b63ffffffff166002876064811061063357610632611f55565b5b6010020160080154036106ba5760016002876064811061065657610655611f55565b5b60100201600d018190555060006002876064811061067757610676611f55565b5b60100201600801819055507f94654b3250060d23222c9a81fdafe2f23accfb1dc46fb56b8e4aa75c0776e0fd866040516106b191906120cc565b60405180910390a15b6001935050505092915050565b600281606481106106d757600080fd5b601002016000915090508060000154908060010180546106f690612129565b80601f016020809104026020016040519081016040528092919081815260200182805461072290612129565b801561076f5780601f106107445761010080835404028352916020019161076f565b820191906000526020600020905b81548152906001019060200180831161075257829003601f168201915b50505050509080600801549080600b0160009054906101000a900463ffffffff169080600b0160049054906101000a900463ffffffff169080600c01549080600d01549080600e01549080600f0160009054906101000a900460ff16905089565b6000816000600282606481106107e9576107e8611f55565b5b60100201600c0154146107fb57600080fd5b600160009054906101000a900473ffffffffffffffffffffffffffffffffffffffff1673ffffffffffffffffffffffffffffffffffffffff163373ffffffffffffffffffffffffffffffffffffffff161461085557600080fd5b60016002846064811061086b5761086a611f55565b5b60100201600c01819055506001915050919050565b600083600160009054906101000a900473ffffffffffffffffffffffffffffffffffffffff1673ffffffffffffffffffffffffffffffffffffffff1663a37b354d82336040518363ffffffff1660e01b81526004016108e0929190611ed3565b602060405180830381865afa1580156108fd573d6000803e3d6000fd5b505050506040513d601f19601f820116820180604052508101906109219190611f28565b61092a57600080fd5b600015156002826064811061094257610941611f55565b5b6010020160030160003373ffffffffffffffffffffffffffffffffffffffff1673ffffffffffffffffffffffffffffffffffffffff16815260200190815260200160002060009054906101000a900460ff161515146109a057600080fd5b846000600282606481106109b7576109b6611f55565b5b60100201600c0154146109c957600080fd5b856001600282606481106109e0576109df611f55565b5b60100201600d0154146109f257600080fd5b86600060028260648110610a0957610a08611f55565b5b60100201600e015414610a1b57600080fd5b8760018060009054906101000a900473ffffffffffffffffffffffffffffffffffffffff1673ffffffffffffffffffffffffffffffffffffffff1663e4888222836040518263ffffffff1660e01b8152600401610a789190611f84565b602060405180830381865afa158015610a95573d6000803e3d6000fd5b505050506040513d601f19601f82011682018060405250810190610ab9919061216f565b14610ac357600080fd5b600088604051602001610ad691906121d8565b6040516020818303038152906040528051906020012090507f1034809265ff4258719a9aebc8a98d3ae11c847f3db81864425e812fd387c18860028b60648110610b2357610b22611f55565b5b6010020160040160003373ffffffffffffffffffffffffffffffffffffffff1673ffffffffffffffffffffffffffffffffffffffff1681526020019081526020016000205482604051610b779291906121fe565b60405180910390a18060028b60648110610b9457610b93611f55565b5b6010020160040160003373ffffffffffffffffffffffffffffffffffffffff1673ffffffffffffffffffffffffffffffffffffffff1681526020019081526020016000205403610d0557600160028b60648110610bf457610bf3611f55565b5b6010020160030160003373ffffffffffffffffffffffffffffffffffffffff1673ffffffffffffffffffffffffffffffffffffffff16815260200190815260200160002060006101000a81548160ff02191690831515021790555060028a60648110610c6357610c62611f55565b5b60100201600901339080600181540180825580915050600190039060005260206000200160009091909190916101000a81548173ffffffffffffffffffffffffffffffffffffffff021916908373ffffffffffffffffffffffffffffffffffffffff1602179055507fb1ed47ced4562a888b3c47e728f82f7863e472cad724018fe1585bc6853ec82d604051610cf890612273565b60405180910390a1610e28565b7fb1ed47ced4562a888b3c47e728f82f7863e472cad724018fe1585bc6853ec82d604051610d32906122df565b60405180910390a160028a60648110610d4e57610d4d611f55565b5b60100201600a01339080600181540180825580915050600190039060005260206000200160009091909190916101000a81548173ffffffffffffffffffffffffffffffffffffffff021916908373ffffffffffffffffffffffffffffffffffffffff160217905550600160028b60648110610dcc57610dcb611f55565b5b6010020160030160003373ffffffffffffffffffffffffffffffffffffffff1673ffffffffffffffffffffffffffffffffffffffff16815260200190815260200160002060006101000a81548160ff0219169083151502179055505b60018060009054906101000a900473ffffffffffffffffffffffffffffffffffffffff1673ffffffffffffffffffffffffffffffffffffffff166391a3632a8c6040518263ffffffff1660e01b8152600401610e849190611f84565b602060405180830381865afa158015610ea1573d6000803e3d6000fd5b505050506040513d601f19601f82011682018060405250810190610ec59190611fcb565b610ecf91906122ff565b63ffffffff1660028b60648110610ee957610ee8611f55565b5b601002016008015403610f59577fcd9014e59ca398764ef85e5719d2151f53668c6d08f5ea98e064a65a6cccf06e8a604051610f25919061237f565b60405180910390a1600160028b60648110610f4357610f42611f55565b5b60100201600e0181905550610f578a61161e565b505b60028a60648110610f6d57610f6c611f55565b5b601002016008016000815480929190610f8590612027565b9190505550600196505050505050509392505050565b600083600160009054906101000a900473ffffffffffffffffffffffffffffffffffffffff1673ffffffffffffffffffffffffffffffffffffffff1663a37b354d82336040518363ffffffff1660e01b8152600401610ffb929190611ed3565b602060405180830381865afa158015611018573d6000803e3d6000fd5b505050506040513d601f19601f8201168201806040525081019061103c9190611f28565b61104557600080fd5b600015156002826064811061105d5761105c611f55565b5b6010020160030160003373ffffffffffffffffffffffffffffffffffffffff1673ffffffffffffffffffffffffffffffffffffffff16815260200190815260200160002060009054906101000a900460ff161515146110bb57600080fd5b846000600282606481106110d2576110d1611f55565b5b60100201600c0154146110e457600080fd5b856001600282606481106110fb576110fa611f55565b5b60100201600d01541461110d57600080fd5b8660006002826064811061112457611123611f55565b5b60100201600e01541461113657600080fd5b876002600160009054906101000a900473ffffffffffffffffffffffffffffffffffffffff1673ffffffffffffffffffffffffffffffffffffffff1663e4888222836040518263ffffffff1660e01b81526004016111949190611f84565b602060405180830381865afa1580156111b1573d6000803e3d6000fd5b505050506040513d601f19601f820116820180604052508101906111d5919061216f565b146111df57600080fd5b600087896040516020016111f49291906124c8565b6040516020818303038152906040528051906020012090508060028b6064811061122157611220611f55565b5b6010020160040160003373ffffffffffffffffffffffffffffffffffffffff1673ffffffffffffffffffffffffffffffffffffffff16815260200190815260200160002054036113ba578860028b606481106112805761127f611f55565b5b6010020160060160003373ffffffffffffffffffffffffffffffffffffffff1673ffffffffffffffffffffffffffffffffffffffff16815260200190815260200160002081905550600160028b606481106112de576112dd611f55565b5b6010020160030160003373ffffffffffffffffffffffffffffffffffffffff1673ffffffffffffffffffffffffffffffffffffffff16815260200190815260200160002060006101000a81548160ff02191690831515021790555060028a6064811061134d5761134c611f55565b5b60100201600901339080600181540180825580915050600190039060005260206000200160009091909190916101000a81548173ffffffffffffffffffffffffffffffffffffffff021916908373ffffffffffffffffffffffffffffffffffffffff1602179055506114a8565b60028a606481106113ce576113cd611f55565b5b60100201600a01339080600181540180825580915050600190039060005260206000200160009091909190916101000a81548173ffffffffffffffffffffffffffffffffffffffff021916908373ffffffffffffffffffffffffffffffffffffffff160217905550600160028b6064811061144c5761144b611f55565b5b6010020160030160003373ffffffffffffffffffffffffffffffffffffffff1673ffffffffffffffffffffffffffffffffffffffff16815260200190815260200160002060006101000a81548160ff0219169083151502179055505b60028a606481106114bc576114bb611f55565b5b6010020160080160008154809291906114d490612027565b919050555060018060009054906101000a900473ffffffffffffffffffffffffffffffffffffffff1673ffffffffffffffffffffffffffffffffffffffff166391a3632a8c6040518263ffffffff1660e01b81526004016115359190611f84565b602060405180830381865afa158015611552573d6000803e3d6000fd5b505050506040513d601f19601f820116820180604052508101906115769190611fcb565b61158091906122ff565b63ffffffff1660028b6064811061159a57611599611f55565b5b6010020160080154036115e9577fcd9014e59ca398764ef85e5719d2151f53668c6d08f5ea98e064a65a6cccf06e8a6040516115d6919061237f565b60405180910390a16115e78a611660565b505b600196505050505050509392505050565b60008054906101000a900473ffffffffffffffffffffffffffffffffffffffff1681565b60007fab982296b91a9b70c6739c96524c481cf0a1714be617e9bb39538f46ad5c88008260405161164f9190612544565b60405180910390a160009050919050565b60008060008080600090505b600286606481106116805761167f611f55565b5b601002016009018054905081101561176557600286606481106116a6576116a5611f55565b5b6010020160090181815481106116bf576116be611f55565b5b9060005260206000200160009054906101000a900473ffffffffffffffffffffffffffffffffffffffff16935060028660648110611700576116ff611f55565b5b6010020160060160008573ffffffffffffffffffffffffffffffffffffffff1673ffffffffffffffffffffffffffffffffffffffff16815260200190815260200160002054836117509190612572565b9250808061175d90612027565b91505061166c565b506002856064811061177a57611779611f55565b5b6010020160090180549050826117909190612635565b9050600160009054906101000a900473ffffffffffffffffffffffffffffffffffffffff1673ffffffffffffffffffffffffffffffffffffffff166358621b7a8683600289606481106117e6576117e5611f55565b5b6010020160090160028a6064811061180157611800611f55565b5b60100201600a016040518563ffffffff1660e01b815260040161182794939291906127c3565b6020604051808303816000875af1158015611846573d6000803e3d6000fd5b505050506040513d601f19601f8201168201806040525081019061186a9190611f28565b507fab982296b91a9b70c6739c96524c481cf0a1714be617e9bb39538f46ad5c88008560405161189a9190612862565b60405180910390a160019350505050919050565b6000604051905090565b600080fd5b600080fd5b6000819050919050565b6118d5816118c2565b81146118e057600080fd5b50565b6000813590506118f2816118cc565b92915050565b6000819050919050565b61190b816118f8565b811461191657600080fd5b50565b60008135905061192881611902565b92915050565b60008060408385031215611945576119446118b8565b5b6000611953858286016118e3565b925050602061196485828601611919565b9150509250929050565b60008115159050919050565b6119838161196e565b82525050565b600060208201905061199e600083018461197a565b92915050565b6000602082840312156119ba576119b96118b8565b5b60006119c8848285016118e3565b91505092915050565b6119da816118c2565b82525050565b600081519050919050565b600082825260208201905092915050565b60005b83811015611a1a5780820151818401526020810190506119ff565b83811115611a29576000848401525b50505050565b6000601f19601f8301169050919050565b6000611a4b826119e0565b611a5581856119eb565b9350611a658185602086016119fc565b611a6e81611a2f565b840191505092915050565b600063ffffffff82169050919050565b611a9281611a79565b82525050565b600061012082019050611aae600083018c6119d1565b8181036020830152611ac0818b611a40565b9050611acf604083018a6119d1565b611adc6060830189611a89565b611ae96080830188611a89565b611af660a08301876119d1565b611b0360c08301866119d1565b611b1060e08301856119d1565b611b1e61010083018461197a565b9a9950505050505050505050565b600080fd5b600080fd5b7f4e487b7100000000000000000000000000000000000000000000000000000000600052604160045260246000fd5b611b6e82611a2f565b810181811067ffffffffffffffff82111715611b8d57611b8c611b36565b5b80604052505050565b6000611ba06118ae565b9050611bac8282611b65565b919050565b600067ffffffffffffffff821115611bcc57611bcb611b36565b5b611bd582611a2f565b9050602081019050919050565b82818337600083830152505050565b6000611c04611bff84611bb1565b611b96565b905082815260208101848484011115611c2057611c1f611b31565b5b611c2b848285611be2565b509392505050565b600082601f830112611c4857611c47611b2c565b5b8135611c58848260208601611bf1565b91505092915050565b600080600060608486031215611c7a57611c796118b8565b5b6000611c88868287016118e3565b935050602084013567ffffffffffffffff811115611ca957611ca86118bd565b5b611cb586828701611c33565b925050604084013567ffffffffffffffff811115611cd657611cd56118bd565b5b611ce286828701611c33565b9150509250925092565b6000819050919050565b611cff81611cec565b8114611d0a57600080fd5b50565b600081359050611d1c81611cf6565b92915050565b600067ffffffffffffffff821115611d3d57611d3c611b36565b5b602082029050602081019050919050565b600080fd5b6000611d66611d6184611d22565b611b96565b90508083825260208201905060208402830185811115611d8957611d88611d4e565b5b835b81811015611dd057803567ffffffffffffffff811115611dae57611dad611b2c565b5b808601611dbb8982611c33565b85526020850194505050602081019050611d8b565b5050509392505050565b600082601f830112611def57611dee611b2c565b5b8135611dff848260208601611d53565b91505092915050565b600080600060608486031215611e2157611e206118b8565b5b6000611e2f868287016118e3565b9350506020611e4086828701611d0d565b925050604084013567ffffffffffffffff811115611e6157611e606118bd565b5b611e6d86828701611dda565b9150509250925092565b600073ffffffffffffffffffffffffffffffffffffffff82169050919050565b6000611ea282611e77565b9050919050565b611eb281611e97565b82525050565b6000602082019050611ecd6000830184611ea9565b92915050565b6000604082019050611ee860008301856119d1565b611ef56020830184611ea9565b9392505050565b611f058161196e565b8114611f1057600080fd5b50565b600081519050611f2281611efc565b92915050565b600060208284031215611f3e57611f3d6118b8565b5b6000611f4c84828501611f13565b91505092915050565b7f4e487b7100000000000000000000000000000000000000000000000000000000600052603260045260246000fd5b6000602082019050611f9960008301846119d1565b92915050565b611fa881611a79565b8114611fb357600080fd5b50565b600081519050611fc581611f9f565b92915050565b600060208284031215611fe157611fe06118b8565b5b6000611fef84828501611fb6565b91505092915050565b7f4e487b7100000000000000000000000000000000000000000000000000000000600052601160045260246000fd5b6000612032826118c2565b91507fffffffffffffffffffffffffffffffffffffffffffffffffffffffffffffffff820361206457612063611ff8565b5b600182019050919050565b600082825260208201905092915050565b7f636f6d6d6974732061726520706c616365640000000000000000000000000000600082015250565b60006120b660128361206f565b91506120c182612080565b602082019050919050565b60006040820190506120e160008301846119d1565b81810360208301526120f2816120a9565b905092915050565b7f4e487b7100000000000000000000000000000000000000000000000000000000600052602260045260246000fd5b6000600282049050600182168061214157607f821691505b602082108103612154576121536120fa565b5b50919050565b600081519050612169816118cc565b92915050565b600060208284031215612185576121846118b8565b5b60006121938482850161215a565b91505092915050565b600081905092915050565b60006121b2826119e0565b6121bc818561219c565b93506121cc8185602086016119fc565b80840191505092915050565b60006121e482846121a7565b915081905092915050565b6121f8816118f8565b82525050565b600060408201905061221360008301856121ef565b61222060208301846121ef565b9392505050565b7f77652061726520696e2074686520666972737420696620626c6f636b00000000600082015250565b600061225d601c8361206f565b915061226882612227565b602082019050919050565b6000602082019050818103600083015261228c81612250565b9050919050565b7f57652061726520696e2074686520656c736520626c6f636b0000000000000000600082015250565b60006122c960188361206f565b91506122d482612293565b602082019050919050565b600060208201905081810360008301526122f8816122bc565b9050919050565b600061230a82611a79565b915061231583611a79565b92508282101561232857612327611ff8565b5b828203905092915050565b7f416c6c2072657665616c732068617665206265656e20706c6163656400000000600082015250565b6000612369601c8361206f565b915061237482612333565b602082019050919050565b600060408201905061239460008301846119d1565b81810360208301526123a58161235c565b905092915050565b600081519050919050565b600082825260208201905092915050565b6000819050602082019050919050565b600082825260208201905092915050565b60006123f5826119e0565b6123ff81856123d9565b935061240f8185602086016119fc565b61241881611a2f565b840191505092915050565b600061242f83836123ea565b905092915050565b6000602082019050919050565b600061244f826123ad565b61245981856123b8565b93508360208202850161246b856123c9565b8060005b858110156124a757848403895281516124888582612423565b945061249383612437565b925060208a0199505060018101905061246f565b50829750879550505050505092915050565b6124c281611cec565b82525050565b600060408201905081810360008301526124e28185612444565b90506124f160208301846124b9565b9392505050565b7f566f7465204167677265676174696f6e20436f6d706c65746500000000000000600082015250565b600061252e60198361206f565b9150612539826124f8565b602082019050919050565b600060408201905061255960008301846119d1565b818103602083015261256a81612521565b905092915050565b600061257d82611cec565b915061258883611cec565b9250817f7fffffffffffffffffffffffffffffffffffffffffffffffffffffffffffffff038313600083121516156125c3576125c2611ff8565b5b817f80000000000000000000000000000000000000000000000000000000000000000383126000831216156125fb576125fa611ff8565b5b828201905092915050565b7f4e487b7100000000000000000000000000000000000000000000000000000000600052601260045260246000fd5b600061264082611cec565b915061264b83611cec565b92508261265b5761265a612606565b5b600160000383147f80000000000000000000000000000000000000000000000000000000000000008314161561269457612693611ff8565b5b828205905092915050565b600081549050919050565b600082825260208201905092915050565b60008190508160005260206000209050919050565b6126d981611e97565b82525050565b60006126eb83836126d0565b60208301905092915050565b60008160001c9050919050565b600073ffffffffffffffffffffffffffffffffffffffff82169050919050565b6000612737612732836126f7565b612704565b9050919050565b600061274a8254612724565b9050919050565b6000600182019050919050565b60006127698261269f565b61277381856126aa565b935061277e836126bb565b8060005b838110156127b6576127938261273e565b61279d88826126df565b97506127a883612751565b925050600181019050612782565b5085935050505092915050565b60006080820190506127d860008301876119d1565b6127e560208301866124b9565b81810360408301526127f7818561275e565b9050818103606083015261280b818461275e565b905095945050505050565b7f41766572616765204167677265676174696f6e20436f6d706c65746500000000600082015250565b600061284c601c8361206f565b915061285782612816565b602082019050919050565b600060408201905061287760008301846119d1565b81810360208301526128888161283f565b90509291505056fea2646970667358221220393631657d178be12027e62b92eaa887c59ce55d50aa63e5dd1d72de7ce65fb064736f6c634300080f0033",
  "immutableReferences": {},
  "source": "// SPDX-License-Identifier: MIT\npragma solidity ^0.8.0;\n\nimport \"./OracleRequestContract.sol\";\n\ncontract AggregatorContract {\n    address public owner; // owner of contract\n    OracleRequestContract orc; // instance of ORC contract\n    Answer[100] public answers; // array of 100 Answer structs to keep track of answers\n    struct Answer {\n        //bytes test;\n        uint256 requestID; // the request ID\n        bytes dataType; // data type of request 'bool' 'temp' etc\n        mapping (address => bool) oracleHasSubmittedCommit; // authorised oracles, marked true when committed\n        mapping(address => bool) oracleHasSubmittedReveal; // authorised oracles, marked true when revealed\n        mapping (address => bytes32) oracleCommits; // add their result to a map with their address as index\n        mapping (address => bool) oracleVoteReveals; // adds oracle answers to addresses\n        mapping (address => int256) oracleAverageReveals; // adds oracle answers to addresses\n        mapping (uint256 => address) oracleAddresses; // uint to address to match counter and iterate through\n        uint256 oracleCounter; // keep an index of the oracles\n        address[] correctRevealOracles; // dynamic array to keep track of correct oracle address to be passed to ORC\n        address[] incorrectRevealOracles; // dynamic array to keep track of incorrect oracle address to be penalised\n        uint32 t; // a true counter;\n        uint32 f; // a false counter: we need this under (n-1)/3\n        uint cancelFlag; // cancelFlag == 0, == 1 if canceled\n        uint commitsFlag; // 0 = needing commits still 1 = commits are complete\n        uint revealsFlag; // 0 = needing reveals still 1 = reveals are complete\n        bool lastOracle; // last oracle\n\n    }\n\n    event AggregationCompleted(uint256, string); // emits logs once the aggregation is complete\n    event LogHashes(bytes32, bytes32); // emits logs of hashes\n    event CommitsPlaced(uint, string); // emits a commits placed event\n    event RevealsPlaced(uint, string); // emits reveals placed event\n    event Logging(string);\n\n\n    // @notice constructor called when deployed\n    constructor(address _addr)\n    {\n        owner = msg.sender; // set deploying address as owner\n        orc = OracleRequestContract(_addr); // initialise the Oracle Request Contract contract\n    }\n    // @notice commitResponse oracles first commit a hash of their answer and a random string\n    function commitResponse(uint256 _requestID, bytes32 _commitHash )\n    public\n    onlyAuthorisedOraclesYetToCommit(_requestID)\n    cancelFlagCheck(_requestID)\n    commitFlagCheck(_requestID)\n    returns(bool)\n    {\n        if (answers[_requestID].requestID == 0) {\n            answers[_requestID].requestID = _requestID; // assign correct id\n        }\n        if (answers[_requestID].oracleCounter < orc.getNumberOfOracles(_requestID)) {\n            answers[_requestID].oracleCommits[msg.sender] = _commitHash; // oracle nodes add commit to map\n            answers[_requestID].oracleHasSubmittedCommit[msg.sender] = true; // it has now submitted.\n            answers[_requestID].oracleAddresses[answers[_requestID].oracleCounter] = msg.sender; // map counter to oracle addr\n            answers[_requestID].oracleCounter++; // once this is equal we know to enter next if statement\n        }\n        if (answers[_requestID].oracleCounter == orc.getNumberOfOracles(_requestID)) {\n            answers[_requestID].commitsFlag = 1;\n            answers[_requestID].oracleCounter = 0;\n            emit CommitsPlaced(_requestID, \"commits are placed\");\n        }\n        return true;\n    }\n    // @notice called by oracle node once all commits are in and a response with the result and secret is given to check against commit\n    // @param _requestID\n    // @param _result, the answer that was fetch by IoT\n    // @param _secret, the string that was hashed with the IoT result in the commit\n    function revealVoteResponse(uint256 _requestID, bytes memory _result, bytes memory _secret)\n    public\n    onlyAuthorisedOraclesYetToReveal(_requestID) // only oracles yet to reveal\n    cancelFlagCheck(_requestID) // make sure cancel flag = 0\n    commitCompleteFlagCheck(_requestID) // checks all commits are in and flag is equal to 1\n    revealsFlagCheck(_requestID) // checks that reveal flag is 0 otherwise function will not run\n    onlyVoteAggregationType(_requestID) // makes sure only vote responses are received\n    returns(bool){\n        // need to check the hash of the _result and _secret against answers[_requestID].oracleCommits[msg.sender]\n        bytes32 revealHash =  keccak256(abi.encodePacked(_result));// hash of _result and _secret\n        emit LogHashes(answers[_requestID].oracleCommits[msg.sender], revealHash);\n        _secret;\n        if (answers[_requestID].oracleCommits[msg.sender] == revealHash) {\n            //answers[_requestID].oracleVoteReveals[msg.sender] = _result; // add oracles answer to reveals\n            answers[_requestID].oracleHasSubmittedReveal[msg.sender] = true; // has submitted so can only vote once\n            answers[_requestID].correctRevealOracles.push(msg.sender); // adds to the correct reveals for aggregation\n            emit Logging(\"we are in the first if block\");\n\n        } else {\n            emit Logging(\"We are in the else block\");\n            answers[_requestID].incorrectRevealOracles.push(msg.sender); // an incorrect match of commit and reveal hashes\n            answers[_requestID].oracleHasSubmittedReveal[msg.sender] = true; // has submitted so can only vote once\n        }\n\n        if (answers[_requestID].oracleCounter == (orc.getNumberOfOracles(_requestID) - 1)){\n            emit RevealsPlaced(_requestID, \"All reveals have been placed\");\n            answers[_requestID].revealsFlag = 1;\n            voteAggregation(_requestID); // once number of oracles has been reached call voteAggregation\n        }\n        answers[_requestID].oracleCounter++; // increment counter for next oracle\n        return true;\n    }\n    // @notice called by oracle node once all commits are in and a response with the result and secret is given to check against commit\n    // @param _requestID\n    // @param _result, the answer that was fetch by IoT\n    // @param _secret, the string that was hashed with the IoT result in the commit\n    function revealAverageResponse(\n        uint256 _requestID,\n        int256 _result,\n        bytes[] memory _secret)\n    public\n    onlyAuthorisedOraclesYetToReveal(_requestID) // only oracles yet to reveal\n    cancelFlagCheck(_requestID) // make sure cancel flag = 0\n    commitCompleteFlagCheck(_requestID) // checks all commits are in and flag is equal to 1\n    revealsFlagCheck(_requestID) // checks that reveal flag is 0 otherwise function will not run\n    onlyAverageAggregationType(_requestID) // makes sure only average responses are received\n    returns(bool){\n        // need to check the hash of the _result and _secret against answers[_requestID].oracleCommits[msg.sender]\n        bytes32 revealHash = keccak256(abi.encode(_secret, _result)); // hash of _result and _secret\n        if (answers[_requestID].oracleCommits[msg.sender] == revealHash) {\n            answers[_requestID].oracleAverageReveals[msg.sender] = _result; // adds the int result to map\n            answers[_requestID].oracleHasSubmittedReveal[msg.sender] = true; // can only submit once\n            answers[_requestID].correctRevealOracles.push(msg.sender); // adds correct oracles for aggregation\n        } else {\n            answers[_requestID].incorrectRevealOracles.push(msg.sender); // an incorrect match of commit and reveal hashes\n            answers[_requestID].oracleHasSubmittedReveal[msg.sender] = true; // has submitted so can only respond once\n        }\n        answers[_requestID].oracleCounter++; // increment oracle counter\n        if (answers[_requestID].oracleCounter == (orc.getNumberOfOracles(_requestID) - 1)){\n            emit RevealsPlaced(_requestID, \"All reveals have been placed\");\n            averageAggregation(_requestID); // once number of oracles has been reached call averageAggregation\n        }\n        return true;\n    }\n    // @notice vote aggregation, splits the correct reveals into true and false lists, then chooses the bool\n    //         with the most votes as correct. and the others are penalised in ORC contract. Majority vote\n    // @param _requestID\n    function voteAggregation(uint256 _requestID) internal returns(bool) {\n//        address[] memory trueOracleResults; // oracles that answer true\n//        address[] memory falseOracleResults; // oracles that answer false\n//        //bytes memory _result; // the final result to send to ORC contract\n//        address orcAddress; // placeholder oracle address var\n//        // loop through the oracles that provided a correct reveal\n//        for (uint i = 0; i < answers[_requestID].correctRevealOracles.length; i++) {\n//            orcAddress = answers[_requestID].correctRevealOracles[i]; // assign address\n//            // if the reveal result is true add to true array and increment true counter\n//            if (answers[_requestID].oracleVoteReveals[orcAddress] == true ) {\n//                trueOracleResults[answers[_requestID].t] = orcAddress; // add oracle address to true array\n//                answers[_requestID].t++; // increment true counter\n//            } else { // if false add address to false array\n//                falseOracleResults[answers[_requestID].f] = orcAddress;\n//                answers[_requestID].f++; // increment false counter\n//            }\n//        }\n//        // which ever is greater pass to call deliverVoteResponse in true(correct) then false(incorrect) order\n//        if (answers[_requestID].t > answers[_requestID].f) {\n//            // call\n//            require(!(answers[_requestID].f > (answers[_requestID].oracleCounter - 1) / 3), 'too many incorrect nodes');\n//            _result = 'hello'; // final result\n//            // pass in requestID the result, trueOracleResults as the correct field and falseOracleResults as the incorrect\n//            orc.deliverVoteResponse(_requestID, _result, trueOracleResults,\n//                falseOracleResults,\n//                answers[_requestID].incorrectRevealOracles);\n//            return true;\n//        } else if (answers[_requestID].f > answers[_requestID].t) {\n//            // which ever is greater pass to call deliverVoteResponse in false(correct) then true(incorrect) order\n//            require(!(answers[_requestID].t > (answers[_requestID].oracleCounter - 1) / 3), 'too many incorrect nodes');\n//            _result = 'goodbye';\n//            // pass in requestID the result, falseOracleResults as the correct field and trueOracleResults as the incorrect\n//            orc.deliverVoteResponse(_requestID, _result,\n//                falseOracleResults,\n//                trueOracleResults,\n//                answers[_requestID].incorrectRevealOracles);\n//            return true;\n//        } else {\n//            // when the t and f counters are the same, deadlock as appeared so we need to cancel and refund\n//            orc.cancelRequestDueToDeadlock(_requestID, answers[_requestID].incorrectRevealOracles);\n//            answers[_requestID].cancelFlag = 1;\n//        }\n        emit AggregationCompleted(_requestID, \"Vote Aggregation Complete\");\n        return false;\n    }\n    // @notice averaging aggregation this function takes an average of the correct reveal oracles\n    function averageAggregation(\n        uint256 _requestID)\n    internal\n    returns(bool)\n    {\n        address orcAddress; // placeholder for orcAddress\n        int256 total = 0; // total of the results\n        int256 average; // an average of the results\n        for (uint i=0; i<answers[_requestID].correctRevealOracles.length; i++){\n            orcAddress = answers[_requestID].correctRevealOracles[i]; // orc address\n            total += answers[_requestID].oracleAverageReveals[orcAddress]; // sums the results to total\n        }\n        average = total / int(answers[_requestID].correctRevealOracles.length); // averages the result\n        orc.deliverAverageResponse(\n                _requestID,\n                average,\n                answers[_requestID].correctRevealOracles,\n                    answers[_requestID].incorrectRevealOracles);\n        emit AggregationCompleted(_requestID, \"Average Aggregation Complete\");\n        return true;\n    }\n    // @notice cancel request only ORC contract can call this\n    function cancelRequest(\n        uint256 _requestID)\n    public\n    cancelFlagCheck(_requestID)\n    onlyORC() // only ORC contract can call this function\n    returns(bool)\n    {\n        answers[_requestID].cancelFlag = 1;\n        return true;\n    }\n    // ***modifiers***\n    modifier onlyAuthorisedOraclesYetToCommit(\n        uint256 _requestID)\n    {\n        // checks that the oracle is in request list\n        require(orc.getOracleForRequest(_requestID, msg.sender));\n        // checks that the oracle hasn't yet committed.\n        require(answers[_requestID].oracleHasSubmittedCommit[msg.sender] == false);\n        _;\n    }\n    modifier onlyAuthorisedOraclesYetToReveal(\n        uint256 _requestID)\n    {\n        // checks that the oracle is in request list\n        require(orc.getOracleForRequest(_requestID, msg.sender));\n        // checks that the oracle hasn't yet revealed.\n        require(answers[_requestID].oracleHasSubmittedReveal[msg.sender] == false);\n        _;\n    }\n    modifier onlyOwner()\n    {\n        require(msg.sender == owner);\n        _;\n    }\n    modifier cancelFlagCheck(\n        uint256 _requestID)\n    {\n        require(answers[_requestID].cancelFlag == 0);\n        _;\n    }\n    modifier commitFlagCheck(uint256 _requestID) {\n        require(answers[_requestID].commitsFlag == 0 );\n        _;\n    }\n    modifier commitCompleteFlagCheck(uint256 _requestID) {\n        require(answers[_requestID].commitsFlag == 1);\n        _;\n    }\n    modifier revealsFlagCheck(uint256 _requestID){\n        require(answers[_requestID].revealsFlag == 0);\n        _;\n    }\n    modifier onlyORC()\n    {\n        require(msg.sender == address(orc));\n        _;\n    }\n    modifier onlyVoteAggregationType(uint256 _requestID) {\n        require(orc.getAggregationType(_requestID) == 1);\n        _;\n    }\n    modifier onlyAverageAggregationType(uint256 _requestID) {\n        require(orc.getAggregationType(_requestID) == 2);\n        _;\n    }\n}\n\n\n\n\n\n\n\n\n\n/////////////////////////////////////////////////////////////////////////////////////////////////\n//    // not needed\n//    // @notice each oracle sends their response to through this function\n//    // filling up the Answer struct at index requestID.\n//    // @dev\n//    // @param _requestID ID of request\n//    // @param _actualResult the value the off-chain oracle has collected\n//    // @return bool, true to say answer has been submitted\n//    function receiveResponse(\n//        uint256 _requestID,\n//        bytes memory _actualResult\n//    )\n//    public\n//    onlyAuthorisedOraclesYetToVote(_requestID) // makes sure only oracles that are authorised call call this function,\n//    // also only if it has not yet submitted an answer\n//    cancelFlagCheck(_requestID) // requires cancelFlag == 0\n//    returns(bool)\n//    {\n//        // only logs answers for any number of oracles that are under the number required\n//        if (answers[_requestID].oracleCounter < orc.getNumberOfOracles(_requestID)) {\n//            answers[_requestID].requestID = _requestID; // assign correct id\n//            answers[_requestID].oracleCommits[msg.sender] = _actualResult; // orcale nodes answer mapped to its address\n//            answers[_requestID].oracleHasSubmitted[msg.sender] = true; // it has now submitted.\n//            answers[_requestID].oracleAddresses[answers[_requestID].oracleCounter] = msg.sender; // map counter to oracle addr\n//            answers[_requestID].oracleCounter++; // once this is equal we know to enter next if statement\n//            answers[_requestID].cancelFlag = 0; // sets cancelFlag to 0\n//            emit ResponseReceived(msg.sender, \"response logged\"); // emits to listeners that a response has been logged\n//        }\n//        // if the counter has reached the number of oracles needed, on the last oracle,\n//        // we can call the deliverResponse with the aggregation() method with returns a single result\n//        if(answers[_requestID].oracleCounter == orc.getNumberOfOracles(_requestID)) {\n//            answers[_requestID].lastOracle = true; // flag to know all oracles have submitted a vote\n//            // call aggregator function, returns a final result and an array of correct oracles\n//            (bytes memory finalResult, address[] memory correctOracles) = aggregation(_requestID);\n//            orc.deliverResponse(_requestID, finalResult, correctOracles); // call the deliverResponse function\n//        }\n//        return answers[_requestID].oracleHasSubmitted[msg.sender]; // returns true\n//    }\n\n//    // @notice aggregates results on a voting system, also requires that false votes are not larger than a threshold\n//    // @dev\n//    // @param _requestID pass in requestID to index the answers\n//    // @return final result\n//    function aggregation(\n//        uint256 _requestID)\n//    internal\n//    cancelFlagCheck(_requestID) // requires cancelFlag == 0\n//    returns(\n//        bytes memory,\n//        address[] memory)\n//    {\n//        // local finalResult initialised\n//        bytes memory finalResult;\n//        //gets dataType from ORC request struct which is then used for a hash of the params to match the results\n//        answers[_requestID].dataType = orc.getDataType(_requestID);\n//        // loop through the oracle counter to get oracle address and determine their result\n//        for (uint i=0; i<answers[_requestID].oracleCounter; i++){\n//            address oracleAddress = answers[_requestID].oracleAddresses[i]; // assign oracleAddress\n//            // ensures actual result and required result are the same\n//            bytes32 responseHash = keccak256(abi.encodePacked(\n//                    answers[_requestID].dataType, answers[_requestID].oracleResults[oracleAddress]\n//                )); // response hash from answer\n//            emit LogHashes(orc.getPHash(_requestID), responseHash); // emits to listeners to 2 hashes, these should equal\n//            if (responseHash == orc.getPHash(_requestID)){\n//                answers[_requestID].t++; // if correct increment the true count\n//                answers[_requestID].correctOracles.push(oracleAddress); // adds correct oracles to an array\n//                if (finalResult.length <= 0) {\n//                    // first response will assign its answer to the actual answer\n//                    finalResult = answers[_requestID].oracleResults[oracleAddress]; // as these are all the same\n//                }\n//            } else {\n//                //otherwise increment the false count\n//                answers[_requestID].f++;\n//            }\n//        }\n//        // requires a threshold for false answers\n//        require(!(answers[_requestID].f > (answers[_requestID].oracleCounter - 1) / 3), 'too many incorrect nodes');\n//        emit AggregationCompleted(_requestID, \"aggregation complete\");\n//        return (finalResult, answers[_requestID].correctOracles);\n//    }\n\n\n\n\n\n\n",
  "sourcePath": "/home/willp/Documents/MSc_Computer_Science/PROJECT/Research_Code/july22_projectcode/IoToracle/contracts/AggregatorContract.sol",
  "compiler": {
    "name": "solc",
    "version": "0.8.15+commit.e14f2714.Emscripten.clang"
  },
  "schemaVersion": "3.4.8",
  "updatedAt": "2022-08-12T14:31:55.863Z",
  "networkType": "ethereum",
  "devdoc": {
    "kind": "dev",
    "methods": {},
    "version": 1
  },
  "userdoc": {
    "kind": "user",
    "methods": {},
    "version": 1
  }
}