{
  "contractName": "AggregatorContract",
  "abi": [
    {
      "inputs": [
        {
          "internalType": "address",
          "name": "_addr",
          "type": "address"
        }
      ],
      "stateMutability": "nonpayable",
      "type": "constructor"
    },
    {
      "anonymous": false,
      "inputs": [
        {
          "indexed": false,
          "internalType": "address",
          "name": "",
          "type": "address"
        },
        {
          "indexed": false,
          "internalType": "string",
          "name": "",
          "type": "string"
        }
      ],
      "name": "AddressLogging",
      "type": "event"
    },
    {
      "anonymous": false,
      "inputs": [
        {
          "indexed": false,
          "internalType": "uint256",
          "name": "",
          "type": "uint256"
        },
        {
          "indexed": false,
          "internalType": "string",
          "name": "",
          "type": "string"
        }
      ],
      "name": "AggregationCompleted",
      "type": "event"
    },
    {
      "anonymous": false,
      "inputs": [
        {
          "indexed": false,
          "internalType": "uint256",
          "name": "",
          "type": "uint256"
        },
        {
          "indexed": false,
          "internalType": "string",
          "name": "",
          "type": "string"
        }
      ],
      "name": "CommitsPlaced",
      "type": "event"
    },
    {
      "anonymous": false,
      "inputs": [
        {
          "indexed": false,
          "internalType": "bool",
          "name": "",
          "type": "bool"
        }
      ],
      "name": "LogBool",
      "type": "event"
    },
    {
      "anonymous": false,
      "inputs": [
        {
          "indexed": false,
          "internalType": "bytes32",
          "name": "",
          "type": "bytes32"
        },
        {
          "indexed": false,
          "internalType": "bytes32",
          "name": "",
          "type": "bytes32"
        }
      ],
      "name": "LogHashes",
      "type": "event"
    },
    {
      "anonymous": false,
      "inputs": [
        {
          "indexed": false,
          "internalType": "int256",
          "name": "",
          "type": "int256"
        }
      ],
      "name": "LogInt",
      "type": "event"
    },
    {
      "anonymous": false,
      "inputs": [
        {
          "indexed": false,
          "internalType": "uint256",
          "name": "",
          "type": "uint256"
        },
        {
          "indexed": false,
          "internalType": "string",
          "name": "",
          "type": "string"
        }
      ],
      "name": "LogNumOr",
      "type": "event"
    },
    {
      "anonymous": false,
      "inputs": [
        {
          "indexed": false,
          "internalType": "string",
          "name": "",
          "type": "string"
        }
      ],
      "name": "Logging",
      "type": "event"
    },
    {
      "anonymous": false,
      "inputs": [
        {
          "indexed": false,
          "internalType": "address",
          "name": "",
          "type": "address"
        },
        {
          "indexed": false,
          "internalType": "string",
          "name": "",
          "type": "string"
        }
      ],
      "name": "PrintAddress",
      "type": "event"
    },
    {
      "anonymous": false,
      "inputs": [
        {
          "indexed": false,
          "internalType": "uint256",
          "name": "",
          "type": "uint256"
        },
        {
          "indexed": false,
          "internalType": "string",
          "name": "",
          "type": "string"
        }
      ],
      "name": "RevealsPlaced",
      "type": "event"
    },
    {
      "inputs": [
        {
          "internalType": "uint256",
          "name": "",
          "type": "uint256"
        }
      ],
      "name": "answers",
      "outputs": [
        {
          "internalType": "uint256",
          "name": "requestID",
          "type": "uint256"
        },
        {
          "internalType": "bytes",
          "name": "dataType",
          "type": "bytes"
        },
        {
          "internalType": "uint256",
          "name": "oracleCounter",
          "type": "uint256"
        },
        {
          "internalType": "uint256",
          "name": "t",
          "type": "uint256"
        },
        {
          "internalType": "uint256",
          "name": "f",
          "type": "uint256"
        },
        {
          "internalType": "uint256",
          "name": "cancelFlag",
          "type": "uint256"
        },
        {
          "internalType": "uint256",
          "name": "commitsFlag",
          "type": "uint256"
        },
        {
          "internalType": "uint256",
          "name": "revealsFlag",
          "type": "uint256"
        },
        {
          "internalType": "bool",
          "name": "lastOracle",
          "type": "bool"
        }
      ],
      "stateMutability": "view",
      "type": "function",
      "constant": true
    },
    {
      "inputs": [],
      "name": "owner",
      "outputs": [
        {
          "internalType": "address",
          "name": "",
          "type": "address"
        }
      ],
      "stateMutability": "view",
      "type": "function",
      "constant": true
    },
    {
      "inputs": [
        {
          "internalType": "uint256",
          "name": "_requestID",
          "type": "uint256"
        },
        {
          "internalType": "bytes32",
          "name": "_commitHash",
          "type": "bytes32"
        }
      ],
      "name": "commitResponse",
      "outputs": [
        {
          "internalType": "bool",
          "name": "",
          "type": "bool"
        }
      ],
      "stateMutability": "nonpayable",
      "type": "function"
    },
    {
      "inputs": [
        {
          "internalType": "uint256",
          "name": "_requestID",
          "type": "uint256"
        },
        {
          "internalType": "bytes",
          "name": "_result",
          "type": "bytes"
        },
        {
          "internalType": "bytes",
          "name": "_secret",
          "type": "bytes"
        }
      ],
      "name": "revealVoteResponse",
      "outputs": [],
      "stateMutability": "nonpayable",
      "type": "function"
    },
    {
      "inputs": [
        {
          "internalType": "uint256",
          "name": "_requestID",
          "type": "uint256"
        },
        {
          "internalType": "bytes",
          "name": "_result",
          "type": "bytes"
        },
        {
          "internalType": "bytes",
          "name": "_secret",
          "type": "bytes"
        }
      ],
      "name": "revealAverageResponse",
      "outputs": [
        {
          "internalType": "bool",
          "name": "",
          "type": "bool"
        }
      ],
      "stateMutability": "nonpayable",
      "type": "function"
    },
    {
      "inputs": [
        {
          "internalType": "uint256",
          "name": "_requestID",
          "type": "uint256"
        }
      ],
      "name": "cancelRequest",
      "outputs": [
        {
          "internalType": "bool",
          "name": "",
          "type": "bool"
        }
      ],
      "stateMutability": "nonpayable",
      "type": "function"
    },
    {
      "inputs": [
        {
          "internalType": "uint256",
          "name": "_requestID",
          "type": "uint256"
        },
        {
          "internalType": "address",
          "name": "_oracleAddr",
          "type": "address"
        }
      ],
      "name": "getOracleHasSubmittedCommit",
      "outputs": [
        {
          "internalType": "bool",
          "name": "",
          "type": "bool"
        }
      ],
      "stateMutability": "view",
      "type": "function",
      "constant": true
    },
    {
      "inputs": [
        {
          "internalType": "uint256",
          "name": "_requestID",
          "type": "uint256"
        },
        {
          "internalType": "address",
          "name": "_oracleAddr",
          "type": "address"
        }
      ],
      "name": "getOracleHasSubmittedReveal",
      "outputs": [
        {
          "internalType": "bool",
          "name": "",
          "type": "bool"
        }
      ],
      "stateMutability": "view",
      "type": "function",
      "constant": true
    },
    {
      "inputs": [
        {
          "internalType": "uint256",
          "name": "_requestID",
          "type": "uint256"
        }
      ],
      "name": "getCommitFlag",
      "outputs": [
        {
          "internalType": "uint256",
          "name": "",
          "type": "uint256"
        }
      ],
      "stateMutability": "view",
      "type": "function",
      "constant": true
    },
    {
      "inputs": [
        {
          "internalType": "uint256",
          "name": "_requestID",
          "type": "uint256"
        }
      ],
      "name": "getRevealFlag",
      "outputs": [
        {
          "internalType": "uint256",
          "name": "",
          "type": "uint256"
        }
      ],
      "stateMutability": "view",
      "type": "function",
      "constant": true
    },
    {
      "inputs": [
        {
          "internalType": "uint256",
          "name": "_requestID",
          "type": "uint256"
        }
      ],
      "name": "getUnRespondedCommitOracles",
      "outputs": [
        {
          "internalType": "address[]",
          "name": "",
          "type": "address[]"
        }
      ],
      "stateMutability": "nonpayable",
      "type": "function"
    },
    {
      "inputs": [
        {
          "internalType": "uint256",
          "name": "_requestID",
          "type": "uint256"
        }
      ],
      "name": "getUnRespondedRevealOracles",
      "outputs": [
        {
          "internalType": "address[]",
          "name": "",
          "type": "address[]"
        }
      ],
      "stateMutability": "nonpayable",
      "type": "function"
    },
    {
      "inputs": [
        {
          "internalType": "uint256",
          "name": "_requestID",
          "type": "uint256"
        }
      ],
      "name": "forceCommitsPlaced",
      "outputs": [
        {
          "internalType": "bool",
          "name": "",
          "type": "bool"
        }
      ],
      "stateMutability": "nonpayable",
      "type": "function"
    },
    {
      "inputs": [
        {
          "internalType": "uint256",
          "name": "_requestID",
          "type": "uint256"
        },
        {
          "internalType": "uint256",
          "name": "_aggregationType",
          "type": "uint256"
        }
      ],
      "name": "forceRevealsPlaced",
      "outputs": [
        {
          "internalType": "bool",
          "name": "",
          "type": "bool"
        }
      ],
      "stateMutability": "nonpayable",
      "type": "function"
    },
    {
      "inputs": [
        {
          "internalType": "bytes",
          "name": "data",
          "type": "bytes"
        }
      ],
      "name": "decodeBool",
      "outputs": [
        {
          "internalType": "bool",
          "name": "b",
          "type": "bool"
        }
      ],
      "stateMutability": "pure",
      "type": "function",
      "constant": true
    },
    {
      "inputs": [
        {
          "internalType": "bytes",
          "name": "data",
          "type": "bytes"
        }
      ],
      "name": "decodeInt",
      "outputs": [
        {
          "internalType": "int256",
          "name": "i",
          "type": "int256"
        }
      ],
      "stateMutability": "pure",
      "type": "function",
      "constant": true
    }
  ],
  "bytecode": "0x60806040523480156200001157600080fd5b506040516200490238038062004902833981810160405281019062000037919062000129565b336000806101000a81548173ffffffffffffffffffffffffffffffffffffffff021916908373ffffffffffffffffffffffffffffffffffffffff16021790555080600160006101000a81548173ffffffffffffffffffffffffffffffffffffffff021916908373ffffffffffffffffffffffffffffffffffffffff160217905550506200015b565b600080fd5b600073ffffffffffffffffffffffffffffffffffffffff82169050919050565b6000620000f182620000c4565b9050919050565b6200010381620000e4565b81146200010f57600080fd5b50565b6000815190506200012381620000f8565b92915050565b600060208284031215620001425762000141620000bf565b5b6000620001528482850162000112565b91505092915050565b614797806200016b6000396000f3fe608060405234801561001057600080fd5b50600436106101005760003560e01c80638da5cb5b11610097578063c62173d011610066578063c62173d014610327578063c6d9607214610357578063f681ee1114610387578063f76b365e146103b757610100565b80638da5cb5b146102795780639c0daa7c14610297578063b44d5495146102c7578063ba26ed59146102f757610100565b80633015394c116100d35780633015394c146101cd57806335605407146101fd5780634a62715214610219578063582b56561461024957610100565b8063074e324d1461010557806317599cc51461013557806319ff76c01461016d5780632d214d2e1461019d575b600080fd5b61011f600480360381019061011a9190613317565b6103e7565b60405161012c9190613372565b60405180910390f35b61014f600480360381019061014a919061338d565b610a7c565b60405161016499989796959493929190613462565b60405180910390f35b6101876004803603810190610182919061338d565b610b65565b60405161019491906135e6565b60405180910390f35b6101b760048036038101906101b29190613634565b610e73565b6040516101c49190613372565b60405180910390f35b6101e760048036038101906101e2919061338d565b610f3d565b6040516101f49190613372565b60405180910390f35b610217600480360381019061021291906137a9565b610fed565b005b610233600480360381019061022e9190613834565b611a53565b6040516102409190613372565b60405180910390f35b610263600480360381019061025e9190613874565b611b3c565b60405161027091906138d6565b60405180910390f35b610281611b4d565b60405161028e9190613900565b60405180910390f35b6102b160048036038101906102ac919061338d565b611b71565b6040516102be919061391b565b60405180910390f35b6102e160048036038101906102dc91906137a9565b611bf0565b6040516102ee9190613372565b60405180910390f35b610311600480360381019061030c919061338d565b6123cb565b60405161031e919061391b565b60405180910390f35b610341600480360381019061033c9190613874565b61244a565b60405161034e9190613372565b60405180910390f35b610371600480360381019061036c919061338d565b61245b565b60405161037e9190613372565b60405180910390f35b6103a1600480360381019061039c919061338d565b612539565b6040516103ae91906135e6565b60405180910390f35b6103d160048036038101906103cc9190613634565b6128d0565b6040516103de9190613372565b60405180910390f35b600082600160009054906101000a900473ffffffffffffffffffffffffffffffffffffffff1673ffffffffffffffffffffffffffffffffffffffff1663a37b354d82336040518363ffffffff1660e01b8152600401610447929190613936565b602060405180830381865afa158015610464573d6000803e3d6000fd5b505050506040513d601f19601f82011682018060405250810190610488919061398b565b61049157600080fd5b60001515600282606481106104a9576104a86139b8565b5b6015020160020160003373ffffffffffffffffffffffffffffffffffffffff1673ffffffffffffffffffffffffffffffffffffffff16815260200190815260200160002060009054906101000a900460ff1615151461050757600080fd5b8360006002826064811061051e5761051d6139b8565b5b60150201601101541461053057600080fd5b84600060028260648110610547576105466139b8565b5b60150201601201541461055957600080fd5b7fcebe62229293f3221e09170f6939e08a8a24f881105fbcd32f9413cd2b1d2a4c336040516105889190613a44565b60405180910390a16000600287606481106105a6576105a56139b8565b5b6015020160000154036106e85785600287606481106105c8576105c76139b8565b5b60150201600001819055506000600287606481106105e9576105e86139b8565b5b60150201600f018190555060006002876064811061060a576106096139b8565b5b6015020160100181905550600160009054906101000a900473ffffffffffffffffffffffffffffffffffffffff1673ffffffffffffffffffffffffffffffffffffffff1663c26cc94f876040518263ffffffff1660e01b8152600401610670919061391b565b6000604051808303816000875af115801561068f573d6000803e3d6000fd5b505050506040513d6000823e3d601f19601f820116820180604052508101906106b89190613b4f565b600287606481106106cc576106cb6139b8565b5b6015020160090190805190602001906106e69291906131f0565b505b600160009054906101000a900473ffffffffffffffffffffffffffffffffffffffff1673ffffffffffffffffffffffffffffffffffffffff166391a3632a876040518263ffffffff1660e01b8152600401610743919061391b565b602060405180830381865afa158015610760573d6000803e3d6000fd5b505050506040513d601f19601f820116820180604052508101906107849190613bd4565b63ffffffff166002876064811061079e5761079d6139b8565b5b601502016008015410156109325784600287606481106107c1576107c06139b8565b5b6015020160040160003373ffffffffffffffffffffffffffffffffffffffff1673ffffffffffffffffffffffffffffffffffffffff1681526020019081526020016000208190555060016002876064811061081f5761081e6139b8565b5b6015020160020160003373ffffffffffffffffffffffffffffffffffffffff1673ffffffffffffffffffffffffffffffffffffffff16815260200190815260200160002060006101000a81548160ff021916908315150217905550336002876064811061088f5761088e6139b8565b5b601502016007016000600289606481106108ac576108ab6139b8565b5b6015020160080154815260200190815260200160002060006101000a81548173ffffffffffffffffffffffffffffffffffffffff021916908373ffffffffffffffffffffffffffffffffffffffff16021790555060028660648110610914576109136139b8565b5b60150201600801600081548092919061092c90613c30565b91905055505b600160009054906101000a900473ffffffffffffffffffffffffffffffffffffffff1673ffffffffffffffffffffffffffffffffffffffff166391a3632a876040518263ffffffff1660e01b815260040161098d919061391b565b602060405180830381865afa1580156109aa573d6000803e3d6000fd5b505050506040513d601f19601f820116820180604052508101906109ce9190613bd4565b63ffffffff16600287606481106109e8576109e76139b8565b5b601502016008015403610a6f57600160028760648110610a0b57610a0a6139b8565b5b6015020160120181905550600060028760648110610a2c57610a2b6139b8565b5b60150201600801819055507f94654b3250060d23222c9a81fdafe2f23accfb1dc46fb56b8e4aa75c0776e0fd86604051610a669190613cc4565b60405180910390a15b6001935050505092915050565b60028160648110610a8c57600080fd5b60150201600091509050806000015490806001018054610aab90613d21565b80601f0160208091040260200160405190810160405280929190818152602001828054610ad790613d21565b8015610b245780601f10610af957610100808354040283529160200191610b24565b820191906000526020600020905b815481529060010190602001808311610b0757829003601f168201915b50505050509080600801549080600f0154908060100154908060110154908060120154908060130154908060140160009054906101000a900460ff16905089565b6060600160009054906101000a900473ffffffffffffffffffffffffffffffffffffffff1673ffffffffffffffffffffffffffffffffffffffff163373ffffffffffffffffffffffffffffffffffffffff1614610bc157600080fd5b60005b600160009054906101000a900473ffffffffffffffffffffffffffffffffffffffff1673ffffffffffffffffffffffffffffffffffffffff166391a3632a846040518263ffffffff1660e01b8152600401610c1f919061391b565b602060405180830381865afa158015610c3c573d6000803e3d6000fd5b505050506040513d601f19601f82011682018060405250810190610c609190613bd4565b63ffffffff16811015610dcb57600060028460648110610c8357610c826139b8565b5b601502016009018281548110610c9c57610c9b6139b8565b5b9060005260206000200160009054906101000a900473ffffffffffffffffffffffffffffffffffffffff1690506000151560028560648110610ce157610ce06139b8565b5b6015020160030160008373ffffffffffffffffffffffffffffffffffffffff1673ffffffffffffffffffffffffffffffffffffffff16815260200190815260200160002060009054906101000a900460ff16151503610db75760028460648110610d4e57610d4d6139b8565b5b60150201600e01819080600181540180825580915050600190039060005260206000200160009091909190916101000a81548173ffffffffffffffffffffffffffffffffffffffff021916908373ffffffffffffffffffffffffffffffffffffffff1602179055505b508080610dc390613c30565b915050610bc4565b5060028260648110610de057610ddf6139b8565b5b60150201600e01805480602002602001604051908101604052809291908181526020018280548015610e6757602002820191906000526020600020905b8160009054906101000a900473ffffffffffffffffffffffffffffffffffffffff1673ffffffffffffffffffffffffffffffffffffffff1681526020019060010190808311610e1d575b50505050509050919050565b6000600160009054906101000a900473ffffffffffffffffffffffffffffffffffffffff1673ffffffffffffffffffffffffffffffffffffffff163373ffffffffffffffffffffffffffffffffffffffff1614610ecf57600080fd5b60028360648110610ee357610ee26139b8565b5b6015020160030160008373ffffffffffffffffffffffffffffffffffffffff1673ffffffffffffffffffffffffffffffffffffffff16815260200190815260200160002060009054906101000a900460ff16905092915050565b600081600060028260648110610f5657610f556139b8565b5b601502016011015414610f6857600080fd5b600160009054906101000a900473ffffffffffffffffffffffffffffffffffffffff1673ffffffffffffffffffffffffffffffffffffffff163373ffffffffffffffffffffffffffffffffffffffff1614610fc257600080fd5b600160028460648110610fd857610fd76139b8565b5b60150201601101819055506001915050919050565b82600160009054906101000a900473ffffffffffffffffffffffffffffffffffffffff1673ffffffffffffffffffffffffffffffffffffffff1663a37b354d82336040518363ffffffff1660e01b815260040161104b929190613936565b602060405180830381865afa158015611068573d6000803e3d6000fd5b505050506040513d601f19601f8201168201806040525081019061108c919061398b565b61109557600080fd5b60001515600282606481106110ad576110ac6139b8565b5b6015020160030160003373ffffffffffffffffffffffffffffffffffffffff1673ffffffffffffffffffffffffffffffffffffffff16815260200190815260200160002060009054906101000a900460ff1615151461110b57600080fd5b83600060028260648110611122576111216139b8565b5b60150201601101541461113457600080fd5b8460016002826064811061114b5761114a6139b8565b5b60150201601201541461115d57600080fd5b85600060028260648110611174576111736139b8565b5b60150201601301541461118657600080fd5b8660018060009054906101000a900473ffffffffffffffffffffffffffffffffffffffff1673ffffffffffffffffffffffffffffffffffffffff1663e4888222836040518263ffffffff1660e01b81526004016111e3919061391b565b602060405180830381865afa158015611200573d6000803e3d6000fd5b505050506040513d601f19601f820116820180604052508101906112249190613d67565b1461122e57600080fd5b60008688604051602001611243929190613dd0565b6040516020818303038152906040528051906020012090507f1034809265ff4258719a9aebc8a98d3ae11c847f3db81864425e812fd387c18860028a606481106112905761128f6139b8565b5b6015020160040160003373ffffffffffffffffffffffffffffffffffffffff1673ffffffffffffffffffffffffffffffffffffffff16815260200190815260200160002054826040516112e4929190613e03565b60405180910390a160006112f78961244a565b90507fc33356bc2bad2ce263b056da5d061d4e89c336823d5e77f14c1383aedb7a1b3a816040516113289190613372565b60405180910390a18160028b60648110611345576113446139b8565b5b6015020160040160003373ffffffffffffffffffffffffffffffffffffffff1673ffffffffffffffffffffffffffffffffffffffff1681526020019081526020016000205403611526578060028b606481106113a4576113a36139b8565b5b6015020160050160003373ffffffffffffffffffffffffffffffffffffffff1673ffffffffffffffffffffffffffffffffffffffff16815260200190815260200160002060006101000a81548160ff021916908315150217905550600160028b60648110611415576114146139b8565b5b6015020160030160003373ffffffffffffffffffffffffffffffffffffffff1673ffffffffffffffffffffffffffffffffffffffff16815260200190815260200160002060006101000a81548160ff02191690831515021790555060028a60648110611484576114836139b8565b5b60150201600a01339080600181540180825580915050600190039060005260206000200160009091909190916101000a81548173ffffffffffffffffffffffffffffffffffffffff021916908373ffffffffffffffffffffffffffffffffffffffff1602179055507fb1ed47ced4562a888b3c47e728f82f7863e472cad724018fe1585bc6853ec82d60405161151990613e78565b60405180910390a1611649565b7fb1ed47ced4562a888b3c47e728f82f7863e472cad724018fe1585bc6853ec82d60405161155390613ee4565b60405180910390a160028a6064811061156f5761156e6139b8565b5b60150201600b01339080600181540180825580915050600190039060005260206000200160009091909190916101000a81548173ffffffffffffffffffffffffffffffffffffffff021916908373ffffffffffffffffffffffffffffffffffffffff160217905550600160028b606481106115ed576115ec6139b8565b5b6015020160030160003373ffffffffffffffffffffffffffffffffffffffff1673ffffffffffffffffffffffffffffffffffffffff16815260200190815260200160002060006101000a81548160ff0219169083151502179055505b7f9dc8a8cab78f19e344d97e9a17a1655efc8d43e96b22a82d74f8199c70d142eb600160009054906101000a900473ffffffffffffffffffffffffffffffffffffffff1673ffffffffffffffffffffffffffffffffffffffff166391a3632a8c6040518263ffffffff1660e01b81526004016116c5919061391b565b602060405180830381865afa1580156116e2573d6000803e3d6000fd5b505050506040513d601f19601f820116820180604052508101906117069190613bd4565b6040516117139190613f8b565b60405180910390a17f9dc8a8cab78f19e344d97e9a17a1655efc8d43e96b22a82d74f8199c70d142eb600160009054906101000a900473ffffffffffffffffffffffffffffffffffffffff1673ffffffffffffffffffffffffffffffffffffffff16631c6fd0fc8c6040518263ffffffff1660e01b8152600401611797919061391b565b602060405180830381865afa1580156117b4573d6000803e3d6000fd5b505050506040513d601f19601f820116820180604052508101906117d89190613bd4565b6040516117e59190614005565b60405180910390a17f9dc8a8cab78f19e344d97e9a17a1655efc8d43e96b22a82d74f8199c70d142eb60028b60648110611822576118216139b8565b5b6015020160080154604051611837919061407f565b60405180910390a160018060009054906101000a900473ffffffffffffffffffffffffffffffffffffffff1673ffffffffffffffffffffffffffffffffffffffff16631c6fd0fc8c6040518263ffffffff1660e01b815260040161189b919061391b565b602060405180830381865afa1580156118b8573d6000803e3d6000fd5b505050506040513d601f19601f820116820180604052508101906118dc9190613bd4565b600160009054906101000a900473ffffffffffffffffffffffffffffffffffffffff1673ffffffffffffffffffffffffffffffffffffffff166391a3632a8d6040518263ffffffff1660e01b8152600401611937919061391b565b602060405180830381865afa158015611954573d6000803e3d6000fd5b505050506040513d601f19601f820116820180604052508101906119789190613bd4565b61198291906140ad565b61198c91906140ad565b63ffffffff1660028b606481106119a6576119a56139b8565b5b601502016008015403611a16577fcd9014e59ca398764ef85e5719d2151f53668c6d08f5ea98e064a65a6cccf06e8a6040516119e2919061412d565b60405180910390a1600160028b60648110611a00576119ff6139b8565b5b6015020160130181905550611a148a61299a565b505b60028a60648110611a2a57611a296139b8565b5b601502016008016000815480929190611a4290613c30565b919050555050505050505050505050565b6000600160009054906101000a900473ffffffffffffffffffffffffffffffffffffffff1673ffffffffffffffffffffffffffffffffffffffff163373ffffffffffffffffffffffffffffffffffffffff1614611aaf57600080fd5b600160028460648110611ac557611ac46139b8565b5b60150201601301819055507fcd9014e59ca398764ef85e5719d2151f53668c6d08f5ea98e064a65a6cccf06e83604051611aff91906141a7565b60405180910390a160018203611b1e57611b188361299a565b50611b32565b60028203611b3157611b2f83612fa2565b505b5b6001905092915050565b600081516020830151915050919050565b60008054906101000a900473ffffffffffffffffffffffffffffffffffffffff1681565b6000600160009054906101000a900473ffffffffffffffffffffffffffffffffffffffff1673ffffffffffffffffffffffffffffffffffffffff163373ffffffffffffffffffffffffffffffffffffffff1614611bcd57600080fd5b60028260648110611be157611be06139b8565b5b60150201601201549050919050565b600083600160009054906101000a900473ffffffffffffffffffffffffffffffffffffffff1673ffffffffffffffffffffffffffffffffffffffff1663a37b354d82336040518363ffffffff1660e01b8152600401611c50929190613936565b602060405180830381865afa158015611c6d573d6000803e3d6000fd5b505050506040513d601f19601f82011682018060405250810190611c91919061398b565b611c9a57600080fd5b6000151560028260648110611cb257611cb16139b8565b5b6015020160030160003373ffffffffffffffffffffffffffffffffffffffff1673ffffffffffffffffffffffffffffffffffffffff16815260200190815260200160002060009054906101000a900460ff16151514611d1057600080fd5b84600060028260648110611d2757611d266139b8565b5b601502016011015414611d3957600080fd5b85600160028260648110611d5057611d4f6139b8565b5b601502016012015414611d6257600080fd5b86600060028260648110611d7957611d786139b8565b5b601502016013015414611d8b57600080fd5b876002600160009054906101000a900473ffffffffffffffffffffffffffffffffffffffff1673ffffffffffffffffffffffffffffffffffffffff1663e4888222836040518263ffffffff1660e01b8152600401611de9919061391b565b602060405180830381865afa158015611e06573d6000803e3d6000fd5b505050506040513d601f19601f82011682018060405250810190611e2a9190613d67565b14611e3457600080fd5b6000611e3f89611b3c565b90506000888a604051602001611e56929190613dd0565b6040516020818303038152906040528051906020012090507f1034809265ff4258719a9aebc8a98d3ae11c847f3db81864425e812fd387c18860028c60648110611ea357611ea26139b8565b5b6015020160040160003373ffffffffffffffffffffffffffffffffffffffff1673ffffffffffffffffffffffffffffffffffffffff1681526020019081526020016000205482604051611ef7929190613e03565b60405180910390a17f1aa4309bfd99af8afa7454590e1bdaa5a9b3b63e5baa109ae9afa3ecd0c67f3982604051611f2e91906138d6565b60405180910390a18060028c60648110611f4b57611f4a6139b8565b5b6015020160040160003373ffffffffffffffffffffffffffffffffffffffff1673ffffffffffffffffffffffffffffffffffffffff16815260200190815260200160002054036120e4578160028c60648110611faa57611fa96139b8565b5b6015020160060160003373ffffffffffffffffffffffffffffffffffffffff1673ffffffffffffffffffffffffffffffffffffffff16815260200190815260200160002081905550600160028c60648110612008576120076139b8565b5b6015020160030160003373ffffffffffffffffffffffffffffffffffffffff1673ffffffffffffffffffffffffffffffffffffffff16815260200190815260200160002060006101000a81548160ff02191690831515021790555060028b60648110612077576120766139b8565b5b60150201600a01339080600181540180825580915050600190039060005260206000200160009091909190916101000a81548173ffffffffffffffffffffffffffffffffffffffff021916908373ffffffffffffffffffffffffffffffffffffffff1602179055506121d2565b60028b606481106120f8576120f76139b8565b5b60150201600b01339080600181540180825580915050600190039060005260206000200160009091909190916101000a81548173ffffffffffffffffffffffffffffffffffffffff021916908373ffffffffffffffffffffffffffffffffffffffff160217905550600160028c60648110612176576121756139b8565b5b6015020160030160003373ffffffffffffffffffffffffffffffffffffffff1673ffffffffffffffffffffffffffffffffffffffff16815260200190815260200160002060006101000a81548160ff0219169083151502179055505b60018060009054906101000a900473ffffffffffffffffffffffffffffffffffffffff1673ffffffffffffffffffffffffffffffffffffffff16631c6fd0fc8d6040518263ffffffff1660e01b815260040161222e919061391b565b602060405180830381865afa15801561224b573d6000803e3d6000fd5b505050506040513d601f19601f8201168201806040525081019061226f9190613bd4565b600160009054906101000a900473ffffffffffffffffffffffffffffffffffffffff1673ffffffffffffffffffffffffffffffffffffffff166391a3632a8e6040518263ffffffff1660e01b81526004016122ca919061391b565b602060405180830381865afa1580156122e7573d6000803e3d6000fd5b505050506040513d601f19601f8201168201806040525081019061230b9190613bd4565b61231591906140ad565b61231f91906140ad565b63ffffffff1660028c60648110612339576123386139b8565b5b601502016008015403612388577fcd9014e59ca398764ef85e5719d2151f53668c6d08f5ea98e064a65a6cccf06e8b604051612375919061412d565b60405180910390a16123868b612fa2565b505b60028b6064811061239c5761239b6139b8565b5b6015020160080160008154809291906123b490613c30565b919050555060019750505050505050509392505050565b6000600160009054906101000a900473ffffffffffffffffffffffffffffffffffffffff1673ffffffffffffffffffffffffffffffffffffffff163373ffffffffffffffffffffffffffffffffffffffff161461242757600080fd5b6002826064811061243b5761243a6139b8565b5b60150201601301549050919050565b600081516020830151915050919050565b6000600160009054906101000a900473ffffffffffffffffffffffffffffffffffffffff1673ffffffffffffffffffffffffffffffffffffffff163373ffffffffffffffffffffffffffffffffffffffff16146124b757600080fd5b6001600283606481106124cd576124cc6139b8565b5b60150201601201819055506000600283606481106124ee576124ed6139b8565b5b60150201600801819055507f94654b3250060d23222c9a81fdafe2f23accfb1dc46fb56b8e4aa75c0776e0fd826040516125289190614221565b60405180910390a160019050919050565b6060600160009054906101000a900473ffffffffffffffffffffffffffffffffffffffff1673ffffffffffffffffffffffffffffffffffffffff163373ffffffffffffffffffffffffffffffffffffffff161461259557600080fd5b7f9dc8a8cab78f19e344d97e9a17a1655efc8d43e96b22a82d74f8199c70d142eb600283606481106125ca576125c96139b8565b5b60150201600801546040516125df919061429b565b60405180910390a160005b600160009054906101000a900473ffffffffffffffffffffffffffffffffffffffff1673ffffffffffffffffffffffffffffffffffffffff166391a3632a846040518263ffffffff1660e01b8152600401612645919061391b565b602060405180830381865afa158015612662573d6000803e3d6000fd5b505050506040513d601f19601f820116820180604052508101906126869190613bd4565b63ffffffff16811015612828576000600284606481106126a9576126a86139b8565b5b6015020160090182815481106126c2576126c16139b8565b5b9060005260206000200160009054906101000a900473ffffffffffffffffffffffffffffffffffffffff1690506000151560028560648110612707576127066139b8565b5b6015020160020160008373ffffffffffffffffffffffffffffffffffffffff1673ffffffffffffffffffffffffffffffffffffffff16815260200190815260200160002060009054906101000a900460ff16151503612814577f530a3977f28343b356cd4d1f0b8b03c9b0bb4968bdf81b0f1d85ced49176e97b8160405161278f919061433b565b60405180910390a1600284606481106127ab576127aa6139b8565b5b60150201600e01819080600181540180825580915050600190039060005260206000200160009091909190916101000a81548173ffffffffffffffffffffffffffffffffffffffff021916908373ffffffffffffffffffffffffffffffffffffffff1602179055505b50808061282090613c30565b9150506125ea565b506002826064811061283d5761283c6139b8565b5b60150201600e018054806020026020016040519081016040528092919081815260200182805480156128c457602002820191906000526020600020905b8160009054906101000a900473ffffffffffffffffffffffffffffffffffffffff1673ffffffffffffffffffffffffffffffffffffffff168152602001906001019080831161287a575b50505050509050919050565b6000600160009054906101000a900473ffffffffffffffffffffffffffffffffffffffff1673ffffffffffffffffffffffffffffffffffffffff163373ffffffffffffffffffffffffffffffffffffffff161461292c57600080fd5b600283606481106129405761293f6139b8565b5b6015020160020160008373ffffffffffffffffffffffffffffffffffffffff1673ffffffffffffffffffffffffffffffffffffffff16815260200190815260200160002060009054906101000a900460ff16905092915050565b600080600080600090505b600285606481106129b9576129b86139b8565b5b60150201600a0180549050811015612c0957600285606481106129df576129de6139b8565b5b60150201600a0181815481106129f8576129f76139b8565b5b9060005260206000200160009054906101000a900473ffffffffffffffffffffffffffffffffffffffff1691506001151560028660648110612a3d57612a3c6139b8565b5b6015020160050160008473ffffffffffffffffffffffffffffffffffffffff1673ffffffffffffffffffffffffffffffffffffffff16815260200190815260200160002060009054906101000a900460ff16151503612b485760028560648110612aaa57612aa96139b8565b5b60150201600c01829080600181540180825580915050600190039060005260206000200160009091909190916101000a81548173ffffffffffffffffffffffffffffffffffffffff021916908373ffffffffffffffffffffffffffffffffffffffff16021790555060028560648110612b2657612b256139b8565b5b60150201600f016000815480929190612b3e90613c30565b9190505550612bf6565b60028560648110612b5c57612b5b6139b8565b5b60150201600d01829080600181540180825580915050600190039060005260206000200160009091909190916101000a81548173ffffffffffffffffffffffffffffffffffffffff021916908373ffffffffffffffffffffffffffffffffffffffff16021790555060028560648110612bd857612bd76139b8565b5b601502016010016000815480929190612bf090613c30565b91905055505b8080612c0190613c30565b9150506129a5565b5060028460648110612c1e57612c1d6139b8565b5b601502016010015460028560648110612c3a57612c396139b8565b5b60150201600f01541115612d465760019150600160009054906101000a900473ffffffffffffffffffffffffffffffffffffffff1673ffffffffffffffffffffffffffffffffffffffff166330407ad9858460028860648110612ca057612c9f6139b8565b5b60150201600c0160028960648110612cbb57612cba6139b8565b5b60150201600d0160028a60648110612cd657612cd56139b8565b5b60150201600b016040518663ffffffff1660e01b8152600401612cfd959493929190614455565b6020604051808303816000875af1158015612d1c573d6000803e3d6000fd5b505050506040513d601f19601f82011682018060405250810190612d40919061398b565b50612f60565b60028460648110612d5a57612d596139b8565b5b60150201600f015460028560648110612d7657612d756139b8565b5b60150201601001541115612e825760009150600160009054906101000a900473ffffffffffffffffffffffffffffffffffffffff1673ffffffffffffffffffffffffffffffffffffffff166330407ad9858460028860648110612ddc57612ddb6139b8565b5b60150201600d0160028960648110612df757612df66139b8565b5b60150201600c0160028a60648110612e1257612e116139b8565b5b60150201600b016040518663ffffffff1660e01b8152600401612e39959493929190614455565b6020604051808303816000875af1158015612e58573d6000803e3d6000fd5b505050506040513d601f19601f82011682018060405250810190612e7c919061398b565b50612f5f565b600160009054906101000a900473ffffffffffffffffffffffffffffffffffffffff1673ffffffffffffffffffffffffffffffffffffffff1663498d7df08560028760648110612ed557612ed46139b8565b5b60150201600b016040518363ffffffff1660e01b8152600401612ef99291906144bd565b6020604051808303816000875af1158015612f18573d6000803e3d6000fd5b505050506040513d601f19601f82011682018060405250810190612f3c919061398b565b50600160028560648110612f5357612f526139b8565b5b60150201601101819055505b5b7fab982296b91a9b70c6739c96524c481cf0a1714be617e9bb39538f46ad5c880084604051612f8f9190614539565b60405180910390a1600192505050919050565b60008060008080600090505b60028660648110612fc257612fc16139b8565b5b60150201600a01805490508110156130a75760028660648110612fe857612fe76139b8565b5b60150201600a018181548110613001576130006139b8565b5b9060005260206000200160009054906101000a900473ffffffffffffffffffffffffffffffffffffffff16935060028660648110613042576130416139b8565b5b6015020160060160008573ffffffffffffffffffffffffffffffffffffffff1673ffffffffffffffffffffffffffffffffffffffff16815260200190815260200160002054836130929190614567565b9250808061309f90613c30565b915050612fae565b50600285606481106130bc576130bb6139b8565b5b60150201600a0180549050826130d2919061462a565b9050600160009054906101000a900473ffffffffffffffffffffffffffffffffffffffff1673ffffffffffffffffffffffffffffffffffffffff166358621b7a868360028960648110613128576131276139b8565b5b60150201600a0160028a60648110613143576131426139b8565b5b60150201600b016040518563ffffffff1660e01b81526004016131699493929190614694565b6020604051808303816000875af1158015613188573d6000803e3d6000fd5b505050506040513d601f19601f820116820180604052508101906131ac919061398b565b507fab982296b91a9b70c6739c96524c481cf0a1714be617e9bb39538f46ad5c8800856040516131dc9190614733565b60405180910390a160019350505050919050565b828054828255906000526020600020908101928215613269579160200282015b828111156132685782518260006101000a81548173ffffffffffffffffffffffffffffffffffffffff021916908373ffffffffffffffffffffffffffffffffffffffff16021790555091602001919060010190613210565b5b509050613276919061327a565b5090565b5b8082111561329357600081600090555060010161327b565b5090565b6000604051905090565b600080fd5b600080fd5b6000819050919050565b6132be816132ab565b81146132c957600080fd5b50565b6000813590506132db816132b5565b92915050565b6000819050919050565b6132f4816132e1565b81146132ff57600080fd5b50565b600081359050613311816132eb565b92915050565b6000806040838503121561332e5761332d6132a1565b5b600061333c858286016132cc565b925050602061334d85828601613302565b9150509250929050565b60008115159050919050565b61336c81613357565b82525050565b60006020820190506133876000830184613363565b92915050565b6000602082840312156133a3576133a26132a1565b5b60006133b1848285016132cc565b91505092915050565b6133c3816132ab565b82525050565b600081519050919050565b600082825260208201905092915050565b60005b838110156134035780820151818401526020810190506133e8565b83811115613412576000848401525b50505050565b6000601f19601f8301169050919050565b6000613434826133c9565b61343e81856133d4565b935061344e8185602086016133e5565b61345781613418565b840191505092915050565b600061012082019050613478600083018c6133ba565b818103602083015261348a818b613429565b9050613499604083018a6133ba565b6134a660608301896133ba565b6134b360808301886133ba565b6134c060a08301876133ba565b6134cd60c08301866133ba565b6134da60e08301856133ba565b6134e8610100830184613363565b9a9950505050505050505050565b600081519050919050565b600082825260208201905092915050565b6000819050602082019050919050565b600073ffffffffffffffffffffffffffffffffffffffff82169050919050565b600061354d82613522565b9050919050565b61355d81613542565b82525050565b600061356f8383613554565b60208301905092915050565b6000602082019050919050565b6000613593826134f6565b61359d8185613501565b93506135a883613512565b8060005b838110156135d95781516135c08882613563565b97506135cb8361357b565b9250506001810190506135ac565b5085935050505092915050565b600060208201905081810360008301526136008184613588565b905092915050565b61361181613542565b811461361c57600080fd5b50565b60008135905061362e81613608565b92915050565b6000806040838503121561364b5761364a6132a1565b5b6000613659858286016132cc565b925050602061366a8582860161361f565b9150509250929050565b600080fd5b600080fd5b7f4e487b7100000000000000000000000000000000000000000000000000000000600052604160045260246000fd5b6136b682613418565b810181811067ffffffffffffffff821117156136d5576136d461367e565b5b80604052505050565b60006136e8613297565b90506136f482826136ad565b919050565b600067ffffffffffffffff8211156137145761371361367e565b5b61371d82613418565b9050602081019050919050565b82818337600083830152505050565b600061374c613747846136f9565b6136de565b90508281526020810184848401111561376857613767613679565b5b61377384828561372a565b509392505050565b600082601f8301126137905761378f613674565b5b81356137a0848260208601613739565b91505092915050565b6000806000606084860312156137c2576137c16132a1565b5b60006137d0868287016132cc565b935050602084013567ffffffffffffffff8111156137f1576137f06132a6565b5b6137fd8682870161377b565b925050604084013567ffffffffffffffff81111561381e5761381d6132a6565b5b61382a8682870161377b565b9150509250925092565b6000806040838503121561384b5761384a6132a1565b5b6000613859858286016132cc565b925050602061386a858286016132cc565b9150509250929050565b60006020828403121561388a576138896132a1565b5b600082013567ffffffffffffffff8111156138a8576138a76132a6565b5b6138b48482850161377b565b91505092915050565b6000819050919050565b6138d0816138bd565b82525050565b60006020820190506138eb60008301846138c7565b92915050565b6138fa81613542565b82525050565b600060208201905061391560008301846138f1565b92915050565b600060208201905061393060008301846133ba565b92915050565b600060408201905061394b60008301856133ba565b61395860208301846138f1565b9392505050565b61396881613357565b811461397357600080fd5b50565b6000815190506139858161395f565b92915050565b6000602082840312156139a1576139a06132a1565b5b60006139af84828501613976565b91505092915050565b7f4e487b7100000000000000000000000000000000000000000000000000000000600052603260045260246000fd5b600082825260208201905092915050565b7f4e6f646520706c61636564206120636f6d6d6974000000000000000000000000600082015250565b6000613a2e6014836139e7565b9150613a39826139f8565b602082019050919050565b6000604082019050613a5960008301846138f1565b8181036020830152613a6a81613a21565b905092915050565b600067ffffffffffffffff821115613a8d57613a8c61367e565b5b602082029050602081019050919050565b600080fd5b600081519050613ab281613608565b92915050565b6000613acb613ac684613a72565b6136de565b90508083825260208201905060208402830185811115613aee57613aed613a9e565b5b835b81811015613b175780613b038882613aa3565b845260208401935050602081019050613af0565b5050509392505050565b600082601f830112613b3657613b35613674565b5b8151613b46848260208601613ab8565b91505092915050565b600060208284031215613b6557613b646132a1565b5b600082015167ffffffffffffffff811115613b8357613b826132a6565b5b613b8f84828501613b21565b91505092915050565b600063ffffffff82169050919050565b613bb181613b98565b8114613bbc57600080fd5b50565b600081519050613bce81613ba8565b92915050565b600060208284031215613bea57613be96132a1565b5b6000613bf884828501613bbf565b91505092915050565b7f4e487b7100000000000000000000000000000000000000000000000000000000600052601160045260246000fd5b6000613c3b826132ab565b91507fffffffffffffffffffffffffffffffffffffffffffffffffffffffffffffffff8203613c6d57613c6c613c01565b5b600182019050919050565b7f636f6d6d6974732061726520706c616365640000000000000000000000000000600082015250565b6000613cae6012836139e7565b9150613cb982613c78565b602082019050919050565b6000604082019050613cd960008301846133ba565b8181036020830152613cea81613ca1565b905092915050565b7f4e487b7100000000000000000000000000000000000000000000000000000000600052602260045260246000fd5b60006002820490506001821680613d3957607f821691505b602082108103613d4c57613d4b613cf2565b5b50919050565b600081519050613d61816132b5565b92915050565b600060208284031215613d7d57613d7c6132a1565b5b6000613d8b84828501613d52565b91505092915050565b600081905092915050565b6000613daa826133c9565b613db48185613d94565b9350613dc48185602086016133e5565b80840191505092915050565b6000613ddc8285613d9f565b9150613de88284613d9f565b91508190509392505050565b613dfd816132e1565b82525050565b6000604082019050613e186000830185613df4565b613e256020830184613df4565b9392505050565b7f77652061726520696e2074686520666972737420696620626c6f636b00000000600082015250565b6000613e62601c836139e7565b9150613e6d82613e2c565b602082019050919050565b60006020820190508181036000830152613e9181613e55565b9050919050565b7f57652061726520696e2074686520656c736520626c6f636b0000000000000000600082015250565b6000613ece6018836139e7565b9150613ed982613e98565b602082019050919050565b60006020820190508181036000830152613efd81613ec1565b9050919050565b6000819050919050565b6000613f29613f24613f1f84613b98565b613f04565b6132ab565b9050919050565b613f3981613f0e565b82525050565b7f6e756d626572206f66206f7261636c6573000000000000000000000000000000600082015250565b6000613f756011836139e7565b9150613f8082613f3f565b602082019050919050565b6000604082019050613fa06000830184613f30565b8181036020830152613fb181613f68565b905092915050565b7f6e756d626572206f662074696d6564206f7574206f7261636c65730000000000600082015250565b6000613fef601b836139e7565b9150613ffa82613fb9565b602082019050919050565b600060408201905061401a6000830184613f30565b818103602083015261402b81613fe2565b905092915050565b7f6f7261636c6520636f756e746572000000000000000000000000000000000000600082015250565b6000614069600e836139e7565b915061407482614033565b602082019050919050565b600060408201905061409460008301846133ba565b81810360208301526140a58161405c565b905092915050565b60006140b882613b98565b91506140c383613b98565b9250828210156140d6576140d5613c01565b5b828203905092915050565b7f416c6c2072657665616c732068617665206265656e20706c6163656400000000600082015250565b6000614117601c836139e7565b9150614122826140e1565b602082019050919050565b600060408201905061414260008301846133ba565b81810360208301526141538161410a565b905092915050565b7f466f7263652072657665616c732068617665206265656e20706c616365640000600082015250565b6000614191601e836139e7565b915061419c8261415b565b602082019050919050565b60006040820190506141bc60008301846133ba565b81810360208301526141cd81614184565b905092915050565b7f466f72636520636f6d6d6974732061726520706c616365640000000000000000600082015250565b600061420b6018836139e7565b9150614216826141d5565b602082019050919050565b600060408201905061423660008301846133ba565b8181036020830152614247816141fe565b905092915050565b7f6c656e20696e20756e2d726573706f6e642063616c6c00000000000000000000600082015250565b60006142856016836139e7565b91506142908261424f565b602082019050919050565b60006040820190506142b060008301846133ba565b81810360208301526142c181614278565b905092915050565b7f61646472657373206f6620756e2d726573706f6e646564206f7261636c65206e60008201527f6f64650000000000000000000000000000000000000000000000000000000000602082015250565b60006143256023836139e7565b9150614330826142c9565b604082019050919050565b600060408201905061435060008301846138f1565b818103602083015261436181614318565b905092915050565b600081549050919050565b60008190508160005260206000209050919050565b60008160001c9050919050565b600073ffffffffffffffffffffffffffffffffffffffff82169050919050565b60006143c96143c483614389565b614396565b9050919050565b60006143dc82546143b6565b9050919050565b6000600182019050919050565b60006143fb82614369565b6144058185613501565b935061441083614374565b8060005b8381101561444857614425826143d0565b61442f8882613563565b975061443a836143e3565b925050600181019050614414565b5085935050505092915050565b600060a08201905061446a60008301886133ba565b6144776020830187613363565b818103604083015261448981866143f0565b9050818103606083015261449d81856143f0565b905081810360808301526144b181846143f0565b90509695505050505050565b60006040820190506144d260008301856133ba565b81810360208301526144e481846143f0565b90509392505050565b7f566f7465204167677265676174696f6e20436f6d706c65746500000000000000600082015250565b60006145236019836139e7565b915061452e826144ed565b602082019050919050565b600060408201905061454e60008301846133ba565b818103602083015261455f81614516565b905092915050565b6000614572826138bd565b915061457d836138bd565b9250817f7fffffffffffffffffffffffffffffffffffffffffffffffffffffffffffffff038313600083121516156145b8576145b7613c01565b5b817f80000000000000000000000000000000000000000000000000000000000000000383126000831216156145f0576145ef613c01565b5b828201905092915050565b7f4e487b7100000000000000000000000000000000000000000000000000000000600052601260045260246000fd5b6000614635826138bd565b9150614640836138bd565b9250826146505761464f6145fb565b5b600160000383147f80000000000000000000000000000000000000000000000000000000000000008314161561468957614688613c01565b5b828205905092915050565b60006080820190506146a960008301876133ba565b6146b660208301866138c7565b81810360408301526146c881856143f0565b905081810360608301526146dc81846143f0565b905095945050505050565b7f41766572616765204167677265676174696f6e20436f6d706c65746500000000600082015250565b600061471d601c836139e7565b9150614728826146e7565b602082019050919050565b600060408201905061474860008301846133ba565b818103602083015261475981614710565b90509291505056fea264697066735822122065d6e86c05f90136e00c28a6fc17bf295d53029eb09c95f4949a82c0d56769a964736f6c634300080f0033",
  "immutableReferences": {},
  "source": "// SPDX-License-Identifier: MIT\npragma solidity ^0.8.0;\n\nimport \"./OracleRequestContract.sol\";\n\ncontract AggregatorContract {\n    address public owner; // owner of contract\n    OracleRequestContract orc; // instance of ORC contract\n    Answer[100] public answers; // array of 100 Answer structs to keep track of answers\n    struct Answer {\n        //bytes test;\n        uint256 requestID; // the request ID\n        bytes dataType; // data type of request 'bool' 'temp' etc\n        mapping (address => bool) oracleHasSubmittedCommit; // authorised oracles, marked true when committed\n        mapping(address => bool) oracleHasSubmittedReveal; // authorised oracles, marked true when revealed\n        mapping (address => bytes32) oracleCommits; // add their result to a map with their address as index\n        mapping (address => bool) oracleVoteReveals; // adds oracle answers to addresses\n        mapping (address => int256) oracleAverageReveals; // adds oracle answers to addresses\n        mapping (uint256 => address) oracleAddresses; // uint to address to match counter and iterate through\n        uint256 oracleCounter; // keep an index of the oracles\n        address[] oracleList;\n        address[] correctRevealOracles; // dynamic array to keep track of correct oracle address to be passed to ORC\n        address[] incorrectRevealOracles; // dynamic array to keep track of incorrect oracle address to be penalised\n        address[] trueOracleResults; // oracles that answer true\n        address[] falseOracleResults; // oracles that answer false\n        address[] unRespondedOracles;\n        uint t; // a true counter;\n        uint f; // a false counter: we need this under (n-1)/3\n        uint cancelFlag; // cancelFlag == 0, == 1 if canceled\n        uint commitsFlag; // 0 = needing commits still 1 = commits are complete\n        uint revealsFlag; // 0 = needing reveals still 1 = reveals are complete\n        bool lastOracle; // last oracle\n\n    }\n\n    event AggregationCompleted(uint256, string); // emits logs once the aggregation is complete\n    event LogHashes(bytes32, bytes32); // emits logs of hashes\n    event CommitsPlaced(uint, string); // emits a commits placed event\n    event RevealsPlaced(uint, string); // emits reveals placed event\n    event Logging(string);\n    event LogBool(bool);\n    event LogInt(int256);\n    event AddressLogging(address, string);\n    event LogNumOr(uint, string);\n    event PrintAddress(address, string);\n\n\n    // @notice constructor called when deployed\n    constructor(address _addr)\n    {\n        owner = msg.sender; // set deploying address as owner\n        orc = OracleRequestContract(_addr); // initialise the Oracle Request Contract contract\n    }\n    // @notice commitResponse oracles first commit a hash of their answer and a random string\n    function commitResponse(uint256 _requestID, bytes32 _commitHash )\n    public\n    onlyAuthorisedOraclesYetToCommit(_requestID)\n    cancelFlagCheck(_requestID)\n    commitFlagCheck(_requestID)\n    returns(bool)\n    {\n        emit AddressLogging(msg.sender, \"Node placed a commit\");\n        if (answers[_requestID].requestID == 0) {\n            answers[_requestID].requestID = _requestID; // assign correct id\n            answers[_requestID].t = 0;\n            answers[_requestID].f = 0;\n            answers[_requestID].oracleList = orc.getOracleAddresses(_requestID);\n        }\n        if (answers[_requestID].oracleCounter < orc.getNumberOfOracles(_requestID)) {\n            answers[_requestID].oracleCommits[msg.sender] = _commitHash; // oracle nodes add commit to map\n            answers[_requestID].oracleHasSubmittedCommit[msg.sender] = true; // it has now submitted.\n            answers[_requestID].oracleAddresses[answers[_requestID].oracleCounter] = msg.sender; // map counter to oracle addr\n            answers[_requestID].oracleCounter++; // once this is equal we know to enter next if statement\n        }\n        if (answers[_requestID].oracleCounter == orc.getNumberOfOracles(_requestID)) {\n            answers[_requestID].commitsFlag = 1;\n            answers[_requestID].oracleCounter = 0;\n            emit CommitsPlaced(_requestID, \"commits are placed\");\n        }\n        return true;\n    }\n    // @notice called by oracle node once all commits are in and a response with the result and secret is given to check against commit\n    // @param _requestID\n    // @param _result, the answer that was fetch by IoT\n    // @param _secret, the string that was hashed with the IoT result in the commit\n    function revealVoteResponse(uint256 _requestID, bytes memory _result, bytes memory _secret)\n    public\n    onlyAuthorisedOraclesYetToReveal(_requestID) // only oracles yet to reveal\n    cancelFlagCheck(_requestID) // make sure cancel flag = 0\n    commitCompleteFlagCheck(_requestID) // checks all commits are in and flag is equal to 1\n    revealsFlagCheck(_requestID) // checks that reveal flag is 0 otherwise function will not run\n    onlyVoteAggregationType(_requestID) // makes sure only vote responses are received\n    {\n\n\n        // need to check the hash of the _result and _secret against answers[_requestID].oracleCommits[msg.sender]\n        bytes32 revealHash =  keccak256(abi.encodePacked(_secret, _result));// hash of _result and _secret\n        emit LogHashes(answers[_requestID].oracleCommits[msg.sender], revealHash);\n        bool decodedResult = decodeBool(_result);\n        emit LogBool(decodedResult);\n        if (answers[_requestID].oracleCommits[msg.sender] == revealHash) {\n\n            answers[_requestID].oracleVoteReveals[msg.sender] = decodedResult; // add oracles answer to reveals\n            answers[_requestID].oracleHasSubmittedReveal[msg.sender] = true; // has submitted so can only vote once\n            answers[_requestID].correctRevealOracles.push(msg.sender); // adds to the correct reveals for aggregation\n            emit Logging(\"we are in the first if block\");\n\n        } else {\n            emit Logging(\"We are in the else block\");\n            answers[_requestID].incorrectRevealOracles.push(msg.sender); // an incorrect match of commit and reveal hashes\n            answers[_requestID].oracleHasSubmittedReveal[msg.sender] = true; // has submitted so can only vote once\n        }\n        emit LogNumOr(orc.getNumberOfOracles(_requestID), \"number of oracles\");\n        emit LogNumOr(orc.getTimeoutOracleLength(_requestID), \"number of timed out oracles\");\n        emit LogNumOr(answers[_requestID].oracleCounter, \"oracle counter\");\n        if (answers[_requestID].oracleCounter == ((orc.getNumberOfOracles(_requestID) -\n        orc.getTimeoutOracleLength(_requestID))- 1)){\n            emit RevealsPlaced(_requestID, \"All reveals have been placed\");\n            answers[_requestID].revealsFlag = 1;\n            voteAggregation(_requestID); // once number of oracles has been reached call voteAggregation\n        }\n        answers[_requestID].oracleCounter++; // increment counter for next oracle\n    }\n    // @notice called by oracle node once all commits are in and a response with the result and secret is given to check against commit\n    // @param _requestID\n    // @param _result, the answer that was fetch by IoT\n    // @param _secret, the string that was hashed with the IoT result in the commit\n    function revealAverageResponse(\n        uint256 _requestID,\n        bytes memory _result,\n        bytes memory _secret)\n    public\n    onlyAuthorisedOraclesYetToReveal(_requestID) // only oracles yet to reveal\n    cancelFlagCheck(_requestID) // make sure cancel flag = 0\n    commitCompleteFlagCheck(_requestID) // checks all commits are in and flag is equal to 1\n    revealsFlagCheck(_requestID) // checks that reveal flag is 0 otherwise function will not run\n    onlyAverageAggregationType(_requestID) // makes sure only average responses are received\n    returns(bool){\n        // need to check the hash of the _result and _secret against answers[_requestID].oracleCommits[msg.sender]\n        int256 decodeResult = decodeInt(_result);\n        bytes32 revealHash = keccak256(abi.encodePacked(_secret, _result)); // hash of _result and _secret\n        emit LogHashes(answers[_requestID].oracleCommits[msg.sender], revealHash);\n        emit LogInt(decodeResult);\n        if (answers[_requestID].oracleCommits[msg.sender] == revealHash) {\n            answers[_requestID].oracleAverageReveals[msg.sender] = decodeResult; // adds the int result to map\n            answers[_requestID].oracleHasSubmittedReveal[msg.sender] = true; // can only submit once\n            answers[_requestID].correctRevealOracles.push(msg.sender); // adds correct oracles for aggregation\n        } else {\n            answers[_requestID].incorrectRevealOracles.push(msg.sender); // an incorrect match of commit and reveal hashes\n            answers[_requestID].oracleHasSubmittedReveal[msg.sender] = true; // has submitted so can only respond once\n        }\n        if (answers[_requestID].oracleCounter == ((orc.getNumberOfOracles(_requestID) -\n        orc.getTimeoutOracleLength(_requestID)) - 1)){\n            emit RevealsPlaced(_requestID, \"All reveals have been placed\");\n            averageAggregation(_requestID); // once number of oracles has been reached call averageAggregation\n        }\n        answers[_requestID].oracleCounter++; // increment oracle counter\n        return true;\n    }\n    // @notice vote aggregation, splits the correct reveals into true and false lists, then chooses the bool\n    //         with the most votes as correct. and the others are penalised in ORC contract. Majority vote\n    // @param _requestID\n    function voteAggregation(uint256 _requestID) internal returns(bool) {\n        bool _result; // the final result to send to ORC contract\n        address orcAddress; // placeholder oracle address var\n        // loop through the oracles that provided a correct reveal\n        for (uint i = 0; i < answers[_requestID].correctRevealOracles.length; i++) {\n\n            orcAddress = answers[_requestID].correctRevealOracles[i]; // assign address\n            // if the reveal result is true add to true array and increment true counter\n            if (answers[_requestID].oracleVoteReveals[orcAddress] == true ) {\n\n                answers[_requestID].trueOracleResults.push(orcAddress); // add oracle address to true array\n                answers[_requestID].t++; // increment true counter\n            } else { // if false add address to false array\n\n                answers[_requestID].falseOracleResults.push(orcAddress);\n                answers[_requestID].f++; // increment false counter\n            }\n        }\n        // which ever is greater pass to call deliverVoteResponse in true(correct) then false(incorrect) order\n        if (answers[_requestID].t > answers[_requestID].f) {\n            // call\n            //require(!(answers[_requestID].f > (answers[_requestID].oracleCounter) / 3), 'too many incorrect nodes');\n            _result = true; // final result\n            // pass in requestID the result, trueOracleResults as the correct field and falseOracleResults as the incorrect\n            orc.deliverVoteResponse(_requestID, _result, answers[_requestID].trueOracleResults,\n                answers[_requestID].falseOracleResults,\n                answers[_requestID].incorrectRevealOracles);\n        } else if (answers[_requestID].f > answers[_requestID].t) {\n            // which ever is greater pass to call deliverVoteResponse in false(correct) then true(incorrect) order\n            //require(!(answers[_requestID].t > (answers[_requestID].oracleCounter) / 3), 'too many incorrect nodes');\n            _result = false;\n            // pass in requestID the result, falseOracleResults as the correct field and trueOracleResults as the incorrect\n            orc.deliverVoteResponse(_requestID, _result,\n                answers[_requestID].falseOracleResults,\n                answers[_requestID].trueOracleResults,\n                answers[_requestID].incorrectRevealOracles);\n        } else {\n            // when the t and f counters are the same, deadlock as appeared so we need to cancel and refund\n            orc.cancelRequestDueToDeadlock(_requestID, answers[_requestID].incorrectRevealOracles);\n            answers[_requestID].cancelFlag = 1;\n        }\n        emit AggregationCompleted(_requestID, \"Vote Aggregation Complete\");\n        return true;\n    }\n    // @notice averaging aggregation this function takes an average of the correct reveal oracles\n    function averageAggregation(\n        uint256 _requestID)\n    internal\n    returns(bool)\n    {\n        address orcAddress; // placeholder for orcAddress\n        int256 total = 0; // total of the results\n        int256 average; // an average of the results\n        for (uint i=0; i<answers[_requestID].correctRevealOracles.length; i++){\n            orcAddress = answers[_requestID].correctRevealOracles[i]; // orc address\n            total += answers[_requestID].oracleAverageReveals[orcAddress]; // sums the results to total\n        }\n        average = total / int(answers[_requestID].correctRevealOracles.length); // averages the result\n        orc.deliverAverageResponse(\n                _requestID,\n                average,\n                answers[_requestID].correctRevealOracles,\n                    answers[_requestID].incorrectRevealOracles);\n        emit AggregationCompleted(_requestID, \"Average Aggregation Complete\");\n        return true;\n    }\n    // @notice cancel request only ORC contract can call this\n    function cancelRequest(\n        uint256 _requestID)\n    public\n    cancelFlagCheck(_requestID)\n    onlyORC() // only ORC contract can call this function\n    returns(bool)\n    {\n        answers[_requestID].cancelFlag = 1;\n        return true;\n    }\n\n    function getOracleHasSubmittedCommit(\n        uint256 _requestID,\n        address _oracleAddr)\n    onlyORC()\n    external\n    view\n    returns(bool) {\n        return answers[_requestID].oracleHasSubmittedCommit[_oracleAddr];\n    }\n\n    function getOracleHasSubmittedReveal(\n        uint256 _requestID,\n        address _oracleAddr)\n    onlyORC()\n    external\n    view\n    returns(bool)\n    {\n        return answers[_requestID].oracleHasSubmittedReveal[_oracleAddr];\n    }\n\n    function getCommitFlag(\n        uint256 _requestID)\n    onlyORC()\n    external\n    view\n    returns(uint)\n    {\n        return answers[_requestID].commitsFlag;\n    }\n\n    function getRevealFlag(\n        uint256 _requestID)\n    onlyORC()\n    external\n    view\n    returns(uint) {\n        return answers[_requestID].revealsFlag;\n    }\n\n    function getUnRespondedCommitOracles(uint256 _requestID) onlyORC() external returns(address[] memory){\n        emit LogNumOr(answers[_requestID].oracleCounter, \"len in un-respond call\");\n        for (uint i = 0; i < orc.getNumberOfOracles(_requestID); i++) {\n            address orcAdd = answers[_requestID].oracleList[i];\n\n            if (answers[_requestID].oracleHasSubmittedCommit[orcAdd] == false){\n                emit PrintAddress(orcAdd, \"address of un-responded oracle node\");\n                answers[_requestID].unRespondedOracles.push(orcAdd);\n            }\n        }\n        return answers[_requestID].unRespondedOracles;\n    }\n\n    function getUnRespondedRevealOracles(uint256 _requestID) onlyORC() external returns(address[] memory){\n        for (uint i = 0; i < orc.getNumberOfOracles(_requestID); i++) {\n            address orcAdd = answers[_requestID].oracleList[i];\n            if (answers[_requestID].oracleHasSubmittedReveal[orcAdd] == false){\n                answers[_requestID].unRespondedOracles.push(orcAdd);\n            }\n        }\n        return answers[_requestID].unRespondedOracles;\n    }\n\n    function forceCommitsPlaced(uint _requestID) onlyORC() external returns(bool) {\n        answers[_requestID].commitsFlag = 1;\n        answers[_requestID].oracleCounter = 0;\n        emit CommitsPlaced(_requestID, \"Force commits are placed\");\n        return true;\n    }\n\n    function forceRevealsPlaced(uint _requestID , uint256 _aggregationType ) onlyORC() external returns(bool) {\n        answers[_requestID].revealsFlag = 1;\n        emit RevealsPlaced(_requestID, \"Force reveals have been placed\");\n        if (_aggregationType == 1) {\n            voteAggregation(_requestID);\n        } else if (_aggregationType == 2) {\n            averageAggregation(_requestID);\n        }\n        return true;\n    }\n\n    // ***modifiers***\n    modifier onlyAuthorisedOraclesYetToCommit(\n        uint256 _requestID)\n    {\n        // checks that the oracle is in request list\n        require(orc.getOracleForRequest(_requestID, msg.sender));\n        // checks that the oracle hasn't yet committed.\n        require(answers[_requestID].oracleHasSubmittedCommit[msg.sender] == false);\n        _;\n    }\n    modifier onlyAuthorisedOraclesYetToReveal(\n        uint256 _requestID)\n    {\n        // checks that the oracle is in request list\n        require(orc.getOracleForRequest(_requestID, msg.sender));\n        // checks that the oracle hasn't yet revealed.\n        require(answers[_requestID].oracleHasSubmittedReveal[msg.sender] == false);\n        _;\n    }\n    modifier onlyOwner()\n    {\n        require(msg.sender == owner);\n        _;\n    }\n    modifier cancelFlagCheck(\n        uint256 _requestID)\n    {\n        require(answers[_requestID].cancelFlag == 0);\n        _;\n    }\n    modifier commitFlagCheck(uint256 _requestID) {\n        require(answers[_requestID].commitsFlag == 0 );\n        _;\n    }\n    modifier commitCompleteFlagCheck(uint256 _requestID) {\n        require(answers[_requestID].commitsFlag == 1);\n        _;\n    }\n    modifier revealsFlagCheck(uint256 _requestID){\n        require(answers[_requestID].revealsFlag == 0);\n        _;\n    }\n    modifier onlyORC()\n    {\n        require(msg.sender == address(orc));\n        _;\n    }\n    modifier onlyVoteAggregationType(uint256 _requestID) {\n        require(orc.getAggregationType(_requestID) == 1);\n        _;\n    }\n    modifier onlyAverageAggregationType(uint256 _requestID) {\n        require(orc.getAggregationType(_requestID) == 2);\n        _;\n    }\n    function decodeBool(bytes memory data) public pure returns (bool b){\n        assembly {\n        // Load the length of data (first 32 bytes)\n            let len := mload(data)\n        // Load the data after 32 bytes, so add 0x20\n            b := mload(add(data, 0x20))\n        }\n    }\n    function decodeInt(bytes memory data) public pure returns (int256 i) {\n        assembly {\n            let len := mload(data)\n\n            i := mload(add(data, 0x20))\n        }\n    }\n}\n\n",
  "sourcePath": "/home/willp/Documents/MSc_Computer_Science/PROJECT/DEMO_ENV/Smart_Contracts/contracts/AggregatorContract.sol",
  "compiler": {
    "name": "solc",
    "version": "0.8.15+commit.e14f2714.Emscripten.clang"
  },
  "schemaVersion": "3.4.8",
  "updatedAt": "2022-08-28T11:53:37.824Z",
  "networkType": "ethereum",
  "devdoc": {
    "kind": "dev",
    "methods": {},
    "version": 1
  },
  "userdoc": {
    "kind": "user",
    "methods": {},
    "version": 1
  }
}