{
  "contractName": "AggregatorContract",
  "abi": [
    {
      "inputs": [
        {
          "internalType": "address",
          "name": "_addr",
          "type": "address"
        }
      ],
      "stateMutability": "nonpayable",
      "type": "constructor"
    },
    {
      "anonymous": false,
      "inputs": [
        {
          "indexed": false,
          "internalType": "uint256",
          "name": "",
          "type": "uint256"
        },
        {
          "indexed": false,
          "internalType": "string",
          "name": "",
          "type": "string"
        }
      ],
      "name": "AggregationCompleted",
      "type": "event"
    },
    {
      "anonymous": false,
      "inputs": [
        {
          "indexed": false,
          "internalType": "uint256",
          "name": "",
          "type": "uint256"
        },
        {
          "indexed": false,
          "internalType": "string",
          "name": "",
          "type": "string"
        }
      ],
      "name": "CommitsPlaced",
      "type": "event"
    },
    {
      "anonymous": false,
      "inputs": [
        {
          "indexed": false,
          "internalType": "bytes32",
          "name": "",
          "type": "bytes32"
        },
        {
          "indexed": false,
          "internalType": "bytes32",
          "name": "",
          "type": "bytes32"
        }
      ],
      "name": "LogHashes",
      "type": "event"
    },
    {
      "anonymous": false,
      "inputs": [
        {
          "indexed": false,
          "internalType": "address",
          "name": "",
          "type": "address"
        },
        {
          "indexed": false,
          "internalType": "string",
          "name": "",
          "type": "string"
        }
      ],
      "name": "ResponseReceived",
      "type": "event"
    },
    {
      "inputs": [
        {
          "internalType": "uint256",
          "name": "",
          "type": "uint256"
        }
      ],
      "name": "answers",
      "outputs": [
        {
          "internalType": "uint256",
          "name": "requestID",
          "type": "uint256"
        },
        {
          "internalType": "bytes",
          "name": "dataType",
          "type": "bytes"
        },
        {
          "internalType": "uint256",
          "name": "oracleCounter",
          "type": "uint256"
        },
        {
          "internalType": "uint32",
          "name": "t",
          "type": "uint32"
        },
        {
          "internalType": "uint32",
          "name": "f",
          "type": "uint32"
        },
        {
          "internalType": "uint256",
          "name": "cancelFlag",
          "type": "uint256"
        },
        {
          "internalType": "uint256",
          "name": "commitsFlag",
          "type": "uint256"
        },
        {
          "internalType": "uint256",
          "name": "revealsFlag",
          "type": "uint256"
        },
        {
          "internalType": "bool",
          "name": "lastOracle",
          "type": "bool"
        }
      ],
      "stateMutability": "view",
      "type": "function"
    },
    {
      "inputs": [],
      "name": "owner",
      "outputs": [
        {
          "internalType": "address",
          "name": "",
          "type": "address"
        }
      ],
      "stateMutability": "view",
      "type": "function"
    },
    {
      "inputs": [
        {
          "internalType": "uint256",
          "name": "_requestID",
          "type": "uint256"
        },
        {
          "internalType": "bytes32",
          "name": "_commitHash",
          "type": "bytes32"
        }
      ],
      "name": "commitResponse",
      "outputs": [
        {
          "internalType": "bool",
          "name": "",
          "type": "bool"
        }
      ],
      "stateMutability": "nonpayable",
      "type": "function"
    },
    {
      "inputs": [
        {
          "internalType": "uint256",
          "name": "_requestID",
          "type": "uint256"
        },
        {
          "internalType": "bool",
          "name": "_result",
          "type": "bool"
        },
        {
          "internalType": "bytes[]",
          "name": "_secret",
          "type": "bytes[]"
        }
      ],
      "name": "revealVoteResponse",
      "outputs": [
        {
          "internalType": "bool",
          "name": "",
          "type": "bool"
        }
      ],
      "stateMutability": "nonpayable",
      "type": "function"
    },
    {
      "inputs": [
        {
          "internalType": "uint256",
          "name": "_requestID",
          "type": "uint256"
        },
        {
          "internalType": "int256",
          "name": "_result",
          "type": "int256"
        },
        {
          "internalType": "bytes[]",
          "name": "_secret",
          "type": "bytes[]"
        }
      ],
      "name": "revealAverageResponse",
      "outputs": [
        {
          "internalType": "bool",
          "name": "",
          "type": "bool"
        }
      ],
      "stateMutability": "nonpayable",
      "type": "function"
    },
    {
      "inputs": [
        {
          "internalType": "uint256",
          "name": "_requestID",
          "type": "uint256"
        }
      ],
      "name": "cancelRequest",
      "outputs": [
        {
          "internalType": "bool",
          "name": "",
          "type": "bool"
        }
      ],
      "stateMutability": "nonpayable",
      "type": "function"
    }
  ],
  "bytecode": "0x60806040523480156200001157600080fd5b5060405162002f8938038062002f89833981810160405281019062000037919062000129565b336000806101000a81548173ffffffffffffffffffffffffffffffffffffffff021916908373ffffffffffffffffffffffffffffffffffffffff16021790555080600160006101000a81548173ffffffffffffffffffffffffffffffffffffffff021916908373ffffffffffffffffffffffffffffffffffffffff160217905550506200015b565b600080fd5b600073ffffffffffffffffffffffffffffffffffffffff82169050919050565b6000620000f182620000c4565b9050919050565b6200010381620000e4565b81146200010f57600080fd5b50565b6000815190506200012381620000f8565b92915050565b600060208284031215620001425762000141620000bf565b5b6000620001528482850162000112565b91505092915050565b612e1e806200016b6000396000f3fe608060405234801561001057600080fd5b50600436106100625760003560e01c8063074e324d1461006757806317599cc5146100975780633015394c146100cf57806342472ac7146100ff5780638259a8c11461012f5780638da5cb5b1461015f575b600080fd5b610081600480360381019061007c9190611f13565b61017d565b60405161008e9190611f6e565b60405180910390f35b6100b160048036038101906100ac9190611f89565b6106c7565b6040516100c69998979695949392919061207d565b60405180910390f35b6100e960048036038101906100e49190611f89565b6107d0565b6040516100f69190611f6e565b60405180910390f35b61011960048036038101906101149190612358565b610880565b6040516101269190611f6e565b60405180910390f35b610149600480360381019061014491906123fd565b610eba565b6040516101569190611f6e565b60405180910390f35b6101676114e2565b60405161017491906124ad565b60405180910390f35b600082600160009054906101000a900473ffffffffffffffffffffffffffffffffffffffff1673ffffffffffffffffffffffffffffffffffffffff1663a37b354d82336040518363ffffffff1660e01b81526004016101dd9291906124c8565b602060405180830381865afa1580156101fa573d6000803e3d6000fd5b505050506040513d601f19601f8201168201806040525081019061021e9190612506565b61022757600080fd5b600015156002826064811061023f5761023e612533565b5b6010020160020160003373ffffffffffffffffffffffffffffffffffffffff1673ffffffffffffffffffffffffffffffffffffffff16815260200190815260200160002060009054906101000a900460ff1615151461029d57600080fd5b836000600282606481106102b4576102b3612533565b5b60100201600c0154146102c657600080fd5b846000600282606481106102dd576102dc612533565b5b60100201600d0154146102ef57600080fd5b60006002876064811061030557610304612533565b5b60100201600001540361033357856002876064811061032757610326612533565b5b60100201600001819055505b600160009054906101000a900473ffffffffffffffffffffffffffffffffffffffff1673ffffffffffffffffffffffffffffffffffffffff166391a3632a876040518263ffffffff1660e01b815260040161038e9190612562565b602060405180830381865afa1580156103ab573d6000803e3d6000fd5b505050506040513d601f19601f820116820180604052508101906103cf91906125a9565b63ffffffff16600287606481106103e9576103e8612533565b5b6010020160080154101561057d57846002876064811061040c5761040b612533565b5b6010020160040160003373ffffffffffffffffffffffffffffffffffffffff1673ffffffffffffffffffffffffffffffffffffffff1681526020019081526020016000208190555060016002876064811061046a57610469612533565b5b6010020160020160003373ffffffffffffffffffffffffffffffffffffffff1673ffffffffffffffffffffffffffffffffffffffff16815260200190815260200160002060006101000a81548160ff02191690831515021790555033600287606481106104da576104d9612533565b5b601002016007016000600289606481106104f7576104f6612533565b5b6010020160080154815260200190815260200160002060006101000a81548173ffffffffffffffffffffffffffffffffffffffff021916908373ffffffffffffffffffffffffffffffffffffffff1602179055506002866064811061055f5761055e612533565b5b60100201600801600081548092919061057790612605565b91905055505b600160009054906101000a900473ffffffffffffffffffffffffffffffffffffffff1673ffffffffffffffffffffffffffffffffffffffff166391a3632a876040518263ffffffff1660e01b81526004016105d89190612562565b602060405180830381865afa1580156105f5573d6000803e3d6000fd5b505050506040513d601f19601f8201168201806040525081019061061991906125a9565b63ffffffff166002876064811061063357610632612533565b5b6010020160080154036106ba5760016002876064811061065657610655612533565b5b60100201600d018190555060006002876064811061067757610676612533565b5b60100201600801819055507f94654b3250060d23222c9a81fdafe2f23accfb1dc46fb56b8e4aa75c0776e0fd866040516106b191906126aa565b60405180910390a15b6001935050505092915050565b600281606481106106d757600080fd5b601002016000915090508060000154908060010180546106f690612707565b80601f016020809104026020016040519081016040528092919081815260200182805461072290612707565b801561076f5780601f106107445761010080835404028352916020019161076f565b820191906000526020600020905b81548152906001019060200180831161075257829003601f168201915b50505050509080600801549080600b0160009054906101000a900463ffffffff169080600b0160049054906101000a900463ffffffff169080600c01549080600d01549080600e01549080600f0160009054906101000a900460ff16905089565b6000816000600282606481106107e9576107e8612533565b5b60100201600c0154146107fb57600080fd5b600160009054906101000a900473ffffffffffffffffffffffffffffffffffffffff1673ffffffffffffffffffffffffffffffffffffffff163373ffffffffffffffffffffffffffffffffffffffff161461085557600080fd5b60016002846064811061086b5761086a612533565b5b60100201600c01819055506001915050919050565b600083600160009054906101000a900473ffffffffffffffffffffffffffffffffffffffff1673ffffffffffffffffffffffffffffffffffffffff1663a37b354d82336040518363ffffffff1660e01b81526004016108e09291906124c8565b602060405180830381865afa1580156108fd573d6000803e3d6000fd5b505050506040513d601f19601f820116820180604052508101906109219190612506565b61092a57600080fd5b600015156002826064811061094257610941612533565b5b6010020160030160003373ffffffffffffffffffffffffffffffffffffffff1673ffffffffffffffffffffffffffffffffffffffff16815260200190815260200160002060009054906101000a900460ff161515146109a057600080fd5b846000600282606481106109b7576109b6612533565b5b60100201600c0154146109c957600080fd5b856001600282606481106109e0576109df612533565b5b60100201600d0154146109f257600080fd5b86600060028260648110610a0957610a08612533565b5b60100201600e015414610a1b57600080fd5b8760018060009054906101000a900473ffffffffffffffffffffffffffffffffffffffff1673ffffffffffffffffffffffffffffffffffffffff1663e4888222836040518263ffffffff1660e01b8152600401610a789190612562565b602060405180830381865afa158015610a95573d6000803e3d6000fd5b505050506040513d601f19601f82011682018060405250810190610ab9919061274d565b14610ac357600080fd5b60008789604051602001610ad8929190612886565b6040516020818303038152906040528051906020012090508060028b60648110610b0557610b04612533565b5b6010020160040160003373ffffffffffffffffffffffffffffffffffffffff1673ffffffffffffffffffffffffffffffffffffffff1681526020019081526020016000205403610cb1578860028b60648110610b6457610b63612533565b5b6010020160050160003373ffffffffffffffffffffffffffffffffffffffff1673ffffffffffffffffffffffffffffffffffffffff16815260200190815260200160002060006101000a81548160ff021916908315150217905550600160028b60648110610bd557610bd4612533565b5b6010020160030160003373ffffffffffffffffffffffffffffffffffffffff1673ffffffffffffffffffffffffffffffffffffffff16815260200190815260200160002060006101000a81548160ff02191690831515021790555060028a60648110610c4457610c43612533565b5b60100201600901339080600181540180825580915050600190039060005260206000200160009091909190916101000a81548173ffffffffffffffffffffffffffffffffffffffff021916908373ffffffffffffffffffffffffffffffffffffffff160217905550610d9f565b60028a60648110610cc557610cc4612533565b5b60100201600a01339080600181540180825580915050600190039060005260206000200160009091909190916101000a81548173ffffffffffffffffffffffffffffffffffffffff021916908373ffffffffffffffffffffffffffffffffffffffff160217905550600160028b60648110610d4357610d42612533565b5b6010020160030160003373ffffffffffffffffffffffffffffffffffffffff1673ffffffffffffffffffffffffffffffffffffffff16815260200190815260200160002060006101000a81548160ff0219169083151502179055505b60028a60648110610db357610db2612533565b5b601002016008016000815480929190610dcb90612605565b919050555060018060009054906101000a900473ffffffffffffffffffffffffffffffffffffffff1673ffffffffffffffffffffffffffffffffffffffff166391a3632a8c6040518263ffffffff1660e01b8152600401610e2c9190612562565b602060405180830381865afa158015610e49573d6000803e3d6000fd5b505050506040513d601f19601f82011682018060405250810190610e6d91906125a9565b610e7791906128b6565b63ffffffff1660028b60648110610e9157610e90612533565b5b601002016008015403610ea957610ea78a611506565b505b600196505050505050509392505050565b600083600160009054906101000a900473ffffffffffffffffffffffffffffffffffffffff1673ffffffffffffffffffffffffffffffffffffffff1663a37b354d82336040518363ffffffff1660e01b8152600401610f1a9291906124c8565b602060405180830381865afa158015610f37573d6000803e3d6000fd5b505050506040513d601f19601f82011682018060405250810190610f5b9190612506565b610f6457600080fd5b6000151560028260648110610f7c57610f7b612533565b5b6010020160030160003373ffffffffffffffffffffffffffffffffffffffff1673ffffffffffffffffffffffffffffffffffffffff16815260200190815260200160002060009054906101000a900460ff16151514610fda57600080fd5b84600060028260648110610ff157610ff0612533565b5b60100201600c01541461100357600080fd5b8560016002826064811061101a57611019612533565b5b60100201600d01541461102c57600080fd5b8660006002826064811061104357611042612533565b5b60100201600e01541461105557600080fd5b876002600160009054906101000a900473ffffffffffffffffffffffffffffffffffffffff1673ffffffffffffffffffffffffffffffffffffffff1663e4888222836040518263ffffffff1660e01b81526004016110b39190612562565b602060405180830381865afa1580156110d0573d6000803e3d6000fd5b505050506040513d601f19601f820116820180604052508101906110f4919061274d565b146110fe57600080fd5b600087896040516020016111139291906128f9565b6040516020818303038152906040528051906020012090508060028b606481106111405761113f612533565b5b6010020160040160003373ffffffffffffffffffffffffffffffffffffffff1673ffffffffffffffffffffffffffffffffffffffff16815260200190815260200160002054036112d9578860028b6064811061119f5761119e612533565b5b6010020160060160003373ffffffffffffffffffffffffffffffffffffffff1673ffffffffffffffffffffffffffffffffffffffff16815260200190815260200160002081905550600160028b606481106111fd576111fc612533565b5b6010020160030160003373ffffffffffffffffffffffffffffffffffffffff1673ffffffffffffffffffffffffffffffffffffffff16815260200190815260200160002060006101000a81548160ff02191690831515021790555060028a6064811061126c5761126b612533565b5b60100201600901339080600181540180825580915050600190039060005260206000200160009091909190916101000a81548173ffffffffffffffffffffffffffffffffffffffff021916908373ffffffffffffffffffffffffffffffffffffffff1602179055506113c7565b60028a606481106112ed576112ec612533565b5b60100201600a01339080600181540180825580915050600190039060005260206000200160009091909190916101000a81548173ffffffffffffffffffffffffffffffffffffffff021916908373ffffffffffffffffffffffffffffffffffffffff160217905550600160028b6064811061136b5761136a612533565b5b6010020160030160003373ffffffffffffffffffffffffffffffffffffffff1673ffffffffffffffffffffffffffffffffffffffff16815260200190815260200160002060006101000a81548160ff0219169083151502179055505b60028a606481106113db576113da612533565b5b6010020160080160008154809291906113f390612605565b919050555060018060009054906101000a900473ffffffffffffffffffffffffffffffffffffffff1673ffffffffffffffffffffffffffffffffffffffff166391a3632a8c6040518263ffffffff1660e01b81526004016114549190612562565b602060405180830381865afa158015611471573d6000803e3d6000fd5b505050506040513d601f19601f8201168201806040525081019061149591906125a9565b61149f91906128b6565b63ffffffff1660028b606481106114b9576114b8612533565b5b6010020160080154036114d1576114cf8a611c7c565b505b600196505050505050509392505050565b60008054906101000a900473ffffffffffffffffffffffffffffffffffffffff1681565b600060608060008060005b6002876064811061152557611524612533565b5b60100201600901805490508110156117cd576002876064811061154b5761154a612533565b5b60100201600901818154811061156457611563612533565b5b9060005260206000200160009054906101000a900473ffffffffffffffffffffffffffffffffffffffff16915060011515600288606481106115a9576115a8612533565b5b6010020160050160008473ffffffffffffffffffffffffffffffffffffffff1673ffffffffffffffffffffffffffffffffffffffff16815260200190815260200160002060009054906101000a900460ff161515036116e05781856002896064811061161857611617612533565b5b60100201600b0160009054906101000a900463ffffffff1663ffffffff168151811061164757611646612533565b5b602002602001019073ffffffffffffffffffffffffffffffffffffffff16908173ffffffffffffffffffffffffffffffffffffffff16815250506002876064811061169557611694612533565b5b60100201600b01600081819054906101000a900463ffffffff16809291906116bc90612929565b91906101000a81548163ffffffff021916908363ffffffff160217905550506117ba565b8184600289606481106116f6576116f5612533565b5b60100201600b0160049054906101000a900463ffffffff1663ffffffff168151811061172557611724612533565b5b602002602001019073ffffffffffffffffffffffffffffffffffffffff16908173ffffffffffffffffffffffffffffffffffffffff16815250506002876064811061177357611772612533565b5b60100201600b01600481819054906101000a900463ffffffff168092919061179a90612929565b91906101000a81548163ffffffff021916908363ffffffff160217905550505b80806117c590612605565b915050611511565b50600286606481106117e2576117e1612533565b5b60100201600b0160049054906101000a900463ffffffff1663ffffffff166002876064811061181457611813612533565b5b60100201600b0160009054906101000a900463ffffffff1663ffffffff1611156119b05760036001600288606481106118505761184f612533565b5b60100201600801546118629190612955565b61186c91906129b8565b600287606481106118805761187f612533565b5b60100201600b0160049054906101000a900463ffffffff1663ffffffff1611156118df576040517f08c379a00000000000000000000000000000000000000000000000000000000081526004016118d690612a35565b60405180910390fd5b60019150600160009054906101000a900473ffffffffffffffffffffffffffffffffffffffff1673ffffffffffffffffffffffffffffffffffffffff166330407ad98784878760028c6064811061193957611938612533565b5b60100201600a016040518663ffffffff1660e01b8152600401611960959493929190612bff565b6020604051808303816000875af115801561197f573d6000803e3d6000fd5b505050506040513d601f19601f820116820180604052508101906119a39190612506565b5081945050505050611c77565b600286606481106119c4576119c3612533565b5b60100201600b0160009054906101000a900463ffffffff1663ffffffff16600287606481106119f6576119f5612533565b5b60100201600b0160049054906101000a900463ffffffff1663ffffffff161115611b92576003600160028860648110611a3257611a31612533565b5b6010020160080154611a449190612955565b611a4e91906129b8565b60028760648110611a6257611a61612533565b5b60100201600b0160009054906101000a900463ffffffff1663ffffffff161115611ac1576040517f08c379a0000000000000000000000000000000000000000000000000000000008152600401611ab890612a35565b60405180910390fd5b60009150600160009054906101000a900473ffffffffffffffffffffffffffffffffffffffff1673ffffffffffffffffffffffffffffffffffffffff166330407ad98784868860028c60648110611b1b57611b1a612533565b5b60100201600a016040518663ffffffff1660e01b8152600401611b42959493929190612bff565b6020604051808303816000875af1158015611b61573d6000803e3d6000fd5b505050506040513d601f19601f82011682018060405250810190611b859190612506565b5081945050505050611c77565b600160009054906101000a900473ffffffffffffffffffffffffffffffffffffffff1673ffffffffffffffffffffffffffffffffffffffff1663498d7df08760028960648110611be557611be4612533565b5b60100201600a016040518363ffffffff1660e01b8152600401611c09929190612c67565b6020604051808303816000875af1158015611c28573d6000803e3d6000fd5b505050506040513d601f19601f82011682018060405250810190611c4c9190612506565b50600160028760648110611c6357611c62612533565b5b60100201600c018190555060009450505050505b919050565b60008060008080600090505b60028660648110611c9c57611c9b612533565b5b6010020160090180549050811015611d815760028660648110611cc257611cc1612533565b5b601002016009018181548110611cdb57611cda612533565b5b9060005260206000200160009054906101000a900473ffffffffffffffffffffffffffffffffffffffff16935060028660648110611d1c57611d1b612533565b5b6010020160060160008573ffffffffffffffffffffffffffffffffffffffff1673ffffffffffffffffffffffffffffffffffffffff1681526020019081526020016000205483611d6c9190612c97565b92508080611d7990612605565b915050611c88565b5060028560648110611d9657611d95612533565b5b601002016009018054905082611dac9190612d2b565b9050600160009054906101000a900473ffffffffffffffffffffffffffffffffffffffff1673ffffffffffffffffffffffffffffffffffffffff166358621b7a868360028960648110611e0257611e01612533565b5b6010020160090160028a60648110611e1d57611e1c612533565b5b60100201600a016040518563ffffffff1660e01b8152600401611e439493929190612d95565b6020604051808303816000875af1158015611e62573d6000803e3d6000fd5b505050506040513d601f19601f82011682018060405250810190611e869190612506565b5060019350505050919050565b6000604051905090565b600080fd5b600080fd5b6000819050919050565b611eba81611ea7565b8114611ec557600080fd5b50565b600081359050611ed781611eb1565b92915050565b6000819050919050565b611ef081611edd565b8114611efb57600080fd5b50565b600081359050611f0d81611ee7565b92915050565b60008060408385031215611f2a57611f29611e9d565b5b6000611f3885828601611ec8565b9250506020611f4985828601611efe565b9150509250929050565b60008115159050919050565b611f6881611f53565b82525050565b6000602082019050611f836000830184611f5f565b92915050565b600060208284031215611f9f57611f9e611e9d565b5b6000611fad84828501611ec8565b91505092915050565b611fbf81611ea7565b82525050565b600081519050919050565b600082825260208201905092915050565b60005b83811015611fff578082015181840152602081019050611fe4565b8381111561200e576000848401525b50505050565b6000601f19601f8301169050919050565b600061203082611fc5565b61203a8185611fd0565b935061204a818560208601611fe1565b61205381612014565b840191505092915050565b600063ffffffff82169050919050565b6120778161205e565b82525050565b600061012082019050612093600083018c611fb6565b81810360208301526120a5818b612025565b90506120b4604083018a611fb6565b6120c1606083018961206e565b6120ce608083018861206e565b6120db60a0830187611fb6565b6120e860c0830186611fb6565b6120f560e0830185611fb6565b612103610100830184611f5f565b9a9950505050505050505050565b61211a81611f53565b811461212557600080fd5b50565b60008135905061213781612111565b92915050565b600080fd5b7f4e487b7100000000000000000000000000000000000000000000000000000000600052604160045260246000fd5b61217a82612014565b810181811067ffffffffffffffff8211171561219957612198612142565b5b80604052505050565b60006121ac611e93565b90506121b88282612171565b919050565b600067ffffffffffffffff8211156121d8576121d7612142565b5b602082029050602081019050919050565b600080fd5b600080fd5b600067ffffffffffffffff82111561220e5761220d612142565b5b61221782612014565b9050602081019050919050565b82818337600083830152505050565b6000612246612241846121f3565b6121a2565b905082815260208101848484011115612262576122616121ee565b5b61226d848285612224565b509392505050565b600082601f83011261228a5761228961213d565b5b813561229a848260208601612233565b91505092915050565b60006122b66122b1846121bd565b6121a2565b905080838252602082019050602084028301858111156122d9576122d86121e9565b5b835b8181101561232057803567ffffffffffffffff8111156122fe576122fd61213d565b5b80860161230b8982612275565b855260208501945050506020810190506122db565b5050509392505050565b600082601f83011261233f5761233e61213d565b5b813561234f8482602086016122a3565b91505092915050565b60008060006060848603121561237157612370611e9d565b5b600061237f86828701611ec8565b935050602061239086828701612128565b925050604084013567ffffffffffffffff8111156123b1576123b0611ea2565b5b6123bd8682870161232a565b9150509250925092565b6000819050919050565b6123da816123c7565b81146123e557600080fd5b50565b6000813590506123f7816123d1565b92915050565b60008060006060848603121561241657612415611e9d565b5b600061242486828701611ec8565b9350506020612435868287016123e8565b925050604084013567ffffffffffffffff81111561245657612455611ea2565b5b6124628682870161232a565b9150509250925092565b600073ffffffffffffffffffffffffffffffffffffffff82169050919050565b60006124978261246c565b9050919050565b6124a78161248c565b82525050565b60006020820190506124c2600083018461249e565b92915050565b60006040820190506124dd6000830185611fb6565b6124ea602083018461249e565b9392505050565b60008151905061250081612111565b92915050565b60006020828403121561251c5761251b611e9d565b5b600061252a848285016124f1565b91505092915050565b7f4e487b7100000000000000000000000000000000000000000000000000000000600052603260045260246000fd5b60006020820190506125776000830184611fb6565b92915050565b6125868161205e565b811461259157600080fd5b50565b6000815190506125a38161257d565b92915050565b6000602082840312156125bf576125be611e9d565b5b60006125cd84828501612594565b91505092915050565b7f4e487b7100000000000000000000000000000000000000000000000000000000600052601160045260246000fd5b600061261082611ea7565b91507fffffffffffffffffffffffffffffffffffffffffffffffffffffffffffffffff8203612642576126416125d6565b5b600182019050919050565b600082825260208201905092915050565b7f636f6d6d6974732061726520706c616365640000000000000000000000000000600082015250565b600061269460128361264d565b915061269f8261265e565b602082019050919050565b60006040820190506126bf6000830184611fb6565b81810360208301526126d081612687565b905092915050565b7f4e487b7100000000000000000000000000000000000000000000000000000000600052602260045260246000fd5b6000600282049050600182168061271f57607f821691505b602082108103612732576127316126d8565b5b50919050565b60008151905061274781611eb1565b92915050565b60006020828403121561276357612762611e9d565b5b600061277184828501612738565b91505092915050565b600081519050919050565b600082825260208201905092915050565b6000819050602082019050919050565b600082825260208201905092915050565b60006127c282611fc5565b6127cc81856127a6565b93506127dc818560208601611fe1565b6127e581612014565b840191505092915050565b60006127fc83836127b7565b905092915050565b6000602082019050919050565b600061281c8261277a565b6128268185612785565b93508360208202850161283885612796565b8060005b85811015612874578484038952815161285585826127f0565b945061286083612804565b925060208a0199505060018101905061283c565b50829750879550505050505092915050565b600060408201905081810360008301526128a08185612811565b90506128af6020830184611f5f565b9392505050565b60006128c18261205e565b91506128cc8361205e565b9250828210156128df576128de6125d6565b5b828203905092915050565b6128f3816123c7565b82525050565b600060408201905081810360008301526129138185612811565b905061292260208301846128ea565b9392505050565b60006129348261205e565b915063ffffffff820361294a576129496125d6565b5b600182019050919050565b600061296082611ea7565b915061296b83611ea7565b92508282101561297e5761297d6125d6565b5b828203905092915050565b7f4e487b7100000000000000000000000000000000000000000000000000000000600052601260045260246000fd5b60006129c382611ea7565b91506129ce83611ea7565b9250826129de576129dd612989565b5b828204905092915050565b7f746f6f206d616e7920696e636f7272656374206e6f6465730000000000000000600082015250565b6000612a1f60188361264d565b9150612a2a826129e9565b602082019050919050565b60006020820190508181036000830152612a4e81612a12565b9050919050565b600081519050919050565b600082825260208201905092915050565b6000819050602082019050919050565b612a8a8161248c565b82525050565b6000612a9c8383612a81565b60208301905092915050565b6000602082019050919050565b6000612ac082612a55565b612aca8185612a60565b9350612ad583612a71565b8060005b83811015612b06578151612aed8882612a90565b9750612af883612aa8565b925050600181019050612ad9565b5085935050505092915050565b600081549050919050565b60008190508160005260206000209050919050565b60008160001c9050919050565b600073ffffffffffffffffffffffffffffffffffffffff82169050919050565b6000612b73612b6e83612b33565b612b40565b9050919050565b6000612b868254612b60565b9050919050565b6000600182019050919050565b6000612ba582612b13565b612baf8185612a60565b9350612bba83612b1e565b8060005b83811015612bf257612bcf82612b7a565b612bd98882612a90565b9750612be483612b8d565b925050600181019050612bbe565b5085935050505092915050565b600060a082019050612c146000830188611fb6565b612c216020830187611f5f565b8181036040830152612c338186612ab5565b90508181036060830152612c478185612ab5565b90508181036080830152612c5b8184612b9a565b90509695505050505050565b6000604082019050612c7c6000830185611fb6565b8181036020830152612c8e8184612b9a565b90509392505050565b6000612ca2826123c7565b9150612cad836123c7565b9250817f7fffffffffffffffffffffffffffffffffffffffffffffffffffffffffffffff03831360008312151615612ce857612ce76125d6565b5b817f8000000000000000000000000000000000000000000000000000000000000000038312600083121615612d2057612d1f6125d6565b5b828201905092915050565b6000612d36826123c7565b9150612d41836123c7565b925082612d5157612d50612989565b5b600160000383147f800000000000000000000000000000000000000000000000000000000000000083141615612d8a57612d896125d6565b5b828205905092915050565b6000608082019050612daa6000830187611fb6565b612db760208301866128ea565b8181036040830152612dc98185612b9a565b90508181036060830152612ddd8184612b9a565b90509594505050505056fea2646970667358221220b15a25d54f944da0f626efb95b6f1598770100ae9743613a52a4a3559775a7f664736f6c634300080f0033",
  "immutableReferences": {},
  "source": "// SPDX-License-Identifier: MIT\npragma solidity ^0.8.0;\n\nimport \"./OracleRequestContract.sol\";\n\ncontract AggregatorContract {\n    address public owner; // owner of contract\n    OracleRequestContract orc; // instance of ORC contract\n    Answer[100] public answers; // array of 100 Answer structs to keep track of answers\n    struct Answer {\n        uint256 requestID; // the request ID\n        bytes dataType; // data type of request 'bool' 'temp' etc\n        mapping (address => bool) oracleHasSubmittedCommit; // authorised oracles, marked true when committed\n        mapping(address => bool) oracleHasSubmittedReveal; // authorised oracles, marked true when revealed\n        mapping (address => bytes32) oracleCommits; // add their result to a map with their address as index\n        mapping (address => bool) oracleVoteReveals;\n        mapping (address => int256) oracleAverageReveals;\n        mapping (uint256 => address) oracleAddresses; // uint to address to match counter and iterate through\n        uint256 oracleCounter; // keep an index of the oracles\n        address[] correctRevealOracles; // dynamic array to keep track of correct oracle address to be paid\n        address[] incorrectRevealOracles;\n\n        uint32 t; // a true counter;\n        uint32 f; // a false counter: we need this under (n-1)/3\n        uint cancelFlag; // cancelFlag == 0, == 1 if canceled\n        uint commitsFlag;\n        uint revealsFlag;\n        bool lastOracle; // last oracle\n\n    }\n\n    event ResponseReceived(address, string); // emits logs of each response received\n    event AggregationCompleted(uint256, string); // emits logs once the aggregation is complete\n    event LogHashes(bytes32, bytes32); // emits logs of hashes\n    event CommitsPlaced(uint, string);\n    // @notice constructor called when deployed\n    constructor(address _addr)\n    {\n        owner = msg.sender; // set deploying address as owner\n        orc = OracleRequestContract(_addr); // initialise the Oracle Request Contract contract\n    }\n    // @notice commitResponse\n    function commitResponse(uint256 _requestID, bytes32 _commitHash )\n    public\n    onlyAuthorisedOraclesYetToCommit(_requestID)\n    cancelFlagCheck(_requestID)\n    commitFlagCheck(_requestID)\n    returns(bool)\n    {\n        if (answers[_requestID].requestID == 0) {\n            answers[_requestID].requestID = _requestID; // assign correct id\n        }\n        if (answers[_requestID].oracleCounter < orc.getNumberOfOracles(_requestID)) {\n            answers[_requestID].oracleCommits[msg.sender] = _commitHash; // oracle nodes add commit to map\n            answers[_requestID].oracleHasSubmittedCommit[msg.sender] = true; // it has now submitted.\n            answers[_requestID].oracleAddresses[answers[_requestID].oracleCounter] = msg.sender; // map counter to oracle addr\n            answers[_requestID].oracleCounter++; // once this is equal we know to enter next if statement\n        }\n        if (answers[_requestID].oracleCounter == orc.getNumberOfOracles(_requestID)) {\n            answers[_requestID].commitsFlag = 1;\n            answers[_requestID].oracleCounter = 0;\n            emit CommitsPlaced(_requestID, \"commits are placed\");\n        }\n        return true;\n    }\n\n    function revealVoteResponse(uint256 _requestID, bool _result, bytes[] memory _secret)\n    public\n    onlyAuthorisedOraclesYetToReveal(_requestID)\n    cancelFlagCheck(_requestID)\n    commitCompleteFlagCheck(_requestID) // checks all commits are in and flag is equal to 1\n    revealsFlagCheck(_requestID) // checks that reveal flag is 0 otherwise function will not run\n    onlyVoteAggregationType(_requestID)\n    returns(bool){\n        // need to check the hash of the _result and _secret against answers[_requestID].oracleCommits[msg.sender]\n        bytes32 revealHash = keccak256(abi.encode(_secret, _result));\n        if (answers[_requestID].oracleCommits[msg.sender] == revealHash) {\n            answers[_requestID].oracleVoteReveals[msg.sender] = _result;\n            answers[_requestID].oracleHasSubmittedReveal[msg.sender] = true;\n            answers[_requestID].correctRevealOracles.push(msg.sender);\n            // return answers[_requestID].oracleHasSubmittedReveal[msg.sender];\n        } else {\n            answers[_requestID].incorrectRevealOracles.push(msg.sender);\n            answers[_requestID].oracleHasSubmittedReveal[msg.sender] = true;\n            //return false;\n        }\n        answers[_requestID].oracleCounter++;\n        if (answers[_requestID].oracleCounter == (orc.getNumberOfOracles(_requestID) - 1)){\n            voteAggregation(_requestID);\n        }\n        return true;\n    }\n\n    function revealAverageResponse(uint256 _requestID, int256 _result, bytes[] memory _secret)\n    public\n    onlyAuthorisedOraclesYetToReveal(_requestID)\n    cancelFlagCheck(_requestID)\n    commitCompleteFlagCheck(_requestID) // checks all commits are in and flag is equal to 1\n    revealsFlagCheck(_requestID) // checks that reveal flag is 0 otherwise function will not run\n    onlyAverageAggregationType(_requestID)\n    returns(bool){\n        // need to check the hash of the _result and _secret against answers[_requestID].oracleCommits[msg.sender]\n        bytes32 revealHash = keccak256(abi.encode(_secret, _result));\n        if (answers[_requestID].oracleCommits[msg.sender] == revealHash) {\n            answers[_requestID].oracleAverageReveals[msg.sender] = _result;\n            answers[_requestID].oracleHasSubmittedReveal[msg.sender] = true;\n            answers[_requestID].correctRevealOracles.push(msg.sender);\n            // return answers[_requestID].oracleHasSubmittedReveal[msg.sender];\n        } else {\n            answers[_requestID].incorrectRevealOracles.push(msg.sender);\n            answers[_requestID].oracleHasSubmittedReveal[msg.sender] = true;\n            //return false;\n        }\n        answers[_requestID].oracleCounter++;\n        if (answers[_requestID].oracleCounter == (orc.getNumberOfOracles(_requestID) - 1)){\n            averageAggregation(_requestID);\n        }\n        return true;\n    }\n    // voting aggregation\n    function voteAggregation(uint256 _requestID) internal returns(bool) {\n        address[] memory trueOracleResults;\n        address[] memory falseOracleResults;\n        bool _result;\n        address orcAddress;\n        for (uint i = 0; i < answers[_requestID].correctRevealOracles.length; i++) {\n            orcAddress = answers[_requestID].correctRevealOracles[i];\n            if (answers[_requestID].oracleVoteReveals[orcAddress] == true ) {\n                trueOracleResults[answers[_requestID].t] = orcAddress;\n                answers[_requestID].t++;\n            } else {\n                falseOracleResults[answers[_requestID].f] = orcAddress;\n                answers[_requestID].f++;\n            }\n        }\n\n        if (answers[_requestID].t > answers[_requestID].f) {\n            // call\n            require(!(answers[_requestID].f > (answers[_requestID].oracleCounter - 1) / 3), 'too many incorrect nodes');\n            _result = true;\n            orc.deliverVoteResponse(_requestID, _result, trueOracleResults,\n                falseOracleResults,\n                answers[_requestID].incorrectRevealOracles);\n            return _result;\n        } else if (answers[_requestID].f > answers[_requestID].t) {\n            require(!(answers[_requestID].t > (answers[_requestID].oracleCounter - 1) / 3), 'too many incorrect nodes');\n            _result = false;\n            orc.deliverVoteResponse(_requestID, _result,\n                falseOracleResults,\n                trueOracleResults,\n                answers[_requestID].incorrectRevealOracles);\n            return _result;\n        } else {\n            orc.cancelRequestDueToDeadlock(_requestID, answers[_requestID].incorrectRevealOracles);\n            answers[_requestID].cancelFlag = 1;\n        }\n        return false;\n    }\n    // averaging aggregation\n    function averageAggregation(uint256 _requestID)\n    internal\n    returns(bool)\n    {\n        address orcAddress;\n        int256 total = 0;\n        int256 average;\n        for (uint i=0; i<answers[_requestID].correctRevealOracles.length; i++){\n            orcAddress = answers[_requestID].correctRevealOracles[i];\n            total += answers[_requestID].oracleAverageReveals[orcAddress];\n        }\n        average = total / int(answers[_requestID].correctRevealOracles.length);\n        orc.deliverAverageResponse(\n                _requestID,\n                average,\n                answers[_requestID].correctRevealOracles,\n                    answers[_requestID].incorrectRevealOracles);\n        return true;\n    }\n\n\n\n    function cancelRequest(\n        uint256 _requestID)\n    public\n    cancelFlagCheck(_requestID)\n    onlyORC() // only ORC contract can call this function\n    returns(bool)\n    {\n        answers[_requestID].cancelFlag = 1;\n        return true;\n    }\n    // ***modifiers***\n    modifier onlyAuthorisedOraclesYetToCommit(\n        uint256 _requestID)\n    {\n        // checks that the oracle is in request list\n        require(orc.getOracleForRequest(_requestID, msg.sender));\n        // checks that the oracle hasn't yet committed.\n        require(answers[_requestID].oracleHasSubmittedCommit[msg.sender] == false);\n        _;\n    }\n    modifier onlyAuthorisedOraclesYetToReveal(\n        uint256 _requestID)\n    {\n        // checks that the oracle is in request list\n        require(orc.getOracleForRequest(_requestID, msg.sender));\n        // checks that the oracle hasn't yet revealed.\n        require(answers[_requestID].oracleHasSubmittedReveal[msg.sender] == false);\n        _;\n    }\n    modifier onlyOwner()\n    {\n        require(msg.sender == owner);\n        _;\n    }\n    modifier cancelFlagCheck(\n        uint256 _requestID)\n    {\n        require(answers[_requestID].cancelFlag == 0);\n        _;\n    }\n    modifier commitFlagCheck(uint256 _requestID) {\n        require(answers[_requestID].commitsFlag == 0 );\n        _;\n    }\n    modifier commitCompleteFlagCheck(uint256 _requestID) {\n        require(answers[_requestID].commitsFlag == 1);\n        _;\n    }\n    modifier revealsFlagCheck(uint256 _requestID){\n        require(answers[_requestID].revealsFlag == 0);\n        _;\n    }\n    modifier onlyORC()\n    {\n        require(msg.sender == address(orc));\n        _;\n    }\n    modifier onlyVoteAggregationType(uint256 _requestID) {\n        require(orc.getAggregationType(_requestID) == 1);\n        _;\n    }\n    modifier onlyAverageAggregationType(uint256 _requestID) {\n        require(orc.getAggregationType(_requestID) == 2);\n        _;\n    }\n}\n\n\n\n\n\n\n\n\n\n\n//    // not needed\n//    // @notice each oracle sends their response to through this function\n//    // filling up the Answer struct at index requestID.\n//    // @dev\n//    // @param _requestID ID of request\n//    // @param _actualResult the value the off-chain oracle has collected\n//    // @return bool, true to say answer has been submitted\n//    function receiveResponse(\n//        uint256 _requestID,\n//        bytes memory _actualResult\n//    )\n//    public\n//    onlyAuthorisedOraclesYetToVote(_requestID) // makes sure only oracles that are authorised call call this function,\n//    // also only if it has not yet submitted an answer\n//    cancelFlagCheck(_requestID) // requires cancelFlag == 0\n//    returns(bool)\n//    {\n//        // only logs answers for any number of oracles that are under the number required\n//        if (answers[_requestID].oracleCounter < orc.getNumberOfOracles(_requestID)) {\n//            answers[_requestID].requestID = _requestID; // assign correct id\n//            answers[_requestID].oracleCommits[msg.sender] = _actualResult; // orcale nodes answer mapped to its address\n//            answers[_requestID].oracleHasSubmitted[msg.sender] = true; // it has now submitted.\n//            answers[_requestID].oracleAddresses[answers[_requestID].oracleCounter] = msg.sender; // map counter to oracle addr\n//            answers[_requestID].oracleCounter++; // once this is equal we know to enter next if statement\n//            answers[_requestID].cancelFlag = 0; // sets cancelFlag to 0\n//            emit ResponseReceived(msg.sender, \"response logged\"); // emits to listeners that a response has been logged\n//        }\n//        // if the counter has reached the number of oracles needed, on the last oracle,\n//        // we can call the deliverResponse with the aggregation() method with returns a single result\n//        if(answers[_requestID].oracleCounter == orc.getNumberOfOracles(_requestID)) {\n//            answers[_requestID].lastOracle = true; // flag to know all oracles have submitted a vote\n//            // call aggregator function, returns a final result and an array of correct oracles\n//            (bytes memory finalResult, address[] memory correctOracles) = aggregation(_requestID);\n//            orc.deliverResponse(_requestID, finalResult, correctOracles); // call the deliverResponse function\n//        }\n//        return answers[_requestID].oracleHasSubmitted[msg.sender]; // returns true\n//    }\n\n//    // @notice aggregates results on a voting system, also requires that false votes are not larger than a threshold\n//    // @dev\n//    // @param _requestID pass in requestID to index the answers\n//    // @return final result\n//    function aggregation(\n//        uint256 _requestID)\n//    internal\n//    cancelFlagCheck(_requestID) // requires cancelFlag == 0\n//    returns(\n//        bytes memory,\n//        address[] memory)\n//    {\n//        // local finalResult initialised\n//        bytes memory finalResult;\n//        //gets dataType from ORC request struct which is then used for a hash of the params to match the results\n//        answers[_requestID].dataType = orc.getDataType(_requestID);\n//        // loop through the oracle counter to get oracle address and determine their result\n//        for (uint i=0; i<answers[_requestID].oracleCounter; i++){\n//            address oracleAddress = answers[_requestID].oracleAddresses[i]; // assign oracleAddress\n//            // ensures actual result and required result are the same\n//            bytes32 responseHash = keccak256(abi.encodePacked(\n//                    answers[_requestID].dataType, answers[_requestID].oracleResults[oracleAddress]\n//                )); // response hash from answer\n//            emit LogHashes(orc.getPHash(_requestID), responseHash); // emits to listeners to 2 hashes, these should equal\n//            if (responseHash == orc.getPHash(_requestID)){\n//                answers[_requestID].t++; // if correct increment the true count\n//                answers[_requestID].correctOracles.push(oracleAddress); // adds correct oracles to an array\n//                if (finalResult.length <= 0) {\n//                    // first response will assign its answer to the actual answer\n//                    finalResult = answers[_requestID].oracleResults[oracleAddress]; // as these are all the same\n//                }\n//            } else {\n//                //otherwise increment the false count\n//                answers[_requestID].f++;\n//            }\n//        }\n//        // requires a threshold for false answers\n//        require(!(answers[_requestID].f > (answers[_requestID].oracleCounter - 1) / 3), 'too many incorrect nodes');\n//        emit AggregationCompleted(_requestID, \"aggregation complete\");\n//        return (finalResult, answers[_requestID].correctOracles);\n//    }\n\n\n\n\n\n\n",
  "sourcePath": "/home/willp/Documents/MSc_Computer_Science/PROJECT/Research_Code/july22_projectcode/IoToracle/contracts/AggregatorContract.sol",
  "compiler": {
    "name": "solc",
    "version": "0.8.15+commit.e14f2714.Emscripten.clang"
  },
  "schemaVersion": "3.4.8",
  "updatedAt": "2022-08-08T17:07:06.448Z",
  "devdoc": {
    "kind": "dev",
    "methods": {},
    "version": 1
  },
  "userdoc": {
    "kind": "user",
    "methods": {},
    "version": 1
  }
}