{
  "contractName": "AggregatorContract",
  "abi": [
    {
      "inputs": [
        {
          "internalType": "address",
          "name": "_addr",
          "type": "address"
        }
      ],
      "stateMutability": "nonpayable",
      "type": "constructor"
    },
    {
      "anonymous": false,
      "inputs": [
        {
          "indexed": false,
          "internalType": "uint256",
          "name": "",
          "type": "uint256"
        },
        {
          "indexed": false,
          "internalType": "string",
          "name": "",
          "type": "string"
        }
      ],
      "name": "AggregationCompleted",
      "type": "event"
    },
    {
      "anonymous": false,
      "inputs": [
        {
          "indexed": false,
          "internalType": "uint256",
          "name": "",
          "type": "uint256"
        },
        {
          "indexed": false,
          "internalType": "string",
          "name": "",
          "type": "string"
        }
      ],
      "name": "CommitsPlaced",
      "type": "event"
    },
    {
      "anonymous": false,
      "inputs": [
        {
          "indexed": false,
          "internalType": "bytes32",
          "name": "",
          "type": "bytes32"
        },
        {
          "indexed": false,
          "internalType": "bytes32",
          "name": "",
          "type": "bytes32"
        }
      ],
      "name": "LogHashes",
      "type": "event"
    },
    {
      "anonymous": false,
      "inputs": [
        {
          "indexed": false,
          "internalType": "uint256",
          "name": "",
          "type": "uint256"
        },
        {
          "indexed": false,
          "internalType": "string",
          "name": "",
          "type": "string"
        }
      ],
      "name": "RevealsPlaced",
      "type": "event"
    },
    {
      "inputs": [
        {
          "internalType": "uint256",
          "name": "",
          "type": "uint256"
        }
      ],
      "name": "answers",
      "outputs": [
        {
          "internalType": "uint256",
          "name": "requestID",
          "type": "uint256"
        },
        {
          "internalType": "bytes",
          "name": "dataType",
          "type": "bytes"
        },
        {
          "internalType": "uint256",
          "name": "oracleCounter",
          "type": "uint256"
        },
        {
          "internalType": "uint32",
          "name": "t",
          "type": "uint32"
        },
        {
          "internalType": "uint32",
          "name": "f",
          "type": "uint32"
        },
        {
          "internalType": "uint256",
          "name": "cancelFlag",
          "type": "uint256"
        },
        {
          "internalType": "uint256",
          "name": "commitsFlag",
          "type": "uint256"
        },
        {
          "internalType": "uint256",
          "name": "revealsFlag",
          "type": "uint256"
        },
        {
          "internalType": "bool",
          "name": "lastOracle",
          "type": "bool"
        }
      ],
      "stateMutability": "view",
      "type": "function",
      "constant": true
    },
    {
      "inputs": [],
      "name": "owner",
      "outputs": [
        {
          "internalType": "address",
          "name": "",
          "type": "address"
        }
      ],
      "stateMutability": "view",
      "type": "function",
      "constant": true
    },
    {
      "inputs": [
        {
          "internalType": "uint256",
          "name": "_requestID",
          "type": "uint256"
        },
        {
          "internalType": "bytes32",
          "name": "_commitHash",
          "type": "bytes32"
        }
      ],
      "name": "commitResponse",
      "outputs": [
        {
          "internalType": "bool",
          "name": "",
          "type": "bool"
        }
      ],
      "stateMutability": "nonpayable",
      "type": "function"
    },
    {
      "inputs": [
        {
          "internalType": "uint256",
          "name": "_requestID",
          "type": "uint256"
        },
        {
          "internalType": "bool",
          "name": "_result",
          "type": "bool"
        },
        {
          "internalType": "bytes[]",
          "name": "_secret",
          "type": "bytes[]"
        }
      ],
      "name": "revealVoteResponse",
      "outputs": [
        {
          "internalType": "bool",
          "name": "",
          "type": "bool"
        }
      ],
      "stateMutability": "nonpayable",
      "type": "function"
    },
    {
      "inputs": [
        {
          "internalType": "uint256",
          "name": "_requestID",
          "type": "uint256"
        },
        {
          "internalType": "int256",
          "name": "_result",
          "type": "int256"
        },
        {
          "internalType": "bytes[]",
          "name": "_secret",
          "type": "bytes[]"
        }
      ],
      "name": "revealAverageResponse",
      "outputs": [
        {
          "internalType": "bool",
          "name": "",
          "type": "bool"
        }
      ],
      "stateMutability": "nonpayable",
      "type": "function"
    },
    {
      "inputs": [
        {
          "internalType": "uint256",
          "name": "_requestID",
          "type": "uint256"
        }
      ],
      "name": "cancelRequest",
      "outputs": [
        {
          "internalType": "bool",
          "name": "",
          "type": "bool"
        }
      ],
      "stateMutability": "nonpayable",
      "type": "function"
    }
  ],
  "bytecode": "0x60806040523480156200001157600080fd5b506040516200332c3803806200332c833981810160405281019062000037919062000129565b336000806101000a81548173ffffffffffffffffffffffffffffffffffffffff021916908373ffffffffffffffffffffffffffffffffffffffff16021790555080600160006101000a81548173ffffffffffffffffffffffffffffffffffffffff021916908373ffffffffffffffffffffffffffffffffffffffff160217905550506200015b565b600080fd5b600073ffffffffffffffffffffffffffffffffffffffff82169050919050565b6000620000f182620000c4565b9050919050565b6200010381620000e4565b81146200010f57600080fd5b50565b6000815190506200012381620000f8565b92915050565b600060208284031215620001425762000141620000bf565b5b6000620001528482850162000112565b91505092915050565b6131c1806200016b6000396000f3fe608060405234801561001057600080fd5b50600436106100625760003560e01c8063074e324d1461006757806317599cc5146100975780633015394c146100cf57806342472ac7146100ff5780638259a8c11461012f5780638da5cb5b1461015f575b600080fd5b610081600480360381019061007c91906120be565b61017d565b60405161008e9190612119565b60405180910390f35b6100b160048036038101906100ac9190612134565b6106c7565b6040516100c699989796959493929190612228565b60405180910390f35b6100e960048036038101906100e49190612134565b6107d0565b6040516100f69190612119565b60405180910390f35b61011960048036038101906101149190612503565b610880565b6040516101269190612119565b60405180910390f35b610149600480360381019061014491906125a8565b610fc0565b6040516101569190612119565b60405180910390f35b61016761161f565b6040516101749190612658565b60405180910390f35b600082600160009054906101000a900473ffffffffffffffffffffffffffffffffffffffff1673ffffffffffffffffffffffffffffffffffffffff1663a37b354d82336040518363ffffffff1660e01b81526004016101dd929190612673565b602060405180830381865afa1580156101fa573d6000803e3d6000fd5b505050506040513d601f19601f8201168201806040525081019061021e91906126b1565b61022757600080fd5b600015156002826064811061023f5761023e6126de565b5b6010020160020160003373ffffffffffffffffffffffffffffffffffffffff1673ffffffffffffffffffffffffffffffffffffffff16815260200190815260200160002060009054906101000a900460ff1615151461029d57600080fd5b836000600282606481106102b4576102b36126de565b5b60100201600c0154146102c657600080fd5b846000600282606481106102dd576102dc6126de565b5b60100201600d0154146102ef57600080fd5b600060028760648110610305576103046126de565b5b601002016000015403610333578560028760648110610327576103266126de565b5b60100201600001819055505b600160009054906101000a900473ffffffffffffffffffffffffffffffffffffffff1673ffffffffffffffffffffffffffffffffffffffff166391a3632a876040518263ffffffff1660e01b815260040161038e919061270d565b602060405180830381865afa1580156103ab573d6000803e3d6000fd5b505050506040513d601f19601f820116820180604052508101906103cf9190612754565b63ffffffff16600287606481106103e9576103e86126de565b5b6010020160080154101561057d57846002876064811061040c5761040b6126de565b5b6010020160040160003373ffffffffffffffffffffffffffffffffffffffff1673ffffffffffffffffffffffffffffffffffffffff1681526020019081526020016000208190555060016002876064811061046a576104696126de565b5b6010020160020160003373ffffffffffffffffffffffffffffffffffffffff1673ffffffffffffffffffffffffffffffffffffffff16815260200190815260200160002060006101000a81548160ff02191690831515021790555033600287606481106104da576104d96126de565b5b601002016007016000600289606481106104f7576104f66126de565b5b6010020160080154815260200190815260200160002060006101000a81548173ffffffffffffffffffffffffffffffffffffffff021916908373ffffffffffffffffffffffffffffffffffffffff1602179055506002866064811061055f5761055e6126de565b5b601002016008016000815480929190610577906127b0565b91905055505b600160009054906101000a900473ffffffffffffffffffffffffffffffffffffffff1673ffffffffffffffffffffffffffffffffffffffff166391a3632a876040518263ffffffff1660e01b81526004016105d8919061270d565b602060405180830381865afa1580156105f5573d6000803e3d6000fd5b505050506040513d601f19601f820116820180604052508101906106199190612754565b63ffffffff1660028760648110610633576106326126de565b5b6010020160080154036106ba57600160028760648110610656576106556126de565b5b60100201600d0181905550600060028760648110610677576106766126de565b5b60100201600801819055507f94654b3250060d23222c9a81fdafe2f23accfb1dc46fb56b8e4aa75c0776e0fd866040516106b19190612855565b60405180910390a15b6001935050505092915050565b600281606481106106d757600080fd5b601002016000915090508060000154908060010180546106f6906128b2565b80601f0160208091040260200160405190810160405280929190818152602001828054610722906128b2565b801561076f5780601f106107445761010080835404028352916020019161076f565b820191906000526020600020905b81548152906001019060200180831161075257829003601f168201915b50505050509080600801549080600b0160009054906101000a900463ffffffff169080600b0160049054906101000a900463ffffffff169080600c01549080600d01549080600e01549080600f0160009054906101000a900460ff16905089565b6000816000600282606481106107e9576107e86126de565b5b60100201600c0154146107fb57600080fd5b600160009054906101000a900473ffffffffffffffffffffffffffffffffffffffff1673ffffffffffffffffffffffffffffffffffffffff163373ffffffffffffffffffffffffffffffffffffffff161461085557600080fd5b60016002846064811061086b5761086a6126de565b5b60100201600c01819055506001915050919050565b600083600160009054906101000a900473ffffffffffffffffffffffffffffffffffffffff1673ffffffffffffffffffffffffffffffffffffffff1663a37b354d82336040518363ffffffff1660e01b81526004016108e0929190612673565b602060405180830381865afa1580156108fd573d6000803e3d6000fd5b505050506040513d601f19601f8201168201806040525081019061092191906126b1565b61092a57600080fd5b6000151560028260648110610942576109416126de565b5b6010020160030160003373ffffffffffffffffffffffffffffffffffffffff1673ffffffffffffffffffffffffffffffffffffffff16815260200190815260200160002060009054906101000a900460ff161515146109a057600080fd5b846000600282606481106109b7576109b66126de565b5b60100201600c0154146109c957600080fd5b856001600282606481106109e0576109df6126de565b5b60100201600d0154146109f257600080fd5b86600060028260648110610a0957610a086126de565b5b60100201600e015414610a1b57600080fd5b8760018060009054906101000a900473ffffffffffffffffffffffffffffffffffffffff1673ffffffffffffffffffffffffffffffffffffffff1663e4888222836040518263ffffffff1660e01b8152600401610a78919061270d565b602060405180830381865afa158015610a95573d6000803e3d6000fd5b505050506040513d601f19601f82011682018060405250810190610ab991906128f8565b14610ac357600080fd5b600087604051602001610ad69190612a31565b60405160208183030381529060405289604051602001610af69190612119565b604051602081830303815290604052604051602001610b16929190612a8f565b6040516020818303038152906040528051906020012090507f1034809265ff4258719a9aebc8a98d3ae11c847f3db81864425e812fd387c18860028b60648110610b6357610b626126de565b5b6010020160040160003373ffffffffffffffffffffffffffffffffffffffff1673ffffffffffffffffffffffffffffffffffffffff1681526020019081526020016000205482604051610bb7929190612ac2565b60405180910390a18060028b60648110610bd457610bd36126de565b5b6010020160040160003373ffffffffffffffffffffffffffffffffffffffff1673ffffffffffffffffffffffffffffffffffffffff1681526020019081526020016000205403610d80578860028b60648110610c3357610c326126de565b5b6010020160050160003373ffffffffffffffffffffffffffffffffffffffff1673ffffffffffffffffffffffffffffffffffffffff16815260200190815260200160002060006101000a81548160ff021916908315150217905550600160028b60648110610ca457610ca36126de565b5b6010020160030160003373ffffffffffffffffffffffffffffffffffffffff1673ffffffffffffffffffffffffffffffffffffffff16815260200190815260200160002060006101000a81548160ff02191690831515021790555060028a60648110610d1357610d126126de565b5b60100201600901339080600181540180825580915050600190039060005260206000200160009091909190916101000a81548173ffffffffffffffffffffffffffffffffffffffff021916908373ffffffffffffffffffffffffffffffffffffffff160217905550610e6e565b60028a60648110610d9457610d936126de565b5b60100201600a01339080600181540180825580915050600190039060005260206000200160009091909190916101000a81548173ffffffffffffffffffffffffffffffffffffffff021916908373ffffffffffffffffffffffffffffffffffffffff160217905550600160028b60648110610e1257610e116126de565b5b6010020160030160003373ffffffffffffffffffffffffffffffffffffffff1673ffffffffffffffffffffffffffffffffffffffff16815260200190815260200160002060006101000a81548160ff0219169083151502179055505b60018060009054906101000a900473ffffffffffffffffffffffffffffffffffffffff1673ffffffffffffffffffffffffffffffffffffffff166391a3632a8c6040518263ffffffff1660e01b8152600401610eca919061270d565b602060405180830381865afa158015610ee7573d6000803e3d6000fd5b505050506040513d601f19601f82011682018060405250810190610f0b9190612754565b610f159190612aeb565b63ffffffff1660028b60648110610f2f57610f2e6126de565b5b601002016008015403610f7e577fcd9014e59ca398764ef85e5719d2151f53668c6d08f5ea98e064a65a6cccf06e8a604051610f6b9190612b6b565b60405180910390a1610f7c8a611643565b505b60028a60648110610f9257610f916126de565b5b601002016008016000815480929190610faa906127b0565b9190505550600196505050505050509392505050565b600083600160009054906101000a900473ffffffffffffffffffffffffffffffffffffffff1673ffffffffffffffffffffffffffffffffffffffff1663a37b354d82336040518363ffffffff1660e01b8152600401611020929190612673565b602060405180830381865afa15801561103d573d6000803e3d6000fd5b505050506040513d601f19601f8201168201806040525081019061106191906126b1565b61106a57600080fd5b6000151560028260648110611082576110816126de565b5b6010020160030160003373ffffffffffffffffffffffffffffffffffffffff1673ffffffffffffffffffffffffffffffffffffffff16815260200190815260200160002060009054906101000a900460ff161515146110e057600080fd5b846000600282606481106110f7576110f66126de565b5b60100201600c01541461110957600080fd5b856001600282606481106111205761111f6126de565b5b60100201600d01541461113257600080fd5b86600060028260648110611149576111486126de565b5b60100201600e01541461115b57600080fd5b876002600160009054906101000a900473ffffffffffffffffffffffffffffffffffffffff1673ffffffffffffffffffffffffffffffffffffffff1663e4888222836040518263ffffffff1660e01b81526004016111b9919061270d565b602060405180830381865afa1580156111d6573d6000803e3d6000fd5b505050506040513d601f19601f820116820180604052508101906111fa91906128f8565b1461120457600080fd5b60008789604051602001611219929190612ba8565b6040516020818303038152906040528051906020012090508060028b60648110611246576112456126de565b5b6010020160040160003373ffffffffffffffffffffffffffffffffffffffff1673ffffffffffffffffffffffffffffffffffffffff16815260200190815260200160002054036113df578860028b606481106112a5576112a46126de565b5b6010020160060160003373ffffffffffffffffffffffffffffffffffffffff1673ffffffffffffffffffffffffffffffffffffffff16815260200190815260200160002081905550600160028b60648110611303576113026126de565b5b6010020160030160003373ffffffffffffffffffffffffffffffffffffffff1673ffffffffffffffffffffffffffffffffffffffff16815260200190815260200160002060006101000a81548160ff02191690831515021790555060028a60648110611372576113716126de565b5b60100201600901339080600181540180825580915050600190039060005260206000200160009091909190916101000a81548173ffffffffffffffffffffffffffffffffffffffff021916908373ffffffffffffffffffffffffffffffffffffffff1602179055506114cd565b60028a606481106113f3576113f26126de565b5b60100201600a01339080600181540180825580915050600190039060005260206000200160009091909190916101000a81548173ffffffffffffffffffffffffffffffffffffffff021916908373ffffffffffffffffffffffffffffffffffffffff160217905550600160028b60648110611471576114706126de565b5b6010020160030160003373ffffffffffffffffffffffffffffffffffffffff1673ffffffffffffffffffffffffffffffffffffffff16815260200190815260200160002060006101000a81548160ff0219169083151502179055505b60028a606481106114e1576114e06126de565b5b6010020160080160008154809291906114f9906127b0565b919050555060018060009054906101000a900473ffffffffffffffffffffffffffffffffffffffff1673ffffffffffffffffffffffffffffffffffffffff166391a3632a8c6040518263ffffffff1660e01b815260040161155a919061270d565b602060405180830381865afa158015611577573d6000803e3d6000fd5b505050506040513d601f19601f8201168201806040525081019061159b9190612754565b6115a59190612aeb565b63ffffffff1660028b606481106115bf576115be6126de565b5b60100201600801540361160e577fcd9014e59ca398764ef85e5719d2151f53668c6d08f5ea98e064a65a6cccf06e8a6040516115fb9190612b6b565b60405180910390a161160c8a611df0565b505b600196505050505050509392505050565b60008054906101000a900473ffffffffffffffffffffffffffffffffffffffff1681565b600060608060008060005b60028760648110611662576116616126de565b5b601002016009018054905081101561190a5760028760648110611688576116876126de565b5b6010020160090181815481106116a1576116a06126de565b5b9060005260206000200160009054906101000a900473ffffffffffffffffffffffffffffffffffffffff16915060011515600288606481106116e6576116e56126de565b5b6010020160050160008473ffffffffffffffffffffffffffffffffffffffff1673ffffffffffffffffffffffffffffffffffffffff16815260200190815260200160002060009054906101000a900460ff1615150361181d57818560028960648110611755576117546126de565b5b60100201600b0160009054906101000a900463ffffffff1663ffffffff1681518110611784576117836126de565b5b602002602001019073ffffffffffffffffffffffffffffffffffffffff16908173ffffffffffffffffffffffffffffffffffffffff1681525050600287606481106117d2576117d16126de565b5b60100201600b01600081819054906101000a900463ffffffff16809291906117f990612bd8565b91906101000a81548163ffffffff021916908363ffffffff160217905550506118f7565b818460028960648110611833576118326126de565b5b60100201600b0160049054906101000a900463ffffffff1663ffffffff1681518110611862576118616126de565b5b602002602001019073ffffffffffffffffffffffffffffffffffffffff16908173ffffffffffffffffffffffffffffffffffffffff1681525050600287606481106118b0576118af6126de565b5b60100201600b01600481819054906101000a900463ffffffff16809291906118d790612bd8565b91906101000a81548163ffffffff021916908363ffffffff160217905550505b8080611902906127b0565b91505061164e565b506002866064811061191f5761191e6126de565b5b60100201600b0160049054906101000a900463ffffffff1663ffffffff1660028760648110611951576119506126de565b5b60100201600b0160009054906101000a900463ffffffff1663ffffffff161115611aed57600360016002886064811061198d5761198c6126de565b5b601002016008015461199f9190612c04565b6119a99190612c67565b600287606481106119bd576119bc6126de565b5b60100201600b0160049054906101000a900463ffffffff1663ffffffff161115611a1c576040517f08c379a0000000000000000000000000000000000000000000000000000000008152600401611a1390612ce4565b60405180910390fd5b60019150600160009054906101000a900473ffffffffffffffffffffffffffffffffffffffff1673ffffffffffffffffffffffffffffffffffffffff166330407ad98784878760028c60648110611a7657611a756126de565b5b60100201600a016040518663ffffffff1660e01b8152600401611a9d959493929190612eae565b6020604051808303816000875af1158015611abc573d6000803e3d6000fd5b505050506040513d601f19601f82011682018060405250810190611ae091906126b1565b5081945050505050611deb565b60028660648110611b0157611b006126de565b5b60100201600b0160009054906101000a900463ffffffff1663ffffffff1660028760648110611b3357611b326126de565b5b60100201600b0160049054906101000a900463ffffffff1663ffffffff161115611ccf576003600160028860648110611b6f57611b6e6126de565b5b6010020160080154611b819190612c04565b611b8b9190612c67565b60028760648110611b9f57611b9e6126de565b5b60100201600b0160009054906101000a900463ffffffff1663ffffffff161115611bfe576040517f08c379a0000000000000000000000000000000000000000000000000000000008152600401611bf590612ce4565b60405180910390fd5b60009150600160009054906101000a900473ffffffffffffffffffffffffffffffffffffffff1673ffffffffffffffffffffffffffffffffffffffff166330407ad98784868860028c60648110611c5857611c576126de565b5b60100201600a016040518663ffffffff1660e01b8152600401611c7f959493929190612eae565b6020604051808303816000875af1158015611c9e573d6000803e3d6000fd5b505050506040513d601f19601f82011682018060405250810190611cc291906126b1565b5081945050505050611deb565b600160009054906101000a900473ffffffffffffffffffffffffffffffffffffffff1673ffffffffffffffffffffffffffffffffffffffff1663498d7df08760028960648110611d2257611d216126de565b5b60100201600a016040518363ffffffff1660e01b8152600401611d46929190612f16565b6020604051808303816000875af1158015611d65573d6000803e3d6000fd5b505050506040513d601f19601f82011682018060405250810190611d8991906126b1565b50600160028760648110611da057611d9f6126de565b5b60100201600c01819055507fab982296b91a9b70c6739c96524c481cf0a1714be617e9bb39538f46ad5c880086604051611dda9190612f92565b60405180910390a160009450505050505b919050565b60008060008080600090505b60028660648110611e1057611e0f6126de565b5b6010020160090180549050811015611ef55760028660648110611e3657611e356126de565b5b601002016009018181548110611e4f57611e4e6126de565b5b9060005260206000200160009054906101000a900473ffffffffffffffffffffffffffffffffffffffff16935060028660648110611e9057611e8f6126de565b5b6010020160060160008573ffffffffffffffffffffffffffffffffffffffff1673ffffffffffffffffffffffffffffffffffffffff1681526020019081526020016000205483611ee09190612fc0565b92508080611eed906127b0565b915050611dfc565b5060028560648110611f0a57611f096126de565b5b601002016009018054905082611f209190613054565b9050600160009054906101000a900473ffffffffffffffffffffffffffffffffffffffff1673ffffffffffffffffffffffffffffffffffffffff166358621b7a868360028960648110611f7657611f756126de565b5b6010020160090160028a60648110611f9157611f906126de565b5b60100201600a016040518563ffffffff1660e01b8152600401611fb794939291906130be565b6020604051808303816000875af1158015611fd6573d6000803e3d6000fd5b505050506040513d601f19601f82011682018060405250810190611ffa91906126b1565b507fab982296b91a9b70c6739c96524c481cf0a1714be617e9bb39538f46ad5c88008560405161202a919061315d565b60405180910390a160019350505050919050565b6000604051905090565b600080fd5b600080fd5b6000819050919050565b61206581612052565b811461207057600080fd5b50565b6000813590506120828161205c565b92915050565b6000819050919050565b61209b81612088565b81146120a657600080fd5b50565b6000813590506120b881612092565b92915050565b600080604083850312156120d5576120d4612048565b5b60006120e385828601612073565b92505060206120f4858286016120a9565b9150509250929050565b60008115159050919050565b612113816120fe565b82525050565b600060208201905061212e600083018461210a565b92915050565b60006020828403121561214a57612149612048565b5b600061215884828501612073565b91505092915050565b61216a81612052565b82525050565b600081519050919050565b600082825260208201905092915050565b60005b838110156121aa57808201518184015260208101905061218f565b838111156121b9576000848401525b50505050565b6000601f19601f8301169050919050565b60006121db82612170565b6121e5818561217b565b93506121f581856020860161218c565b6121fe816121bf565b840191505092915050565b600063ffffffff82169050919050565b61222281612209565b82525050565b60006101208201905061223e600083018c612161565b8181036020830152612250818b6121d0565b905061225f604083018a612161565b61226c6060830189612219565b6122796080830188612219565b61228660a0830187612161565b61229360c0830186612161565b6122a060e0830185612161565b6122ae61010083018461210a565b9a9950505050505050505050565b6122c5816120fe565b81146122d057600080fd5b50565b6000813590506122e2816122bc565b92915050565b600080fd5b7f4e487b7100000000000000000000000000000000000000000000000000000000600052604160045260246000fd5b612325826121bf565b810181811067ffffffffffffffff82111715612344576123436122ed565b5b80604052505050565b600061235761203e565b9050612363828261231c565b919050565b600067ffffffffffffffff821115612383576123826122ed565b5b602082029050602081019050919050565b600080fd5b600080fd5b600067ffffffffffffffff8211156123b9576123b86122ed565b5b6123c2826121bf565b9050602081019050919050565b82818337600083830152505050565b60006123f16123ec8461239e565b61234d565b90508281526020810184848401111561240d5761240c612399565b5b6124188482856123cf565b509392505050565b600082601f830112612435576124346122e8565b5b81356124458482602086016123de565b91505092915050565b600061246161245c84612368565b61234d565b9050808382526020820190506020840283018581111561248457612483612394565b5b835b818110156124cb57803567ffffffffffffffff8111156124a9576124a86122e8565b5b8086016124b68982612420565b85526020850194505050602081019050612486565b5050509392505050565b600082601f8301126124ea576124e96122e8565b5b81356124fa84826020860161244e565b91505092915050565b60008060006060848603121561251c5761251b612048565b5b600061252a86828701612073565b935050602061253b868287016122d3565b925050604084013567ffffffffffffffff81111561255c5761255b61204d565b5b612568868287016124d5565b9150509250925092565b6000819050919050565b61258581612572565b811461259057600080fd5b50565b6000813590506125a28161257c565b92915050565b6000806000606084860312156125c1576125c0612048565b5b60006125cf86828701612073565b93505060206125e086828701612593565b925050604084013567ffffffffffffffff8111156126015761260061204d565b5b61260d868287016124d5565b9150509250925092565b600073ffffffffffffffffffffffffffffffffffffffff82169050919050565b600061264282612617565b9050919050565b61265281612637565b82525050565b600060208201905061266d6000830184612649565b92915050565b60006040820190506126886000830185612161565b6126956020830184612649565b9392505050565b6000815190506126ab816122bc565b92915050565b6000602082840312156126c7576126c6612048565b5b60006126d58482850161269c565b91505092915050565b7f4e487b7100000000000000000000000000000000000000000000000000000000600052603260045260246000fd5b60006020820190506127226000830184612161565b92915050565b61273181612209565b811461273c57600080fd5b50565b60008151905061274e81612728565b92915050565b60006020828403121561276a57612769612048565b5b60006127788482850161273f565b91505092915050565b7f4e487b7100000000000000000000000000000000000000000000000000000000600052601160045260246000fd5b60006127bb82612052565b91507fffffffffffffffffffffffffffffffffffffffffffffffffffffffffffffffff82036127ed576127ec612781565b5b600182019050919050565b600082825260208201905092915050565b7f636f6d6d6974732061726520706c616365640000000000000000000000000000600082015250565b600061283f6012836127f8565b915061284a82612809565b602082019050919050565b600060408201905061286a6000830184612161565b818103602083015261287b81612832565b905092915050565b7f4e487b7100000000000000000000000000000000000000000000000000000000600052602260045260246000fd5b600060028204905060018216806128ca57607f821691505b6020821081036128dd576128dc612883565b5b50919050565b6000815190506128f28161205c565b92915050565b60006020828403121561290e5761290d612048565b5b600061291c848285016128e3565b91505092915050565b600081519050919050565b600082825260208201905092915050565b6000819050602082019050919050565b600082825260208201905092915050565b600061296d82612170565b6129778185612951565b935061298781856020860161218c565b612990816121bf565b840191505092915050565b60006129a78383612962565b905092915050565b6000602082019050919050565b60006129c782612925565b6129d18185612930565b9350836020820285016129e385612941565b8060005b85811015612a1f5784840389528151612a00858261299b565b9450612a0b836129af565b925060208a019950506001810190506129e7565b50829750879550505050505092915050565b60006020820190508181036000830152612a4b81846129bc565b905092915050565b600081905092915050565b6000612a6982612170565b612a738185612a53565b9350612a8381856020860161218c565b80840191505092915050565b6000612a9b8285612a5e565b9150612aa78284612a5e565b91508190509392505050565b612abc81612088565b82525050565b6000604082019050612ad76000830185612ab3565b612ae46020830184612ab3565b9392505050565b6000612af682612209565b9150612b0183612209565b925082821015612b1457612b13612781565b5b828203905092915050565b7f416c6c2072657665616c732068617665206265656e20706c6163656400000000600082015250565b6000612b55601c836127f8565b9150612b6082612b1f565b602082019050919050565b6000604082019050612b806000830184612161565b8181036020830152612b9181612b48565b905092915050565b612ba281612572565b82525050565b60006040820190508181036000830152612bc281856129bc565b9050612bd16020830184612b99565b9392505050565b6000612be382612209565b915063ffffffff8203612bf957612bf8612781565b5b600182019050919050565b6000612c0f82612052565b9150612c1a83612052565b925082821015612c2d57612c2c612781565b5b828203905092915050565b7f4e487b7100000000000000000000000000000000000000000000000000000000600052601260045260246000fd5b6000612c7282612052565b9150612c7d83612052565b925082612c8d57612c8c612c38565b5b828204905092915050565b7f746f6f206d616e7920696e636f7272656374206e6f6465730000000000000000600082015250565b6000612cce6018836127f8565b9150612cd982612c98565b602082019050919050565b60006020820190508181036000830152612cfd81612cc1565b9050919050565b600081519050919050565b600082825260208201905092915050565b6000819050602082019050919050565b612d3981612637565b82525050565b6000612d4b8383612d30565b60208301905092915050565b6000602082019050919050565b6000612d6f82612d04565b612d798185612d0f565b9350612d8483612d20565b8060005b83811015612db5578151612d9c8882612d3f565b9750612da783612d57565b925050600181019050612d88565b5085935050505092915050565b600081549050919050565b60008190508160005260206000209050919050565b60008160001c9050919050565b600073ffffffffffffffffffffffffffffffffffffffff82169050919050565b6000612e22612e1d83612de2565b612def565b9050919050565b6000612e358254612e0f565b9050919050565b6000600182019050919050565b6000612e5482612dc2565b612e5e8185612d0f565b9350612e6983612dcd565b8060005b83811015612ea157612e7e82612e29565b612e888882612d3f565b9750612e9383612e3c565b925050600181019050612e6d565b5085935050505092915050565b600060a082019050612ec36000830188612161565b612ed0602083018761210a565b8181036040830152612ee28186612d64565b90508181036060830152612ef68185612d64565b90508181036080830152612f0a8184612e49565b90509695505050505050565b6000604082019050612f2b6000830185612161565b8181036020830152612f3d8184612e49565b90509392505050565b7f566f7465204167677265676174696f6e20436f6d706c65746500000000000000600082015250565b6000612f7c6019836127f8565b9150612f8782612f46565b602082019050919050565b6000604082019050612fa76000830184612161565b8181036020830152612fb881612f6f565b905092915050565b6000612fcb82612572565b9150612fd683612572565b9250817f7fffffffffffffffffffffffffffffffffffffffffffffffffffffffffffffff0383136000831215161561301157613010612781565b5b817f800000000000000000000000000000000000000000000000000000000000000003831260008312161561304957613048612781565b5b828201905092915050565b600061305f82612572565b915061306a83612572565b92508261307a57613079612c38565b5b600160000383147f8000000000000000000000000000000000000000000000000000000000000000831416156130b3576130b2612781565b5b828205905092915050565b60006080820190506130d36000830187612161565b6130e06020830186612b99565b81810360408301526130f28185612e49565b905081810360608301526131068184612e49565b905095945050505050565b7f41766572616765204167677265676174696f6e20436f6d706c65746500000000600082015250565b6000613147601c836127f8565b915061315282613111565b602082019050919050565b60006040820190506131726000830184612161565b81810360208301526131838161313a565b90509291505056fea2646970667358221220cddea010707b0411f947ee0396d12ed9ae0c12f3ef0dda9b2c7f14dc50fc752764736f6c634300080f0033",
  "immutableReferences": {},
  "source": "// SPDX-License-Identifier: MIT\npragma solidity ^0.8.0;\n\nimport \"./OracleRequestContract.sol\";\n\ncontract AggregatorContract {\n    address public owner; // owner of contract\n    OracleRequestContract orc; // instance of ORC contract\n    Answer[100] public answers; // array of 100 Answer structs to keep track of answers\n    struct Answer {\n        uint256 requestID; // the request ID\n        bytes dataType; // data type of request 'bool' 'temp' etc\n        mapping (address => bool) oracleHasSubmittedCommit; // authorised oracles, marked true when committed\n        mapping(address => bool) oracleHasSubmittedReveal; // authorised oracles, marked true when revealed\n        mapping (address => bytes32) oracleCommits; // add their result to a map with their address as index\n        mapping (address => bool) oracleVoteReveals; // adds oracle answers to addresses\n        mapping (address => int256) oracleAverageReveals; // adds oracle answers to addresses\n        mapping (uint256 => address) oracleAddresses; // uint to address to match counter and iterate through\n        uint256 oracleCounter; // keep an index of the oracles\n        address[] correctRevealOracles; // dynamic array to keep track of correct oracle address to be passed to ORC\n        address[] incorrectRevealOracles; // dynamic array to keep track of incorrect oracle address to be penalised\n        uint32 t; // a true counter;\n        uint32 f; // a false counter: we need this under (n-1)/3\n        uint cancelFlag; // cancelFlag == 0, == 1 if canceled\n        uint commitsFlag; // 0 = needing commits still 1 = commits are complete\n        uint revealsFlag; // 0 = needing reveals still 1 = reveals are complete\n        bool lastOracle; // last oracle\n\n    }\n\n    event AggregationCompleted(uint256, string); // emits logs once the aggregation is complete\n    event LogHashes(bytes32, bytes32); // emits logs of hashes\n    event CommitsPlaced(uint, string); // emits a commits placed event\n    event RevealsPlaced(uint, string); // emits reveals placed event\n\n\n\n    // @notice constructor called when deployed\n    constructor(address _addr)\n    {\n        owner = msg.sender; // set deploying address as owner\n        orc = OracleRequestContract(_addr); // initialise the Oracle Request Contract contract\n    }\n    // @notice commitResponse oracles first commit a hash of their answer and a random string\n    function commitResponse(uint256 _requestID, bytes32 _commitHash )\n    public\n    onlyAuthorisedOraclesYetToCommit(_requestID)\n    cancelFlagCheck(_requestID)\n    commitFlagCheck(_requestID)\n    returns(bool)\n    {\n        if (answers[_requestID].requestID == 0) {\n            answers[_requestID].requestID = _requestID; // assign correct id\n        }\n        if (answers[_requestID].oracleCounter < orc.getNumberOfOracles(_requestID)) {\n            answers[_requestID].oracleCommits[msg.sender] = _commitHash; // oracle nodes add commit to map\n            answers[_requestID].oracleHasSubmittedCommit[msg.sender] = true; // it has now submitted.\n            answers[_requestID].oracleAddresses[answers[_requestID].oracleCounter] = msg.sender; // map counter to oracle addr\n            answers[_requestID].oracleCounter++; // once this is equal we know to enter next if statement\n        }\n        if (answers[_requestID].oracleCounter == orc.getNumberOfOracles(_requestID)) {\n            answers[_requestID].commitsFlag = 1;\n            answers[_requestID].oracleCounter = 0;\n            emit CommitsPlaced(_requestID, \"commits are placed\");\n        }\n        return true;\n    }\n    // @notice called by oracle node once all commits are in and a response with the result and secret is given to check against commit\n    // @param _requestID\n    // @param _result, the answer that was fetch by IoT\n    // @param _secret, the string that was hashed with the IoT result in the commit\n    function revealVoteResponse(uint256 _requestID, bool _result, bytes[] memory _secret)\n    public\n    onlyAuthorisedOraclesYetToReveal(_requestID) // only oracles yet to reveal\n    cancelFlagCheck(_requestID) // make sure cancel flag = 0\n    commitCompleteFlagCheck(_requestID) // checks all commits are in and flag is equal to 1\n    revealsFlagCheck(_requestID) // checks that reveal flag is 0 otherwise function will not run\n    onlyVoteAggregationType(_requestID) // makes sure only vote responses are received\n    returns(bool){\n        // need to check the hash of the _result and _secret against answers[_requestID].oracleCommits[msg.sender]\n        bytes32 revealHash = keccak256(abi.encodePacked(abi.encode(_secret), abi.encode(_result))); // hash of _result and _secret\n        emit LogHashes(answers[_requestID].oracleCommits[msg.sender], revealHash);\n        if (answers[_requestID].oracleCommits[msg.sender] == revealHash) {\n            answers[_requestID].oracleVoteReveals[msg.sender] = _result; // add oracles answer to reveals\n            answers[_requestID].oracleHasSubmittedReveal[msg.sender] = true; // has submitted so can only vote once\n            answers[_requestID].correctRevealOracles.push(msg.sender); // adds to the correct reveals for aggregation\n        } else {\n            answers[_requestID].incorrectRevealOracles.push(msg.sender); // an incorrect match of commit and reveal hashes\n            answers[_requestID].oracleHasSubmittedReveal[msg.sender] = true; // has submitted so can only vote once\n        }\n\n        if (answers[_requestID].oracleCounter == (orc.getNumberOfOracles(_requestID) - 1)){\n            emit RevealsPlaced(_requestID, \"All reveals have been placed\");\n            voteAggregation(_requestID); // once number of oracles has been reached call voteAggregation\n        }\n        answers[_requestID].oracleCounter++; // increment counter for next oracle\n        return true;\n    }\n    // @notice called by oracle node once all commits are in and a response with the result and secret is given to check against commit\n    // @param _requestID\n    // @param _result, the answer that was fetch by IoT\n    // @param _secret, the string that was hashed with the IoT result in the commit\n    function revealAverageResponse(\n        uint256 _requestID,\n        int256 _result,\n        bytes[] memory _secret)\n    public\n    onlyAuthorisedOraclesYetToReveal(_requestID) // only oracles yet to reveal\n    cancelFlagCheck(_requestID) // make sure cancel flag = 0\n    commitCompleteFlagCheck(_requestID) // checks all commits are in and flag is equal to 1\n    revealsFlagCheck(_requestID) // checks that reveal flag is 0 otherwise function will not run\n    onlyAverageAggregationType(_requestID) // makes sure only average responses are received\n    returns(bool){\n        // need to check the hash of the _result and _secret against answers[_requestID].oracleCommits[msg.sender]\n        bytes32 revealHash = keccak256(abi.encode(_secret, _result)); // hash of _result and _secret\n        if (answers[_requestID].oracleCommits[msg.sender] == revealHash) {\n            answers[_requestID].oracleAverageReveals[msg.sender] = _result; // adds the int result to map\n            answers[_requestID].oracleHasSubmittedReveal[msg.sender] = true; // can only submit once\n            answers[_requestID].correctRevealOracles.push(msg.sender); // adds correct oracles for aggregation\n        } else {\n            answers[_requestID].incorrectRevealOracles.push(msg.sender); // an incorrect match of commit and reveal hashes\n            answers[_requestID].oracleHasSubmittedReveal[msg.sender] = true; // has submitted so can only respond once\n        }\n        answers[_requestID].oracleCounter++; // increment oracle counter\n        if (answers[_requestID].oracleCounter == (orc.getNumberOfOracles(_requestID) - 1)){\n            emit RevealsPlaced(_requestID, \"All reveals have been placed\");\n            averageAggregation(_requestID); // once number of oracles has been reached call averageAggregation\n        }\n        return true;\n    }\n    // @notice vote aggregation, splits the correct reveals into true and false lists, then chooses the bool\n    //         with the most votes as correct. and the others are penalised in ORC contract. Majority vote\n    // @param _requestID\n    function voteAggregation(uint256 _requestID) internal returns(bool) {\n        address[] memory trueOracleResults; // oracles that answer true\n        address[] memory falseOracleResults; // oracles that answer false\n        bool _result; // the final result to send to ORC contract\n        address orcAddress; // placeholder oracle address var\n        // loop through the oracles that provided a correct reveal\n        for (uint i = 0; i < answers[_requestID].correctRevealOracles.length; i++) {\n            orcAddress = answers[_requestID].correctRevealOracles[i]; // assign address\n            // if the reveal result is true add to true array and increment true counter\n            if (answers[_requestID].oracleVoteReveals[orcAddress] == true ) {\n                trueOracleResults[answers[_requestID].t] = orcAddress; // add oracle address to true array\n                answers[_requestID].t++; // increment true counter\n            } else { // if false add address to false array\n                falseOracleResults[answers[_requestID].f] = orcAddress;\n                answers[_requestID].f++; // increment false counter\n            }\n        }\n        // which ever is greater pass to call deliverVoteResponse in true(correct) then false(incorrect) order\n        if (answers[_requestID].t > answers[_requestID].f) {\n            // call\n            require(!(answers[_requestID].f > (answers[_requestID].oracleCounter - 1) / 3), 'too many incorrect nodes');\n            _result = true; // final result\n            // pass in requestID the result, trueOracleResults as the correct field and falseOracleResults as the incorrect\n            orc.deliverVoteResponse(_requestID, _result, trueOracleResults,\n                falseOracleResults,\n                answers[_requestID].incorrectRevealOracles);\n            return _result;\n        } else if (answers[_requestID].f > answers[_requestID].t) {\n            // which ever is greater pass to call deliverVoteResponse in false(correct) then true(incorrect) order\n            require(!(answers[_requestID].t > (answers[_requestID].oracleCounter - 1) / 3), 'too many incorrect nodes');\n            _result = false;\n            // pass in requestID the result, falseOracleResults as the correct field and trueOracleResults as the incorrect\n            orc.deliverVoteResponse(_requestID, _result,\n                falseOracleResults,\n                trueOracleResults,\n                answers[_requestID].incorrectRevealOracles);\n            return _result;\n        } else {\n            // when the t and f counters are the same, deadlock as appeared so we need to cancel and refund\n            orc.cancelRequestDueToDeadlock(_requestID, answers[_requestID].incorrectRevealOracles);\n            answers[_requestID].cancelFlag = 1;\n        }\n        emit AggregationCompleted(_requestID, \"Vote Aggregation Complete\");\n        return false;\n    }\n    // @notice averaging aggregation this function takes an average of the correct reveal oracles\n    function averageAggregation(\n        uint256 _requestID)\n    internal\n    returns(bool)\n    {\n        address orcAddress; // placeholder for orcAddress\n        int256 total = 0; // total of the results\n        int256 average; // an average of the results\n        for (uint i=0; i<answers[_requestID].correctRevealOracles.length; i++){\n            orcAddress = answers[_requestID].correctRevealOracles[i]; // orc address\n            total += answers[_requestID].oracleAverageReveals[orcAddress]; // sums the results to total\n        }\n        average = total / int(answers[_requestID].correctRevealOracles.length); // averages the result\n        orc.deliverAverageResponse(\n                _requestID,\n                average,\n                answers[_requestID].correctRevealOracles,\n                    answers[_requestID].incorrectRevealOracles);\n        emit AggregationCompleted(_requestID, \"Average Aggregation Complete\");\n        return true;\n    }\n    // @notice cancel request only ORC contract can call this\n    function cancelRequest(\n        uint256 _requestID)\n    public\n    cancelFlagCheck(_requestID)\n    onlyORC() // only ORC contract can call this function\n    returns(bool)\n    {\n        answers[_requestID].cancelFlag = 1;\n        return true;\n    }\n    // ***modifiers***\n    modifier onlyAuthorisedOraclesYetToCommit(\n        uint256 _requestID)\n    {\n        // checks that the oracle is in request list\n        require(orc.getOracleForRequest(_requestID, msg.sender));\n        // checks that the oracle hasn't yet committed.\n        require(answers[_requestID].oracleHasSubmittedCommit[msg.sender] == false);\n        _;\n    }\n    modifier onlyAuthorisedOraclesYetToReveal(\n        uint256 _requestID)\n    {\n        // checks that the oracle is in request list\n        require(orc.getOracleForRequest(_requestID, msg.sender));\n        // checks that the oracle hasn't yet revealed.\n        require(answers[_requestID].oracleHasSubmittedReveal[msg.sender] == false);\n        _;\n    }\n    modifier onlyOwner()\n    {\n        require(msg.sender == owner);\n        _;\n    }\n    modifier cancelFlagCheck(\n        uint256 _requestID)\n    {\n        require(answers[_requestID].cancelFlag == 0);\n        _;\n    }\n    modifier commitFlagCheck(uint256 _requestID) {\n        require(answers[_requestID].commitsFlag == 0 );\n        _;\n    }\n    modifier commitCompleteFlagCheck(uint256 _requestID) {\n        require(answers[_requestID].commitsFlag == 1);\n        _;\n    }\n    modifier revealsFlagCheck(uint256 _requestID){\n        require(answers[_requestID].revealsFlag == 0);\n        _;\n    }\n    modifier onlyORC()\n    {\n        require(msg.sender == address(orc));\n        _;\n    }\n    modifier onlyVoteAggregationType(uint256 _requestID) {\n        require(orc.getAggregationType(_requestID) == 1);\n        _;\n    }\n    modifier onlyAverageAggregationType(uint256 _requestID) {\n        require(orc.getAggregationType(_requestID) == 2);\n        _;\n    }\n}\n\n\n\n\n\n\n\n\n\n/////////////////////////////////////////////////////////////////////////////////////////////////\n//    // not needed\n//    // @notice each oracle sends their response to through this function\n//    // filling up the Answer struct at index requestID.\n//    // @dev\n//    // @param _requestID ID of request\n//    // @param _actualResult the value the off-chain oracle has collected\n//    // @return bool, true to say answer has been submitted\n//    function receiveResponse(\n//        uint256 _requestID,\n//        bytes memory _actualResult\n//    )\n//    public\n//    onlyAuthorisedOraclesYetToVote(_requestID) // makes sure only oracles that are authorised call call this function,\n//    // also only if it has not yet submitted an answer\n//    cancelFlagCheck(_requestID) // requires cancelFlag == 0\n//    returns(bool)\n//    {\n//        // only logs answers for any number of oracles that are under the number required\n//        if (answers[_requestID].oracleCounter < orc.getNumberOfOracles(_requestID)) {\n//            answers[_requestID].requestID = _requestID; // assign correct id\n//            answers[_requestID].oracleCommits[msg.sender] = _actualResult; // orcale nodes answer mapped to its address\n//            answers[_requestID].oracleHasSubmitted[msg.sender] = true; // it has now submitted.\n//            answers[_requestID].oracleAddresses[answers[_requestID].oracleCounter] = msg.sender; // map counter to oracle addr\n//            answers[_requestID].oracleCounter++; // once this is equal we know to enter next if statement\n//            answers[_requestID].cancelFlag = 0; // sets cancelFlag to 0\n//            emit ResponseReceived(msg.sender, \"response logged\"); // emits to listeners that a response has been logged\n//        }\n//        // if the counter has reached the number of oracles needed, on the last oracle,\n//        // we can call the deliverResponse with the aggregation() method with returns a single result\n//        if(answers[_requestID].oracleCounter == orc.getNumberOfOracles(_requestID)) {\n//            answers[_requestID].lastOracle = true; // flag to know all oracles have submitted a vote\n//            // call aggregator function, returns a final result and an array of correct oracles\n//            (bytes memory finalResult, address[] memory correctOracles) = aggregation(_requestID);\n//            orc.deliverResponse(_requestID, finalResult, correctOracles); // call the deliverResponse function\n//        }\n//        return answers[_requestID].oracleHasSubmitted[msg.sender]; // returns true\n//    }\n\n//    // @notice aggregates results on a voting system, also requires that false votes are not larger than a threshold\n//    // @dev\n//    // @param _requestID pass in requestID to index the answers\n//    // @return final result\n//    function aggregation(\n//        uint256 _requestID)\n//    internal\n//    cancelFlagCheck(_requestID) // requires cancelFlag == 0\n//    returns(\n//        bytes memory,\n//        address[] memory)\n//    {\n//        // local finalResult initialised\n//        bytes memory finalResult;\n//        //gets dataType from ORC request struct which is then used for a hash of the params to match the results\n//        answers[_requestID].dataType = orc.getDataType(_requestID);\n//        // loop through the oracle counter to get oracle address and determine their result\n//        for (uint i=0; i<answers[_requestID].oracleCounter; i++){\n//            address oracleAddress = answers[_requestID].oracleAddresses[i]; // assign oracleAddress\n//            // ensures actual result and required result are the same\n//            bytes32 responseHash = keccak256(abi.encodePacked(\n//                    answers[_requestID].dataType, answers[_requestID].oracleResults[oracleAddress]\n//                )); // response hash from answer\n//            emit LogHashes(orc.getPHash(_requestID), responseHash); // emits to listeners to 2 hashes, these should equal\n//            if (responseHash == orc.getPHash(_requestID)){\n//                answers[_requestID].t++; // if correct increment the true count\n//                answers[_requestID].correctOracles.push(oracleAddress); // adds correct oracles to an array\n//                if (finalResult.length <= 0) {\n//                    // first response will assign its answer to the actual answer\n//                    finalResult = answers[_requestID].oracleResults[oracleAddress]; // as these are all the same\n//                }\n//            } else {\n//                //otherwise increment the false count\n//                answers[_requestID].f++;\n//            }\n//        }\n//        // requires a threshold for false answers\n//        require(!(answers[_requestID].f > (answers[_requestID].oracleCounter - 1) / 3), 'too many incorrect nodes');\n//        emit AggregationCompleted(_requestID, \"aggregation complete\");\n//        return (finalResult, answers[_requestID].correctOracles);\n//    }\n\n\n\n\n\n\n",
  "sourcePath": "/home/willp/Documents/MSc_Computer_Science/Msc_project/Research_Code/IoToracle/IoToracle/contracts/AggregatorContract.sol",
  "compiler": {
    "name": "solc",
    "version": "0.8.15+commit.e14f2714.Emscripten.clang"
  },
  "schemaVersion": "3.4.7",
  "updatedAt": "2022-08-09T17:19:11.848Z",
  "networkType": "ethereum",
  "devdoc": {
    "kind": "dev",
    "methods": {},
    "version": 1
  },
  "userdoc": {
    "kind": "user",
    "methods": {},
    "version": 1
  }
}