{
  "contractName": "AggregatorContract",
  "abi": [
    {
      "inputs": [
        {
          "internalType": "address",
          "name": "_addr",
          "type": "address"
        }
      ],
      "stateMutability": "nonpayable",
      "type": "constructor"
    },
    {
      "anonymous": false,
      "inputs": [
        {
          "indexed": false,
          "internalType": "uint256",
          "name": "",
          "type": "uint256"
        },
        {
          "indexed": false,
          "internalType": "string",
          "name": "",
          "type": "string"
        }
      ],
      "name": "AggregationCompleted",
      "type": "event"
    },
    {
      "anonymous": false,
      "inputs": [
        {
          "indexed": false,
          "internalType": "bytes32",
          "name": "",
          "type": "bytes32"
        },
        {
          "indexed": false,
          "internalType": "bytes32",
          "name": "",
          "type": "bytes32"
        }
      ],
      "name": "LogHashes",
      "type": "event"
    },
    {
      "anonymous": false,
      "inputs": [
        {
          "indexed": false,
          "internalType": "address",
          "name": "",
          "type": "address"
        },
        {
          "indexed": false,
          "internalType": "string",
          "name": "",
          "type": "string"
        }
      ],
      "name": "ResponseReceived",
      "type": "event"
    },
    {
      "inputs": [],
      "name": "owner",
      "outputs": [
        {
          "internalType": "address payable",
          "name": "",
          "type": "address"
        }
      ],
      "stateMutability": "view",
      "type": "function",
      "constant": true
    },
    {
      "inputs": [
        {
          "internalType": "uint256",
          "name": "_requestID",
          "type": "uint256"
        },
        {
          "internalType": "bytes",
          "name": "_actualResult",
          "type": "bytes"
        }
      ],
      "name": "receiveResponse",
      "outputs": [
        {
          "internalType": "bool",
          "name": "",
          "type": "bool"
        }
      ],
      "stateMutability": "nonpayable",
      "type": "function"
    }
  ],
  "bytecode": "0x60806040523480156200001157600080fd5b5060405162001aeb38038062001aeb8339818101604052810190620000379190620000e9565b80600160006101000a81548173ffffffffffffffffffffffffffffffffffffffff021916908373ffffffffffffffffffffffffffffffffffffffff160217905550506200011b565b600080fd5b600073ffffffffffffffffffffffffffffffffffffffff82169050919050565b6000620000b18262000084565b9050919050565b620000c381620000a4565b8114620000cf57600080fd5b50565b600081519050620000e381620000b8565b92915050565b6000602082840312156200010257620001016200007f565b5b60006200011284828501620000d2565b91505092915050565b6119c0806200012b6000396000f3fe608060405234801561001057600080fd5b50600436106100365760003560e01c80638da5cb5b1461003b578063f8f14f4214610059575b600080fd5b610043610089565b6040516100509190610da4565b60405180910390f35b610073600480360381019061006e9190610f4f565b6100ad565b6040516100809190610fc6565b60405180910390f35b60008054906101000a900473ffffffffffffffffffffffffffffffffffffffff1681565b600082600160009054906101000a900473ffffffffffffffffffffffffffffffffffffffff1673ffffffffffffffffffffffffffffffffffffffff1663a37b354d82336040518363ffffffff1660e01b815260040161010d929190611011565b602060405180830381865afa15801561012a573d6000803e3d6000fd5b505050506040513d601f19601f8201168201806040525081019061014e9190611066565b61015757600080fd5b600015156002826064811061016f5761016e611093565b5b6007020160020160003373ffffffffffffffffffffffffffffffffffffffff1673ffffffffffffffffffffffffffffffffffffffff16815260200190815260200160002060009054906101000a900460ff161515146101cd57600080fd5b600160009054906101000a900473ffffffffffffffffffffffffffffffffffffffff1673ffffffffffffffffffffffffffffffffffffffff166391a3632a856040518263ffffffff1660e01b815260040161022891906110c2565b602060405180830381865afa158015610245573d6000803e3d6000fd5b505050506040513d601f19601f820116820180604052508101906102699190611119565b63ffffffff166002856064811061028357610282611093565b5b600702016005015410156104405783600285606481106102a6576102a5611093565b5b600702016000018190555082600285606481106102c6576102c5611093565b5b6007020160030160003373ffffffffffffffffffffffffffffffffffffffff1673ffffffffffffffffffffffffffffffffffffffff1681526020019081526020016000209081610316919061135d565b5060016002856064811061032d5761032c611093565b5b6007020160020160003373ffffffffffffffffffffffffffffffffffffffff1673ffffffffffffffffffffffffffffffffffffffff16815260200190815260200160002060006101000a81548160ff021916908315150217905550336002856064811061039d5761039c611093565b5b600702016004016000600287606481106103ba576103b9611093565b5b6007020160050154815260200190815260200160002060006101000a81548173ffffffffffffffffffffffffffffffffffffffff021916908373ffffffffffffffffffffffffffffffffffffffff1602179055506002846064811061042257610421611093565b5b60070201600501600081548092919061043a9061145e565b91905055505b600160009054906101000a900473ffffffffffffffffffffffffffffffffffffffff1673ffffffffffffffffffffffffffffffffffffffff166391a3632a856040518263ffffffff1660e01b815260040161049b91906110c2565b602060405180830381865afa1580156104b8573d6000803e3d6000fd5b505050506040513d601f19601f820116820180604052508101906104dc9190611119565b63ffffffff16600285606481106104f6576104f5611093565b5b6007020160050154036105d2577fe4cba15a82b5f91e40e6fcd30c425c90aa715d1d6d73eb1fedb1baf58c28d6dd336040516105329190611503565b60405180910390a1600160009054906101000a900473ffffffffffffffffffffffffffffffffffffffff1673ffffffffffffffffffffffffffffffffffffffff1663ea317d5d8561058287610641565b6040518363ffffffff1660e01b815260040161059f9291906115ae565b600060405180830381600087803b1580156105b957600080fd5b505af11580156105cd573d6000803e3d6000fd5b505050505b600284606481106105e6576105e5611093565b5b6007020160020160003373ffffffffffffffffffffffffffffffffffffffff1673ffffffffffffffffffffffffffffffffffffffff16815260200190815260200160002060009054906101000a900460ff1691505092915050565b606080600160009054906101000a900473ffffffffffffffffffffffffffffffffffffffff1673ffffffffffffffffffffffffffffffffffffffff166357442e79846040518263ffffffff1660e01b815260040161069f91906110c2565b600060405180830381865afa1580156106bc573d6000803e3d6000fd5b505050506040513d6000823e3d601f19601f820116820180604052508101906106e5919061164e565b600284606481106106f9576106f8611093565b5b60070201600101908161070c919061135d565b5060005b6002846064811061072457610723611093565b5b60070201600501548111610bec5760006002856064811061074857610747611093565b5b60070201600401600083815260200190815260200160002060009054906101000a900473ffffffffffffffffffffffffffffffffffffffff16905060006002866064811061079957610798611093565b5b60070201600101600287606481106107b4576107b3611093565b5b6007020160030160008473ffffffffffffffffffffffffffffffffffffffff1673ffffffffffffffffffffffffffffffffffffffff168152602001908152602001600020604051602001610809929190611725565b6040516020818303038152906040528051906020012090507f1034809265ff4258719a9aebc8a98d3ae11c847f3db81864425e812fd387c188600160009054906101000a900473ffffffffffffffffffffffffffffffffffffffff1673ffffffffffffffffffffffffffffffffffffffff1663829c22fd886040518263ffffffff1660e01b815260040161089d91906110c2565b602060405180830381865afa1580156108ba573d6000803e3d6000fd5b505050506040513d601f19601f820116820180604052508101906108de919061177f565b826040516108ed9291906117bb565b60405180910390a1600160009054906101000a900473ffffffffffffffffffffffffffffffffffffffff1673ffffffffffffffffffffffffffffffffffffffff1663829c22fd876040518263ffffffff1660e01b815260040161095091906110c2565b602060405180830381865afa15801561096d573d6000803e3d6000fd5b505050506040513d601f19601f82011682018060405250810190610991919061177f565b600287606481106109a5576109a4611093565b5b60070201600101600288606481106109c0576109bf611093565b5b6007020160030160008573ffffffffffffffffffffffffffffffffffffffff1673ffffffffffffffffffffffffffffffffffffffff168152602001908152602001600020604051602001610a15929190611725565b6040516020818303038152906040528051906020012003610b7c5760028660648110610a4457610a43611093565b5b60070201600601600081819054906101000a900463ffffffff1680929190610a6b906117e4565b91906101000a81548163ffffffff021916908363ffffffff160217905550506000845111610b775760028660648110610aa757610aa6611093565b5b6007020160030160008373ffffffffffffffffffffffffffffffffffffffff1673ffffffffffffffffffffffffffffffffffffffff1681526020019081526020016000208054610af690611180565b80601f0160208091040260200160405190810160405280929190818152602001828054610b2290611180565b8015610b6f5780601f10610b4457610100808354040283529160200191610b6f565b820191906000526020600020905b815481529060010190602001808311610b5257829003601f168201915b505050505093505b610bd7565b60028660648110610b9057610b8f611093565b5b60070201600601600481819054906101000a900463ffffffff1680929190610bb7906117e4565b91906101000a81548163ffffffff021916908363ffffffff160217905550505b50508080610be49061145e565b915050610710565b506003600160028560648110610c0557610c04611093565b5b6007020160050154610c179190611810565b610c219190611873565b60028460648110610c3557610c34611093565b5b6007020160060160049054906101000a900463ffffffff1663ffffffff161115610c94576040517f08c379a0000000000000000000000000000000000000000000000000000000008152600401610c8b906118f0565b60405180910390fd5b7fab982296b91a9b70c6739c96524c481cf0a1714be617e9bb39538f46ad5c880083604051610cc3919061195c565b60405180910390a1600160009054906101000a900473ffffffffffffffffffffffffffffffffffffffff1673ffffffffffffffffffffffffffffffffffffffff1663ea317d5d84836040518363ffffffff1660e01b8152600401610d289291906115ae565b600060405180830381600087803b158015610d4257600080fd5b505af1158015610d56573d6000803e3d6000fd5b5050505080915050919050565b600073ffffffffffffffffffffffffffffffffffffffff82169050919050565b6000610d8e82610d63565b9050919050565b610d9e81610d83565b82525050565b6000602082019050610db96000830184610d95565b92915050565b6000604051905090565b600080fd5b600080fd5b6000819050919050565b610de681610dd3565b8114610df157600080fd5b50565b600081359050610e0381610ddd565b92915050565b600080fd5b600080fd5b6000601f19601f8301169050919050565b7f4e487b7100000000000000000000000000000000000000000000000000000000600052604160045260246000fd5b610e5c82610e13565b810181811067ffffffffffffffff82111715610e7b57610e7a610e24565b5b80604052505050565b6000610e8e610dbf565b9050610e9a8282610e53565b919050565b600067ffffffffffffffff821115610eba57610eb9610e24565b5b610ec382610e13565b9050602081019050919050565b82818337600083830152505050565b6000610ef2610eed84610e9f565b610e84565b905082815260208101848484011115610f0e57610f0d610e0e565b5b610f19848285610ed0565b509392505050565b600082601f830112610f3657610f35610e09565b5b8135610f46848260208601610edf565b91505092915050565b60008060408385031215610f6657610f65610dc9565b5b6000610f7485828601610df4565b925050602083013567ffffffffffffffff811115610f9557610f94610dce565b5b610fa185828601610f21565b9150509250929050565b60008115159050919050565b610fc081610fab565b82525050565b6000602082019050610fdb6000830184610fb7565b92915050565b610fea81610dd3565b82525050565b6000610ffb82610d63565b9050919050565b61100b81610ff0565b82525050565b60006040820190506110266000830185610fe1565b6110336020830184611002565b9392505050565b61104381610fab565b811461104e57600080fd5b50565b6000815190506110608161103a565b92915050565b60006020828403121561107c5761107b610dc9565b5b600061108a84828501611051565b91505092915050565b7f4e487b7100000000000000000000000000000000000000000000000000000000600052603260045260246000fd5b60006020820190506110d76000830184610fe1565b92915050565b600063ffffffff82169050919050565b6110f6816110dd565b811461110157600080fd5b50565b600081519050611113816110ed565b92915050565b60006020828403121561112f5761112e610dc9565b5b600061113d84828501611104565b91505092915050565b600081519050919050565b7f4e487b7100000000000000000000000000000000000000000000000000000000600052602260045260246000fd5b6000600282049050600182168061119857607f821691505b6020821081036111ab576111aa611151565b5b50919050565b60008190508160005260206000209050919050565b60006020601f8301049050919050565b600082821b905092915050565b6000600883026112137fffffffffffffffffffffffffffffffffffffffffffffffffffffffffffffffff826111d6565b61121d86836111d6565b95508019841693508086168417925050509392505050565b6000819050919050565b600061125a61125561125084610dd3565b611235565b610dd3565b9050919050565b6000819050919050565b6112748361123f565b61128861128082611261565b8484546111e3565b825550505050565b600090565b61129d611290565b6112a881848461126b565b505050565b5b818110156112cc576112c1600082611295565b6001810190506112ae565b5050565b601f821115611311576112e2816111b1565b6112eb846111c6565b810160208510156112fa578190505b61130e611306856111c6565b8301826112ad565b50505b505050565b600082821c905092915050565b600061133460001984600802611316565b1980831691505092915050565b600061134d8383611323565b9150826002028217905092915050565b61136682611146565b67ffffffffffffffff81111561137f5761137e610e24565b5b6113898254611180565b6113948282856112d0565b600060209050601f8311600181146113c757600084156113b5578287015190505b6113bf8582611341565b865550611427565b601f1984166113d5866111b1565b60005b828110156113fd578489015182556001820191506020850194506020810190506113d8565b8683101561141a5784890151611416601f891682611323565b8355505b6001600288020188555050505b505050505050565b7f4e487b7100000000000000000000000000000000000000000000000000000000600052601160045260246000fd5b600061146982610dd3565b91507fffffffffffffffffffffffffffffffffffffffffffffffffffffffffffffffff820361149b5761149a61142f565b5b600182019050919050565b600082825260208201905092915050565b7f726573706f6e7365206c6f676765640000000000000000000000000000000000600082015250565b60006114ed600f836114a6565b91506114f8826114b7565b602082019050919050565b60006040820190506115186000830184611002565b8181036020830152611529816114e0565b905092915050565b600082825260208201905092915050565b60005b83811015611560578082015181840152602081019050611545565b8381111561156f576000848401525b50505050565b600061158082611146565b61158a8185611531565b935061159a818560208601611542565b6115a381610e13565b840191505092915050565b60006040820190506115c36000830185610fe1565b81810360208301526115d58184611575565b90509392505050565b60006115f16115ec84610e9f565b610e84565b90508281526020810184848401111561160d5761160c610e0e565b5b611618848285611542565b509392505050565b600082601f83011261163557611634610e09565b5b81516116458482602086016115de565b91505092915050565b60006020828403121561166457611663610dc9565b5b600082015167ffffffffffffffff81111561168257611681610dce565b5b61168e84828501611620565b91505092915050565b600081905092915050565b600081546116af81611180565b6116b98186611697565b945060018216600081146116d457600181146116e95761171c565b60ff198316865281151582028601935061171c565b6116f2856111b1565b60005b83811015611714578154818901526001820191506020810190506116f5565b838801955050505b50505092915050565b600061173182856116a2565b915061173d82846116a2565b91508190509392505050565b6000819050919050565b61175c81611749565b811461176757600080fd5b50565b60008151905061177981611753565b92915050565b60006020828403121561179557611794610dc9565b5b60006117a38482850161176a565b91505092915050565b6117b581611749565b82525050565b60006040820190506117d060008301856117ac565b6117dd60208301846117ac565b9392505050565b60006117ef826110dd565b915063ffffffff82036118055761180461142f565b5b600182019050919050565b600061181b82610dd3565b915061182683610dd3565b9250828210156118395761183861142f565b5b828203905092915050565b7f4e487b7100000000000000000000000000000000000000000000000000000000600052601260045260246000fd5b600061187e82610dd3565b915061188983610dd3565b92508261189957611898611844565b5b828204905092915050565b7f746f6f206d616e7920696e636f7272656374206e6f6465730000000000000000600082015250565b60006118da6018836114a6565b91506118e5826118a4565b602082019050919050565b60006020820190508181036000830152611909816118cd565b9050919050565b7f6167677265676174696f6e20636f6d706c657465000000000000000000000000600082015250565b60006119466014836114a6565b915061195182611910565b602082019050919050565b60006040820190506119716000830184610fe1565b818103602083015261198281611939565b90509291505056fea2646970667358221220ca325c6bac1fd0d0581ae7dece45cfec95ddcfbe95932019a5c3b4919724080e64736f6c634300080f0033",
  "immutableReferences": {},
  "source": "// SPDX-License-Identifier: MIT\npragma solidity ^0.8.0;\n\nimport \"./OracleRequesterContract.sol\";\n\ncontract AggregatorContract {\n\n    address payable public owner;\n    // need an answers struct\n    OracleRequesterContract orc;\n    //orc = OracleRequesterContract() // address of deployed contract\n    Answer[100] answers; // array of 100 Answer structs\n    struct Answer {\n        uint256 requestID; // the request ID\n        bytes dataType; // data type of request 'bool' 'temp' etc\n        mapping (address => bool) oracleHasSubmitted; // authorised oracles, marked true when voted\n        mapping (address => bytes) oracleResults; // add their result to a map of their address\n        mapping (uint => address) oracleAddresses; // uint to address to match counter and iterate through\n        uint256 oracleCounter; // keep an index of the oracles\n        uint32 t; // a true counter;\n        uint32 f; // a false counter: we need this under (n-1)/3\n    }\n\n    event ResponseReceived(address, string);\n    event AggregationCompleted(uint256, string);\n    event LogHashes(bytes32, bytes32);\n\n    constructor(address _addr) {\n        // initialise the Oracle Request Contract contract\n        orc = OracleRequesterContract(_addr);\n    }\n\n    // @notice each oracle sends their response to through this function\n    // filling up the Answer struct at index requestID.\n    // @dev\n    // @param _requestID ID of request\n    // @param _actualResult the value the off-chain oracle has collected\n    // @return bool, true to say answer has been submitted\n    function receiveResponse(\n        uint256 _requestID,\n        bytes memory _actualResult\n    )\n    public\n    onlyAuthorisedOraclesYetToVote(_requestID)\n    returns(bool){\n        if (answers[_requestID].oracleCounter < orc.getNumberOfOracles(_requestID)) {\n            answers[_requestID].requestID = _requestID;\n            answers[_requestID].oracleResults[msg.sender] = _actualResult;\n            answers[_requestID].oracleHasSubmitted[msg.sender] = true;\n            answers[_requestID].oracleAddresses[answers[_requestID].oracleCounter] = msg.sender;\n            answers[_requestID].oracleCounter++;\n        }\n        // if the counter has reached the number of oracles needed,\n        // we can call the deliverResponse with the aggregation() method with returns a single result\n        if(answers[_requestID].oracleCounter == orc.getNumberOfOracles(_requestID)) {\n            // call aggregator function\n            emit ResponseReceived(msg.sender, \"response logged\");\n            orc.deliverResponse(_requestID, aggregation(_requestID));\n        }\n        return answers[_requestID].oracleHasSubmitted[msg.sender];\n    }\n\n    // @notice aggregates results on a voting system, also requires that false votes are not larger than a threshold\n    // @dev\n    // @param _requestID pass in requestID to index the answers\n    // @return final result\n    function aggregation(uint256 _requestID) internal returns(bytes memory) {\n        // local finalResult initialised\n        bytes memory finalResult;\n        //gets dataType from ORC request struct which is then used for a hash of the params to match the results\n        answers[_requestID].dataType = orc.getDataType(_requestID);\n        for (uint i=0; i<=answers[_requestID].oracleCounter; i++){\n            address oracleAddress = answers[_requestID].oracleAddresses[i];\n            // ensures actual result and required result are the same\n            bytes32 responseHash = keccak256(abi.encodePacked(\n                    answers[_requestID].dataType, answers[_requestID].oracleResults[oracleAddress]\n                ));\n            emit LogHashes(orc.getPHash(_requestID), responseHash);\n            if (keccak256(abi.encodePacked(\n                    answers[_requestID].dataType, answers[_requestID].oracleResults[oracleAddress]\n                )) == orc.getPHash(_requestID)){\n                // if correct increment the true count\n                answers[_requestID].t++;\n                if (finalResult.length <= 0) {\n                    // first response will assign its answer to the actual answer\n                    finalResult = answers[_requestID].oracleResults[oracleAddress];\n                }\n            } else {\n                //otherwise increment the false count\n                answers[_requestID].f++;\n            }\n        }\n        // requires a threshold for false answers\n        require(!(answers[_requestID].f > (answers[_requestID].oracleCounter - 1) / 3), 'too many incorrect nodes');\n        emit AggregationCompleted(_requestID, \"aggregation complete\");\n        orc.deliverResponse(_requestID, finalResult);\n        return finalResult;\n    }\n\n\n\n    modifier onlyAuthorisedOraclesYetToVote(uint256 _requestID) {\n        // checks that the oracle is in request list\n        require(orc.getOracleForRequest(_requestID, msg.sender));\n        // checks that the oracle hasn't yet voted.\n        require(answers[_requestID].oracleHasSubmitted[msg.sender] == false);\n        _;\n    }\n}\n\n\n\n\n\n\n",
  "sourcePath": "/home/willp/Documents/MSc_Computer_Science/PROJECT/Research_Code/july22_projectcode/IoToracle/contracts/AggregatorContract.sol",
  "compiler": {
    "name": "solc",
    "version": "0.8.15+commit.e14f2714.Emscripten.clang"
  },
  "schemaVersion": "3.4.8",
  "updatedAt": "2022-07-22T21:55:06.363Z",
  "networkType": "ethereum",
  "devdoc": {
    "kind": "dev",
    "methods": {},
    "version": 1
  },
  "userdoc": {
    "kind": "user",
    "methods": {},
    "version": 1
  }
}