{
  "contractName": "AggregatorContract",
  "abi": [
    {
      "inputs": [
        {
          "internalType": "address",
          "name": "_addr",
          "type": "address"
        }
      ],
      "stateMutability": "nonpayable",
      "type": "constructor"
    },
    {
      "anonymous": false,
      "inputs": [
        {
          "indexed": false,
          "internalType": "uint256",
          "name": "",
          "type": "uint256"
        },
        {
          "indexed": false,
          "internalType": "string",
          "name": "",
          "type": "string"
        }
      ],
      "name": "AggregationCompleted",
      "type": "event"
    },
    {
      "anonymous": false,
      "inputs": [
        {
          "indexed": false,
          "internalType": "uint256",
          "name": "",
          "type": "uint256"
        },
        {
          "indexed": false,
          "internalType": "string",
          "name": "",
          "type": "string"
        }
      ],
      "name": "CommitsPlaced",
      "type": "event"
    },
    {
      "anonymous": false,
      "inputs": [
        {
          "indexed": false,
          "internalType": "bytes32",
          "name": "",
          "type": "bytes32"
        },
        {
          "indexed": false,
          "internalType": "bytes32",
          "name": "",
          "type": "bytes32"
        }
      ],
      "name": "LogHashes",
      "type": "event"
    },
    {
      "anonymous": false,
      "inputs": [
        {
          "indexed": false,
          "internalType": "uint256",
          "name": "",
          "type": "uint256"
        },
        {
          "indexed": false,
          "internalType": "string",
          "name": "",
          "type": "string"
        }
      ],
      "name": "RevealsPlaced",
      "type": "event"
    },
    {
      "inputs": [
        {
          "internalType": "uint256",
          "name": "",
          "type": "uint256"
        }
      ],
      "name": "answers",
      "outputs": [
        {
          "internalType": "uint256",
          "name": "requestID",
          "type": "uint256"
        },
        {
          "internalType": "bytes",
          "name": "dataType",
          "type": "bytes"
        },
        {
          "internalType": "uint256",
          "name": "oracleCounter",
          "type": "uint256"
        },
        {
          "internalType": "uint32",
          "name": "t",
          "type": "uint32"
        },
        {
          "internalType": "uint32",
          "name": "f",
          "type": "uint32"
        },
        {
          "internalType": "uint256",
          "name": "cancelFlag",
          "type": "uint256"
        },
        {
          "internalType": "uint256",
          "name": "commitsFlag",
          "type": "uint256"
        },
        {
          "internalType": "uint256",
          "name": "revealsFlag",
          "type": "uint256"
        },
        {
          "internalType": "bool",
          "name": "lastOracle",
          "type": "bool"
        }
      ],
      "stateMutability": "view",
      "type": "function",
      "constant": true
    },
    {
      "inputs": [],
      "name": "owner",
      "outputs": [
        {
          "internalType": "address",
          "name": "",
          "type": "address"
        }
      ],
      "stateMutability": "view",
      "type": "function",
      "constant": true
    },
    {
      "inputs": [
        {
          "internalType": "uint256",
          "name": "_requestID",
          "type": "uint256"
        },
        {
          "internalType": "bytes32",
          "name": "_commitHash",
          "type": "bytes32"
        }
      ],
      "name": "commitResponse",
      "outputs": [
        {
          "internalType": "bool",
          "name": "",
          "type": "bool"
        }
      ],
      "stateMutability": "nonpayable",
      "type": "function"
    },
    {
      "inputs": [
        {
          "internalType": "uint256",
          "name": "_requestID",
          "type": "uint256"
        },
        {
          "internalType": "bytes",
          "name": "_result",
          "type": "bytes"
        },
        {
          "internalType": "bytes",
          "name": "_secret",
          "type": "bytes"
        }
      ],
      "name": "revealVoteResponse",
      "outputs": [
        {
          "internalType": "bool",
          "name": "",
          "type": "bool"
        }
      ],
      "stateMutability": "nonpayable",
      "type": "function"
    },
    {
      "inputs": [
        {
          "internalType": "uint256",
          "name": "_requestID",
          "type": "uint256"
        },
        {
          "internalType": "int256",
          "name": "_result",
          "type": "int256"
        },
        {
          "internalType": "bytes[]",
          "name": "_secret",
          "type": "bytes[]"
        }
      ],
      "name": "revealAverageResponse",
      "outputs": [
        {
          "internalType": "bool",
          "name": "",
          "type": "bool"
        }
      ],
      "stateMutability": "nonpayable",
      "type": "function"
    },
    {
      "inputs": [
        {
          "internalType": "uint256",
          "name": "_requestID",
          "type": "uint256"
        }
      ],
      "name": "cancelRequest",
      "outputs": [
        {
          "internalType": "bool",
          "name": "",
          "type": "bool"
        }
      ],
      "stateMutability": "nonpayable",
      "type": "function"
    }
  ],
  "bytecode": "0x60806040523480156200001157600080fd5b506040516200323a3803806200323a833981810160405281019062000037919062000129565b336000806101000a81548173ffffffffffffffffffffffffffffffffffffffff021916908373ffffffffffffffffffffffffffffffffffffffff16021790555080600160006101000a81548173ffffffffffffffffffffffffffffffffffffffff021916908373ffffffffffffffffffffffffffffffffffffffff160217905550506200015b565b600080fd5b600073ffffffffffffffffffffffffffffffffffffffff82169050919050565b6000620000f182620000c4565b9050919050565b6200010381620000e4565b81146200010f57600080fd5b50565b6000815190506200012381620000f8565b92915050565b600060208284031215620001425762000141620000bf565b5b6000620001528482850162000112565b91505092915050565b6130cf806200016b6000396000f3fe608060405234801561001057600080fd5b50600436106100625760003560e01c8063074e324d1461006757806317599cc5146100975780633015394c146100cf57806335605407146100ff5780638259a8c11461012f5780638da5cb5b1461015f575b600080fd5b610081600480360381019061007c9190612010565b61017d565b60405161008e919061206b565b60405180910390f35b6100b160048036038101906100ac9190612086565b6106c7565b6040516100c69998979695949392919061217a565b60405180910390f35b6100e960048036038101906100e49190612086565b6107d0565b6040516100f6919061206b565b60405180910390f35b61011960048036038101906101149190612343565b610880565b604051610126919061206b565b60405180910390f35b610149600480360381019061014491906124ea565b610f12565b604051610156919061206b565b60405180910390f35b610167611571565b604051610174919061259a565b60405180910390f35b600082600160009054906101000a900473ffffffffffffffffffffffffffffffffffffffff1673ffffffffffffffffffffffffffffffffffffffff1663a37b354d82336040518363ffffffff1660e01b81526004016101dd9291906125b5565b602060405180830381865afa1580156101fa573d6000803e3d6000fd5b505050506040513d601f19601f8201168201806040525081019061021e919061260a565b61022757600080fd5b600015156002826064811061023f5761023e612637565b5b6010020160020160003373ffffffffffffffffffffffffffffffffffffffff1673ffffffffffffffffffffffffffffffffffffffff16815260200190815260200160002060009054906101000a900460ff1615151461029d57600080fd5b836000600282606481106102b4576102b3612637565b5b60100201600c0154146102c657600080fd5b846000600282606481106102dd576102dc612637565b5b60100201600d0154146102ef57600080fd5b60006002876064811061030557610304612637565b5b60100201600001540361033357856002876064811061032757610326612637565b5b60100201600001819055505b600160009054906101000a900473ffffffffffffffffffffffffffffffffffffffff1673ffffffffffffffffffffffffffffffffffffffff166391a3632a876040518263ffffffff1660e01b815260040161038e9190612666565b602060405180830381865afa1580156103ab573d6000803e3d6000fd5b505050506040513d601f19601f820116820180604052508101906103cf91906126ad565b63ffffffff16600287606481106103e9576103e8612637565b5b6010020160080154101561057d57846002876064811061040c5761040b612637565b5b6010020160040160003373ffffffffffffffffffffffffffffffffffffffff1673ffffffffffffffffffffffffffffffffffffffff1681526020019081526020016000208190555060016002876064811061046a57610469612637565b5b6010020160020160003373ffffffffffffffffffffffffffffffffffffffff1673ffffffffffffffffffffffffffffffffffffffff16815260200190815260200160002060006101000a81548160ff02191690831515021790555033600287606481106104da576104d9612637565b5b601002016007016000600289606481106104f7576104f6612637565b5b6010020160080154815260200190815260200160002060006101000a81548173ffffffffffffffffffffffffffffffffffffffff021916908373ffffffffffffffffffffffffffffffffffffffff1602179055506002866064811061055f5761055e612637565b5b60100201600801600081548092919061057790612709565b91905055505b600160009054906101000a900473ffffffffffffffffffffffffffffffffffffffff1673ffffffffffffffffffffffffffffffffffffffff166391a3632a876040518263ffffffff1660e01b81526004016105d89190612666565b602060405180830381865afa1580156105f5573d6000803e3d6000fd5b505050506040513d601f19601f8201168201806040525081019061061991906126ad565b63ffffffff166002876064811061063357610632612637565b5b6010020160080154036106ba5760016002876064811061065657610655612637565b5b60100201600d018190555060006002876064811061067757610676612637565b5b60100201600801819055507f94654b3250060d23222c9a81fdafe2f23accfb1dc46fb56b8e4aa75c0776e0fd866040516106b191906127ae565b60405180910390a15b6001935050505092915050565b600281606481106106d757600080fd5b601002016000915090508060000154908060010180546106f69061280b565b80601f01602080910402602001604051908101604052809291908181526020018280546107229061280b565b801561076f5780601f106107445761010080835404028352916020019161076f565b820191906000526020600020905b81548152906001019060200180831161075257829003601f168201915b50505050509080600801549080600b0160009054906101000a900463ffffffff169080600b0160049054906101000a900463ffffffff169080600c01549080600d01549080600e01549080600f0160009054906101000a900460ff16905089565b6000816000600282606481106107e9576107e8612637565b5b60100201600c0154146107fb57600080fd5b600160009054906101000a900473ffffffffffffffffffffffffffffffffffffffff1673ffffffffffffffffffffffffffffffffffffffff163373ffffffffffffffffffffffffffffffffffffffff161461085557600080fd5b60016002846064811061086b5761086a612637565b5b60100201600c01819055506001915050919050565b600083600160009054906101000a900473ffffffffffffffffffffffffffffffffffffffff1673ffffffffffffffffffffffffffffffffffffffff1663a37b354d82336040518363ffffffff1660e01b81526004016108e09291906125b5565b602060405180830381865afa1580156108fd573d6000803e3d6000fd5b505050506040513d601f19601f82011682018060405250810190610921919061260a565b61092a57600080fd5b600015156002826064811061094257610941612637565b5b6010020160030160003373ffffffffffffffffffffffffffffffffffffffff1673ffffffffffffffffffffffffffffffffffffffff16815260200190815260200160002060009054906101000a900460ff161515146109a057600080fd5b846000600282606481106109b7576109b6612637565b5b60100201600c0154146109c957600080fd5b856001600282606481106109e0576109df612637565b5b60100201600d0154146109f257600080fd5b86600060028260648110610a0957610a08612637565b5b60100201600e015414610a1b57600080fd5b8760018060009054906101000a900473ffffffffffffffffffffffffffffffffffffffff1673ffffffffffffffffffffffffffffffffffffffff1663e4888222836040518263ffffffff1660e01b8152600401610a789190612666565b602060405180830381865afa158015610a95573d6000803e3d6000fd5b505050506040513d601f19601f82011682018060405250810190610ab99190612851565b14610ac357600080fd5b60008789604051602001610ad892919061287e565b6040516020818303038152906040528051906020012090507f1034809265ff4258719a9aebc8a98d3ae11c847f3db81864425e812fd387c18860028b60648110610b2557610b24612637565b5b6010020160040160003373ffffffffffffffffffffffffffffffffffffffff1673ffffffffffffffffffffffffffffffffffffffff1681526020019081526020016000205482604051610b799291906128c4565b60405180910390a18060028b60648110610b9657610b95612637565b5b6010020160040160003373ffffffffffffffffffffffffffffffffffffffff1673ffffffffffffffffffffffffffffffffffffffff1681526020019081526020016000205403610cd257600160028b60648110610bf657610bf5612637565b5b6010020160030160003373ffffffffffffffffffffffffffffffffffffffff1673ffffffffffffffffffffffffffffffffffffffff16815260200190815260200160002060006101000a81548160ff02191690831515021790555060028a60648110610c6557610c64612637565b5b60100201600901339080600181540180825580915050600190039060005260206000200160009091909190916101000a81548173ffffffffffffffffffffffffffffffffffffffff021916908373ffffffffffffffffffffffffffffffffffffffff160217905550610dc0565b60028a60648110610ce657610ce5612637565b5b60100201600a01339080600181540180825580915050600190039060005260206000200160009091909190916101000a81548173ffffffffffffffffffffffffffffffffffffffff021916908373ffffffffffffffffffffffffffffffffffffffff160217905550600160028b60648110610d6457610d63612637565b5b6010020160030160003373ffffffffffffffffffffffffffffffffffffffff1673ffffffffffffffffffffffffffffffffffffffff16815260200190815260200160002060006101000a81548160ff0219169083151502179055505b60018060009054906101000a900473ffffffffffffffffffffffffffffffffffffffff1673ffffffffffffffffffffffffffffffffffffffff166391a3632a8c6040518263ffffffff1660e01b8152600401610e1c9190612666565b602060405180830381865afa158015610e39573d6000803e3d6000fd5b505050506040513d601f19601f82011682018060405250810190610e5d91906126ad565b610e6791906128ed565b63ffffffff1660028b60648110610e8157610e80612637565b5b601002016008015403610ed0577fcd9014e59ca398764ef85e5719d2151f53668c6d08f5ea98e064a65a6cccf06e8a604051610ebd919061296d565b60405180910390a1610ece8a611595565b505b60028a60648110610ee457610ee3612637565b5b601002016008016000815480929190610efc90612709565b9190505550600196505050505050509392505050565b600083600160009054906101000a900473ffffffffffffffffffffffffffffffffffffffff1673ffffffffffffffffffffffffffffffffffffffff1663a37b354d82336040518363ffffffff1660e01b8152600401610f729291906125b5565b602060405180830381865afa158015610f8f573d6000803e3d6000fd5b505050506040513d601f19601f82011682018060405250810190610fb3919061260a565b610fbc57600080fd5b6000151560028260648110610fd457610fd3612637565b5b6010020160030160003373ffffffffffffffffffffffffffffffffffffffff1673ffffffffffffffffffffffffffffffffffffffff16815260200190815260200160002060009054906101000a900460ff1615151461103257600080fd5b8460006002826064811061104957611048612637565b5b60100201600c01541461105b57600080fd5b8560016002826064811061107257611071612637565b5b60100201600d01541461108457600080fd5b8660006002826064811061109b5761109a612637565b5b60100201600e0154146110ad57600080fd5b876002600160009054906101000a900473ffffffffffffffffffffffffffffffffffffffff1673ffffffffffffffffffffffffffffffffffffffff1663e4888222836040518263ffffffff1660e01b815260040161110b9190612666565b602060405180830381865afa158015611128573d6000803e3d6000fd5b505050506040513d601f19601f8201168201806040525081019061114c9190612851565b1461115657600080fd5b6000878960405160200161116b929190612ab6565b6040516020818303038152906040528051906020012090508060028b6064811061119857611197612637565b5b6010020160040160003373ffffffffffffffffffffffffffffffffffffffff1673ffffffffffffffffffffffffffffffffffffffff1681526020019081526020016000205403611331578860028b606481106111f7576111f6612637565b5b6010020160060160003373ffffffffffffffffffffffffffffffffffffffff1673ffffffffffffffffffffffffffffffffffffffff16815260200190815260200160002081905550600160028b6064811061125557611254612637565b5b6010020160030160003373ffffffffffffffffffffffffffffffffffffffff1673ffffffffffffffffffffffffffffffffffffffff16815260200190815260200160002060006101000a81548160ff02191690831515021790555060028a606481106112c4576112c3612637565b5b60100201600901339080600181540180825580915050600190039060005260206000200160009091909190916101000a81548173ffffffffffffffffffffffffffffffffffffffff021916908373ffffffffffffffffffffffffffffffffffffffff16021790555061141f565b60028a6064811061134557611344612637565b5b60100201600a01339080600181540180825580915050600190039060005260206000200160009091909190916101000a81548173ffffffffffffffffffffffffffffffffffffffff021916908373ffffffffffffffffffffffffffffffffffffffff160217905550600160028b606481106113c3576113c2612637565b5b6010020160030160003373ffffffffffffffffffffffffffffffffffffffff1673ffffffffffffffffffffffffffffffffffffffff16815260200190815260200160002060006101000a81548160ff0219169083151502179055505b60028a6064811061143357611432612637565b5b60100201600801600081548092919061144b90612709565b919050555060018060009054906101000a900473ffffffffffffffffffffffffffffffffffffffff1673ffffffffffffffffffffffffffffffffffffffff166391a3632a8c6040518263ffffffff1660e01b81526004016114ac9190612666565b602060405180830381865afa1580156114c9573d6000803e3d6000fd5b505050506040513d601f19601f820116820180604052508101906114ed91906126ad565b6114f791906128ed565b63ffffffff1660028b6064811061151157611510612637565b5b601002016008015403611560577fcd9014e59ca398764ef85e5719d2151f53668c6d08f5ea98e064a65a6cccf06e8a60405161154d919061296d565b60405180910390a161155e8a611d42565b505b600196505050505050509392505050565b60008054906101000a900473ffffffffffffffffffffffffffffffffffffffff1681565b600060608060008060005b600287606481106115b4576115b3612637565b5b601002016009018054905081101561185c57600287606481106115da576115d9612637565b5b6010020160090181815481106115f3576115f2612637565b5b9060005260206000200160009054906101000a900473ffffffffffffffffffffffffffffffffffffffff169150600115156002886064811061163857611637612637565b5b6010020160050160008473ffffffffffffffffffffffffffffffffffffffff1673ffffffffffffffffffffffffffffffffffffffff16815260200190815260200160002060009054906101000a900460ff1615150361176f578185600289606481106116a7576116a6612637565b5b60100201600b0160009054906101000a900463ffffffff1663ffffffff16815181106116d6576116d5612637565b5b602002602001019073ffffffffffffffffffffffffffffffffffffffff16908173ffffffffffffffffffffffffffffffffffffffff16815250506002876064811061172457611723612637565b5b60100201600b01600081819054906101000a900463ffffffff168092919061174b90612ae6565b91906101000a81548163ffffffff021916908363ffffffff16021790555050611849565b81846002896064811061178557611784612637565b5b60100201600b0160049054906101000a900463ffffffff1663ffffffff16815181106117b4576117b3612637565b5b602002602001019073ffffffffffffffffffffffffffffffffffffffff16908173ffffffffffffffffffffffffffffffffffffffff16815250506002876064811061180257611801612637565b5b60100201600b01600481819054906101000a900463ffffffff168092919061182990612ae6565b91906101000a81548163ffffffff021916908363ffffffff160217905550505b808061185490612709565b9150506115a0565b506002866064811061187157611870612637565b5b60100201600b0160049054906101000a900463ffffffff1663ffffffff16600287606481106118a3576118a2612637565b5b60100201600b0160009054906101000a900463ffffffff1663ffffffff161115611a3f5760036001600288606481106118df576118de612637565b5b60100201600801546118f19190612b12565b6118fb9190612b75565b6002876064811061190f5761190e612637565b5b60100201600b0160049054906101000a900463ffffffff1663ffffffff16111561196e576040517f08c379a000000000000000000000000000000000000000000000000000000000815260040161196590612bf2565b60405180910390fd5b60019150600160009054906101000a900473ffffffffffffffffffffffffffffffffffffffff1673ffffffffffffffffffffffffffffffffffffffff166330407ad98784878760028c606481106119c8576119c7612637565b5b60100201600a016040518663ffffffff1660e01b81526004016119ef959493929190612dbc565b6020604051808303816000875af1158015611a0e573d6000803e3d6000fd5b505050506040513d601f19601f82011682018060405250810190611a32919061260a565b5081945050505050611d3d565b60028660648110611a5357611a52612637565b5b60100201600b0160009054906101000a900463ffffffff1663ffffffff1660028760648110611a8557611a84612637565b5b60100201600b0160049054906101000a900463ffffffff1663ffffffff161115611c21576003600160028860648110611ac157611ac0612637565b5b6010020160080154611ad39190612b12565b611add9190612b75565b60028760648110611af157611af0612637565b5b60100201600b0160009054906101000a900463ffffffff1663ffffffff161115611b50576040517f08c379a0000000000000000000000000000000000000000000000000000000008152600401611b4790612bf2565b60405180910390fd5b60009150600160009054906101000a900473ffffffffffffffffffffffffffffffffffffffff1673ffffffffffffffffffffffffffffffffffffffff166330407ad98784868860028c60648110611baa57611ba9612637565b5b60100201600a016040518663ffffffff1660e01b8152600401611bd1959493929190612dbc565b6020604051808303816000875af1158015611bf0573d6000803e3d6000fd5b505050506040513d601f19601f82011682018060405250810190611c14919061260a565b5081945050505050611d3d565b600160009054906101000a900473ffffffffffffffffffffffffffffffffffffffff1673ffffffffffffffffffffffffffffffffffffffff1663498d7df08760028960648110611c7457611c73612637565b5b60100201600a016040518363ffffffff1660e01b8152600401611c98929190612e24565b6020604051808303816000875af1158015611cb7573d6000803e3d6000fd5b505050506040513d601f19601f82011682018060405250810190611cdb919061260a565b50600160028760648110611cf257611cf1612637565b5b60100201600c01819055507fab982296b91a9b70c6739c96524c481cf0a1714be617e9bb39538f46ad5c880086604051611d2c9190612ea0565b60405180910390a160009450505050505b919050565b60008060008080600090505b60028660648110611d6257611d61612637565b5b6010020160090180549050811015611e475760028660648110611d8857611d87612637565b5b601002016009018181548110611da157611da0612637565b5b9060005260206000200160009054906101000a900473ffffffffffffffffffffffffffffffffffffffff16935060028660648110611de257611de1612637565b5b6010020160060160008573ffffffffffffffffffffffffffffffffffffffff1673ffffffffffffffffffffffffffffffffffffffff1681526020019081526020016000205483611e329190612ece565b92508080611e3f90612709565b915050611d4e565b5060028560648110611e5c57611e5b612637565b5b601002016009018054905082611e729190612f62565b9050600160009054906101000a900473ffffffffffffffffffffffffffffffffffffffff1673ffffffffffffffffffffffffffffffffffffffff166358621b7a868360028960648110611ec857611ec7612637565b5b6010020160090160028a60648110611ee357611ee2612637565b5b60100201600a016040518563ffffffff1660e01b8152600401611f099493929190612fcc565b6020604051808303816000875af1158015611f28573d6000803e3d6000fd5b505050506040513d601f19601f82011682018060405250810190611f4c919061260a565b507fab982296b91a9b70c6739c96524c481cf0a1714be617e9bb39538f46ad5c880085604051611f7c919061306b565b60405180910390a160019350505050919050565b6000604051905090565b600080fd5b600080fd5b6000819050919050565b611fb781611fa4565b8114611fc257600080fd5b50565b600081359050611fd481611fae565b92915050565b6000819050919050565b611fed81611fda565b8114611ff857600080fd5b50565b60008135905061200a81611fe4565b92915050565b6000806040838503121561202757612026611f9a565b5b600061203585828601611fc5565b925050602061204685828601611ffb565b9150509250929050565b60008115159050919050565b61206581612050565b82525050565b6000602082019050612080600083018461205c565b92915050565b60006020828403121561209c5761209b611f9a565b5b60006120aa84828501611fc5565b91505092915050565b6120bc81611fa4565b82525050565b600081519050919050565b600082825260208201905092915050565b60005b838110156120fc5780820151818401526020810190506120e1565b8381111561210b576000848401525b50505050565b6000601f19601f8301169050919050565b600061212d826120c2565b61213781856120cd565b93506121478185602086016120de565b61215081612111565b840191505092915050565b600063ffffffff82169050919050565b6121748161215b565b82525050565b600061012082019050612190600083018c6120b3565b81810360208301526121a2818b612122565b90506121b1604083018a6120b3565b6121be606083018961216b565b6121cb608083018861216b565b6121d860a08301876120b3565b6121e560c08301866120b3565b6121f260e08301856120b3565b61220061010083018461205c565b9a9950505050505050505050565b600080fd5b600080fd5b7f4e487b7100000000000000000000000000000000000000000000000000000000600052604160045260246000fd5b61225082612111565b810181811067ffffffffffffffff8211171561226f5761226e612218565b5b80604052505050565b6000612282611f90565b905061228e8282612247565b919050565b600067ffffffffffffffff8211156122ae576122ad612218565b5b6122b782612111565b9050602081019050919050565b82818337600083830152505050565b60006122e66122e184612293565b612278565b90508281526020810184848401111561230257612301612213565b5b61230d8482856122c4565b509392505050565b600082601f83011261232a5761232961220e565b5b813561233a8482602086016122d3565b91505092915050565b60008060006060848603121561235c5761235b611f9a565b5b600061236a86828701611fc5565b935050602084013567ffffffffffffffff81111561238b5761238a611f9f565b5b61239786828701612315565b925050604084013567ffffffffffffffff8111156123b8576123b7611f9f565b5b6123c486828701612315565b9150509250925092565b6000819050919050565b6123e1816123ce565b81146123ec57600080fd5b50565b6000813590506123fe816123d8565b92915050565b600067ffffffffffffffff82111561241f5761241e612218565b5b602082029050602081019050919050565b600080fd5b600061244861244384612404565b612278565b9050808382526020820190506020840283018581111561246b5761246a612430565b5b835b818110156124b257803567ffffffffffffffff8111156124905761248f61220e565b5b80860161249d8982612315565b8552602085019450505060208101905061246d565b5050509392505050565b600082601f8301126124d1576124d061220e565b5b81356124e1848260208601612435565b91505092915050565b60008060006060848603121561250357612502611f9a565b5b600061251186828701611fc5565b9350506020612522868287016123ef565b925050604084013567ffffffffffffffff81111561254357612542611f9f565b5b61254f868287016124bc565b9150509250925092565b600073ffffffffffffffffffffffffffffffffffffffff82169050919050565b600061258482612559565b9050919050565b61259481612579565b82525050565b60006020820190506125af600083018461258b565b92915050565b60006040820190506125ca60008301856120b3565b6125d7602083018461258b565b9392505050565b6125e781612050565b81146125f257600080fd5b50565b600081519050612604816125de565b92915050565b6000602082840312156126205761261f611f9a565b5b600061262e848285016125f5565b91505092915050565b7f4e487b7100000000000000000000000000000000000000000000000000000000600052603260045260246000fd5b600060208201905061267b60008301846120b3565b92915050565b61268a8161215b565b811461269557600080fd5b50565b6000815190506126a781612681565b92915050565b6000602082840312156126c3576126c2611f9a565b5b60006126d184828501612698565b91505092915050565b7f4e487b7100000000000000000000000000000000000000000000000000000000600052601160045260246000fd5b600061271482611fa4565b91507fffffffffffffffffffffffffffffffffffffffffffffffffffffffffffffffff8203612746576127456126da565b5b600182019050919050565b600082825260208201905092915050565b7f636f6d6d6974732061726520706c616365640000000000000000000000000000600082015250565b6000612798601283612751565b91506127a382612762565b602082019050919050565b60006040820190506127c360008301846120b3565b81810360208301526127d48161278b565b905092915050565b7f4e487b7100000000000000000000000000000000000000000000000000000000600052602260045260246000fd5b6000600282049050600182168061282357607f821691505b602082108103612836576128356127dc565b5b50919050565b60008151905061284b81611fae565b92915050565b60006020828403121561286757612866611f9a565b5b60006128758482850161283c565b91505092915050565b600060408201905081810360008301526128988185612122565b905081810360208301526128ac8184612122565b90509392505050565b6128be81611fda565b82525050565b60006040820190506128d960008301856128b5565b6128e660208301846128b5565b9392505050565b60006128f88261215b565b91506129038361215b565b925082821015612916576129156126da565b5b828203905092915050565b7f416c6c2072657665616c732068617665206265656e20706c6163656400000000600082015250565b6000612957601c83612751565b915061296282612921565b602082019050919050565b600060408201905061298260008301846120b3565b81810360208301526129938161294a565b905092915050565b600081519050919050565b600082825260208201905092915050565b6000819050602082019050919050565b600082825260208201905092915050565b60006129e3826120c2565b6129ed81856129c7565b93506129fd8185602086016120de565b612a0681612111565b840191505092915050565b6000612a1d83836129d8565b905092915050565b6000602082019050919050565b6000612a3d8261299b565b612a4781856129a6565b935083602082028501612a59856129b7565b8060005b85811015612a955784840389528151612a768582612a11565b9450612a8183612a25565b925060208a01995050600181019050612a5d565b50829750879550505050505092915050565b612ab0816123ce565b82525050565b60006040820190508181036000830152612ad08185612a32565b9050612adf6020830184612aa7565b9392505050565b6000612af18261215b565b915063ffffffff8203612b0757612b066126da565b5b600182019050919050565b6000612b1d82611fa4565b9150612b2883611fa4565b925082821015612b3b57612b3a6126da565b5b828203905092915050565b7f4e487b7100000000000000000000000000000000000000000000000000000000600052601260045260246000fd5b6000612b8082611fa4565b9150612b8b83611fa4565b925082612b9b57612b9a612b46565b5b828204905092915050565b7f746f6f206d616e7920696e636f7272656374206e6f6465730000000000000000600082015250565b6000612bdc601883612751565b9150612be782612ba6565b602082019050919050565b60006020820190508181036000830152612c0b81612bcf565b9050919050565b600081519050919050565b600082825260208201905092915050565b6000819050602082019050919050565b612c4781612579565b82525050565b6000612c598383612c3e565b60208301905092915050565b6000602082019050919050565b6000612c7d82612c12565b612c878185612c1d565b9350612c9283612c2e565b8060005b83811015612cc3578151612caa8882612c4d565b9750612cb583612c65565b925050600181019050612c96565b5085935050505092915050565b600081549050919050565b60008190508160005260206000209050919050565b60008160001c9050919050565b600073ffffffffffffffffffffffffffffffffffffffff82169050919050565b6000612d30612d2b83612cf0565b612cfd565b9050919050565b6000612d438254612d1d565b9050919050565b6000600182019050919050565b6000612d6282612cd0565b612d6c8185612c1d565b9350612d7783612cdb565b8060005b83811015612daf57612d8c82612d37565b612d968882612c4d565b9750612da183612d4a565b925050600181019050612d7b565b5085935050505092915050565b600060a082019050612dd160008301886120b3565b612dde602083018761205c565b8181036040830152612df08186612c72565b90508181036060830152612e048185612c72565b90508181036080830152612e188184612d57565b90509695505050505050565b6000604082019050612e3960008301856120b3565b8181036020830152612e4b8184612d57565b90509392505050565b7f566f7465204167677265676174696f6e20436f6d706c65746500000000000000600082015250565b6000612e8a601983612751565b9150612e9582612e54565b602082019050919050565b6000604082019050612eb560008301846120b3565b8181036020830152612ec681612e7d565b905092915050565b6000612ed9826123ce565b9150612ee4836123ce565b9250817f7fffffffffffffffffffffffffffffffffffffffffffffffffffffffffffffff03831360008312151615612f1f57612f1e6126da565b5b817f8000000000000000000000000000000000000000000000000000000000000000038312600083121615612f5757612f566126da565b5b828201905092915050565b6000612f6d826123ce565b9150612f78836123ce565b925082612f8857612f87612b46565b5b600160000383147f800000000000000000000000000000000000000000000000000000000000000083141615612fc157612fc06126da565b5b828205905092915050565b6000608082019050612fe160008301876120b3565b612fee6020830186612aa7565b81810360408301526130008185612d57565b905081810360608301526130148184612d57565b905095945050505050565b7f41766572616765204167677265676174696f6e20436f6d706c65746500000000600082015250565b6000613055601c83612751565b91506130608261301f565b602082019050919050565b600060408201905061308060008301846120b3565b818103602083015261309181613048565b90509291505056fea264697066735822122057e14b279c5aa735bbbbd1e5e0c2fa4bc88e22595bf310c913c116d680623f0f64736f6c634300080f0033",
  "immutableReferences": {},
  "source": "// SPDX-License-Identifier: MIT\npragma solidity ^0.8.0;\n\nimport \"./OracleRequestContract.sol\";\n\ncontract AggregatorContract {\n    struct BoolResult {\n        bool result;\n    }\n    address public owner; // owner of contract\n    OracleRequestContract orc; // instance of ORC contract\n    Answer[100] public answers; // array of 100 Answer structs to keep track of answers\n    struct Answer {\n        uint256 requestID; // the request ID\n        bytes dataType; // data type of request 'bool' 'temp' etc\n        mapping (address => bool) oracleHasSubmittedCommit; // authorised oracles, marked true when committed\n        mapping(address => bool) oracleHasSubmittedReveal; // authorised oracles, marked true when revealed\n        mapping (address => bytes32) oracleCommits; // add their result to a map with their address as index\n        mapping (address => bool) oracleVoteReveals; // adds oracle answers to addresses\n        mapping (address => int256) oracleAverageReveals; // adds oracle answers to addresses\n        mapping (uint256 => address) oracleAddresses; // uint to address to match counter and iterate through\n        uint256 oracleCounter; // keep an index of the oracles\n        address[] correctRevealOracles; // dynamic array to keep track of correct oracle address to be passed to ORC\n        address[] incorrectRevealOracles; // dynamic array to keep track of incorrect oracle address to be penalised\n        uint32 t; // a true counter;\n        uint32 f; // a false counter: we need this under (n-1)/3\n        uint cancelFlag; // cancelFlag == 0, == 1 if canceled\n        uint commitsFlag; // 0 = needing commits still 1 = commits are complete\n        uint revealsFlag; // 0 = needing reveals still 1 = reveals are complete\n        bool lastOracle; // last oracle\n\n    }\n\n    event AggregationCompleted(uint256, string); // emits logs once the aggregation is complete\n    event LogHashes(bytes32, bytes32); // emits logs of hashes\n    event CommitsPlaced(uint, string); // emits a commits placed event\n    event RevealsPlaced(uint, string); // emits reveals placed event\n\n\n\n    // @notice constructor called when deployed\n    constructor(address _addr)\n    {\n        owner = msg.sender; // set deploying address as owner\n        orc = OracleRequestContract(_addr); // initialise the Oracle Request Contract contract\n    }\n    // @notice commitResponse oracles first commit a hash of their answer and a random string\n    function commitResponse(uint256 _requestID, bytes32 _commitHash )\n    public\n    onlyAuthorisedOraclesYetToCommit(_requestID)\n    cancelFlagCheck(_requestID)\n    commitFlagCheck(_requestID)\n    returns(bool)\n    {\n        if (answers[_requestID].requestID == 0) {\n            answers[_requestID].requestID = _requestID; // assign correct id\n        }\n        if (answers[_requestID].oracleCounter < orc.getNumberOfOracles(_requestID)) {\n            answers[_requestID].oracleCommits[msg.sender] = _commitHash; // oracle nodes add commit to map\n            answers[_requestID].oracleHasSubmittedCommit[msg.sender] = true; // it has now submitted.\n            answers[_requestID].oracleAddresses[answers[_requestID].oracleCounter] = msg.sender; // map counter to oracle addr\n            answers[_requestID].oracleCounter++; // once this is equal we know to enter next if statement\n        }\n        if (answers[_requestID].oracleCounter == orc.getNumberOfOracles(_requestID)) {\n            answers[_requestID].commitsFlag = 1;\n            answers[_requestID].oracleCounter = 0;\n            emit CommitsPlaced(_requestID, \"commits are placed\");\n        }\n        return true;\n    }\n    // @notice called by oracle node once all commits are in and a response with the result and secret is given to check against commit\n    // @param _requestID\n    // @param _result, the answer that was fetch by IoT\n    // @param _secret, the string that was hashed with the IoT result in the commit\n    function revealVoteResponse(uint256 _requestID, bytes memory _result, bytes memory _secret)\n    public\n    onlyAuthorisedOraclesYetToReveal(_requestID) // only oracles yet to reveal\n    cancelFlagCheck(_requestID) // make sure cancel flag = 0\n    commitCompleteFlagCheck(_requestID) // checks all commits are in and flag is equal to 1\n    revealsFlagCheck(_requestID) // checks that reveal flag is 0 otherwise function will not run\n    onlyVoteAggregationType(_requestID) // makes sure only vote responses are received\n    returns(bool){\n        // need to check the hash of the _result and _secret against answers[_requestID].oracleCommits[msg.sender]\n        // BoolResult memory boolResult = abi.decode(_result, (BoolResult));\n        bytes32 revealHash = keccak256(abi.encode(_secret, _result)); // hash of _result and _secret\n        emit LogHashes(answers[_requestID].oracleCommits[msg.sender], revealHash);\n        if (answers[_requestID].oracleCommits[msg.sender] == revealHash) {\n            //answers[_requestID].oracleVoteReveals[msg.sender] = _result; // add oracles answer to reveals\n            answers[_requestID].oracleHasSubmittedReveal[msg.sender] = true; // has submitted so can only vote once\n            answers[_requestID].correctRevealOracles.push(msg.sender); // adds to the correct reveals for aggregation\n        } else {\n            answers[_requestID].incorrectRevealOracles.push(msg.sender); // an incorrect match of commit and reveal hashes\n            answers[_requestID].oracleHasSubmittedReveal[msg.sender] = true; // has submitted so can only vote once\n        }\n\n        if (answers[_requestID].oracleCounter == (orc.getNumberOfOracles(_requestID) - 1)){\n            emit RevealsPlaced(_requestID, \"All reveals have been placed\");\n            voteAggregation(_requestID); // once number of oracles has been reached call voteAggregation\n        }\n        answers[_requestID].oracleCounter++; // increment counter for next oracle\n        return true;\n    }\n    // @notice called by oracle node once all commits are in and a response with the result and secret is given to check against commit\n    // @param _requestID\n    // @param _result, the answer that was fetch by IoT\n    // @param _secret, the string that was hashed with the IoT result in the commit\n    function revealAverageResponse(\n        uint256 _requestID,\n        int256 _result,\n        bytes[] memory _secret)\n    public\n    onlyAuthorisedOraclesYetToReveal(_requestID) // only oracles yet to reveal\n    cancelFlagCheck(_requestID) // make sure cancel flag = 0\n    commitCompleteFlagCheck(_requestID) // checks all commits are in and flag is equal to 1\n    revealsFlagCheck(_requestID) // checks that reveal flag is 0 otherwise function will not run\n    onlyAverageAggregationType(_requestID) // makes sure only average responses are received\n    returns(bool){\n        // need to check the hash of the _result and _secret against answers[_requestID].oracleCommits[msg.sender]\n        bytes32 revealHash = keccak256(abi.encode(_secret, _result)); // hash of _result and _secret\n        if (answers[_requestID].oracleCommits[msg.sender] == revealHash) {\n            answers[_requestID].oracleAverageReveals[msg.sender] = _result; // adds the int result to map\n            answers[_requestID].oracleHasSubmittedReveal[msg.sender] = true; // can only submit once\n            answers[_requestID].correctRevealOracles.push(msg.sender); // adds correct oracles for aggregation\n        } else {\n            answers[_requestID].incorrectRevealOracles.push(msg.sender); // an incorrect match of commit and reveal hashes\n            answers[_requestID].oracleHasSubmittedReveal[msg.sender] = true; // has submitted so can only respond once\n        }\n        answers[_requestID].oracleCounter++; // increment oracle counter\n        if (answers[_requestID].oracleCounter == (orc.getNumberOfOracles(_requestID) - 1)){\n            emit RevealsPlaced(_requestID, \"All reveals have been placed\");\n            averageAggregation(_requestID); // once number of oracles has been reached call averageAggregation\n        }\n        return true;\n    }\n    // @notice vote aggregation, splits the correct reveals into true and false lists, then chooses the bool\n    //         with the most votes as correct. and the others are penalised in ORC contract. Majority vote\n    // @param _requestID\n    function voteAggregation(uint256 _requestID) internal returns(bool) {\n        address[] memory trueOracleResults; // oracles that answer true\n        address[] memory falseOracleResults; // oracles that answer false\n        bool _result; // the final result to send to ORC contract\n        address orcAddress; // placeholder oracle address var\n        // loop through the oracles that provided a correct reveal\n        for (uint i = 0; i < answers[_requestID].correctRevealOracles.length; i++) {\n            orcAddress = answers[_requestID].correctRevealOracles[i]; // assign address\n            // if the reveal result is true add to true array and increment true counter\n            if (answers[_requestID].oracleVoteReveals[orcAddress] == true ) {\n                trueOracleResults[answers[_requestID].t] = orcAddress; // add oracle address to true array\n                answers[_requestID].t++; // increment true counter\n            } else { // if false add address to false array\n                falseOracleResults[answers[_requestID].f] = orcAddress;\n                answers[_requestID].f++; // increment false counter\n            }\n        }\n        // which ever is greater pass to call deliverVoteResponse in true(correct) then false(incorrect) order\n        if (answers[_requestID].t > answers[_requestID].f) {\n            // call\n            require(!(answers[_requestID].f > (answers[_requestID].oracleCounter - 1) / 3), 'too many incorrect nodes');\n            _result = true; // final result\n            // pass in requestID the result, trueOracleResults as the correct field and falseOracleResults as the incorrect\n            orc.deliverVoteResponse(_requestID, _result, trueOracleResults,\n                falseOracleResults,\n                answers[_requestID].incorrectRevealOracles);\n            return _result;\n        } else if (answers[_requestID].f > answers[_requestID].t) {\n            // which ever is greater pass to call deliverVoteResponse in false(correct) then true(incorrect) order\n            require(!(answers[_requestID].t > (answers[_requestID].oracleCounter - 1) / 3), 'too many incorrect nodes');\n            _result = false;\n            // pass in requestID the result, falseOracleResults as the correct field and trueOracleResults as the incorrect\n            orc.deliverVoteResponse(_requestID, _result,\n                falseOracleResults,\n                trueOracleResults,\n                answers[_requestID].incorrectRevealOracles);\n            return _result;\n        } else {\n            // when the t and f counters are the same, deadlock as appeared so we need to cancel and refund\n            orc.cancelRequestDueToDeadlock(_requestID, answers[_requestID].incorrectRevealOracles);\n            answers[_requestID].cancelFlag = 1;\n        }\n        emit AggregationCompleted(_requestID, \"Vote Aggregation Complete\");\n        return false;\n    }\n    // @notice averaging aggregation this function takes an average of the correct reveal oracles\n    function averageAggregation(\n        uint256 _requestID)\n    internal\n    returns(bool)\n    {\n        address orcAddress; // placeholder for orcAddress\n        int256 total = 0; // total of the results\n        int256 average; // an average of the results\n        for (uint i=0; i<answers[_requestID].correctRevealOracles.length; i++){\n            orcAddress = answers[_requestID].correctRevealOracles[i]; // orc address\n            total += answers[_requestID].oracleAverageReveals[orcAddress]; // sums the results to total\n        }\n        average = total / int(answers[_requestID].correctRevealOracles.length); // averages the result\n        orc.deliverAverageResponse(\n                _requestID,\n                average,\n                answers[_requestID].correctRevealOracles,\n                    answers[_requestID].incorrectRevealOracles);\n        emit AggregationCompleted(_requestID, \"Average Aggregation Complete\");\n        return true;\n    }\n    // @notice cancel request only ORC contract can call this\n    function cancelRequest(\n        uint256 _requestID)\n    public\n    cancelFlagCheck(_requestID)\n    onlyORC() // only ORC contract can call this function\n    returns(bool)\n    {\n        answers[_requestID].cancelFlag = 1;\n        return true;\n    }\n    // ***modifiers***\n    modifier onlyAuthorisedOraclesYetToCommit(\n        uint256 _requestID)\n    {\n        // checks that the oracle is in request list\n        require(orc.getOracleForRequest(_requestID, msg.sender));\n        // checks that the oracle hasn't yet committed.\n        require(answers[_requestID].oracleHasSubmittedCommit[msg.sender] == false);\n        _;\n    }\n    modifier onlyAuthorisedOraclesYetToReveal(\n        uint256 _requestID)\n    {\n        // checks that the oracle is in request list\n        require(orc.getOracleForRequest(_requestID, msg.sender));\n        // checks that the oracle hasn't yet revealed.\n        require(answers[_requestID].oracleHasSubmittedReveal[msg.sender] == false);\n        _;\n    }\n    modifier onlyOwner()\n    {\n        require(msg.sender == owner);\n        _;\n    }\n    modifier cancelFlagCheck(\n        uint256 _requestID)\n    {\n        require(answers[_requestID].cancelFlag == 0);\n        _;\n    }\n    modifier commitFlagCheck(uint256 _requestID) {\n        require(answers[_requestID].commitsFlag == 0 );\n        _;\n    }\n    modifier commitCompleteFlagCheck(uint256 _requestID) {\n        require(answers[_requestID].commitsFlag == 1);\n        _;\n    }\n    modifier revealsFlagCheck(uint256 _requestID){\n        require(answers[_requestID].revealsFlag == 0);\n        _;\n    }\n    modifier onlyORC()\n    {\n        require(msg.sender == address(orc));\n        _;\n    }\n    modifier onlyVoteAggregationType(uint256 _requestID) {\n        require(orc.getAggregationType(_requestID) == 1);\n        _;\n    }\n    modifier onlyAverageAggregationType(uint256 _requestID) {\n        require(orc.getAggregationType(_requestID) == 2);\n        _;\n    }\n}\n\n\n\n\n\n\n\n\n\n/////////////////////////////////////////////////////////////////////////////////////////////////\n//    // not needed\n//    // @notice each oracle sends their response to through this function\n//    // filling up the Answer struct at index requestID.\n//    // @dev\n//    // @param _requestID ID of request\n//    // @param _actualResult the value the off-chain oracle has collected\n//    // @return bool, true to say answer has been submitted\n//    function receiveResponse(\n//        uint256 _requestID,\n//        bytes memory _actualResult\n//    )\n//    public\n//    onlyAuthorisedOraclesYetToVote(_requestID) // makes sure only oracles that are authorised call call this function,\n//    // also only if it has not yet submitted an answer\n//    cancelFlagCheck(_requestID) // requires cancelFlag == 0\n//    returns(bool)\n//    {\n//        // only logs answers for any number of oracles that are under the number required\n//        if (answers[_requestID].oracleCounter < orc.getNumberOfOracles(_requestID)) {\n//            answers[_requestID].requestID = _requestID; // assign correct id\n//            answers[_requestID].oracleCommits[msg.sender] = _actualResult; // orcale nodes answer mapped to its address\n//            answers[_requestID].oracleHasSubmitted[msg.sender] = true; // it has now submitted.\n//            answers[_requestID].oracleAddresses[answers[_requestID].oracleCounter] = msg.sender; // map counter to oracle addr\n//            answers[_requestID].oracleCounter++; // once this is equal we know to enter next if statement\n//            answers[_requestID].cancelFlag = 0; // sets cancelFlag to 0\n//            emit ResponseReceived(msg.sender, \"response logged\"); // emits to listeners that a response has been logged\n//        }\n//        // if the counter has reached the number of oracles needed, on the last oracle,\n//        // we can call the deliverResponse with the aggregation() method with returns a single result\n//        if(answers[_requestID].oracleCounter == orc.getNumberOfOracles(_requestID)) {\n//            answers[_requestID].lastOracle = true; // flag to know all oracles have submitted a vote\n//            // call aggregator function, returns a final result and an array of correct oracles\n//            (bytes memory finalResult, address[] memory correctOracles) = aggregation(_requestID);\n//            orc.deliverResponse(_requestID, finalResult, correctOracles); // call the deliverResponse function\n//        }\n//        return answers[_requestID].oracleHasSubmitted[msg.sender]; // returns true\n//    }\n\n//    // @notice aggregates results on a voting system, also requires that false votes are not larger than a threshold\n//    // @dev\n//    // @param _requestID pass in requestID to index the answers\n//    // @return final result\n//    function aggregation(\n//        uint256 _requestID)\n//    internal\n//    cancelFlagCheck(_requestID) // requires cancelFlag == 0\n//    returns(\n//        bytes memory,\n//        address[] memory)\n//    {\n//        // local finalResult initialised\n//        bytes memory finalResult;\n//        //gets dataType from ORC request struct which is then used for a hash of the params to match the results\n//        answers[_requestID].dataType = orc.getDataType(_requestID);\n//        // loop through the oracle counter to get oracle address and determine their result\n//        for (uint i=0; i<answers[_requestID].oracleCounter; i++){\n//            address oracleAddress = answers[_requestID].oracleAddresses[i]; // assign oracleAddress\n//            // ensures actual result and required result are the same\n//            bytes32 responseHash = keccak256(abi.encodePacked(\n//                    answers[_requestID].dataType, answers[_requestID].oracleResults[oracleAddress]\n//                )); // response hash from answer\n//            emit LogHashes(orc.getPHash(_requestID), responseHash); // emits to listeners to 2 hashes, these should equal\n//            if (responseHash == orc.getPHash(_requestID)){\n//                answers[_requestID].t++; // if correct increment the true count\n//                answers[_requestID].correctOracles.push(oracleAddress); // adds correct oracles to an array\n//                if (finalResult.length <= 0) {\n//                    // first response will assign its answer to the actual answer\n//                    finalResult = answers[_requestID].oracleResults[oracleAddress]; // as these are all the same\n//                }\n//            } else {\n//                //otherwise increment the false count\n//                answers[_requestID].f++;\n//            }\n//        }\n//        // requires a threshold for false answers\n//        require(!(answers[_requestID].f > (answers[_requestID].oracleCounter - 1) / 3), 'too many incorrect nodes');\n//        emit AggregationCompleted(_requestID, \"aggregation complete\");\n//        return (finalResult, answers[_requestID].correctOracles);\n//    }\n\n\n\n\n\n\n",
  "sourcePath": "/home/willp/Documents/MSc_Computer_Science/PROJECT/Research_Code/july22_projectcode/IoToracle/contracts/AggregatorContract.sol",
  "compiler": {
    "name": "solc",
    "version": "0.8.15+commit.e14f2714.Emscripten.clang"
  },
  "schemaVersion": "3.4.8",
  "updatedAt": "2022-08-11T18:01:04.590Z",
  "networkType": "ethereum",
  "devdoc": {
    "kind": "dev",
    "methods": {},
    "version": 1
  },
  "userdoc": {
    "kind": "user",
    "methods": {},
    "version": 1
  }
}