{
  "contractName": "IoTOracleContract",
  "abi": [
    {
      "inputs": [],
      "stateMutability": "nonpayable",
      "type": "constructor"
    },
    {
      "anonymous": false,
      "inputs": [],
      "name": "Delivery",
      "type": "event"
    },
    {
      "anonymous": false,
      "inputs": [
        {
          "indexed": false,
          "internalType": "uint256",
          "name": "id",
          "type": "uint256"
        },
        {
          "indexed": false,
          "internalType": "bool",
          "name": "requiredResult",
          "type": "bool"
        },
        {
          "indexed": false,
          "internalType": "bytes",
          "name": "IotId",
          "type": "bytes"
        },
        {
          "indexed": false,
          "internalType": "address",
          "name": "requester",
          "type": "address"
        },
        {
          "indexed": false,
          "internalType": "address",
          "name": "callbackAddress",
          "type": "address"
        }
      ],
      "name": "RequestIoTInfo",
      "type": "event"
    },
    {
      "inputs": [
        {
          "internalType": "uint256",
          "name": "",
          "type": "uint256"
        }
      ],
      "name": "requests",
      "outputs": [
        {
          "internalType": "uint256",
          "name": "requestId",
          "type": "uint256"
        },
        {
          "internalType": "address",
          "name": "requester",
          "type": "address"
        },
        {
          "internalType": "address",
          "name": "callbackAddress",
          "type": "address"
        },
        {
          "internalType": "bytes",
          "name": "callbackFuncID",
          "type": "bytes"
        },
        {
          "internalType": "bytes",
          "name": "IoTId",
          "type": "bytes"
        },
        {
          "internalType": "bool",
          "name": "requiredResult",
          "type": "bool"
        },
        {
          "internalType": "bytes32",
          "name": "pHash",
          "type": "bytes32"
        }
      ],
      "stateMutability": "view",
      "type": "function",
      "constant": true
    },
    {
      "inputs": [
        {
          "internalType": "address",
          "name": "_callbackAddress",
          "type": "address"
        },
        {
          "internalType": "bytes",
          "name": "_callbackFuncId",
          "type": "bytes"
        },
        {
          "internalType": "bytes",
          "name": "_IoTId",
          "type": "bytes"
        },
        {
          "internalType": "bool",
          "name": "_requiredResult",
          "type": "bool"
        }
      ],
      "name": "makeRequest",
      "outputs": [
        {
          "internalType": "uint256",
          "name": "",
          "type": "uint256"
        }
      ],
      "stateMutability": "nonpayable",
      "type": "function"
    }
  ],
  "bytecode": "0x608060405260016102bd5534801561001657600080fd5b50336000806101000a81548173ffffffffffffffffffffffffffffffffffffffff021916908373ffffffffffffffffffffffffffffffffffffffff16021790555060008054906101000a900473ffffffffffffffffffffffffffffffffffffffff16600160006064811061008d5761008c6100d7565b5b6007020160010160006101000a81548173ffffffffffffffffffffffffffffffffffffffff021916908373ffffffffffffffffffffffffffffffffffffffff160217905550610106565b7f4e487b7100000000000000000000000000000000000000000000000000000000600052603260045260246000fd5b610e3c806101156000396000f3fe608060405234801561001057600080fd5b50600436106100365760003560e01c80630b76ebc01461003b57806381d12c581461006b575b600080fd5b61005560048036038101906100509190610689565b6100a1565b6040516100629190610741565b60405180910390f35b61008560048036038101906100809190610788565b6102f4565b6040516100989796959493929190610874565b60405180910390f35b6000806102bd54905080600182606481106100bf576100be6108f1565b5b600702016000018190555033600182606481106100df576100de6108f1565b5b6007020160010160006101000a81548173ffffffffffffffffffffffffffffffffffffffff021916908373ffffffffffffffffffffffffffffffffffffffff1602179055508560018260648110610139576101386108f1565b5b6007020160020160006101000a81548173ffffffffffffffffffffffffffffffffffffffff021916908373ffffffffffffffffffffffffffffffffffffffff1602179055508460018260648110610193576101926108f1565b5b6007020160030190816101a69190610b2c565b5083600182606481106101bc576101bb6108f1565b5b6007020160040190816101cf9190610b2c565b5082600182606481106101e5576101e46108f1565b5b6007020160050160006101000a81548160ff02191690831515021790555060008133868660405160200161021c9493929190610ceb565b6040516020818303038152906040528051906020012090508060018360648110610249576102486108f1565b5b60070201600601819055507fbe45a1d403dfb2b6c846aec2e9c45905a86c684b22c0e031968e3b41edc39d3d8285876001866064811061028c5761028b6108f1565b5b6007020160010160009054906101000a900473ffffffffffffffffffffffffffffffffffffffff168b6040516102c6959493929190610d35565b60405180910390a16102bd60008154809291906102e290610dbe565b91905055508192505050949350505050565b6001816064811061030457600080fd5b600702016000915090508060000154908060010160009054906101000a900473ffffffffffffffffffffffffffffffffffffffff16908060020160009054906101000a900473ffffffffffffffffffffffffffffffffffffffff169080600301805461036f9061094f565b80601f016020809104026020016040519081016040528092919081815260200182805461039b9061094f565b80156103e85780601f106103bd576101008083540402835291602001916103e8565b820191906000526020600020905b8154815290600101906020018083116103cb57829003601f168201915b5050505050908060040180546103fd9061094f565b80601f01602080910402602001604051908101604052809291908181526020018280546104299061094f565b80156104765780601f1061044b57610100808354040283529160200191610476565b820191906000526020600020905b81548152906001019060200180831161045957829003601f168201915b5050505050908060050160009054906101000a900460ff16908060060154905087565b6000604051905090565b600080fd5b600080fd5b600073ffffffffffffffffffffffffffffffffffffffff82169050919050565b60006104d8826104ad565b9050919050565b6104e8816104cd565b81146104f357600080fd5b50565b600081359050610505816104df565b92915050565b600080fd5b600080fd5b6000601f19601f8301169050919050565b7f4e487b7100000000000000000000000000000000000000000000000000000000600052604160045260246000fd5b61055e82610515565b810181811067ffffffffffffffff8211171561057d5761057c610526565b5b80604052505050565b6000610590610499565b905061059c8282610555565b919050565b600067ffffffffffffffff8211156105bc576105bb610526565b5b6105c582610515565b9050602081019050919050565b82818337600083830152505050565b60006105f46105ef846105a1565b610586565b9050828152602081018484840111156106105761060f610510565b5b61061b8482856105d2565b509392505050565b600082601f8301126106385761063761050b565b5b81356106488482602086016105e1565b91505092915050565b60008115159050919050565b61066681610651565b811461067157600080fd5b50565b6000813590506106838161065d565b92915050565b600080600080608085870312156106a3576106a26104a3565b5b60006106b1878288016104f6565b945050602085013567ffffffffffffffff8111156106d2576106d16104a8565b5b6106de87828801610623565b935050604085013567ffffffffffffffff8111156106ff576106fe6104a8565b5b61070b87828801610623565b925050606061071c87828801610674565b91505092959194509250565b6000819050919050565b61073b81610728565b82525050565b60006020820190506107566000830184610732565b92915050565b61076581610728565b811461077057600080fd5b50565b6000813590506107828161075c565b92915050565b60006020828403121561079e5761079d6104a3565b5b60006107ac84828501610773565b91505092915050565b6107be816104cd565b82525050565b600081519050919050565b600082825260208201905092915050565b60005b838110156107fe5780820151818401526020810190506107e3565b8381111561080d576000848401525b50505050565b600061081e826107c4565b61082881856107cf565b93506108388185602086016107e0565b61084181610515565b840191505092915050565b61085581610651565b82525050565b6000819050919050565b61086e8161085b565b82525050565b600060e082019050610889600083018a610732565b61089660208301896107b5565b6108a360408301886107b5565b81810360608301526108b58187610813565b905081810360808301526108c98186610813565b90506108d860a083018561084c565b6108e560c0830184610865565b98975050505050505050565b7f4e487b7100000000000000000000000000000000000000000000000000000000600052603260045260246000fd5b7f4e487b7100000000000000000000000000000000000000000000000000000000600052602260045260246000fd5b6000600282049050600182168061096757607f821691505b60208210810361097a57610979610920565b5b50919050565b60008190508160005260206000209050919050565b60006020601f8301049050919050565b600082821b905092915050565b6000600883026109e27fffffffffffffffffffffffffffffffffffffffffffffffffffffffffffffffff826109a5565b6109ec86836109a5565b95508019841693508086168417925050509392505050565b6000819050919050565b6000610a29610a24610a1f84610728565b610a04565b610728565b9050919050565b6000819050919050565b610a4383610a0e565b610a57610a4f82610a30565b8484546109b2565b825550505050565b600090565b610a6c610a5f565b610a77818484610a3a565b505050565b5b81811015610a9b57610a90600082610a64565b600181019050610a7d565b5050565b601f821115610ae057610ab181610980565b610aba84610995565b81016020851015610ac9578190505b610add610ad585610995565b830182610a7c565b50505b505050565b600082821c905092915050565b6000610b0360001984600802610ae5565b1980831691505092915050565b6000610b1c8383610af2565b9150826002028217905092915050565b610b35826107c4565b67ffffffffffffffff811115610b4e57610b4d610526565b5b610b58825461094f565b610b63828285610a9f565b600060209050601f831160018114610b965760008415610b84578287015190505b610b8e8582610b10565b865550610bf6565b601f198416610ba486610980565b60005b82811015610bcc57848901518255600182019150602085019450602081019050610ba7565b86831015610be95784890151610be5601f891682610af2565b8355505b6001600288020188555050505b505050505050565b6000819050919050565b610c19610c1482610728565b610bfe565b82525050565b60008160601b9050919050565b6000610c3782610c1f565b9050919050565b6000610c4982610c2c565b9050919050565b610c61610c5c826104cd565b610c3e565b82525050565b600081905092915050565b6000610c7d826107c4565b610c878185610c67565b9350610c978185602086016107e0565b80840191505092915050565b60008160f81b9050919050565b6000610cbb82610ca3565b9050919050565b6000610ccd82610cb0565b9050919050565b610ce5610ce082610651565b610cc2565b82525050565b6000610cf78287610c08565b602082019150610d078286610c50565b601482019150610d178285610c72565b9150610d238284610cd4565b60018201915081905095945050505050565b600060a082019050610d4a6000830188610732565b610d57602083018761084c565b8181036040830152610d698186610813565b9050610d7860608301856107b5565b610d8560808301846107b5565b9695505050505050565b7f4e487b7100000000000000000000000000000000000000000000000000000000600052601160045260246000fd5b6000610dc982610728565b91507fffffffffffffffffffffffffffffffffffffffffffffffffffffffffffffffff8203610dfb57610dfa610d8f565b5b60018201905091905056fea26469706673582212203c92d789260b928af030c16131c725e647849c8c9b7facba1e82e461b4dca0ac64736f6c634300080f0033",
  "immutableReferences": {},
  "source": "// SPDX-License-Identifier: MIT\npragma solidity ^0.8.0;\n\ncontract IoTOracleContract {\n    address owner;\n    Request[100] public requests;\n    uint256 requestIdCounter = 1;\n    // uint64 unrespondedRequests = 0;\n\n    modifier onlyOwner() {\n        require(msg.sender == owner);\n        _;\n    }\n\n    constructor() {\n        owner = msg.sender;\n        requests[0].requester = owner;\n    }\n\n    struct Request {\n        uint256 requestId;\n        address requester;\n        address callbackAddress;\n        bytes callbackFuncID;\n        bytes IoTId;\n        bool requiredResult;\n        bytes32 pHash;\n    }\n\n    event RequestIoTInfo(\n        uint id,\n        bool requiredResult,\n        bytes IotId,\n        address requester,\n        address callbackAddress);\n\n    event Delivery();\n\n    function makeRequest(\n        address _callbackAddress,\n        bytes memory _callbackFuncId,\n        bytes memory _IoTId,\n        bool _requiredResult) public returns(uint256){\n        // assign id to request\n        uint256 reqId = requestIdCounter;\n\n        // log details of the request to array to cross reference later\n        requests[reqId].requestId = reqId;\n        requests[reqId].requester = msg.sender;\n        requests[reqId].callbackAddress = _callbackAddress;\n        requests[reqId].callbackFuncID = _callbackFuncId;\n        requests[reqId].IoTId = _IoTId;\n        requests[reqId].requiredResult = _requiredResult;\n\n        bytes32 pHash = keccak256(abi.encodePacked(reqId, address(msg.sender), _IoTId, _requiredResult));\n        requests[reqId].pHash = pHash;\n\n        // push to eventListener to then pass to off-chain core to process\n        emit RequestIoTInfo(reqId, _requiredResult, _IoTId, requests[reqId].requester, _callbackAddress);\n        // increment Id counter\n        requestIdCounter++;\n\n        // return the id of request\n        return reqId;\n    }\n\n    /*function deliverResponse() {\n    }*/\n}\n",
  "sourcePath": "/home/willp/Documents/MSc_Computer_Science/PROJECT/Research_Code/july22_projectcode/IoToracle/contracts/IoTOracleContract.sol",
  "compiler": {
    "name": "solc",
    "version": "0.8.15+commit.e14f2714.Emscripten.clang"
  },
  "schemaVersion": "3.4.8",
  "updatedAt": "2022-07-04T15:45:48.553Z",
  "networkType": "ethereum",
  "devdoc": {
    "kind": "dev",
    "methods": {},
    "version": 1
  },
  "userdoc": {
    "kind": "user",
    "methods": {},
    "version": 1
  }
}