{
  "contractName": "IoTOracleContract",
  "abi": [
    {
      "inputs": [],
      "stateMutability": "nonpayable",
      "type": "constructor"
    },
    {
      "anonymous": false,
      "inputs": [],
      "name": "Delivery",
      "type": "event"
    },
    {
      "anonymous": false,
      "inputs": [
        {
          "indexed": false,
          "internalType": "uint256",
          "name": "id",
          "type": "uint256"
        },
        {
          "indexed": false,
          "internalType": "bool",
          "name": "requiredResult",
          "type": "bool"
        },
        {
          "indexed": false,
          "internalType": "bytes",
          "name": "IotId",
          "type": "bytes"
        },
        {
          "indexed": false,
          "internalType": "address",
          "name": "requester",
          "type": "address"
        },
        {
          "indexed": false,
          "internalType": "address",
          "name": "callbackAddress",
          "type": "address"
        }
      ],
      "name": "RequestIoTInfo",
      "type": "event"
    },
    {
      "inputs": [
        {
          "internalType": "uint256",
          "name": "",
          "type": "uint256"
        }
      ],
      "name": "requests",
      "outputs": [
        {
          "internalType": "uint256",
          "name": "requestId",
          "type": "uint256"
        },
        {
          "internalType": "address",
          "name": "requester",
          "type": "address"
        },
        {
          "internalType": "address",
          "name": "callbackAddress",
          "type": "address"
        },
        {
          "internalType": "bytes",
          "name": "IoTId",
          "type": "bytes"
        },
        {
          "internalType": "bool",
          "name": "requiredResult",
          "type": "bool"
        },
        {
          "internalType": "bytes32",
          "name": "pHash",
          "type": "bytes32"
        }
      ],
      "stateMutability": "view",
      "type": "function",
      "constant": true
    },
    {
      "inputs": [
        {
          "internalType": "address",
          "name": "_callbackAddress",
          "type": "address"
        },
        {
          "internalType": "bytes",
          "name": "_IoTId",
          "type": "bytes"
        },
        {
          "internalType": "bool",
          "name": "_requiredResult",
          "type": "bool"
        }
      ],
      "name": "makeRequest",
      "outputs": [
        {
          "internalType": "uint256",
          "name": "",
          "type": "uint256"
        }
      ],
      "stateMutability": "nonpayable",
      "type": "function"
    }
  ],
  "bytecode": "0x608060405260016102595534801561001657600080fd5b50336000806101000a81548173ffffffffffffffffffffffffffffffffffffffff021916908373ffffffffffffffffffffffffffffffffffffffff16021790555060008054906101000a900473ffffffffffffffffffffffffffffffffffffffff16600160006064811061008d5761008c6100d7565b5b6006020160010160006101000a81548173ffffffffffffffffffffffffffffffffffffffff021916908373ffffffffffffffffffffffffffffffffffffffff160217905550610106565b7f4e487b7100000000000000000000000000000000000000000000000000000000600052603260045260246000fd5b610d3e806101156000396000f3fe608060405234801561001057600080fd5b50600436106100365760003560e01c80636f9e87d61461003b57806381d12c581461006b575b600080fd5b610055600480360381019061005091906105d0565b6100a0565b6040516100629190610658565b60405180910390f35b6100856004803603810190610080919061069f565b6102c9565b6040516100979695949392919061078b565b60405180910390f35b60008061025954905080600182606481106100be576100bd6107f3565b5b600602016000018190555033600182606481106100de576100dd6107f3565b5b6006020160010160006101000a81548173ffffffffffffffffffffffffffffffffffffffff021916908373ffffffffffffffffffffffffffffffffffffffff1602179055508460018260648110610138576101376107f3565b5b6006020160020160006101000a81548173ffffffffffffffffffffffffffffffffffffffff021916908373ffffffffffffffffffffffffffffffffffffffff1602179055508360018260648110610192576101916107f3565b5b6006020160030190816101a59190610a2e565b5082600182606481106101bb576101ba6107f3565b5b6006020160040160006101000a81548160ff0219169083151502179055506000813386866040516020016101f29493929190610bed565b604051602081830303815290604052805190602001209050806001836064811061021f5761021e6107f3565b5b60060201600501819055507fbe45a1d403dfb2b6c846aec2e9c45905a86c684b22c0e031968e3b41edc39d3d82858760018660648110610262576102616107f3565b5b6006020160010160009054906101000a900473ffffffffffffffffffffffffffffffffffffffff168a60405161029c959493929190610c37565b60405180910390a161025960008154809291906102b890610cc0565b919050555081925050509392505050565b600181606481106102d957600080fd5b600602016000915090508060000154908060010160009054906101000a900473ffffffffffffffffffffffffffffffffffffffff16908060020160009054906101000a900473ffffffffffffffffffffffffffffffffffffffff169080600301805461034490610851565b80601f016020809104026020016040519081016040528092919081815260200182805461037090610851565b80156103bd5780601f10610392576101008083540402835291602001916103bd565b820191906000526020600020905b8154815290600101906020018083116103a057829003601f168201915b5050505050908060040160009054906101000a900460ff16908060050154905086565b6000604051905090565b600080fd5b600080fd5b600073ffffffffffffffffffffffffffffffffffffffff82169050919050565b600061041f826103f4565b9050919050565b61042f81610414565b811461043a57600080fd5b50565b60008135905061044c81610426565b92915050565b600080fd5b600080fd5b6000601f19601f8301169050919050565b7f4e487b7100000000000000000000000000000000000000000000000000000000600052604160045260246000fd5b6104a58261045c565b810181811067ffffffffffffffff821117156104c4576104c361046d565b5b80604052505050565b60006104d76103e0565b90506104e3828261049c565b919050565b600067ffffffffffffffff8211156105035761050261046d565b5b61050c8261045c565b9050602081019050919050565b82818337600083830152505050565b600061053b610536846104e8565b6104cd565b90508281526020810184848401111561055757610556610457565b5b610562848285610519565b509392505050565b600082601f83011261057f5761057e610452565b5b813561058f848260208601610528565b91505092915050565b60008115159050919050565b6105ad81610598565b81146105b857600080fd5b50565b6000813590506105ca816105a4565b92915050565b6000806000606084860312156105e9576105e86103ea565b5b60006105f78682870161043d565b935050602084013567ffffffffffffffff811115610618576106176103ef565b5b6106248682870161056a565b9250506040610635868287016105bb565b9150509250925092565b6000819050919050565b6106528161063f565b82525050565b600060208201905061066d6000830184610649565b92915050565b61067c8161063f565b811461068757600080fd5b50565b60008135905061069981610673565b92915050565b6000602082840312156106b5576106b46103ea565b5b60006106c38482850161068a565b91505092915050565b6106d581610414565b82525050565b600081519050919050565b600082825260208201905092915050565b60005b838110156107155780820151818401526020810190506106fa565b83811115610724576000848401525b50505050565b6000610735826106db565b61073f81856106e6565b935061074f8185602086016106f7565b6107588161045c565b840191505092915050565b61076c81610598565b82525050565b6000819050919050565b61078581610772565b82525050565b600060c0820190506107a06000830189610649565b6107ad60208301886106cc565b6107ba60408301876106cc565b81810360608301526107cc818661072a565b90506107db6080830185610763565b6107e860a083018461077c565b979650505050505050565b7f4e487b7100000000000000000000000000000000000000000000000000000000600052603260045260246000fd5b7f4e487b7100000000000000000000000000000000000000000000000000000000600052602260045260246000fd5b6000600282049050600182168061086957607f821691505b60208210810361087c5761087b610822565b5b50919050565b60008190508160005260206000209050919050565b60006020601f8301049050919050565b600082821b905092915050565b6000600883026108e47fffffffffffffffffffffffffffffffffffffffffffffffffffffffffffffffff826108a7565b6108ee86836108a7565b95508019841693508086168417925050509392505050565b6000819050919050565b600061092b6109266109218461063f565b610906565b61063f565b9050919050565b6000819050919050565b61094583610910565b61095961095182610932565b8484546108b4565b825550505050565b600090565b61096e610961565b61097981848461093c565b505050565b5b8181101561099d57610992600082610966565b60018101905061097f565b5050565b601f8211156109e2576109b381610882565b6109bc84610897565b810160208510156109cb578190505b6109df6109d785610897565b83018261097e565b50505b505050565b600082821c905092915050565b6000610a05600019846008026109e7565b1980831691505092915050565b6000610a1e83836109f4565b9150826002028217905092915050565b610a37826106db565b67ffffffffffffffff811115610a5057610a4f61046d565b5b610a5a8254610851565b610a658282856109a1565b600060209050601f831160018114610a985760008415610a86578287015190505b610a908582610a12565b865550610af8565b601f198416610aa686610882565b60005b82811015610ace57848901518255600182019150602085019450602081019050610aa9565b86831015610aeb5784890151610ae7601f8916826109f4565b8355505b6001600288020188555050505b505050505050565b6000819050919050565b610b1b610b168261063f565b610b00565b82525050565b60008160601b9050919050565b6000610b3982610b21565b9050919050565b6000610b4b82610b2e565b9050919050565b610b63610b5e82610414565b610b40565b82525050565b600081905092915050565b6000610b7f826106db565b610b898185610b69565b9350610b998185602086016106f7565b80840191505092915050565b60008160f81b9050919050565b6000610bbd82610ba5565b9050919050565b6000610bcf82610bb2565b9050919050565b610be7610be282610598565b610bc4565b82525050565b6000610bf98287610b0a565b602082019150610c098286610b52565b601482019150610c198285610b74565b9150610c258284610bd6565b60018201915081905095945050505050565b600060a082019050610c4c6000830188610649565b610c596020830187610763565b8181036040830152610c6b818661072a565b9050610c7a60608301856106cc565b610c8760808301846106cc565b9695505050505050565b7f4e487b7100000000000000000000000000000000000000000000000000000000600052601160045260246000fd5b6000610ccb8261063f565b91507fffffffffffffffffffffffffffffffffffffffffffffffffffffffffffffffff8203610cfd57610cfc610c91565b5b60018201905091905056fea264697066735822122097a3c3c95c2019282f5c5dc08f032d9705756cd52023f2fd17db352f7319582464736f6c634300080f0033",
  "immutableReferences": {},
  "source": "// SPDX-License-Identifier: MIT\npragma solidity ^0.8.0;\n\ncontract IoTOracleContract {\n    address owner;\n    Request[100] public requests;\n    uint256 requestIdCounter = 1;\n    // uint64 unrespondedRequests = 0;\n\n    modifier onlyOwner() {\n        require(msg.sender == owner);\n        _;\n    }\n\n    constructor() {\n        owner = msg.sender;\n        requests[0].requester = owner;\n    }\n\n    struct Request {\n        uint256 requestId;\n        address requester;\n        address callbackAddress;\n        //bytes callbackFuncID;\n        bytes IoTId;\n        bool requiredResult;\n        bytes32 pHash;\n    }\n\n    event RequestIoTInfo(\n        uint id,\n        bool requiredResult,\n        bytes IotId,\n        address requester,\n        address callbackAddress);\n\n    event Delivery();\n\n    function makeRequest(\n        address _callbackAddress,\n        //bytes memory _callbackFuncId,\n        bytes memory _IoTId,\n        bool _requiredResult) public returns(uint256){\n        // assign id to request\n        uint256 reqId = requestIdCounter;\n\n        // log details of the request to array to cross reference later\n        requests[reqId].requestId = reqId;\n        requests[reqId].requester = msg.sender;\n        requests[reqId].callbackAddress = _callbackAddress;\n        //requests[reqId].callbackFuncID = _callbackFuncId;\n        requests[reqId].IoTId = _IoTId;\n        requests[reqId].requiredResult = _requiredResult;\n\n        bytes32 pHash = keccak256(abi.encodePacked(reqId, address(msg.sender), _IoTId, _requiredResult));\n        requests[reqId].pHash = pHash;\n\n        // push to eventListener to then pass to off-chain core to process\n        emit RequestIoTInfo(reqId, _requiredResult, _IoTId, requests[reqId].requester, _callbackAddress);\n        // increment Id counter\n        requestIdCounter++;\n\n        // return the id of request\n        return reqId;\n    }\n\n    /*function deliverResponse() {\n    }*/\n}\n",
  "sourcePath": "/home/willp/Documents/MSc_Computer_Science/Msc_project/Research_Code/IoTOracle/IoToracle/contracts/IoTOracleContract.sol",
  "compiler": {
    "name": "solc",
    "version": "0.8.15+commit.e14f2714.Emscripten.clang"
  },
  "schemaVersion": "3.4.7",
  "updatedAt": "2022-07-08T11:48:28.550Z",
  "networkType": "ethereum",
  "devdoc": {
    "kind": "dev",
    "methods": {},
    "version": 1
  },
  "userdoc": {
    "kind": "user",
    "methods": {},
    "version": 1
  }
}