{
  "contractName": "OracleRequestContract",
  "abi": [
    {
      "inputs": [],
      "stateMutability": "nonpayable",
      "type": "constructor"
    },
    {
      "anonymous": false,
      "inputs": [
        {
          "indexed": false,
          "internalType": "address",
          "name": "",
          "type": "address"
        }
      ],
      "name": "BidPlaced",
      "type": "event"
    },
    {
      "anonymous": false,
      "inputs": [
        {
          "indexed": false,
          "internalType": "string",
          "name": "",
          "type": "string"
        }
      ],
      "name": "Logging",
      "type": "event"
    },
    {
      "anonymous": false,
      "inputs": [
        {
          "indexed": false,
          "internalType": "uint256",
          "name": "",
          "type": "uint256"
        },
        {
          "indexed": false,
          "internalType": "bytes",
          "name": "",
          "type": "bytes"
        },
        {
          "indexed": false,
          "internalType": "uint256",
          "name": "",
          "type": "uint256"
        }
      ],
      "name": "OpenForBids",
      "type": "event"
    },
    {
      "anonymous": false,
      "inputs": [
        {
          "indexed": false,
          "internalType": "address",
          "name": "",
          "type": "address"
        },
        {
          "indexed": false,
          "internalType": "string",
          "name": "",
          "type": "string"
        }
      ],
      "name": "OracleJoined",
      "type": "event"
    },
    {
      "anonymous": false,
      "inputs": [
        {
          "indexed": false,
          "internalType": "address",
          "name": "",
          "type": "address"
        },
        {
          "indexed": false,
          "internalType": "string",
          "name": "",
          "type": "string"
        }
      ],
      "name": "OracleLeft",
      "type": "event"
    },
    {
      "anonymous": false,
      "inputs": [
        {
          "indexed": false,
          "internalType": "address",
          "name": "",
          "type": "address"
        },
        {
          "indexed": false,
          "internalType": "uint256",
          "name": "",
          "type": "uint256"
        },
        {
          "indexed": false,
          "internalType": "string",
          "name": "",
          "type": "string"
        }
      ],
      "name": "OraclePaid",
      "type": "event"
    },
    {
      "anonymous": false,
      "inputs": [
        {
          "indexed": false,
          "internalType": "uint256",
          "name": "",
          "type": "uint256"
        },
        {
          "indexed": false,
          "internalType": "bytes",
          "name": "",
          "type": "bytes"
        },
        {
          "indexed": false,
          "internalType": "bytes",
          "name": "",
          "type": "bytes"
        }
      ],
      "name": "ReleaseRequestDetails",
      "type": "event"
    },
    {
      "anonymous": false,
      "inputs": [
        {
          "indexed": false,
          "internalType": "enum OracleRequestContract.Status",
          "name": "",
          "type": "uint8"
        },
        {
          "indexed": false,
          "internalType": "string",
          "name": "",
          "type": "string"
        }
      ],
      "name": "StatusChange",
      "type": "event"
    },
    {
      "stateMutability": "nonpayable",
      "type": "fallback"
    },
    {
      "inputs": [],
      "name": "aggregatorAddr",
      "outputs": [
        {
          "internalType": "address",
          "name": "",
          "type": "address"
        }
      ],
      "stateMutability": "view",
      "type": "function",
      "constant": true
    },
    {
      "inputs": [
        {
          "internalType": "address",
          "name": "",
          "type": "address"
        }
      ],
      "name": "blacklistedOracles",
      "outputs": [
        {
          "internalType": "bool",
          "name": "",
          "type": "bool"
        }
      ],
      "stateMutability": "view",
      "type": "function",
      "constant": true
    },
    {
      "inputs": [
        {
          "internalType": "uint256",
          "name": "",
          "type": "uint256"
        }
      ],
      "name": "completedRequests",
      "outputs": [
        {
          "internalType": "bool",
          "name": "",
          "type": "bool"
        }
      ],
      "stateMutability": "view",
      "type": "function",
      "constant": true
    },
    {
      "inputs": [
        {
          "internalType": "address",
          "name": "",
          "type": "address"
        }
      ],
      "name": "oracles",
      "outputs": [
        {
          "internalType": "bool",
          "name": "",
          "type": "bool"
        }
      ],
      "stateMutability": "view",
      "type": "function",
      "constant": true
    },
    {
      "inputs": [],
      "name": "owner",
      "outputs": [
        {
          "internalType": "address",
          "name": "",
          "type": "address"
        }
      ],
      "stateMutability": "view",
      "type": "function",
      "constant": true
    },
    {
      "inputs": [],
      "name": "reputationAddr",
      "outputs": [
        {
          "internalType": "address",
          "name": "",
          "type": "address"
        }
      ],
      "stateMutability": "view",
      "type": "function",
      "constant": true
    },
    {
      "inputs": [
        {
          "internalType": "uint256",
          "name": "",
          "type": "uint256"
        }
      ],
      "name": "requests",
      "outputs": [
        {
          "internalType": "uint256",
          "name": "requestID",
          "type": "uint256"
        },
        {
          "internalType": "address",
          "name": "requester",
          "type": "address"
        },
        {
          "internalType": "address",
          "name": "callbackAddress",
          "type": "address"
        },
        {
          "internalType": "bytes",
          "name": "callbackFID",
          "type": "bytes"
        },
        {
          "internalType": "bytes",
          "name": "IoTID",
          "type": "bytes"
        },
        {
          "internalType": "bytes",
          "name": "dataType",
          "type": "bytes"
        },
        {
          "internalType": "uint32",
          "name": "numberOfOracles",
          "type": "uint32"
        },
        {
          "internalType": "uint256",
          "name": "aggregationType",
          "type": "uint256"
        },
        {
          "internalType": "uint32",
          "name": "oracleCounter",
          "type": "uint32"
        },
        {
          "internalType": "enum OracleRequestContract.Status",
          "name": "status",
          "type": "uint8"
        },
        {
          "internalType": "uint8",
          "name": "cancelFlag",
          "type": "uint8"
        },
        {
          "internalType": "uint256",
          "name": "fee",
          "type": "uint256"
        }
      ],
      "stateMutability": "view",
      "type": "function",
      "constant": true
    },
    {
      "inputs": [
        {
          "internalType": "address",
          "name": "",
          "type": "address"
        }
      ],
      "name": "stakeBalance",
      "outputs": [
        {
          "internalType": "uint256",
          "name": "",
          "type": "uint256"
        }
      ],
      "stateMutability": "view",
      "type": "function",
      "constant": true
    },
    {
      "inputs": [],
      "name": "joinAsOracle",
      "outputs": [
        {
          "internalType": "bool",
          "name": "",
          "type": "bool"
        }
      ],
      "stateMutability": "payable",
      "type": "function",
      "payable": true
    },
    {
      "inputs": [],
      "name": "leaveOracleNetwork",
      "outputs": [
        {
          "internalType": "bool",
          "name": "",
          "type": "bool"
        }
      ],
      "stateMutability": "nonpayable",
      "type": "function"
    },
    {
      "inputs": [
        {
          "internalType": "address",
          "name": "_callbackAddress",
          "type": "address"
        },
        {
          "internalType": "bytes",
          "name": "_callbackFID",
          "type": "bytes"
        },
        {
          "internalType": "bytes",
          "name": "_IoTID",
          "type": "bytes"
        },
        {
          "internalType": "bytes",
          "name": "_dataType",
          "type": "bytes"
        },
        {
          "internalType": "uint256",
          "name": "_aggregationType",
          "type": "uint256"
        },
        {
          "internalType": "uint32",
          "name": "_numberOfOracles",
          "type": "uint32"
        }
      ],
      "name": "createRequest",
      "outputs": [
        {
          "internalType": "uint256",
          "name": "",
          "type": "uint256"
        }
      ],
      "stateMutability": "payable",
      "type": "function",
      "payable": true
    },
    {
      "inputs": [
        {
          "internalType": "uint256",
          "name": "_requestID",
          "type": "uint256"
        }
      ],
      "name": "placeBid",
      "outputs": [
        {
          "internalType": "bool",
          "name": "",
          "type": "bool"
        }
      ],
      "stateMutability": "nonpayable",
      "type": "function"
    },
    {
      "inputs": [
        {
          "internalType": "uint256",
          "name": "_requestID",
          "type": "uint256"
        },
        {
          "internalType": "bytes",
          "name": "_finalResult",
          "type": "bytes"
        },
        {
          "internalType": "address[]",
          "name": "_correctOracles",
          "type": "address[]"
        },
        {
          "internalType": "address[]",
          "name": "_incorrectOracles",
          "type": "address[]"
        },
        {
          "internalType": "address[]",
          "name": "_incorrectRevealOracles",
          "type": "address[]"
        }
      ],
      "name": "deliverVoteResponse",
      "outputs": [
        {
          "internalType": "bool",
          "name": "",
          "type": "bool"
        }
      ],
      "stateMutability": "nonpayable",
      "type": "function"
    },
    {
      "inputs": [
        {
          "internalType": "uint256",
          "name": "_requestID",
          "type": "uint256"
        },
        {
          "internalType": "int256",
          "name": "_finalResult",
          "type": "int256"
        },
        {
          "internalType": "address[]",
          "name": "_correctOracles",
          "type": "address[]"
        },
        {
          "internalType": "address[]",
          "name": "_incorrectOracles",
          "type": "address[]"
        }
      ],
      "name": "deliverAverageResponse",
      "outputs": [
        {
          "internalType": "bool",
          "name": "",
          "type": "bool"
        }
      ],
      "stateMutability": "nonpayable",
      "type": "function"
    },
    {
      "inputs": [
        {
          "internalType": "uint256",
          "name": "_requestID",
          "type": "uint256"
        }
      ],
      "name": "cancelRequest",
      "outputs": [
        {
          "internalType": "bool",
          "name": "",
          "type": "bool"
        }
      ],
      "stateMutability": "nonpayable",
      "type": "function"
    },
    {
      "inputs": [
        {
          "internalType": "uint256",
          "name": "_requestID",
          "type": "uint256"
        },
        {
          "internalType": "address[]",
          "name": "_incorrectOracleReveals",
          "type": "address[]"
        }
      ],
      "name": "cancelRequestDueToDeadlock",
      "outputs": [
        {
          "internalType": "bool",
          "name": "",
          "type": "bool"
        }
      ],
      "stateMutability": "nonpayable",
      "type": "function"
    },
    {
      "inputs": [
        {
          "internalType": "address",
          "name": "_addr",
          "type": "address"
        }
      ],
      "name": "blacklistOracle",
      "outputs": [
        {
          "internalType": "bool",
          "name": "",
          "type": "bool"
        }
      ],
      "stateMutability": "nonpayable",
      "type": "function"
    },
    {
      "inputs": [
        {
          "internalType": "address",
          "name": "_aggAddr",
          "type": "address"
        }
      ],
      "name": "setAggregatorContract",
      "outputs": [
        {
          "internalType": "bool",
          "name": "",
          "type": "bool"
        }
      ],
      "stateMutability": "nonpayable",
      "type": "function"
    },
    {
      "inputs": [
        {
          "internalType": "address",
          "name": "_repAddr",
          "type": "address"
        }
      ],
      "name": "setReputationContract",
      "outputs": [
        {
          "internalType": "bool",
          "name": "",
          "type": "bool"
        }
      ],
      "stateMutability": "nonpayable",
      "type": "function"
    },
    {
      "inputs": [
        {
          "internalType": "uint256",
          "name": "_requestID",
          "type": "uint256"
        },
        {
          "internalType": "address",
          "name": "_orcAddr",
          "type": "address"
        }
      ],
      "name": "getOracleForRequest",
      "outputs": [
        {
          "internalType": "bool",
          "name": "",
          "type": "bool"
        }
      ],
      "stateMutability": "view",
      "type": "function",
      "constant": true
    },
    {
      "inputs": [
        {
          "internalType": "uint256",
          "name": "_requestID",
          "type": "uint256"
        }
      ],
      "name": "getNumberOfOracles",
      "outputs": [
        {
          "internalType": "uint32",
          "name": "",
          "type": "uint32"
        }
      ],
      "stateMutability": "view",
      "type": "function",
      "constant": true
    },
    {
      "inputs": [
        {
          "internalType": "uint256",
          "name": "_requestID",
          "type": "uint256"
        }
      ],
      "name": "getDataType",
      "outputs": [
        {
          "internalType": "bytes",
          "name": "",
          "type": "bytes"
        }
      ],
      "stateMutability": "view",
      "type": "function",
      "constant": true
    },
    {
      "inputs": [
        {
          "internalType": "address",
          "name": "_addr",
          "type": "address"
        }
      ],
      "name": "getBlacklistedOracle",
      "outputs": [
        {
          "internalType": "bool",
          "name": "",
          "type": "bool"
        }
      ],
      "stateMutability": "view",
      "type": "function",
      "constant": true
    },
    {
      "inputs": [
        {
          "internalType": "uint256",
          "name": "_requestID",
          "type": "uint256"
        }
      ],
      "name": "getAggregationType",
      "outputs": [
        {
          "internalType": "uint256",
          "name": "",
          "type": "uint256"
        }
      ],
      "stateMutability": "view",
      "type": "function",
      "constant": true
    }
  ],
  "bytecode": "0x608060405260016104b65560016104b7556404a817c8006104bc5560036104bc546200002c9190620000e3565b6104bd5560056104bc54620000429190620000e3565b6104bd5462000052919062000144565b6104be553480156200006357600080fd5b50336000806101000a81548173ffffffffffffffffffffffffffffffffffffffff021916908373ffffffffffffffffffffffffffffffffffffffff160217905550620001a1565b6000819050919050565b7f4e487b7100000000000000000000000000000000000000000000000000000000600052601160045260246000fd5b6000620000f082620000aa565b9150620000fd83620000aa565b9250817fffffffffffffffffffffffffffffffffffffffffffffffffffffffffffffffff0483118215151615620001395762000138620000b4565b5b828202905092915050565b60006200015182620000aa565b91506200015e83620000aa565b9250827fffffffffffffffffffffffffffffffffffffffffffffffffffffffffffffffff03821115620001965762000195620000b4565b5b828201905092915050565b613e7780620001b16000396000f3fe60806040526004361061014f5760003560e01c8063950e1da9116100b6578063addd50991161006f578063addd50991461054c578063d334562014610589578063e4888222146105c6578063ea2d8e3014610603578063eee5a59614610633578063f0fbfbf31461067057610150565b8063950e1da91461040f5780639584660f1461042d5780639967cf601461046a5780639979ef45146104a7578063a08702f3146104e4578063a37b354d1461050f57610150565b80636fbf7973116101085780636fbf7973146102ba5780637d02da09146102f757806381d12c5814610334578063827626001461037c5780638da5cb5b146103a757806391a3632a146103d257610150565b8063053ebc9a1461015e5780633015394c14610189578063498d7df0146101c65780634e7c57a61461020357806357442e791461024057806358621b7a1461027d57610150565b5b34801561015c57600080fd5b005b34801561016a57600080fd5b506101736106ad565b6040516101809190612a1d565b60405180910390f35b34801561019557600080fd5b506101b060048036038101906101ab9190612a82565b6106d3565b6040516101bd9190612aca565b60405180910390f35b3480156101d257600080fd5b506101ed60048036038101906101e89190612c6a565b610904565b6040516101fa9190612aca565b60405180910390f35b34801561020f57600080fd5b5061022a60048036038101906102259190612cc6565b610d1e565b6040516102379190612d02565b60405180910390f35b34801561024c57600080fd5b5061026760048036038101906102629190612a82565b610d37565b6040516102749190612da5565b60405180910390f35b34801561028957600080fd5b506102a4600480360381019061029f9190612dfd565b610e3e565b6040516102b19190612aca565b60405180910390f35b3480156102c657600080fd5b506102e160048036038101906102dc9190612cc6565b611103565b6040516102ee9190612aca565b60405180910390f35b34801561030357600080fd5b5061031e60048036038101906103199190612cc6565b61115a565b60405161032b9190612aca565b60405180910390f35b34801561034057600080fd5b5061035b60048036038101906103569190612a82565b61117b565b6040516103739c9b9a99989796959493929190612f4e565b60405180910390f35b34801561038857600080fd5b506103916113f3565b60405161039e9190612a1d565b60405180910390f35b3480156103b357600080fd5b506103bc611419565b6040516103c99190612a1d565b60405180910390f35b3480156103de57600080fd5b506103f960048036038101906103f49190612a82565b61143d565b604051610406919061301d565b60405180910390f35b6104176114cc565b6040516104249190612aca565b60405180910390f35b34801561043957600080fd5b50610454600480360381019061044f9190612cc6565b611766565b6040516104619190612aca565b60405180910390f35b34801561047657600080fd5b50610491600480360381019061048c9190612cc6565b61180b565b60405161049e9190612aca565b60405180910390f35b3480156104b357600080fd5b506104ce60048036038101906104c99190612a82565b6118b0565b6040516104db9190612aca565b60405180910390f35b3480156104f057600080fd5b506104f9611d0f565b6040516105069190612aca565b60405180910390f35b34801561051b57600080fd5b5061053660048036038101906105319190613038565b612074565b6040516105439190612aca565b60405180910390f35b34801561055857600080fd5b50610573600480360381019061056e9190612cc6565b61213e565b6040516105809190612aca565b60405180910390f35b34801561059557600080fd5b506105b060048036038101906105ab919061312d565b61215f565b6040516105bd9190612aca565b60405180910390f35b3480156105d257600080fd5b506105ed60048036038101906105e89190612a82565b612447565b6040516105fa9190612d02565b60405180910390f35b61061d60048036038101906106189190613244565b6124c6565b60405161062a9190612d02565b60405180910390f35b34801561063f57600080fd5b5061065a60048036038101906106559190612cc6565b6128a7565b6040516106679190612aca565b60405180910390f35b34801561067c57600080fd5b5061069760048036038101906106929190612a82565b6129b1565b6040516106a49190612aca565b60405180910390f35b600260009054906101000a900473ffffffffffffffffffffffffffffffffffffffff1681565b600081600381606481106106ea576106e9613325565b5b600c020160010160009054906101000a900473ffffffffffffffffffffffffffffffffffffffff1673ffffffffffffffffffffffffffffffffffffffff163373ffffffffffffffffffffffffffffffffffffffff161461074957600080fd5b826000600382606481106107605761075f613325565b5b600c0201600a0160059054906101000a900460ff1660ff161461078257600080fd5b60016003856064811061079857610797613325565b5b600c0201600a0160056101000a81548160ff021916908360ff1602179055506002600385606481106107cd576107cc613325565b5b600c0201600a0160046101000a81548160ff021916908360028111156107f6576107f5612ebb565b5b02179055507f346e0fa9e112a7376778dcb0fe0fdfe51db577b3d0b1592a40266db0b192f822600385606481106108305761082f613325565b5b600c0201600a0160049054906101000a900460ff1660405161085291906133b1565b60405180910390a1600160009054906101000a900473ffffffffffffffffffffffffffffffffffffffff1673ffffffffffffffffffffffffffffffffffffffff16633015394c856040518263ffffffff1660e01b81526004016108b59190612d02565b6020604051808303816000875af11580156108d4573d6000803e3d6000fd5b505050506040513d601f19601f820116820180604052508101906108f8919061340b565b50600192505050919050565b6000600160009054906101000a900473ffffffffffffffffffffffffffffffffffffffff1673ffffffffffffffffffffffffffffffffffffffff163373ffffffffffffffffffffffffffffffffffffffff161461096057600080fd5b8260006003826064811061097757610976613325565b5b600c0201600a0160059054906101000a900460ff1660ff161461099957600080fd5b6001600385606481106109af576109ae613325565b5b600c0201600a0160056101000a81548160ff021916908360ff1602179055506002600385606481106109e4576109e3613325565b5b600c0201600a0160046101000a81548160ff02191690836002811115610a0d57610a0c612ebb565b5b021790555060005b8351811015610c16576000600260009054906101000a900473ffffffffffffffffffffffffffffffffffffffff1673ffffffffffffffffffffffffffffffffffffffff1663b8f9c2a1868481518110610a7157610a70613325565b5b60200260200101516040518263ffffffff1660e01b8152600401610a959190612a1d565b602060405180830381865afa158015610ab2573d6000803e3d6000fd5b505050506040513d601f19601f82011682018060405250810190610ad6919061344d565b9050806104b56000878581518110610af157610af0613325565b5b602002602001015173ffffffffffffffffffffffffffffffffffffffff1673ffffffffffffffffffffffffffffffffffffffff1681526020019081526020016000206000828254610b4291906134a9565b92505081905550600260009054906101000a900473ffffffffffffffffffffffffffffffffffffffff1673ffffffffffffffffffffffffffffffffffffffff166318b529c3868481518110610b9a57610b99613325565b5b60200260200101516040518263ffffffff1660e01b8152600401610bbe9190612a1d565b6020604051808303816000875af1158015610bdd573d6000803e3d6000fd5b505050506040513d601f19601f82011682018060405250810190610c01919061344d565b50508080610c0e906134dd565b915050610a15565b5060038460648110610c2b57610c2a613325565b5b600c020160010160009054906101000a900473ffffffffffffffffffffffffffffffffffffffff1673ffffffffffffffffffffffffffffffffffffffff166108fc60038660648110610c8057610c7f613325565b5b600c0201600b01549081150290604051600060405180830381858888f19350505050158015610cb3573d6000803e3d6000fd5b507f346e0fa9e112a7376778dcb0fe0fdfe51db577b3d0b1592a40266db0b192f82260038560648110610ce957610ce8613325565b5b600c0201600a0160049054906101000a900460ff16604051610d0b91906133b1565b60405180910390a1600191505092915050565b6104b56020528060005260406000206000915090505481565b6060600160009054906101000a900473ffffffffffffffffffffffffffffffffffffffff1673ffffffffffffffffffffffffffffffffffffffff163373ffffffffffffffffffffffffffffffffffffffff1614610d9357600080fd5b60038260648110610da757610da6613325565b5b600c02016005018054610db990613554565b80601f0160208091040260200160405190810160405280929190818152602001828054610de590613554565b8015610e325780601f10610e0757610100808354040283529160200191610e32565b820191906000526020600020905b815481529060010190602001808311610e1557829003601f168201915b50505050509050919050565b600084600060038260648110610e5757610e56613325565b5b600c0201600a0160059054906101000a900460ff1660ff1614610e7957600080fd5b600160009054906101000a900473ffffffffffffffffffffffffffffffffffffffff1673ffffffffffffffffffffffffffffffffffffffff163373ffffffffffffffffffffffffffffffffffffffff1614610ed357600080fd5b6000845160038860648110610eeb57610eea613325565b5b600c0201600b0154610efd91906135b4565b905060005b8551811015610f71577f88fa4dc6dc84fb056628ddf02c361252f313bcdd951c9d28e3b628bffac8ab55868281518110610f3f57610f3e613325565b5b602002602001015183604051610f56929190613631565b60405180910390a18080610f69906134dd565b915050610f02565b5060005b845181101561100257816104b56000878481518110610f9757610f96613325565b5b602002602001015173ffffffffffffffffffffffffffffffffffffffff1673ffffffffffffffffffffffffffffffffffffffff1681526020019081526020016000206000828254610fe891906134a9565b925050819055508080610ffa906134dd565b915050610f75565b5060016003886064811061101957611018613325565b5b600c0201600a0160046101000a81548160ff0219169083600281111561104257611041612ebb565b5b021790555060016104b8886064811061105e5761105d613325565b5b602091828204019190066101000a81548160ff0219169083151502179055507f346e0fa9e112a7376778dcb0fe0fdfe51db577b3d0b1592a40266db0b192f822600388606481106110b2576110b1613325565b5b600c0201600a0160049054906101000a900460ff166040516110d491906136b9565b60405180910390a16104b760008154809291906110f0906136e7565b9190505550600192505050949350505050565b60006104b460008373ffffffffffffffffffffffffffffffffffffffff1673ffffffffffffffffffffffffffffffffffffffff16815260200190815260200160002060009054906101000a900460ff169050919050565b6104b46020528060005260406000206000915054906101000a900460ff1681565b6003816064811061118b57600080fd5b600c02016000915090508060000154908060010160009054906101000a900473ffffffffffffffffffffffffffffffffffffffff16908060020160009054906101000a900473ffffffffffffffffffffffffffffffffffffffff16908060030180546111f690613554565b80601f016020809104026020016040519081016040528092919081815260200182805461122290613554565b801561126f5780601f106112445761010080835404028352916020019161126f565b820191906000526020600020905b81548152906001019060200180831161125257829003601f168201915b50505050509080600401805461128490613554565b80601f01602080910402602001604051908101604052809291908181526020018280546112b090613554565b80156112fd5780601f106112d2576101008083540402835291602001916112fd565b820191906000526020600020905b8154815290600101906020018083116112e057829003601f168201915b50505050509080600501805461131290613554565b80601f016020809104026020016040519081016040528092919081815260200182805461133e90613554565b801561138b5780601f106113605761010080835404028352916020019161138b565b820191906000526020600020905b81548152906001019060200180831161136e57829003601f168201915b5050505050908060060160009054906101000a900463ffffffff169080600901549080600a0160009054906101000a900463ffffffff169080600a0160049054906101000a900460ff169080600a0160059054906101000a900460ff169080600b015490508c565b600160009054906101000a900473ffffffffffffffffffffffffffffffffffffffff1681565b60008054906101000a900473ffffffffffffffffffffffffffffffffffffffff1681565b6000600160009054906101000a900473ffffffffffffffffffffffffffffffffffffffff1673ffffffffffffffffffffffffffffffffffffffff163373ffffffffffffffffffffffffffffffffffffffff161461149957600080fd5b600382606481106114ad576114ac613325565b5b600c020160060160009054906101000a900463ffffffff169050919050565b6000600115156104b360003373ffffffffffffffffffffffffffffffffffffffff1673ffffffffffffffffffffffffffffffffffffffff16815260200190815260200160002060009054906101000a900460ff1615150361152c57600080fd5b670de0b6b3a7640000341461154057600080fd5b600115156104b460003373ffffffffffffffffffffffffffffffffffffffff1673ffffffffffffffffffffffffffffffffffffffff16815260200190815260200160002060009054906101000a900460ff161515151461159f57600080fd5b600260009054906101000a900473ffffffffffffffffffffffffffffffffffffffff1673ffffffffffffffffffffffffffffffffffffffff1663df5dd1a5336040518263ffffffff1660e01b81526004016115fa9190612a1d565b6020604051808303816000875af1158015611619573d6000803e3d6000fd5b505050506040513d601f19601f8201168201806040525081019061163d919061340b565b5060016104b360003373ffffffffffffffffffffffffffffffffffffffff1673ffffffffffffffffffffffffffffffffffffffff16815260200190815260200160002060006101000a81548160ff021916908315150217905550346104b560003373ffffffffffffffffffffffffffffffffffffffff1673ffffffffffffffffffffffffffffffffffffffff168152602001908152602001600020819055507f2d62108771d82d92634e2d038b6c7f09290edfee5b1443e25299f04a0cfbca723360405161170b919061375c565b60405180910390a16104b360003373ffffffffffffffffffffffffffffffffffffffff1673ffffffffffffffffffffffffffffffffffffffff16815260200190815260200160002060009054906101000a900460ff16905090565b60008060009054906101000a900473ffffffffffffffffffffffffffffffffffffffff1673ffffffffffffffffffffffffffffffffffffffff163373ffffffffffffffffffffffffffffffffffffffff16146117c157600080fd5b81600260006101000a81548173ffffffffffffffffffffffffffffffffffffffff021916908373ffffffffffffffffffffffffffffffffffffffff16021790555060019050919050565b60008060009054906101000a900473ffffffffffffffffffffffffffffffffffffffff1673ffffffffffffffffffffffffffffffffffffffff163373ffffffffffffffffffffffffffffffffffffffff161461186657600080fd5b81600160006101000a81548173ffffffffffffffffffffffffffffffffffffffff021916908373ffffffffffffffffffffffffffffffffffffffff16021790555060019050919050565b6000600115156104b360003373ffffffffffffffffffffffffffffffffffffffff1673ffffffffffffffffffffffffffffffffffffffff16815260200190815260200160002060009054906101000a900460ff1615151461191057600080fd5b8160006003826064811061192757611926613325565b5b600c0201600a0160059054906101000a900460ff1660ff161461194957600080fd5b826003816064811061195e5761195d613325565b5b600c020160060160009054906101000a900463ffffffff1663ffffffff16600382606481106119905761198f613325565b5b600c0201600a0160009054906101000a900463ffffffff1663ffffffff16106119b857600080fd5b600115156104b460003373ffffffffffffffffffffffffffffffffffffffff1673ffffffffffffffffffffffffffffffffffffffff16815260200190815260200160002060009054906101000a900460ff1615151514611a1757600080fd5b600160038560648110611a2d57611a2c613325565b5b600c020160070160003373ffffffffffffffffffffffffffffffffffffffff1673ffffffffffffffffffffffffffffffffffffffff16815260200190815260200160002060006101000a81548160ff0219169083151502179055503360038560648110611a9d57611a9c613325565b5b600c0201600801600060038760648110611aba57611ab9613325565b5b600c0201600a0160009054906101000a900463ffffffff1663ffffffff1663ffffffff16815260200190815260200160002060006101000a81548173ffffffffffffffffffffffffffffffffffffffff021916908373ffffffffffffffffffffffffffffffffffffffff16021790555060038460648110611b3e57611b3d613325565b5b600c0201600a01600081819054906101000a900463ffffffff1680929190611b659061378a565b91906101000a81548163ffffffff021916908363ffffffff160217905550507fe677a6b9a16a696674f50d2c98a1ce8c5cb51d6b48a0223412c512bbc93664d533604051611bb39190612a1d565b60405180910390a160038460648110611bcf57611bce613325565b5b600c0201600a0160009054906101000a900463ffffffff1663ffffffff1660038560648110611c0157611c00613325565b5b600c020160060160009054906101000a900463ffffffff1663ffffffff1603611cb7577f2510e6950be86d6001a0b1229da4c21fa8e26b6bcf345d0b348fe42894fceb0360038560648110611c5957611c58613325565b5b600c02016000015460038660648110611c7557611c74613325565b5b600c020160040160038760648110611c9057611c8f613325565b5b600c0201600501604051611ca69392919061384f565b60405180910390a160019250611d08565b6104b360003373ffffffffffffffffffffffffffffffffffffffff1673ffffffffffffffffffffffffffffffffffffffff16815260200190815260200160002060009054906101000a900460ff1692505b5050919050565b6000600115156104b360003373ffffffffffffffffffffffffffffffffffffffff1673ffffffffffffffffffffffffffffffffffffffff16815260200190815260200160002060009054906101000a900460ff16151514611d6f57600080fd5b60006104b560003373ffffffffffffffffffffffffffffffffffffffff1673ffffffffffffffffffffffffffffffffffffffff1681526020019081526020016000205411611dbc57600080fd5b600115156104b460003373ffffffffffffffffffffffffffffffffffffffff1673ffffffffffffffffffffffffffffffffffffffff16815260200190815260200160002060009054906101000a900460ff1615151514611e1b57600080fd5b6001600260009054906101000a900473ffffffffffffffffffffffffffffffffffffffff1673ffffffffffffffffffffffffffffffffffffffff16630855078b336040518263ffffffff1660e01b8152600401611e789190612a1d565b602060405180830381865afa158015611e95573d6000803e3d6000fd5b505050506040513d601f19601f82011682018060405250810190611eb9919061344d565b1115611f195760016104b460003373ffffffffffffffffffffffffffffffffffffffff1673ffffffffffffffffffffffffffffffffffffffff16815260200190815260200160002060006101000a81548160ff0219169083151502179055505b6104b360003373ffffffffffffffffffffffffffffffffffffffff1673ffffffffffffffffffffffffffffffffffffffff16815260200190815260200160002060006101000a81549060ff02191690553373ffffffffffffffffffffffffffffffffffffffff166108fc6104b560003373ffffffffffffffffffffffffffffffffffffffff1673ffffffffffffffffffffffffffffffffffffffff168152602001908152602001600020549081150290604051600060405180830381858888f19350505050158015611fef573d6000803e3d6000fd5b5060006104b560003373ffffffffffffffffffffffffffffffffffffffff1673ffffffffffffffffffffffffffffffffffffffff168152602001908152602001600020819055507f14951d787e2aaf7813982720871de23d576e7d935c0587e12a7fc2c4c960165a3360405161206591906138e0565b60405180910390a16001905090565b6000600160009054906101000a900473ffffffffffffffffffffffffffffffffffffffff1673ffffffffffffffffffffffffffffffffffffffff163373ffffffffffffffffffffffffffffffffffffffff16146120d057600080fd5b600383606481106120e4576120e3613325565b5b600c020160070160008373ffffffffffffffffffffffffffffffffffffffff1673ffffffffffffffffffffffffffffffffffffffff16815260200190815260200160002060009054906101000a900460ff16905092915050565b6104b36020528060005260406000206000915054906101000a900460ff1681565b60008560006003826064811061217857612177613325565b5b600c0201600a0160059054906101000a900460ff1660ff161461219a57600080fd5b600160009054906101000a900473ffffffffffffffffffffffffffffffffffffffff1673ffffffffffffffffffffffffffffffffffffffff163373ffffffffffffffffffffffffffffffffffffffff16146121f457600080fd5b60005b855181101561229c577fb1ed47ced4562a888b3c47e728f82f7863e472cad724018fe1585bc6853ec82d60405161222d9061395a565b60405180910390a17f88fa4dc6dc84fb056628ddf02c361252f313bcdd951c9d28e3b628bffac8ab5586828151811061226957612268613325565b5b602002602001015160006040516122819291906139bf565b60405180910390a18080612294906134dd565b9150506121f7565b5060005b84518110156122f1577fb1ed47ced4562a888b3c47e728f82f7863e472cad724018fe1585bc6853ec82d6040516122d690613a47565b60405180910390a180806122e9906134dd565b9150506122a0565b5060005b8351811015612346577fb1ed47ced4562a888b3c47e728f82f7863e472cad724018fe1585bc6853ec82d60405161232b90613ad9565b60405180910390a1808061233e906134dd565b9150506122f5565b5060016003886064811061235d5761235c613325565b5b600c0201600a0160046101000a81548160ff0219169083600281111561238657612385612ebb565b5b021790555060016104b888606481106123a2576123a1613325565b5b602091828204019190066101000a81548160ff0219169083151502179055507f346e0fa9e112a7376778dcb0fe0fdfe51db577b3d0b1592a40266db0b192f822600388606481106123f6576123f5613325565b5b600c0201600a0160049054906101000a900460ff1660405161241891906136b9565b60405180910390a16104b76000815480929190612434906136e7565b9190505550600191505095945050505050565b6000600160009054906101000a900473ffffffffffffffffffffffffffffffffffffffff1673ffffffffffffffffffffffffffffffffffffffff163373ffffffffffffffffffffffffffffffffffffffff16146124a357600080fd5b600382606481106124b7576124b6613325565b5b600c0201600901549050919050565b60006104be543410156124d857600080fd5b8160006002826124e89190613af9565b63ffffffff16036124f857600080fd5b8380600114806125085750600281145b61251157600080fd5b60006104b6549050806003826064811061252e5761252d613325565b5b600c020160000181905550336003826064811061254e5761254d613325565b5b600c020160010160006101000a81548173ffffffffffffffffffffffffffffffffffffffff021916908373ffffffffffffffffffffffffffffffffffffffff16021790555089600382606481106125a8576125a7613325565b5b600c020160020160006101000a81548173ffffffffffffffffffffffffffffffffffffffff021916908373ffffffffffffffffffffffffffffffffffffffff160217905550886003826064811061260257612601613325565b5b600c020160030190816126159190613cb7565b50876003826064811061262b5761262a613325565b5b600c0201600401908161263e9190613cb7565b50866003826064811061265457612653613325565b5b600c020160050190816126679190613cb7565b50846003826064811061267d5761267c613325565b5b600c020160060160006101000a81548163ffffffff021916908363ffffffff1602179055506000600382606481106126b8576126b7613325565b5b600c0201600a0160006101000a81548163ffffffff021916908363ffffffff1602179055506000600382606481106126f3576126f2613325565b5b600c0201600a0160046101000a81548160ff0219169083600281111561271c5761271b612ebb565b5b021790555060006003826064811061273757612736613325565b5b600c0201600a0160056101000a81548160ff021916908360ff160217905550346003826064811061276b5761276a613325565b5b600c0201600b0181905550856003826064811061278b5761278a613325565b5b600c0201600901819055507f346e0fa9e112a7376778dcb0fe0fdfe51db577b3d0b1592a40266db0b192f822600382606481106127cb576127ca613325565b5b600c0201600a0160049054906101000a900460ff166040516127ed9190613dd5565b60405180910390a16104b66000815480929190612809906134dd565b91905055506104b76000815480929190612822906134dd565b91905055507fc668bf865a88698478ed2bc34c4926d4d20090065fd190fe9bf099fca888109d816003836064811061285d5761285c613325565b5b600c02016005016003846064811061287857612877613325565b5b600c02016009015460405161288f93929190613e03565b60405180910390a18093505050509695505050505050565b6000600260009054906101000a900473ffffffffffffffffffffffffffffffffffffffff1673ffffffffffffffffffffffffffffffffffffffff163373ffffffffffffffffffffffffffffffffffffffff161461290357600080fd5b60016104b460008473ffffffffffffffffffffffffffffffffffffffff1673ffffffffffffffffffffffffffffffffffffffff16815260200190815260200160002060006101000a81548160ff0219169083151502179055506104b460008373ffffffffffffffffffffffffffffffffffffffff1673ffffffffffffffffffffffffffffffffffffffff16815260200190815260200160002060009054906101000a900460ff169050919050565b6104b881606481106129c257600080fd5b60209182820401919006915054906101000a900460ff1681565b600073ffffffffffffffffffffffffffffffffffffffff82169050919050565b6000612a07826129dc565b9050919050565b612a17816129fc565b82525050565b6000602082019050612a326000830184612a0e565b92915050565b6000604051905090565b600080fd5b600080fd5b6000819050919050565b612a5f81612a4c565b8114612a6a57600080fd5b50565b600081359050612a7c81612a56565b92915050565b600060208284031215612a9857612a97612a42565b5b6000612aa684828501612a6d565b91505092915050565b60008115159050919050565b612ac481612aaf565b82525050565b6000602082019050612adf6000830184612abb565b92915050565b600080fd5b6000601f19601f8301169050919050565b7f4e487b7100000000000000000000000000000000000000000000000000000000600052604160045260246000fd5b612b3382612aea565b810181811067ffffffffffffffff82111715612b5257612b51612afb565b5b80604052505050565b6000612b65612a38565b9050612b718282612b2a565b919050565b600067ffffffffffffffff821115612b9157612b90612afb565b5b602082029050602081019050919050565b600080fd5b612bb0816129fc565b8114612bbb57600080fd5b50565b600081359050612bcd81612ba7565b92915050565b6000612be6612be184612b76565b612b5b565b90508083825260208201905060208402830185811115612c0957612c08612ba2565b5b835b81811015612c325780612c1e8882612bbe565b845260208401935050602081019050612c0b565b5050509392505050565b600082601f830112612c5157612c50612ae5565b5b8135612c61848260208601612bd3565b91505092915050565b60008060408385031215612c8157612c80612a42565b5b6000612c8f85828601612a6d565b925050602083013567ffffffffffffffff811115612cb057612caf612a47565b5b612cbc85828601612c3c565b9150509250929050565b600060208284031215612cdc57612cdb612a42565b5b6000612cea84828501612bbe565b91505092915050565b612cfc81612a4c565b82525050565b6000602082019050612d176000830184612cf3565b92915050565b600081519050919050565b600082825260208201905092915050565b60005b83811015612d57578082015181840152602081019050612d3c565b83811115612d66576000848401525b50505050565b6000612d7782612d1d565b612d818185612d28565b9350612d91818560208601612d39565b612d9a81612aea565b840191505092915050565b60006020820190508181036000830152612dbf8184612d6c565b905092915050565b6000819050919050565b612dda81612dc7565b8114612de557600080fd5b50565b600081359050612df781612dd1565b92915050565b60008060008060808587031215612e1757612e16612a42565b5b6000612e2587828801612a6d565b9450506020612e3687828801612de8565b935050604085013567ffffffffffffffff811115612e5757612e56612a47565b5b612e6387828801612c3c565b925050606085013567ffffffffffffffff811115612e8457612e83612a47565b5b612e9087828801612c3c565b91505092959194509250565b600063ffffffff82169050919050565b612eb581612e9c565b82525050565b7f4e487b7100000000000000000000000000000000000000000000000000000000600052602160045260246000fd5b60038110612efb57612efa612ebb565b5b50565b6000819050612f0c82612eea565b919050565b6000612f1c82612efe565b9050919050565b612f2c81612f11565b82525050565b600060ff82169050919050565b612f4881612f32565b82525050565b600061018082019050612f64600083018f612cf3565b612f71602083018e612a0e565b612f7e604083018d612a0e565b8181036060830152612f90818c612d6c565b90508181036080830152612fa4818b612d6c565b905081810360a0830152612fb8818a612d6c565b9050612fc760c0830189612eac565b612fd460e0830188612cf3565b612fe2610100830187612eac565b612ff0610120830186612f23565b612ffe610140830185612f3f565b61300c610160830184612cf3565b9d9c50505050505050505050505050565b60006020820190506130326000830184612eac565b92915050565b6000806040838503121561304f5761304e612a42565b5b600061305d85828601612a6d565b925050602061306e85828601612bbe565b9150509250929050565b600080fd5b600067ffffffffffffffff82111561309857613097612afb565b5b6130a182612aea565b9050602081019050919050565b82818337600083830152505050565b60006130d06130cb8461307d565b612b5b565b9050828152602081018484840111156130ec576130eb613078565b5b6130f78482856130ae565b509392505050565b600082601f83011261311457613113612ae5565b5b81356131248482602086016130bd565b91505092915050565b600080600080600060a0868803121561314957613148612a42565b5b600061315788828901612a6d565b955050602086013567ffffffffffffffff81111561317857613177612a47565b5b613184888289016130ff565b945050604086013567ffffffffffffffff8111156131a5576131a4612a47565b5b6131b188828901612c3c565b935050606086013567ffffffffffffffff8111156131d2576131d1612a47565b5b6131de88828901612c3c565b925050608086013567ffffffffffffffff8111156131ff576131fe612a47565b5b61320b88828901612c3c565b9150509295509295909350565b61322181612e9c565b811461322c57600080fd5b50565b60008135905061323e81613218565b92915050565b60008060008060008060c0878903121561326157613260612a42565b5b600061326f89828a01612bbe565b965050602087013567ffffffffffffffff8111156132905761328f612a47565b5b61329c89828a016130ff565b955050604087013567ffffffffffffffff8111156132bd576132bc612a47565b5b6132c989828a016130ff565b945050606087013567ffffffffffffffff8111156132ea576132e9612a47565b5b6132f689828a016130ff565b935050608061330789828a01612a6d565b92505060a061331889828a0161322f565b9150509295509295509295565b7f4e487b7100000000000000000000000000000000000000000000000000000000600052603260045260246000fd5b600082825260208201905092915050565b7f43414e43454c4c45440000000000000000000000000000000000000000000000600082015250565b600061339b600983613354565b91506133a682613365565b602082019050919050565b60006040820190506133c66000830184612f23565b81810360208301526133d78161338e565b905092915050565b6133e881612aaf565b81146133f357600080fd5b50565b600081519050613405816133df565b92915050565b60006020828403121561342157613420612a42565b5b600061342f848285016133f6565b91505092915050565b60008151905061344781612a56565b92915050565b60006020828403121561346357613462612a42565b5b600061347184828501613438565b91505092915050565b7f4e487b7100000000000000000000000000000000000000000000000000000000600052601160045260246000fd5b60006134b482612a4c565b91506134bf83612a4c565b9250828210156134d2576134d161347a565b5b828203905092915050565b60006134e882612a4c565b91507fffffffffffffffffffffffffffffffffffffffffffffffffffffffffffffffff820361351a5761351961347a565b5b600182019050919050565b7f4e487b7100000000000000000000000000000000000000000000000000000000600052602260045260246000fd5b6000600282049050600182168061356c57607f821691505b60208210810361357f5761357e613525565b5b50919050565b7f4e487b7100000000000000000000000000000000000000000000000000000000600052601260045260246000fd5b60006135bf82612a4c565b91506135ca83612a4c565b9250826135da576135d9613585565b5b828204905092915050565b7f4f7261636c6520686173206265656e2050616964210000000000000000000000600082015250565b600061361b601583613354565b9150613626826135e5565b602082019050919050565b60006060820190506136466000830185612a0e565b6136536020830184612cf3565b81810360408301526136648161360e565b90509392505050565b7f434f4d504c455445000000000000000000000000000000000000000000000000600082015250565b60006136a3600883613354565b91506136ae8261366d565b602082019050919050565b60006040820190506136ce6000830184612f23565b81810360208301526136df81613696565b905092915050565b60006136f282612a4c565b9150600082036137055761370461347a565b5b600182039050919050565b7f57656c636f6d65206e6577206e6f646521000000000000000000000000000000600082015250565b6000613746601183613354565b915061375182613710565b602082019050919050565b60006040820190506137716000830184612a0e565b818103602083015261378281613739565b905092915050565b600061379582612e9c565b915063ffffffff82036137ab576137aa61347a565b5b600182019050919050565b60008190508160005260206000209050919050565b600081546137d881613554565b6137e28186612d28565b945060018216600081146137fd576001811461381357613846565b60ff198316865281151560200286019350613846565b61381c856137b6565b60005b8381101561383e5781548189015260018201915060208101905061381f565b808801955050505b50505092915050565b60006060820190506138646000830186612cf3565b818103602083015261387681856137cb565b9050818103604083015261388a81846137cb565b9050949350505050565b7f4e6f646520686173206c6566742c20476f6f6462796500000000000000000000600082015250565b60006138ca601683613354565b91506138d582613894565b602082019050919050565b60006040820190506138f56000830184612a0e565b8181036020830152613906816138bd565b905092915050565b7f6765747320746f20696e7369646520636f72726563744f7261636c6573000000600082015250565b6000613944601d83613354565b915061394f8261390e565b602082019050919050565b6000602082019050818103600083015261397381613937565b9050919050565b6000819050919050565b6000819050919050565b60006139a96139a461399f8461397a565b613984565b612a4c565b9050919050565b6139b98161398e565b82525050565b60006060820190506139d46000830185612a0e565b6139e160208301846139b0565b81810360408301526139f28161360e565b90509392505050565b7f6765747320746f206c6f6f7020696e636f72726563744f7261636c6573000000600082015250565b6000613a31601d83613354565b9150613a3c826139fb565b602082019050919050565b60006020820190508181036000830152613a6081613a24565b9050919050565b7f77652067657420696e736964652070656e616c747920696e636f72726563742060008201527f6861736865730000000000000000000000000000000000000000000000000000602082015250565b6000613ac3602683613354565b9150613ace82613a67565b604082019050919050565b60006020820190508181036000830152613af281613ab6565b9050919050565b6000613b0482612e9c565b9150613b0f83612e9c565b925082613b1f57613b1e613585565b5b828206905092915050565b60006020601f8301049050919050565b600082821b905092915050565b600060088302613b777fffffffffffffffffffffffffffffffffffffffffffffffffffffffffffffffff82613b3a565b613b818683613b3a565b95508019841693508086168417925050509392505050565b6000613bb4613baf613baa84612a4c565b613984565b612a4c565b9050919050565b6000819050919050565b613bce83613b99565b613be2613bda82613bbb565b848454613b47565b825550505050565b600090565b613bf7613bea565b613c02818484613bc5565b505050565b5b81811015613c2657613c1b600082613bef565b600181019050613c08565b5050565b601f821115613c6b57613c3c816137b6565b613c4584613b2a565b81016020851015613c54578190505b613c68613c6085613b2a565b830182613c07565b50505b505050565b600082821c905092915050565b6000613c8e60001984600802613c70565b1980831691505092915050565b6000613ca78383613c7d565b9150826002028217905092915050565b613cc082612d1d565b67ffffffffffffffff811115613cd957613cd8612afb565b5b613ce38254613554565b613cee828285613c2a565b600060209050601f831160018114613d215760008415613d0f578287015190505b613d198582613c9b565b865550613d81565b601f198416613d2f866137b6565b60005b82811015613d5757848901518255600182019150602085019450602081019050613d32565b86831015613d745784890151613d70601f891682613c7d565b8355505b6001600288020188555050505b505050505050565b7f50454e44494e4700000000000000000000000000000000000000000000000000600082015250565b6000613dbf600783613354565b9150613dca82613d89565b602082019050919050565b6000604082019050613dea6000830184612f23565b8181036020830152613dfb81613db2565b905092915050565b6000606082019050613e186000830186612cf3565b8181036020830152613e2a81856137cb565b9050613e396040830184612cf3565b94935050505056fea2646970667358221220fd61dc386ba35af2a914cd98e0fe7d9342f89ca33c7bf88688fe2817111bc2d764736f6c634300080f0033",
  "immutableReferences": {},
  "source": "// SPDX-License-Identifier: MIT\npragma solidity ^0.8.0;\n\nimport \"./AggregatorContract.sol\";\nimport \"./ReputationContract.sol\";\n\ncontract OracleRequestContract {\n    //address that deploys contract\n    address public owner;\n    // address of aggregator contract\n    address public aggregatorAddr;\n    // address of reputation contract\n    address public reputationAddr;\n    // Array to populate with requests that come in\n    Request[100] public requests;\n    // all mappings of oracles that have joined network\n    mapping (address => bool) public oracles;\n    // mapping of blacklisted oracles (who's ratings exceed 10)\n    mapping (address => bool) public blacklistedOracles;\n    // stakeBalance of each node, should be equal to 1 eth\n    mapping (address => uint) public stakeBalance;\n    // request and and pending counters, pending decreased when status changed to COMPLETE\n    uint requestCounter = 1;\n    uint pendingCounter = 1;\n    // Status logs for each request\n    enum Status{PENDING, COMPLETE, CANCELLED}\n\n    // a single Request structure\n    struct Request {\n        uint256 requestID; //Id for each request\n        address requester; // address which made the request\n        address callbackAddress; // an address in which the response can be delivered to\n        bytes callbackFID; // a function in the callback address that can be called\n        bytes IoTID; // the ID of the IoT the user-SC wishes to gather data from\n        bytes dataType; // data type, JSON that is decoded by the oracle node that will collect the data\n        // bytes32 pHash; // a hash of the data type and the actual result required.\n        //bytes requiredResult; // left this out for security reason, we only apply it to the hash\n        uint32 numberOfOracles; // number of oracles needed to fetch the data\n        mapping (address => bool) oraclesForRequest; // must be true in order for oracle node to participate\n        mapping (uint32 => address) oracleAddressAccess; // mapping so we can iterate through addresses\n        uint256 aggregationType;\n        uint32 oracleCounter; // index and counter for the number of oracles\n        Status status; // status of the request\n        uint8 cancelFlag; // cancel flag, if == 1 then do not continue with request\n        uint fee; // fee sent to cover costs and extra for fetch the data\n    }\n\n    bool[100] public completedRequests;// true for each requestID once status changes to complete.\n\n    event OpenForBids(uint256, bytes, uint256); // tells oracle nodes there is a request that needs bidding on\n    event BidPlaced(address); // tells nodes that a bid has been placed by another node\n    event ReleaseRequestDetails(uint256, bytes, bytes); // the details the node needs to gather\n    event StatusChange(Status, string); // tells nodes in network of status change of requests\n    event OracleJoined(address, string); // tells network that a new oracle has joined the network\n    event OracleLeft(address, string); // tells the network that another oracle has left\n    event OraclePaid(address, uint, string); // tells the network when an oracle has been paid for its services\n    event Logging(string);\n    // ***payments***\n    uint GAS_PRICE = 2 * 10**10; // cost of gas\n    uint FEE = GAS_PRICE * 3; // fee to cover other function calls and pay each oracle\n    uint MIN_FEE = FEE + (GAS_PRICE * 5); // minimum needed to cover all costs\n\n    // @notice constructor when first deployed\n    constructor() {\n        owner = msg.sender; // set the owner of the contract to the address that deploys it\n    }\n    // @notice used if eth is sent to an invalid function etc\n    fallback() external{}\n\n    // @notice function called by addresses of Off-chain Oracle nodes that want to join the network\n    // @return bool, true if successful otherwise reverts\n    function joinAsOracle()\n    public\n    payable\n    oracleNotJoined()\n    valueEqual1Eth()\n    isNotBlacklisted()\n    //oracleCannotRejoin()\n    returns(bool){\n        ReputationContract(reputationAddr).addOracle(msg.sender);\n        oracles[address(msg.sender)] = true; // set to true as is now in network\n        stakeBalance[msg.sender] = msg.value; // added value to stakeBalance as a record\n        emit OracleJoined(msg.sender, \"Welcome new node!\"); // emit event so listeners can be notified\n        return oracles[address(msg.sender)]; // return true\n    }\n    // @notice oracle node calls this function when they wish to leave network\n    // @return bool\n    function leaveOracleNetwork()\n    public\n    oracleHasJoined()\n    stakeCheck()\n    isNotBlacklisted()\n    returns(bool) {\n        if (ReputationContract(reputationAddr).getOracleRating(msg.sender) > 1 ){\n            blacklistedOracles[msg.sender] = true; // allows oracle nodes with penalties to leave, but cannot rejoin\n        }\n        delete oracles[msg.sender]; // deletes address from mapping\n        payable(msg.sender).transfer(stakeBalance[msg.sender]); // transfers their stake back to them\n        stakeBalance[msg.sender] = 0; // set stakeBalance back to 0 for the oracle node\n        emit OracleLeft(msg.sender, \"Node has left, Goodbye\"); // emit event so listeners can be notified\n        return true; // return true to confirm\n    }\n\n    // @notice user can call function create request\n    // @dev\n    // @param _callbackAddress could be different to address that called the function\n    // @param _callbackFID a particular function in a smart contract that is needed to be called based on request\n    // @param _IoTID the identifier of the IoT device oracle node will be subscribing to\n    // @param _dataType, true false answer, an event, continuous data over time?\n    // @param _aggregationType 1 = voting, 2 = averaging\n    // @param _numberOfOracles number of oracle nodes that fetch IoT data\n    // @return the requestID so the user can keep track of request\n    function createRequest(\n        address _callbackAddress,\n        bytes memory _callbackFID,\n        bytes memory _IoTID,\n        bytes memory _dataType,\n        uint256 _aggregationType,\n        uint32 _numberOfOracles)\n    external\n    payable\n    valueGTMinFeeCheck() // requires the value sent is >= MIN_FEE\n    oddNumOracles(_numberOfOracles) // requires an odd number of oracles\n    aggregationTypeCheck(_aggregationType) // 1 = voting, 2 = averaging\n    returns(uint256)\n    {\n        uint256 requestID = requestCounter; // assign id to request\n        // log details of the request to array to cross reference later\n        requests[requestID].requestID = requestID;\n        requests[requestID].requester = msg.sender;\n        requests[requestID].callbackAddress = _callbackAddress;\n        requests[requestID].callbackFID = _callbackFID;\n        requests[requestID].IoTID = _IoTID;\n        requests[requestID].dataType = _dataType;\n        requests[requestID].numberOfOracles = _numberOfOracles;\n        requests[requestID].oracleCounter = 0;\n        requests[requestID].status = Status.PENDING;\n        requests[requestID].cancelFlag = 0;\n        requests[requestID].fee = msg.value; // keeps track of the fee for the request\n        requests[requestID].aggregationType = _aggregationType;\n        emit StatusChange(requests[requestID].status, \"PENDING\"); // tells nodes in network of status change of requests\n        // increment requestId ready for next create request function.\n        requestCounter++;\n        pendingCounter++;\n        emit OpenForBids(requestID, requests[requestID].dataType, requests[requestID].aggregationType);\n        return requestID;\n    }\n\n    // @notice off-chain oracle node places bid to fetch data, once threshold is reached, emits event details.\n    // @dev\n    // @param requestId oracle node wishes to bid on\n    // @return true to indicate bid successful\n    function placeBid(\n        uint256 _requestID)\n    public\n    oracleHasJoined() // requires that the oracle is in the network\n    cancelFlagZero(_requestID) // requires requests cancel flag is zero\n    orcCountLessThanNum(_requestID) // requires that the oracle counter is still les than the number of oracles needed\n    isNotBlacklisted() // requires the oracle has not exceed its penalty rating past 10\n    returns(bool)\n    {\n        requests[_requestID].oraclesForRequest[msg.sender] = true; // add true for oracle in request so we know they can vote\n        requests[_requestID].oracleAddressAccess[requests[_requestID].oracleCounter] = address(msg.sender); // map addr for iteration\n        requests[_requestID].oracleCounter++; // increment the counter\n        // TODO also add a timeout, if bids take to long\n        emit BidPlaced(msg.sender); // send message to network that a bid has been placed\n        if (requests[_requestID].numberOfOracles == requests[_requestID].oracleCounter) {\n            // when the last oracle has submitted, we can emit the details\n            emit ReleaseRequestDetails(\n                requests[_requestID].requestID, // requestID\n                requests[_requestID].IoTID, // IoT info, this is most of importance\n                requests[_requestID].dataType); // DataType\n            return true; // returns true to show completion of the bidding phase that is now over\n        }\n        return oracles[msg.sender]; // returns true for each oracle that bids\n    }\n\n    // @notice called by aggregator contract to deliver final response\n    // @param _requestID, id of request\n    // @param _finalResult, final aggregated result\n    // @param _correctOracles, array of addresses of oracles to be paid for their work\n    function deliverVoteResponse(\n        uint256 _requestID,\n        bytes memory _finalResult,\n        address[] memory _correctOracles,\n        address[] memory _incorrectOracles,\n        address[] memory _incorrectRevealOracles) // do not penalise\n    public\n    cancelFlagZero(_requestID) // requires that the cancelFlag is = 0\n    onlyAggregator() // only the aggregator contract can call this function\n    returns(bool)\n    {\n        // return single aggregation result\n        _finalResult;\n        //uint fee = requests[_requestID].fee / _correctOracles.length;\n        // pay fees\n        for (uint i=0; i<_correctOracles.length; i++) {\n            // pay each share to each oracle\n            emit Logging(\"gets to inside correctOracles\");\n            emit OraclePaid(_correctOracles[i], 0, \"Oracle has been Paid!\"); // tells listeners oracle node has been paid\n            //payable(_correctOracles[i]).transfer(fee); // pays oracle their fee\n            //requests[_requestID].fee -= fee; // deduct the oracles portion from the logged amount until it reaches 0\n            // and all oracles have been paid\n        }\n        // add penalties and slash dishonest nodes stake\n        for (uint i=0; i<_incorrectOracles.length; i++){\n            emit Logging(\"gets to loop incorrectOracles\");\n            // gets penalty fee from reputation contract penalty**rating\n//            uint penalty = ReputationContract(reputationAddr).getPenaltyFee(_incorrectOracles[i]);\n//            stakeBalance[_incorrectOracles[i]] -= penalty;\n//            ReputationContract(reputationAddr).incrementRating(_incorrectOracles[i]);\n        }\n        // small penalty for incorrect hashes, as this could be an error\n        for (uint i=0; i<_incorrectRevealOracles.length; i++) {\n            emit Logging(\"we get inside penalty incorrect hashes\");\n            //uint penalty = fee; // charge the fee of the request as a penalty\n            //stakeBalance[_incorrectRevealOracles[i]] += penalty; // deducted from oracle stake\n        }\n        requests[_requestID].status = Status.COMPLETE; // request is complete\n        completedRequests[_requestID] = true; // add request id to completedRequests\n        emit StatusChange(requests[_requestID].status, \"COMPLETE\"); // tell listeners that the status has changed\n        pendingCounter--; // no longer pending so countered can be decremented\n        return true; // return true to so it has finished\n    }\n\n    // @notice called by aggregator contract to deliver final response\n    // @param _requestID, id of request\n    // @param _finalResult, final aggregated result\n    // @param _correctOracles, array of addresses of oracles to be paid for their work\n    function deliverAverageResponse(\n        uint256 _requestID,\n        int256 _finalResult,\n        address[] memory _correctOracles,\n        address[] memory _incorrectOracles)\n        // address[] memory _incorrectOracles,\n        // address[] memory _incorrectRevealOracles) // do not penalise\n    public\n    cancelFlagZero(_requestID) // requires that the cancelFlag is = 0\n    onlyAggregator() // only the aggregator contract can call this function\n    returns(bool)\n    {\n        // return single aggregation result\n        _finalResult;\n        uint fee = requests[_requestID].fee / _correctOracles.length;\n        // pay fees\n        for (uint i=0; i<_correctOracles.length; i++) {\n            // pay each share to each oracle\n            emit OraclePaid(_correctOracles[i], fee, \"Oracle has been Paid!\"); // tells listeners oracle node has been paid\n            //payable(_correctOracles[i]).transfer(fee); // pays oracle their fee\n            //requests[_requestID].fee -= fee; // deduct the oracles portion from the logged amount until it reaches 0\n            // and all oracles have been paid\n        }\n        // small penalty for incorrect hashes, as this could be an error\n        for (uint i=0; i<_incorrectOracles.length; i++) {\n            stakeBalance[_incorrectOracles[i]] -= fee; // deducted fee from stake\n        }\n        requests[_requestID].status = Status.COMPLETE; // request is complete\n        completedRequests[_requestID] = true; // add request id to completedRequests\n        emit StatusChange(requests[_requestID].status, \"COMPLETE\"); // tell listeners that the status has changed\n        pendingCounter--; // no longer pending so countered can be decremented\n        return true; // return true to so it has finished\n    }\n    // @notice function for requester to cancel request\n    // @param _requestID pass requestID to cancel the correct request\n    function cancelRequest(\n        uint256 _requestID)\n    external\n    onlyRequester(_requestID) // requires that only the requester can cancel\n    cancelFlagZero(_requestID) // requires that request is not yet cancelled\n    returns(bool)\n    {\n        requests[_requestID].cancelFlag = 1; // changes flag to 1, if 1 it will not pass other functions\n        requests[_requestID].status = Status.CANCELLED; // status changed\n        emit StatusChange(requests[_requestID].status, \"CANCELLED\");\n        AggregatorContract(aggregatorAddr).cancelRequest(_requestID); // call cancelled request in AggregatorContract\n        return true;\n    }\n    // @notice cancelled request by deadlock in the voting, if there are incorrect nodes,\n    //         correct amount might be even and could cause deadlock in voting,\n    //         in this case we refund the requester and cancel request\n    // @param _requestID\n    // @param _incorrectOracleReveals, we slash the faulty nodes here, as they have caused issues penalties are given\n    function cancelRequestDueToDeadlock(\n        uint256 _requestID,\n        address[] memory _incorrectOracleReveals)\n    external\n    onlyAggregator()\n    cancelFlagZero(_requestID)\n    returns(bool)\n    {\n        requests[_requestID].cancelFlag = 1;\n        requests[_requestID].status = Status.CANCELLED;\n        // return full fee as the user is not at fault here\n        // should be slashed from incorrect nodes for causing deadlock\n        for (uint i=0; i<_incorrectOracleReveals.length; i++){\n            // gets penalty fee from reputation contract penalty**rating\n            uint penalty = ReputationContract(reputationAddr).getPenaltyFee(_incorrectOracleReveals[i]);\n            stakeBalance[_incorrectOracleReveals[i]] -= penalty;\n            ReputationContract(reputationAddr).incrementRating(_incorrectOracleReveals[i]);\n        }\n        payable(requests[_requestID].requester).transfer(requests[_requestID].fee);\n        emit StatusChange(requests[_requestID].status, \"CANCELLED\");\n        return true;\n    }\n    // @notice blacklist oracle that misbehaves 10\n    function blacklistOracle(address _addr)\n    external\n    onlyReputation()\n    returns(bool)\n    {\n        blacklistedOracles[_addr] = true; // adds blacklisted oracle address to map\n        return blacklistedOracles[_addr]; // returns true\n    }\n\n\n\n\n    // *** Setters ***\n    function setAggregatorContract(\n        address _aggAddr)\n    public\n    onlyOwner() // only owner can set aggregator contract\n    returns(bool)\n    {\n        aggregatorAddr = _aggAddr;\n        return true;\n    }\n\n    function setReputationContract(address _repAddr)\n    public\n    onlyOwner()\n    returns(bool)\n    {\n        reputationAddr = _repAddr;\n        return true;\n    }\n\n    // *** Getters ***\n    function getOracleForRequest(\n        uint256 _requestID,\n        address _orcAddr)\n    external\n    view\n    onlyAggregator()\n    returns(bool)\n    {\n        return requests[_requestID].oraclesForRequest[_orcAddr];\n    }\n\n    function getNumberOfOracles(\n        uint256 _requestID)\n    external\n    view\n    onlyAggregator()\n    returns(uint32)\n    {\n        return requests[_requestID].numberOfOracles;\n    }\n\n    function getDataType(\n        uint256 _requestID)\n    external\n    view\n    onlyAggregator()\n    returns(bytes memory)\n    {\n        return requests[_requestID].dataType;\n    }\n    // @notice returns bool whether or not _addr is blacklisted\n    function getBlacklistedOracle(address _addr)\n    external\n    view\n    returns(bool)\n    {\n        return blacklistedOracles[_addr];\n    }\n    // @notice\n    function getAggregationType(uint256 _requestID)\n    external\n    view\n    onlyAggregator()\n    returns(uint256)\n    {\n        return requests[_requestID].aggregationType;\n    }\n    // ***Modifiers***\n    // @notice only owner of contract\n    modifier onlyOwner()\n    {\n        require(msg.sender == owner);\n        _;\n    }\n    // @notice only owner of aggregator contract\n    modifier onlyAggregator()\n    {\n        require(msg.sender == aggregatorAddr);\n        _;\n    }\n    // @notice only owner of reputation contract\n    modifier onlyReputation()\n    {\n        require(msg.sender == reputationAddr);\n        _;\n    }\n    // @notice modifier to confirm calling address is an oracle node address already acknowledged\n    modifier oracleHasJoined()\n    {\n        require(oracles[msg.sender] == true);\n        _;\n    }\n    // @notice modifier to confirm calling address is not yet an oracle node address acknowledged\n    modifier oracleNotJoined()\n    {\n        require(oracles[msg.sender] != true);\n        _;\n    }\n    // @notice requires request cancelFlag == 0\n    modifier cancelFlagZero(\n        uint256 _requestID)\n    {\n        require(requests[_requestID].cancelFlag == 0);\n        _;\n    }\n    // @notice requires stakeBalance to equal exactly 1 ETH\n    modifier stakeCheck()\n    {\n        require(stakeBalance[msg.sender] > 0);\n        _;\n    }\n    // @notice requires the value sent to be >= MIN_FEE set\n    modifier valueGTMinFeeCheck()\n    {\n        // require msg.value has enough to pay oracles for each function call\n        require(msg.value >= MIN_FEE);\n        _;\n    }\n    // @notice requires an odd number of oracles so voting/aggregation doesnt become deadlocked\n    modifier oddNumOracles(\n        uint32 _numberOfOracles)\n    {\n        // makes sure the number that there is always an odd number of oracles so a majority can be reached.\n        require(!(_numberOfOracles % 2 == 0));\n        _;\n    }\n    // @notice requires a new oracle to send 1 eth to be held by contract until it leaves the network\n    modifier valueEqual1Eth()\n    {\n        require(msg.value == 1 ether); // must send 1 eth that is to be held by contract\n        _;\n    }\n    // @notice requires counter to be less than number required\n    modifier orcCountLessThanNum(\n        uint256 _requestID)\n    {\n        // makes sure oracle counter is less than number of oracles required so response can be submitted\n        require(requests[_requestID].oracleCounter < requests[_requestID].numberOfOracles);\n        _;\n    }\n    // @notice requires that only the request can call the function\n    modifier onlyRequester(\n        uint256 _requestID)\n    {\n        require(msg.sender == requests[_requestID].requester);\n        _;\n    }\n\n    modifier isNotBlacklisted() {\n        require(!blacklistedOracles[msg.sender] == true);\n        _;\n    }\n    modifier aggregationTypeCheck(uint256 _aggregationType) {\n        require(1 == _aggregationType || _aggregationType == 2 );\n        _;\n    }\n\n}\n",
  "sourcePath": "/home/willp/Documents/MSc_Computer_Science/PROJECT/Research_Code/july22_projectcode/IoToracle/contracts/OracleRequestContract.sol",
  "compiler": {
    "name": "solc",
    "version": "0.8.15+commit.e14f2714.Emscripten.clang"
  },
  "schemaVersion": "3.4.8",
  "updatedAt": "2022-08-12T14:31:55.821Z",
  "networkType": "ethereum",
  "devdoc": {
    "kind": "dev",
    "methods": {},
    "version": 1
  },
  "userdoc": {
    "kind": "user",
    "methods": {},
    "version": 1
  }
}