{
  "contractName": "OracleRequestContract",
  "abi": [
    {
      "inputs": [],
      "stateMutability": "nonpayable",
      "type": "constructor"
    },
    {
      "anonymous": false,
      "inputs": [
        {
          "indexed": false,
          "internalType": "address",
          "name": "",
          "type": "address"
        }
      ],
      "name": "BidPlaced",
      "type": "event"
    },
    {
      "anonymous": false,
      "inputs": [
        {
          "indexed": false,
          "internalType": "uint256",
          "name": "",
          "type": "uint256"
        },
        {
          "indexed": false,
          "internalType": "bytes",
          "name": "",
          "type": "bytes"
        }
      ],
      "name": "OpenForBids",
      "type": "event"
    },
    {
      "anonymous": false,
      "inputs": [
        {
          "indexed": false,
          "internalType": "address",
          "name": "",
          "type": "address"
        },
        {
          "indexed": false,
          "internalType": "string",
          "name": "",
          "type": "string"
        }
      ],
      "name": "OracleJoined",
      "type": "event"
    },
    {
      "anonymous": false,
      "inputs": [
        {
          "indexed": false,
          "internalType": "address",
          "name": "",
          "type": "address"
        },
        {
          "indexed": false,
          "internalType": "string",
          "name": "",
          "type": "string"
        }
      ],
      "name": "OracleLeft",
      "type": "event"
    },
    {
      "anonymous": false,
      "inputs": [
        {
          "indexed": false,
          "internalType": "address",
          "name": "",
          "type": "address"
        },
        {
          "indexed": false,
          "internalType": "uint256",
          "name": "",
          "type": "uint256"
        },
        {
          "indexed": false,
          "internalType": "string",
          "name": "",
          "type": "string"
        }
      ],
      "name": "OraclePaid",
      "type": "event"
    },
    {
      "anonymous": false,
      "inputs": [
        {
          "indexed": false,
          "internalType": "uint256",
          "name": "",
          "type": "uint256"
        },
        {
          "indexed": false,
          "internalType": "bytes",
          "name": "",
          "type": "bytes"
        },
        {
          "indexed": false,
          "internalType": "bytes",
          "name": "",
          "type": "bytes"
        }
      ],
      "name": "ReleaseRequestDetails",
      "type": "event"
    },
    {
      "anonymous": false,
      "inputs": [
        {
          "indexed": false,
          "internalType": "enum OracleRequestContract.Status",
          "name": "",
          "type": "uint8"
        },
        {
          "indexed": false,
          "internalType": "string",
          "name": "",
          "type": "string"
        }
      ],
      "name": "StatusChange",
      "type": "event"
    },
    {
      "stateMutability": "nonpayable",
      "type": "fallback"
    },
    {
      "inputs": [],
      "name": "aggregatorAddr",
      "outputs": [
        {
          "internalType": "address",
          "name": "",
          "type": "address"
        }
      ],
      "stateMutability": "view",
      "type": "function"
    },
    {
      "inputs": [
        {
          "internalType": "address",
          "name": "",
          "type": "address"
        }
      ],
      "name": "blacklistedOracles",
      "outputs": [
        {
          "internalType": "bool",
          "name": "",
          "type": "bool"
        }
      ],
      "stateMutability": "view",
      "type": "function"
    },
    {
      "inputs": [
        {
          "internalType": "uint256",
          "name": "",
          "type": "uint256"
        }
      ],
      "name": "completedRequests",
      "outputs": [
        {
          "internalType": "bool",
          "name": "",
          "type": "bool"
        }
      ],
      "stateMutability": "view",
      "type": "function"
    },
    {
      "inputs": [
        {
          "internalType": "address",
          "name": "",
          "type": "address"
        }
      ],
      "name": "oracles",
      "outputs": [
        {
          "internalType": "bool",
          "name": "",
          "type": "bool"
        }
      ],
      "stateMutability": "view",
      "type": "function"
    },
    {
      "inputs": [],
      "name": "owner",
      "outputs": [
        {
          "internalType": "address",
          "name": "",
          "type": "address"
        }
      ],
      "stateMutability": "view",
      "type": "function"
    },
    {
      "inputs": [],
      "name": "reputationAddr",
      "outputs": [
        {
          "internalType": "address",
          "name": "",
          "type": "address"
        }
      ],
      "stateMutability": "view",
      "type": "function"
    },
    {
      "inputs": [
        {
          "internalType": "uint256",
          "name": "",
          "type": "uint256"
        }
      ],
      "name": "requests",
      "outputs": [
        {
          "internalType": "uint256",
          "name": "requestID",
          "type": "uint256"
        },
        {
          "internalType": "address",
          "name": "requester",
          "type": "address"
        },
        {
          "internalType": "address",
          "name": "callbackAddress",
          "type": "address"
        },
        {
          "internalType": "bytes",
          "name": "callbackFID",
          "type": "bytes"
        },
        {
          "internalType": "bytes",
          "name": "IoTID",
          "type": "bytes"
        },
        {
          "internalType": "bytes",
          "name": "dataType",
          "type": "bytes"
        },
        {
          "internalType": "bytes32",
          "name": "pHash",
          "type": "bytes32"
        },
        {
          "internalType": "uint32",
          "name": "numberOfOracles",
          "type": "uint32"
        },
        {
          "internalType": "uint32",
          "name": "oracleCounter",
          "type": "uint32"
        },
        {
          "internalType": "enum OracleRequestContract.Status",
          "name": "status",
          "type": "uint8"
        },
        {
          "internalType": "uint8",
          "name": "cancelFlag",
          "type": "uint8"
        },
        {
          "internalType": "uint256",
          "name": "fee",
          "type": "uint256"
        }
      ],
      "stateMutability": "view",
      "type": "function"
    },
    {
      "inputs": [
        {
          "internalType": "address",
          "name": "",
          "type": "address"
        }
      ],
      "name": "stakeBalance",
      "outputs": [
        {
          "internalType": "uint256",
          "name": "",
          "type": "uint256"
        }
      ],
      "stateMutability": "view",
      "type": "function"
    },
    {
      "inputs": [],
      "name": "joinAsOracle",
      "outputs": [
        {
          "internalType": "bool",
          "name": "",
          "type": "bool"
        }
      ],
      "stateMutability": "payable",
      "type": "function"
    },
    {
      "inputs": [],
      "name": "leaveOracleNetwork",
      "outputs": [
        {
          "internalType": "bool",
          "name": "",
          "type": "bool"
        }
      ],
      "stateMutability": "nonpayable",
      "type": "function"
    },
    {
      "inputs": [
        {
          "internalType": "address",
          "name": "_callbackAddress",
          "type": "address"
        },
        {
          "internalType": "bytes",
          "name": "_callbackFID",
          "type": "bytes"
        },
        {
          "internalType": "bytes",
          "name": "_IoTID",
          "type": "bytes"
        },
        {
          "internalType": "bytes",
          "name": "_dataType",
          "type": "bytes"
        },
        {
          "internalType": "bytes",
          "name": "_requiredResult",
          "type": "bytes"
        },
        {
          "internalType": "uint32",
          "name": "_numberOfOracles",
          "type": "uint32"
        }
      ],
      "name": "createRequest",
      "outputs": [
        {
          "internalType": "uint256",
          "name": "",
          "type": "uint256"
        }
      ],
      "stateMutability": "payable",
      "type": "function"
    },
    {
      "inputs": [
        {
          "internalType": "uint256",
          "name": "_requestID",
          "type": "uint256"
        }
      ],
      "name": "placeBid",
      "outputs": [
        {
          "internalType": "bool",
          "name": "",
          "type": "bool"
        }
      ],
      "stateMutability": "nonpayable",
      "type": "function"
    },
    {
      "inputs": [
        {
          "internalType": "uint256",
          "name": "_requestID",
          "type": "uint256"
        },
        {
          "internalType": "bytes",
          "name": "_finalResult",
          "type": "bytes"
        },
        {
          "internalType": "address[]",
          "name": "_correctOracles",
          "type": "address[]"
        }
      ],
      "name": "deliverResponse",
      "outputs": [
        {
          "internalType": "bool",
          "name": "",
          "type": "bool"
        }
      ],
      "stateMutability": "nonpayable",
      "type": "function"
    },
    {
      "inputs": [
        {
          "internalType": "uint256",
          "name": "_requestID",
          "type": "uint256"
        }
      ],
      "name": "cancelRequest",
      "outputs": [
        {
          "internalType": "bool",
          "name": "",
          "type": "bool"
        }
      ],
      "stateMutability": "nonpayable",
      "type": "function"
    },
    {
      "inputs": [
        {
          "internalType": "address",
          "name": "_addr",
          "type": "address"
        }
      ],
      "name": "blacklistOracle",
      "outputs": [
        {
          "internalType": "bool",
          "name": "",
          "type": "bool"
        }
      ],
      "stateMutability": "nonpayable",
      "type": "function"
    },
    {
      "inputs": [
        {
          "internalType": "address",
          "name": "_aggAddr",
          "type": "address"
        }
      ],
      "name": "setAggregatorContract",
      "outputs": [
        {
          "internalType": "bool",
          "name": "",
          "type": "bool"
        }
      ],
      "stateMutability": "nonpayable",
      "type": "function"
    },
    {
      "inputs": [
        {
          "internalType": "address",
          "name": "_repAddr",
          "type": "address"
        }
      ],
      "name": "setReputationContract",
      "outputs": [
        {
          "internalType": "bool",
          "name": "",
          "type": "bool"
        }
      ],
      "stateMutability": "nonpayable",
      "type": "function"
    },
    {
      "inputs": [
        {
          "internalType": "uint256",
          "name": "_requestID",
          "type": "uint256"
        },
        {
          "internalType": "address",
          "name": "_orcAddr",
          "type": "address"
        }
      ],
      "name": "getOracleForRequest",
      "outputs": [
        {
          "internalType": "bool",
          "name": "",
          "type": "bool"
        }
      ],
      "stateMutability": "view",
      "type": "function"
    },
    {
      "inputs": [
        {
          "internalType": "uint256",
          "name": "_requestID",
          "type": "uint256"
        }
      ],
      "name": "getNumberOfOracles",
      "outputs": [
        {
          "internalType": "uint32",
          "name": "",
          "type": "uint32"
        }
      ],
      "stateMutability": "view",
      "type": "function"
    },
    {
      "inputs": [
        {
          "internalType": "uint256",
          "name": "_requestID",
          "type": "uint256"
        }
      ],
      "name": "getPHash",
      "outputs": [
        {
          "internalType": "bytes32",
          "name": "",
          "type": "bytes32"
        }
      ],
      "stateMutability": "view",
      "type": "function"
    },
    {
      "inputs": [
        {
          "internalType": "uint256",
          "name": "_requestID",
          "type": "uint256"
        }
      ],
      "name": "getDataType",
      "outputs": [
        {
          "internalType": "bytes",
          "name": "",
          "type": "bytes"
        }
      ],
      "stateMutability": "view",
      "type": "function"
    },
    {
      "inputs": [
        {
          "internalType": "address",
          "name": "_addr",
          "type": "address"
        }
      ],
      "name": "getBlacklistedOracle",
      "outputs": [
        {
          "internalType": "bool",
          "name": "",
          "type": "bool"
        }
      ],
      "stateMutability": "view",
      "type": "function"
    }
  ],
  "bytecode": "0x608060405260016104b65560016104b7556404a817c8006104bc5560026104bc546200002c9190620000e3565b6104bd5560036104bc54620000429190620000e3565b6104bd5462000052919062000144565b6104be553480156200006357600080fd5b50336000806101000a81548173ffffffffffffffffffffffffffffffffffffffff021916908373ffffffffffffffffffffffffffffffffffffffff160217905550620001a1565b6000819050919050565b7f4e487b7100000000000000000000000000000000000000000000000000000000600052601160045260246000fd5b6000620000f082620000aa565b9150620000fd83620000aa565b9250817fffffffffffffffffffffffffffffffffffffffffffffffffffffffffffffffff0483118215151615620001395762000138620000b4565b5b828202905092915050565b60006200015182620000aa565b91506200015e83620000aa565b9250827fffffffffffffffffffffffffffffffffffffffffffffffffffffffffffffffff03821115620001965762000195620000b4565b5b828201905092915050565b61336b80620001b16000396000f3fe6080604052600436106101395760003560e01c806391a3632a116100ab5780639fbcc5551161006f5780639fbcc555146104c1578063a08702f3146104fe578063a37b354d14610529578063addd509914610566578063eee5a596146105a3578063f0fbfbf3146105e05761013a565b806391a3632a146103af578063950e1da9146103ec5780639584660f1461040a5780639967cf60146104475780639979ef45146104845761013a565b80637d02da09116100fd5780637d02da091461026757806381d12c58146102a457806382762600146102ec578063829c22fd146103175780638979a3c2146103545780638da5cb5b146103845761013a565b8063053ebc9a146101485780633015394c146101735780634e7c57a6146101b057806357442e79146101ed5780636fbf79731461022a5761013a565b5b34801561014657600080fd5b005b34801561015457600080fd5b5061015d61061d565b60405161016a919061225b565b60405180910390f35b34801561017f57600080fd5b5061019a600480360381019061019591906122c0565b610643565b6040516101a79190612308565b60405180910390f35b3480156101bc57600080fd5b506101d760048036038101906101d2919061234f565b610815565b6040516101e4919061238b565b60405180910390f35b3480156101f957600080fd5b50610214600480360381019061020f91906122c0565b61082e565b604051610221919061243f565b60405180910390f35b34801561023657600080fd5b50610251600480360381019061024c919061234f565b610935565b60405161025e9190612308565b60405180910390f35b34801561027357600080fd5b5061028e6004803603810190610289919061234f565b61098c565b60405161029b9190612308565b60405180910390f35b3480156102b057600080fd5b506102cb60048036038101906102c691906122c0565b6109ad565b6040516102e39c9b9a9998979695949392919061252c565b60405180910390f35b3480156102f857600080fd5b50610301610c25565b60405161030e919061225b565b60405180910390f35b34801561032357600080fd5b5061033e600480360381019061033991906122c0565b610c4b565b60405161034b91906125fb565b60405180910390f35b61036e60048036038101906103699190612777565b610cca565b60405161037b919061238b565b60405180910390f35b34801561039057600080fd5b506103996110a2565b6040516103a6919061225b565b60405180910390f35b3480156103bb57600080fd5b506103d660048036038101906103d191906122c0565b6110c6565b6040516103e39190612874565b60405180910390f35b6103f4611155565b6040516104019190612308565b60405180910390f35b34801561041657600080fd5b50610431600480360381019061042c919061234f565b6113ef565b60405161043e9190612308565b60405180910390f35b34801561045357600080fd5b5061046e6004803603810190610469919061234f565b611494565b60405161047b9190612308565b60405180910390f35b34801561049057600080fd5b506104ab60048036038101906104a691906122c0565b611539565b6040516104b89190612308565b60405180910390f35b3480156104cd57600080fd5b506104e860048036038101906104e39190612957565b611998565b6040516104f59190612308565b60405180910390f35b34801561050a57600080fd5b50610513611c8e565b6040516105209190612308565b60405180910390f35b34801561053557600080fd5b50610550600480360381019061054b91906129e2565b611ffa565b60405161055d9190612308565b60405180910390f35b34801561057257600080fd5b5061058d6004803603810190610588919061234f565b6120c4565b60405161059a9190612308565b60405180910390f35b3480156105af57600080fd5b506105ca60048036038101906105c5919061234f565b6120e5565b6040516105d79190612308565b60405180910390f35b3480156105ec57600080fd5b50610607600480360381019061060291906122c0565b6121ef565b6040516106149190612308565b60405180910390f35b600260009054906101000a900473ffffffffffffffffffffffffffffffffffffffff1681565b6000816003816064811061065a57610659612a22565b5b600c020160010160009054906101000a900473ffffffffffffffffffffffffffffffffffffffff1673ffffffffffffffffffffffffffffffffffffffff163373ffffffffffffffffffffffffffffffffffffffff16146106b957600080fd5b826000600382606481106106d0576106cf612a22565b5b600c0201600a0160059054906101000a900460ff1660ff16146106f257600080fd5b60016003856064811061070857610707612a22565b5b600c0201600a0160056101000a81548160ff021916908360ff16021790555060026003856064811061073d5761073c612a22565b5b600c0201600a0160046101000a81548160ff0219169083600281111561076657610765612499565b5b0217905550600160009054906101000a900473ffffffffffffffffffffffffffffffffffffffff1673ffffffffffffffffffffffffffffffffffffffff16633015394c856040518263ffffffff1660e01b81526004016107c6919061238b565b6020604051808303816000875af11580156107e5573d6000803e3d6000fd5b505050506040513d601f19601f820116820180604052508101906108099190612a7d565b50600192505050919050565b6104b56020528060005260406000206000915090505481565b6060600160009054906101000a900473ffffffffffffffffffffffffffffffffffffffff1673ffffffffffffffffffffffffffffffffffffffff163373ffffffffffffffffffffffffffffffffffffffff161461088a57600080fd5b6003826064811061089e5761089d612a22565b5b600c020160050180546108b090612ad9565b80601f01602080910402602001604051908101604052809291908181526020018280546108dc90612ad9565b80156109295780601f106108fe57610100808354040283529160200191610929565b820191906000526020600020905b81548152906001019060200180831161090c57829003601f168201915b50505050509050919050565b60006104b460008373ffffffffffffffffffffffffffffffffffffffff1673ffffffffffffffffffffffffffffffffffffffff16815260200190815260200160002060009054906101000a900460ff169050919050565b6104b46020528060005260406000206000915054906101000a900460ff1681565b600381606481106109bd57600080fd5b600c02016000915090508060000154908060010160009054906101000a900473ffffffffffffffffffffffffffffffffffffffff16908060020160009054906101000a900473ffffffffffffffffffffffffffffffffffffffff1690806003018054610a2890612ad9565b80601f0160208091040260200160405190810160405280929190818152602001828054610a5490612ad9565b8015610aa15780601f10610a7657610100808354040283529160200191610aa1565b820191906000526020600020905b815481529060010190602001808311610a8457829003601f168201915b505050505090806004018054610ab690612ad9565b80601f0160208091040260200160405190810160405280929190818152602001828054610ae290612ad9565b8015610b2f5780601f10610b0457610100808354040283529160200191610b2f565b820191906000526020600020905b815481529060010190602001808311610b1257829003601f168201915b505050505090806005018054610b4490612ad9565b80601f0160208091040260200160405190810160405280929190818152602001828054610b7090612ad9565b8015610bbd5780601f10610b9257610100808354040283529160200191610bbd565b820191906000526020600020905b815481529060010190602001808311610ba057829003601f168201915b5050505050908060060154908060070160009054906101000a900463ffffffff169080600a0160009054906101000a900463ffffffff169080600a0160049054906101000a900460ff169080600a0160059054906101000a900460ff169080600b015490508c565b600160009054906101000a900473ffffffffffffffffffffffffffffffffffffffff1681565b6000600160009054906101000a900473ffffffffffffffffffffffffffffffffffffffff1673ffffffffffffffffffffffffffffffffffffffff163373ffffffffffffffffffffffffffffffffffffffff1614610ca757600080fd5b60038260648110610cbb57610cba612a22565b5b600c0201600601549050919050565b60006104be54341015610cdc57600080fd5b816000600282610cec9190612b39565b63ffffffff1603610cfc57600080fd5b60006104b65490508060038260648110610d1957610d18612a22565b5b600c0201600001819055503360038260648110610d3957610d38612a22565b5b600c020160010160006101000a81548173ffffffffffffffffffffffffffffffffffffffff021916908373ffffffffffffffffffffffffffffffffffffffff1602179055508860038260648110610d9357610d92612a22565b5b600c020160020160006101000a81548173ffffffffffffffffffffffffffffffffffffffff021916908373ffffffffffffffffffffffffffffffffffffffff1602179055508760038260648110610ded57610dec612a22565b5b600c02016003019081610e009190612d16565b508660038260648110610e1657610e15612a22565b5b600c02016004019081610e299190612d16565b508560038260648110610e3f57610e3e612a22565b5b600c02016005019081610e529190612d16565b508360038260648110610e6857610e67612a22565b5b600c020160070160006101000a81548163ffffffff021916908363ffffffff160217905550600060038260648110610ea357610ea2612a22565b5b600c0201600a0160006101000a81548163ffffffff021916908363ffffffff160217905550600060038260648110610ede57610edd612a22565b5b600c0201600a0160046101000a81548160ff02191690836002811115610f0757610f06612499565b5b0217905550600060038260648110610f2257610f21612a22565b5b600c0201600a0160056101000a81548160ff021916908360ff1602179055503460038260648110610f5657610f55612a22565b5b600c0201600b01819055507f346e0fa9e112a7376778dcb0fe0fdfe51db577b3d0b1592a40266db0b192f82260038260648110610f9657610f95612a22565b5b600c0201600a0160049054906101000a900460ff16604051610fb89190612e45565b60405180910390a160008686604051602001610fd5929190612eaf565b604051602081830303815290604052805190602001209050806003836064811061100257611001612a22565b5b600c0201600601819055506104b6600081548092919061102190612f02565b91905055506104b7600081548092919061103a90612f02565b91905055507f9fa3818a0bcd92e6bdf76b585ed9feea4ad7d3467dc3770c2af818d43f9581a5826003846064811061107557611074612a22565b5b600c020160050160405161108a929190612fce565b60405180910390a18193505050509695505050505050565b60008054906101000a900473ffffffffffffffffffffffffffffffffffffffff1681565b6000600160009054906101000a900473ffffffffffffffffffffffffffffffffffffffff1673ffffffffffffffffffffffffffffffffffffffff163373ffffffffffffffffffffffffffffffffffffffff161461112257600080fd5b6003826064811061113657611135612a22565b5b600c020160070160009054906101000a900463ffffffff169050919050565b6000600115156104b360003373ffffffffffffffffffffffffffffffffffffffff1673ffffffffffffffffffffffffffffffffffffffff16815260200190815260200160002060009054906101000a900460ff161515036111b557600080fd5b670de0b6b3a764000034146111c957600080fd5b600115156104b460003373ffffffffffffffffffffffffffffffffffffffff1673ffffffffffffffffffffffffffffffffffffffff16815260200190815260200160002060009054906101000a900460ff161515151461122857600080fd5b600260009054906101000a900473ffffffffffffffffffffffffffffffffffffffff1673ffffffffffffffffffffffffffffffffffffffff1663df5dd1a5336040518263ffffffff1660e01b8152600401611283919061225b565b6020604051808303816000875af11580156112a2573d6000803e3d6000fd5b505050506040513d601f19601f820116820180604052508101906112c69190612a7d565b5060016104b360003373ffffffffffffffffffffffffffffffffffffffff1673ffffffffffffffffffffffffffffffffffffffff16815260200190815260200160002060006101000a81548160ff021916908315150217905550346104b560003373ffffffffffffffffffffffffffffffffffffffff1673ffffffffffffffffffffffffffffffffffffffff168152602001908152602001600020819055507f2d62108771d82d92634e2d038b6c7f09290edfee5b1443e25299f04a0cfbca7233604051611394919061304a565b60405180910390a16104b360003373ffffffffffffffffffffffffffffffffffffffff1673ffffffffffffffffffffffffffffffffffffffff16815260200190815260200160002060009054906101000a900460ff16905090565b60008060009054906101000a900473ffffffffffffffffffffffffffffffffffffffff1673ffffffffffffffffffffffffffffffffffffffff163373ffffffffffffffffffffffffffffffffffffffff161461144a57600080fd5b81600260006101000a81548173ffffffffffffffffffffffffffffffffffffffff021916908373ffffffffffffffffffffffffffffffffffffffff16021790555060019050919050565b60008060009054906101000a900473ffffffffffffffffffffffffffffffffffffffff1673ffffffffffffffffffffffffffffffffffffffff163373ffffffffffffffffffffffffffffffffffffffff16146114ef57600080fd5b81600160006101000a81548173ffffffffffffffffffffffffffffffffffffffff021916908373ffffffffffffffffffffffffffffffffffffffff16021790555060019050919050565b6000600115156104b360003373ffffffffffffffffffffffffffffffffffffffff1673ffffffffffffffffffffffffffffffffffffffff16815260200190815260200160002060009054906101000a900460ff1615151461159957600080fd5b816000600382606481106115b0576115af612a22565b5b600c0201600a0160059054906101000a900460ff1660ff16146115d257600080fd5b82600381606481106115e7576115e6612a22565b5b600c020160070160009054906101000a900463ffffffff1663ffffffff166003826064811061161957611618612a22565b5b600c0201600a0160009054906101000a900463ffffffff1663ffffffff161061164157600080fd5b600115156104b460003373ffffffffffffffffffffffffffffffffffffffff1673ffffffffffffffffffffffffffffffffffffffff16815260200190815260200160002060009054906101000a900460ff16151515146116a057600080fd5b6001600385606481106116b6576116b5612a22565b5b600c020160080160003373ffffffffffffffffffffffffffffffffffffffff1673ffffffffffffffffffffffffffffffffffffffff16815260200190815260200160002060006101000a81548160ff021916908315150217905550336003856064811061172657611725612a22565b5b600c020160090160006003876064811061174357611742612a22565b5b600c0201600a0160009054906101000a900463ffffffff1663ffffffff1663ffffffff16815260200190815260200160002060006101000a81548173ffffffffffffffffffffffffffffffffffffffff021916908373ffffffffffffffffffffffffffffffffffffffff160217905550600384606481106117c7576117c6612a22565b5b600c0201600a01600081819054906101000a900463ffffffff16809291906117ee90613078565b91906101000a81548163ffffffff021916908363ffffffff160217905550507fe677a6b9a16a696674f50d2c98a1ce8c5cb51d6b48a0223412c512bbc93664d53360405161183c919061225b565b60405180910390a16003846064811061185857611857612a22565b5b600c0201600a0160009054906101000a900463ffffffff1663ffffffff166003856064811061188a57611889612a22565b5b600c020160070160009054906101000a900463ffffffff1663ffffffff1603611940577f2510e6950be86d6001a0b1229da4c21fa8e26b6bcf345d0b348fe42894fceb03600385606481106118e2576118e1612a22565b5b600c020160000154600386606481106118fe576118fd612a22565b5b600c02016004016003876064811061191957611918612a22565b5b600c020160050160405161192f939291906130a4565b60405180910390a160019250611991565b6104b360003373ffffffffffffffffffffffffffffffffffffffff1673ffffffffffffffffffffffffffffffffffffffff16815260200190815260200160002060009054906101000a900460ff1692505b5050919050565b6000836000600382606481106119b1576119b0612a22565b5b600c0201600a0160059054906101000a900460ff1660ff16146119d357600080fd5b600160009054906101000a900473ffffffffffffffffffffffffffffffffffffffff1673ffffffffffffffffffffffffffffffffffffffff163373ffffffffffffffffffffffffffffffffffffffff1614611a2d57600080fd5b600060038660648110611a4357611a42612a22565b5b600c020160070160009054906101000a900463ffffffff1663ffffffff1660038760648110611a7557611a74612a22565b5b600c0201600b0154611a8791906130e9565b905060005b8451811015611b8e577f88fa4dc6dc84fb056628ddf02c361252f313bcdd951c9d28e3b628bffac8ab55858281518110611ac957611ac8612a22565b5b602002602001015183604051611ae0929190613166565b60405180910390a1848181518110611afb57611afa612a22565b5b602002602001015173ffffffffffffffffffffffffffffffffffffffff166108fc839081150290604051600060405180830381858888f19350505050158015611b48573d6000803e3d6000fd5b508160038860648110611b5e57611b5d612a22565b5b600c0201600b016000828254611b7491906131a2565b925050819055508080611b8690612f02565b915050611a8c565b50600160038760648110611ba557611ba4612a22565b5b600c0201600a0160046101000a81548160ff02191690836002811115611bce57611bcd612499565b5b021790555060016104b88760648110611bea57611be9612a22565b5b602091828204019190066101000a81548160ff0219169083151502179055507f346e0fa9e112a7376778dcb0fe0fdfe51db577b3d0b1592a40266db0b192f82260038760648110611c3e57611c3d612a22565b5b600c0201600a0160049054906101000a900460ff16604051611c609190613222565b60405180910390a16104b76000815480929190611c7c90613250565b91905055506001925050509392505050565b6000600115156104b360003373ffffffffffffffffffffffffffffffffffffffff1673ffffffffffffffffffffffffffffffffffffffff16815260200190815260200160002060009054906101000a900460ff16151514611cee57600080fd5b670de0b6b3a76400006104b560003373ffffffffffffffffffffffffffffffffffffffff1673ffffffffffffffffffffffffffffffffffffffff1681526020019081526020016000205414611d4257600080fd5b600115156104b460003373ffffffffffffffffffffffffffffffffffffffff1673ffffffffffffffffffffffffffffffffffffffff16815260200190815260200160002060009054906101000a900460ff1615151514611da157600080fd5b6001600260009054906101000a900473ffffffffffffffffffffffffffffffffffffffff1673ffffffffffffffffffffffffffffffffffffffff16630855078b336040518263ffffffff1660e01b8152600401611dfe919061225b565b602060405180830381865afa158015611e1b573d6000803e3d6000fd5b505050506040513d601f19601f82011682018060405250810190611e3f919061328e565b1115611e9f5760016104b460003373ffffffffffffffffffffffffffffffffffffffff1673ffffffffffffffffffffffffffffffffffffffff16815260200190815260200160002060006101000a81548160ff0219169083151502179055505b6104b360003373ffffffffffffffffffffffffffffffffffffffff1673ffffffffffffffffffffffffffffffffffffffff16815260200190815260200160002060006101000a81549060ff02191690553373ffffffffffffffffffffffffffffffffffffffff166108fc6104b560003373ffffffffffffffffffffffffffffffffffffffff1673ffffffffffffffffffffffffffffffffffffffff168152602001908152602001600020549081150290604051600060405180830381858888f19350505050158015611f75573d6000803e3d6000fd5b5060006104b560003373ffffffffffffffffffffffffffffffffffffffff1673ffffffffffffffffffffffffffffffffffffffff168152602001908152602001600020819055507f14951d787e2aaf7813982720871de23d576e7d935c0587e12a7fc2c4c960165a33604051611feb9190613307565b60405180910390a16001905090565b6000600160009054906101000a900473ffffffffffffffffffffffffffffffffffffffff1673ffffffffffffffffffffffffffffffffffffffff163373ffffffffffffffffffffffffffffffffffffffff161461205657600080fd5b6003836064811061206a57612069612a22565b5b600c020160080160008373ffffffffffffffffffffffffffffffffffffffff1673ffffffffffffffffffffffffffffffffffffffff16815260200190815260200160002060009054906101000a900460ff16905092915050565b6104b36020528060005260406000206000915054906101000a900460ff1681565b6000600260009054906101000a900473ffffffffffffffffffffffffffffffffffffffff1673ffffffffffffffffffffffffffffffffffffffff163373ffffffffffffffffffffffffffffffffffffffff161461214157600080fd5b60016104b460008473ffffffffffffffffffffffffffffffffffffffff1673ffffffffffffffffffffffffffffffffffffffff16815260200190815260200160002060006101000a81548160ff0219169083151502179055506104b460008373ffffffffffffffffffffffffffffffffffffffff1673ffffffffffffffffffffffffffffffffffffffff16815260200190815260200160002060009054906101000a900460ff169050919050565b6104b8816064811061220057600080fd5b60209182820401919006915054906101000a900460ff1681565b600073ffffffffffffffffffffffffffffffffffffffff82169050919050565b60006122458261221a565b9050919050565b6122558161223a565b82525050565b6000602082019050612270600083018461224c565b92915050565b6000604051905090565b600080fd5b600080fd5b6000819050919050565b61229d8161228a565b81146122a857600080fd5b50565b6000813590506122ba81612294565b92915050565b6000602082840312156122d6576122d5612280565b5b60006122e4848285016122ab565b91505092915050565b60008115159050919050565b612302816122ed565b82525050565b600060208201905061231d60008301846122f9565b92915050565b61232c8161223a565b811461233757600080fd5b50565b60008135905061234981612323565b92915050565b60006020828403121561236557612364612280565b5b60006123738482850161233a565b91505092915050565b6123858161228a565b82525050565b60006020820190506123a0600083018461237c565b92915050565b600081519050919050565b600082825260208201905092915050565b60005b838110156123e05780820151818401526020810190506123c5565b838111156123ef576000848401525b50505050565b6000601f19601f8301169050919050565b6000612411826123a6565b61241b81856123b1565b935061242b8185602086016123c2565b612434816123f5565b840191505092915050565b600060208201905081810360008301526124598184612406565b905092915050565b6000819050919050565b61247481612461565b82525050565b600063ffffffff82169050919050565b6124938161247a565b82525050565b7f4e487b7100000000000000000000000000000000000000000000000000000000600052602160045260246000fd5b600381106124d9576124d8612499565b5b50565b60008190506124ea826124c8565b919050565b60006124fa826124dc565b9050919050565b61250a816124ef565b82525050565b600060ff82169050919050565b61252681612510565b82525050565b600061018082019050612542600083018f61237c565b61254f602083018e61224c565b61255c604083018d61224c565b818103606083015261256e818c612406565b90508181036080830152612582818b612406565b905081810360a0830152612596818a612406565b90506125a560c083018961246b565b6125b260e083018861248a565b6125c061010083018761248a565b6125ce610120830186612501565b6125dc61014083018561251d565b6125ea61016083018461237c565b9d9c50505050505050505050505050565b6000602082019050612610600083018461246b565b92915050565b600080fd5b600080fd5b7f4e487b7100000000000000000000000000000000000000000000000000000000600052604160045260246000fd5b612658826123f5565b810181811067ffffffffffffffff8211171561267757612676612620565b5b80604052505050565b600061268a612276565b9050612696828261264f565b919050565b600067ffffffffffffffff8211156126b6576126b5612620565b5b6126bf826123f5565b9050602081019050919050565b82818337600083830152505050565b60006126ee6126e98461269b565b612680565b90508281526020810184848401111561270a5761270961261b565b5b6127158482856126cc565b509392505050565b600082601f83011261273257612731612616565b5b81356127428482602086016126db565b91505092915050565b6127548161247a565b811461275f57600080fd5b50565b6000813590506127718161274b565b92915050565b60008060008060008060c0878903121561279457612793612280565b5b60006127a289828a0161233a565b965050602087013567ffffffffffffffff8111156127c3576127c2612285565b5b6127cf89828a0161271d565b955050604087013567ffffffffffffffff8111156127f0576127ef612285565b5b6127fc89828a0161271d565b945050606087013567ffffffffffffffff81111561281d5761281c612285565b5b61282989828a0161271d565b935050608087013567ffffffffffffffff81111561284a57612849612285565b5b61285689828a0161271d565b92505060a061286789828a01612762565b9150509295509295509295565b6000602082019050612889600083018461248a565b92915050565b600067ffffffffffffffff8211156128aa576128a9612620565b5b602082029050602081019050919050565b600080fd5b60006128d36128ce8461288f565b612680565b905080838252602082019050602084028301858111156128f6576128f56128bb565b5b835b8181101561291f578061290b888261233a565b8452602084019350506020810190506128f8565b5050509392505050565b600082601f83011261293e5761293d612616565b5b813561294e8482602086016128c0565b91505092915050565b6000806000606084860312156129705761296f612280565b5b600061297e868287016122ab565b935050602084013567ffffffffffffffff81111561299f5761299e612285565b5b6129ab8682870161271d565b925050604084013567ffffffffffffffff8111156129cc576129cb612285565b5b6129d886828701612929565b9150509250925092565b600080604083850312156129f9576129f8612280565b5b6000612a07858286016122ab565b9250506020612a188582860161233a565b9150509250929050565b7f4e487b7100000000000000000000000000000000000000000000000000000000600052603260045260246000fd5b612a5a816122ed565b8114612a6557600080fd5b50565b600081519050612a7781612a51565b92915050565b600060208284031215612a9357612a92612280565b5b6000612aa184828501612a68565b91505092915050565b7f4e487b7100000000000000000000000000000000000000000000000000000000600052602260045260246000fd5b60006002820490506001821680612af157607f821691505b602082108103612b0457612b03612aaa565b5b50919050565b7f4e487b7100000000000000000000000000000000000000000000000000000000600052601260045260246000fd5b6000612b448261247a565b9150612b4f8361247a565b925082612b5f57612b5e612b0a565b5b828206905092915050565b60008190508160005260206000209050919050565b60006020601f8301049050919050565b600082821b905092915050565b600060088302612bcc7fffffffffffffffffffffffffffffffffffffffffffffffffffffffffffffffff82612b8f565b612bd68683612b8f565b95508019841693508086168417925050509392505050565b6000819050919050565b6000612c13612c0e612c098461228a565b612bee565b61228a565b9050919050565b6000819050919050565b612c2d83612bf8565b612c41612c3982612c1a565b848454612b9c565b825550505050565b600090565b612c56612c49565b612c61818484612c24565b505050565b5b81811015612c8557612c7a600082612c4e565b600181019050612c67565b5050565b601f821115612cca57612c9b81612b6a565b612ca484612b7f565b81016020851015612cb3578190505b612cc7612cbf85612b7f565b830182612c66565b50505b505050565b600082821c905092915050565b6000612ced60001984600802612ccf565b1980831691505092915050565b6000612d068383612cdc565b9150826002028217905092915050565b612d1f826123a6565b67ffffffffffffffff811115612d3857612d37612620565b5b612d428254612ad9565b612d4d828285612c89565b600060209050601f831160018114612d805760008415612d6e578287015190505b612d788582612cfa565b865550612de0565b601f198416612d8e86612b6a565b60005b82811015612db657848901518255600182019150602085019450602081019050612d91565b86831015612dd35784890151612dcf601f891682612cdc565b8355505b6001600288020188555050505b505050505050565b600082825260208201905092915050565b7f50454e44494e4700000000000000000000000000000000000000000000000000600082015250565b6000612e2f600783612de8565b9150612e3a82612df9565b602082019050919050565b6000604082019050612e5a6000830184612501565b8181036020830152612e6b81612e22565b905092915050565b600081905092915050565b6000612e89826123a6565b612e938185612e73565b9350612ea38185602086016123c2565b80840191505092915050565b6000612ebb8285612e7e565b9150612ec78284612e7e565b91508190509392505050565b7f4e487b7100000000000000000000000000000000000000000000000000000000600052601160045260246000fd5b6000612f0d8261228a565b91507fffffffffffffffffffffffffffffffffffffffffffffffffffffffffffffffff8203612f3f57612f3e612ed3565b5b600182019050919050565b60008154612f5781612ad9565b612f6181866123b1565b94506001821660008114612f7c5760018114612f9257612fc5565b60ff198316865281151560200286019350612fc5565b612f9b85612b6a565b60005b83811015612fbd57815481890152600182019150602081019050612f9e565b808801955050505b50505092915050565b6000604082019050612fe3600083018561237c565b8181036020830152612ff58184612f4a565b90509392505050565b7f57656c636f6d65206e6577206e6f646521000000000000000000000000000000600082015250565b6000613034601183612de8565b915061303f82612ffe565b602082019050919050565b600060408201905061305f600083018461224c565b818103602083015261307081613027565b905092915050565b60006130838261247a565b915063ffffffff820361309957613098612ed3565b5b600182019050919050565b60006060820190506130b9600083018661237c565b81810360208301526130cb8185612f4a565b905081810360408301526130df8184612f4a565b9050949350505050565b60006130f48261228a565b91506130ff8361228a565b92508261310f5761310e612b0a565b5b828204905092915050565b7f4f7261636c6520686173206265656e2050616964210000000000000000000000600082015250565b6000613150601583612de8565b915061315b8261311a565b602082019050919050565b600060608201905061317b600083018561224c565b613188602083018461237c565b818103604083015261319981613143565b90509392505050565b60006131ad8261228a565b91506131b88361228a565b9250828210156131cb576131ca612ed3565b5b828203905092915050565b7f434f4d504c455445000000000000000000000000000000000000000000000000600082015250565b600061320c600883612de8565b9150613217826131d6565b602082019050919050565b60006040820190506132376000830184612501565b8181036020830152613248816131ff565b905092915050565b600061325b8261228a565b91506000820361326e5761326d612ed3565b5b600182039050919050565b60008151905061328881612294565b92915050565b6000602082840312156132a4576132a3612280565b5b60006132b284828501613279565b91505092915050565b7f4e6f646520686173206c6566742c20476f6f6462796500000000000000000000600082015250565b60006132f1601683612de8565b91506132fc826132bb565b602082019050919050565b600060408201905061331c600083018461224c565b818103602083015261332d816132e4565b90509291505056fea2646970667358221220d47b6041b6a35885a27bbaefad0dcaea37aff0c9c9c053b7058c995d6dcf32e964736f6c634300080f0033",
  "immutableReferences": {},
  "source": "// SPDX-License-Identifier: MIT\npragma solidity ^0.8.0;\n\nimport \"./AggregatorContract.sol\";\nimport \"./ReputationContract.sol\";\n\ncontract OracleRequestContract {\n    //address that deploys contract\n    address public owner;\n    // address of aggregator contract\n    address public aggregatorAddr;\n    // address of reputation contract\n    address public reputationAddr;\n    // Array to populate with requests that come in\n    Request[100] public requests;\n    // all mappings of oracles that have joined network\n    mapping (address => bool) public oracles;\n    // mapping of blacklisted oracles (who's ratings exceed 10)\n    mapping (address => bool) public blacklistedOracles;\n    // stakeBalance of each node, should be equal to 1 eth\n    mapping (address => uint) public stakeBalance;\n    // request and and pending counters, pending decreased when status changed to COMPLETE\n    uint requestCounter = 1;\n    uint pendingCounter = 1;\n    // Status logs for each request\n    enum Status{PENDING, COMPLETE, CANCELLED}\n    // a single Request structure\n    struct Request {\n        uint256 requestID; //Id for each request\n        address requester; // address which made the request\n        address callbackAddress; // an address in which the response can be delivered to\n        bytes callbackFID; // a function in the callback address that can be called\n        bytes IoTID; // the ID of the IoT the user-SC wishes to gather data from\n        bytes dataType; // data type, JSON that is decoded by the oracle node that will collect the data\n        bytes32 pHash; // a hash of the data type and the actual result required.\n        //bytes requiredResult; // left this out for security reason, we only apply it to the hash\n        uint32 numberOfOracles; // number of oracles needed to fetch the data\n        mapping (address => bool) oraclesForRequest; // must be true in order for oracle node to participate\n        mapping (uint32 => address) oracleAddressAccess; // mapping so we can iterate through addresses\n        uint32 oracleCounter; // index and counter for the number of oracles\n        Status status; // status of the request\n        uint8 cancelFlag; // cancel flag, if == 1 then do not continue with request\n        uint fee; // fee sent to cover costs and extra for fetch the data\n    }\n\n    bool[100] public completedRequests;// true for each requestID once status changes to complete.\n\n    event OpenForBids(uint256, bytes); // tells oracle nodes there is a request that needs bidding on\n    event BidPlaced(address); // tells nodes that a bid has been placed by another node\n    event ReleaseRequestDetails(uint256, bytes, bytes); // the details the node needs to gather\n    event StatusChange(Status, string); // tells nodes in network of status change of requests\n    event OracleJoined(address, string); // tells network that a new oracle has joined the network\n    event OracleLeft(address, string); // tells the network that another oracle has left\n    event OraclePaid(address, uint, string); // tells the network when an oracle has been paid for its services\n    // ***payments***\n    uint GAS_PRICE = 2 * 10**10; // cost of gas\n    uint FEE = GAS_PRICE * 2; // fee to cover other function calls and pay each oracle\n    uint MIN_FEE = FEE + (GAS_PRICE * 3); // minimum needed to cover all costs\n\n    // @notice constructor when first deployed\n    constructor() {\n        owner = msg.sender; // set the owner of the contract to the address that deploys it\n    }\n    // @notice used if eth is sent to an invalid function etc\n    fallback() external{}\n\n    // @notice function called by addresses of Off-chain Oracle nodes that want to join the network\n    // @return bool, true if successful otherwise reverts\n    function joinAsOracle()\n    public\n    payable\n    oracleNotJoined()\n    valueEqual1Eth()\n    isNotBlacklisted()\n    //oracleCannotRejoin()\n    returns(bool){\n        ReputationContract(reputationAddr).addOracle(msg.sender);\n        oracles[address(msg.sender)] = true; // set to true as is now in network\n        stakeBalance[msg.sender] = msg.value; // added value to stakeBalance as a record\n        emit OracleJoined(msg.sender, \"Welcome new node!\"); // emit event so listeners can be notified\n        return oracles[address(msg.sender)]; // return true\n    }\n    // @notice oracle node calls this function when they wish to leave network\n    // @return bool\n    function leaveOracleNetwork()\n    public\n    oracleHasJoined()\n    stakeCheck()\n    isNotBlacklisted()\n    returns(bool) {\n        if (ReputationContract(reputationAddr).getOracleRating(msg.sender) > 1 ){\n            blacklistedOracles[msg.sender] = true;\n        }\n        delete oracles[msg.sender]; // deletes address from mapping\n        payable(msg.sender).transfer(stakeBalance[msg.sender]); // transfers their stake back to them\n        stakeBalance[msg.sender] = 0; // set stakeBalance back to 0 for the oracle node\n        emit OracleLeft(msg.sender, \"Node has left, Goodbye\"); // emit event so listeners can be notified\n        return true; // return true to confirm\n    }\n\n    // @notice user can call function create request\n    // @dev\n    // @param _callbackAddress could be different to address that called the function\n    // @param _callbackFID a particular function in a smart contract that is needed to be called based on request\n    // @param _IoTID the identifier of the IoT device oracle node will be subscribing to\n    // @param _dataType, true false answer, an event, continuous data over time?\n    // @param _requiredResult what is needed from IoT device\n    // @param _numberOfOracles number of oracle nodes that fetch IoT data\n    // @return the requestID so the user can keep track of request\n    function createRequest(\n        address _callbackAddress,\n        bytes memory _callbackFID,\n        bytes memory _IoTID,\n        bytes memory _dataType,\n        bytes memory _requiredResult,\n        uint32 _numberOfOracles)\n    external\n    payable\n    valueGTMinFeeCheck() // requires the value sent is >= MIN_FEE\n    oddNumOracles(_numberOfOracles) // requires an odd number of oracles\n    returns(uint256)\n    {\n        uint256 requestID = requestCounter; // assign id to request\n        // log details of the request to array to cross reference later\n        requests[requestID].requestID = requestID;\n        requests[requestID].requester = msg.sender;\n        requests[requestID].callbackAddress = _callbackAddress;\n        requests[requestID].callbackFID = _callbackFID;\n        requests[requestID].IoTID = _IoTID;\n        requests[requestID].dataType = _dataType;\n        //requests[requestId].requiredResult = _requiredResult; // do not need to store result put in a hash?\n        requests[requestID].numberOfOracles = _numberOfOracles;\n        requests[requestID].oracleCounter = 0;\n        requests[requestID].status = Status.PENDING;\n        requests[requestID].cancelFlag = 0;\n        requests[requestID].fee = msg.value; // keeps track of the fee for the request\n        emit StatusChange(requests[requestID].status, \"PENDING\"); // tells nodes in network of status change of requests\n        // create a hash of the _dataType and _requiredResult:\n        // we will use the actual result to test upon delivery.\n        bytes32 phash = keccak256(abi.encodePacked(_dataType, _requiredResult));\n        // add required result to hash, only time it is used, we assume that the user-SC knows what answer they are looking for\n        requests[requestID].pHash = phash;\n        // increment requestId ready for next create request function.\n        requestCounter++;\n        pendingCounter++;\n        emit OpenForBids(requestID, requests[requestID].dataType);\n        return requestID;\n    }\n\n    // @notice off-chain oracle node places bid to fetch data, once threshold is reached, emits event details.\n    // @dev\n    // @param requestId oracle node wishes to bid on\n    // @return true to indicate bid successful\n    function placeBid(\n        uint256 _requestID)\n    public\n    oracleHasJoined() // requires that the oracle is in the network\n    cancelFlagZero(_requestID) // requires requests cancel flag is zero\n    orcCountLessThanNum(_requestID) // requires that the oracle counter is still les than the number of oracles needed\n    isNotBlacklisted()\n    returns(bool)\n    {\n        requests[_requestID].oraclesForRequest[msg.sender] = true; // add true for oracle in request so we know they can vote\n        requests[_requestID].oracleAddressAccess[requests[_requestID].oracleCounter] = address(msg.sender); // map addr for iteration\n        requests[_requestID].oracleCounter++; // increment the counter\n        // TODO also add a timeout, if bids take to long\n        emit BidPlaced(msg.sender); // send message to network that a bid has been placed\n        if (requests[_requestID].numberOfOracles == requests[_requestID].oracleCounter) {\n            // when the last oracle has submitted, we can emit the details\n            emit ReleaseRequestDetails(\n                requests[_requestID].requestID, // requestID\n                requests[_requestID].IoTID, // IoT info, this is most of importance\n                requests[_requestID].dataType); // DataType\n            return true; // returns true to show completion of the bidding phase that is now over\n        }\n        return oracles[msg.sender]; // returns true for each oracle that bids\n    }\n\n    // @notice called by aggregator contract to deliver final response\n    // @param _requestID, id of request\n    // @param _finalResult, final aggregated result\n    // @param _correctOracles, array of addresses of oracles to be paid for their work\n    function deliverResponse(\n        uint256 _requestID,\n        bytes memory _finalResult,\n        address[] memory _correctOracles)\n    public\n    cancelFlagZero(_requestID) // requires that the cancelFlag is = 0\n    onlyAggregator() // only the aggregator contract can call this function\n    returns(bool)\n    {\n        // return single aggregation result\n        _finalResult;\n        uint fee = requests[_requestID].fee / (requests[_requestID].numberOfOracles);\n        // pay fees\n        for (uint i=0; i<_correctOracles.length; i++) {\n            // pay each share to each oracle\n            emit OraclePaid(_correctOracles[i], fee, \"Oracle has been Paid!\"); // tells listeners oracle node has been paid\n            payable(_correctOracles[i]).transfer(fee); // pays oracle their fee\n            requests[_requestID].fee -= fee; // deduct the oracles portion from the logged amount until it reaches 0\n            // and all oracles have been paid\n        }\n        requests[_requestID].status = Status.COMPLETE; // request is complete\n        completedRequests[_requestID] = true; // add request id to completedRequests\n        emit StatusChange(requests[_requestID].status, \"COMPLETE\"); // tell listeners that the status has changed\n        pendingCounter--; // no longer pending so countered can be decremented\n        return true; // return true to so it has finished\n    }\n\n    function cancelRequest(\n        uint256 _requestID)\n    external\n    // need to make sure only the requester cancel the request\n    onlyRequester(_requestID) // requires that only the requester can cancel\n    cancelFlagZero(_requestID)\n    returns(bool)\n    {\n        requests[_requestID].cancelFlag = 1;\n        requests[_requestID].status = Status.CANCELLED;\n        AggregatorContract(aggregatorAddr).cancelRequest(_requestID);\n        return true;\n    }\n    // @notice blacklist oracle that misbehaves 10\n    function blacklistOracle(address _addr)\n    external\n    onlyReputation()\n    returns(bool)\n    {\n        blacklistedOracles[_addr] = true;\n        return blacklistedOracles[_addr];\n    }\n\n\n\n    // *** Setters ***\n    function setAggregatorContract(\n        address _aggAddr)\n    public\n    onlyOwner() // only owner can set aggregator contract\n    returns(bool)\n    {\n        aggregatorAddr = _aggAddr;\n        return true;\n    }\n\n    function setReputationContract(address _repAddr)\n    public\n    onlyOwner()\n    returns(bool)\n    {\n        reputationAddr = _repAddr;\n        return true;\n    }\n\n    // *** Getters ***\n    function getOracleForRequest(\n        uint256 _requestID,\n        address _orcAddr)\n    external\n    view\n    onlyAggregator()\n    returns(bool)\n    {\n        return requests[_requestID].oraclesForRequest[_orcAddr];\n    }\n\n    function getNumberOfOracles(\n        uint256 _requestID)\n    external\n    view\n    onlyAggregator()\n    returns(uint32)\n    {\n        return requests[_requestID].numberOfOracles;\n    }\n    function getPHash(\n        uint256 _requestID)\n    external\n    view\n    onlyAggregator()\n    returns(bytes32)\n    {\n        return requests[_requestID].pHash;\n    }\n    function getDataType(\n        uint256 _requestID)\n    external\n    view\n    onlyAggregator()\n    returns(bytes memory)\n    {\n        return requests[_requestID].dataType;\n    }\n    // @notice returns bool whether or not _addr is blacklisted\n    function getBlacklistedOracle(address _addr)\n    external\n    view\n    returns(bool)\n    {\n        return blacklistedOracles[_addr];\n    }\n    // ***Modifiers***\n    // @notice only owner of contract\n    modifier onlyOwner()\n    {\n        require(msg.sender == owner);\n        _;\n    }\n    // @notice only owner of aggregator contract\n    modifier onlyAggregator()\n    {\n        require(msg.sender == aggregatorAddr);\n        _;\n    }\n    // @notice only owner of reputation contract\n    modifier onlyReputation()\n    {\n        require(msg.sender == reputationAddr);\n        _;\n    }\n    // @notice modifier to confirm calling address is an oracle node address already acknowledged\n    modifier oracleHasJoined()\n    {\n        require(oracles[msg.sender] == true);\n        _;\n    }\n    // @notice modifier to confirm calling address is not yet an oracle node address acknowledged\n    modifier oracleNotJoined()\n    {\n        require(oracles[msg.sender] != true);\n        _;\n    }\n    // @notice requires request cancelFlag == 0\n    modifier cancelFlagZero(\n        uint256 _requestID)\n    {\n        require(requests[_requestID].cancelFlag == 0);\n        _;\n    }\n    // @notice requires stakeBalance to equal exactly 1 ETH\n    modifier stakeCheck()\n    {\n        require(stakeBalance[msg.sender] == 1 ether);\n        _;\n    }\n    // @notice requires the value sent to be >= MIN_FEE set\n    modifier valueGTMinFeeCheck()\n    {\n        // require msg.value has enough to pay oracles for each function call\n        require(msg.value >= MIN_FEE);\n        _;\n    }\n    // @notice requires an odd number of oracles so voting/aggregation doesnt become deadlocked\n    modifier oddNumOracles(\n        uint32 _numberOfOracles)\n    {\n        // makes sure the number that there is always an odd number of oracles so a majority can be reached.\n        require(!(_numberOfOracles % 2 == 0));\n        _;\n    }\n    // @notice requires a new oracle to send 1 eth to be held by contract until it leaves the network\n    modifier valueEqual1Eth()\n    {\n        require(msg.value == 1 ether); // must send 1 eth that is to be held by contract\n        _;\n    }\n    // @notice requires counter to be less than number required\n    modifier orcCountLessThanNum(\n        uint256 _requestID)\n    {\n        // makes sure oracle counter is less than number of oracles required so response can be submitted\n        require(requests[_requestID].oracleCounter < requests[_requestID].numberOfOracles);\n        _;\n    }\n    // @notice requires that only the request can call the function\n    modifier onlyRequester(\n        uint256 _requestID)\n    {\n        require(msg.sender == requests[_requestID].requester);\n        _;\n    }\n\n    modifier isNotBlacklisted() {\n        require(!blacklistedOracles[msg.sender] == true);\n        _;\n    }\n\n}\n",
  "sourcePath": "/home/willp/Documents/MSc_Computer_Science/PROJECT/Research_Code/july22_projectcode/IoToracle/contracts/OracleRequestContract.sol",
  "compiler": {
    "name": "solc",
    "version": "0.8.15+commit.e14f2714.Emscripten.clang"
  },
  "schemaVersion": "3.4.8",
  "updatedAt": "2022-08-05T11:50:56.859Z",
  "devdoc": {
    "kind": "dev",
    "methods": {},
    "version": 1
  },
  "userdoc": {
    "kind": "user",
    "methods": {},
    "version": 1
  }
}