{
  "contractName": "OracleRequesterContract",
  "abi": [
    {
      "inputs": [],
      "stateMutability": "nonpayable",
      "type": "constructor"
    },
    {
      "anonymous": false,
      "inputs": [
        {
          "indexed": false,
          "internalType": "address",
          "name": "",
          "type": "address"
        }
      ],
      "name": "BidPlaced",
      "type": "event"
    },
    {
      "anonymous": false,
      "inputs": [
        {
          "indexed": false,
          "internalType": "uint256",
          "name": "",
          "type": "uint256"
        },
        {
          "indexed": false,
          "internalType": "bytes",
          "name": "",
          "type": "bytes"
        }
      ],
      "name": "OpenForBids",
      "type": "event"
    },
    {
      "anonymous": false,
      "inputs": [
        {
          "indexed": false,
          "internalType": "address",
          "name": "",
          "type": "address"
        },
        {
          "indexed": false,
          "internalType": "string",
          "name": "",
          "type": "string"
        }
      ],
      "name": "OracleJoined",
      "type": "event"
    },
    {
      "anonymous": false,
      "inputs": [
        {
          "indexed": false,
          "internalType": "address",
          "name": "",
          "type": "address"
        },
        {
          "indexed": false,
          "internalType": "string",
          "name": "",
          "type": "string"
        }
      ],
      "name": "OracleLeft",
      "type": "event"
    },
    {
      "anonymous": false,
      "inputs": [
        {
          "indexed": false,
          "internalType": "uint256",
          "name": "",
          "type": "uint256"
        },
        {
          "indexed": false,
          "internalType": "bytes",
          "name": "",
          "type": "bytes"
        },
        {
          "indexed": false,
          "internalType": "bytes",
          "name": "",
          "type": "bytes"
        }
      ],
      "name": "ReleaseRequestDetails",
      "type": "event"
    },
    {
      "anonymous": false,
      "inputs": [
        {
          "indexed": false,
          "internalType": "enum OracleRequesterContract.Status",
          "name": "",
          "type": "uint8"
        },
        {
          "indexed": false,
          "internalType": "string",
          "name": "",
          "type": "string"
        }
      ],
      "name": "StatusChange",
      "type": "event"
    },
    {
      "stateMutability": "nonpayable",
      "type": "fallback"
    },
    {
      "inputs": [
        {
          "internalType": "address",
          "name": "",
          "type": "address"
        }
      ],
      "name": "oracles",
      "outputs": [
        {
          "internalType": "bool",
          "name": "",
          "type": "bool"
        }
      ],
      "stateMutability": "view",
      "type": "function",
      "constant": true
    },
    {
      "inputs": [],
      "name": "owner",
      "outputs": [
        {
          "internalType": "address payable",
          "name": "",
          "type": "address"
        }
      ],
      "stateMutability": "view",
      "type": "function",
      "constant": true
    },
    {
      "inputs": [
        {
          "internalType": "uint256",
          "name": "",
          "type": "uint256"
        }
      ],
      "name": "requests",
      "outputs": [
        {
          "internalType": "uint256",
          "name": "requestID",
          "type": "uint256"
        },
        {
          "internalType": "address",
          "name": "requester",
          "type": "address"
        },
        {
          "internalType": "address",
          "name": "callbackAddress",
          "type": "address"
        },
        {
          "internalType": "bytes",
          "name": "callbackFID",
          "type": "bytes"
        },
        {
          "internalType": "bytes",
          "name": "IoTID",
          "type": "bytes"
        },
        {
          "internalType": "bytes",
          "name": "dataType",
          "type": "bytes"
        },
        {
          "internalType": "bytes32",
          "name": "pHash",
          "type": "bytes32"
        },
        {
          "internalType": "uint32",
          "name": "numberOfOracles",
          "type": "uint32"
        },
        {
          "internalType": "uint32",
          "name": "oracleCounter",
          "type": "uint32"
        },
        {
          "internalType": "enum OracleRequesterContract.Status",
          "name": "status",
          "type": "uint8"
        }
      ],
      "stateMutability": "view",
      "type": "function",
      "constant": true
    },
    {
      "inputs": [],
      "name": "joinAsOracle",
      "outputs": [
        {
          "internalType": "bool",
          "name": "",
          "type": "bool"
        }
      ],
      "stateMutability": "nonpayable",
      "type": "function"
    },
    {
      "inputs": [],
      "name": "leaveOracleNetwork",
      "outputs": [
        {
          "internalType": "bool",
          "name": "",
          "type": "bool"
        }
      ],
      "stateMutability": "nonpayable",
      "type": "function"
    },
    {
      "inputs": [
        {
          "internalType": "address",
          "name": "_callbackAddress",
          "type": "address"
        },
        {
          "internalType": "bytes",
          "name": "_callbackFID",
          "type": "bytes"
        },
        {
          "internalType": "bytes",
          "name": "_IoTID",
          "type": "bytes"
        },
        {
          "internalType": "bytes",
          "name": "_dataType",
          "type": "bytes"
        },
        {
          "internalType": "bytes",
          "name": "_requiredResult",
          "type": "bytes"
        },
        {
          "internalType": "uint32",
          "name": "_numberOfOracles",
          "type": "uint32"
        }
      ],
      "name": "createRequest",
      "outputs": [
        {
          "internalType": "uint256",
          "name": "",
          "type": "uint256"
        }
      ],
      "stateMutability": "nonpayable",
      "type": "function"
    },
    {
      "inputs": [
        {
          "internalType": "uint256",
          "name": "_requestID",
          "type": "uint256"
        }
      ],
      "name": "placeBid",
      "outputs": [
        {
          "internalType": "bool",
          "name": "",
          "type": "bool"
        }
      ],
      "stateMutability": "nonpayable",
      "type": "function"
    },
    {
      "inputs": [
        {
          "internalType": "uint256",
          "name": "_requestID",
          "type": "uint256"
        },
        {
          "internalType": "bytes",
          "name": "_finalResult",
          "type": "bytes"
        }
      ],
      "name": "deliverResponse",
      "outputs": [],
      "stateMutability": "nonpayable",
      "type": "function"
    },
    {
      "inputs": [
        {
          "internalType": "uint256",
          "name": "_requestID",
          "type": "uint256"
        },
        {
          "internalType": "address",
          "name": "_orcAddr",
          "type": "address"
        }
      ],
      "name": "getOracleForRequest",
      "outputs": [
        {
          "internalType": "bool",
          "name": "",
          "type": "bool"
        }
      ],
      "stateMutability": "view",
      "type": "function",
      "constant": true
    },
    {
      "inputs": [
        {
          "internalType": "uint256",
          "name": "_requestID",
          "type": "uint256"
        }
      ],
      "name": "getNumberOfOracles",
      "outputs": [
        {
          "internalType": "uint32",
          "name": "",
          "type": "uint32"
        }
      ],
      "stateMutability": "view",
      "type": "function",
      "constant": true
    },
    {
      "inputs": [
        {
          "internalType": "uint256",
          "name": "_requestID",
          "type": "uint256"
        }
      ],
      "name": "getPHash",
      "outputs": [
        {
          "internalType": "bytes32",
          "name": "",
          "type": "bytes32"
        }
      ],
      "stateMutability": "view",
      "type": "function",
      "constant": true
    },
    {
      "inputs": [
        {
          "internalType": "uint256",
          "name": "_requestID",
          "type": "uint256"
        }
      ],
      "name": "getDataType",
      "outputs": [
        {
          "internalType": "bytes",
          "name": "",
          "type": "bytes"
        }
      ],
      "stateMutability": "view",
      "type": "function",
      "constant": true
    }
  ],
  "bytecode": "0x608060405260016103ea5560016103eb5534801561001c57600080fd5b50336000806101000a81548173ffffffffffffffffffffffffffffffffffffffff021916908373ffffffffffffffffffffffffffffffffffffffff160217905550611e508061006c6000396000f3fe608060405234801561001057600080fd5b50600436106100b85760003560e01c8063950e1da911610071578063950e1da9146101d25780639979ef45146101f0578063a08702f314610220578063a37b354d1461023e578063addd50991461026e578063ea317d5d1461029e576100b9565b806357442e79146100bb57806381d12c58146100eb578063829c22fd146101245780638979a3c2146101545780638da5cb5b1461018457806391a3632a146101a2576100b9565b5b005b6100d560048036038101906100d0919061104f565b6102ba565b6040516100e29190611115565b60405180910390f35b6101056004803603810190610100919061104f565b610367565b60405161011b9a99989796959493929190611236565b60405180910390f35b61013e6004803603810190610139919061104f565b6105c6565b60405161014b91906112e7565b60405180910390f35b61016e6004803603810190610169919061148f565b6105eb565b60405161017b919061158c565b60405180910390f35b61018c610922565b60405161019991906115c8565b60405180910390f35b6101bc60048036038101906101b7919061104f565b610946565b6040516101c991906115e3565b60405180910390f35b6101da61097b565b6040516101e79190611619565b60405180910390f35b61020a6004803603810190610205919061104f565b610abe565b6040516102179190611619565b60405180910390f35b610228610ddf565b6040516102359190611619565b60405180910390f35b61025860048036038101906102539190611634565b610ecd565b6040516102659190611619565b60405180910390f35b61028860048036038101906102839190611674565b610f3d565b6040516102959190611619565b60405180910390f35b6102b860048036038101906102b391906116a1565b610f5e565b005b6060600182606481106102d0576102cf6116fd565b5b600a020160050180546102e29061175b565b80601f016020809104026020016040519081016040528092919081815260200182805461030e9061175b565b801561035b5780601f106103305761010080835404028352916020019161035b565b820191906000526020600020905b81548152906001019060200180831161033e57829003601f168201915b50505050509050919050565b6001816064811061037757600080fd5b600a02016000915090508060000154908060010160009054906101000a900473ffffffffffffffffffffffffffffffffffffffff16908060020160009054906101000a900473ffffffffffffffffffffffffffffffffffffffff16908060030180546103e29061175b565b80601f016020809104026020016040519081016040528092919081815260200182805461040e9061175b565b801561045b5780601f106104305761010080835404028352916020019161045b565b820191906000526020600020905b81548152906001019060200180831161043e57829003601f168201915b5050505050908060040180546104709061175b565b80601f016020809104026020016040519081016040528092919081815260200182805461049c9061175b565b80156104e95780601f106104be576101008083540402835291602001916104e9565b820191906000526020600020905b8154815290600101906020018083116104cc57829003601f168201915b5050505050908060050180546104fe9061175b565b80601f016020809104026020016040519081016040528092919081815260200182805461052a9061175b565b80156105775780601f1061054c57610100808354040283529160200191610577565b820191906000526020600020905b81548152906001019060200180831161055a57829003601f168201915b5050505050908060060154908060070160009054906101000a900463ffffffff16908060090160009054906101000a900463ffffffff16908060090160049054906101000a900460ff1690508a565b6000600182606481106105dc576105db6116fd565b5b600a0201600601549050919050565b6000806103ea5490508060018260648110610609576106086116fd565b5b600a0201600001819055503360018260648110610629576106286116fd565b5b600a020160010160006101000a81548173ffffffffffffffffffffffffffffffffffffffff021916908373ffffffffffffffffffffffffffffffffffffffff1602179055508760018260648110610683576106826116fd565b5b600a020160020160006101000a81548173ffffffffffffffffffffffffffffffffffffffff021916908373ffffffffffffffffffffffffffffffffffffffff16021790555086600182606481106106dd576106dc6116fd565b5b600a020160030190816106f09190611938565b508560018260648110610706576107056116fd565b5b600a020160040190816107199190611938565b50846001826064811061072f5761072e6116fd565b5b600a020160050190816107429190611938565b508260018260648110610758576107576116fd565b5b600a020160070160006101000a81548163ffffffff021916908363ffffffff160217905550600060018260648110610793576107926116fd565b5b600a020160090160006101000a81548163ffffffff021916908363ffffffff16021790555060018082606481106107cd576107cc6116fd565b5b600a020160090160046101000a81548160ff021916908360028111156107f6576107f56111bf565b5b02179055507f346e0fa9e112a7376778dcb0fe0fdfe51db577b3d0b1592a40266db0b192f822600182606481106108305761082f6116fd565b5b600a020160090160049054906101000a900460ff166040516108529190611a67565b60405180910390a16000858560405160200161086f929190611ad1565b604051602081830303815290604052805190602001209050806001836064811061089c5761089b6116fd565b5b600a0201600601819055506103ea60008154809291906108bb90611b24565b91905055507f9fa3818a0bcd92e6bdf76b585ed9feea4ad7d3467dc3770c2af818d43f9581a582600184606481106108f6576108f56116fd565b5b600a020160050160405161090b929190611bf0565b60405180910390a181925050509695505050505050565b60008054906101000a900473ffffffffffffffffffffffffffffffffffffffff1681565b60006001826064811061095c5761095b6116fd565b5b600a020160070160009054906101000a900463ffffffff169050919050565b6000600115156103e960003373ffffffffffffffffffffffffffffffffffffffff1673ffffffffffffffffffffffffffffffffffffffff16815260200190815260200160002060009054906101000a900460ff161515036109db57600080fd5b60016103e960003373ffffffffffffffffffffffffffffffffffffffff1673ffffffffffffffffffffffffffffffffffffffff16815260200190815260200160002060006101000a81548160ff0219169083151502179055507f2d62108771d82d92634e2d038b6c7f09290edfee5b1443e25299f04a0cfbca7233604051610a639190611c6c565b60405180910390a16103e960003373ffffffffffffffffffffffffffffffffffffffff1673ffffffffffffffffffffffffffffffffffffffff16815260200190815260200160002060009054906101000a900460ff16905090565b6000600115156103e960003373ffffffffffffffffffffffffffffffffffffffff1673ffffffffffffffffffffffffffffffffffffffff16815260200190815260200160002060009054906101000a900460ff16151514610b1e57600080fd5b60018260648110610b3257610b316116fd565b5b600a020160070160009054906101000a900463ffffffff1663ffffffff1660018360648110610b6457610b636116fd565b5b600a020160090160009054906101000a900463ffffffff1663ffffffff1610610b8c57600080fd5b6001808360648110610ba157610ba06116fd565b5b600a020160080160003373ffffffffffffffffffffffffffffffffffffffff1673ffffffffffffffffffffffffffffffffffffffff16815260200190815260200160002060006101000a81548160ff02191690831515021790555060018260648110610c1057610c0f6116fd565b5b600a0201600901600081819054906101000a900463ffffffff1680929190610c3790611c9a565b91906101000a81548163ffffffff021916908363ffffffff160217905550507fe677a6b9a16a696674f50d2c98a1ce8c5cb51d6b48a0223412c512bbc93664d533604051610c859190611cc6565b60405180910390a160018260648110610ca157610ca06116fd565b5b600a020160090160009054906101000a900463ffffffff1663ffffffff1660018360648110610cd357610cd26116fd565b5b600a020160070160009054906101000a900463ffffffff1663ffffffff1603610d89577f2510e6950be86d6001a0b1229da4c21fa8e26b6bcf345d0b348fe42894fceb0360018360648110610d2b57610d2a6116fd565b5b600a02016000015460018460648110610d4757610d466116fd565b5b600a020160040160018560648110610d6257610d616116fd565b5b600a0201600501604051610d7893929190611ce1565b60405180910390a160019050610dda565b6103e960003373ffffffffffffffffffffffffffffffffffffffff1673ffffffffffffffffffffffffffffffffffffffff16815260200190815260200160002060009054906101000a900460ff1690505b919050565b6000600115156103e960003373ffffffffffffffffffffffffffffffffffffffff1673ffffffffffffffffffffffffffffffffffffffff16815260200190815260200160002060009054906101000a900460ff16151514610e3f57600080fd5b6103e960003373ffffffffffffffffffffffffffffffffffffffff1673ffffffffffffffffffffffffffffffffffffffff16815260200190815260200160002060006101000a81549060ff02191690557f14951d787e2aaf7813982720871de23d576e7d935c0587e12a7fc2c4c960165a33604051610ebe9190611d72565b60405180910390a16001905090565b600060018360648110610ee357610ee26116fd565b5b600a020160080160008373ffffffffffffffffffffffffffffffffffffffff1673ffffffffffffffffffffffffffffffffffffffff16815260200190815260200160002060009054906101000a900460ff16905092915050565b6103e96020528060005260406000206000915054906101000a900460ff1681565b600260018360648110610f7457610f736116fd565b5b600a020160090160046101000a81548160ff02191690836002811115610f9d57610f9c6111bf565b5b02179055507f346e0fa9e112a7376778dcb0fe0fdfe51db577b3d0b1592a40266db0b192f82260018360648110610fd757610fd66116fd565b5b600a020160090160049054906101000a900460ff16604051610ff99190611dec565b60405180910390a15050565b6000604051905090565b600080fd5b600080fd5b6000819050919050565b61102c81611019565b811461103757600080fd5b50565b60008135905061104981611023565b92915050565b6000602082840312156110655761106461100f565b5b60006110738482850161103a565b91505092915050565b600081519050919050565b600082825260208201905092915050565b60005b838110156110b657808201518184015260208101905061109b565b838111156110c5576000848401525b50505050565b6000601f19601f8301169050919050565b60006110e78261107c565b6110f18185611087565b9350611101818560208601611098565b61110a816110cb565b840191505092915050565b6000602082019050818103600083015261112f81846110dc565b905092915050565b61114081611019565b82525050565b600073ffffffffffffffffffffffffffffffffffffffff82169050919050565b600061117182611146565b9050919050565b61118181611166565b82525050565b6000819050919050565b61119a81611187565b82525050565b600063ffffffff82169050919050565b6111b9816111a0565b82525050565b7f4e487b7100000000000000000000000000000000000000000000000000000000600052602160045260246000fd5b600381106111ff576111fe6111bf565b5b50565b6000819050611210826111ee565b919050565b600061122082611202565b9050919050565b61123081611215565b82525050565b60006101408201905061124c600083018d611137565b611259602083018c611178565b611266604083018b611178565b8181036060830152611278818a6110dc565b9050818103608083015261128c81896110dc565b905081810360a08301526112a081886110dc565b90506112af60c0830187611191565b6112bc60e08301866111b0565b6112ca6101008301856111b0565b6112d8610120830184611227565b9b9a5050505050505050505050565b60006020820190506112fc6000830184611191565b92915050565b61130b81611166565b811461131657600080fd5b50565b60008135905061132881611302565b92915050565b600080fd5b600080fd5b7f4e487b7100000000000000000000000000000000000000000000000000000000600052604160045260246000fd5b611370826110cb565b810181811067ffffffffffffffff8211171561138f5761138e611338565b5b80604052505050565b60006113a2611005565b90506113ae8282611367565b919050565b600067ffffffffffffffff8211156113ce576113cd611338565b5b6113d7826110cb565b9050602081019050919050565b82818337600083830152505050565b6000611406611401846113b3565b611398565b90508281526020810184848401111561142257611421611333565b5b61142d8482856113e4565b509392505050565b600082601f83011261144a5761144961132e565b5b813561145a8482602086016113f3565b91505092915050565b61146c816111a0565b811461147757600080fd5b50565b60008135905061148981611463565b92915050565b60008060008060008060c087890312156114ac576114ab61100f565b5b60006114ba89828a01611319565b965050602087013567ffffffffffffffff8111156114db576114da611014565b5b6114e789828a01611435565b955050604087013567ffffffffffffffff81111561150857611507611014565b5b61151489828a01611435565b945050606087013567ffffffffffffffff81111561153557611534611014565b5b61154189828a01611435565b935050608087013567ffffffffffffffff81111561156257611561611014565b5b61156e89828a01611435565b92505060a061157f89828a0161147a565b9150509295509295509295565b60006020820190506115a16000830184611137565b92915050565b60006115b282611146565b9050919050565b6115c2816115a7565b82525050565b60006020820190506115dd60008301846115b9565b92915050565b60006020820190506115f860008301846111b0565b92915050565b60008115159050919050565b611613816115fe565b82525050565b600060208201905061162e600083018461160a565b92915050565b6000806040838503121561164b5761164a61100f565b5b60006116598582860161103a565b925050602061166a85828601611319565b9150509250929050565b60006020828403121561168a5761168961100f565b5b600061169884828501611319565b91505092915050565b600080604083850312156116b8576116b761100f565b5b60006116c68582860161103a565b925050602083013567ffffffffffffffff8111156116e7576116e6611014565b5b6116f385828601611435565b9150509250929050565b7f4e487b7100000000000000000000000000000000000000000000000000000000600052603260045260246000fd5b7f4e487b7100000000000000000000000000000000000000000000000000000000600052602260045260246000fd5b6000600282049050600182168061177357607f821691505b6020821081036117865761178561172c565b5b50919050565b60008190508160005260206000209050919050565b60006020601f8301049050919050565b600082821b905092915050565b6000600883026117ee7fffffffffffffffffffffffffffffffffffffffffffffffffffffffffffffffff826117b1565b6117f886836117b1565b95508019841693508086168417925050509392505050565b6000819050919050565b600061183561183061182b84611019565b611810565b611019565b9050919050565b6000819050919050565b61184f8361181a565b61186361185b8261183c565b8484546117be565b825550505050565b600090565b61187861186b565b611883818484611846565b505050565b5b818110156118a75761189c600082611870565b600181019050611889565b5050565b601f8211156118ec576118bd8161178c565b6118c6846117a1565b810160208510156118d5578190505b6118e96118e1856117a1565b830182611888565b50505b505050565b600082821c905092915050565b600061190f600019846008026118f1565b1980831691505092915050565b600061192883836118fe565b9150826002028217905092915050565b6119418261107c565b67ffffffffffffffff81111561195a57611959611338565b5b611964825461175b565b61196f8282856118ab565b600060209050601f8311600181146119a25760008415611990578287015190505b61199a858261191c565b865550611a02565b601f1984166119b08661178c565b60005b828110156119d8578489015182556001820191506020850194506020810190506119b3565b868310156119f557848901516119f1601f8916826118fe565b8355505b6001600288020188555050505b505050505050565b600082825260208201905092915050565b7f50454e44494e4700000000000000000000000000000000000000000000000000600082015250565b6000611a51600783611a0a565b9150611a5c82611a1b565b602082019050919050565b6000604082019050611a7c6000830184611227565b8181036020830152611a8d81611a44565b905092915050565b600081905092915050565b6000611aab8261107c565b611ab58185611a95565b9350611ac5818560208601611098565b80840191505092915050565b6000611add8285611aa0565b9150611ae98284611aa0565b91508190509392505050565b7f4e487b7100000000000000000000000000000000000000000000000000000000600052601160045260246000fd5b6000611b2f82611019565b91507fffffffffffffffffffffffffffffffffffffffffffffffffffffffffffffffff8203611b6157611b60611af5565b5b600182019050919050565b60008154611b798161175b565b611b838186611087565b94506001821660008114611b9e5760018114611bb457611be7565b60ff198316865281151560200286019350611be7565b611bbd8561178c565b60005b83811015611bdf57815481890152600182019150602081019050611bc0565b808801955050505b50505092915050565b6000604082019050611c056000830185611137565b8181036020830152611c178184611b6c565b90509392505050565b7f57656c636f6d65206e6577206e6f646521000000000000000000000000000000600082015250565b6000611c56601183611a0a565b9150611c6182611c20565b602082019050919050565b6000604082019050611c816000830184611178565b8181036020830152611c9281611c49565b905092915050565b6000611ca5826111a0565b915063ffffffff8203611cbb57611cba611af5565b5b600182019050919050565b6000602082019050611cdb6000830184611178565b92915050565b6000606082019050611cf66000830186611137565b8181036020830152611d088185611b6c565b90508181036040830152611d1c8184611b6c565b9050949350505050565b7f4e6f646520686173206c6566742c20476f6f6462796500000000000000000000600082015250565b6000611d5c601683611a0a565b9150611d6782611d26565b602082019050919050565b6000604082019050611d876000830184611178565b8181036020830152611d9881611d4f565b905092915050565b7f434f4d504c455445000000000000000000000000000000000000000000000000600082015250565b6000611dd6600883611a0a565b9150611de182611da0565b602082019050919050565b6000604082019050611e016000830184611227565b8181036020830152611e1281611dc9565b90509291505056fea2646970667358221220acd3b8bef380e30786e767dce9d0497fcd03002187342f768a852fe90e9ddd7364736f6c634300080f0033",
  "immutableReferences": {},
  "source": "// SPDX-License-Identifier: MIT\npragma solidity ^0.8.0;\n\n\ncontract OracleRequesterContract {\n    //\n\n    address payable public owner;\n\n    Request[100] public requests;\n    mapping (address => bool) public oracles;\n    uint requestCounter = 1;\n    uint pendingCounter = 1;\n    enum Status{NOTSSTARTED, PENDING, COMPLETE}\n    // a single Request structure\n    struct Request {\n        uint256 requestID;\n        address requester;\n        address callbackAddress;\n        bytes callbackFID;\n        bytes IoTID;\n        bytes dataType;\n        bytes32 pHash;\n        //bytes requiredResult;\n        uint32 numberOfOracles;\n        mapping (address => bool) oraclesForRequest;\n        uint32 oracleCounter;\n        Status status;\n    }\n\n    event OpenForBids(uint256, bytes);\n    event BidPlaced(address);\n    event ReleaseRequestDetails(uint256, bytes, bytes);\n    event StatusChange(Status, string);\n    event OracleJoined(address, string);\n    event OracleLeft(address, string);\n\n    constructor() {\n        owner = payable(msg.sender);\n\n    }\n\n    fallback() external{}\n\n    function joinAsOracle() public oracleNotJoined() returns(bool){\n        oracles[msg.sender] = true;\n        emit OracleJoined(msg.sender, \"Welcome new node!\");\n        return oracles[msg.sender];\n    }\n\n    function leaveOracleNetwork() public oracleHasJoined() returns(bool) {\n        delete oracles[msg.sender];\n        emit OracleLeft(msg.sender, \"Node has left, Goodbye\");\n        return true;\n    }\n\n    // @notice user can call function create request\n    // @dev\n    // @param _callbackAddress could be different to address that called the function\n    // @param _callbackFID a particular function in a smart contract that is needed to be called based on request\n    // @param _IoTID the identifier of the IoT device oracle node will be subscribing to\n    // @param _dataType, true false answer, an event, continuous data over time?\n    // @param _requiredResult what is needed from IoT device\n    // @param _numberOfOracles number of oracle nodes that fetch IoT data\n    // @return the requestID so the user can keep track of request\n    function createRequest(\n        address _callbackAddress,\n        bytes memory _callbackFID,\n        bytes memory _IoTID,\n        bytes memory _dataType,\n        bytes memory _requiredResult,\n        uint32 _numberOfOracles) public returns(uint256) {\n        // assign id to request\n        uint256 requestID = requestCounter;\n        // log details of the request to array to cross reference later\n        requests[requestID].requestID = requestID;\n        requests[requestID].requester = msg.sender;\n        requests[requestID].callbackAddress = _callbackAddress;\n        requests[requestID].callbackFID = _callbackFID;\n        requests[requestID].IoTID = _IoTID;\n        requests[requestID].dataType = _dataType;\n        //requests[requestId].requiredResult = _requiredResult; // do not need to store result put in a hash?\n        requests[requestID].numberOfOracles = _numberOfOracles;\n        requests[requestID].oracleCounter = 0;\n        requests[requestID].status = Status.PENDING;\n        emit StatusChange(requests[requestID].status, \"PENDING\");\n\n\n        // create a hash of the _dataType and _requiredResult:\n        // we will use the actual result to test upon delivery.\n        bytes32 phash = keccak256(abi.encodePacked(_dataType, _requiredResult)); // add required result to hash\n        requests[requestID].pHash = phash;\n        // increment requestId ready for next create request function.\n\n        requestCounter++;\n\n        emit OpenForBids(requestID, requests[requestID].dataType);\n\n        return requestID;\n    }\n\n    // @notice off-chain oracle node places bid to fetch data, once threshold is reached, emits event details.\n    // @dev\n    // @param requestId oracle node wishes to bid on\n    // @return true to indicate bid successful\n    function placeBid(uint256 _requestID) public oracleHasJoined() returns(bool)  {\n        require(requests[_requestID].oracleCounter < requests[_requestID].numberOfOracles);\n        requests[_requestID].oraclesForRequest[msg.sender] = true;\n        requests[_requestID].oracleCounter++;\n        // also add a timeout\n        emit BidPlaced(msg.sender);\n        if (requests[_requestID].numberOfOracles == requests[_requestID].oracleCounter) {\n            emit ReleaseRequestDetails(requests[_requestID].requestID,\n                requests[_requestID].IoTID,\n                requests[_requestID].dataType);\n            return true;\n        }\n        return oracles[msg.sender];\n    }\n\n    //\n\n    // function deliveryResponse() {} returns result to user smart contract\n    function deliverResponse(uint256 _requestID, bytes memory _finalResult) public {\n        // return single aggregation result\n        _finalResult;\n        requests[_requestID].status = Status.COMPLETE;\n    emit StatusChange(requests[_requestID].status, \"COMPLETE\");\n    }\n\n    // getters\n    function getOracleForRequest(uint256 _requestID, address _orcAddr) external view returns(bool){\n        return requests[_requestID].oraclesForRequest[_orcAddr];\n    }\n    function getNumberOfOracles(uint256 _requestID) external view returns(uint32){\n        return requests[_requestID].numberOfOracles;\n    }\n    function getPHash(uint256 _requestID) external view returns(bytes32){\n        return requests[_requestID].pHash;\n    }\n    function getDataType(uint256 _requestID) external view returns(bytes memory) {\n        return requests[_requestID].dataType;\n    }\n\n    // @notice modifier to confirm calling address is an oracle node address already acknowledged\n    modifier oracleHasJoined() {\n        require(oracles[msg.sender] == true);\n        _;\n    }\n    // @notice modifier to confirm calling address is not yet an oracle node address acknowledged\n    modifier oracleNotJoined() {\n        require(oracles[msg.sender] != true);\n        _;\n    }\n}\n",
  "sourcePath": "/home/willp/Documents/MSc_Computer_Science/PROJECT/Research_Code/july22_projectcode/IoToracle/contracts/OracleRequesterContract.sol",
  "compiler": {
    "name": "solc",
    "version": "0.8.15+commit.e14f2714.Emscripten.clang"
  },
  "schemaVersion": "3.4.8",
  "updatedAt": "2022-07-20T13:05:28.860Z",
  "networkType": "ethereum",
  "devdoc": {
    "kind": "dev",
    "methods": {},
    "version": 1
  },
  "userdoc": {
    "kind": "user",
    "methods": {},
    "version": 1
  }
}