{
  "contractName": "OracleRequesterContract",
  "abi": [
    {
      "inputs": [],
      "stateMutability": "nonpayable",
      "type": "constructor"
    },
    {
      "anonymous": false,
      "inputs": [
        {
          "indexed": false,
          "internalType": "address",
          "name": "",
          "type": "address"
        }
      ],
      "name": "BidPlaced",
      "type": "event"
    },
    {
      "anonymous": false,
      "inputs": [
        {
          "indexed": false,
          "internalType": "uint256",
          "name": "",
          "type": "uint256"
        },
        {
          "indexed": false,
          "internalType": "bytes",
          "name": "",
          "type": "bytes"
        }
      ],
      "name": "OpenForBids",
      "type": "event"
    },
    {
      "anonymous": false,
      "inputs": [
        {
          "indexed": false,
          "internalType": "address",
          "name": "",
          "type": "address"
        },
        {
          "indexed": false,
          "internalType": "string",
          "name": "",
          "type": "string"
        }
      ],
      "name": "OracleJoined",
      "type": "event"
    },
    {
      "anonymous": false,
      "inputs": [
        {
          "indexed": false,
          "internalType": "uint256",
          "name": "",
          "type": "uint256"
        },
        {
          "indexed": false,
          "internalType": "bytes",
          "name": "",
          "type": "bytes"
        },
        {
          "indexed": false,
          "internalType": "bytes",
          "name": "",
          "type": "bytes"
        }
      ],
      "name": "ReleaseRequestDetails",
      "type": "event"
    },
    {
      "anonymous": false,
      "inputs": [
        {
          "indexed": false,
          "internalType": "enum OracleRequesterContract.Status",
          "name": "",
          "type": "uint8"
        },
        {
          "indexed": false,
          "internalType": "string",
          "name": "",
          "type": "string"
        }
      ],
      "name": "StatusChange",
      "type": "event"
    },
    {
      "stateMutability": "nonpayable",
      "type": "fallback"
    },
    {
      "inputs": [
        {
          "internalType": "address",
          "name": "",
          "type": "address"
        }
      ],
      "name": "oracles",
      "outputs": [
        {
          "internalType": "bool",
          "name": "",
          "type": "bool"
        }
      ],
      "stateMutability": "view",
      "type": "function"
    },
    {
      "inputs": [],
      "name": "owner",
      "outputs": [
        {
          "internalType": "address payable",
          "name": "",
          "type": "address"
        }
      ],
      "stateMutability": "view",
      "type": "function"
    },
    {
      "inputs": [
        {
          "internalType": "uint256",
          "name": "",
          "type": "uint256"
        }
      ],
      "name": "requests",
      "outputs": [
        {
          "internalType": "uint256",
          "name": "requestID",
          "type": "uint256"
        },
        {
          "internalType": "address",
          "name": "requester",
          "type": "address"
        },
        {
          "internalType": "address",
          "name": "callbackAddress",
          "type": "address"
        },
        {
          "internalType": "bytes",
          "name": "callbackFID",
          "type": "bytes"
        },
        {
          "internalType": "bytes",
          "name": "IoTID",
          "type": "bytes"
        },
        {
          "internalType": "bytes",
          "name": "dataType",
          "type": "bytes"
        },
        {
          "internalType": "bytes32",
          "name": "pHash",
          "type": "bytes32"
        },
        {
          "internalType": "uint32",
          "name": "numberOfOracles",
          "type": "uint32"
        },
        {
          "internalType": "uint32",
          "name": "oracleCounter",
          "type": "uint32"
        },
        {
          "internalType": "enum OracleRequesterContract.Status",
          "name": "status",
          "type": "uint8"
        }
      ],
      "stateMutability": "view",
      "type": "function"
    },
    {
      "inputs": [],
      "name": "joinAsOracle",
      "outputs": [
        {
          "internalType": "bool",
          "name": "",
          "type": "bool"
        }
      ],
      "stateMutability": "nonpayable",
      "type": "function"
    },
    {
      "inputs": [
        {
          "internalType": "address",
          "name": "_callbackAddress",
          "type": "address"
        },
        {
          "internalType": "bytes",
          "name": "_callbackFID",
          "type": "bytes"
        },
        {
          "internalType": "bytes",
          "name": "_IoTID",
          "type": "bytes"
        },
        {
          "internalType": "bytes",
          "name": "_dataType",
          "type": "bytes"
        },
        {
          "internalType": "bytes",
          "name": "_requiredResult",
          "type": "bytes"
        },
        {
          "internalType": "uint32",
          "name": "_numberOfOracles",
          "type": "uint32"
        }
      ],
      "name": "createRequest",
      "outputs": [
        {
          "internalType": "uint256",
          "name": "",
          "type": "uint256"
        }
      ],
      "stateMutability": "nonpayable",
      "type": "function"
    },
    {
      "inputs": [
        {
          "internalType": "uint256",
          "name": "_requestID",
          "type": "uint256"
        }
      ],
      "name": "placeBid",
      "outputs": [
        {
          "internalType": "bool",
          "name": "",
          "type": "bool"
        }
      ],
      "stateMutability": "nonpayable",
      "type": "function"
    },
    {
      "inputs": [
        {
          "internalType": "uint256",
          "name": "_requestID",
          "type": "uint256"
        },
        {
          "internalType": "bytes",
          "name": "_finalResult",
          "type": "bytes"
        }
      ],
      "name": "deliverResponse",
      "outputs": [],
      "stateMutability": "nonpayable",
      "type": "function"
    },
    {
      "inputs": [
        {
          "internalType": "uint256",
          "name": "_requestID",
          "type": "uint256"
        },
        {
          "internalType": "address",
          "name": "_orcAddr",
          "type": "address"
        }
      ],
      "name": "getOracleForRequest",
      "outputs": [
        {
          "internalType": "bool",
          "name": "",
          "type": "bool"
        }
      ],
      "stateMutability": "view",
      "type": "function"
    },
    {
      "inputs": [
        {
          "internalType": "uint256",
          "name": "_requestID",
          "type": "uint256"
        }
      ],
      "name": "getNumberOfOracles",
      "outputs": [
        {
          "internalType": "uint32",
          "name": "",
          "type": "uint32"
        }
      ],
      "stateMutability": "view",
      "type": "function"
    },
    {
      "inputs": [
        {
          "internalType": "uint256",
          "name": "_requestID",
          "type": "uint256"
        }
      ],
      "name": "getPHash",
      "outputs": [
        {
          "internalType": "bytes32",
          "name": "",
          "type": "bytes32"
        }
      ],
      "stateMutability": "view",
      "type": "function"
    },
    {
      "inputs": [
        {
          "internalType": "uint256",
          "name": "_requestID",
          "type": "uint256"
        }
      ],
      "name": "getDataType",
      "outputs": [
        {
          "internalType": "bytes",
          "name": "",
          "type": "bytes"
        }
      ],
      "stateMutability": "view",
      "type": "function"
    }
  ],
  "bytecode": "0x608060405260016103ea5560016103eb5534801561001c57600080fd5b50336000806101000a81548173ffffffffffffffffffffffffffffffffffffffff021916908373ffffffffffffffffffffffffffffffffffffffff160217905550611cbf8061006c6000396000f3fe608060405234801561001057600080fd5b50600436106100ad5760003560e01c806391a3632a1161007157806391a3632a14610197578063950e1da9146101c75780639979ef45146101e5578063a37b354d14610215578063addd509914610245578063ea317d5d14610275576100ae565b806357442e79146100b057806381d12c58146100e0578063829c22fd146101195780638979a3c2146101495780638da5cb5b14610179576100ae565b5b005b6100ca60048036038101906100c59190610f38565b610291565b6040516100d79190610ffe565b60405180910390f35b6100fa60048036038101906100f59190610f38565b61033e565b6040516101109a9998979695949392919061111f565b60405180910390f35b610133600480360381019061012e9190610f38565b61059d565b60405161014091906111d0565b60405180910390f35b610163600480360381019061015e9190611378565b6105c2565b6040516101709190611475565b60405180910390f35b6101816108f9565b60405161018e91906114b1565b60405180910390f35b6101b160048036038101906101ac9190610f38565b61091d565b6040516101be91906114cc565b60405180910390f35b6101cf610952565b6040516101dc9190611502565b60405180910390f35b6101ff60048036038101906101fa9190610f38565b610a95565b60405161020c9190611502565b60405180910390f35b61022f600480360381019061022a919061151d565b610db6565b60405161023c9190611502565b60405180910390f35b61025f600480360381019061025a919061155d565b610e26565b60405161026c9190611502565b60405180910390f35b61028f600480360381019061028a919061158a565b610e47565b005b6060600182606481106102a7576102a66115e6565b5b600a020160050180546102b990611644565b80601f01602080910402602001604051908101604052809291908181526020018280546102e590611644565b80156103325780601f1061030757610100808354040283529160200191610332565b820191906000526020600020905b81548152906001019060200180831161031557829003601f168201915b50505050509050919050565b6001816064811061034e57600080fd5b600a02016000915090508060000154908060010160009054906101000a900473ffffffffffffffffffffffffffffffffffffffff16908060020160009054906101000a900473ffffffffffffffffffffffffffffffffffffffff16908060030180546103b990611644565b80601f01602080910402602001604051908101604052809291908181526020018280546103e590611644565b80156104325780601f1061040757610100808354040283529160200191610432565b820191906000526020600020905b81548152906001019060200180831161041557829003601f168201915b50505050509080600401805461044790611644565b80601f016020809104026020016040519081016040528092919081815260200182805461047390611644565b80156104c05780601f10610495576101008083540402835291602001916104c0565b820191906000526020600020905b8154815290600101906020018083116104a357829003601f168201915b5050505050908060050180546104d590611644565b80601f016020809104026020016040519081016040528092919081815260200182805461050190611644565b801561054e5780601f106105235761010080835404028352916020019161054e565b820191906000526020600020905b81548152906001019060200180831161053157829003601f168201915b5050505050908060060154908060070160009054906101000a900463ffffffff16908060090160009054906101000a900463ffffffff16908060090160049054906101000a900460ff1690508a565b6000600182606481106105b3576105b26115e6565b5b600a0201600601549050919050565b6000806103ea54905080600182606481106105e0576105df6115e6565b5b600a0201600001819055503360018260648110610600576105ff6115e6565b5b600a020160010160006101000a81548173ffffffffffffffffffffffffffffffffffffffff021916908373ffffffffffffffffffffffffffffffffffffffff160217905550876001826064811061065a576106596115e6565b5b600a020160020160006101000a81548173ffffffffffffffffffffffffffffffffffffffff021916908373ffffffffffffffffffffffffffffffffffffffff16021790555086600182606481106106b4576106b36115e6565b5b600a020160030190816106c79190611821565b5085600182606481106106dd576106dc6115e6565b5b600a020160040190816106f09190611821565b508460018260648110610706576107056115e6565b5b600a020160050190816107199190611821565b50826001826064811061072f5761072e6115e6565b5b600a020160070160006101000a81548163ffffffff021916908363ffffffff16021790555060006001826064811061076a576107696115e6565b5b600a020160090160006101000a81548163ffffffff021916908363ffffffff16021790555060018082606481106107a4576107a36115e6565b5b600a020160090160046101000a81548160ff021916908360028111156107cd576107cc6110a8565b5b02179055507f346e0fa9e112a7376778dcb0fe0fdfe51db577b3d0b1592a40266db0b192f82260018260648110610807576108066115e6565b5b600a020160090160049054906101000a900460ff166040516108299190611950565b60405180910390a1600085856040516020016108469291906119ba565b6040516020818303038152906040528051906020012090508060018360648110610873576108726115e6565b5b600a0201600601819055506103ea600081548092919061089290611a0d565b91905055507f9fa3818a0bcd92e6bdf76b585ed9feea4ad7d3467dc3770c2af818d43f9581a582600184606481106108cd576108cc6115e6565b5b600a02016005016040516108e2929190611ad9565b60405180910390a181925050509695505050505050565b60008054906101000a900473ffffffffffffffffffffffffffffffffffffffff1681565b600060018260648110610933576109326115e6565b5b600a020160070160009054906101000a900463ffffffff169050919050565b6000600115156103e960003373ffffffffffffffffffffffffffffffffffffffff1673ffffffffffffffffffffffffffffffffffffffff16815260200190815260200160002060009054906101000a900460ff161515036109b257600080fd5b60016103e960003373ffffffffffffffffffffffffffffffffffffffff1673ffffffffffffffffffffffffffffffffffffffff16815260200190815260200160002060006101000a81548160ff0219169083151502179055507f2d62108771d82d92634e2d038b6c7f09290edfee5b1443e25299f04a0cfbca7233604051610a3a9190611b55565b60405180910390a16103e960003373ffffffffffffffffffffffffffffffffffffffff1673ffffffffffffffffffffffffffffffffffffffff16815260200190815260200160002060009054906101000a900460ff16905090565b6000600115156103e960003373ffffffffffffffffffffffffffffffffffffffff1673ffffffffffffffffffffffffffffffffffffffff16815260200190815260200160002060009054906101000a900460ff16151514610af557600080fd5b60018260648110610b0957610b086115e6565b5b600a020160070160009054906101000a900463ffffffff1663ffffffff1660018360648110610b3b57610b3a6115e6565b5b600a020160090160009054906101000a900463ffffffff1663ffffffff1610610b6357600080fd5b6001808360648110610b7857610b776115e6565b5b600a020160080160003373ffffffffffffffffffffffffffffffffffffffff1673ffffffffffffffffffffffffffffffffffffffff16815260200190815260200160002060006101000a81548160ff02191690831515021790555060018260648110610be757610be66115e6565b5b600a0201600901600081819054906101000a900463ffffffff1680929190610c0e90611b83565b91906101000a81548163ffffffff021916908363ffffffff160217905550507fe677a6b9a16a696674f50d2c98a1ce8c5cb51d6b48a0223412c512bbc93664d533604051610c5c9190611baf565b60405180910390a160018260648110610c7857610c776115e6565b5b600a020160090160009054906101000a900463ffffffff1663ffffffff1660018360648110610caa57610ca96115e6565b5b600a020160070160009054906101000a900463ffffffff1663ffffffff1603610d60577f2510e6950be86d6001a0b1229da4c21fa8e26b6bcf345d0b348fe42894fceb0360018360648110610d0257610d016115e6565b5b600a02016000015460018460648110610d1e57610d1d6115e6565b5b600a020160040160018560648110610d3957610d386115e6565b5b600a0201600501604051610d4f93929190611bca565b60405180910390a160019050610db1565b6103e960003373ffffffffffffffffffffffffffffffffffffffff1673ffffffffffffffffffffffffffffffffffffffff16815260200190815260200160002060009054906101000a900460ff1690505b919050565b600060018360648110610dcc57610dcb6115e6565b5b600a020160080160008373ffffffffffffffffffffffffffffffffffffffff1673ffffffffffffffffffffffffffffffffffffffff16815260200190815260200160002060009054906101000a900460ff16905092915050565b6103e96020528060005260406000206000915054906101000a900460ff1681565b600260018360648110610e5d57610e5c6115e6565b5b600a020160090160046101000a81548160ff02191690836002811115610e8657610e856110a8565b5b02179055507f346e0fa9e112a7376778dcb0fe0fdfe51db577b3d0b1592a40266db0b192f82260018360648110610ec057610ebf6115e6565b5b600a020160090160049054906101000a900460ff16604051610ee29190611c5b565b60405180910390a15050565b6000604051905090565b600080fd5b600080fd5b6000819050919050565b610f1581610f02565b8114610f2057600080fd5b50565b600081359050610f3281610f0c565b92915050565b600060208284031215610f4e57610f4d610ef8565b5b6000610f5c84828501610f23565b91505092915050565b600081519050919050565b600082825260208201905092915050565b60005b83811015610f9f578082015181840152602081019050610f84565b83811115610fae576000848401525b50505050565b6000601f19601f8301169050919050565b6000610fd082610f65565b610fda8185610f70565b9350610fea818560208601610f81565b610ff381610fb4565b840191505092915050565b600060208201905081810360008301526110188184610fc5565b905092915050565b61102981610f02565b82525050565b600073ffffffffffffffffffffffffffffffffffffffff82169050919050565b600061105a8261102f565b9050919050565b61106a8161104f565b82525050565b6000819050919050565b61108381611070565b82525050565b600063ffffffff82169050919050565b6110a281611089565b82525050565b7f4e487b7100000000000000000000000000000000000000000000000000000000600052602160045260246000fd5b600381106110e8576110e76110a8565b5b50565b60008190506110f9826110d7565b919050565b6000611109826110eb565b9050919050565b611119816110fe565b82525050565b600061014082019050611135600083018d611020565b611142602083018c611061565b61114f604083018b611061565b8181036060830152611161818a610fc5565b905081810360808301526111758189610fc5565b905081810360a08301526111898188610fc5565b905061119860c083018761107a565b6111a560e0830186611099565b6111b3610100830185611099565b6111c1610120830184611110565b9b9a5050505050505050505050565b60006020820190506111e5600083018461107a565b92915050565b6111f48161104f565b81146111ff57600080fd5b50565b600081359050611211816111eb565b92915050565b600080fd5b600080fd5b7f4e487b7100000000000000000000000000000000000000000000000000000000600052604160045260246000fd5b61125982610fb4565b810181811067ffffffffffffffff8211171561127857611277611221565b5b80604052505050565b600061128b610eee565b90506112978282611250565b919050565b600067ffffffffffffffff8211156112b7576112b6611221565b5b6112c082610fb4565b9050602081019050919050565b82818337600083830152505050565b60006112ef6112ea8461129c565b611281565b90508281526020810184848401111561130b5761130a61121c565b5b6113168482856112cd565b509392505050565b600082601f83011261133357611332611217565b5b81356113438482602086016112dc565b91505092915050565b61135581611089565b811461136057600080fd5b50565b6000813590506113728161134c565b92915050565b60008060008060008060c0878903121561139557611394610ef8565b5b60006113a389828a01611202565b965050602087013567ffffffffffffffff8111156113c4576113c3610efd565b5b6113d089828a0161131e565b955050604087013567ffffffffffffffff8111156113f1576113f0610efd565b5b6113fd89828a0161131e565b945050606087013567ffffffffffffffff81111561141e5761141d610efd565b5b61142a89828a0161131e565b935050608087013567ffffffffffffffff81111561144b5761144a610efd565b5b61145789828a0161131e565b92505060a061146889828a01611363565b9150509295509295509295565b600060208201905061148a6000830184611020565b92915050565b600061149b8261102f565b9050919050565b6114ab81611490565b82525050565b60006020820190506114c660008301846114a2565b92915050565b60006020820190506114e16000830184611099565b92915050565b60008115159050919050565b6114fc816114e7565b82525050565b600060208201905061151760008301846114f3565b92915050565b6000806040838503121561153457611533610ef8565b5b600061154285828601610f23565b925050602061155385828601611202565b9150509250929050565b60006020828403121561157357611572610ef8565b5b600061158184828501611202565b91505092915050565b600080604083850312156115a1576115a0610ef8565b5b60006115af85828601610f23565b925050602083013567ffffffffffffffff8111156115d0576115cf610efd565b5b6115dc8582860161131e565b9150509250929050565b7f4e487b7100000000000000000000000000000000000000000000000000000000600052603260045260246000fd5b7f4e487b7100000000000000000000000000000000000000000000000000000000600052602260045260246000fd5b6000600282049050600182168061165c57607f821691505b60208210810361166f5761166e611615565b5b50919050565b60008190508160005260206000209050919050565b60006020601f8301049050919050565b600082821b905092915050565b6000600883026116d77fffffffffffffffffffffffffffffffffffffffffffffffffffffffffffffffff8261169a565b6116e1868361169a565b95508019841693508086168417925050509392505050565b6000819050919050565b600061171e61171961171484610f02565b6116f9565b610f02565b9050919050565b6000819050919050565b61173883611703565b61174c61174482611725565b8484546116a7565b825550505050565b600090565b611761611754565b61176c81848461172f565b505050565b5b8181101561179057611785600082611759565b600181019050611772565b5050565b601f8211156117d5576117a681611675565b6117af8461168a565b810160208510156117be578190505b6117d26117ca8561168a565b830182611771565b50505b505050565b600082821c905092915050565b60006117f8600019846008026117da565b1980831691505092915050565b600061181183836117e7565b9150826002028217905092915050565b61182a82610f65565b67ffffffffffffffff81111561184357611842611221565b5b61184d8254611644565b611858828285611794565b600060209050601f83116001811461188b5760008415611879578287015190505b6118838582611805565b8655506118eb565b601f19841661189986611675565b60005b828110156118c15784890151825560018201915060208501945060208101905061189c565b868310156118de57848901516118da601f8916826117e7565b8355505b6001600288020188555050505b505050505050565b600082825260208201905092915050565b7f50454e44494e4700000000000000000000000000000000000000000000000000600082015250565b600061193a6007836118f3565b915061194582611904565b602082019050919050565b60006040820190506119656000830184611110565b81810360208301526119768161192d565b905092915050565b600081905092915050565b600061199482610f65565b61199e818561197e565b93506119ae818560208601610f81565b80840191505092915050565b60006119c68285611989565b91506119d28284611989565b91508190509392505050565b7f4e487b7100000000000000000000000000000000000000000000000000000000600052601160045260246000fd5b6000611a1882610f02565b91507fffffffffffffffffffffffffffffffffffffffffffffffffffffffffffffffff8203611a4a57611a496119de565b5b600182019050919050565b60008154611a6281611644565b611a6c8186610f70565b94506001821660008114611a875760018114611a9d57611ad0565b60ff198316865281151560200286019350611ad0565b611aa685611675565b60005b83811015611ac857815481890152600182019150602081019050611aa9565b808801955050505b50505092915050565b6000604082019050611aee6000830185611020565b8181036020830152611b008184611a55565b90509392505050565b7f57656c636f6d65206e6577206e6f646521000000000000000000000000000000600082015250565b6000611b3f6011836118f3565b9150611b4a82611b09565b602082019050919050565b6000604082019050611b6a6000830184611061565b8181036020830152611b7b81611b32565b905092915050565b6000611b8e82611089565b915063ffffffff8203611ba457611ba36119de565b5b600182019050919050565b6000602082019050611bc46000830184611061565b92915050565b6000606082019050611bdf6000830186611020565b8181036020830152611bf18185611a55565b90508181036040830152611c058184611a55565b9050949350505050565b7f434f4d504c455445000000000000000000000000000000000000000000000000600082015250565b6000611c456008836118f3565b9150611c5082611c0f565b602082019050919050565b6000604082019050611c706000830184611110565b8181036020830152611c8181611c38565b90509291505056fea2646970667358221220f5545fd4298a40881d535eb2b25d0dccbe40b474fce7bdbc2d27222b192cd4b964736f6c634300080f0033",
  "immutableReferences": {},
  "source": "// SPDX-License-Identifier: MIT\npragma solidity ^0.8.0;\n\n\ncontract OracleRequesterContract {\n    //\n\n    address payable public owner;\n\n    Request[100] public requests;\n    mapping (address => bool) public oracles;\n    uint requestCounter = 1;\n    uint pendingCounter = 1;\n    enum Status{NOTSSTARTED, PENDING, COMPLETE}\n    // a single Request structure\n    struct Request {\n        uint256 requestID;\n        address requester;\n        address callbackAddress;\n        bytes callbackFID;\n        bytes IoTID;\n        bytes dataType;\n        bytes32 pHash;\n        //bytes requiredResult;\n        uint32 numberOfOracles;\n        mapping (address => bool) oraclesForRequest;\n        uint32 oracleCounter;\n        Status status;\n    }\n\n    event OpenForBids(uint256, bytes);\n    event BidPlaced(address);\n    event ReleaseRequestDetails(uint256, bytes, bytes);\n    event StatusChange(Status, string);\n    event OracleJoined(address, string);\n\n    constructor() {\n        owner = payable(msg.sender);\n\n    }\n\n    fallback() external{}\n\n    function joinAsOracle() public oracleNotJoined() returns(bool){\n        oracles[msg.sender] = true;\n        emit OracleJoined(msg.sender, \"Welcome new node!\");\n        return oracles[msg.sender];\n    }\n\n    // @notice user can call function create request\n    // @dev\n    // @param _callbackAddress could be different to address that called the function\n    // @param _callbackFID a particular function in a smart contract that is needed to be called based on request\n    // @param _IoTID the identifier of the IoT device oracle node will be subscribing to\n    // @param _dataType, true false answer, an event, continuous data over time?\n    // @param _requiredResult what is needed from IoT device\n    // @param _numberOfOracles number of oracle nodes that fetch IoT data\n    // @return the requestID so the user can keep track of request\n    function createRequest(\n        address _callbackAddress,\n        bytes memory _callbackFID,\n        bytes memory _IoTID,\n        bytes memory _dataType,\n        bytes memory _requiredResult,\n        uint32 _numberOfOracles) public returns(uint256) {\n        // assign id to request\n        uint256 requestID = requestCounter;\n        // log details of the request to array to cross reference later\n        requests[requestID].requestID = requestID;\n        requests[requestID].requester = msg.sender;\n        requests[requestID].callbackAddress = _callbackAddress;\n        requests[requestID].callbackFID = _callbackFID;\n        requests[requestID].IoTID = _IoTID;\n        requests[requestID].dataType = _dataType;\n        //requests[requestId].requiredResult = _requiredResult; // do not need to store result put in a hash?\n        requests[requestID].numberOfOracles = _numberOfOracles;\n        requests[requestID].oracleCounter = 0;\n        requests[requestID].status = Status.PENDING;\n        emit StatusChange(requests[requestID].status, \"PENDING\");\n\n\n        // create a hash of the _dataType and _requiredResult:\n        // we will use the actual result to test upon delivery.\n        bytes32 phash = keccak256(abi.encodePacked(_dataType, _requiredResult)); // add required result to hash\n        requests[requestID].pHash = phash;\n        // increment requestId ready for next create request function.\n\n        requestCounter++;\n\n        emit OpenForBids(requestID, requests[requestID].dataType);\n\n        return requestID;\n    }\n\n    // @notice off-chain oracle node places bid to fetch data, once threshold is reached, emits event details.\n    // @dev\n    // @param requestId oracle node wishes to bid on\n    // @return true to indicate bid successful\n    function placeBid(uint256 _requestID) public oracleHasJoined() returns(bool)  {\n        require(requests[_requestID].oracleCounter < requests[_requestID].numberOfOracles);\n        requests[_requestID].oraclesForRequest[msg.sender] = true;\n        requests[_requestID].oracleCounter++;\n        // also add a timeout\n        emit BidPlaced(msg.sender);\n        if (requests[_requestID].numberOfOracles == requests[_requestID].oracleCounter) {\n            emit ReleaseRequestDetails(requests[_requestID].requestID,\n                requests[_requestID].IoTID,\n                requests[_requestID].dataType);\n            return true;\n        }\n        return oracles[msg.sender];\n    }\n\n    //\n\n    // function deliveryResponse() {} returns result to user smart contract\n    function deliverResponse(uint256 _requestID, bytes memory _finalResult) public {\n        // return single aggregation result\n        _finalResult;\n        requests[_requestID].status = Status.COMPLETE;\n    emit StatusChange(requests[_requestID].status, \"COMPLETE\");\n    }\n\n    // getters\n    function getOracleForRequest(uint256 _requestID, address _orcAddr) external view returns(bool){\n        return requests[_requestID].oraclesForRequest[_orcAddr];\n    }\n    function getNumberOfOracles(uint256 _requestID) external view returns(uint32){\n        return requests[_requestID].numberOfOracles;\n    }\n    function getPHash(uint256 _requestID) external view returns(bytes32){\n        return requests[_requestID].pHash;\n    }\n    function getDataType(uint256 _requestID) external view returns(bytes memory) {\n        return requests[_requestID].dataType;\n    }\n\n    // @notice modifier to confirm calling address is an oracle node address already acknowledged\n    modifier oracleHasJoined() {\n        require(oracles[msg.sender] == true);\n        _;\n    }\n    // @notice modifier to confirm calling address is not yet an oracle node address acknowledged\n    modifier oracleNotJoined() {\n        require(oracles[msg.sender] != true);\n        _;\n    }\n}\n",
  "sourcePath": "/home/willp/Documents/MSc_Computer_Science/PROJECT/Research_Code/july22_projectcode/IoToracle/contracts/OracleRequesterContract.sol",
  "compiler": {
    "name": "solc",
    "version": "0.8.15+commit.e14f2714.Emscripten.clang"
  },
  "schemaVersion": "3.4.8",
  "updatedAt": "2022-07-19T16:28:22.415Z",
  "devdoc": {
    "kind": "dev",
    "methods": {},
    "version": 1
  },
  "userdoc": {
    "kind": "user",
    "methods": {},
    "version": 1
  }
}