{
  "contractName": "OracleRequestContract",
  "abi": [
    {
      "inputs": [],
      "stateMutability": "nonpayable",
      "type": "constructor"
    },
    {
      "anonymous": false,
      "inputs": [
        {
          "indexed": false,
          "internalType": "address",
          "name": "",
          "type": "address"
        }
      ],
      "name": "BidPlaced",
      "type": "event"
    },
    {
      "anonymous": false,
      "inputs": [
        {
          "indexed": false,
          "internalType": "int256",
          "name": "",
          "type": "int256"
        },
        {
          "indexed": false,
          "internalType": "string",
          "name": "",
          "type": "string"
        }
      ],
      "name": "FinalInt",
      "type": "event"
    },
    {
      "anonymous": false,
      "inputs": [
        {
          "indexed": false,
          "internalType": "bool",
          "name": "",
          "type": "bool"
        },
        {
          "indexed": false,
          "internalType": "string",
          "name": "",
          "type": "string"
        }
      ],
      "name": "FinalResultLog",
      "type": "event"
    },
    {
      "anonymous": false,
      "inputs": [
        {
          "indexed": false,
          "internalType": "string",
          "name": "",
          "type": "string"
        }
      ],
      "name": "Logging",
      "type": "event"
    },
    {
      "anonymous": false,
      "inputs": [
        {
          "indexed": false,
          "internalType": "uint256",
          "name": "",
          "type": "uint256"
        },
        {
          "indexed": false,
          "internalType": "bytes",
          "name": "",
          "type": "bytes"
        },
        {
          "indexed": false,
          "internalType": "uint256",
          "name": "",
          "type": "uint256"
        },
        {
          "indexed": false,
          "internalType": "uint256",
          "name": "",
          "type": "uint256"
        },
        {
          "indexed": false,
          "internalType": "uint256",
          "name": "",
          "type": "uint256"
        }
      ],
      "name": "OpenForBids",
      "type": "event"
    },
    {
      "anonymous": false,
      "inputs": [
        {
          "indexed": false,
          "internalType": "address",
          "name": "",
          "type": "address"
        },
        {
          "indexed": false,
          "internalType": "string",
          "name": "",
          "type": "string"
        }
      ],
      "name": "OracleJoined",
      "type": "event"
    },
    {
      "anonymous": false,
      "inputs": [
        {
          "indexed": false,
          "internalType": "address",
          "name": "",
          "type": "address"
        },
        {
          "indexed": false,
          "internalType": "string",
          "name": "",
          "type": "string"
        }
      ],
      "name": "OracleLeft",
      "type": "event"
    },
    {
      "anonymous": false,
      "inputs": [
        {
          "indexed": false,
          "internalType": "address",
          "name": "",
          "type": "address"
        },
        {
          "indexed": false,
          "internalType": "uint256",
          "name": "",
          "type": "uint256"
        },
        {
          "indexed": false,
          "internalType": "string",
          "name": "",
          "type": "string"
        }
      ],
      "name": "OraclePaid",
      "type": "event"
    },
    {
      "anonymous": false,
      "inputs": [
        {
          "indexed": false,
          "internalType": "uint256",
          "name": "",
          "type": "uint256"
        },
        {
          "indexed": false,
          "internalType": "bytes",
          "name": "",
          "type": "bytes"
        },
        {
          "indexed": false,
          "internalType": "bytes",
          "name": "",
          "type": "bytes"
        }
      ],
      "name": "ReleaseRequestDetails",
      "type": "event"
    },
    {
      "anonymous": false,
      "inputs": [
        {
          "indexed": false,
          "internalType": "enum OracleRequestContract.Status",
          "name": "",
          "type": "uint8"
        },
        {
          "indexed": false,
          "internalType": "string",
          "name": "",
          "type": "string"
        }
      ],
      "name": "StatusChange",
      "type": "event"
    },
    {
      "anonymous": false,
      "inputs": [
        {
          "indexed": false,
          "internalType": "uint256",
          "name": "",
          "type": "uint256"
        },
        {
          "indexed": false,
          "internalType": "uint256",
          "name": "",
          "type": "uint256"
        },
        {
          "indexed": false,
          "internalType": "uint256",
          "name": "",
          "type": "uint256"
        }
      ],
      "name": "UpdateTimestamp",
      "type": "event"
    },
    {
      "stateMutability": "nonpayable",
      "type": "fallback"
    },
    {
      "inputs": [],
      "name": "aggregatorAddr",
      "outputs": [
        {
          "internalType": "address",
          "name": "",
          "type": "address"
        }
      ],
      "stateMutability": "view",
      "type": "function",
      "constant": true
    },
    {
      "inputs": [
        {
          "internalType": "address",
          "name": "",
          "type": "address"
        }
      ],
      "name": "blacklistedOracles",
      "outputs": [
        {
          "internalType": "bool",
          "name": "",
          "type": "bool"
        }
      ],
      "stateMutability": "view",
      "type": "function",
      "constant": true
    },
    {
      "inputs": [
        {
          "internalType": "uint256",
          "name": "",
          "type": "uint256"
        }
      ],
      "name": "completedRequests",
      "outputs": [
        {
          "internalType": "bool",
          "name": "",
          "type": "bool"
        }
      ],
      "stateMutability": "view",
      "type": "function",
      "constant": true
    },
    {
      "inputs": [
        {
          "internalType": "address",
          "name": "",
          "type": "address"
        }
      ],
      "name": "oracles",
      "outputs": [
        {
          "internalType": "bool",
          "name": "",
          "type": "bool"
        }
      ],
      "stateMutability": "view",
      "type": "function",
      "constant": true
    },
    {
      "inputs": [],
      "name": "owner",
      "outputs": [
        {
          "internalType": "address",
          "name": "",
          "type": "address"
        }
      ],
      "stateMutability": "view",
      "type": "function",
      "constant": true
    },
    {
      "inputs": [],
      "name": "reputationAddr",
      "outputs": [
        {
          "internalType": "address",
          "name": "",
          "type": "address"
        }
      ],
      "stateMutability": "view",
      "type": "function",
      "constant": true
    },
    {
      "inputs": [
        {
          "internalType": "uint256",
          "name": "",
          "type": "uint256"
        }
      ],
      "name": "requests",
      "outputs": [
        {
          "internalType": "uint256",
          "name": "requestID",
          "type": "uint256"
        },
        {
          "internalType": "address",
          "name": "requester",
          "type": "address"
        },
        {
          "internalType": "address",
          "name": "callbackAddress",
          "type": "address"
        },
        {
          "internalType": "bytes",
          "name": "callbackFID",
          "type": "bytes"
        },
        {
          "internalType": "bytes",
          "name": "IoTID",
          "type": "bytes"
        },
        {
          "internalType": "bytes",
          "name": "dataType",
          "type": "bytes"
        },
        {
          "internalType": "uint32",
          "name": "numberOfOracles",
          "type": "uint32"
        },
        {
          "internalType": "uint256",
          "name": "aggregationType",
          "type": "uint256"
        },
        {
          "internalType": "uint32",
          "name": "oracleCounter",
          "type": "uint32"
        },
        {
          "internalType": "enum OracleRequestContract.Status",
          "name": "status",
          "type": "uint8"
        },
        {
          "internalType": "uint8",
          "name": "cancelFlag",
          "type": "uint8"
        },
        {
          "internalType": "uint256",
          "name": "fee",
          "type": "uint256"
        }
      ],
      "stateMutability": "view",
      "type": "function",
      "constant": true
    },
    {
      "inputs": [
        {
          "internalType": "address",
          "name": "",
          "type": "address"
        }
      ],
      "name": "stakeBalance",
      "outputs": [
        {
          "internalType": "uint256",
          "name": "",
          "type": "uint256"
        }
      ],
      "stateMutability": "view",
      "type": "function",
      "constant": true
    },
    {
      "inputs": [
        {
          "internalType": "uint256",
          "name": "",
          "type": "uint256"
        }
      ],
      "name": "timings",
      "outputs": [
        {
          "internalType": "uint256",
          "name": "appealFlag",
          "type": "uint256"
        },
        {
          "internalType": "uint256",
          "name": "timestamp",
          "type": "uint256"
        },
        {
          "internalType": "uint256",
          "name": "elapsedTime",
          "type": "uint256"
        }
      ],
      "stateMutability": "view",
      "type": "function",
      "constant": true
    },
    {
      "inputs": [],
      "name": "joinAsOracle",
      "outputs": [
        {
          "internalType": "bool",
          "name": "",
          "type": "bool"
        }
      ],
      "stateMutability": "payable",
      "type": "function",
      "payable": true
    },
    {
      "inputs": [],
      "name": "leaveOracleNetwork",
      "outputs": [
        {
          "internalType": "bool",
          "name": "",
          "type": "bool"
        }
      ],
      "stateMutability": "nonpayable",
      "type": "function"
    },
    {
      "inputs": [
        {
          "internalType": "address",
          "name": "_callbackAddress",
          "type": "address"
        },
        {
          "internalType": "bytes",
          "name": "_callbackFID",
          "type": "bytes"
        },
        {
          "internalType": "bytes",
          "name": "_IoTID",
          "type": "bytes"
        },
        {
          "internalType": "bytes",
          "name": "_dataType",
          "type": "bytes"
        },
        {
          "internalType": "uint256",
          "name": "_aggregationType",
          "type": "uint256"
        },
        {
          "internalType": "uint32",
          "name": "_numberOfOracles",
          "type": "uint32"
        },
        {
          "internalType": "uint256",
          "name": "_elapsedTime",
          "type": "uint256"
        }
      ],
      "name": "createRequest",
      "outputs": [
        {
          "internalType": "uint256",
          "name": "",
          "type": "uint256"
        }
      ],
      "stateMutability": "payable",
      "type": "function",
      "payable": true
    },
    {
      "inputs": [
        {
          "internalType": "uint256",
          "name": "_requestID",
          "type": "uint256"
        }
      ],
      "name": "timeoutCommitsAppeal",
      "outputs": [],
      "stateMutability": "nonpayable",
      "type": "function"
    },
    {
      "inputs": [
        {
          "internalType": "uint256",
          "name": "_requestID",
          "type": "uint256"
        }
      ],
      "name": "timeoutRevealsAppeal",
      "outputs": [],
      "stateMutability": "nonpayable",
      "type": "function"
    },
    {
      "inputs": [
        {
          "internalType": "uint256",
          "name": "_requestID",
          "type": "uint256"
        }
      ],
      "name": "timeoutBiddingAppeal",
      "outputs": [],
      "stateMutability": "nonpayable",
      "type": "function"
    },
    {
      "inputs": [
        {
          "internalType": "uint256",
          "name": "_requestID",
          "type": "uint256"
        }
      ],
      "name": "placeBid",
      "outputs": [
        {
          "internalType": "bool",
          "name": "",
          "type": "bool"
        }
      ],
      "stateMutability": "nonpayable",
      "type": "function"
    },
    {
      "inputs": [
        {
          "internalType": "uint256",
          "name": "_requestID",
          "type": "uint256"
        },
        {
          "internalType": "bool",
          "name": "_finalResult",
          "type": "bool"
        },
        {
          "internalType": "address[]",
          "name": "_correctOracles",
          "type": "address[]"
        },
        {
          "internalType": "address[]",
          "name": "_incorrectOracles",
          "type": "address[]"
        },
        {
          "internalType": "address[]",
          "name": "_incorrectRevealOracles",
          "type": "address[]"
        }
      ],
      "name": "deliverVoteResponse",
      "outputs": [
        {
          "internalType": "bool",
          "name": "",
          "type": "bool"
        }
      ],
      "stateMutability": "nonpayable",
      "type": "function"
    },
    {
      "inputs": [
        {
          "internalType": "uint256",
          "name": "_requestID",
          "type": "uint256"
        },
        {
          "internalType": "int256",
          "name": "_finalResult",
          "type": "int256"
        },
        {
          "internalType": "address[]",
          "name": "_correctOracles",
          "type": "address[]"
        },
        {
          "internalType": "address[]",
          "name": "_incorrectOracles",
          "type": "address[]"
        }
      ],
      "name": "deliverAverageResponse",
      "outputs": [
        {
          "internalType": "bool",
          "name": "",
          "type": "bool"
        }
      ],
      "stateMutability": "nonpayable",
      "type": "function"
    },
    {
      "inputs": [
        {
          "internalType": "uint256",
          "name": "_requestID",
          "type": "uint256"
        }
      ],
      "name": "cancelRequest",
      "outputs": [
        {
          "internalType": "bool",
          "name": "",
          "type": "bool"
        }
      ],
      "stateMutability": "nonpayable",
      "type": "function"
    },
    {
      "inputs": [
        {
          "internalType": "uint256",
          "name": "_requestID",
          "type": "uint256"
        },
        {
          "internalType": "address[]",
          "name": "_incorrectOracleReveals",
          "type": "address[]"
        }
      ],
      "name": "cancelRequestDueToDeadlock",
      "outputs": [
        {
          "internalType": "bool",
          "name": "",
          "type": "bool"
        }
      ],
      "stateMutability": "nonpayable",
      "type": "function"
    },
    {
      "inputs": [
        {
          "internalType": "address",
          "name": "_addr",
          "type": "address"
        }
      ],
      "name": "blacklistOracle",
      "outputs": [
        {
          "internalType": "bool",
          "name": "",
          "type": "bool"
        }
      ],
      "stateMutability": "nonpayable",
      "type": "function"
    },
    {
      "inputs": [
        {
          "internalType": "address",
          "name": "_aggAddr",
          "type": "address"
        }
      ],
      "name": "setAggregatorContract",
      "outputs": [
        {
          "internalType": "bool",
          "name": "",
          "type": "bool"
        }
      ],
      "stateMutability": "nonpayable",
      "type": "function"
    },
    {
      "inputs": [
        {
          "internalType": "address",
          "name": "_repAddr",
          "type": "address"
        }
      ],
      "name": "setReputationContract",
      "outputs": [
        {
          "internalType": "bool",
          "name": "",
          "type": "bool"
        }
      ],
      "stateMutability": "nonpayable",
      "type": "function"
    },
    {
      "inputs": [
        {
          "internalType": "uint256",
          "name": "_requestID",
          "type": "uint256"
        },
        {
          "internalType": "address",
          "name": "_orcAddr",
          "type": "address"
        }
      ],
      "name": "getOracleForRequest",
      "outputs": [
        {
          "internalType": "bool",
          "name": "",
          "type": "bool"
        }
      ],
      "stateMutability": "view",
      "type": "function",
      "constant": true
    },
    {
      "inputs": [
        {
          "internalType": "uint256",
          "name": "_requestID",
          "type": "uint256"
        }
      ],
      "name": "getNumberOfOracles",
      "outputs": [
        {
          "internalType": "uint32",
          "name": "",
          "type": "uint32"
        }
      ],
      "stateMutability": "view",
      "type": "function",
      "constant": true
    },
    {
      "inputs": [
        {
          "internalType": "uint256",
          "name": "_requestID",
          "type": "uint256"
        }
      ],
      "name": "getDataType",
      "outputs": [
        {
          "internalType": "bytes",
          "name": "",
          "type": "bytes"
        }
      ],
      "stateMutability": "view",
      "type": "function",
      "constant": true
    },
    {
      "inputs": [
        {
          "internalType": "address",
          "name": "_addr",
          "type": "address"
        }
      ],
      "name": "getBlacklistedOracle",
      "outputs": [
        {
          "internalType": "bool",
          "name": "",
          "type": "bool"
        }
      ],
      "stateMutability": "view",
      "type": "function",
      "constant": true
    },
    {
      "inputs": [
        {
          "internalType": "uint256",
          "name": "_requestID",
          "type": "uint256"
        }
      ],
      "name": "getAggregationType",
      "outputs": [
        {
          "internalType": "uint256",
          "name": "",
          "type": "uint256"
        }
      ],
      "stateMutability": "view",
      "type": "function",
      "constant": true
    }
  ],
  "bytecode": "0x608060405260016104b65560016104b7556404a817c80061064c55600361064c546200002c9190620000ea565b61064d55600561064c54620000429190620000ea565b61064d546200005291906200014b565b61064e5561012c61064f553480156200006a57600080fd5b50336000806101000a81548173ffffffffffffffffffffffffffffffffffffffff021916908373ffffffffffffffffffffffffffffffffffffffff160217905550620001a8565b6000819050919050565b7f4e487b7100000000000000000000000000000000000000000000000000000000600052601160045260246000fd5b6000620000f782620000b1565b91506200010483620000b1565b9250817fffffffffffffffffffffffffffffffffffffffffffffffffffffffffffffffff048311821515161562000140576200013f620000bb565b5b828202905092915050565b60006200015882620000b1565b91506200016583620000b1565b9250827fffffffffffffffffffffffffffffffffffffffffffffffffffffffffffffffff038211156200019d576200019c620000bb565b5b828201905092915050565b61535680620001b86000396000f3fe6080604052600436106101bb5760003560e01c806391a3632a116100ec578063a37b354d1161008a578063d175a47f11610064578063d175a47f146106f3578063e48882221461071c578063eee5a59614610759578063f0fbfbf314610796576101bc565b8063a37b354d14610650578063addd50991461068d578063ce11babd146106ca576101bc565b80639610f691116100c65780639610f6911461056c5780639967cf60146105ab5780639979ef45146105e8578063a08702f314610625576101bc565b806391a3632a146104d4578063950e1da9146105115780639584660f1461052f576101bc565b806358621b7a1161015957806381d12c581161013357806381d12c581461040d57806382762600146104555780638394d49e146104805780638da5cb5b146104a9576101bc565b806358621b7a146103565780636fbf7973146103935780637d02da09146103d0576101bc565b806330407ad91161019557806330407ad914610262578063498d7df01461029f5780634e7c57a6146102dc57806357442e7914610319576101bc565b8063053ebc9a146101ca5780633015394c146101f5578063301f1dbd14610232576101bc565b5b3480156101c857600080fd5b005b3480156101d657600080fd5b506101df6107d3565b6040516101ec9190613ddc565b60405180910390f35b34801561020157600080fd5b5061021c60048036038101906102179190613e41565b6107f9565b6040516102299190613e89565b60405180910390f35b61024c60048036038101906102479190614052565b610a2a565b6040516102599190614157565b60405180910390f35b34801561026e57600080fd5b5061028960048036038101906102849190614266565b610e8a565b6040516102969190613e89565b60405180910390f35b3480156102ab57600080fd5b506102c660048036038101906102c19190614335565b61174c565b6040516102d39190613e89565b60405180910390f35b3480156102e857600080fd5b5061030360048036038101906102fe9190614391565b611b66565b6040516103109190614157565b60405180910390f35b34801561032557600080fd5b50610340600480360381019061033b9190613e41565b611b7f565b60405161034d9190614446565b60405180910390f35b34801561036257600080fd5b5061037d6004803603810190610378919061449e565b611c86565b60405161038a9190613e89565b60405180910390f35b34801561039f57600080fd5b506103ba60048036038101906103b59190614391565b611f82565b6040516103c79190613e89565b60405180910390f35b3480156103dc57600080fd5b506103f760048036038101906103f29190614391565b611fd9565b6040516104049190613e89565b60405180910390f35b34801561041957600080fd5b50610434600480360381019061042f9190613e41565b611ffa565b60405161044c9c9b9a999897969594939291906145df565b60405180910390f35b34801561046157600080fd5b5061046a612272565b6040516104779190613ddc565b60405180910390f35b34801561048c57600080fd5b506104a760048036038101906104a29190613e41565b612298565b005b3480156104b557600080fd5b506104be6126f2565b6040516104cb9190613ddc565b60405180910390f35b3480156104e057600080fd5b506104fb60048036038101906104f69190613e41565b612716565b60405161050891906146ae565b60405180910390f35b6105196127a5565b6040516105269190613e89565b60405180910390f35b34801561053b57600080fd5b5061055660048036038101906105519190614391565b612a3f565b6040516105639190613e89565b60405180910390f35b34801561057857600080fd5b50610593600480360381019061058e9190613e41565b612ae4565b6040516105a2939291906146c9565b60405180910390f35b3480156105b757600080fd5b506105d260048036038101906105cd9190614391565b612b15565b6040516105df9190613e89565b60405180910390f35b3480156105f457600080fd5b5061060f600480360381019061060a9190613e41565b612bba565b60405161061c9190613e89565b60405180910390f35b34801561063157600080fd5b5061063a613051565b6040516106479190613e89565b60405180910390f35b34801561065c57600080fd5b5061067760048036038101906106729190614700565b6133b6565b6040516106849190613e89565b60405180910390f35b34801561069957600080fd5b506106b460048036038101906106af9190614391565b613480565b6040516106c19190613e89565b60405180910390f35b3480156106d657600080fd5b506106f160048036038101906106ec9190613e41565b6134a1565b005b3480156106ff57600080fd5b5061071a60048036038101906107159190613e41565b613780565b005b34801561072857600080fd5b50610743600480360381019061073e9190613e41565b613be7565b6040516107509190614157565b60405180910390f35b34801561076557600080fd5b50610780600480360381019061077b9190614391565b613c66565b60405161078d9190613e89565b60405180910390f35b3480156107a257600080fd5b506107bd60048036038101906107b89190613e41565b613d70565b6040516107ca9190613e89565b60405180910390f35b600260009054906101000a900473ffffffffffffffffffffffffffffffffffffffff1681565b600081600381606481106108105761080f614740565b5b600c020160010160009054906101000a900473ffffffffffffffffffffffffffffffffffffffff1673ffffffffffffffffffffffffffffffffffffffff163373ffffffffffffffffffffffffffffffffffffffff161461086f57600080fd5b8260006003826064811061088657610885614740565b5b600c0201600a0160059054906101000a900460ff1660ff16146108a857600080fd5b6001600385606481106108be576108bd614740565b5b600c0201600a0160056101000a81548160ff021916908360ff1602179055506002600385606481106108f3576108f2614740565b5b600c0201600a0160046101000a81548160ff0219169083600281111561091c5761091b61454c565b5b02179055507f346e0fa9e112a7376778dcb0fe0fdfe51db577b3d0b1592a40266db0b192f8226003856064811061095657610955614740565b5b600c0201600a0160049054906101000a900460ff1660405161097891906147cc565b60405180910390a1600160009054906101000a900473ffffffffffffffffffffffffffffffffffffffff1673ffffffffffffffffffffffffffffffffffffffff16633015394c856040518263ffffffff1660e01b81526004016109db9190614157565b6020604051808303816000875af11580156109fa573d6000803e3d6000fd5b505050506040513d601f19601f82011682018060405250810190610a1e919061480f565b50600192505050919050565b600061064e54341015610a3c57600080fd5b826000600282610a4c919061486b565b63ffffffff1603610a5c57600080fd5b848060011480610a6c5750600281145b610a7557600080fd5b60006104b6549050426104bc8260648110610a9357610a92614740565b5b6004020160010181905550846104bc8260648110610ab457610ab3614740565b5b60040201600201819055508060038260648110610ad457610ad3614740565b5b600c0201600001819055503360038260648110610af457610af3614740565b5b600c020160010160006101000a81548173ffffffffffffffffffffffffffffffffffffffff021916908373ffffffffffffffffffffffffffffffffffffffff1602179055508a60038260648110610b4e57610b4d614740565b5b600c020160020160006101000a81548173ffffffffffffffffffffffffffffffffffffffff021916908373ffffffffffffffffffffffffffffffffffffffff1602179055508960038260648110610ba857610ba7614740565b5b600c02016003019081610bbb9190614aa8565b508860038260648110610bd157610bd0614740565b5b600c02016004019081610be49190614aa8565b508760038260648110610bfa57610bf9614740565b5b600c02016005019081610c0d9190614aa8565b508560038260648110610c2357610c22614740565b5b600c020160060160006101000a81548163ffffffff021916908363ffffffff160217905550600060038260648110610c5e57610c5d614740565b5b600c0201600a0160006101000a81548163ffffffff021916908363ffffffff160217905550600060038260648110610c9957610c98614740565b5b600c0201600a0160046101000a81548160ff02191690836002811115610cc257610cc161454c565b5b0217905550600060038260648110610cdd57610cdc614740565b5b600c0201600a0160056101000a81548160ff021916908360ff1602179055503460038260648110610d1157610d10614740565b5b600c0201600b01819055508660038260648110610d3157610d30614740565b5b600c0201600901819055507f346e0fa9e112a7376778dcb0fe0fdfe51db577b3d0b1592a40266db0b192f82260038260648110610d7157610d70614740565b5b600c0201600a0160049054906101000a900460ff16604051610d939190614bc6565b60405180910390a16104b66000815480929190610daf90614c23565b91905055506104b76000815480929190610dc890614c23565b91905055507f45467d61e6f35d1866a79e0828e55247a1cbdbd929532d73c56d73ae64cfe83a8160038360648110610e0357610e02614740565b5b600c020160050160038460648110610e1e57610e1d614740565b5b600c0201600901546104bc8560648110610e3b57610e3a614740565b5b60040201600101546104bc8660648110610e5857610e57614740565b5b6004020160020154604051610e71959493929190614cef565b60405180910390a1809350505050979650505050505050565b600085600060038260648110610ea357610ea2614740565b5b600c0201600a0160059054906101000a900460ff1660ff1614610ec557600080fd5b600160009054906101000a900473ffffffffffffffffffffffffffffffffffffffff1673ffffffffffffffffffffffffffffffffffffffff163373ffffffffffffffffffffffffffffffffffffffff1614610f1f57600080fd5b7f5286d5a6d3a87f8e130652b705a8d0ec84042e834444bd00313a08d13a38475586604051610f4e9190614d95565b60405180910390a16000805b6104bc8960648110610f6f57610f6e614740565b5b6004020160030180549050811015611187576000600260009054906101000a900473ffffffffffffffffffffffffffffffffffffffff1673ffffffffffffffffffffffffffffffffffffffff1663b8f9c2a1888481518110610fd457610fd3614740565b5b60200260200101516040518263ffffffff1660e01b8152600401610ff89190613ddc565b602060405180830381865afa158015611015573d6000803e3d6000fd5b505050506040513d601f19601f820116820180604052508101906110399190614dd8565b9050806104b5600089858151811061105457611053614740565b5b602002602001015173ffffffffffffffffffffffffffffffffffffffff1673ffffffffffffffffffffffffffffffffffffffff16815260200190815260200160002060008282546110a59190614e05565b9250508190555080836110b89190614e39565b9250600260009054906101000a900473ffffffffffffffffffffffffffffffffffffffff1673ffffffffffffffffffffffffffffffffffffffff166318b529c388848151811061110b5761110a614740565b5b60200260200101516040518263ffffffff1660e01b815260040161112f9190613ddc565b6020604051808303816000875af115801561114e573d6000803e3d6000fd5b505050506040513d601f19601f820116820180604052508101906111729190614dd8565b5050808061117f90614c23565b915050610f5a565b5060005b855181101561139a576000600260009054906101000a900473ffffffffffffffffffffffffffffffffffffffff1673ffffffffffffffffffffffffffffffffffffffff1663b8f9c2a18884815181106111e7576111e6614740565b5b60200260200101516040518263ffffffff1660e01b815260040161120b9190613ddc565b602060405180830381865afa158015611228573d6000803e3d6000fd5b505050506040513d601f19601f8201168201806040525081019061124c9190614dd8565b9050806104b5600089858151811061126757611266614740565b5b602002602001015173ffffffffffffffffffffffffffffffffffffffff1673ffffffffffffffffffffffffffffffffffffffff16815260200190815260200160002060008282546112b89190614e05565b9250508190555080836112cb9190614e39565b9250600260009054906101000a900473ffffffffffffffffffffffffffffffffffffffff1673ffffffffffffffffffffffffffffffffffffffff166318b529c388848151811061131e5761131d614740565b5b60200260200101516040518263ffffffff1660e01b81526004016113429190613ddc565b6020604051808303816000875af1158015611361573d6000803e3d6000fd5b505050506040513d601f19601f820116820180604052508101906113859190614dd8565b5050808061139290614c23565b91505061118b565b5060005b84518110156114f4576000600260009054906101000a900473ffffffffffffffffffffffffffffffffffffffff1673ffffffffffffffffffffffffffffffffffffffff1663b8f9c2a18884815181106113fa576113f9614740565b5b60200260200101516040518263ffffffff1660e01b815260040161141e9190613ddc565b602060405180830381865afa15801561143b573d6000803e3d6000fd5b505050506040513d601f19601f8201168201806040525081019061145f9190614dd8565b9050808361146d9190614e39565b9250806104b5600088858151811061148857611487614740565b5b602002602001015173ffffffffffffffffffffffffffffffffffffffff1673ffffffffffffffffffffffffffffffffffffffff16815260200190815260200160002060008282546114d99190614e39565b925050819055505080806114ec90614c23565b91505061139e565b506000865160038a6064811061150d5761150c614740565b5b600c0201600b015461151f9190614e8f565b905060008751836115309190614e8f565b905060005b8851811015611648576000828461154c9190614e39565b90507f88fa4dc6dc84fb056628ddf02c361252f313bcdd951c9d28e3b628bffac8ab558a838151811061158257611581614740565b5b602002602001015182604051611599929190614f0c565b60405180910390a18982815181106115b4576115b3614740565b5b602002602001015173ffffffffffffffffffffffffffffffffffffffff166108fc829081150290604051600060405180830381858888f19350505050158015611601573d6000803e3d6000fd5b508360038d6064811061161757611616614740565b5b600c0201600b01600082825461162d9190614e05565b9250508190555050808061164090614c23565b915050611535565b50600160038b6064811061165f5761165e614740565b5b600c0201600a0160046101000a81548160ff021916908360028111156116885761168761454c565b5b021790555060016104b88b606481106116a4576116a3614740565b5b602091828204019190066101000a81548160ff0219169083151502179055507f346e0fa9e112a7376778dcb0fe0fdfe51db577b3d0b1592a40266db0b192f82260038b606481106116f8576116f7614740565b5b600c0201600a0160049054906101000a900460ff1660405161171a9190614f94565b60405180910390a16104b7600081548092919061173690614fc2565b9190505550600194505050505095945050505050565b6000600160009054906101000a900473ffffffffffffffffffffffffffffffffffffffff1673ffffffffffffffffffffffffffffffffffffffff163373ffffffffffffffffffffffffffffffffffffffff16146117a857600080fd5b826000600382606481106117bf576117be614740565b5b600c0201600a0160059054906101000a900460ff1660ff16146117e157600080fd5b6001600385606481106117f7576117f6614740565b5b600c0201600a0160056101000a81548160ff021916908360ff16021790555060026003856064811061182c5761182b614740565b5b600c0201600a0160046101000a81548160ff021916908360028111156118555761185461454c565b5b021790555060005b8351811015611a5e576000600260009054906101000a900473ffffffffffffffffffffffffffffffffffffffff1673ffffffffffffffffffffffffffffffffffffffff1663b8f9c2a18684815181106118b9576118b8614740565b5b60200260200101516040518263ffffffff1660e01b81526004016118dd9190613ddc565b602060405180830381865afa1580156118fa573d6000803e3d6000fd5b505050506040513d601f19601f8201168201806040525081019061191e9190614dd8565b9050806104b5600087858151811061193957611938614740565b5b602002602001015173ffffffffffffffffffffffffffffffffffffffff1673ffffffffffffffffffffffffffffffffffffffff168152602001908152602001600020600082825461198a9190614e05565b92505081905550600260009054906101000a900473ffffffffffffffffffffffffffffffffffffffff1673ffffffffffffffffffffffffffffffffffffffff166318b529c38684815181106119e2576119e1614740565b5b60200260200101516040518263ffffffff1660e01b8152600401611a069190613ddc565b6020604051808303816000875af1158015611a25573d6000803e3d6000fd5b505050506040513d601f19601f82011682018060405250810190611a499190614dd8565b50508080611a5690614c23565b91505061185d565b5060038460648110611a7357611a72614740565b5b600c020160010160009054906101000a900473ffffffffffffffffffffffffffffffffffffffff1673ffffffffffffffffffffffffffffffffffffffff166108fc60038660648110611ac857611ac7614740565b5b600c0201600b01549081150290604051600060405180830381858888f19350505050158015611afb573d6000803e3d6000fd5b507f346e0fa9e112a7376778dcb0fe0fdfe51db577b3d0b1592a40266db0b192f82260038560648110611b3157611b30614740565b5b600c0201600a0160049054906101000a900460ff16604051611b5391906147cc565b60405180910390a1600191505092915050565b6104b56020528060005260406000206000915090505481565b6060600160009054906101000a900473ffffffffffffffffffffffffffffffffffffffff1673ffffffffffffffffffffffffffffffffffffffff163373ffffffffffffffffffffffffffffffffffffffff1614611bdb57600080fd5b60038260648110611bef57611bee614740565b5b600c02016005018054611c01906148cb565b80601f0160208091040260200160405190810160405280929190818152602001828054611c2d906148cb565b8015611c7a5780601f10611c4f57610100808354040283529160200191611c7a565b820191906000526020600020905b815481529060010190602001808311611c5d57829003601f168201915b50505050509050919050565b600084600060038260648110611c9f57611c9e614740565b5b600c0201600a0160059054906101000a900460ff1660ff1614611cc157600080fd5b600160009054906101000a900473ffffffffffffffffffffffffffffffffffffffff1673ffffffffffffffffffffffffffffffffffffffff163373ffffffffffffffffffffffffffffffffffffffff1614611d1b57600080fd5b7f3691000541ef974fd47bc9eebb3e5c3acc93be77b1a5e07d20477d2193be601985604051611d4a9190615046565b60405180910390a16000845160038860648110611d6a57611d69614740565b5b600c0201600b0154611d7c9190614e8f565b905060005b8551811015611df0577f88fa4dc6dc84fb056628ddf02c361252f313bcdd951c9d28e3b628bffac8ab55868281518110611dbe57611dbd614740565b5b602002602001015183604051611dd5929190614f0c565b60405180910390a18080611de890614c23565b915050611d81565b5060005b8451811015611e8157816104b56000878481518110611e1657611e15614740565b5b602002602001015173ffffffffffffffffffffffffffffffffffffffff1673ffffffffffffffffffffffffffffffffffffffff1681526020019081526020016000206000828254611e679190614e05565b925050819055508080611e7990614c23565b915050611df4565b50600160038860648110611e9857611e97614740565b5b600c0201600a0160046101000a81548160ff02191690836002811115611ec157611ec061454c565b5b021790555060016104b88860648110611edd57611edc614740565b5b602091828204019190066101000a81548160ff0219169083151502179055507f346e0fa9e112a7376778dcb0fe0fdfe51db577b3d0b1592a40266db0b192f82260038860648110611f3157611f30614740565b5b600c0201600a0160049054906101000a900460ff16604051611f539190614f94565b60405180910390a16104b76000815480929190611f6f90614fc2565b9190505550600192505050949350505050565b60006104b460008373ffffffffffffffffffffffffffffffffffffffff1673ffffffffffffffffffffffffffffffffffffffff16815260200190815260200160002060009054906101000a900460ff169050919050565b6104b46020528060005260406000206000915054906101000a900460ff1681565b6003816064811061200a57600080fd5b600c02016000915090508060000154908060010160009054906101000a900473ffffffffffffffffffffffffffffffffffffffff16908060020160009054906101000a900473ffffffffffffffffffffffffffffffffffffffff1690806003018054612075906148cb565b80601f01602080910402602001604051908101604052809291908181526020018280546120a1906148cb565b80156120ee5780601f106120c3576101008083540402835291602001916120ee565b820191906000526020600020905b8154815290600101906020018083116120d157829003601f168201915b505050505090806004018054612103906148cb565b80601f016020809104026020016040519081016040528092919081815260200182805461212f906148cb565b801561217c5780601f106121515761010080835404028352916020019161217c565b820191906000526020600020905b81548152906001019060200180831161215f57829003601f168201915b505050505090806005018054612191906148cb565b80601f01602080910402602001604051908101604052809291908181526020018280546121bd906148cb565b801561220a5780601f106121df5761010080835404028352916020019161220a565b820191906000526020600020905b8154815290600101906020018083116121ed57829003601f168201915b5050505050908060060160009054906101000a900463ffffffff169080600901549080600a0160009054906101000a900463ffffffff169080600a0160049054906101000a900460ff169080600a0160059054906101000a900460ff169080600b015490508c565b600160009054906101000a900473ffffffffffffffffffffffffffffffffffffffff1681565b806104bc82606481106122ae576122ad614740565b5b600402016002015442816104bc84606481106122cd576122cc614740565b5b60040201600101546122df9190614e39565b116122e957600080fd5b826000600160009054906101000a900473ffffffffffffffffffffffffffffffffffffffff1673ffffffffffffffffffffffffffffffffffffffff16639c0daa7c836040518263ffffffff1660e01b81526004016123479190614157565b602060405180830381865afa158015612364573d6000803e3d6000fd5b505050506040513d601f19601f820116820180604052508101906123889190614dd8565b14801561242f5750600160009054906101000a900473ffffffffffffffffffffffffffffffffffffffff1673ffffffffffffffffffffffffffffffffffffffff1663f76b365e82336040518363ffffffff1660e01b81526004016123ed929190615074565b602060405180830381865afa15801561240a573d6000803e3d6000fd5b505050506040513d601f19601f8201168201806040525081019061242e919061480f565b5b61243857600080fd5b6000600160009054906101000a900473ffffffffffffffffffffffffffffffffffffffff1673ffffffffffffffffffffffffffffffffffffffff1663f681ee11866040518263ffffffff1660e01b81526004016124959190614157565b6000604051808303816000875af11580156124b4573d6000803e3d6000fd5b505050506040513d6000823e3d601f19601f820116820180604052508101906124dd9190615149565b905060005b8151811015612595576104bc8660648110612500576124ff614740565b5b6004020160030182828151811061251a57612519614740565b5b60200260200101519080600181540180825580915050600190039060005260206000200160009091909190916101000a81548173ffffffffffffffffffffffffffffffffffffffff021916908373ffffffffffffffffffffffffffffffffffffffff160217905550808061258d90614c23565b9150506124e2565b50426104bc86606481106125ac576125ab614740565b5b600402016001018190555060966104bc86606481106125ce576125cd614740565b5b60040201600201819055507f6a54c2949cfe447c07615c41ee2012ce51a3d9b8acb122e210098f51b2d4798d856104bc87606481106126105761260f614740565b5b60040201600101546104bc886064811061262d5761262c614740565b5b6004020160020154604051612644939291906146c9565b60405180910390a1600160009054906101000a900473ffffffffffffffffffffffffffffffffffffffff1673ffffffffffffffffffffffffffffffffffffffff1663c6d96072866040518263ffffffff1660e01b81526004016126a79190614157565b6020604051808303816000875af11580156126c6573d6000803e3d6000fd5b505050506040513d601f19601f820116820180604052508101906126ea919061480f565b505050505050565b60008054906101000a900473ffffffffffffffffffffffffffffffffffffffff1681565b6000600160009054906101000a900473ffffffffffffffffffffffffffffffffffffffff1673ffffffffffffffffffffffffffffffffffffffff163373ffffffffffffffffffffffffffffffffffffffff161461277257600080fd5b6003826064811061278657612785614740565b5b600c020160060160009054906101000a900463ffffffff169050919050565b6000600115156104b360003373ffffffffffffffffffffffffffffffffffffffff1673ffffffffffffffffffffffffffffffffffffffff16815260200190815260200160002060009054906101000a900460ff1615150361280557600080fd5b670de0b6b3a7640000341461281957600080fd5b600115156104b460003373ffffffffffffffffffffffffffffffffffffffff1673ffffffffffffffffffffffffffffffffffffffff16815260200190815260200160002060009054906101000a900460ff161515151461287857600080fd5b600260009054906101000a900473ffffffffffffffffffffffffffffffffffffffff1673ffffffffffffffffffffffffffffffffffffffff1663df5dd1a5336040518263ffffffff1660e01b81526004016128d39190613ddc565b6020604051808303816000875af11580156128f2573d6000803e3d6000fd5b505050506040513d601f19601f82011682018060405250810190612916919061480f565b5060016104b360003373ffffffffffffffffffffffffffffffffffffffff1673ffffffffffffffffffffffffffffffffffffffff16815260200190815260200160002060006101000a81548160ff021916908315150217905550346104b560003373ffffffffffffffffffffffffffffffffffffffff1673ffffffffffffffffffffffffffffffffffffffff168152602001908152602001600020819055507f2d62108771d82d92634e2d038b6c7f09290edfee5b1443e25299f04a0cfbca72336040516129e491906151de565b60405180910390a16104b360003373ffffffffffffffffffffffffffffffffffffffff1673ffffffffffffffffffffffffffffffffffffffff16815260200190815260200160002060009054906101000a900460ff16905090565b60008060009054906101000a900473ffffffffffffffffffffffffffffffffffffffff1673ffffffffffffffffffffffffffffffffffffffff163373ffffffffffffffffffffffffffffffffffffffff1614612a9a57600080fd5b81600260006101000a81548173ffffffffffffffffffffffffffffffffffffffff021916908373ffffffffffffffffffffffffffffffffffffffff16021790555060019050919050565b6104bc8160648110612af557600080fd5b600402016000915090508060000154908060010154908060020154905083565b60008060009054906101000a900473ffffffffffffffffffffffffffffffffffffffff1673ffffffffffffffffffffffffffffffffffffffff163373ffffffffffffffffffffffffffffffffffffffff1614612b7057600080fd5b81600160006101000a81548173ffffffffffffffffffffffffffffffffffffffff021916908373ffffffffffffffffffffffffffffffffffffffff16021790555060019050919050565b6000600115156104b360003373ffffffffffffffffffffffffffffffffffffffff1673ffffffffffffffffffffffffffffffffffffffff16815260200190815260200160002060009054906101000a900460ff16151514612c1a57600080fd5b81600060038260648110612c3157612c30614740565b5b600c0201600a0160059054906101000a900460ff1660ff1614612c5357600080fd5b8260038160648110612c6857612c67614740565b5b600c020160060160009054906101000a900463ffffffff1663ffffffff1660038260648110612c9a57612c99614740565b5b600c0201600a0160009054906101000a900463ffffffff1663ffffffff1610612cc257600080fd5b600115156104b460003373ffffffffffffffffffffffffffffffffffffffff1673ffffffffffffffffffffffffffffffffffffffff16815260200190815260200160002060009054906101000a900460ff1615151514612d2157600080fd5b8361064f546104bc8260648110612d3b57612d3a614740565b5b6004020160010154612d4d9190614e39565b4210612d5857600080fd5b600160038660648110612d6e57612d6d614740565b5b600c020160070160003373ffffffffffffffffffffffffffffffffffffffff1673ffffffffffffffffffffffffffffffffffffffff16815260200190815260200160002060006101000a81548160ff0219169083151502179055503360038660648110612dde57612ddd614740565b5b600c0201600801600060038860648110612dfb57612dfa614740565b5b600c0201600a0160009054906101000a900463ffffffff1663ffffffff1663ffffffff16815260200190815260200160002060006101000a81548173ffffffffffffffffffffffffffffffffffffffff021916908373ffffffffffffffffffffffffffffffffffffffff16021790555060038560648110612e7f57612e7e614740565b5b600c0201600a01600081819054906101000a900463ffffffff1680929190612ea69061520c565b91906101000a81548163ffffffff021916908363ffffffff160217905550507fe677a6b9a16a696674f50d2c98a1ce8c5cb51d6b48a0223412c512bbc93664d533604051612ef49190613ddc565b60405180910390a160038560648110612f1057612f0f614740565b5b600c0201600a0160009054906101000a900463ffffffff1663ffffffff1660038660648110612f4257612f41614740565b5b600c020160060160009054906101000a900463ffffffff1663ffffffff1603612ff8577f2510e6950be86d6001a0b1229da4c21fa8e26b6bcf345d0b348fe42894fceb0360038660648110612f9a57612f99614740565b5b600c02016000015460038760648110612fb657612fb5614740565b5b600c020160040160038860648110612fd157612fd0614740565b5b600c0201600501604051612fe793929190615238565b60405180910390a160019350613049565b6104b360003373ffffffffffffffffffffffffffffffffffffffff1673ffffffffffffffffffffffffffffffffffffffff16815260200190815260200160002060009054906101000a900460ff1693505b505050919050565b6000600115156104b360003373ffffffffffffffffffffffffffffffffffffffff1673ffffffffffffffffffffffffffffffffffffffff16815260200190815260200160002060009054906101000a900460ff161515146130b157600080fd5b60006104b560003373ffffffffffffffffffffffffffffffffffffffff1673ffffffffffffffffffffffffffffffffffffffff16815260200190815260200160002054116130fe57600080fd5b600115156104b460003373ffffffffffffffffffffffffffffffffffffffff1673ffffffffffffffffffffffffffffffffffffffff16815260200190815260200160002060009054906101000a900460ff161515151461315d57600080fd5b6001600260009054906101000a900473ffffffffffffffffffffffffffffffffffffffff1673ffffffffffffffffffffffffffffffffffffffff16630855078b336040518263ffffffff1660e01b81526004016131ba9190613ddc565b602060405180830381865afa1580156131d7573d6000803e3d6000fd5b505050506040513d601f19601f820116820180604052508101906131fb9190614dd8565b111561325b5760016104b460003373ffffffffffffffffffffffffffffffffffffffff1673ffffffffffffffffffffffffffffffffffffffff16815260200190815260200160002060006101000a81548160ff0219169083151502179055505b6104b360003373ffffffffffffffffffffffffffffffffffffffff1673ffffffffffffffffffffffffffffffffffffffff16815260200190815260200160002060006101000a81549060ff02191690553373ffffffffffffffffffffffffffffffffffffffff166108fc6104b560003373ffffffffffffffffffffffffffffffffffffffff1673ffffffffffffffffffffffffffffffffffffffff168152602001908152602001600020549081150290604051600060405180830381858888f19350505050158015613331573d6000803e3d6000fd5b5060006104b560003373ffffffffffffffffffffffffffffffffffffffff1673ffffffffffffffffffffffffffffffffffffffff168152602001908152602001600020819055507f14951d787e2aaf7813982720871de23d576e7d935c0587e12a7fc2c4c960165a336040516133a791906152c9565b60405180910390a16001905090565b6000600160009054906101000a900473ffffffffffffffffffffffffffffffffffffffff1673ffffffffffffffffffffffffffffffffffffffff163373ffffffffffffffffffffffffffffffffffffffff161461341257600080fd5b6003836064811061342657613425614740565b5b600c020160070160008373ffffffffffffffffffffffffffffffffffffffff1673ffffffffffffffffffffffffffffffffffffffff16815260200190815260200160002060009054906101000a900460ff16905092915050565b6104b36020528060005260406000206000915054906101000a900460ff1681565b80600381606481106134b6576134b5614740565b5b600c020160010160009054906101000a900473ffffffffffffffffffffffffffffffffffffffff1673ffffffffffffffffffffffffffffffffffffffff163373ffffffffffffffffffffffffffffffffffffffff161461351557600080fd5b816104bc836064811061352b5761352a614740565b5b600402016002015442816104bc846064811061354a57613549614740565b5b600402016001015461355c9190614e39565b1161356657600080fd5b60016003856064811061357c5761357b614740565b5b600c0201600a0160056101000a81548160ff021916908360ff160217905550600384606481106135af576135ae614740565b5b600c020160010160009054906101000a900473ffffffffffffffffffffffffffffffffffffffff1673ffffffffffffffffffffffffffffffffffffffff166108fc6003866064811061360457613603614740565b5b600c0201600b01549081150290604051600060405180830381858888f19350505050158015613637573d6000803e3d6000fd5b50600160009054906101000a900473ffffffffffffffffffffffffffffffffffffffff1673ffffffffffffffffffffffffffffffffffffffff16633015394c856040518263ffffffff1660e01b81526004016136939190614157565b6020604051808303816000875af11580156136b2573d6000803e3d6000fd5b505050506040513d601f19601f820116820180604052508101906136d6919061480f565b506002600385606481106136ed576136ec614740565b5b600c0201600a0160046101000a81548160ff021916908360028111156137165761371561454c565b5b02179055507f346e0fa9e112a7376778dcb0fe0fdfe51db577b3d0b1592a40266db0b192f822600385606481106137505761374f614740565b5b600c0201600a0160049054906101000a900460ff1660405161377291906147cc565b60405180910390a150505050565b8060018060009054906101000a900473ffffffffffffffffffffffffffffffffffffffff1673ffffffffffffffffffffffffffffffffffffffff16639c0daa7c836040518263ffffffff1660e01b81526004016137dd9190614157565b602060405180830381865afa1580156137fa573d6000803e3d6000fd5b505050506040513d601f19601f8201168201806040525081019061381e9190614dd8565b1480156138c55750600160009054906101000a900473ffffffffffffffffffffffffffffffffffffffff1673ffffffffffffffffffffffffffffffffffffffff16632d214d2e82336040518363ffffffff1660e01b8152600401613883929190615074565b602060405180830381865afa1580156138a0573d6000803e3d6000fd5b505050506040513d601f19601f820116820180604052508101906138c4919061480f565b5b801561396c57506000600160009054906101000a900473ffffffffffffffffffffffffffffffffffffffff1673ffffffffffffffffffffffffffffffffffffffff1663ba26ed59836040518263ffffffff1660e01b81526004016139299190614157565b602060405180830381865afa158015613946573d6000803e3d6000fd5b505050506040513d601f19601f8201168201806040525081019061396a9190614dd8565b145b61397557600080fd5b816104bc836064811061398b5761398a614740565b5b600402016002015442816104bc84606481106139aa576139a9614740565b5b60040201600101546139bc9190614e39565b116139c657600080fd5b6000600160009054906101000a900473ffffffffffffffffffffffffffffffffffffffff1673ffffffffffffffffffffffffffffffffffffffff166319ff76c0866040518263ffffffff1660e01b8152600401613a239190614157565b6000604051808303816000875af1158015613a42573d6000803e3d6000fd5b505050506040513d6000823e3d601f19601f82011682018060405250810190613a6b9190615149565b905060005b8151811015613b23576104bc8660648110613a8e57613a8d614740565b5b60040201600301828281518110613aa857613aa7614740565b5b60200260200101519080600181540180825580915050600190039060005260206000200160009091909190916101000a81548173ffffffffffffffffffffffffffffffffffffffff021916908373ffffffffffffffffffffffffffffffffffffffff1602179055508080613b1b90614c23565b915050613a70565b50600160009054906101000a900473ffffffffffffffffffffffffffffffffffffffff1673ffffffffffffffffffffffffffffffffffffffff16634a6271528660038860648110613b7757613b76614740565b5b600c0201600901546040518363ffffffff1660e01b8152600401613b9c9291906152f7565b6020604051808303816000875af1158015613bbb573d6000803e3d6000fd5b505050506040513d601f19601f82011682018060405250810190613bdf919061480f565b505050505050565b6000600160009054906101000a900473ffffffffffffffffffffffffffffffffffffffff1673ffffffffffffffffffffffffffffffffffffffff163373ffffffffffffffffffffffffffffffffffffffff1614613c4357600080fd5b60038260648110613c5757613c56614740565b5b600c0201600901549050919050565b6000600260009054906101000a900473ffffffffffffffffffffffffffffffffffffffff1673ffffffffffffffffffffffffffffffffffffffff163373ffffffffffffffffffffffffffffffffffffffff1614613cc257600080fd5b60016104b460008473ffffffffffffffffffffffffffffffffffffffff1673ffffffffffffffffffffffffffffffffffffffff16815260200190815260200160002060006101000a81548160ff0219169083151502179055506104b460008373ffffffffffffffffffffffffffffffffffffffff1673ffffffffffffffffffffffffffffffffffffffff16815260200190815260200160002060009054906101000a900460ff169050919050565b6104b88160648110613d8157600080fd5b60209182820401919006915054906101000a900460ff1681565b600073ffffffffffffffffffffffffffffffffffffffff82169050919050565b6000613dc682613d9b565b9050919050565b613dd681613dbb565b82525050565b6000602082019050613df16000830184613dcd565b92915050565b6000604051905090565b600080fd5b600080fd5b6000819050919050565b613e1e81613e0b565b8114613e2957600080fd5b50565b600081359050613e3b81613e15565b92915050565b600060208284031215613e5757613e56613e01565b5b6000613e6584828501613e2c565b91505092915050565b60008115159050919050565b613e8381613e6e565b82525050565b6000602082019050613e9e6000830184613e7a565b92915050565b613ead81613dbb565b8114613eb857600080fd5b50565b600081359050613eca81613ea4565b92915050565b600080fd5b600080fd5b6000601f19601f8301169050919050565b7f4e487b7100000000000000000000000000000000000000000000000000000000600052604160045260246000fd5b613f2382613eda565b810181811067ffffffffffffffff82111715613f4257613f41613eeb565b5b80604052505050565b6000613f55613df7565b9050613f618282613f1a565b919050565b600067ffffffffffffffff821115613f8157613f80613eeb565b5b613f8a82613eda565b9050602081019050919050565b82818337600083830152505050565b6000613fb9613fb484613f66565b613f4b565b905082815260208101848484011115613fd557613fd4613ed5565b5b613fe0848285613f97565b509392505050565b600082601f830112613ffd57613ffc613ed0565b5b813561400d848260208601613fa6565b91505092915050565b600063ffffffff82169050919050565b61402f81614016565b811461403a57600080fd5b50565b60008135905061404c81614026565b92915050565b600080600080600080600060e0888a03121561407157614070613e01565b5b600061407f8a828b01613ebb565b975050602088013567ffffffffffffffff8111156140a05761409f613e06565b5b6140ac8a828b01613fe8565b965050604088013567ffffffffffffffff8111156140cd576140cc613e06565b5b6140d98a828b01613fe8565b955050606088013567ffffffffffffffff8111156140fa576140f9613e06565b5b6141068a828b01613fe8565b94505060806141178a828b01613e2c565b93505060a06141288a828b0161403d565b92505060c06141398a828b01613e2c565b91505092959891949750929550565b61415181613e0b565b82525050565b600060208201905061416c6000830184614148565b92915050565b61417b81613e6e565b811461418657600080fd5b50565b60008135905061419881614172565b92915050565b600067ffffffffffffffff8211156141b9576141b8613eeb565b5b602082029050602081019050919050565b600080fd5b60006141e26141dd8461419e565b613f4b565b90508083825260208201905060208402830185811115614205576142046141ca565b5b835b8181101561422e578061421a8882613ebb565b845260208401935050602081019050614207565b5050509392505050565b600082601f83011261424d5761424c613ed0565b5b813561425d8482602086016141cf565b91505092915050565b600080600080600060a0868803121561428257614281613e01565b5b600061429088828901613e2c565b95505060206142a188828901614189565b945050604086013567ffffffffffffffff8111156142c2576142c1613e06565b5b6142ce88828901614238565b935050606086013567ffffffffffffffff8111156142ef576142ee613e06565b5b6142fb88828901614238565b925050608086013567ffffffffffffffff81111561431c5761431b613e06565b5b61432888828901614238565b9150509295509295909350565b6000806040838503121561434c5761434b613e01565b5b600061435a85828601613e2c565b925050602083013567ffffffffffffffff81111561437b5761437a613e06565b5b61438785828601614238565b9150509250929050565b6000602082840312156143a7576143a6613e01565b5b60006143b584828501613ebb565b91505092915050565b600081519050919050565b600082825260208201905092915050565b60005b838110156143f85780820151818401526020810190506143dd565b83811115614407576000848401525b50505050565b6000614418826143be565b61442281856143c9565b93506144328185602086016143da565b61443b81613eda565b840191505092915050565b60006020820190508181036000830152614460818461440d565b905092915050565b6000819050919050565b61447b81614468565b811461448657600080fd5b50565b60008135905061449881614472565b92915050565b600080600080608085870312156144b8576144b7613e01565b5b60006144c687828801613e2c565b94505060206144d787828801614489565b935050604085013567ffffffffffffffff8111156144f8576144f7613e06565b5b61450487828801614238565b925050606085013567ffffffffffffffff81111561452557614524613e06565b5b61453187828801614238565b91505092959194509250565b61454681614016565b82525050565b7f4e487b7100000000000000000000000000000000000000000000000000000000600052602160045260246000fd5b6003811061458c5761458b61454c565b5b50565b600081905061459d8261457b565b919050565b60006145ad8261458f565b9050919050565b6145bd816145a2565b82525050565b600060ff82169050919050565b6145d9816145c3565b82525050565b6000610180820190506145f5600083018f614148565b614602602083018e613dcd565b61460f604083018d613dcd565b8181036060830152614621818c61440d565b90508181036080830152614635818b61440d565b905081810360a0830152614649818a61440d565b905061465860c083018961453d565b61466560e0830188614148565b61467361010083018761453d565b6146816101208301866145b4565b61468f6101408301856145d0565b61469d610160830184614148565b9d9c50505050505050505050505050565b60006020820190506146c3600083018461453d565b92915050565b60006060820190506146de6000830186614148565b6146eb6020830185614148565b6146f86040830184614148565b949350505050565b6000806040838503121561471757614716613e01565b5b600061472585828601613e2c565b925050602061473685828601613ebb565b9150509250929050565b7f4e487b7100000000000000000000000000000000000000000000000000000000600052603260045260246000fd5b600082825260208201905092915050565b7f43414e43454c4c45440000000000000000000000000000000000000000000000600082015250565b60006147b660098361476f565b91506147c182614780565b602082019050919050565b60006040820190506147e160008301846145b4565b81810360208301526147f2816147a9565b905092915050565b60008151905061480981614172565b92915050565b60006020828403121561482557614824613e01565b5b6000614833848285016147fa565b91505092915050565b7f4e487b7100000000000000000000000000000000000000000000000000000000600052601260045260246000fd5b600061487682614016565b915061488183614016565b9250826148915761489061483c565b5b828206905092915050565b7f4e487b7100000000000000000000000000000000000000000000000000000000600052602260045260246000fd5b600060028204905060018216806148e357607f821691505b6020821081036148f6576148f561489c565b5b50919050565b60008190508160005260206000209050919050565b60006020601f8301049050919050565b600082821b905092915050565b60006008830261495e7fffffffffffffffffffffffffffffffffffffffffffffffffffffffffffffffff82614921565b6149688683614921565b95508019841693508086168417925050509392505050565b6000819050919050565b60006149a56149a061499b84613e0b565b614980565b613e0b565b9050919050565b6000819050919050565b6149bf8361498a565b6149d36149cb826149ac565b84845461492e565b825550505050565b600090565b6149e86149db565b6149f38184846149b6565b505050565b5b81811015614a1757614a0c6000826149e0565b6001810190506149f9565b5050565b601f821115614a5c57614a2d816148fc565b614a3684614911565b81016020851015614a45578190505b614a59614a5185614911565b8301826149f8565b50505b505050565b600082821c905092915050565b6000614a7f60001984600802614a61565b1980831691505092915050565b6000614a988383614a6e565b9150826002028217905092915050565b614ab1826143be565b67ffffffffffffffff811115614aca57614ac9613eeb565b5b614ad482546148cb565b614adf828285614a1b565b600060209050601f831160018114614b125760008415614b00578287015190505b614b0a8582614a8c565b865550614b72565b601f198416614b20866148fc565b60005b82811015614b4857848901518255600182019150602085019450602081019050614b23565b86831015614b655784890151614b61601f891682614a6e565b8355505b6001600288020188555050505b505050505050565b7f50454e44494e4700000000000000000000000000000000000000000000000000600082015250565b6000614bb060078361476f565b9150614bbb82614b7a565b602082019050919050565b6000604082019050614bdb60008301846145b4565b8181036020830152614bec81614ba3565b905092915050565b7f4e487b7100000000000000000000000000000000000000000000000000000000600052601160045260246000fd5b6000614c2e82613e0b565b91507fffffffffffffffffffffffffffffffffffffffffffffffffffffffffffffffff8203614c6057614c5f614bf4565b5b600182019050919050565b60008154614c78816148cb565b614c8281866143c9565b94506001821660008114614c9d5760018114614cb357614ce6565b60ff198316865281151560200286019350614ce6565b614cbc856148fc565b60005b83811015614cde57815481890152600182019150602081019050614cbf565b808801955050505b50505092915050565b600060a082019050614d046000830188614148565b8181036020830152614d168187614c6b565b9050614d256040830186614148565b614d326060830185614148565b614d3f6080830184614148565b9695505050505050565b7f207468652066696e616c20726573756c74000000000000000000000000000000600082015250565b6000614d7f60118361476f565b9150614d8a82614d49565b602082019050919050565b6000604082019050614daa6000830184613e7a565b8181036020830152614dbb81614d72565b905092915050565b600081519050614dd281613e15565b92915050565b600060208284031215614dee57614ded613e01565b5b6000614dfc84828501614dc3565b91505092915050565b6000614e1082613e0b565b9150614e1b83613e0b565b925082821015614e2e57614e2d614bf4565b5b828203905092915050565b6000614e4482613e0b565b9150614e4f83613e0b565b9250827fffffffffffffffffffffffffffffffffffffffffffffffffffffffffffffffff03821115614e8457614e83614bf4565b5b828201905092915050565b6000614e9a82613e0b565b9150614ea583613e0b565b925082614eb557614eb461483c565b5b828204905092915050565b7f4f7261636c6520686173206265656e2050616964210000000000000000000000600082015250565b6000614ef660158361476f565b9150614f0182614ec0565b602082019050919050565b6000606082019050614f216000830185613dcd565b614f2e6020830184614148565b8181036040830152614f3f81614ee9565b90509392505050565b7f434f4d504c455445000000000000000000000000000000000000000000000000600082015250565b6000614f7e60088361476f565b9150614f8982614f48565b602082019050919050565b6000604082019050614fa960008301846145b4565b8181036020830152614fba81614f71565b905092915050565b6000614fcd82613e0b565b915060008203614fe057614fdf614bf4565b5b600182039050919050565b614ff481614468565b82525050565b7f7468652066696e616c20726573756c7400000000000000000000000000000000600082015250565b600061503060108361476f565b915061503b82614ffa565b602082019050919050565b600060408201905061505b6000830184614feb565b818103602083015261506c81615023565b905092915050565b60006040820190506150896000830185614148565b6150966020830184613dcd565b9392505050565b6000815190506150ac81613ea4565b92915050565b60006150c56150c08461419e565b613f4b565b905080838252602082019050602084028301858111156150e8576150e76141ca565b5b835b8181101561511157806150fd888261509d565b8452602084019350506020810190506150ea565b5050509392505050565b600082601f8301126151305761512f613ed0565b5b81516151408482602086016150b2565b91505092915050565b60006020828403121561515f5761515e613e01565b5b600082015167ffffffffffffffff81111561517d5761517c613e06565b5b6151898482850161511b565b91505092915050565b7f57656c636f6d65206e6577206e6f646521000000000000000000000000000000600082015250565b60006151c860118361476f565b91506151d382615192565b602082019050919050565b60006040820190506151f36000830184613dcd565b8181036020830152615204816151bb565b905092915050565b600061521782614016565b915063ffffffff820361522d5761522c614bf4565b5b600182019050919050565b600060608201905061524d6000830186614148565b818103602083015261525f8185614c6b565b905081810360408301526152738184614c6b565b9050949350505050565b7f4e6f646520686173206c6566742c20476f6f6462796500000000000000000000600082015250565b60006152b360168361476f565b91506152be8261527d565b602082019050919050565b60006040820190506152de6000830184613dcd565b81810360208301526152ef816152a6565b905092915050565b600060408201905061530c6000830185614148565b6153196020830184614148565b939250505056fea2646970667358221220dfb7129c4ac41e025fceae33b67406c29f37de523d0434f24666f92f9c88ebb364736f6c634300080f0033",
  "immutableReferences": {},
  "source": "// SPDX-License-Identifier: MIT\npragma solidity ^0.8.0;\n\nimport \"./AggregatorContract.sol\";\nimport \"./ReputationContract.sol\";\n\ncontract OracleRequestContract {\n    //address that deploys contract\n    address public owner;\n    // address of aggregator contract\n    address public aggregatorAddr;\n    // address of reputation contract\n    address public reputationAddr;\n    // Array to populate with requests that come in\n    Request[100] public requests;\n    // all mappings of oracles that have joined network\n    mapping (address => bool) public oracles;\n    // mapping of blacklisted oracles (who's ratings exceed 10)\n    mapping (address => bool) public blacklistedOracles;\n    // stakeBalance of each node, should be equal to 1 eth\n    mapping (address => uint) public stakeBalance;\n    // request and and pending counters, pending decreased when status changed to COMPLETE\n    uint requestCounter = 1;\n    uint pendingCounter = 1;\n    // Status logs for each request\n    enum Status{PENDING, COMPLETE, CANCELLED}\n    struct Timings {\n        uint appealFlag;\n        uint timestamp;\n        uint elapsedTime;\n        address[] timedOutOracles;\n    }\n    // a single Request structure\n    struct Request {\n        uint256 requestID; //Id for each request\n        address requester; // address which made the request\n        address callbackAddress; // an address in which the response can be delivered to\n        bytes callbackFID; // a function in the callback address that can be called\n        bytes IoTID; // the ID of the IoT the user-SC wishes to gather data from\n        bytes dataType; // data type, JSON that is decoded by the oracle node that will collect the data\n        // bytes32 pHash; // a hash of the data type and the actual result required.\n        //bytes requiredResult; // left this out for security reason, we only apply it to the hash\n        uint32 numberOfOracles; // number of oracles needed to fetch the data\n        mapping (address => bool) oraclesForRequest; // must be true in order for oracle node to participate\n        mapping (uint32 => address) oracleAddressAccess; // mapping so we can iterate through addresses\n        uint256 aggregationType;\n        uint32 oracleCounter; // index and counter for the number of oracles\n        Status status; // status of the request\n        uint8 cancelFlag; // cancel flag, if == 1 then do not continue with request\n        uint fee; // fee sent to cover costs and extra for fetch the data\n\n    }\n\n    bool[100] public completedRequests;// true for each requestID once status changes to complete.\n    Timings[100] public timings;\n    event OpenForBids(uint256, bytes, uint256, uint, uint); // tells oracle nodes there is a request that needs bidding on\n    event BidPlaced(address); // tells nodes that a bid has been placed by another node\n    event ReleaseRequestDetails(uint256, bytes, bytes); // the details the node needs to gather\n    event StatusChange(Status, string); // tells nodes in network of status change of requests\n    event OracleJoined(address, string); // tells network that a new oracle has joined the network\n    event OracleLeft(address, string); // tells the network that another oracle has left\n    event OraclePaid(address, uint, string); // tells the network when an oracle has been paid for its services\n    event Logging(string);\n    event FinalResultLog(bool, string);\n    event FinalInt(int256, string);\n    event UpdateTimestamp(uint256, uint256, uint256);\n    // ***payments***\n    uint GAS_PRICE = 2 * 10**10; // cost of gas\n    uint FEE = GAS_PRICE * 3; // fee to cover other function calls and pay each oracle\n    uint MIN_FEE = FEE + (GAS_PRICE * 5); // minimum needed to cover all costs\n    uint TIMER_ELAPSED_BIDDING = 300;\n\n    // @notice constructor when first deployed\n    constructor() {\n        owner = msg.sender; // set the owner of the contract to the address that deploys it\n    }\n    // @notice used if eth is sent to an invalid function etc\n    fallback() external{}\n\n    // @notice function called by addresses of Off-chain Oracle nodes that want to join the network\n    // @return bool, true if successful otherwise reverts\n    function joinAsOracle()\n    public\n    payable\n    oracleNotJoined()\n    valueEqual1Eth()\n    isNotBlacklisted()\n    //oracleCannotRejoin()\n    returns(bool){\n        ReputationContract(reputationAddr).addOracle(msg.sender);\n        oracles[address(msg.sender)] = true; // set to true as is now in network\n        stakeBalance[msg.sender] = msg.value; // added value to stakeBalance as a record\n        emit OracleJoined(msg.sender, \"Welcome new node!\"); // emit event so listeners can be notified\n        return oracles[address(msg.sender)]; // return true\n    }\n    // @notice oracle node calls this function when they wish to leave network\n    // @return bool\n    function leaveOracleNetwork()\n    public\n    oracleHasJoined()\n    stakeCheck()\n    isNotBlacklisted()\n    returns(bool) {\n        if (ReputationContract(reputationAddr).getOracleRating(msg.sender) > 1 ){\n            blacklistedOracles[msg.sender] = true; // allows oracle nodes with penalties to leave, but cannot rejoin\n        }\n        delete oracles[msg.sender]; // deletes address from mapping\n        payable(msg.sender).transfer(stakeBalance[msg.sender]); // transfers their stake back to them\n        stakeBalance[msg.sender] = 0; // set stakeBalance back to 0 for the oracle node\n        emit OracleLeft(msg.sender, \"Node has left, Goodbye\"); // emit event so listeners can be notified\n        return true; // return true to confirm\n    }\n\n    // @notice user can call function create request\n    // @dev\n    // @param _callbackAddress could be different to address that called the function\n    // @param _callbackFID a particular function in a smart contract that is needed to be called based on request\n    // @param _IoTID the identifier of the IoT device oracle node will be subscribing to\n    // @param _dataType, true false answer, an event, continuous data over time?\n    // @param _aggregationType 1 = voting, 2 = averaging\n    // @param _numberOfOracles number of oracle nodes that fetch IoT data\n    // @return the requestID so the user can keep track of request\n    function createRequest(\n        address _callbackAddress,\n        bytes memory _callbackFID,\n        bytes memory _IoTID,\n        bytes memory _dataType,\n        uint256 _aggregationType,\n        uint32 _numberOfOracles,\n        uint _elapsedTime) // time required\n    external\n    payable\n    valueGTMinFeeCheck() // requires the value sent is >= MIN_FEE\n    oddNumOracles(_numberOfOracles) // requires an odd number of oracles\n    aggregationTypeCheck(_aggregationType) // 1 = voting, 2 = averaging\n    returns(uint256)\n    {\n\n        uint256 requestID = requestCounter; // assign id to request\n        timings[requestID].timestamp = block.timestamp;\n        timings[requestID].elapsedTime = _elapsedTime;\n        // log details of the request to array to cross reference later\n        requests[requestID].requestID = requestID;\n        requests[requestID].requester = msg.sender;\n        requests[requestID].callbackAddress = _callbackAddress;\n        requests[requestID].callbackFID = _callbackFID;\n        requests[requestID].IoTID = _IoTID;\n        requests[requestID].dataType = _dataType;\n        requests[requestID].numberOfOracles = _numberOfOracles;\n        requests[requestID].oracleCounter = 0;\n        requests[requestID].status = Status.PENDING;\n        requests[requestID].cancelFlag = 0;\n        requests[requestID].fee = msg.value; // keeps track of the fee for the request\n        requests[requestID].aggregationType = _aggregationType;\n        emit StatusChange(requests[requestID].status, \"PENDING\"); // tells nodes in network of status change of requests\n        // increment requestId ready for next create request function.\n        requestCounter++;\n        pendingCounter++;\n        emit OpenForBids(requestID, requests[requestID].dataType, requests[requestID].aggregationType,\n            timings[requestID].timestamp, timings[requestID].elapsedTime);\n        return requestID;\n    }\n    // @notice\n    function timeoutCommitsAppeal(uint256 _requestID)\n    timeHasElapsed(_requestID, timings[_requestID].elapsedTime)\n    onlySubmittedCommitsOracles(_requestID)\n    external\n    {\n        // call get un-responded nodes\n        address[] memory unRespondedNodes = AggregatorContract(aggregatorAddr).getUnRespondedCommitOracles(_requestID);\n        for (uint i=0; i<unRespondedNodes.length; i++) {\n            timings[_requestID].timedOutOracles.push(unRespondedNodes[i]);\n        }\n        timings[_requestID].timestamp = block.timestamp; // reset timestamp\n        timings[_requestID].elapsedTime = 150; // allow for 2.5 min send a reveal message\n        emit UpdateTimestamp(_requestID, timings[_requestID].timestamp, timings[_requestID].elapsedTime);\n        AggregatorContract(aggregatorAddr).forceCommitsPlaced(_requestID);\n    }\n\n    function timeoutRevealsAppeal(uint _requestID)\n    onlySubmittedRevealsOracles(_requestID)\n    timeHasElapsed(_requestID, timings[_requestID].elapsedTime)\n    external\n    {\n        address[] memory unRespondedNodes = AggregatorContract(aggregatorAddr).getUnRespondedRevealOracles(_requestID);\n        for (uint i=0; i<unRespondedNodes.length; i++) {\n            timings[_requestID].timedOutOracles.push(unRespondedNodes[i]);\n        }\n        AggregatorContract(aggregatorAddr).forceRevealsPlaced(_requestID, requests[_requestID].aggregationType);\n    }\n\n    function timeoutBiddingAppeal(uint _requestID)\n    onlyRequester(_requestID)\n    timeHasElapsed(_requestID, timings[_requestID].elapsedTime)\n    external\n    {\n        requests[_requestID].cancelFlag = 1;\n        payable(requests[_requestID].requester).transfer(requests[_requestID].fee);\n        AggregatorContract(aggregatorAddr).cancelRequest(_requestID);\n        requests[_requestID].status = Status.CANCELLED;\n        emit StatusChange(requests[_requestID].status, \"CANCELLED\");\n    }\n\n    // @notice off-chain oracle node places bid to fetch data, once threshold is reached, emits event details.\n    // @dev\n    // @param requestId oracle node wishes to bid on\n    // @return true to indicate bid successful\n    function placeBid(\n        uint256 _requestID)\n    public\n    oracleHasJoined() // requires that the oracle is in the network\n    cancelFlagZero(_requestID) // requires requests cancel flag is zero\n    orcCountLessThanNum(_requestID) // requires that the oracle counter is still les than the number of oracles needed\n    isNotBlacklisted() // requires the oracle has not exceed its penalty rating past 10\n    biddingTimeElapsed(_requestID)\n    returns(bool)\n    {\n        requests[_requestID].oraclesForRequest[msg.sender] = true; // add true for oracle in request so we know they can vote\n        requests[_requestID].oracleAddressAccess[requests[_requestID].oracleCounter] = address(msg.sender); // map addr for iteration\n        requests[_requestID].oracleCounter++; // increment the counter\n        emit BidPlaced(msg.sender); // send message to network that a bid has been placed\n        if (requests[_requestID].numberOfOracles == requests[_requestID].oracleCounter) {\n            // when the last oracle has submitted, we can emit the details\n            emit ReleaseRequestDetails(\n                requests[_requestID].requestID, // requestID\n                requests[_requestID].IoTID, // IoT info, this is most of importance\n                requests[_requestID].dataType); // DataType\n            return true; // returns true to show completion of the bidding phase that is now over\n        }\n        return oracles[msg.sender]; // returns true for each oracle that bids\n    }\n\n    // @notice called by aggregator contract to deliver final response\n    // @param _requestID, id of request\n    // @param _finalResult, final aggregated result\n    // @param _correctOracles, array of addresses of oracles to be paid for their work\n    function deliverVoteResponse(\n        uint256 _requestID,\n        bool _finalResult,\n        address[] memory _correctOracles,\n        address[] memory _incorrectOracles,\n        address[] memory _incorrectRevealOracles) // do not penalise\n    public\n    cancelFlagZero(_requestID) // requires that the cancelFlag is = 0\n    onlyAggregator() // only the aggregator contract can call this function\n    returns(bool)\n    {\n        // return single aggregation result\n        emit FinalResultLog(_finalResult, \" the final result\");\n        _finalResult;\n\n        uint slashedRewards = 0; //pay honest nodes fees from the slashing\n        // pay fees\n        for (uint i=0; i<timings[_requestID].timedOutOracles.length; i++) {\n            uint penalty = ReputationContract(reputationAddr).getPenaltyFee(_incorrectOracles[i]);\n            stakeBalance[_incorrectOracles[i]] -= penalty;\n            slashedRewards += penalty;\n            ReputationContract(reputationAddr).incrementRating(_incorrectOracles[i]);\n        }\n        // add penalties and slash dishonest nodes stake\n        for (uint i=0; i<_incorrectOracles.length; i++){\n            // gets penalty fee from reputation contract penalty**rating\n            uint penalty = ReputationContract(reputationAddr).getPenaltyFee(_incorrectOracles[i]);\n            stakeBalance[_incorrectOracles[i]] -= penalty;\n            slashedRewards += penalty;\n            ReputationContract(reputationAddr).incrementRating(_incorrectOracles[i]);\n        }\n        // small penalty for incorrect hashes, as this could be an error\n        for (uint i=0; i<_incorrectRevealOracles.length; i++) {\n\n            uint penalty = ReputationContract(reputationAddr).getPenaltyFee(_incorrectOracles[i]); // charge the fee of the request as a penalty\n            slashedRewards += penalty;\n            stakeBalance[_incorrectRevealOracles[i]] += penalty; // deducted from oracle stake\n        }\n        uint fee = requests[_requestID].fee / _correctOracles.length;\n        uint slashShare = slashedRewards / _correctOracles.length;\n        for (uint i=0; i<_correctOracles.length; i++) {\n            // pay each share to each oracle\n            uint fullReward = fee + slashShare;\n\n            emit OraclePaid(_correctOracles[i], fullReward, \"Oracle has been Paid!\"); // tells listeners oracle node has been paid\n            payable(_correctOracles[i]).transfer(fullReward); // pays oracle their fee\n            requests[_requestID].fee -= fee; // deduct the oracles portion from the logged amount until it reaches 0\n            // and all oracles have been paid\n        }\n        requests[_requestID].status = Status.COMPLETE; // request is complete\n        completedRequests[_requestID] = true; // add request id to completedRequests\n        emit StatusChange(requests[_requestID].status, \"COMPLETE\"); // tell listeners that the status has changed\n        pendingCounter--; // no longer pending so countered can be decremented\n        return true; // return true to so it has finished\n    }\n\n    // @notice called by aggregator contract to deliver final response\n    // @param _requestID, id of request\n    // @param _finalResult, final aggregated result\n    // @param _correctOracles, array of addresses of oracles to be paid for their work\n    function deliverAverageResponse(\n        uint256 _requestID,\n        int256 _finalResult,\n        address[] memory _correctOracles,\n        address[] memory _incorrectOracles)\n        // address[] memory _incorrectOracles,\n        // address[] memory _incorrectRevealOracles) // do not penalise\n    public\n    cancelFlagZero(_requestID) // requires that the cancelFlag is = 0\n    onlyAggregator() // only the aggregator contract can call this function\n    returns(bool)\n    {\n        // return single aggregation result\n        emit FinalInt(_finalResult, \"the final result\");\n        _finalResult;\n        uint fee = requests[_requestID].fee / _correctOracles.length;\n        // pay fees\n        for (uint i=0; i<_correctOracles.length; i++) {\n            // pay each share to each oracle\n            emit OraclePaid(_correctOracles[i], fee, \"Oracle has been Paid!\"); // tells listeners oracle node has been paid\n            //payable(_correctOracles[i]).transfer(fee); // pays oracle their fee\n            //requests[_requestID].fee -= fee; // deduct the oracles portion from the logged amount until it reaches 0\n            // and all oracles have been paid\n        }\n        // small penalty for incorrect hashes, as this could be an error\n        for (uint i=0; i<_incorrectOracles.length; i++) {\n            stakeBalance[_incorrectOracles[i]] -= fee; // deducted fee from stake\n        }\n        requests[_requestID].status = Status.COMPLETE; // request is complete\n        completedRequests[_requestID] = true; // add request id to completedRequests\n        emit StatusChange(requests[_requestID].status, \"COMPLETE\"); // tell listeners that the status has changed\n        pendingCounter--; // no longer pending so countered can be decremented\n        return true; // return true to so it has finished\n    }\n    // @notice function for requester to cancel request\n    // @param _requestID pass requestID to cancel the correct request\n    function cancelRequest(\n        uint256 _requestID)\n    external\n    onlyRequester(_requestID) // requires that only the requester can cancel\n    cancelFlagZero(_requestID) // requires that request is not yet cancelled\n    returns(bool)\n    {\n        requests[_requestID].cancelFlag = 1; // changes flag to 1, if 1 it will not pass other functions\n        requests[_requestID].status = Status.CANCELLED; // status changed\n        emit StatusChange(requests[_requestID].status, \"CANCELLED\");\n        AggregatorContract(aggregatorAddr).cancelRequest(_requestID); // call cancelled request in AggregatorContract\n        return true;\n    }\n    // @notice cancelled request by deadlock in the voting, if there are incorrect nodes,\n    //         correct amount might be even and could cause deadlock in voting,\n    //         in this case we refund the requester and cancel request\n    // @param _requestID\n    // @param _incorrectOracleReveals, we slash the faulty nodes here, as they have caused issues penalties are given\n    function cancelRequestDueToDeadlock(\n        uint256 _requestID,\n        address[] memory _incorrectOracleReveals)\n    external\n    onlyAggregator()\n    cancelFlagZero(_requestID)\n    returns(bool)\n    {\n        requests[_requestID].cancelFlag = 1;\n        requests[_requestID].status = Status.CANCELLED;\n        // return full fee as the user is not at fault here\n        // should be slashed from incorrect nodes for causing deadlock\n        for (uint i=0; i<_incorrectOracleReveals.length; i++){\n            // gets penalty fee from reputation contract penalty**rating\n            uint penalty = ReputationContract(reputationAddr).getPenaltyFee(_incorrectOracleReveals[i]);\n            stakeBalance[_incorrectOracleReveals[i]] -= penalty;\n            ReputationContract(reputationAddr).incrementRating(_incorrectOracleReveals[i]);\n        }\n        payable(requests[_requestID].requester).transfer(requests[_requestID].fee);\n        emit StatusChange(requests[_requestID].status, \"CANCELLED\");\n        return true;\n    }\n    // @notice blacklist oracle that misbehaves 10\n    function blacklistOracle(address _addr)\n    external\n    onlyReputation()\n    returns(bool)\n    {\n        blacklistedOracles[_addr] = true; // adds blacklisted oracle address to map\n        return blacklistedOracles[_addr]; // returns true\n    }\n\n\n\n\n    // *** Setters ***\n    function setAggregatorContract(\n        address _aggAddr)\n    public\n    onlyOwner() // only owner can set aggregator contract\n    returns(bool)\n    {\n        aggregatorAddr = _aggAddr;\n        return true;\n    }\n\n    function setReputationContract(address _repAddr)\n    public\n    onlyOwner()\n    returns(bool)\n    {\n        reputationAddr = _repAddr;\n        return true;\n    }\n\n    // *** Getters ***\n    function getOracleForRequest(\n        uint256 _requestID,\n        address _orcAddr)\n    external\n    view\n    onlyAggregator()\n    returns(bool)\n    {\n        return requests[_requestID].oraclesForRequest[_orcAddr];\n    }\n\n    function getNumberOfOracles(\n        uint256 _requestID)\n    external\n    view\n    onlyAggregator()\n    returns(uint32)\n    {\n        return requests[_requestID].numberOfOracles;\n    }\n\n    function getDataType(\n        uint256 _requestID)\n    external\n    view\n    onlyAggregator()\n    returns(bytes memory)\n    {\n        return requests[_requestID].dataType;\n    }\n    // @notice returns bool whether or not _addr is blacklisted\n    function getBlacklistedOracle(address _addr)\n    external\n    view\n    returns(bool)\n    {\n        return blacklistedOracles[_addr];\n    }\n    // @notice\n    function getAggregationType(uint256 _requestID)\n    external\n    view\n    onlyAggregator()\n    returns(uint256)\n    {\n        return requests[_requestID].aggregationType;\n    }\n    // ***Modifiers***\n    // @notice only owner of contract\n    modifier onlyOwner()\n    {\n        require(msg.sender == owner);\n        _;\n    }\n    // @notice only owner of aggregator contract\n    modifier onlyAggregator()\n    {\n        require(msg.sender == aggregatorAddr);\n        _;\n    }\n    // @notice only owner of reputation contract\n    modifier onlyReputation()\n    {\n        require(msg.sender == reputationAddr);\n        _;\n    }\n    // @notice modifier to confirm calling address is an oracle node address already acknowledged\n    modifier oracleHasJoined()\n    {\n        require(oracles[msg.sender] == true);\n        _;\n    }\n    // @notice modifier to confirm calling address is not yet an oracle node address acknowledged\n    modifier oracleNotJoined()\n    {\n        require(oracles[msg.sender] != true);\n        _;\n    }\n    // @notice requires request cancelFlag == 0\n    modifier cancelFlagZero(\n        uint256 _requestID)\n    {\n        require(requests[_requestID].cancelFlag == 0);\n        _;\n    }\n    // @notice requires stakeBalance to equal exactly 1 ETH\n    modifier stakeCheck()\n    {\n        require(stakeBalance[msg.sender] > 0);\n        _;\n    }\n    // @notice requires the value sent to be >= MIN_FEE set\n    modifier valueGTMinFeeCheck()\n    {\n        // require msg.value has enough to pay oracles for each function call\n        require(msg.value >= MIN_FEE);\n        _;\n    }\n    // @notice requires an odd number of oracles so voting/aggregation doesnt become deadlocked\n    modifier oddNumOracles(\n        uint32 _numberOfOracles)\n    {\n        // makes sure the number that there is always an odd number of oracles so a majority can be reached.\n        require(!(_numberOfOracles % 2 == 0));\n        _;\n    }\n    // @notice requires a new oracle to send 1 eth to be held by contract until it leaves the network\n    modifier valueEqual1Eth()\n    {\n        require(msg.value == 1 ether); // must send 1 eth that is to be held by contract\n        _;\n    }\n    // @notice requires counter to be less than number required\n    modifier orcCountLessThanNum(\n        uint256 _requestID)\n    {\n        // makes sure oracle counter is less than number of oracles required so response can be submitted\n        require(requests[_requestID].oracleCounter < requests[_requestID].numberOfOracles);\n        _;\n    }\n    // @notice requires that only the request can call the function\n    modifier onlyRequester(\n        uint256 _requestID)\n    {\n        require(msg.sender == requests[_requestID].requester);\n        _;\n    }\n\n    modifier isNotBlacklisted() {\n        require(!blacklistedOracles[msg.sender] == true);\n        _;\n    }\n    modifier aggregationTypeCheck(uint256 _aggregationType) {\n        require(1 == _aggregationType || _aggregationType == 2 );\n        _;\n    }\n    modifier elapsedTimeGT10mins(uint _elapsedTime) {\n        require(_elapsedTime > 10 minutes ); // this allows genuine time for oracles to respond..\n        _;\n    }\n    modifier withinTime(uint256 _requestID) {\n        require(block.timestamp < (timings[_requestID].timestamp + timings[_requestID].elapsedTime) );\n        _;\n    }\n    modifier timeHasElapsed(uint _requestID, uint elapsedTime) {\n        require((timings[_requestID].timestamp + elapsedTime) > block.timestamp );\n        _;\n    }\n    modifier onlySubmittedCommitsOracles(uint256 _requestID) {\n        require(AggregatorContract(aggregatorAddr).getCommitFlag(_requestID) == 0\n            && AggregatorContract(aggregatorAddr).getOracleHasSubmittedCommit(_requestID, msg.sender));\n        _;\n    }\n\n    modifier onlySubmittedRevealsOracles(uint256 _requestID) {\n        require(AggregatorContract(aggregatorAddr).getCommitFlag(_requestID) == 1\n        && AggregatorContract(aggregatorAddr).getOracleHasSubmittedReveal(_requestID, msg.sender)\n        && AggregatorContract(aggregatorAddr).getRevealFlag(_requestID) == 0);\n        _;\n    }\n\n    modifier biddingTimeElapsed(uint256 _requestID) {\n        require(block.timestamp < (timings[_requestID].timestamp + TIMER_ELAPSED_BIDDING));\n        _;\n    }\n}\n",
  "sourcePath": "/home/willp/Documents/MSc_Computer_Science/PROJECT/Research_Code/july22_projectcode/IoToracle/contracts/OracleRequestContract.sol",
  "compiler": {
    "name": "solc",
    "version": "0.8.15+commit.e14f2714.Emscripten.clang"
  },
  "schemaVersion": "3.4.8",
  "updatedAt": "2022-08-18T12:08:28.280Z",
  "networkType": "ethereum",
  "devdoc": {
    "kind": "dev",
    "methods": {},
    "version": 1
  },
  "userdoc": {
    "kind": "user",
    "methods": {},
    "version": 1
  }
}