{
  "contractName": "OracleRequestContract",
  "abi": [
    {
      "inputs": [],
      "stateMutability": "nonpayable",
      "type": "constructor"
    },
    {
      "anonymous": false,
      "inputs": [
        {
          "indexed": false,
          "internalType": "address",
          "name": "",
          "type": "address"
        }
      ],
      "name": "BidPlaced",
      "type": "event"
    },
    {
      "anonymous": false,
      "inputs": [
        {
          "indexed": false,
          "internalType": "int256",
          "name": "",
          "type": "int256"
        },
        {
          "indexed": false,
          "internalType": "string",
          "name": "",
          "type": "string"
        }
      ],
      "name": "FinalInt",
      "type": "event"
    },
    {
      "anonymous": false,
      "inputs": [
        {
          "indexed": false,
          "internalType": "bool",
          "name": "",
          "type": "bool"
        },
        {
          "indexed": false,
          "internalType": "string",
          "name": "",
          "type": "string"
        }
      ],
      "name": "FinalResultLog",
      "type": "event"
    },
    {
      "anonymous": false,
      "inputs": [
        {
          "indexed": false,
          "internalType": "uint256",
          "name": "",
          "type": "uint256"
        },
        {
          "indexed": false,
          "internalType": "string",
          "name": "",
          "type": "string"
        }
      ],
      "name": "LogNumberOfOracles",
      "type": "event"
    },
    {
      "anonymous": false,
      "inputs": [
        {
          "indexed": false,
          "internalType": "uint256",
          "name": "",
          "type": "uint256"
        },
        {
          "indexed": false,
          "internalType": "string",
          "name": "",
          "type": "string"
        }
      ],
      "name": "LogTimeOutLen",
      "type": "event"
    },
    {
      "anonymous": false,
      "inputs": [
        {
          "indexed": false,
          "internalType": "string",
          "name": "",
          "type": "string"
        }
      ],
      "name": "Logging",
      "type": "event"
    },
    {
      "anonymous": false,
      "inputs": [
        {
          "indexed": false,
          "internalType": "uint256",
          "name": "",
          "type": "uint256"
        },
        {
          "indexed": false,
          "internalType": "bytes",
          "name": "",
          "type": "bytes"
        },
        {
          "indexed": false,
          "internalType": "uint256",
          "name": "",
          "type": "uint256"
        },
        {
          "indexed": false,
          "internalType": "uint256",
          "name": "",
          "type": "uint256"
        },
        {
          "indexed": false,
          "internalType": "uint256",
          "name": "",
          "type": "uint256"
        }
      ],
      "name": "OpenForBids",
      "type": "event"
    },
    {
      "anonymous": false,
      "inputs": [
        {
          "indexed": false,
          "internalType": "address",
          "name": "",
          "type": "address"
        },
        {
          "indexed": false,
          "internalType": "string",
          "name": "",
          "type": "string"
        }
      ],
      "name": "OracleJoined",
      "type": "event"
    },
    {
      "anonymous": false,
      "inputs": [
        {
          "indexed": false,
          "internalType": "address",
          "name": "",
          "type": "address"
        },
        {
          "indexed": false,
          "internalType": "string",
          "name": "",
          "type": "string"
        }
      ],
      "name": "OracleLeft",
      "type": "event"
    },
    {
      "anonymous": false,
      "inputs": [
        {
          "indexed": false,
          "internalType": "address",
          "name": "",
          "type": "address"
        },
        {
          "indexed": false,
          "internalType": "uint256",
          "name": "",
          "type": "uint256"
        },
        {
          "indexed": false,
          "internalType": "string",
          "name": "",
          "type": "string"
        }
      ],
      "name": "OraclePaid",
      "type": "event"
    },
    {
      "anonymous": false,
      "inputs": [
        {
          "indexed": false,
          "internalType": "address",
          "name": "",
          "type": "address"
        }
      ],
      "name": "PrintAddress",
      "type": "event"
    },
    {
      "anonymous": false,
      "inputs": [
        {
          "indexed": false,
          "internalType": "address[]",
          "name": "",
          "type": "address[]"
        }
      ],
      "name": "PrintAddresses",
      "type": "event"
    },
    {
      "anonymous": false,
      "inputs": [
        {
          "indexed": false,
          "internalType": "uint256",
          "name": "",
          "type": "uint256"
        },
        {
          "indexed": false,
          "internalType": "bytes",
          "name": "",
          "type": "bytes"
        },
        {
          "indexed": false,
          "internalType": "bytes",
          "name": "",
          "type": "bytes"
        }
      ],
      "name": "ReleaseRequestDetails",
      "type": "event"
    },
    {
      "anonymous": false,
      "inputs": [
        {
          "indexed": false,
          "internalType": "uint256",
          "name": "",
          "type": "uint256"
        },
        {
          "indexed": false,
          "internalType": "enum OracleRequestContract.Status",
          "name": "",
          "type": "uint8"
        },
        {
          "indexed": false,
          "internalType": "string",
          "name": "",
          "type": "string"
        }
      ],
      "name": "StatusChange",
      "type": "event"
    },
    {
      "anonymous": false,
      "inputs": [
        {
          "indexed": false,
          "internalType": "uint256",
          "name": "",
          "type": "uint256"
        },
        {
          "indexed": false,
          "internalType": "uint256",
          "name": "",
          "type": "uint256"
        },
        {
          "indexed": false,
          "internalType": "uint256",
          "name": "",
          "type": "uint256"
        }
      ],
      "name": "UpdateTimestamp",
      "type": "event"
    },
    {
      "stateMutability": "nonpayable",
      "type": "fallback"
    },
    {
      "inputs": [],
      "name": "aggregatorAddr",
      "outputs": [
        {
          "internalType": "address",
          "name": "",
          "type": "address"
        }
      ],
      "stateMutability": "view",
      "type": "function",
      "constant": true
    },
    {
      "inputs": [
        {
          "internalType": "address",
          "name": "",
          "type": "address"
        }
      ],
      "name": "blacklistedOracles",
      "outputs": [
        {
          "internalType": "bool",
          "name": "",
          "type": "bool"
        }
      ],
      "stateMutability": "view",
      "type": "function",
      "constant": true
    },
    {
      "inputs": [
        {
          "internalType": "uint256",
          "name": "",
          "type": "uint256"
        }
      ],
      "name": "completedRequests",
      "outputs": [
        {
          "internalType": "bool",
          "name": "",
          "type": "bool"
        }
      ],
      "stateMutability": "view",
      "type": "function",
      "constant": true
    },
    {
      "inputs": [
        {
          "internalType": "address",
          "name": "",
          "type": "address"
        }
      ],
      "name": "oracles",
      "outputs": [
        {
          "internalType": "bool",
          "name": "",
          "type": "bool"
        }
      ],
      "stateMutability": "view",
      "type": "function",
      "constant": true
    },
    {
      "inputs": [],
      "name": "owner",
      "outputs": [
        {
          "internalType": "address",
          "name": "",
          "type": "address"
        }
      ],
      "stateMutability": "view",
      "type": "function",
      "constant": true
    },
    {
      "inputs": [],
      "name": "reputationAddr",
      "outputs": [
        {
          "internalType": "address",
          "name": "",
          "type": "address"
        }
      ],
      "stateMutability": "view",
      "type": "function",
      "constant": true
    },
    {
      "inputs": [
        {
          "internalType": "uint256",
          "name": "",
          "type": "uint256"
        }
      ],
      "name": "requests",
      "outputs": [
        {
          "internalType": "uint256",
          "name": "requestID",
          "type": "uint256"
        },
        {
          "internalType": "address",
          "name": "requester",
          "type": "address"
        },
        {
          "internalType": "address",
          "name": "callbackAddress",
          "type": "address"
        },
        {
          "internalType": "bytes",
          "name": "callbackFID",
          "type": "bytes"
        },
        {
          "internalType": "bytes",
          "name": "IoTID",
          "type": "bytes"
        },
        {
          "internalType": "bytes",
          "name": "dataType",
          "type": "bytes"
        },
        {
          "internalType": "uint32",
          "name": "numberOfOracles",
          "type": "uint32"
        },
        {
          "internalType": "uint256",
          "name": "aggregationType",
          "type": "uint256"
        },
        {
          "internalType": "uint32",
          "name": "oracleCounter",
          "type": "uint32"
        },
        {
          "internalType": "enum OracleRequestContract.Status",
          "name": "status",
          "type": "uint8"
        },
        {
          "internalType": "uint8",
          "name": "cancelFlag",
          "type": "uint8"
        },
        {
          "internalType": "uint256",
          "name": "fee",
          "type": "uint256"
        }
      ],
      "stateMutability": "view",
      "type": "function",
      "constant": true
    },
    {
      "inputs": [
        {
          "internalType": "address",
          "name": "",
          "type": "address"
        }
      ],
      "name": "stakeBalance",
      "outputs": [
        {
          "internalType": "uint256",
          "name": "",
          "type": "uint256"
        }
      ],
      "stateMutability": "view",
      "type": "function",
      "constant": true
    },
    {
      "inputs": [
        {
          "internalType": "uint256",
          "name": "",
          "type": "uint256"
        }
      ],
      "name": "timings",
      "outputs": [
        {
          "internalType": "uint256",
          "name": "appealFlag",
          "type": "uint256"
        },
        {
          "internalType": "uint256",
          "name": "timestamp",
          "type": "uint256"
        },
        {
          "internalType": "uint256",
          "name": "elapsedTime",
          "type": "uint256"
        }
      ],
      "stateMutability": "view",
      "type": "function",
      "constant": true
    },
    {
      "inputs": [],
      "name": "joinAsOracle",
      "outputs": [
        {
          "internalType": "bool",
          "name": "",
          "type": "bool"
        }
      ],
      "stateMutability": "payable",
      "type": "function",
      "payable": true
    },
    {
      "inputs": [],
      "name": "leaveOracleNetwork",
      "outputs": [
        {
          "internalType": "bool",
          "name": "",
          "type": "bool"
        }
      ],
      "stateMutability": "nonpayable",
      "type": "function"
    },
    {
      "inputs": [
        {
          "internalType": "address",
          "name": "_callbackAddress",
          "type": "address"
        },
        {
          "internalType": "bytes",
          "name": "_callbackFID",
          "type": "bytes"
        },
        {
          "internalType": "bytes",
          "name": "_IoTID",
          "type": "bytes"
        },
        {
          "internalType": "bytes",
          "name": "_dataType",
          "type": "bytes"
        },
        {
          "internalType": "uint256",
          "name": "_aggregationType",
          "type": "uint256"
        },
        {
          "internalType": "uint32",
          "name": "_numberOfOracles",
          "type": "uint32"
        },
        {
          "internalType": "uint256",
          "name": "_elapsedTime",
          "type": "uint256"
        }
      ],
      "name": "createRequest",
      "outputs": [
        {
          "internalType": "uint256",
          "name": "",
          "type": "uint256"
        }
      ],
      "stateMutability": "payable",
      "type": "function",
      "payable": true
    },
    {
      "inputs": [
        {
          "internalType": "uint256",
          "name": "_requestID",
          "type": "uint256"
        }
      ],
      "name": "timeoutCommitsAppeal",
      "outputs": [],
      "stateMutability": "nonpayable",
      "type": "function"
    },
    {
      "inputs": [
        {
          "internalType": "uint256",
          "name": "_requestID",
          "type": "uint256"
        }
      ],
      "name": "timeoutRevealsAppeal",
      "outputs": [],
      "stateMutability": "nonpayable",
      "type": "function"
    },
    {
      "inputs": [
        {
          "internalType": "uint256",
          "name": "_requestID",
          "type": "uint256"
        }
      ],
      "name": "timeoutBiddingAppeal",
      "outputs": [],
      "stateMutability": "nonpayable",
      "type": "function"
    },
    {
      "inputs": [
        {
          "internalType": "uint256",
          "name": "_requestID",
          "type": "uint256"
        }
      ],
      "name": "placeBid",
      "outputs": [
        {
          "internalType": "bool",
          "name": "",
          "type": "bool"
        }
      ],
      "stateMutability": "nonpayable",
      "type": "function"
    },
    {
      "inputs": [
        {
          "internalType": "uint256",
          "name": "_requestID",
          "type": "uint256"
        },
        {
          "internalType": "bool",
          "name": "_finalResult",
          "type": "bool"
        },
        {
          "internalType": "address[]",
          "name": "_correctOracles",
          "type": "address[]"
        },
        {
          "internalType": "address[]",
          "name": "_incorrectOracles",
          "type": "address[]"
        },
        {
          "internalType": "address[]",
          "name": "_incorrectRevealOracles",
          "type": "address[]"
        }
      ],
      "name": "deliverVoteResponse",
      "outputs": [
        {
          "internalType": "bool",
          "name": "",
          "type": "bool"
        }
      ],
      "stateMutability": "nonpayable",
      "type": "function"
    },
    {
      "inputs": [
        {
          "internalType": "uint256",
          "name": "_requestID",
          "type": "uint256"
        },
        {
          "internalType": "int256",
          "name": "_finalResult",
          "type": "int256"
        },
        {
          "internalType": "address[]",
          "name": "_correctOracles",
          "type": "address[]"
        },
        {
          "internalType": "address[]",
          "name": "_incorrectOracles",
          "type": "address[]"
        }
      ],
      "name": "deliverAverageResponse",
      "outputs": [
        {
          "internalType": "bool",
          "name": "",
          "type": "bool"
        }
      ],
      "stateMutability": "nonpayable",
      "type": "function"
    },
    {
      "inputs": [
        {
          "internalType": "uint256",
          "name": "_requestID",
          "type": "uint256"
        }
      ],
      "name": "cancelRequest",
      "outputs": [
        {
          "internalType": "bool",
          "name": "",
          "type": "bool"
        }
      ],
      "stateMutability": "nonpayable",
      "type": "function"
    },
    {
      "inputs": [
        {
          "internalType": "uint256",
          "name": "_requestID",
          "type": "uint256"
        },
        {
          "internalType": "address[]",
          "name": "_incorrectOracleReveals",
          "type": "address[]"
        }
      ],
      "name": "cancelRequestDueToDeadlock",
      "outputs": [
        {
          "internalType": "bool",
          "name": "",
          "type": "bool"
        }
      ],
      "stateMutability": "nonpayable",
      "type": "function"
    },
    {
      "inputs": [
        {
          "internalType": "address",
          "name": "_addr",
          "type": "address"
        }
      ],
      "name": "blacklistOracle",
      "outputs": [
        {
          "internalType": "bool",
          "name": "",
          "type": "bool"
        }
      ],
      "stateMutability": "nonpayable",
      "type": "function"
    },
    {
      "inputs": [
        {
          "internalType": "address",
          "name": "_aggAddr",
          "type": "address"
        }
      ],
      "name": "setAggregatorContract",
      "outputs": [
        {
          "internalType": "bool",
          "name": "",
          "type": "bool"
        }
      ],
      "stateMutability": "nonpayable",
      "type": "function"
    },
    {
      "inputs": [
        {
          "internalType": "address",
          "name": "_repAddr",
          "type": "address"
        }
      ],
      "name": "setReputationContract",
      "outputs": [
        {
          "internalType": "bool",
          "name": "",
          "type": "bool"
        }
      ],
      "stateMutability": "nonpayable",
      "type": "function"
    },
    {
      "inputs": [
        {
          "internalType": "uint256",
          "name": "_requestID",
          "type": "uint256"
        },
        {
          "internalType": "address",
          "name": "_orcAddr",
          "type": "address"
        }
      ],
      "name": "getOracleForRequest",
      "outputs": [
        {
          "internalType": "bool",
          "name": "",
          "type": "bool"
        }
      ],
      "stateMutability": "view",
      "type": "function",
      "constant": true
    },
    {
      "inputs": [
        {
          "internalType": "uint256",
          "name": "_requestID",
          "type": "uint256"
        }
      ],
      "name": "getNumberOfOracles",
      "outputs": [
        {
          "internalType": "uint32",
          "name": "",
          "type": "uint32"
        }
      ],
      "stateMutability": "view",
      "type": "function",
      "constant": true
    },
    {
      "inputs": [
        {
          "internalType": "uint256",
          "name": "_requestID",
          "type": "uint256"
        }
      ],
      "name": "getTimeoutOracleLength",
      "outputs": [
        {
          "internalType": "uint32",
          "name": "",
          "type": "uint32"
        }
      ],
      "stateMutability": "view",
      "type": "function",
      "constant": true
    },
    {
      "inputs": [
        {
          "internalType": "uint256",
          "name": "_requestID",
          "type": "uint256"
        }
      ],
      "name": "getOracleAddresses",
      "outputs": [
        {
          "internalType": "address[]",
          "name": "",
          "type": "address[]"
        }
      ],
      "stateMutability": "nonpayable",
      "type": "function"
    },
    {
      "inputs": [
        {
          "internalType": "uint256",
          "name": "_requestID",
          "type": "uint256"
        }
      ],
      "name": "getDataType",
      "outputs": [
        {
          "internalType": "bytes",
          "name": "",
          "type": "bytes"
        }
      ],
      "stateMutability": "view",
      "type": "function",
      "constant": true
    },
    {
      "inputs": [
        {
          "internalType": "address",
          "name": "_addr",
          "type": "address"
        }
      ],
      "name": "getBlacklistedOracle",
      "outputs": [
        {
          "internalType": "bool",
          "name": "",
          "type": "bool"
        }
      ],
      "stateMutability": "view",
      "type": "function",
      "constant": true
    },
    {
      "inputs": [
        {
          "internalType": "uint256",
          "name": "_requestID",
          "type": "uint256"
        }
      ],
      "name": "getAggregationType",
      "outputs": [
        {
          "internalType": "uint256",
          "name": "",
          "type": "uint256"
        }
      ],
      "stateMutability": "view",
      "type": "function",
      "constant": true
    }
  ],
  "bytecode": "0x608060405260016104b65560016104b7556404a817c80061064c55600361064c546200002c9190620000ea565b61064d55600561064c54620000429190620000ea565b61064d546200005291906200014b565b61064e5561012c61064f553480156200006a57600080fd5b50336000806101000a81548173ffffffffffffffffffffffffffffffffffffffff021916908373ffffffffffffffffffffffffffffffffffffffff160217905550620001a8565b6000819050919050565b7f4e487b7100000000000000000000000000000000000000000000000000000000600052601160045260246000fd5b6000620000f782620000b1565b91506200010483620000b1565b9250817fffffffffffffffffffffffffffffffffffffffffffffffffffffffffffffffff048311821515161562000140576200013f620000bb565b5b828202905092915050565b60006200015882620000b1565b91506200016583620000b1565b9250827fffffffffffffffffffffffffffffffffffffffffffffffffffffffffffffffff038211156200019d576200019c620000bb565b5b828201905092915050565b615a2e80620001b86000396000f3fe6080604052600436106101d15760003560e01c806391a3632a116100f7578063a37b354d11610095578063d175a47f11610064578063d175a47f14610783578063e4888222146107ac578063eee5a596146107e9578063f0fbfbf314610826576101d2565b8063a37b354d146106a3578063addd5099146106e0578063c26cc94f1461071d578063ce11babd1461075a576101d2565b80639610f691116100d15780639610f691146105bf5780639967cf60146105fe5780639979ef451461063b578063a08702f314610678576101d2565b806391a3632a14610527578063950e1da9146105645780639584660f14610582576101d2565b806357442e791161016f57806381d12c581161013e57806381d12c581461046057806382762600146104a85780638394d49e146104d35780638da5cb5b146104fc576101d2565b806357442e791461036c57806358621b7a146103a95780636fbf7973146103e65780637d02da0914610423576101d2565b8063301f1dbd116101ab578063301f1dbd1461028557806330407ad9146102b5578063498d7df0146102f25780634e7c57a61461032f576101d2565b8063053ebc9a146101e05780631c6fd0fc1461020b5780633015394c14610248576101d2565b5b3480156101de57600080fd5b005b3480156101ec57600080fd5b506101f5610863565b604051610202919061423c565b60405180910390f35b34801561021757600080fd5b50610232600480360381019061022d91906142a1565b610889565b60405161023f91906142ed565b60405180910390f35b34801561025457600080fd5b5061026f600480360381019061026a91906142a1565b61090c565b60405161027c9190614323565b60405180910390f35b61029f600480360381019061029a91906144dc565b610b3f565b6040516102ac91906145e1565b60405180910390f35b3480156102c157600080fd5b506102dc60048036038101906102d791906146f0565b610fa1565b6040516102e99190614323565b60405180910390f35b3480156102fe57600080fd5b50610319600480360381019061031491906147bf565b6119ae565b6040516103269190614323565b60405180910390f35b34801561033b57600080fd5b506103566004803603810190610351919061481b565b611dca565b60405161036391906145e1565b60405180910390f35b34801561037857600080fd5b50610393600480360381019061038e91906142a1565b611de3565b6040516103a091906148d0565b60405180910390f35b3480156103b557600080fd5b506103d060048036038101906103cb9190614928565b611eea565b6040516103dd9190614323565b60405180910390f35b3480156103f257600080fd5b5061040d6004803603810190610408919061481b565b6121e8565b60405161041a9190614323565b60405180910390f35b34801561042f57600080fd5b5061044a6004803603810190610445919061481b565b61223f565b6040516104579190614323565b60405180910390f35b34801561046c57600080fd5b50610487600480360381019061048291906142a1565b612260565b60405161049f9c9b9a99989796959493929190614a5a565b60405180910390f35b3480156104b457600080fd5b506104bd6124d8565b6040516104ca919061423c565b60405180910390f35b3480156104df57600080fd5b506104fa60048036038101906104f591906142a1565b6124fe565b005b34801561050857600080fd5b50610511612a73565b60405161051e919061423c565b60405180910390f35b34801561053357600080fd5b5061054e600480360381019061054991906142a1565b612a97565b60405161055b91906142ed565b60405180910390f35b61056c612b26565b6040516105799190614323565b60405180910390f35b34801561058e57600080fd5b506105a960048036038101906105a4919061481b565b612dc0565b6040516105b69190614323565b60405180910390f35b3480156105cb57600080fd5b506105e660048036038101906105e191906142a1565b612e65565b6040516105f593929190614b29565b60405180910390f35b34801561060a57600080fd5b506106256004803603810190610620919061481b565b612e96565b6040516106329190614323565b60405180910390f35b34801561064757600080fd5b50610662600480360381019061065d91906142a1565b612f3b565b60405161066f9190614323565b60405180910390f35b34801561068457600080fd5b5061068d6133ac565b60405161069a9190614323565b60405180910390f35b3480156106af57600080fd5b506106ca60048036038101906106c59190614b60565b613711565b6040516106d79190614323565b60405180910390f35b3480156106ec57600080fd5b506107076004803603810190610702919061481b565b6137db565b6040516107149190614323565b60405180910390f35b34801561072957600080fd5b50610744600480360381019061073f91906142a1565b6137fc565b6040516107519190614c5e565b60405180910390f35b34801561076657600080fd5b50610781600480360381019061077c91906142a1565b6138ff565b005b34801561078f57600080fd5b506107aa60048036038101906107a591906142a1565b613be0565b005b3480156107b857600080fd5b506107d360048036038101906107ce91906142a1565b614047565b6040516107e091906145e1565b60405180910390f35b3480156107f557600080fd5b50610810600480360381019061080b919061481b565b6140c6565b60405161081d9190614323565b60405180910390f35b34801561083257600080fd5b5061084d600480360381019061084891906142a1565b6141d0565b60405161085a9190614323565b60405180910390f35b600260009054906101000a900473ffffffffffffffffffffffffffffffffffffffff1681565b6000600160009054906101000a900473ffffffffffffffffffffffffffffffffffffffff1673ffffffffffffffffffffffffffffffffffffffff163373ffffffffffffffffffffffffffffffffffffffff16146108e557600080fd5b6104bc82606481106108fa576108f9614c80565b5b60040201600301805490509050919050565b6000816003816064811061092357610922614c80565b5b600c020160010160009054906101000a900473ffffffffffffffffffffffffffffffffffffffff1673ffffffffffffffffffffffffffffffffffffffff163373ffffffffffffffffffffffffffffffffffffffff161461098257600080fd5b8260006003826064811061099957610998614c80565b5b600c0201600a0160059054906101000a900460ff1660ff16146109bb57600080fd5b6001600385606481106109d1576109d0614c80565b5b600c0201600a0160056101000a81548160ff021916908360ff160217905550600260038560648110610a0657610a05614c80565b5b600c0201600a0160046101000a81548160ff02191690836002811115610a2f57610a2e6149c7565b5b02179055507fbd75c0c0fcfb2a06c72850a74ec03c188bd53958646995bde4e3980c2ccde2b98460038660648110610a6a57610a69614c80565b5b600c0201600a0160049054906101000a900460ff16604051610a8d929190614d0c565b60405180910390a1600160009054906101000a900473ffffffffffffffffffffffffffffffffffffffff1673ffffffffffffffffffffffffffffffffffffffff16633015394c856040518263ffffffff1660e01b8152600401610af091906145e1565b6020604051808303816000875af1158015610b0f573d6000803e3d6000fd5b505050506040513d601f19601f82011682018060405250810190610b339190614d5d565b50600192505050919050565b600061064e54341015610b5157600080fd5b826000600282610b619190614db9565b63ffffffff1603610b7157600080fd5b848060011480610b815750600281145b610b8a57600080fd5b60006104b6549050426104bc8260648110610ba857610ba7614c80565b5b6004020160010181905550846104bc8260648110610bc957610bc8614c80565b5b60040201600201819055508060038260648110610be957610be8614c80565b5b600c0201600001819055503360038260648110610c0957610c08614c80565b5b600c020160010160006101000a81548173ffffffffffffffffffffffffffffffffffffffff021916908373ffffffffffffffffffffffffffffffffffffffff1602179055508a60038260648110610c6357610c62614c80565b5b600c020160020160006101000a81548173ffffffffffffffffffffffffffffffffffffffff021916908373ffffffffffffffffffffffffffffffffffffffff1602179055508960038260648110610cbd57610cbc614c80565b5b600c02016003019081610cd09190614ff6565b508860038260648110610ce657610ce5614c80565b5b600c02016004019081610cf99190614ff6565b508760038260648110610d0f57610d0e614c80565b5b600c02016005019081610d229190614ff6565b508560038260648110610d3857610d37614c80565b5b600c020160060160006101000a81548163ffffffff021916908363ffffffff160217905550600060038260648110610d7357610d72614c80565b5b600c0201600a0160006101000a81548163ffffffff021916908363ffffffff160217905550600060038260648110610dae57610dad614c80565b5b600c0201600a0160046101000a81548160ff02191690836002811115610dd757610dd66149c7565b5b0217905550600060038260648110610df257610df1614c80565b5b600c0201600a0160056101000a81548160ff021916908360ff1602179055503460038260648110610e2657610e25614c80565b5b600c0201600b01819055508660038260648110610e4657610e45614c80565b5b600c0201600901819055507fbd75c0c0fcfb2a06c72850a74ec03c188bd53958646995bde4e3980c2ccde2b98160038360648110610e8757610e86614c80565b5b600c0201600a0160049054906101000a900460ff16604051610eaa929190615114565b60405180910390a16104b66000815480929190610ec69061517f565b91905055506104b76000815480929190610edf9061517f565b91905055507f45467d61e6f35d1866a79e0828e55247a1cbdbd929532d73c56d73ae64cfe83a8160038360648110610f1a57610f19614c80565b5b600c020160050160038460648110610f3557610f34614c80565b5b600c0201600901546104bc8560648110610f5257610f51614c80565b5b60040201600101546104bc8660648110610f6f57610f6e614c80565b5b6004020160020154604051610f8895949392919061524b565b60405180910390a1809350505050979650505050505050565b600085600060038260648110610fba57610fb9614c80565b5b600c0201600a0160059054906101000a900460ff1660ff1614610fdc57600080fd5b600160009054906101000a900473ffffffffffffffffffffffffffffffffffffffff1673ffffffffffffffffffffffffffffffffffffffff163373ffffffffffffffffffffffffffffffffffffffff161461103657600080fd5b7f5286d5a6d3a87f8e130652b705a8d0ec84042e834444bd00313a08d13a3847558660405161106591906152f1565b60405180910390a16000805b6104bc896064811061108657611085614c80565b5b60040201600301805490508110156113e7577fa16adbb4218174483d6638aa2a7cfae613fb09f920505beb947e63144629a8756104bc8a606481106110ce576110cd614c80565b5b6004020160030182815481106110e7576110e6614c80565b5b9060005260206000200160009054906101000a900473ffffffffffffffffffffffffffffffffffffffff1660405161111f919061423c565b60405180910390a16000600260009054906101000a900473ffffffffffffffffffffffffffffffffffffffff1673ffffffffffffffffffffffffffffffffffffffff1663b8f9c2a16104bc8c6064811061117c5761117b614c80565b5b60040201600301848154811061119557611194614c80565b5b9060005260206000200160009054906101000a900473ffffffffffffffffffffffffffffffffffffffff166040518263ffffffff1660e01b81526004016111dc919061423c565b602060405180830381865afa1580156111f9573d6000803e3d6000fd5b505050506040513d601f19601f8201168201806040525081019061121d9190615334565b9050806104b560006104bc8d6064811061123a57611239614c80565b5b60040201600301858154811061125357611252614c80565b5b9060005260206000200160009054906101000a900473ffffffffffffffffffffffffffffffffffffffff1673ffffffffffffffffffffffffffffffffffffffff1673ffffffffffffffffffffffffffffffffffffffff16815260200190815260200160002060008282546112c79190615361565b9250508190555080836112da9190615395565b9250600260009054906101000a900473ffffffffffffffffffffffffffffffffffffffff1673ffffffffffffffffffffffffffffffffffffffff166318b529c36104bc8c6064811061132f5761132e614c80565b5b60040201600301848154811061134857611347614c80565b5b9060005260206000200160009054906101000a900473ffffffffffffffffffffffffffffffffffffffff166040518263ffffffff1660e01b815260040161138f919061423c565b6020604051808303816000875af11580156113ae573d6000803e3d6000fd5b505050506040513d601f19601f820116820180604052508101906113d29190615334565b505080806113df9061517f565b915050611071565b5060005b85518110156115fa576000600260009054906101000a900473ffffffffffffffffffffffffffffffffffffffff1673ffffffffffffffffffffffffffffffffffffffff1663b8f9c2a188848151811061144757611446614c80565b5b60200260200101516040518263ffffffff1660e01b815260040161146b919061423c565b602060405180830381865afa158015611488573d6000803e3d6000fd5b505050506040513d601f19601f820116820180604052508101906114ac9190615334565b9050806104b560008985815181106114c7576114c6614c80565b5b602002602001015173ffffffffffffffffffffffffffffffffffffffff1673ffffffffffffffffffffffffffffffffffffffff16815260200190815260200160002060008282546115189190615361565b92505081905550808361152b9190615395565b9250600260009054906101000a900473ffffffffffffffffffffffffffffffffffffffff1673ffffffffffffffffffffffffffffffffffffffff166318b529c388848151811061157e5761157d614c80565b5b60200260200101516040518263ffffffff1660e01b81526004016115a2919061423c565b6020604051808303816000875af11580156115c1573d6000803e3d6000fd5b505050506040513d601f19601f820116820180604052508101906115e59190615334565b505080806115f29061517f565b9150506113eb565b5060005b8451811015611754576000600260009054906101000a900473ffffffffffffffffffffffffffffffffffffffff1673ffffffffffffffffffffffffffffffffffffffff1663b8f9c2a188848151811061165a57611659614c80565b5b60200260200101516040518263ffffffff1660e01b815260040161167e919061423c565b602060405180830381865afa15801561169b573d6000803e3d6000fd5b505050506040513d601f19601f820116820180604052508101906116bf9190615334565b905080836116cd9190615395565b9250806104b560008885815181106116e8576116e7614c80565b5b602002602001015173ffffffffffffffffffffffffffffffffffffffff1673ffffffffffffffffffffffffffffffffffffffff16815260200190815260200160002060008282546117399190615395565b9250508190555050808061174c9061517f565b9150506115fe565b506000865160038a6064811061176d5761176c614c80565b5b600c0201600b015461177f91906153eb565b9050600087518361179091906153eb565b905060005b88518110156118a857600082846117ac9190615395565b90507f88fa4dc6dc84fb056628ddf02c361252f313bcdd951c9d28e3b628bffac8ab558a83815181106117e2576117e1614c80565b5b6020026020010151826040516117f9929190615468565b60405180910390a189828151811061181457611813614c80565b5b602002602001015173ffffffffffffffffffffffffffffffffffffffff166108fc829081150290604051600060405180830381858888f19350505050158015611861573d6000803e3d6000fd5b508360038d6064811061187757611876614c80565b5b600c0201600b01600082825461188d9190615361565b925050819055505080806118a09061517f565b915050611795565b50600160038b606481106118bf576118be614c80565b5b600c0201600a0160046101000a81548160ff021916908360028111156118e8576118e76149c7565b5b021790555060016104b88b6064811061190457611903614c80565b5b602091828204019190066101000a81548160ff0219169083151502179055507fbd75c0c0fcfb2a06c72850a74ec03c188bd53958646995bde4e3980c2ccde2b98a60038c6064811061195957611958614c80565b5b600c0201600a0160049054906101000a900460ff1660405161197c9291906154f0565b60405180910390a16104b760008154809291906119989061552c565b9190505550600194505050505095945050505050565b6000600160009054906101000a900473ffffffffffffffffffffffffffffffffffffffff1673ffffffffffffffffffffffffffffffffffffffff163373ffffffffffffffffffffffffffffffffffffffff1614611a0a57600080fd5b82600060038260648110611a2157611a20614c80565b5b600c0201600a0160059054906101000a900460ff1660ff1614611a4357600080fd5b600160038560648110611a5957611a58614c80565b5b600c0201600a0160056101000a81548160ff021916908360ff160217905550600260038560648110611a8e57611a8d614c80565b5b600c0201600a0160046101000a81548160ff02191690836002811115611ab757611ab66149c7565b5b021790555060005b8351811015611cc0576000600260009054906101000a900473ffffffffffffffffffffffffffffffffffffffff1673ffffffffffffffffffffffffffffffffffffffff1663b8f9c2a1868481518110611b1b57611b1a614c80565b5b60200260200101516040518263ffffffff1660e01b8152600401611b3f919061423c565b602060405180830381865afa158015611b5c573d6000803e3d6000fd5b505050506040513d601f19601f82011682018060405250810190611b809190615334565b9050806104b56000878581518110611b9b57611b9a614c80565b5b602002602001015173ffffffffffffffffffffffffffffffffffffffff1673ffffffffffffffffffffffffffffffffffffffff1681526020019081526020016000206000828254611bec9190615361565b92505081905550600260009054906101000a900473ffffffffffffffffffffffffffffffffffffffff1673ffffffffffffffffffffffffffffffffffffffff166318b529c3868481518110611c4457611c43614c80565b5b60200260200101516040518263ffffffff1660e01b8152600401611c68919061423c565b6020604051808303816000875af1158015611c87573d6000803e3d6000fd5b505050506040513d601f19601f82011682018060405250810190611cab9190615334565b50508080611cb89061517f565b915050611abf565b5060038460648110611cd557611cd4614c80565b5b600c020160010160009054906101000a900473ffffffffffffffffffffffffffffffffffffffff1673ffffffffffffffffffffffffffffffffffffffff166108fc60038660648110611d2a57611d29614c80565b5b600c0201600b01549081150290604051600060405180830381858888f19350505050158015611d5d573d6000803e3d6000fd5b507fbd75c0c0fcfb2a06c72850a74ec03c188bd53958646995bde4e3980c2ccde2b98460038660648110611d9457611d93614c80565b5b600c0201600a0160049054906101000a900460ff16604051611db7929190614d0c565b60405180910390a1600191505092915050565b6104b56020528060005260406000206000915090505481565b6060600160009054906101000a900473ffffffffffffffffffffffffffffffffffffffff1673ffffffffffffffffffffffffffffffffffffffff163373ffffffffffffffffffffffffffffffffffffffff1614611e3f57600080fd5b60038260648110611e5357611e52614c80565b5b600c02016005018054611e6590614e19565b80601f0160208091040260200160405190810160405280929190818152602001828054611e9190614e19565b8015611ede5780601f10611eb357610100808354040283529160200191611ede565b820191906000526020600020905b815481529060010190602001808311611ec157829003601f168201915b50505050509050919050565b600084600060038260648110611f0357611f02614c80565b5b600c0201600a0160059054906101000a900460ff1660ff1614611f2557600080fd5b600160009054906101000a900473ffffffffffffffffffffffffffffffffffffffff1673ffffffffffffffffffffffffffffffffffffffff163373ffffffffffffffffffffffffffffffffffffffff1614611f7f57600080fd5b7f3691000541ef974fd47bc9eebb3e5c3acc93be77b1a5e07d20477d2193be601985604051611fae91906155b0565b60405180910390a16000845160038860648110611fce57611fcd614c80565b5b600c0201600b0154611fe091906153eb565b905060005b8551811015612054577f88fa4dc6dc84fb056628ddf02c361252f313bcdd951c9d28e3b628bffac8ab5586828151811061202257612021614c80565b5b602002602001015183604051612039929190615468565b60405180910390a1808061204c9061517f565b915050611fe5565b5060005b84518110156120e557816104b5600087848151811061207a57612079614c80565b5b602002602001015173ffffffffffffffffffffffffffffffffffffffff1673ffffffffffffffffffffffffffffffffffffffff16815260200190815260200160002060008282546120cb9190615361565b9250508190555080806120dd9061517f565b915050612058565b506001600388606481106120fc576120fb614c80565b5b600c0201600a0160046101000a81548160ff02191690836002811115612125576121246149c7565b5b021790555060016104b8886064811061214157612140614c80565b5b602091828204019190066101000a81548160ff0219169083151502179055507fbd75c0c0fcfb2a06c72850a74ec03c188bd53958646995bde4e3980c2ccde2b9876003896064811061219657612195614c80565b5b600c0201600a0160049054906101000a900460ff166040516121b99291906154f0565b60405180910390a16104b760008154809291906121d59061552c565b9190505550600192505050949350505050565b60006104b460008373ffffffffffffffffffffffffffffffffffffffff1673ffffffffffffffffffffffffffffffffffffffff16815260200190815260200160002060009054906101000a900460ff169050919050565b6104b46020528060005260406000206000915054906101000a900460ff1681565b6003816064811061227057600080fd5b600c02016000915090508060000154908060010160009054906101000a900473ffffffffffffffffffffffffffffffffffffffff16908060020160009054906101000a900473ffffffffffffffffffffffffffffffffffffffff16908060030180546122db90614e19565b80601f016020809104026020016040519081016040528092919081815260200182805461230790614e19565b80156123545780601f1061232957610100808354040283529160200191612354565b820191906000526020600020905b81548152906001019060200180831161233757829003601f168201915b50505050509080600401805461236990614e19565b80601f016020809104026020016040519081016040528092919081815260200182805461239590614e19565b80156123e25780601f106123b7576101008083540402835291602001916123e2565b820191906000526020600020905b8154815290600101906020018083116123c557829003601f168201915b5050505050908060050180546123f790614e19565b80601f016020809104026020016040519081016040528092919081815260200182805461242390614e19565b80156124705780601f1061244557610100808354040283529160200191612470565b820191906000526020600020905b81548152906001019060200180831161245357829003601f168201915b5050505050908060060160009054906101000a900463ffffffff169080600901549080600a0160009054906101000a900463ffffffff169080600a0160049054906101000a900460ff169080600a0160059054906101000a900460ff169080600b015490508c565b600160009054906101000a900473ffffffffffffffffffffffffffffffffffffffff1681565b806104bc826064811061251457612513614c80565b5b600402016002015442816104bc846064811061253357612532614c80565b5b60040201600101546125459190615395565b1061254f57600080fd5b826000600160009054906101000a900473ffffffffffffffffffffffffffffffffffffffff1673ffffffffffffffffffffffffffffffffffffffff16639c0daa7c836040518263ffffffff1660e01b81526004016125ad91906145e1565b602060405180830381865afa1580156125ca573d6000803e3d6000fd5b505050506040513d601f19601f820116820180604052508101906125ee9190615334565b1480156126955750600160009054906101000a900473ffffffffffffffffffffffffffffffffffffffff1673ffffffffffffffffffffffffffffffffffffffff1663f76b365e82336040518363ffffffff1660e01b81526004016126539291906155de565b602060405180830381865afa158015612670573d6000803e3d6000fd5b505050506040513d601f19601f820116820180604052508101906126949190614d5d565b5b61269e57600080fd5b6000600160009054906101000a900473ffffffffffffffffffffffffffffffffffffffff1673ffffffffffffffffffffffffffffffffffffffff1663f681ee11866040518263ffffffff1660e01b81526004016126fb91906145e1565b6000604051808303816000875af115801561271a573d6000803e3d6000fd5b505050506040513d6000823e3d601f19601f8201168201806040525081019061274391906156b3565b90507f484653374230165d70776055de5c30786c08673eb4740ee73dfc172c5e1b5cd081516040516127759190615748565b60405180910390a160005b8151811015612833576104bc866064811061279e5761279d614c80565b5b600402016003018282815181106127b8576127b7614c80565b5b60200260200101519080600181540180825580915050600190039060005260206000200160009091909190916101000a81548173ffffffffffffffffffffffffffffffffffffffff021916908373ffffffffffffffffffffffffffffffffffffffff160217905550808061282b9061517f565b915050612780565b507f484653374230165d70776055de5c30786c08673eb4740ee73dfc172c5e1b5cd06104bc866064811061286a57612869614c80565b5b600402016003018054905060405161288291906157c2565b60405180910390a17f96d75b5fb706f946feb29fd7675ecabcd8ad4262d3b8ead504407c62136aefa2816040516128b99190614c5e565b60405180910390a1426104bc86606481106128d7576128d6614c80565b5b600402016001018190555060966104bc86606481106128f9576128f8614c80565b5b60040201600201819055507f6a54c2949cfe447c07615c41ee2012ce51a3d9b8acb122e210098f51b2d4798d856104bc876064811061293b5761293a614c80565b5b60040201600101546104bc886064811061295857612957614c80565b5b600402016002015460405161296f93929190614b29565b60405180910390a17f226fa98be5b4c2f9d7cf2b650939b5adffe55f9156bbde7b6ed95694304f3a2a6104bc86606481106129ad576129ac614c80565b5b60040201600301805490506040516129c5919061583c565b60405180910390a1600160009054906101000a900473ffffffffffffffffffffffffffffffffffffffff1673ffffffffffffffffffffffffffffffffffffffff1663c6d96072866040518263ffffffff1660e01b8152600401612a2891906145e1565b6020604051808303816000875af1158015612a47573d6000803e3d6000fd5b505050506040513d601f19601f82011682018060405250810190612a6b9190614d5d565b505050505050565b60008054906101000a900473ffffffffffffffffffffffffffffffffffffffff1681565b6000600160009054906101000a900473ffffffffffffffffffffffffffffffffffffffff1673ffffffffffffffffffffffffffffffffffffffff163373ffffffffffffffffffffffffffffffffffffffff1614612af357600080fd5b60038260648110612b0757612b06614c80565b5b600c020160060160009054906101000a900463ffffffff169050919050565b6000600115156104b360003373ffffffffffffffffffffffffffffffffffffffff1673ffffffffffffffffffffffffffffffffffffffff16815260200190815260200160002060009054906101000a900460ff16151503612b8657600080fd5b670de0b6b3a76400003414612b9a57600080fd5b600115156104b460003373ffffffffffffffffffffffffffffffffffffffff1673ffffffffffffffffffffffffffffffffffffffff16815260200190815260200160002060009054906101000a900460ff1615151514612bf957600080fd5b600260009054906101000a900473ffffffffffffffffffffffffffffffffffffffff1673ffffffffffffffffffffffffffffffffffffffff1663df5dd1a5336040518263ffffffff1660e01b8152600401612c54919061423c565b6020604051808303816000875af1158015612c73573d6000803e3d6000fd5b505050506040513d601f19601f82011682018060405250810190612c979190614d5d565b5060016104b360003373ffffffffffffffffffffffffffffffffffffffff1673ffffffffffffffffffffffffffffffffffffffff16815260200190815260200160002060006101000a81548160ff021916908315150217905550346104b560003373ffffffffffffffffffffffffffffffffffffffff1673ffffffffffffffffffffffffffffffffffffffff168152602001908152602001600020819055507f2d62108771d82d92634e2d038b6c7f09290edfee5b1443e25299f04a0cfbca7233604051612d6591906158b6565b60405180910390a16104b360003373ffffffffffffffffffffffffffffffffffffffff1673ffffffffffffffffffffffffffffffffffffffff16815260200190815260200160002060009054906101000a900460ff16905090565b60008060009054906101000a900473ffffffffffffffffffffffffffffffffffffffff1673ffffffffffffffffffffffffffffffffffffffff163373ffffffffffffffffffffffffffffffffffffffff1614612e1b57600080fd5b81600260006101000a81548173ffffffffffffffffffffffffffffffffffffffff021916908373ffffffffffffffffffffffffffffffffffffffff16021790555060019050919050565b6104bc8160648110612e7657600080fd5b600402016000915090508060000154908060010154908060020154905083565b60008060009054906101000a900473ffffffffffffffffffffffffffffffffffffffff1673ffffffffffffffffffffffffffffffffffffffff163373ffffffffffffffffffffffffffffffffffffffff1614612ef157600080fd5b81600160006101000a81548173ffffffffffffffffffffffffffffffffffffffff021916908373ffffffffffffffffffffffffffffffffffffffff16021790555060019050919050565b6000600115156104b360003373ffffffffffffffffffffffffffffffffffffffff1673ffffffffffffffffffffffffffffffffffffffff16815260200190815260200160002060009054906101000a900460ff16151514612f9b57600080fd5b81600060038260648110612fb257612fb1614c80565b5b600c0201600a0160059054906101000a900460ff1660ff1614612fd457600080fd5b8260038160648110612fe957612fe8614c80565b5b600c020160060160009054906101000a900463ffffffff1663ffffffff166003826064811061301b5761301a614c80565b5b600c0201600a0160009054906101000a900463ffffffff1663ffffffff161061304357600080fd5b600115156104b460003373ffffffffffffffffffffffffffffffffffffffff1673ffffffffffffffffffffffffffffffffffffffff16815260200190815260200160002060009054906101000a900460ff16151515146130a257600080fd5b8361064f546104bc82606481106130bc576130bb614c80565b5b60040201600101546130ce9190615395565b42106130d957600080fd5b6001600386606481106130ef576130ee614c80565b5b600c020160070160003373ffffffffffffffffffffffffffffffffffffffff1673ffffffffffffffffffffffffffffffffffffffff16815260200190815260200160002060006101000a81548160ff0219169083151502179055506003856064811061315e5761315d614c80565b5b600c0201600801339080600181540180825580915050600190039060005260206000200160009091909190916101000a81548173ffffffffffffffffffffffffffffffffffffffff021916908373ffffffffffffffffffffffffffffffffffffffff160217905550600385606481106131da576131d9614c80565b5b600c0201600a01600081819054906101000a900463ffffffff1680929190613201906158e4565b91906101000a81548163ffffffff021916908363ffffffff160217905550507fe677a6b9a16a696674f50d2c98a1ce8c5cb51d6b48a0223412c512bbc93664d53360405161324f919061423c565b60405180910390a16003856064811061326b5761326a614c80565b5b600c0201600a0160009054906101000a900463ffffffff1663ffffffff166003866064811061329d5761329c614c80565b5b600c020160060160009054906101000a900463ffffffff1663ffffffff1603613353577f2510e6950be86d6001a0b1229da4c21fa8e26b6bcf345d0b348fe42894fceb03600386606481106132f5576132f4614c80565b5b600c0201600001546003876064811061331157613310614c80565b5b600c02016004016003886064811061332c5761332b614c80565b5b600c020160050160405161334293929190615910565b60405180910390a1600193506133a4565b6104b360003373ffffffffffffffffffffffffffffffffffffffff1673ffffffffffffffffffffffffffffffffffffffff16815260200190815260200160002060009054906101000a900460ff1693505b505050919050565b6000600115156104b360003373ffffffffffffffffffffffffffffffffffffffff1673ffffffffffffffffffffffffffffffffffffffff16815260200190815260200160002060009054906101000a900460ff1615151461340c57600080fd5b60006104b560003373ffffffffffffffffffffffffffffffffffffffff1673ffffffffffffffffffffffffffffffffffffffff168152602001908152602001600020541161345957600080fd5b600115156104b460003373ffffffffffffffffffffffffffffffffffffffff1673ffffffffffffffffffffffffffffffffffffffff16815260200190815260200160002060009054906101000a900460ff16151515146134b857600080fd5b6001600260009054906101000a900473ffffffffffffffffffffffffffffffffffffffff1673ffffffffffffffffffffffffffffffffffffffff16630855078b336040518263ffffffff1660e01b8152600401613515919061423c565b602060405180830381865afa158015613532573d6000803e3d6000fd5b505050506040513d601f19601f820116820180604052508101906135569190615334565b11156135b65760016104b460003373ffffffffffffffffffffffffffffffffffffffff1673ffffffffffffffffffffffffffffffffffffffff16815260200190815260200160002060006101000a81548160ff0219169083151502179055505b6104b360003373ffffffffffffffffffffffffffffffffffffffff1673ffffffffffffffffffffffffffffffffffffffff16815260200190815260200160002060006101000a81549060ff02191690553373ffffffffffffffffffffffffffffffffffffffff166108fc6104b560003373ffffffffffffffffffffffffffffffffffffffff1673ffffffffffffffffffffffffffffffffffffffff168152602001908152602001600020549081150290604051600060405180830381858888f1935050505015801561368c573d6000803e3d6000fd5b5060006104b560003373ffffffffffffffffffffffffffffffffffffffff1673ffffffffffffffffffffffffffffffffffffffff168152602001908152602001600020819055507f14951d787e2aaf7813982720871de23d576e7d935c0587e12a7fc2c4c960165a3360405161370291906159a1565b60405180910390a16001905090565b6000600160009054906101000a900473ffffffffffffffffffffffffffffffffffffffff1673ffffffffffffffffffffffffffffffffffffffff163373ffffffffffffffffffffffffffffffffffffffff161461376d57600080fd5b6003836064811061378157613780614c80565b5b600c020160070160008373ffffffffffffffffffffffffffffffffffffffff1673ffffffffffffffffffffffffffffffffffffffff16815260200190815260200160002060009054906101000a900460ff16905092915050565b6104b36020528060005260406000206000915054906101000a900460ff1681565b6060600160009054906101000a900473ffffffffffffffffffffffffffffffffffffffff1673ffffffffffffffffffffffffffffffffffffffff163373ffffffffffffffffffffffffffffffffffffffff161461385857600080fd5b6003826064811061386c5761386b614c80565b5b600c02016008018054806020026020016040519081016040528092919081815260200182805480156138f357602002820191906000526020600020905b8160009054906101000a900473ffffffffffffffffffffffffffffffffffffffff1673ffffffffffffffffffffffffffffffffffffffff16815260200190600101908083116138a9575b50505050509050919050565b806003816064811061391457613913614c80565b5b600c020160010160009054906101000a900473ffffffffffffffffffffffffffffffffffffffff1673ffffffffffffffffffffffffffffffffffffffff163373ffffffffffffffffffffffffffffffffffffffff161461397357600080fd5b816104bc836064811061398957613988614c80565b5b600402016002015442816104bc84606481106139a8576139a7614c80565b5b60040201600101546139ba9190615395565b106139c457600080fd5b6001600385606481106139da576139d9614c80565b5b600c0201600a0160056101000a81548160ff021916908360ff16021790555060038460648110613a0d57613a0c614c80565b5b600c020160010160009054906101000a900473ffffffffffffffffffffffffffffffffffffffff1673ffffffffffffffffffffffffffffffffffffffff166108fc60038660648110613a6257613a61614c80565b5b600c0201600b01549081150290604051600060405180830381858888f19350505050158015613a95573d6000803e3d6000fd5b50600160009054906101000a900473ffffffffffffffffffffffffffffffffffffffff1673ffffffffffffffffffffffffffffffffffffffff16633015394c856040518263ffffffff1660e01b8152600401613af191906145e1565b6020604051808303816000875af1158015613b10573d6000803e3d6000fd5b505050506040513d601f19601f82011682018060405250810190613b349190614d5d565b50600260038560648110613b4b57613b4a614c80565b5b600c0201600a0160046101000a81548160ff02191690836002811115613b7457613b736149c7565b5b02179055507fbd75c0c0fcfb2a06c72850a74ec03c188bd53958646995bde4e3980c2ccde2b98460038660648110613baf57613bae614c80565b5b600c0201600a0160049054906101000a900460ff16604051613bd2929190614d0c565b60405180910390a150505050565b8060018060009054906101000a900473ffffffffffffffffffffffffffffffffffffffff1673ffffffffffffffffffffffffffffffffffffffff16639c0daa7c836040518263ffffffff1660e01b8152600401613c3d91906145e1565b602060405180830381865afa158015613c5a573d6000803e3d6000fd5b505050506040513d601f19601f82011682018060405250810190613c7e9190615334565b148015613d255750600160009054906101000a900473ffffffffffffffffffffffffffffffffffffffff1673ffffffffffffffffffffffffffffffffffffffff16632d214d2e82336040518363ffffffff1660e01b8152600401613ce39291906155de565b602060405180830381865afa158015613d00573d6000803e3d6000fd5b505050506040513d601f19601f82011682018060405250810190613d249190614d5d565b5b8015613dcc57506000600160009054906101000a900473ffffffffffffffffffffffffffffffffffffffff1673ffffffffffffffffffffffffffffffffffffffff1663ba26ed59836040518263ffffffff1660e01b8152600401613d8991906145e1565b602060405180830381865afa158015613da6573d6000803e3d6000fd5b505050506040513d601f19601f82011682018060405250810190613dca9190615334565b145b613dd557600080fd5b816104bc8360648110613deb57613dea614c80565b5b600402016002015442816104bc8460648110613e0a57613e09614c80565b5b6004020160010154613e1c9190615395565b10613e2657600080fd5b6000600160009054906101000a900473ffffffffffffffffffffffffffffffffffffffff1673ffffffffffffffffffffffffffffffffffffffff166319ff76c0866040518263ffffffff1660e01b8152600401613e8391906145e1565b6000604051808303816000875af1158015613ea2573d6000803e3d6000fd5b505050506040513d6000823e3d601f19601f82011682018060405250810190613ecb91906156b3565b905060005b8151811015613f83576104bc8660648110613eee57613eed614c80565b5b60040201600301828281518110613f0857613f07614c80565b5b60200260200101519080600181540180825580915050600190039060005260206000200160009091909190916101000a81548173ffffffffffffffffffffffffffffffffffffffff021916908373ffffffffffffffffffffffffffffffffffffffff1602179055508080613f7b9061517f565b915050613ed0565b50600160009054906101000a900473ffffffffffffffffffffffffffffffffffffffff1673ffffffffffffffffffffffffffffffffffffffff16634a6271528660038860648110613fd757613fd6614c80565b5b600c0201600901546040518363ffffffff1660e01b8152600401613ffc9291906159cf565b6020604051808303816000875af115801561401b573d6000803e3d6000fd5b505050506040513d601f19601f8201168201806040525081019061403f9190614d5d565b505050505050565b6000600160009054906101000a900473ffffffffffffffffffffffffffffffffffffffff1673ffffffffffffffffffffffffffffffffffffffff163373ffffffffffffffffffffffffffffffffffffffff16146140a357600080fd5b600382606481106140b7576140b6614c80565b5b600c0201600901549050919050565b6000600260009054906101000a900473ffffffffffffffffffffffffffffffffffffffff1673ffffffffffffffffffffffffffffffffffffffff163373ffffffffffffffffffffffffffffffffffffffff161461412257600080fd5b60016104b460008473ffffffffffffffffffffffffffffffffffffffff1673ffffffffffffffffffffffffffffffffffffffff16815260200190815260200160002060006101000a81548160ff0219169083151502179055506104b460008373ffffffffffffffffffffffffffffffffffffffff1673ffffffffffffffffffffffffffffffffffffffff16815260200190815260200160002060009054906101000a900460ff169050919050565b6104b881606481106141e157600080fd5b60209182820401919006915054906101000a900460ff1681565b600073ffffffffffffffffffffffffffffffffffffffff82169050919050565b6000614226826141fb565b9050919050565b6142368161421b565b82525050565b6000602082019050614251600083018461422d565b92915050565b6000604051905090565b600080fd5b600080fd5b6000819050919050565b61427e8161426b565b811461428957600080fd5b50565b60008135905061429b81614275565b92915050565b6000602082840312156142b7576142b6614261565b5b60006142c58482850161428c565b91505092915050565b600063ffffffff82169050919050565b6142e7816142ce565b82525050565b600060208201905061430260008301846142de565b92915050565b60008115159050919050565b61431d81614308565b82525050565b60006020820190506143386000830184614314565b92915050565b6143478161421b565b811461435257600080fd5b50565b6000813590506143648161433e565b92915050565b600080fd5b600080fd5b6000601f19601f8301169050919050565b7f4e487b7100000000000000000000000000000000000000000000000000000000600052604160045260246000fd5b6143bd82614374565b810181811067ffffffffffffffff821117156143dc576143db614385565b5b80604052505050565b60006143ef614257565b90506143fb82826143b4565b919050565b600067ffffffffffffffff82111561441b5761441a614385565b5b61442482614374565b9050602081019050919050565b82818337600083830152505050565b600061445361444e84614400565b6143e5565b90508281526020810184848401111561446f5761446e61436f565b5b61447a848285614431565b509392505050565b600082601f8301126144975761449661436a565b5b81356144a7848260208601614440565b91505092915050565b6144b9816142ce565b81146144c457600080fd5b50565b6000813590506144d6816144b0565b92915050565b600080600080600080600060e0888a0312156144fb576144fa614261565b5b60006145098a828b01614355565b975050602088013567ffffffffffffffff81111561452a57614529614266565b5b6145368a828b01614482565b965050604088013567ffffffffffffffff81111561455757614556614266565b5b6145638a828b01614482565b955050606088013567ffffffffffffffff81111561458457614583614266565b5b6145908a828b01614482565b94505060806145a18a828b0161428c565b93505060a06145b28a828b016144c7565b92505060c06145c38a828b0161428c565b91505092959891949750929550565b6145db8161426b565b82525050565b60006020820190506145f660008301846145d2565b92915050565b61460581614308565b811461461057600080fd5b50565b600081359050614622816145fc565b92915050565b600067ffffffffffffffff82111561464357614642614385565b5b602082029050602081019050919050565b600080fd5b600061466c61466784614628565b6143e5565b9050808382526020820190506020840283018581111561468f5761468e614654565b5b835b818110156146b857806146a48882614355565b845260208401935050602081019050614691565b5050509392505050565b600082601f8301126146d7576146d661436a565b5b81356146e7848260208601614659565b91505092915050565b600080600080600060a0868803121561470c5761470b614261565b5b600061471a8882890161428c565b955050602061472b88828901614613565b945050604086013567ffffffffffffffff81111561474c5761474b614266565b5b614758888289016146c2565b935050606086013567ffffffffffffffff81111561477957614778614266565b5b614785888289016146c2565b925050608086013567ffffffffffffffff8111156147a6576147a5614266565b5b6147b2888289016146c2565b9150509295509295909350565b600080604083850312156147d6576147d5614261565b5b60006147e48582860161428c565b925050602083013567ffffffffffffffff81111561480557614804614266565b5b614811858286016146c2565b9150509250929050565b60006020828403121561483157614830614261565b5b600061483f84828501614355565b91505092915050565b600081519050919050565b600082825260208201905092915050565b60005b83811015614882578082015181840152602081019050614867565b83811115614891576000848401525b50505050565b60006148a282614848565b6148ac8185614853565b93506148bc818560208601614864565b6148c581614374565b840191505092915050565b600060208201905081810360008301526148ea8184614897565b905092915050565b6000819050919050565b614905816148f2565b811461491057600080fd5b50565b600081359050614922816148fc565b92915050565b6000806000806080858703121561494257614941614261565b5b60006149508782880161428c565b945050602061496187828801614913565b935050604085013567ffffffffffffffff81111561498257614981614266565b5b61498e878288016146c2565b925050606085013567ffffffffffffffff8111156149af576149ae614266565b5b6149bb878288016146c2565b91505092959194509250565b7f4e487b7100000000000000000000000000000000000000000000000000000000600052602160045260246000fd5b60038110614a0757614a066149c7565b5b50565b6000819050614a18826149f6565b919050565b6000614a2882614a0a565b9050919050565b614a3881614a1d565b82525050565b600060ff82169050919050565b614a5481614a3e565b82525050565b600061018082019050614a70600083018f6145d2565b614a7d602083018e61422d565b614a8a604083018d61422d565b8181036060830152614a9c818c614897565b90508181036080830152614ab0818b614897565b905081810360a0830152614ac4818a614897565b9050614ad360c08301896142de565b614ae060e08301886145d2565b614aee6101008301876142de565b614afc610120830186614a2f565b614b0a610140830185614a4b565b614b186101608301846145d2565b9d9c50505050505050505050505050565b6000606082019050614b3e60008301866145d2565b614b4b60208301856145d2565b614b5860408301846145d2565b949350505050565b60008060408385031215614b7757614b76614261565b5b6000614b858582860161428c565b9250506020614b9685828601614355565b9150509250929050565b600081519050919050565b600082825260208201905092915050565b6000819050602082019050919050565b614bd58161421b565b82525050565b6000614be78383614bcc565b60208301905092915050565b6000602082019050919050565b6000614c0b82614ba0565b614c158185614bab565b9350614c2083614bbc565b8060005b83811015614c51578151614c388882614bdb565b9750614c4383614bf3565b925050600181019050614c24565b5085935050505092915050565b60006020820190508181036000830152614c788184614c00565b905092915050565b7f4e487b7100000000000000000000000000000000000000000000000000000000600052603260045260246000fd5b600082825260208201905092915050565b7f43414e43454c4c45440000000000000000000000000000000000000000000000600082015250565b6000614cf6600983614caf565b9150614d0182614cc0565b602082019050919050565b6000606082019050614d2160008301856145d2565b614d2e6020830184614a2f565b8181036040830152614d3f81614ce9565b90509392505050565b600081519050614d57816145fc565b92915050565b600060208284031215614d7357614d72614261565b5b6000614d8184828501614d48565b91505092915050565b7f4e487b7100000000000000000000000000000000000000000000000000000000600052601260045260246000fd5b6000614dc4826142ce565b9150614dcf836142ce565b925082614ddf57614dde614d8a565b5b828206905092915050565b7f4e487b7100000000000000000000000000000000000000000000000000000000600052602260045260246000fd5b60006002820490506001821680614e3157607f821691505b602082108103614e4457614e43614dea565b5b50919050565b60008190508160005260206000209050919050565b60006020601f8301049050919050565b600082821b905092915050565b600060088302614eac7fffffffffffffffffffffffffffffffffffffffffffffffffffffffffffffffff82614e6f565b614eb68683614e6f565b95508019841693508086168417925050509392505050565b6000819050919050565b6000614ef3614eee614ee98461426b565b614ece565b61426b565b9050919050565b6000819050919050565b614f0d83614ed8565b614f21614f1982614efa565b848454614e7c565b825550505050565b600090565b614f36614f29565b614f41818484614f04565b505050565b5b81811015614f6557614f5a600082614f2e565b600181019050614f47565b5050565b601f821115614faa57614f7b81614e4a565b614f8484614e5f565b81016020851015614f93578190505b614fa7614f9f85614e5f565b830182614f46565b50505b505050565b600082821c905092915050565b6000614fcd60001984600802614faf565b1980831691505092915050565b6000614fe68383614fbc565b9150826002028217905092915050565b614fff82614848565b67ffffffffffffffff81111561501857615017614385565b5b6150228254614e19565b61502d828285614f69565b600060209050601f831160018114615060576000841561504e578287015190505b6150588582614fda565b8655506150c0565b601f19841661506e86614e4a565b60005b8281101561509657848901518255600182019150602085019450602081019050615071565b868310156150b357848901516150af601f891682614fbc565b8355505b6001600288020188555050505b505050505050565b7f50454e44494e4700000000000000000000000000000000000000000000000000600082015250565b60006150fe600783614caf565b9150615109826150c8565b602082019050919050565b600060608201905061512960008301856145d2565b6151366020830184614a2f565b8181036040830152615147816150f1565b90509392505050565b7f4e487b7100000000000000000000000000000000000000000000000000000000600052601160045260246000fd5b600061518a8261426b565b91507fffffffffffffffffffffffffffffffffffffffffffffffffffffffffffffffff82036151bc576151bb615150565b5b600182019050919050565b600081546151d481614e19565b6151de8186614853565b945060018216600081146151f9576001811461520f57615242565b60ff198316865281151560200286019350615242565b61521885614e4a565b60005b8381101561523a5781548189015260018201915060208101905061521b565b808801955050505b50505092915050565b600060a08201905061526060008301886145d2565b818103602083015261527281876151c7565b905061528160408301866145d2565b61528e60608301856145d2565b61529b60808301846145d2565b9695505050505050565b7f207468652066696e616c20726573756c74000000000000000000000000000000600082015250565b60006152db601183614caf565b91506152e6826152a5565b602082019050919050565b60006040820190506153066000830184614314565b8181036020830152615317816152ce565b905092915050565b60008151905061532e81614275565b92915050565b60006020828403121561534a57615349614261565b5b60006153588482850161531f565b91505092915050565b600061536c8261426b565b91506153778361426b565b92508282101561538a57615389615150565b5b828203905092915050565b60006153a08261426b565b91506153ab8361426b565b9250827fffffffffffffffffffffffffffffffffffffffffffffffffffffffffffffffff038211156153e0576153df615150565b5b828201905092915050565b60006153f68261426b565b91506154018361426b565b92508261541157615410614d8a565b5b828204905092915050565b7f4f7261636c6520686173206265656e2050616964210000000000000000000000600082015250565b6000615452601583614caf565b915061545d8261541c565b602082019050919050565b600060608201905061547d600083018561422d565b61548a60208301846145d2565b818103604083015261549b81615445565b90509392505050565b7f434f4d504c455445000000000000000000000000000000000000000000000000600082015250565b60006154da600883614caf565b91506154e5826154a4565b602082019050919050565b600060608201905061550560008301856145d2565b6155126020830184614a2f565b8181036040830152615523816154cd565b90509392505050565b60006155378261426b565b91506000820361554a57615549615150565b5b600182039050919050565b61555e816148f2565b82525050565b7f7468652066696e616c20726573756c7400000000000000000000000000000000600082015250565b600061559a601083614caf565b91506155a582615564565b602082019050919050565b60006040820190506155c56000830184615555565b81810360208301526155d68161558d565b905092915050565b60006040820190506155f360008301856145d2565b615600602083018461422d565b9392505050565b6000815190506156168161433e565b92915050565b600061562f61562a84614628565b6143e5565b9050808382526020820190506020840283018581111561565257615651614654565b5b835b8181101561567b57806156678882615607565b845260208401935050602081019050615654565b5050509392505050565b600082601f83011261569a5761569961436a565b5b81516156aa84826020860161561c565b91505092915050565b6000602082840312156156c9576156c8614261565b5b600082015167ffffffffffffffff8111156156e7576156e6614266565b5b6156f384828501615685565b91505092915050565b7f756e526573706f6e6465644e6f646573206c697374206c656e00000000000000600082015250565b6000615732601983614caf565b915061573d826156fc565b602082019050919050565b600060408201905061575d60008301846145d2565b818103602083015261576e81615725565b905092915050565b7f6c656e206f662074696d656f7574206f7261636c65206c697374000000000000600082015250565b60006157ac601a83614caf565b91506157b782615776565b602082019050919050565b60006040820190506157d760008301846145d2565b81810360208301526157e88161579f565b905092915050565b7f6e756d626572206f7261636c657320696e2074696d656f757400000000000000600082015250565b6000615826601983614caf565b9150615831826157f0565b602082019050919050565b600060408201905061585160008301846145d2565b818103602083015261586281615819565b905092915050565b7f57656c636f6d65206e6577206e6f646521000000000000000000000000000000600082015250565b60006158a0601183614caf565b91506158ab8261586a565b602082019050919050565b60006040820190506158cb600083018461422d565b81810360208301526158dc81615893565b905092915050565b60006158ef826142ce565b915063ffffffff820361590557615904615150565b5b600182019050919050565b600060608201905061592560008301866145d2565b818103602083015261593781856151c7565b9050818103604083015261594b81846151c7565b9050949350505050565b7f4e6f646520686173206c6566742c20476f6f6462796500000000000000000000600082015250565b600061598b601683614caf565b915061599682615955565b602082019050919050565b60006040820190506159b6600083018461422d565b81810360208301526159c78161597e565b905092915050565b60006040820190506159e460008301856145d2565b6159f160208301846145d2565b939250505056fea2646970667358221220f307cadabfd10a2e8f062bc101a9012c420fef5beb043259159339cd743348fa64736f6c634300080f0033",
  "immutableReferences": {},
  "source": "// SPDX-License-Identifier: MIT\npragma solidity ^0.8.0;\n\nimport \"./AggregatorContract.sol\";\nimport \"./ReputationContract.sol\";\n\ncontract OracleRequestContract {\n    //address that deploys contract\n    address public owner;\n    // address of aggregator contract\n    address public aggregatorAddr;\n    // address of reputation contract\n    address public reputationAddr;\n    // Array to populate with requests that come in\n    Request[100] public requests;\n    // all mappings of oracles that have joined network\n    mapping (address => bool) public oracles;\n    // mapping of blacklisted oracles (who's ratings exceed 10)\n    mapping (address => bool) public blacklistedOracles;\n    // stakeBalance of each node, should be equal to 1 eth\n    mapping (address => uint) public stakeBalance;\n    // request and and pending counters, pending decreased when status changed to COMPLETE\n    uint requestCounter = 1;\n    uint pendingCounter = 1;\n    // Status logs for each request\n    enum Status{PENDING, COMPLETE, CANCELLED}\n    struct Timings {\n        uint appealFlag;\n        uint timestamp;\n        uint elapsedTime;\n        address[] timedOutOracles;\n    }\n    // a single Request structure\n    struct Request {\n        uint256 requestID; //Id for each request\n        address requester; // address which made the request\n        address callbackAddress; // an address in which the response can be delivered to\n        bytes callbackFID; // a function in the callback address that can be called\n        bytes IoTID; // the ID of the IoT the user-SC wishes to gather data from\n        bytes dataType; // data type, JSON that is decoded by the oracle node that will collect the data\n        // bytes32 pHash; // a hash of the data type and the actual result required.\n        //bytes requiredResult; // left this out for security reason, we only apply it to the hash\n        uint32 numberOfOracles; // number of oracles needed to fetch the data\n        mapping (address => bool) oraclesForRequest; // must be true in order for oracle node to participate\n        address[] oracleAddressAccess; // mapping so we can iterate through addresses\n        uint256 aggregationType;\n        uint32 oracleCounter; // index and counter for the number of oracles\n        Status status; // status of the request\n        uint8 cancelFlag; // cancel flag, if == 1 then do not continue with request\n        uint fee; // fee sent to cover costs and extra for fetch the data\n\n    }\n\n    bool[100] public completedRequests;// true for each requestID once status changes to complete.\n    Timings[100] public timings;\n    event OpenForBids(uint256, bytes, uint256, uint, uint); // tells oracle nodes there is a request that needs bidding on\n    event BidPlaced(address); // tells nodes that a bid has been placed by another node\n    event ReleaseRequestDetails(uint256, bytes, bytes); // the details the node needs to gather\n    event StatusChange(uint256, Status, string); // tells nodes in network of status change of requests\n    event OracleJoined(address, string); // tells network that a new oracle has joined the network\n    event OracleLeft(address, string); // tells the network that another oracle has left\n    event OraclePaid(address, uint, string); // tells the network when an oracle has been paid for its services\n    event Logging(string);\n    event FinalResultLog(bool, string);\n    event FinalInt(int256, string);\n    event UpdateTimestamp(uint256, uint256, uint256);\n    event LogNumberOfOracles(uint, string);\n    event PrintAddress(address);\n    event PrintAddresses(address[]);\n    event LogTimeOutLen(uint, string);\n    // ***payments***\n    uint GAS_PRICE = 2 * 10**10; // cost of gas\n    uint FEE = GAS_PRICE * 3; // fee to cover other function calls and pay each oracle\n    uint MIN_FEE = FEE + (GAS_PRICE * 5); // minimum needed to cover all costs\n    uint TIMER_ELAPSED_BIDDING = 300;\n\n    // @notice constructor when first deployed\n    constructor() {\n        owner = msg.sender; // set the owner of the contract to the address that deploys it\n    }\n    // @notice used if eth is sent to an invalid function etc\n    fallback() external{}\n\n    // @notice function called by addresses of Off-chain Oracle nodes that want to join the network\n    // @return bool, true if successful otherwise reverts\n    function joinAsOracle()\n    public\n    payable\n    oracleNotJoined()\n    valueEqual1Eth()\n    isNotBlacklisted()\n    //oracleCannotRejoin()\n    returns(bool){\n        ReputationContract(reputationAddr).addOracle(msg.sender);\n        oracles[address(msg.sender)] = true; // set to true as is now in network\n        stakeBalance[msg.sender] = msg.value; // added value to stakeBalance as a record\n        emit OracleJoined(msg.sender, \"Welcome new node!\"); // emit event so listeners can be notified\n        return oracles[address(msg.sender)]; // return true\n    }\n    // @notice oracle node calls this function when they wish to leave network\n    // @return bool\n    function leaveOracleNetwork()\n    public\n    oracleHasJoined()\n    stakeCheck()\n    isNotBlacklisted()\n    returns(bool) {\n        if (ReputationContract(reputationAddr).getOracleRating(msg.sender) > 1 ){\n            blacklistedOracles[msg.sender] = true; // allows oracle nodes with penalties to leave, but cannot rejoin\n        }\n        delete oracles[msg.sender]; // deletes address from mapping\n        payable(msg.sender).transfer(stakeBalance[msg.sender]); // transfers their stake back to them\n        stakeBalance[msg.sender] = 0; // set stakeBalance back to 0 for the oracle node\n        emit OracleLeft(msg.sender, \"Node has left, Goodbye\"); // emit event so listeners can be notified\n        return true; // return true to confirm\n    }\n\n    // @notice user can call function create request\n    // @dev\n    // @param _callbackAddress could be different to address that called the function\n    // @param _callbackFID a particular function in a smart contract that is needed to be called based on request\n    // @param _IoTID the identifier of the IoT device oracle node will be subscribing to\n    // @param _dataType, true false answer, an event, continuous data over time?\n    // @param _aggregationType 1 = voting, 2 = averaging\n    // @param _numberOfOracles number of oracle nodes that fetch IoT data\n    // @return the requestID so the user can keep track of request\n    function createRequest(\n        address _callbackAddress,\n        bytes memory _callbackFID,\n        bytes memory _IoTID,\n        bytes memory _dataType,\n        uint256 _aggregationType,\n        uint32 _numberOfOracles,\n        uint _elapsedTime) // time required\n    external\n    payable\n    valueGTMinFeeCheck() // requires the value sent is >= MIN_FEE\n    oddNumOracles(_numberOfOracles) // requires an odd number of oracles\n    aggregationTypeCheck(_aggregationType) // 1 = voting, 2 = averaging\n    returns(uint256)\n    {\n\n        uint256 requestID = requestCounter; // assign id to request\n        timings[requestID].timestamp = block.timestamp;\n        timings[requestID].elapsedTime = _elapsedTime;\n        // log details of the request to array to cross reference later\n        requests[requestID].requestID = requestID;\n        requests[requestID].requester = msg.sender;\n        requests[requestID].callbackAddress = _callbackAddress;\n        requests[requestID].callbackFID = _callbackFID;\n        requests[requestID].IoTID = _IoTID;\n        requests[requestID].dataType = _dataType;\n        requests[requestID].numberOfOracles = _numberOfOracles;\n        requests[requestID].oracleCounter = 0;\n        requests[requestID].status = Status.PENDING;\n        requests[requestID].cancelFlag = 0;\n        requests[requestID].fee = msg.value; // keeps track of the fee for the request\n        requests[requestID].aggregationType = _aggregationType;\n        emit StatusChange(requestID, requests[requestID].status, \"PENDING\"); // tells nodes in network of status change of requests\n        // increment requestId ready for next create request function.\n        requestCounter++;\n        pendingCounter++;\n        emit OpenForBids(requestID, requests[requestID].dataType, requests[requestID].aggregationType,\n            timings[requestID].timestamp, timings[requestID].elapsedTime);\n        return requestID;\n    }\n    // @notice\n    function timeoutCommitsAppeal(uint256 _requestID)\n    timeHasElapsed(_requestID, timings[_requestID].elapsedTime)\n    onlySubmittedCommitsOracles(_requestID)\n    external\n    {\n        // call get un-responded nodes\n        address[] memory unRespondedNodes = AggregatorContract(aggregatorAddr).getUnRespondedCommitOracles(_requestID);\n        emit LogTimeOutLen(unRespondedNodes.length, \"unRespondedNodes list len\");\n        for (uint i=0; i<unRespondedNodes.length; i++) {\n            timings[_requestID].timedOutOracles.push(unRespondedNodes[i]);\n        }\n        emit LogTimeOutLen(timings[_requestID].timedOutOracles.length, \"len of timeout oracle list\");\n        emit PrintAddresses(unRespondedNodes);\n        timings[_requestID].timestamp = block.timestamp; // reset timestamp\n        timings[_requestID].elapsedTime = 150; // allow for 2.5 min send a reveal message\n        emit UpdateTimestamp(_requestID, timings[_requestID].timestamp, timings[_requestID].elapsedTime);\n        emit LogNumberOfOracles(timings[_requestID].timedOutOracles.length, \"number oracles in timeout\");\n        AggregatorContract(aggregatorAddr).forceCommitsPlaced(_requestID);\n    }\n\n    function timeoutRevealsAppeal(uint _requestID)\n    onlySubmittedRevealsOracles(_requestID)\n    timeHasElapsed(_requestID, timings[_requestID].elapsedTime)\n    external\n    {\n        address[] memory unRespondedNodes = AggregatorContract(aggregatorAddr).getUnRespondedRevealOracles(_requestID);\n        for (uint i=0; i<unRespondedNodes.length; i++) {\n            timings[_requestID].timedOutOracles.push(unRespondedNodes[i]);\n        }\n\n        AggregatorContract(aggregatorAddr).forceRevealsPlaced(_requestID, requests[_requestID].aggregationType);\n    }\n\n    function timeoutBiddingAppeal(uint _requestID)\n    onlyRequester(_requestID)\n    timeHasElapsed(_requestID, timings[_requestID].elapsedTime)\n    external\n    {\n        requests[_requestID].cancelFlag = 1;\n        payable(requests[_requestID].requester).transfer(requests[_requestID].fee);\n        AggregatorContract(aggregatorAddr).cancelRequest(_requestID);\n        requests[_requestID].status = Status.CANCELLED;\n        emit StatusChange(_requestID, requests[_requestID].status, \"CANCELLED\");\n    }\n\n    // @notice off-chain oracle node places bid to fetch data, once threshold is reached, emits event details.\n    // @dev\n    // @param requestId oracle node wishes to bid on\n    // @return true to indicate bid successful\n    function placeBid(\n        uint256 _requestID)\n    public\n    oracleHasJoined() // requires that the oracle is in the network\n    cancelFlagZero(_requestID) // requires requests cancel flag is zero\n    orcCountLessThanNum(_requestID) // requires that the oracle counter is still les than the number of oracles needed\n    isNotBlacklisted() // requires the oracle has not exceed its penalty rating past 10\n    biddingTimeElapsed(_requestID)\n    returns(bool)\n    {\n        requests[_requestID].oraclesForRequest[msg.sender] = true; // add true for oracle in request so we know they can vote\n        requests[_requestID].oracleAddressAccess.push(msg.sender) ; // map addr for iteration\n        requests[_requestID].oracleCounter++; // increment the counter\n        emit BidPlaced(msg.sender); // send message to network that a bid has been placed\n        if (requests[_requestID].numberOfOracles == requests[_requestID].oracleCounter) {\n            // when the last oracle has submitted, we can emit the details\n            emit ReleaseRequestDetails(\n                requests[_requestID].requestID, // requestID\n                requests[_requestID].IoTID, // IoT info, this is most of importance\n                requests[_requestID].dataType); // DataType\n            return true; // returns true to show completion of the bidding phase that is now over\n        }\n        return oracles[msg.sender]; // returns true for each oracle that bids\n    }\n\n    // @notice called by aggregator contract to deliver final response\n    // @param _requestID, id of request\n    // @param _finalResult, final aggregated result\n    // @param _correctOracles, array of addresses of oracles to be paid for their work\n    function deliverVoteResponse(\n        uint256 _requestID,\n        bool _finalResult,\n        address[] memory _correctOracles,\n        address[] memory _incorrectOracles,\n        address[] memory _incorrectRevealOracles) // do not penalise\n    public\n    cancelFlagZero(_requestID) // requires that the cancelFlag is = 0\n    onlyAggregator() // only the aggregator contract can call this function\n    returns(bool)\n    {\n        // return single aggregation result\n        emit FinalResultLog(_finalResult, \" the final result\");\n        _finalResult;\n\n        uint slashedRewards = 0; //pay honest nodes fees from the slashing\n        // pay fees\n        for (uint i=0; i<timings[_requestID].timedOutOracles.length; i++) {\n            emit PrintAddress(timings[_requestID].timedOutOracles[i]);\n            uint penalty = ReputationContract(reputationAddr).getPenaltyFee(timings[_requestID].timedOutOracles[i]);\n            stakeBalance[timings[_requestID].timedOutOracles[i]] -= penalty;\n            slashedRewards += penalty;\n            ReputationContract(reputationAddr).incrementRating(timings[_requestID].timedOutOracles[i]);\n        }\n        // add penalties and slash dishonest nodes stake\n        for (uint i=0; i<_incorrectOracles.length; i++){\n            // gets penalty fee from reputation contract penalty**rating\n            uint penalty = ReputationContract(reputationAddr).getPenaltyFee(_incorrectOracles[i]);\n            stakeBalance[_incorrectOracles[i]] -= penalty;\n            slashedRewards += penalty;\n            ReputationContract(reputationAddr).incrementRating(_incorrectOracles[i]);\n        }\n        // small penalty for incorrect hashes, as this could be an error\n        for (uint i=0; i<_incorrectRevealOracles.length; i++) {\n\n            uint penalty = ReputationContract(reputationAddr).getPenaltyFee(_incorrectOracles[i]); // charge the fee of the request as a penalty\n            slashedRewards += penalty;\n            stakeBalance[_incorrectRevealOracles[i]] += penalty; // deducted from oracle stake\n        }\n        uint fee = requests[_requestID].fee / _correctOracles.length;\n        uint slashShare = slashedRewards / _correctOracles.length;\n        for (uint i=0; i<_correctOracles.length; i++) {\n            // pay each share to each oracle\n            uint fullReward = fee + slashShare;\n\n            emit OraclePaid(_correctOracles[i], fullReward, \"Oracle has been Paid!\"); // tells listeners oracle node has been paid\n            payable(_correctOracles[i]).transfer(fullReward); // pays oracle their fee\n            requests[_requestID].fee -= fee; // deduct the oracles portion from the logged amount until it reaches 0\n            // and all oracles have been paid\n        }\n        requests[_requestID].status = Status.COMPLETE; // request is complete\n        completedRequests[_requestID] = true; // add request id to completedRequests\n        emit StatusChange(_requestID, requests[_requestID].status, \"COMPLETE\"); // tell listeners that the status has changed\n        pendingCounter--; // no longer pending so countered can be decremented\n        return true; // return true to so it has finished\n    }\n\n    // @notice called by aggregator contract to deliver final response\n    // @param _requestID, id of request\n    // @param _finalResult, final aggregated result\n    // @param _correctOracles, array of addresses of oracles to be paid for their work\n    function deliverAverageResponse(\n        uint256 _requestID,\n        int256 _finalResult,\n        address[] memory _correctOracles,\n        address[] memory _incorrectOracles)\n        // address[] memory _incorrectOracles,\n        // address[] memory _incorrectRevealOracles) // do not penalise\n    public\n    cancelFlagZero(_requestID) // requires that the cancelFlag is = 0\n    onlyAggregator() // only the aggregator contract can call this function\n    returns(bool)\n    {\n        // return single aggregation result\n        emit FinalInt(_finalResult, \"the final result\");\n        _finalResult;\n        uint fee = requests[_requestID].fee / _correctOracles.length;\n        // pay fees\n        for (uint i=0; i<_correctOracles.length; i++) {\n            // pay each share to each oracle\n            emit OraclePaid(_correctOracles[i], fee, \"Oracle has been Paid!\"); // tells listeners oracle node has been paid\n            //payable(_correctOracles[i]).transfer(fee); // pays oracle their fee\n            //requests[_requestID].fee -= fee; // deduct the oracles portion from the logged amount until it reaches 0\n            // and all oracles have been paid\n        }\n        // small penalty for incorrect hashes, as this could be an error\n        for (uint i=0; i<_incorrectOracles.length; i++) {\n            stakeBalance[_incorrectOracles[i]] -= fee; // deducted fee from stake\n        }\n        requests[_requestID].status = Status.COMPLETE; // request is complete\n        completedRequests[_requestID] = true; // add request id to completedRequests\n        emit StatusChange(_requestID, requests[_requestID].status, \"COMPLETE\"); // tell listeners that the status has changed\n        pendingCounter--; // no longer pending so countered can be decremented\n        return true; // return true to so it has finished\n    }\n    // @notice function for requester to cancel request\n    // @param _requestID pass requestID to cancel the correct request\n    function cancelRequest(\n        uint256 _requestID)\n    external\n    onlyRequester(_requestID) // requires that only the requester can cancel\n    cancelFlagZero(_requestID) // requires that request is not yet cancelled\n    returns(bool)\n    {\n        requests[_requestID].cancelFlag = 1; // changes flag to 1, if 1 it will not pass other functions\n        requests[_requestID].status = Status.CANCELLED; // status changed\n        emit StatusChange(_requestID, requests[_requestID].status, \"CANCELLED\");\n        AggregatorContract(aggregatorAddr).cancelRequest(_requestID); // call cancelled request in AggregatorContract\n        return true;\n    }\n    // @notice cancelled request by deadlock in the voting, if there are incorrect nodes,\n    //         correct amount might be even and could cause deadlock in voting,\n    //         in this case we refund the requester and cancel request\n    // @param _requestID\n    // @param _incorrectOracleReveals, we slash the faulty nodes here, as they have caused issues penalties are given\n    function cancelRequestDueToDeadlock(\n        uint256 _requestID,\n        address[] memory _incorrectOracleReveals)\n    external\n    onlyAggregator()\n    cancelFlagZero(_requestID)\n    returns(bool)\n    {\n        requests[_requestID].cancelFlag = 1;\n        requests[_requestID].status = Status.CANCELLED;\n        // return full fee as the user is not at fault here\n        // should be slashed from incorrect nodes for causing deadlock\n        for (uint i=0; i<_incorrectOracleReveals.length; i++){\n            // gets penalty fee from reputation contract penalty**rating\n            uint penalty = ReputationContract(reputationAddr).getPenaltyFee(_incorrectOracleReveals[i]);\n            stakeBalance[_incorrectOracleReveals[i]] -= penalty;\n            ReputationContract(reputationAddr).incrementRating(_incorrectOracleReveals[i]);\n        }\n        payable(requests[_requestID].requester).transfer(requests[_requestID].fee);\n        emit StatusChange(_requestID, requests[_requestID].status, \"CANCELLED\");\n        return true;\n    }\n    // @notice blacklist oracle that misbehaves 10\n    function blacklistOracle(address _addr)\n    external\n    onlyReputation()\n    returns(bool)\n    {\n        blacklistedOracles[_addr] = true; // adds blacklisted oracle address to map\n        return blacklistedOracles[_addr]; // returns true\n    }\n\n\n\n\n    // *** Setters ***\n    function setAggregatorContract(\n        address _aggAddr)\n    public\n    onlyOwner() // only owner can set aggregator contract\n    returns(bool)\n    {\n        aggregatorAddr = _aggAddr;\n        return true;\n    }\n\n    function setReputationContract(address _repAddr)\n    public\n    onlyOwner()\n    returns(bool)\n    {\n        reputationAddr = _repAddr;\n        return true;\n    }\n\n    // *** Getters ***\n    function getOracleForRequest(\n        uint256 _requestID,\n        address _orcAddr)\n    external\n    view\n    onlyAggregator()\n    returns(bool)\n    {\n        return requests[_requestID].oraclesForRequest[_orcAddr];\n    }\n\n    function getNumberOfOracles(\n        uint256 _requestID)\n    external\n    view\n    onlyAggregator()\n    returns(uint32)\n    {\n        return requests[_requestID].numberOfOracles;\n    }\n\n    function getTimeoutOracleLength(uint256 _requestID) external view onlyAggregator() returns(uint32) {\n        return uint32(timings[_requestID].timedOutOracles.length);\n    }\n\n    function getOracleAddresses(uint256 _requestID) external onlyAggregator() returns(address[] memory) {\n        return requests[_requestID].oracleAddressAccess;\n    }\n\n    function getDataType(\n        uint256 _requestID)\n    external\n    view\n    onlyAggregator()\n    returns(bytes memory)\n    {\n        return requests[_requestID].dataType;\n    }\n    // @notice returns bool whether or not _addr is blacklisted\n    function getBlacklistedOracle(address _addr)\n    external\n    view\n    returns(bool)\n    {\n        return blacklistedOracles[_addr];\n    }\n    // @notice\n    function getAggregationType(uint256 _requestID)\n    external\n    view\n    onlyAggregator()\n    returns(uint256)\n    {\n        return requests[_requestID].aggregationType;\n    }\n    // ***Modifiers***\n    // @notice only owner of contract\n    modifier onlyOwner()\n    {\n        require(msg.sender == owner);\n        _;\n    }\n    // @notice only owner of aggregator contract\n    modifier onlyAggregator()\n    {\n        require(msg.sender == aggregatorAddr);\n        _;\n    }\n    // @notice only owner of reputation contract\n    modifier onlyReputation()\n    {\n        require(msg.sender == reputationAddr);\n        _;\n    }\n    // @notice modifier to confirm calling address is an oracle node address already acknowledged\n    modifier oracleHasJoined()\n    {\n        require(oracles[msg.sender] == true);\n        _;\n    }\n    // @notice modifier to confirm calling address is not yet an oracle node address acknowledged\n    modifier oracleNotJoined()\n    {\n        require(oracles[msg.sender] != true);\n        _;\n    }\n    // @notice requires request cancelFlag == 0\n    modifier cancelFlagZero(\n        uint256 _requestID)\n    {\n        require(requests[_requestID].cancelFlag == 0);\n        _;\n    }\n    // @notice requires stakeBalance to equal exactly 1 ETH\n    modifier stakeCheck()\n    {\n        require(stakeBalance[msg.sender] > 0);\n        _;\n    }\n    // @notice requires the value sent to be >= MIN_FEE set\n    modifier valueGTMinFeeCheck()\n    {\n        // require msg.value has enough to pay oracles for each function call\n        require(msg.value >= MIN_FEE);\n        _;\n    }\n    // @notice requires an odd number of oracles so voting/aggregation doesnt become deadlocked\n    modifier oddNumOracles(\n        uint32 _numberOfOracles)\n    {\n        // makes sure the number that there is always an odd number of oracles so a majority can be reached.\n        require(!(_numberOfOracles % 2 == 0));\n        _;\n    }\n    // @notice requires a new oracle to send 1 eth to be held by contract until it leaves the network\n    modifier valueEqual1Eth()\n    {\n        require(msg.value == 1 ether); // must send 1 eth that is to be held by contract\n        _;\n    }\n    // @notice requires counter to be less than number required\n    modifier orcCountLessThanNum(\n        uint256 _requestID)\n    {\n        // makes sure oracle counter is less than number of oracles required so response can be submitted\n        require(requests[_requestID].oracleCounter < requests[_requestID].numberOfOracles);\n        _;\n    }\n    // @notice requires that only the request can call the function\n    modifier onlyRequester(\n        uint256 _requestID)\n    {\n        require(msg.sender == requests[_requestID].requester);\n        _;\n    }\n\n    modifier isNotBlacklisted() {\n        require(!blacklistedOracles[msg.sender] == true);\n        _;\n    }\n    modifier aggregationTypeCheck(uint256 _aggregationType) {\n        require(1 == _aggregationType || _aggregationType == 2 );\n        _;\n    }\n    modifier elapsedTimeGT10mins(uint _elapsedTime) {\n        require(_elapsedTime > 10 minutes ); // this allows genuine time for oracles to respond..\n        _;\n    }\n    modifier withinTime(uint256 _requestID) {\n        require(block.timestamp < (timings[_requestID].timestamp + timings[_requestID].elapsedTime) );\n        _;\n    }\n    modifier timeHasElapsed(uint _requestID, uint elapsedTime) {\n        require((timings[_requestID].timestamp + elapsedTime) < block.timestamp );\n        _;\n    }\n    modifier onlySubmittedCommitsOracles(uint256 _requestID) {\n        require(AggregatorContract(aggregatorAddr).getCommitFlag(_requestID) == 0\n            && AggregatorContract(aggregatorAddr).getOracleHasSubmittedCommit(_requestID, msg.sender));\n        _;\n    }\n\n    modifier onlySubmittedRevealsOracles(uint256 _requestID) {\n        require(AggregatorContract(aggregatorAddr).getCommitFlag(_requestID) == 1\n        && AggregatorContract(aggregatorAddr).getOracleHasSubmittedReveal(_requestID, msg.sender)\n        && AggregatorContract(aggregatorAddr).getRevealFlag(_requestID) == 0);\n        _;\n    }\n\n    modifier biddingTimeElapsed(uint256 _requestID) {\n        require(block.timestamp < (timings[_requestID].timestamp + TIMER_ELAPSED_BIDDING));\n        _;\n    }\n}\n",
  "sourcePath": "/home/willp/Documents/MSc_Computer_Science/PROJECT/DEMO_ENV/Smart_Contracts/contracts/OracleRequestContract.sol",
  "compiler": {
    "name": "solc",
    "version": "0.8.15+commit.e14f2714.Emscripten.clang"
  },
  "schemaVersion": "3.4.8",
  "updatedAt": "2022-08-28T11:53:37.768Z",
  "networkType": "ethereum",
  "devdoc": {
    "kind": "dev",
    "methods": {},
    "version": 1
  },
  "userdoc": {
    "kind": "user",
    "methods": {},
    "version": 1
  }
}