{
  "contractName": "OracleRequesterContract",
  "abi": [
    {
      "inputs": [],
      "stateMutability": "nonpayable",
      "type": "constructor"
    },
    {
      "anonymous": false,
      "inputs": [
        {
          "indexed": false,
          "internalType": "address",
          "name": "",
          "type": "address"
        }
      ],
      "name": "BidPlaced",
      "type": "event"
    },
    {
      "anonymous": false,
      "inputs": [
        {
          "indexed": false,
          "internalType": "uint256",
          "name": "",
          "type": "uint256"
        },
        {
          "indexed": false,
          "internalType": "bytes",
          "name": "",
          "type": "bytes"
        }
      ],
      "name": "OpenForBids",
      "type": "event"
    },
    {
      "anonymous": false,
      "inputs": [
        {
          "indexed": false,
          "internalType": "address",
          "name": "",
          "type": "address"
        },
        {
          "indexed": false,
          "internalType": "string",
          "name": "",
          "type": "string"
        }
      ],
      "name": "OracleJoined",
      "type": "event"
    },
    {
      "anonymous": false,
      "inputs": [
        {
          "indexed": false,
          "internalType": "address",
          "name": "",
          "type": "address"
        },
        {
          "indexed": false,
          "internalType": "string",
          "name": "",
          "type": "string"
        }
      ],
      "name": "OracleLeft",
      "type": "event"
    },
    {
      "anonymous": false,
      "inputs": [
        {
          "indexed": false,
          "internalType": "uint256",
          "name": "",
          "type": "uint256"
        },
        {
          "indexed": false,
          "internalType": "bytes",
          "name": "",
          "type": "bytes"
        },
        {
          "indexed": false,
          "internalType": "bytes",
          "name": "",
          "type": "bytes"
        }
      ],
      "name": "ReleaseRequestDetails",
      "type": "event"
    },
    {
      "anonymous": false,
      "inputs": [
        {
          "indexed": false,
          "internalType": "enum OracleRequesterContract.Status",
          "name": "",
          "type": "uint8"
        },
        {
          "indexed": false,
          "internalType": "string",
          "name": "",
          "type": "string"
        }
      ],
      "name": "StatusChange",
      "type": "event"
    },
    {
      "stateMutability": "nonpayable",
      "type": "fallback"
    },
    {
      "inputs": [
        {
          "internalType": "uint256",
          "name": "",
          "type": "uint256"
        }
      ],
      "name": "completedRequests",
      "outputs": [
        {
          "internalType": "bool",
          "name": "",
          "type": "bool"
        }
      ],
      "stateMutability": "view",
      "type": "function",
      "constant": true
    },
    {
      "inputs": [
        {
          "internalType": "address",
          "name": "",
          "type": "address"
        }
      ],
      "name": "oracles",
      "outputs": [
        {
          "internalType": "bool",
          "name": "",
          "type": "bool"
        }
      ],
      "stateMutability": "view",
      "type": "function",
      "constant": true
    },
    {
      "inputs": [],
      "name": "owner",
      "outputs": [
        {
          "internalType": "address",
          "name": "",
          "type": "address"
        }
      ],
      "stateMutability": "view",
      "type": "function",
      "constant": true
    },
    {
      "inputs": [
        {
          "internalType": "uint256",
          "name": "",
          "type": "uint256"
        }
      ],
      "name": "requests",
      "outputs": [
        {
          "internalType": "uint256",
          "name": "requestID",
          "type": "uint256"
        },
        {
          "internalType": "address",
          "name": "requester",
          "type": "address"
        },
        {
          "internalType": "address",
          "name": "callbackAddress",
          "type": "address"
        },
        {
          "internalType": "bytes",
          "name": "callbackFID",
          "type": "bytes"
        },
        {
          "internalType": "bytes",
          "name": "IoTID",
          "type": "bytes"
        },
        {
          "internalType": "bytes",
          "name": "dataType",
          "type": "bytes"
        },
        {
          "internalType": "bytes32",
          "name": "pHash",
          "type": "bytes32"
        },
        {
          "internalType": "uint32",
          "name": "numberOfOracles",
          "type": "uint32"
        },
        {
          "internalType": "uint32",
          "name": "oracleCounter",
          "type": "uint32"
        },
        {
          "internalType": "enum OracleRequesterContract.Status",
          "name": "status",
          "type": "uint8"
        },
        {
          "internalType": "uint8",
          "name": "cancelFlag",
          "type": "uint8"
        },
        {
          "internalType": "uint256",
          "name": "fee",
          "type": "uint256"
        }
      ],
      "stateMutability": "view",
      "type": "function",
      "constant": true
    },
    {
      "inputs": [],
      "name": "joinAsOracle",
      "outputs": [
        {
          "internalType": "bool",
          "name": "",
          "type": "bool"
        }
      ],
      "stateMutability": "nonpayable",
      "type": "function"
    },
    {
      "inputs": [],
      "name": "leaveOracleNetwork",
      "outputs": [
        {
          "internalType": "bool",
          "name": "",
          "type": "bool"
        }
      ],
      "stateMutability": "nonpayable",
      "type": "function"
    },
    {
      "inputs": [
        {
          "internalType": "address",
          "name": "_callbackAddress",
          "type": "address"
        },
        {
          "internalType": "bytes",
          "name": "_callbackFID",
          "type": "bytes"
        },
        {
          "internalType": "bytes",
          "name": "_IoTID",
          "type": "bytes"
        },
        {
          "internalType": "bytes",
          "name": "_dataType",
          "type": "bytes"
        },
        {
          "internalType": "bytes",
          "name": "_requiredResult",
          "type": "bytes"
        },
        {
          "internalType": "uint32",
          "name": "_numberOfOracles",
          "type": "uint32"
        }
      ],
      "name": "createRequest",
      "outputs": [
        {
          "internalType": "uint256",
          "name": "",
          "type": "uint256"
        }
      ],
      "stateMutability": "payable",
      "type": "function",
      "payable": true
    },
    {
      "inputs": [
        {
          "internalType": "uint256",
          "name": "_requestID",
          "type": "uint256"
        }
      ],
      "name": "placeBid",
      "outputs": [
        {
          "internalType": "bool",
          "name": "",
          "type": "bool"
        }
      ],
      "stateMutability": "nonpayable",
      "type": "function"
    },
    {
      "inputs": [
        {
          "internalType": "uint256",
          "name": "_requestID",
          "type": "uint256"
        },
        {
          "internalType": "bytes",
          "name": "_finalResult",
          "type": "bytes"
        }
      ],
      "name": "deliverResponse",
      "outputs": [],
      "stateMutability": "nonpayable",
      "type": "function"
    },
    {
      "inputs": [
        {
          "internalType": "uint256",
          "name": "_requestID",
          "type": "uint256"
        }
      ],
      "name": "cancelRequest",
      "outputs": [],
      "stateMutability": "nonpayable",
      "type": "function"
    },
    {
      "inputs": [
        {
          "internalType": "uint256",
          "name": "_requestID",
          "type": "uint256"
        },
        {
          "internalType": "address",
          "name": "_orcAddr",
          "type": "address"
        }
      ],
      "name": "getOracleForRequest",
      "outputs": [
        {
          "internalType": "bool",
          "name": "",
          "type": "bool"
        }
      ],
      "stateMutability": "view",
      "type": "function",
      "constant": true
    },
    {
      "inputs": [
        {
          "internalType": "uint256",
          "name": "_requestID",
          "type": "uint256"
        }
      ],
      "name": "getNumberOfOracles",
      "outputs": [
        {
          "internalType": "uint32",
          "name": "",
          "type": "uint32"
        }
      ],
      "stateMutability": "view",
      "type": "function",
      "constant": true
    },
    {
      "inputs": [
        {
          "internalType": "uint256",
          "name": "_requestID",
          "type": "uint256"
        }
      ],
      "name": "getPHash",
      "outputs": [
        {
          "internalType": "bytes32",
          "name": "",
          "type": "bytes32"
        }
      ],
      "stateMutability": "view",
      "type": "function",
      "constant": true
    },
    {
      "inputs": [
        {
          "internalType": "uint256",
          "name": "_requestID",
          "type": "uint256"
        }
      ],
      "name": "getDataType",
      "outputs": [
        {
          "internalType": "bytes",
          "name": "",
          "type": "bytes"
        }
      ],
      "stateMutability": "view",
      "type": "function",
      "constant": true
    }
  ],
  "bytecode": "0x608060405260016104b25560016104b3556404a817c8006104b85560026104b8546200002c9190620000e3565b6104b95560036104b854620000429190620000e3565b6104b95462000052919062000144565b6104ba553480156200006357600080fd5b50336000806101000a81548173ffffffffffffffffffffffffffffffffffffffff021916908373ffffffffffffffffffffffffffffffffffffffff160217905550620001a1565b6000819050919050565b7f4e487b7100000000000000000000000000000000000000000000000000000000600052601160045260246000fd5b6000620000f082620000aa565b9150620000fd83620000aa565b9250817fffffffffffffffffffffffffffffffffffffffffffffffffffffffffffffffff0483118215151615620001395762000138620000b4565b5b828202905092915050565b60006200015182620000aa565b91506200015e83620000aa565b9250827fffffffffffffffffffffffffffffffffffffffffffffffffffffffffffffffff03821115620001965762000195620000b4565b5b828201905092915050565b61255280620001b16000396000f3fe6080604052600436106100e15760003560e01c8063950e1da91161007f578063a37b354d11610059578063a37b354d14610306578063addd509914610343578063ea317d5d14610380578063f0fbfbf3146103a9576100e2565b8063950e1da9146102735780639979ef451461029e578063a08702f3146102db576100e2565b8063829c22fd116100bb578063829c22fd1461019e5780638979a3c2146101db5780638da5cb5b1461020b57806391a3632a14610236576100e2565b80633015394c146100f057806357442e791461011957806381d12c5814610156576100e2565b5b3480156100ee57600080fd5b005b3480156100fc57600080fd5b506101176004803603810190610112919061165c565b6103e6565b005b34801561012557600080fd5b50610140600480360381019061013b919061165c565b610510565b60405161014d9190611722565b60405180910390f35b34801561016257600080fd5b5061017d6004803603810190610178919061165c565b6105bd565b6040516101959c9b9a9998979695949392919061185f565b60405180910390f35b3480156101aa57600080fd5b506101c560048036038101906101c0919061165c565b610835565b6040516101d2919061192e565b60405180910390f35b6101f560048036038101906101f09190611ad6565b61085a565b6040516102029190611bd3565b60405180910390f35b34801561021757600080fd5b50610220610c11565b60405161022d9190611bee565b60405180910390f35b34801561024257600080fd5b5061025d6004803603810190610258919061165c565b610c35565b60405161026a9190611c09565b60405180910390f35b34801561027f57600080fd5b50610288610c6a565b6040516102959190611c3f565b60405180910390f35b3480156102aa57600080fd5b506102c560048036038101906102c0919061165c565b610dad565b6040516102d29190611c3f565b60405180910390f35b3480156102e757600080fd5b506102f06111aa565b6040516102fd9190611c3f565b60405180910390f35b34801561031257600080fd5b5061032d60048036038101906103289190611c5a565b611298565b60405161033a9190611c3f565b60405180910390f35b34801561034f57600080fd5b5061036a60048036038101906103659190611c9a565b611308565b6040516103779190611c3f565b60405180910390f35b34801561038c57600080fd5b506103a760048036038101906103a29190611cc7565b611329565b005b3480156103b557600080fd5b506103d060048036038101906103cb919061165c565b6115e7565b6040516103dd9190611c3f565b60405180910390f35b803373ffffffffffffffffffffffffffffffffffffffff166001826064811061041257610411611d23565b5b600c020160020160009054906101000a900473ffffffffffffffffffffffffffffffffffffffff1673ffffffffffffffffffffffffffffffffffffffff161461045a57600080fd5b8160006001826064811061047157610470611d23565b5b600c0201600a0160059054906101000a900460ff1660ff161461049357600080fd5b60018084606481106104a8576104a7611d23565b5b600c0201600a0160056101000a81548160ff021916908360ff1602179055506002600184606481106104dd576104dc611d23565b5b600c0201600a0160046101000a81548160ff02191690836002811115610506576105056117cc565b5b0217905550505050565b60606001826064811061052657610525611d23565b5b600c0201600501805461053890611d81565b80601f016020809104026020016040519081016040528092919081815260200182805461056490611d81565b80156105b15780601f10610586576101008083540402835291602001916105b1565b820191906000526020600020905b81548152906001019060200180831161059457829003601f168201915b50505050509050919050565b600181606481106105cd57600080fd5b600c02016000915090508060000154908060010160009054906101000a900473ffffffffffffffffffffffffffffffffffffffff16908060020160009054906101000a900473ffffffffffffffffffffffffffffffffffffffff169080600301805461063890611d81565b80601f016020809104026020016040519081016040528092919081815260200182805461066490611d81565b80156106b15780601f10610686576101008083540402835291602001916106b1565b820191906000526020600020905b81548152906001019060200180831161069457829003601f168201915b5050505050908060040180546106c690611d81565b80601f01602080910402602001604051908101604052809291908181526020018280546106f290611d81565b801561073f5780601f106107145761010080835404028352916020019161073f565b820191906000526020600020905b81548152906001019060200180831161072257829003601f168201915b50505050509080600501805461075490611d81565b80601f016020809104026020016040519081016040528092919081815260200182805461078090611d81565b80156107cd5780601f106107a2576101008083540402835291602001916107cd565b820191906000526020600020905b8154815290600101906020018083116107b057829003601f168201915b5050505050908060060154908060070160009054906101000a900463ffffffff169080600a0160009054906101000a900463ffffffff169080600a0160049054906101000a900460ff169080600a0160059054906101000a900460ff169080600b015490508c565b60006001826064811061084b5761084a611d23565b5b600c0201600601549050919050565b60006104ba5434101561086c57600080fd5b60006104b2549050806001826064811061088957610888611d23565b5b600c02016000018190555033600182606481106108a9576108a8611d23565b5b600c020160010160006101000a81548173ffffffffffffffffffffffffffffffffffffffff021916908373ffffffffffffffffffffffffffffffffffffffff160217905550876001826064811061090357610902611d23565b5b600c020160020160006101000a81548173ffffffffffffffffffffffffffffffffffffffff021916908373ffffffffffffffffffffffffffffffffffffffff160217905550866001826064811061095d5761095c611d23565b5b600c020160030190816109709190611f5e565b50856001826064811061098657610985611d23565b5b600c020160040190816109999190611f5e565b5084600182606481106109af576109ae611d23565b5b600c020160050190816109c29190611f5e565b5082600182606481106109d8576109d7611d23565b5b600c020160070160006101000a81548163ffffffff021916908363ffffffff160217905550600060018260648110610a1357610a12611d23565b5b600c0201600a0160006101000a81548163ffffffff021916908363ffffffff160217905550600060018260648110610a4e57610a4d611d23565b5b600c0201600a0160046101000a81548160ff02191690836002811115610a7757610a766117cc565b5b0217905550600060018260648110610a9257610a91611d23565b5b600c0201600a0160056101000a81548160ff021916908360ff1602179055503460018260648110610ac657610ac5611d23565b5b600c0201600b01819055507f346e0fa9e112a7376778dcb0fe0fdfe51db577b3d0b1592a40266db0b192f82260018260648110610b0657610b05611d23565b5b600c0201600a0160049054906101000a900460ff16604051610b28919061208d565b60405180910390a160008585604051602001610b459291906120f7565b6040516020818303038152906040528051906020012090508060018360648110610b7257610b71611d23565b5b600c0201600601819055506104b26000815480929190610b919061214a565b91905055506104b36000815480929190610baa9061214a565b91905055507f9fa3818a0bcd92e6bdf76b585ed9feea4ad7d3467dc3770c2af818d43f9581a58260018460648110610be557610be4611d23565b5b600c0201600501604051610bfa929190612216565b60405180910390a181925050509695505050505050565b60008054906101000a900473ffffffffffffffffffffffffffffffffffffffff1681565b600060018260648110610c4b57610c4a611d23565b5b600c020160070160009054906101000a900463ffffffff169050919050565b6000600115156104b160003373ffffffffffffffffffffffffffffffffffffffff1673ffffffffffffffffffffffffffffffffffffffff16815260200190815260200160002060009054906101000a900460ff16151503610cca57600080fd5b60016104b160003373ffffffffffffffffffffffffffffffffffffffff1673ffffffffffffffffffffffffffffffffffffffff16815260200190815260200160002060006101000a81548160ff0219169083151502179055507f2d62108771d82d92634e2d038b6c7f09290edfee5b1443e25299f04a0cfbca7233604051610d529190612292565b60405180910390a16104b160003373ffffffffffffffffffffffffffffffffffffffff1673ffffffffffffffffffffffffffffffffffffffff16815260200190815260200160002060009054906101000a900460ff16905090565b6000600115156104b160003373ffffffffffffffffffffffffffffffffffffffff1673ffffffffffffffffffffffffffffffffffffffff16815260200190815260200160002060009054906101000a900460ff16151514610e0d57600080fd5b81600060018260648110610e2457610e23611d23565b5b600c0201600a0160059054906101000a900460ff1660ff1614610e4657600080fd5b60018360648110610e5a57610e59611d23565b5b600c020160070160009054906101000a900463ffffffff1663ffffffff1660018460648110610e8c57610e8b611d23565b5b600c0201600a0160009054906101000a900463ffffffff1663ffffffff1610610eb457600080fd5b6001808460648110610ec957610ec8611d23565b5b600c020160080160003373ffffffffffffffffffffffffffffffffffffffff1673ffffffffffffffffffffffffffffffffffffffff16815260200190815260200160002060006101000a81548160ff0219169083151502179055503360018460648110610f3957610f38611d23565b5b600c0201600901600060018660648110610f5657610f55611d23565b5b600c0201600a0160009054906101000a900463ffffffff1663ffffffff1663ffffffff16815260200190815260200160002060006101000a81548173ffffffffffffffffffffffffffffffffffffffff021916908373ffffffffffffffffffffffffffffffffffffffff16021790555060018360648110610fda57610fd9611d23565b5b600c0201600a01600081819054906101000a900463ffffffff1680929190611001906122c0565b91906101000a81548163ffffffff021916908363ffffffff160217905550507fe677a6b9a16a696674f50d2c98a1ce8c5cb51d6b48a0223412c512bbc93664d53360405161104f9190611bee565b60405180910390a16001836064811061106b5761106a611d23565b5b600c0201600a0160009054906101000a900463ffffffff1663ffffffff166001846064811061109d5761109c611d23565b5b600c020160070160009054906101000a900463ffffffff1663ffffffff1603611153577f2510e6950be86d6001a0b1229da4c21fa8e26b6bcf345d0b348fe42894fceb03600184606481106110f5576110f4611d23565b5b600c0201600001546001856064811061111157611110611d23565b5b600c02016004016001866064811061112c5761112b611d23565b5b600c0201600501604051611142939291906122ec565b60405180910390a1600191506111a4565b6104b160003373ffffffffffffffffffffffffffffffffffffffff1673ffffffffffffffffffffffffffffffffffffffff16815260200190815260200160002060009054906101000a900460ff1691505b50919050565b6000600115156104b160003373ffffffffffffffffffffffffffffffffffffffff1673ffffffffffffffffffffffffffffffffffffffff16815260200190815260200160002060009054906101000a900460ff1615151461120a57600080fd5b6104b160003373ffffffffffffffffffffffffffffffffffffffff1673ffffffffffffffffffffffffffffffffffffffff16815260200190815260200160002060006101000a81549060ff02191690557f14951d787e2aaf7813982720871de23d576e7d935c0587e12a7fc2c4c960165a33604051611289919061237d565b60405180910390a16001905090565b6000600183606481106112ae576112ad611d23565b5b600c020160080160008373ffffffffffffffffffffffffffffffffffffffff1673ffffffffffffffffffffffffffffffffffffffff16815260200190815260200160002060009054906101000a900460ff16905092915050565b6104b16020528060005260406000206000915054906101000a900460ff1681565b816000600182606481106113405761133f611d23565b5b600c0201600a0160059054906101000a900460ff1660ff161461136257600080fd5b6000600180856064811061137957611378611d23565b5b600c020160070160009054906101000a900463ffffffff1661139b91906123ab565b63ffffffff16600185606481106113b5576113b4611d23565b5b600c0201600b01546113c79190612414565b905060005b600185606481106113e0576113df611d23565b5b600c020160070160009054906101000a900463ffffffff1663ffffffff168163ffffffff1610156114ef576001856064811061141f5761141e611d23565b5b600c020160090160008263ffffffff1663ffffffff16815260200190815260200160002060009054906101000a900473ffffffffffffffffffffffffffffffffffffffff1673ffffffffffffffffffffffffffffffffffffffff166108fc839081150290604051600060405180830381858888f193505050501580156114a9573d6000803e3d6000fd5b5081600186606481106114bf576114be611d23565b5b600c0201600b0160008282546114d59190612445565b9250508190555080806114e7906122c0565b9150506113cc565b50600180856064811061150557611504611d23565b5b600c0201600a0160046101000a81548160ff0219169083600281111561152e5761152d6117cc565b5b021790555060016104b4856064811061154a57611549611d23565b5b602091828204019190066101000a81548160ff0219169083151502179055507f346e0fa9e112a7376778dcb0fe0fdfe51db577b3d0b1592a40266db0b192f8226001856064811061159e5761159d611d23565b5b600c0201600a0160049054906101000a900460ff166040516115c091906124c5565b60405180910390a16104b360008154809291906115dc906124f3565b919050555050505050565b6104b481606481106115f857600080fd5b60209182820401919006915054906101000a900460ff1681565b6000604051905090565b600080fd5b600080fd5b6000819050919050565b61163981611626565b811461164457600080fd5b50565b60008135905061165681611630565b92915050565b6000602082840312156116725761167161161c565b5b600061168084828501611647565b91505092915050565b600081519050919050565b600082825260208201905092915050565b60005b838110156116c35780820151818401526020810190506116a8565b838111156116d2576000848401525b50505050565b6000601f19601f8301169050919050565b60006116f482611689565b6116fe8185611694565b935061170e8185602086016116a5565b611717816116d8565b840191505092915050565b6000602082019050818103600083015261173c81846116e9565b905092915050565b61174d81611626565b82525050565b600073ffffffffffffffffffffffffffffffffffffffff82169050919050565b600061177e82611753565b9050919050565b61178e81611773565b82525050565b6000819050919050565b6117a781611794565b82525050565b600063ffffffff82169050919050565b6117c6816117ad565b82525050565b7f4e487b7100000000000000000000000000000000000000000000000000000000600052602160045260246000fd5b6003811061180c5761180b6117cc565b5b50565b600081905061181d826117fb565b919050565b600061182d8261180f565b9050919050565b61183d81611822565b82525050565b600060ff82169050919050565b61185981611843565b82525050565b600061018082019050611875600083018f611744565b611882602083018e611785565b61188f604083018d611785565b81810360608301526118a1818c6116e9565b905081810360808301526118b5818b6116e9565b905081810360a08301526118c9818a6116e9565b90506118d860c083018961179e565b6118e560e08301886117bd565b6118f36101008301876117bd565b611901610120830186611834565b61190f610140830185611850565b61191d610160830184611744565b9d9c50505050505050505050505050565b6000602082019050611943600083018461179e565b92915050565b61195281611773565b811461195d57600080fd5b50565b60008135905061196f81611949565b92915050565b600080fd5b600080fd5b7f4e487b7100000000000000000000000000000000000000000000000000000000600052604160045260246000fd5b6119b7826116d8565b810181811067ffffffffffffffff821117156119d6576119d561197f565b5b80604052505050565b60006119e9611612565b90506119f582826119ae565b919050565b600067ffffffffffffffff821115611a1557611a1461197f565b5b611a1e826116d8565b9050602081019050919050565b82818337600083830152505050565b6000611a4d611a48846119fa565b6119df565b905082815260208101848484011115611a6957611a6861197a565b5b611a74848285611a2b565b509392505050565b600082601f830112611a9157611a90611975565b5b8135611aa1848260208601611a3a565b91505092915050565b611ab3816117ad565b8114611abe57600080fd5b50565b600081359050611ad081611aaa565b92915050565b60008060008060008060c08789031215611af357611af261161c565b5b6000611b0189828a01611960565b965050602087013567ffffffffffffffff811115611b2257611b21611621565b5b611b2e89828a01611a7c565b955050604087013567ffffffffffffffff811115611b4f57611b4e611621565b5b611b5b89828a01611a7c565b945050606087013567ffffffffffffffff811115611b7c57611b7b611621565b5b611b8889828a01611a7c565b935050608087013567ffffffffffffffff811115611ba957611ba8611621565b5b611bb589828a01611a7c565b92505060a0611bc689828a01611ac1565b9150509295509295509295565b6000602082019050611be86000830184611744565b92915050565b6000602082019050611c036000830184611785565b92915050565b6000602082019050611c1e60008301846117bd565b92915050565b60008115159050919050565b611c3981611c24565b82525050565b6000602082019050611c546000830184611c30565b92915050565b60008060408385031215611c7157611c7061161c565b5b6000611c7f85828601611647565b9250506020611c9085828601611960565b9150509250929050565b600060208284031215611cb057611caf61161c565b5b6000611cbe84828501611960565b91505092915050565b60008060408385031215611cde57611cdd61161c565b5b6000611cec85828601611647565b925050602083013567ffffffffffffffff811115611d0d57611d0c611621565b5b611d1985828601611a7c565b9150509250929050565b7f4e487b7100000000000000000000000000000000000000000000000000000000600052603260045260246000fd5b7f4e487b7100000000000000000000000000000000000000000000000000000000600052602260045260246000fd5b60006002820490506001821680611d9957607f821691505b602082108103611dac57611dab611d52565b5b50919050565b60008190508160005260206000209050919050565b60006020601f8301049050919050565b600082821b905092915050565b600060088302611e147fffffffffffffffffffffffffffffffffffffffffffffffffffffffffffffffff82611dd7565b611e1e8683611dd7565b95508019841693508086168417925050509392505050565b6000819050919050565b6000611e5b611e56611e5184611626565b611e36565b611626565b9050919050565b6000819050919050565b611e7583611e40565b611e89611e8182611e62565b848454611de4565b825550505050565b600090565b611e9e611e91565b611ea9818484611e6c565b505050565b5b81811015611ecd57611ec2600082611e96565b600181019050611eaf565b5050565b601f821115611f1257611ee381611db2565b611eec84611dc7565b81016020851015611efb578190505b611f0f611f0785611dc7565b830182611eae565b50505b505050565b600082821c905092915050565b6000611f3560001984600802611f17565b1980831691505092915050565b6000611f4e8383611f24565b9150826002028217905092915050565b611f6782611689565b67ffffffffffffffff811115611f8057611f7f61197f565b5b611f8a8254611d81565b611f95828285611ed1565b600060209050601f831160018114611fc85760008415611fb6578287015190505b611fc08582611f42565b865550612028565b601f198416611fd686611db2565b60005b82811015611ffe57848901518255600182019150602085019450602081019050611fd9565b8683101561201b5784890151612017601f891682611f24565b8355505b6001600288020188555050505b505050505050565b600082825260208201905092915050565b7f50454e44494e4700000000000000000000000000000000000000000000000000600082015250565b6000612077600783612030565b915061208282612041565b602082019050919050565b60006040820190506120a26000830184611834565b81810360208301526120b38161206a565b905092915050565b600081905092915050565b60006120d182611689565b6120db81856120bb565b93506120eb8185602086016116a5565b80840191505092915050565b600061210382856120c6565b915061210f82846120c6565b91508190509392505050565b7f4e487b7100000000000000000000000000000000000000000000000000000000600052601160045260246000fd5b600061215582611626565b91507fffffffffffffffffffffffffffffffffffffffffffffffffffffffffffffffff82036121875761218661211b565b5b600182019050919050565b6000815461219f81611d81565b6121a98186611694565b945060018216600081146121c457600181146121da5761220d565b60ff19831686528115156020028601935061220d565b6121e385611db2565b60005b83811015612205578154818901526001820191506020810190506121e6565b808801955050505b50505092915050565b600060408201905061222b6000830185611744565b818103602083015261223d8184612192565b90509392505050565b7f57656c636f6d65206e6577206e6f646521000000000000000000000000000000600082015250565b600061227c601183612030565b915061228782612246565b602082019050919050565b60006040820190506122a76000830184611785565b81810360208301526122b88161226f565b905092915050565b60006122cb826117ad565b915063ffffffff82036122e1576122e061211b565b5b600182019050919050565b60006060820190506123016000830186611744565b81810360208301526123138185612192565b905081810360408301526123278184612192565b9050949350505050565b7f4e6f646520686173206c6566742c20476f6f6462796500000000000000000000600082015250565b6000612367601683612030565b915061237282612331565b602082019050919050565b60006040820190506123926000830184611785565b81810360208301526123a38161235a565b905092915050565b60006123b6826117ad565b91506123c1836117ad565b92508263ffffffff038211156123da576123d961211b565b5b828201905092915050565b7f4e487b7100000000000000000000000000000000000000000000000000000000600052601260045260246000fd5b600061241f82611626565b915061242a83611626565b92508261243a576124396123e5565b5b828204905092915050565b600061245082611626565b915061245b83611626565b92508282101561246e5761246d61211b565b5b828203905092915050565b7f434f4d504c455445000000000000000000000000000000000000000000000000600082015250565b60006124af600883612030565b91506124ba82612479565b602082019050919050565b60006040820190506124da6000830184611834565b81810360208301526124eb816124a2565b905092915050565b60006124fe82611626565b9150600082036125115761251061211b565b5b60018203905091905056fea264697066735822122058b1a74029166a32b6bfc00dbf4f430f2e9a2b9bbfdf7e501312cef0e367bc2664736f6c634300080f0033",
  "immutableReferences": {},
  "source": "// SPDX-License-Identifier: MIT\npragma solidity ^0.8.0;\n\nimport \"./AggregatorContract.sol\";\n\ncontract OracleRequesterContract {\n    //\n\n    address public owner;\n\n    Request[100] public requests;\n    mapping (address => bool) public oracles;\n    uint requestCounter = 1;\n    uint pendingCounter = 1;\n    enum Status{PENDING, COMPLETE, CANCELLED}\n    // a single Request structure\n    struct Request {\n        uint256 requestID;\n        address requester;\n        address callbackAddress;\n        bytes callbackFID;\n        bytes IoTID;\n        bytes dataType;\n        bytes32 pHash;\n        //bytes requiredResult;\n        uint32 numberOfOracles;\n        mapping (address => bool) oraclesForRequest;\n        mapping (uint32 => address) oracleAddressAccess;\n        uint32 oracleCounter;\n        Status status;\n        uint8 cancelFlag;\n        uint fee;\n    }\n    bool[100] public completedRequests;\n\n    event OpenForBids(uint256, bytes);\n    event BidPlaced(address);\n    event ReleaseRequestDetails(uint256, bytes, bytes);\n    event StatusChange(Status, string);\n    event OracleJoined(address, string);\n    event OracleLeft(address, string);\n\n    uint GAS_PRICE = 2 * 10**10;\n    uint FEE = GAS_PRICE * 2;\n    uint MIN_FEE = FEE + (GAS_PRICE * 3);\n\n\n    constructor() {\n        owner = msg.sender;\n\n    }\n\n    fallback() external{}\n\n    function joinAsOracle() public oracleNotJoined() returns(bool){\n        oracles[address(msg.sender)] = true;\n        emit OracleJoined(msg.sender, \"Welcome new node!\");\n        return oracles[address(msg.sender)];\n    }\n\n    function leaveOracleNetwork() public oracleHasJoined() returns(bool) {\n        delete oracles[msg.sender];\n        emit OracleLeft(msg.sender, \"Node has left, Goodbye\");\n        return true;\n    }\n\n    // @notice user can call function create request\n    // @dev\n    // @param _callbackAddress could be different to address that called the function\n    // @param _callbackFID a particular function in a smart contract that is needed to be called based on request\n    // @param _IoTID the identifier of the IoT device oracle node will be subscribing to\n    // @param _dataType, true false answer, an event, continuous data over time?\n    // @param _requiredResult what is needed from IoT device\n    // @param _numberOfOracles number of oracle nodes that fetch IoT data\n    // @return the requestID so the user can keep track of request\n    function createRequest(\n        address _callbackAddress,\n        bytes memory _callbackFID,\n        bytes memory _IoTID,\n        bytes memory _dataType,\n        bytes memory _requiredResult,\n        uint32 _numberOfOracles) external payable returns(uint256) {\n        // require msg.value has enough to pay oracles for each function call\n        require(msg.value >= MIN_FEE);\n        // assign id to request\n        uint256 requestID = requestCounter;\n        // log details of the request to array to cross reference later\n        requests[requestID].requestID = requestID;\n        requests[requestID].requester = msg.sender;\n        requests[requestID].callbackAddress = _callbackAddress;\n        requests[requestID].callbackFID = _callbackFID;\n        requests[requestID].IoTID = _IoTID;\n        requests[requestID].dataType = _dataType;\n        //requests[requestId].requiredResult = _requiredResult; // do not need to store result put in a hash?\n        requests[requestID].numberOfOracles = _numberOfOracles;\n        requests[requestID].oracleCounter = 0;\n\n        requests[requestID].status = Status.PENDING;\n        requests[requestID].cancelFlag = 0;\n        requests[requestID].fee = msg.value;\n        emit StatusChange(requests[requestID].status, \"PENDING\");\n\n\n        // create a hash of the _dataType and _requiredResult:\n        // we will use the actual result to test upon delivery.\n        bytes32 phash = keccak256(abi.encodePacked(_dataType, _requiredResult)); // add required result to hash\n        requests[requestID].pHash = phash;\n        // increment requestId ready for next create request function.\n\n        requestCounter++;\n        pendingCounter++;\n\n        emit OpenForBids(requestID, requests[requestID].dataType);\n\n        return requestID;\n    }\n\n    // @notice off-chain oracle node places bid to fetch data, once threshold is reached, emits event details.\n    // @dev\n    // @param requestId oracle node wishes to bid on\n    // @return true to indicate bid successful\n    function placeBid(uint256 _requestID) public oracleHasJoined() cancelFlagZero(_requestID) returns(bool)  {\n        require(requests[_requestID].oracleCounter < requests[_requestID].numberOfOracles);\n        requests[_requestID].oraclesForRequest[msg.sender] = true;\n        requests[_requestID].oracleAddressAccess[requests[_requestID].oracleCounter] = address(msg.sender);\n        requests[_requestID].oracleCounter++;\n\n        // also add a timeout\n        emit BidPlaced(msg.sender);\n        if (requests[_requestID].numberOfOracles == requests[_requestID].oracleCounter) {\n            emit ReleaseRequestDetails(requests[_requestID].requestID,\n                requests[_requestID].IoTID,\n                requests[_requestID].dataType);\n            return true;\n        }\n        return oracles[msg.sender];\n    }\n\n    //\n\n    // function deliveryResponse() {} returns result to user smart contract\n    function deliverResponse(uint256 _requestID, bytes memory _finalResult) public cancelFlagZero(_requestID) {\n        // return single aggregation result\n        _finalResult;\n        uint fee = requests[_requestID].fee / (requests[_requestID].numberOfOracles + 1);\n        // pay fees\n        for (uint32 i=0; i<requests[_requestID].numberOfOracles; i++) {\n            // pay each share to each oracle\n            payable(requests[_requestID].oracleAddressAccess[i]).transfer(fee);\n            requests[_requestID].fee -= fee;\n        }\n        requests[_requestID].status = Status.COMPLETE;\n        completedRequests[_requestID] = true;\n        emit StatusChange(requests[_requestID].status, \"COMPLETE\");\n        pendingCounter--;\n    }\n\n    function cancelRequest(uint256 _requestID) external\n    cancelCheck(_requestID)\n    cancelFlagZero(_requestID){\n        requests[_requestID].cancelFlag = 1;\n        requests[_requestID].status = Status.CANCELLED;\n        //AggregatorContract(_aggAddr).cancelRequest(_requestID);\n    }\n\n    // getters\n    function getOracleForRequest(uint256 _requestID, address _orcAddr) external view returns(bool){\n        return requests[_requestID].oraclesForRequest[_orcAddr];\n    }\n    function getNumberOfOracles(uint256 _requestID) external view returns(uint32){\n        return requests[_requestID].numberOfOracles;\n    }\n    function getPHash(uint256 _requestID) external view returns(bytes32){\n        return requests[_requestID].pHash;\n    }\n    function getDataType(uint256 _requestID) external view returns(bytes memory) {\n        return requests[_requestID].dataType;\n    }\n\n    // @notice modifier to confirm calling address is an oracle node address already acknowledged\n    modifier oracleHasJoined() {\n        require(oracles[msg.sender] == true);\n        _;\n    }\n    // @notice modifier to confirm calling address is not yet an oracle node address acknowledged\n    modifier oracleNotJoined() {\n        require(oracles[msg.sender] != true);\n        _;\n    }\n    //\n    modifier cancelFlagZero(uint256 _requestID) {\n        require(requests[_requestID].cancelFlag == 0);\n        _;\n    }\n\n    modifier cancelCheck(uint256 _requestID) {\n        require(requests[_requestID].callbackAddress == msg.sender);\n        _;\n    }\n\n\n}\n",
  "sourcePath": "/home/willp/Documents/MSc_Computer_Science/PROJECT/Research_Code/july22_projectcode/IoToracle/contracts/OracleRequesterContract.sol",
  "compiler": {
    "name": "solc",
    "version": "0.8.15+commit.e14f2714.Emscripten.clang"
  },
  "schemaVersion": "3.4.8",
  "updatedAt": "2022-07-25T14:37:03.854Z",
  "networkType": "ethereum",
  "devdoc": {
    "kind": "dev",
    "methods": {},
    "version": 1
  },
  "userdoc": {
    "kind": "user",
    "methods": {},
    "version": 1
  }
}