{
  "contractName": "OracleRequesterContract",
  "abi": [
    {
      "inputs": [],
      "stateMutability": "nonpayable",
      "type": "constructor"
    },
    {
      "anonymous": false,
      "inputs": [
        {
          "indexed": false,
          "internalType": "address",
          "name": "",
          "type": "address"
        }
      ],
      "name": "BidPlaced",
      "type": "event"
    },
    {
      "anonymous": false,
      "inputs": [
        {
          "indexed": false,
          "internalType": "uint256",
          "name": "",
          "type": "uint256"
        },
        {
          "indexed": false,
          "internalType": "bytes",
          "name": "",
          "type": "bytes"
        }
      ],
      "name": "OpenForBids",
      "type": "event"
    },
    {
      "anonymous": false,
      "inputs": [
        {
          "indexed": false,
          "internalType": "uint256",
          "name": "",
          "type": "uint256"
        },
        {
          "indexed": false,
          "internalType": "bytes",
          "name": "",
          "type": "bytes"
        },
        {
          "indexed": false,
          "internalType": "bytes",
          "name": "",
          "type": "bytes"
        }
      ],
      "name": "ReleaseRequestDetails",
      "type": "event"
    },
    {
      "inputs": [
        {
          "internalType": "address",
          "name": "",
          "type": "address"
        }
      ],
      "name": "oracles",
      "outputs": [
        {
          "internalType": "bool",
          "name": "",
          "type": "bool"
        }
      ],
      "stateMutability": "view",
      "type": "function"
    },
    {
      "inputs": [
        {
          "internalType": "uint256",
          "name": "",
          "type": "uint256"
        }
      ],
      "name": "requests",
      "outputs": [
        {
          "internalType": "uint256",
          "name": "requestID",
          "type": "uint256"
        },
        {
          "internalType": "address",
          "name": "requester",
          "type": "address"
        },
        {
          "internalType": "address",
          "name": "callbackAddress",
          "type": "address"
        },
        {
          "internalType": "bytes",
          "name": "callbackFID",
          "type": "bytes"
        },
        {
          "internalType": "bytes",
          "name": "IoTID",
          "type": "bytes"
        },
        {
          "internalType": "bytes",
          "name": "dataType",
          "type": "bytes"
        },
        {
          "internalType": "bytes32",
          "name": "pHash",
          "type": "bytes32"
        },
        {
          "internalType": "bytes",
          "name": "requiredResult",
          "type": "bytes"
        },
        {
          "internalType": "uint32",
          "name": "numberOfOracles",
          "type": "uint32"
        },
        {
          "internalType": "uint256",
          "name": "oracleCounter",
          "type": "uint256"
        }
      ],
      "stateMutability": "view",
      "type": "function"
    },
    {
      "inputs": [],
      "name": "joinAsOracle",
      "outputs": [
        {
          "internalType": "bool",
          "name": "",
          "type": "bool"
        }
      ],
      "stateMutability": "nonpayable",
      "type": "function"
    },
    {
      "inputs": [
        {
          "internalType": "address",
          "name": "_callbackAddress",
          "type": "address"
        },
        {
          "internalType": "bytes",
          "name": "_callbackFID",
          "type": "bytes"
        },
        {
          "internalType": "bytes",
          "name": "_IoTID",
          "type": "bytes"
        },
        {
          "internalType": "bytes",
          "name": "_dataType",
          "type": "bytes"
        },
        {
          "internalType": "bytes",
          "name": "_requiredResult",
          "type": "bytes"
        },
        {
          "internalType": "uint32",
          "name": "_numberOfOracles",
          "type": "uint32"
        }
      ],
      "name": "createRequest",
      "outputs": [
        {
          "internalType": "uint256",
          "name": "",
          "type": "uint256"
        }
      ],
      "stateMutability": "payable",
      "type": "function"
    },
    {
      "inputs": [
        {
          "internalType": "uint256",
          "name": "_requestID",
          "type": "uint256"
        }
      ],
      "name": "placeBid",
      "outputs": [
        {
          "internalType": "bool",
          "name": "",
          "type": "bool"
        }
      ],
      "stateMutability": "nonpayable",
      "type": "function"
    }
  ],
  "bytecode": "0x6080604052600161044e55600161044f5534801561001c57600080fd5b50336000806101000a81548173ffffffffffffffffffffffffffffffffffffffff021916908373ffffffffffffffffffffffffffffffffffffffff1602179055506115578061006c6000396000f3fe60806040526004361061004a5760003560e01c806381d12c581461004f5780638979a3c214610095578063950e1da9146100c55780639979ef45146100f0578063addd50991461012d575b600080fd5b34801561005b57600080fd5b5061007660048036038101906100719190610b1b565b61016a565b60405161008c9a99989796959493929190610c69565b60405180910390f35b6100af60048036038101906100aa9190610eae565b610434565b6040516100bc9190610fab565b60405180910390f35b3480156100d157600080fd5b506100da6106d8565b6040516100e79190610fe1565b60405180910390f35b3480156100fc57600080fd5b5061011760048036038101906101129190610b1b565b6107e4565b6040516101249190610fe1565b60405180910390f35b34801561013957600080fd5b50610154600480360381019061014f9190610ffc565b610ab0565b6040516101619190610fe1565b60405180910390f35b6001816064811061017a57600080fd5b600b02016000915090508060000154908060010160009054906101000a900473ffffffffffffffffffffffffffffffffffffffff16908060020160009054906101000a900473ffffffffffffffffffffffffffffffffffffffff16908060030180546101e590611058565b80601f016020809104026020016040519081016040528092919081815260200182805461021190611058565b801561025e5780601f106102335761010080835404028352916020019161025e565b820191906000526020600020905b81548152906001019060200180831161024157829003601f168201915b50505050509080600401805461027390611058565b80601f016020809104026020016040519081016040528092919081815260200182805461029f90611058565b80156102ec5780601f106102c1576101008083540402835291602001916102ec565b820191906000526020600020905b8154815290600101906020018083116102cf57829003601f168201915b50505050509080600501805461030190611058565b80601f016020809104026020016040519081016040528092919081815260200182805461032d90611058565b801561037a5780601f1061034f5761010080835404028352916020019161037a565b820191906000526020600020905b81548152906001019060200180831161035d57829003601f168201915b50505050509080600601549080600701805461039590611058565b80601f01602080910402602001604051908101604052809291908181526020018280546103c190611058565b801561040e5780601f106103e35761010080835404028352916020019161040e565b820191906000526020600020905b8154815290600101906020018083116103f157829003601f168201915b5050505050908060080160009054906101000a900463ffffffff169080600a015490508a565b60008061044e549050806001826064811061045257610451611089565b5b600b020160000181905550336001826064811061047257610471611089565b5b600b020160010160006101000a81548173ffffffffffffffffffffffffffffffffffffffff021916908373ffffffffffffffffffffffffffffffffffffffff16021790555087600182606481106104cc576104cb611089565b5b600b020160020160006101000a81548173ffffffffffffffffffffffffffffffffffffffff021916908373ffffffffffffffffffffffffffffffffffffffff160217905550866001826064811061052657610525611089565b5b600b020160030190816105399190611264565b50856001826064811061054f5761054e611089565b5b600b020160040190816105629190611264565b50846001826064811061057857610577611089565b5b600b0201600501908161058b9190611264565b5083600182606481106105a1576105a0611089565b5b600b020160070190816105b49190611264565b5082600182606481106105ca576105c9611089565b5b600b020160080160006101000a81548163ffffffff021916908363ffffffff16021790555060006001826064811061060557610604611089565b5b600b0201600a018190555060008585604051602001610625929190611372565b604051602081830303815290604052805190602001209050806001836064811061065257610651611089565b5b600b02016006018190555061044e6000815480929190610671906113c5565b91905055507f9fa3818a0bcd92e6bdf76b585ed9feea4ad7d3467dc3770c2af818d43f9581a582600184606481106106ac576106ab611089565b5b600b02016005016040516106c1929190611491565b60405180910390a181925050509695505050505050565b60006001151561044d60003373ffffffffffffffffffffffffffffffffffffffff1673ffffffffffffffffffffffffffffffffffffffff16815260200190815260200160002060009054906101000a900460ff1615150361073857600080fd5b600161044d60003373ffffffffffffffffffffffffffffffffffffffff1673ffffffffffffffffffffffffffffffffffffffff16815260200190815260200160002060006101000a81548160ff02191690831515021790555061044d60003373ffffffffffffffffffffffffffffffffffffffff1673ffffffffffffffffffffffffffffffffffffffff16815260200190815260200160002060009054906101000a900460ff16905090565b60006001151561044d60003373ffffffffffffffffffffffffffffffffffffffff1673ffffffffffffffffffffffffffffffffffffffff16815260200190815260200160002060009054906101000a900460ff1615151461084457600080fd5b6001826064811061085857610857611089565b5b600b020160080160009054906101000a900463ffffffff1663ffffffff166001836064811061088a57610889611089565b5b600b0201600a01541061089c57600080fd5b60018083606481106108b1576108b0611089565b5b600b020160090160003373ffffffffffffffffffffffffffffffffffffffff1673ffffffffffffffffffffffffffffffffffffffff16815260200190815260200160002060006101000a81548160ff021916908315150217905550600182606481106109205761091f611089565b5b600b0201600a016000815480929190610938906113c5565b91905055506001826064811061095157610950611089565b5b600b0201600a01546001836064811061096d5761096c611089565b5b600b020160080160009054906101000a900463ffffffff1663ffffffff1603610a23577f2510e6950be86d6001a0b1229da4c21fa8e26b6bcf345d0b348fe42894fceb03600183606481106109c5576109c4611089565b5b600b020160000154600184606481106109e1576109e0611089565b5b600b0201600401600185606481106109fc576109fb611089565b5b600b0201600501604051610a12939291906114c1565b60405180910390a160019050610aab565b7fe677a6b9a16a696674f50d2c98a1ce8c5cb51d6b48a0223412c512bbc93664d533604051610a529190611506565b60405180910390a161044d60003373ffffffffffffffffffffffffffffffffffffffff1673ffffffffffffffffffffffffffffffffffffffff16815260200190815260200160002060009054906101000a900460ff1690505b919050565b61044d6020528060005260406000206000915054906101000a900460ff1681565b6000604051905090565b600080fd5b600080fd5b6000819050919050565b610af881610ae5565b8114610b0357600080fd5b50565b600081359050610b1581610aef565b92915050565b600060208284031215610b3157610b30610adb565b5b6000610b3f84828501610b06565b91505092915050565b610b5181610ae5565b82525050565b600073ffffffffffffffffffffffffffffffffffffffff82169050919050565b6000610b8282610b57565b9050919050565b610b9281610b77565b82525050565b600081519050919050565b600082825260208201905092915050565b60005b83811015610bd2578082015181840152602081019050610bb7565b83811115610be1576000848401525b50505050565b6000601f19601f8301169050919050565b6000610c0382610b98565b610c0d8185610ba3565b9350610c1d818560208601610bb4565b610c2681610be7565b840191505092915050565b6000819050919050565b610c4481610c31565b82525050565b600063ffffffff82169050919050565b610c6381610c4a565b82525050565b600061014082019050610c7f600083018d610b48565b610c8c602083018c610b89565b610c99604083018b610b89565b8181036060830152610cab818a610bf8565b90508181036080830152610cbf8189610bf8565b905081810360a0830152610cd38188610bf8565b9050610ce260c0830187610c3b565b81810360e0830152610cf48186610bf8565b9050610d04610100830185610c5a565b610d12610120830184610b48565b9b9a5050505050505050505050565b610d2a81610b77565b8114610d3557600080fd5b50565b600081359050610d4781610d21565b92915050565b600080fd5b600080fd5b7f4e487b7100000000000000000000000000000000000000000000000000000000600052604160045260246000fd5b610d8f82610be7565b810181811067ffffffffffffffff82111715610dae57610dad610d57565b5b80604052505050565b6000610dc1610ad1565b9050610dcd8282610d86565b919050565b600067ffffffffffffffff821115610ded57610dec610d57565b5b610df682610be7565b9050602081019050919050565b82818337600083830152505050565b6000610e25610e2084610dd2565b610db7565b905082815260208101848484011115610e4157610e40610d52565b5b610e4c848285610e03565b509392505050565b600082601f830112610e6957610e68610d4d565b5b8135610e79848260208601610e12565b91505092915050565b610e8b81610c4a565b8114610e9657600080fd5b50565b600081359050610ea881610e82565b92915050565b60008060008060008060c08789031215610ecb57610eca610adb565b5b6000610ed989828a01610d38565b965050602087013567ffffffffffffffff811115610efa57610ef9610ae0565b5b610f0689828a01610e54565b955050604087013567ffffffffffffffff811115610f2757610f26610ae0565b5b610f3389828a01610e54565b945050606087013567ffffffffffffffff811115610f5457610f53610ae0565b5b610f6089828a01610e54565b935050608087013567ffffffffffffffff811115610f8157610f80610ae0565b5b610f8d89828a01610e54565b92505060a0610f9e89828a01610e99565b9150509295509295509295565b6000602082019050610fc06000830184610b48565b92915050565b60008115159050919050565b610fdb81610fc6565b82525050565b6000602082019050610ff66000830184610fd2565b92915050565b60006020828403121561101257611011610adb565b5b600061102084828501610d38565b91505092915050565b7f4e487b7100000000000000000000000000000000000000000000000000000000600052602260045260246000fd5b6000600282049050600182168061107057607f821691505b60208210810361108357611082611029565b5b50919050565b7f4e487b7100000000000000000000000000000000000000000000000000000000600052603260045260246000fd5b60008190508160005260206000209050919050565b60006020601f8301049050919050565b600082821b905092915050565b60006008830261111a7fffffffffffffffffffffffffffffffffffffffffffffffffffffffffffffffff826110dd565b61112486836110dd565b95508019841693508086168417925050509392505050565b6000819050919050565b600061116161115c61115784610ae5565b61113c565b610ae5565b9050919050565b6000819050919050565b61117b83611146565b61118f61118782611168565b8484546110ea565b825550505050565b600090565b6111a4611197565b6111af818484611172565b505050565b5b818110156111d3576111c860008261119c565b6001810190506111b5565b5050565b601f821115611218576111e9816110b8565b6111f2846110cd565b81016020851015611201578190505b61121561120d856110cd565b8301826111b4565b50505b505050565b600082821c905092915050565b600061123b6000198460080261121d565b1980831691505092915050565b6000611254838361122a565b9150826002028217905092915050565b61126d82610b98565b67ffffffffffffffff81111561128657611285610d57565b5b6112908254611058565b61129b8282856111d7565b600060209050601f8311600181146112ce57600084156112bc578287015190505b6112c68582611248565b86555061132e565b601f1984166112dc866110b8565b60005b82811015611304578489015182556001820191506020850194506020810190506112df565b86831015611321578489015161131d601f89168261122a565b8355505b6001600288020188555050505b505050505050565b600081905092915050565b600061134c82610b98565b6113568185611336565b9350611366818560208601610bb4565b80840191505092915050565b600061137e8285611341565b915061138a8284611341565b91508190509392505050565b7f4e487b7100000000000000000000000000000000000000000000000000000000600052601160045260246000fd5b60006113d082610ae5565b91507fffffffffffffffffffffffffffffffffffffffffffffffffffffffffffffffff820361140257611401611396565b5b600182019050919050565b6000815461141a81611058565b6114248186610ba3565b9450600182166000811461143f576001811461145557611488565b60ff198316865281151560200286019350611488565b61145e856110b8565b60005b8381101561148057815481890152600182019150602081019050611461565b808801955050505b50505092915050565b60006040820190506114a66000830185610b48565b81810360208301526114b8818461140d565b90509392505050565b60006060820190506114d66000830186610b48565b81810360208301526114e8818561140d565b905081810360408301526114fc818461140d565b9050949350505050565b600060208201905061151b6000830184610b89565b9291505056fea264697066735822122022e3af34e7d49b25e1f1013f341f513d6498c3c024834369040c2dc6f5a72aad64736f6c634300080f0033",
  "immutableReferences": {},
  "source": "// SPDX-License-Identifier: MIT\npragma solidity ^0.8.0;\n\n\ncontract OracleRequesterContract {\n    //\n\n    address owner;\n\n    Request[100] public requests;\n    mapping (address => bool) public oracles;\n    uint requestCounter = 1;\n    uint pendingCounter = 1;\n    // a single Request structure\n    struct Request {\n        uint256 requestID;\n        address requester;\n        address callbackAddress;\n        bytes callbackFID;\n        bytes IoTID;\n        bytes dataType;\n        bytes32 pHash;\n        bytes requiredResult;\n        uint32 numberOfOracles;\n        mapping (address => bool) oracles;\n        uint oracleCounter;\n    }\n\n    event OpenForBids(uint256, bytes);\n    event BidPlaced(address);\n    event ReleaseRequestDetails(uint256, bytes, bytes);\n\n    constructor() {\n        owner = msg.sender;\n\n    }\n\n    function joinAsOracle() public oracleNotJoined() returns(bool){\n        oracles[msg.sender] = true;\n        return oracles[msg.sender];\n    }\n\n    // @notice user can call function create request\n    // @dev\n    // @param _callbackAddress could be different to address that called the function\n    // @param _callbackFID a particular function in a smart contract that is needed to be called based on request\n    // @param _IoTID the identifier of the IoT device oracle node will be subscribing to\n    // @param _dataType, true false answer, an event, continuous data over time?\n    // @param _requiredResult what is needed from IoT device\n    // @param _numberOfOracles number of oracle nodes that fetch IoT data\n    // @return the requestID so the user can keep track of request\n    function createRequest(\n        address _callbackAddress,\n        bytes memory _callbackFID,\n        bytes memory _IoTID,\n        bytes memory _dataType,\n        bytes memory _requiredResult,\n        uint32 _numberOfOracles) public payable returns(uint256) {\n        // assign id to request\n        uint256 requestId = requestCounter;\n        // log details of the request to array to cross reference later\n        requests[requestId].requestID = requestId;\n        requests[requestId].requester = msg.sender;\n        requests[requestId].callbackAddress = _callbackAddress;\n        requests[requestId].callbackFID = _callbackFID;\n        requests[requestId].IoTID = _IoTID;\n        requests[requestId].dataType = _dataType;\n        requests[requestId].requiredResult = _requiredResult;\n        requests[requestId].numberOfOracles = _numberOfOracles;\n        //requests[requestId].oracles;\n        requests[requestId].oracleCounter = 0;\n\n\n        // create a hash of the _dataType and _requiredResult:\n        // we will use the actual result to test upon delivery.\n        bytes32 phash = keccak256(abi.encodePacked(_dataType, _requiredResult));\n        requests[requestId].pHash = phash;\n        // increment requestId ready for next create request function.\n        requestCounter++;\n\n        emit OpenForBids(requestId, requests[requestId].dataType);\n\n        return requestId;\n    }\n\n    // @notice off-chain oracle node places bid to fetch data, once threshold is reached, emits event details.\n    // @dev\n    // @param requestId oracle node wishes to bid on\n    // @return true to indicate bid successful\n    function placeBid(uint256 _requestID) public oracleHasJoined() returns(bool)  {\n        require(requests[_requestID].oracleCounter < requests[_requestID].numberOfOracles);\n        requests[_requestID].oracles[msg.sender] = true;\n        requests[_requestID].oracleCounter++;\n        // also add a timeout\n        if (requests[_requestID].numberOfOracles == requests[_requestID].oracleCounter) {\n            emit ReleaseRequestDetails(requests[_requestID].requestID,\n                requests[_requestID].IoTID,\n                requests[_requestID].dataType);\n            return true;\n        }\n        emit BidPlaced(msg.sender);\n        return oracles[msg.sender];\n    }\n\n    //\n\n    // function deliveryResponse() {} returns result to user smart contract\n    /*function deliverResponse(uint256) {\n        // return single aggregation result\n    }*/\n\n    // @notice modifier to confirm calling address is an oracle node address already acknowledged\n    modifier oracleHasJoined() {\n        require(oracles[msg.sender] == true);\n        _;\n    }\n    // @notice modifier to confirm calling address is not yet an oracle node address acknowledged\n    modifier oracleNotJoined() {\n        require(oracles[msg.sender] != true);\n        _;\n    }\n}\n",
  "sourcePath": "/home/willp/Documents/MSc_Computer_Science/PROJECT/Research_Code/july22_projectcode/IoToracle/contracts/OracleRequesterContract.sol",
  "compiler": {
    "name": "solc",
    "version": "0.8.15+commit.e14f2714.Emscripten.clang"
  },
  "schemaVersion": "3.4.8",
  "updatedAt": "2022-07-16T10:19:11.755Z",
  "devdoc": {
    "kind": "dev",
    "methods": {},
    "version": 1
  },
  "userdoc": {
    "kind": "user",
    "methods": {},
    "version": 1
  }
}