{
  "contractName": "OracleRequesterContract",
  "abi": [
    {
      "inputs": [],
      "stateMutability": "nonpayable",
      "type": "constructor"
    },
    {
      "anonymous": false,
      "inputs": [
        {
          "indexed": false,
          "internalType": "address",
          "name": "",
          "type": "address"
        }
      ],
      "name": "BidPlaced",
      "type": "event"
    },
    {
      "anonymous": false,
      "inputs": [
        {
          "indexed": false,
          "internalType": "uint256",
          "name": "",
          "type": "uint256"
        },
        {
          "indexed": false,
          "internalType": "bytes",
          "name": "",
          "type": "bytes"
        }
      ],
      "name": "OpenForBids",
      "type": "event"
    },
    {
      "anonymous": false,
      "inputs": [
        {
          "indexed": false,
          "internalType": "uint256",
          "name": "",
          "type": "uint256"
        },
        {
          "indexed": false,
          "internalType": "bytes",
          "name": "",
          "type": "bytes"
        },
        {
          "indexed": false,
          "internalType": "bytes",
          "name": "",
          "type": "bytes"
        }
      ],
      "name": "ReleaseRequestDetails",
      "type": "event"
    },
    {
      "inputs": [
        {
          "internalType": "uint256",
          "name": "",
          "type": "uint256"
        }
      ],
      "name": "completedRequests",
      "outputs": [
        {
          "internalType": "uint256",
          "name": "requestID",
          "type": "uint256"
        },
        {
          "internalType": "address",
          "name": "requester",
          "type": "address"
        },
        {
          "internalType": "address",
          "name": "callbackAddress",
          "type": "address"
        },
        {
          "internalType": "bytes",
          "name": "callbackFID",
          "type": "bytes"
        },
        {
          "internalType": "bytes",
          "name": "IoTID",
          "type": "bytes"
        },
        {
          "internalType": "bytes",
          "name": "dataType",
          "type": "bytes"
        },
        {
          "internalType": "bytes32",
          "name": "pHash",
          "type": "bytes32"
        },
        {
          "internalType": "uint32",
          "name": "numberOfOracles",
          "type": "uint32"
        },
        {
          "internalType": "uint32",
          "name": "oracleCounter",
          "type": "uint32"
        }
      ],
      "stateMutability": "view",
      "type": "function"
    },
    {
      "inputs": [
        {
          "internalType": "address",
          "name": "",
          "type": "address"
        }
      ],
      "name": "oracles",
      "outputs": [
        {
          "internalType": "bool",
          "name": "",
          "type": "bool"
        }
      ],
      "stateMutability": "view",
      "type": "function"
    },
    {
      "inputs": [
        {
          "internalType": "uint256",
          "name": "",
          "type": "uint256"
        }
      ],
      "name": "pendingRequests",
      "outputs": [
        {
          "internalType": "bool",
          "name": "",
          "type": "bool"
        }
      ],
      "stateMutability": "view",
      "type": "function"
    },
    {
      "inputs": [
        {
          "internalType": "uint256",
          "name": "",
          "type": "uint256"
        }
      ],
      "name": "requests",
      "outputs": [
        {
          "internalType": "uint256",
          "name": "requestID",
          "type": "uint256"
        },
        {
          "internalType": "address",
          "name": "requester",
          "type": "address"
        },
        {
          "internalType": "address",
          "name": "callbackAddress",
          "type": "address"
        },
        {
          "internalType": "bytes",
          "name": "callbackFID",
          "type": "bytes"
        },
        {
          "internalType": "bytes",
          "name": "IoTID",
          "type": "bytes"
        },
        {
          "internalType": "bytes",
          "name": "dataType",
          "type": "bytes"
        },
        {
          "internalType": "bytes32",
          "name": "pHash",
          "type": "bytes32"
        },
        {
          "internalType": "uint32",
          "name": "numberOfOracles",
          "type": "uint32"
        },
        {
          "internalType": "uint32",
          "name": "oracleCounter",
          "type": "uint32"
        }
      ],
      "stateMutability": "view",
      "type": "function"
    },
    {
      "inputs": [],
      "name": "joinAsOracle",
      "outputs": [
        {
          "internalType": "bool",
          "name": "",
          "type": "bool"
        }
      ],
      "stateMutability": "nonpayable",
      "type": "function"
    },
    {
      "inputs": [
        {
          "internalType": "address",
          "name": "_callbackAddress",
          "type": "address"
        },
        {
          "internalType": "bytes",
          "name": "_callbackFID",
          "type": "bytes"
        },
        {
          "internalType": "bytes",
          "name": "_IoTID",
          "type": "bytes"
        },
        {
          "internalType": "bytes",
          "name": "_dataType",
          "type": "bytes"
        },
        {
          "internalType": "bytes",
          "name": "_requiredResult",
          "type": "bytes"
        },
        {
          "internalType": "uint32",
          "name": "_numberOfOracles",
          "type": "uint32"
        }
      ],
      "name": "createRequest",
      "outputs": [
        {
          "internalType": "uint256",
          "name": "",
          "type": "uint256"
        }
      ],
      "stateMutability": "payable",
      "type": "function"
    },
    {
      "inputs": [
        {
          "internalType": "uint256",
          "name": "_requestID",
          "type": "uint256"
        }
      ],
      "name": "placeBid",
      "outputs": [
        {
          "internalType": "bool",
          "name": "",
          "type": "bool"
        }
      ],
      "stateMutability": "nonpayable",
      "type": "function"
    },
    {
      "inputs": [
        {
          "internalType": "uint256",
          "name": "_requestID",
          "type": "uint256"
        },
        {
          "internalType": "bytes",
          "name": "_finalResult",
          "type": "bytes"
        }
      ],
      "name": "deliverResponse",
      "outputs": [],
      "stateMutability": "nonpayable",
      "type": "function"
    },
    {
      "inputs": [
        {
          "internalType": "uint256",
          "name": "_requestID",
          "type": "uint256"
        },
        {
          "internalType": "address",
          "name": "_orcAddr",
          "type": "address"
        }
      ],
      "name": "getOracleForRequest",
      "outputs": [
        {
          "internalType": "bool",
          "name": "",
          "type": "bool"
        }
      ],
      "stateMutability": "view",
      "type": "function"
    },
    {
      "inputs": [
        {
          "internalType": "uint256",
          "name": "_requestID",
          "type": "uint256"
        }
      ],
      "name": "getNumberOfOracles",
      "outputs": [
        {
          "internalType": "uint32",
          "name": "",
          "type": "uint32"
        }
      ],
      "stateMutability": "view",
      "type": "function"
    },
    {
      "inputs": [
        {
          "internalType": "uint256",
          "name": "_requestID",
          "type": "uint256"
        }
      ],
      "name": "getPHash",
      "outputs": [
        {
          "internalType": "bytes32",
          "name": "",
          "type": "bytes32"
        }
      ],
      "stateMutability": "view",
      "type": "function"
    },
    {
      "inputs": [
        {
          "internalType": "uint256",
          "name": "_requestID",
          "type": "uint256"
        }
      ],
      "name": "getDataType",
      "outputs": [
        {
          "internalType": "bytes",
          "name": "",
          "type": "bytes"
        }
      ],
      "stateMutability": "view",
      "type": "function"
    }
  ],
  "bytecode": "0x608060405260016107d65560016107d75534801561001c57600080fd5b50336000806101000a81548173ffffffffffffffffffffffffffffffffffffffff021916908373ffffffffffffffffffffffffffffffffffffffff160217905550611c4d8061006c6000396000f3fe6080604052600436106100a75760003560e01c8063950e1da911610064578063950e1da9146102155780639979ef4514610240578063a37b354d1461027d578063addd5099146102ba578063ea317d5d146102f7578063f0fbfbf314610320576100a7565b80633c652a9a146100ac57806357442e79146100e957806381d12c5814610126578063829c22fd1461016b5780638979a3c2146101a857806391a3632a146101d8575b600080fd5b3480156100b857600080fd5b506100d360048036038101906100ce9190611107565b610365565b6040516100e0919061114f565b60405180910390f35b3480156100f557600080fd5b50610110600480360381019061010b9190611107565b610390565b60405161011d9190611203565b60405180910390f35b34801561013257600080fd5b5061014d60048036038101906101489190611107565b61043d565b604051610162999897969594939291906112ad565b60405180910390f35b34801561017757600080fd5b50610192600480360381019061018d9190611107565b610689565b60405161019f919061134f565b60405180910390f35b6101c260048036038101906101bd91906114f7565b6106ae565b6040516101cf91906115f4565b60405180910390f35b3480156101e457600080fd5b506101ff60048036038101906101fa9190611107565b610979565b60405161020c919061160f565b60405180910390f35b34801561022157600080fd5b5061022a6109ae565b604051610237919061114f565b60405180910390f35b34801561024c57600080fd5b5061026760048036038101906102629190611107565b610aba565b604051610274919061114f565b60405180910390f35b34801561028957600080fd5b506102a4600480360381019061029f919061162a565b610ddb565b6040516102b1919061114f565b60405180910390f35b3480156102c657600080fd5b506102e160048036038101906102dc919061166a565b610e4b565b6040516102ee919061114f565b60405180910390f35b34801561030357600080fd5b5061031e60048036038101906103199190611697565b610e6c565b005b34801561032c57600080fd5b5061034760048036038101906103429190611107565b610e70565b60405161035c999897969594939291906112ad565b60405180910390f35b6103e9816064811061037657600080fd5b60209182820401919006915054906101000a900460ff1681565b6060600182606481106103a6576103a56116f3565b5b600a020160050180546103b890611751565b80601f01602080910402602001604051908101604052809291908181526020018280546103e490611751565b80156104315780601f1061040657610100808354040283529160200191610431565b820191906000526020600020905b81548152906001019060200180831161041457829003601f168201915b50505050509050919050565b6001816064811061044d57600080fd5b600a02016000915090508060000154908060010160009054906101000a900473ffffffffffffffffffffffffffffffffffffffff16908060020160009054906101000a900473ffffffffffffffffffffffffffffffffffffffff16908060030180546104b890611751565b80601f01602080910402602001604051908101604052809291908181526020018280546104e490611751565b80156105315780601f1061050657610100808354040283529160200191610531565b820191906000526020600020905b81548152906001019060200180831161051457829003601f168201915b50505050509080600401805461054690611751565b80601f016020809104026020016040519081016040528092919081815260200182805461057290611751565b80156105bf5780601f10610594576101008083540402835291602001916105bf565b820191906000526020600020905b8154815290600101906020018083116105a257829003601f168201915b5050505050908060050180546105d490611751565b80601f016020809104026020016040519081016040528092919081815260200182805461060090611751565b801561064d5780601f106106225761010080835404028352916020019161064d565b820191906000526020600020905b81548152906001019060200180831161063057829003601f168201915b5050505050908060060154908060070160009054906101000a900463ffffffff16908060090160009054906101000a900463ffffffff16905089565b60006001826064811061069f5761069e6116f3565b5b600a0201600601549050919050565b6000806107d654905080600182606481106106cc576106cb6116f3565b5b600a02016000018190555033600182606481106106ec576106eb6116f3565b5b600a020160010160006101000a81548173ffffffffffffffffffffffffffffffffffffffff021916908373ffffffffffffffffffffffffffffffffffffffff1602179055508760018260648110610746576107456116f3565b5b600a020160020160006101000a81548173ffffffffffffffffffffffffffffffffffffffff021916908373ffffffffffffffffffffffffffffffffffffffff16021790555086600182606481106107a05761079f6116f3565b5b600a020160030190816107b3919061192e565b5085600182606481106107c9576107c86116f3565b5b600a020160040190816107dc919061192e565b5084600182606481106107f2576107f16116f3565b5b600a02016005019081610805919061192e565b50826001826064811061081b5761081a6116f3565b5b600a020160070160006101000a81548163ffffffff021916908363ffffffff160217905550600060018260648110610856576108556116f3565b5b600a020160090160006101000a81548163ffffffff021916908363ffffffff16021790555060008585604051602001610890929190611a3c565b60405160208183030381529060405280519060200120905080600183606481106108bd576108bc6116f3565b5b600a02016006018190555060016103e983606481106108df576108de6116f3565b5b602091828204019190066101000a81548160ff0219169083151502179055506107d6600081548092919061091290611a8f565b91905055507f9fa3818a0bcd92e6bdf76b585ed9feea4ad7d3467dc3770c2af818d43f9581a5826001846064811061094d5761094c6116f3565b5b600a0201600501604051610962929190611b5b565b60405180910390a181925050509695505050505050565b60006001826064811061098f5761098e6116f3565b5b600a020160070160009054906101000a900463ffffffff169050919050565b6000600115156107d560003373ffffffffffffffffffffffffffffffffffffffff1673ffffffffffffffffffffffffffffffffffffffff16815260200190815260200160002060009054906101000a900460ff16151503610a0e57600080fd5b60016107d560003373ffffffffffffffffffffffffffffffffffffffff1673ffffffffffffffffffffffffffffffffffffffff16815260200190815260200160002060006101000a81548160ff0219169083151502179055506107d560003373ffffffffffffffffffffffffffffffffffffffff1673ffffffffffffffffffffffffffffffffffffffff16815260200190815260200160002060009054906101000a900460ff16905090565b6000600115156107d560003373ffffffffffffffffffffffffffffffffffffffff1673ffffffffffffffffffffffffffffffffffffffff16815260200190815260200160002060009054906101000a900460ff16151514610b1a57600080fd5b60018260648110610b2e57610b2d6116f3565b5b600a020160070160009054906101000a900463ffffffff1663ffffffff1660018360648110610b6057610b5f6116f3565b5b600a020160090160009054906101000a900463ffffffff1663ffffffff1610610b8857600080fd5b6001808360648110610b9d57610b9c6116f3565b5b600a020160080160003373ffffffffffffffffffffffffffffffffffffffff1673ffffffffffffffffffffffffffffffffffffffff16815260200190815260200160002060006101000a81548160ff02191690831515021790555060018260648110610c0c57610c0b6116f3565b5b600a0201600901600081819054906101000a900463ffffffff1680929190610c3390611b8b565b91906101000a81548163ffffffff021916908363ffffffff160217905550507fe677a6b9a16a696674f50d2c98a1ce8c5cb51d6b48a0223412c512bbc93664d533604051610c819190611bb7565b60405180910390a160018260648110610c9d57610c9c6116f3565b5b600a020160090160009054906101000a900463ffffffff1663ffffffff1660018360648110610ccf57610cce6116f3565b5b600a020160070160009054906101000a900463ffffffff1663ffffffff1603610d85577f2510e6950be86d6001a0b1229da4c21fa8e26b6bcf345d0b348fe42894fceb0360018360648110610d2757610d266116f3565b5b600a02016000015460018460648110610d4357610d426116f3565b5b600a020160040160018560648110610d5e57610d5d6116f3565b5b600a0201600501604051610d7493929190611bd2565b60405180910390a160019050610dd6565b6107d560003373ffffffffffffffffffffffffffffffffffffffff1673ffffffffffffffffffffffffffffffffffffffff16815260200190815260200160002060009054906101000a900460ff1690505b919050565b600060018360648110610df157610df06116f3565b5b600a020160080160008373ffffffffffffffffffffffffffffffffffffffff1673ffffffffffffffffffffffffffffffffffffffff16815260200190815260200160002060009054906101000a900460ff16905092915050565b6107d56020528060005260406000206000915054906101000a900460ff1681565b5050565b6103ed8160648110610e8157600080fd5b600a02016000915090508060000154908060010160009054906101000a900473ffffffffffffffffffffffffffffffffffffffff16908060020160009054906101000a900473ffffffffffffffffffffffffffffffffffffffff1690806003018054610eec90611751565b80601f0160208091040260200160405190810160405280929190818152602001828054610f1890611751565b8015610f655780601f10610f3a57610100808354040283529160200191610f65565b820191906000526020600020905b815481529060010190602001808311610f4857829003601f168201915b505050505090806004018054610f7a90611751565b80601f0160208091040260200160405190810160405280929190818152602001828054610fa690611751565b8015610ff35780601f10610fc857610100808354040283529160200191610ff3565b820191906000526020600020905b815481529060010190602001808311610fd657829003601f168201915b50505050509080600501805461100890611751565b80601f016020809104026020016040519081016040528092919081815260200182805461103490611751565b80156110815780601f1061105657610100808354040283529160200191611081565b820191906000526020600020905b81548152906001019060200180831161106457829003601f168201915b5050505050908060060154908060070160009054906101000a900463ffffffff16908060090160009054906101000a900463ffffffff16905089565b6000604051905090565b600080fd5b600080fd5b6000819050919050565b6110e4816110d1565b81146110ef57600080fd5b50565b600081359050611101816110db565b92915050565b60006020828403121561111d5761111c6110c7565b5b600061112b848285016110f2565b91505092915050565b60008115159050919050565b61114981611134565b82525050565b60006020820190506111646000830184611140565b92915050565b600081519050919050565b600082825260208201905092915050565b60005b838110156111a4578082015181840152602081019050611189565b838111156111b3576000848401525b50505050565b6000601f19601f8301169050919050565b60006111d58261116a565b6111df8185611175565b93506111ef818560208601611186565b6111f8816111b9565b840191505092915050565b6000602082019050818103600083015261121d81846111ca565b905092915050565b61122e816110d1565b82525050565b600073ffffffffffffffffffffffffffffffffffffffff82169050919050565b600061125f82611234565b9050919050565b61126f81611254565b82525050565b6000819050919050565b61128881611275565b82525050565b600063ffffffff82169050919050565b6112a78161128e565b82525050565b6000610120820190506112c3600083018c611225565b6112d0602083018b611266565b6112dd604083018a611266565b81810360608301526112ef81896111ca565b9050818103608083015261130381886111ca565b905081810360a083015261131781876111ca565b905061132660c083018661127f565b61133360e083018561129e565b61134161010083018461129e565b9a9950505050505050505050565b6000602082019050611364600083018461127f565b92915050565b61137381611254565b811461137e57600080fd5b50565b6000813590506113908161136a565b92915050565b600080fd5b600080fd5b7f4e487b7100000000000000000000000000000000000000000000000000000000600052604160045260246000fd5b6113d8826111b9565b810181811067ffffffffffffffff821117156113f7576113f66113a0565b5b80604052505050565b600061140a6110bd565b905061141682826113cf565b919050565b600067ffffffffffffffff821115611436576114356113a0565b5b61143f826111b9565b9050602081019050919050565b82818337600083830152505050565b600061146e6114698461141b565b611400565b90508281526020810184848401111561148a5761148961139b565b5b61149584828561144c565b509392505050565b600082601f8301126114b2576114b1611396565b5b81356114c284826020860161145b565b91505092915050565b6114d48161128e565b81146114df57600080fd5b50565b6000813590506114f1816114cb565b92915050565b60008060008060008060c08789031215611514576115136110c7565b5b600061152289828a01611381565b965050602087013567ffffffffffffffff811115611543576115426110cc565b5b61154f89828a0161149d565b955050604087013567ffffffffffffffff8111156115705761156f6110cc565b5b61157c89828a0161149d565b945050606087013567ffffffffffffffff81111561159d5761159c6110cc565b5b6115a989828a0161149d565b935050608087013567ffffffffffffffff8111156115ca576115c96110cc565b5b6115d689828a0161149d565b92505060a06115e789828a016114e2565b9150509295509295509295565b60006020820190506116096000830184611225565b92915050565b6000602082019050611624600083018461129e565b92915050565b60008060408385031215611641576116406110c7565b5b600061164f858286016110f2565b925050602061166085828601611381565b9150509250929050565b6000602082840312156116805761167f6110c7565b5b600061168e84828501611381565b91505092915050565b600080604083850312156116ae576116ad6110c7565b5b60006116bc858286016110f2565b925050602083013567ffffffffffffffff8111156116dd576116dc6110cc565b5b6116e98582860161149d565b9150509250929050565b7f4e487b7100000000000000000000000000000000000000000000000000000000600052603260045260246000fd5b7f4e487b7100000000000000000000000000000000000000000000000000000000600052602260045260246000fd5b6000600282049050600182168061176957607f821691505b60208210810361177c5761177b611722565b5b50919050565b60008190508160005260206000209050919050565b60006020601f8301049050919050565b600082821b905092915050565b6000600883026117e47fffffffffffffffffffffffffffffffffffffffffffffffffffffffffffffffff826117a7565b6117ee86836117a7565b95508019841693508086168417925050509392505050565b6000819050919050565b600061182b611826611821846110d1565b611806565b6110d1565b9050919050565b6000819050919050565b61184583611810565b61185961185182611832565b8484546117b4565b825550505050565b600090565b61186e611861565b61187981848461183c565b505050565b5b8181101561189d57611892600082611866565b60018101905061187f565b5050565b601f8211156118e2576118b381611782565b6118bc84611797565b810160208510156118cb578190505b6118df6118d785611797565b83018261187e565b50505b505050565b600082821c905092915050565b6000611905600019846008026118e7565b1980831691505092915050565b600061191e83836118f4565b9150826002028217905092915050565b6119378261116a565b67ffffffffffffffff8111156119505761194f6113a0565b5b61195a8254611751565b6119658282856118a1565b600060209050601f8311600181146119985760008415611986578287015190505b6119908582611912565b8655506119f8565b601f1984166119a686611782565b60005b828110156119ce578489015182556001820191506020850194506020810190506119a9565b868310156119eb57848901516119e7601f8916826118f4565b8355505b6001600288020188555050505b505050505050565b600081905092915050565b6000611a168261116a565b611a208185611a00565b9350611a30818560208601611186565b80840191505092915050565b6000611a488285611a0b565b9150611a548284611a0b565b91508190509392505050565b7f4e487b7100000000000000000000000000000000000000000000000000000000600052601160045260246000fd5b6000611a9a826110d1565b91507fffffffffffffffffffffffffffffffffffffffffffffffffffffffffffffffff8203611acc57611acb611a60565b5b600182019050919050565b60008154611ae481611751565b611aee8186611175565b94506001821660008114611b095760018114611b1f57611b52565b60ff198316865281151560200286019350611b52565b611b2885611782565b60005b83811015611b4a57815481890152600182019150602081019050611b2b565b808801955050505b50505092915050565b6000604082019050611b706000830185611225565b8181036020830152611b828184611ad7565b90509392505050565b6000611b968261128e565b915063ffffffff8203611bac57611bab611a60565b5b600182019050919050565b6000602082019050611bcc6000830184611266565b92915050565b6000606082019050611be76000830186611225565b8181036020830152611bf98185611ad7565b90508181036040830152611c0d8184611ad7565b905094935050505056fea2646970667358221220db90eb5105e41e014a766e1442fa398fed374fe573a0b4d14da44acd5fdf496064736f6c634300080f0033",
  "immutableReferences": {},
  "source": "// SPDX-License-Identifier: MIT\npragma solidity ^0.8.0;\n\n\ncontract OracleRequesterContract {\n    //\n\n    address owner;\n\n    Request[100] public requests;\n    bool[100] public pendingRequests;\n    Request[100] public completedRequests;\n    mapping (address => bool) public oracles;\n    uint requestCounter = 1;\n    uint pendingCounter = 1;\n    // a single Request structure\n    struct Request {\n        uint256 requestID;\n        address requester;\n        address callbackAddress;\n        bytes callbackFID;\n        bytes IoTID;\n        bytes dataType;\n        bytes32 pHash;\n        //bytes requiredResult;\n        uint32 numberOfOracles;\n        mapping (address => bool) oraclesForRequest;\n        uint32 oracleCounter;\n    }\n\n    event OpenForBids(uint256, bytes);\n    event BidPlaced(address);\n    event ReleaseRequestDetails(uint256, bytes, bytes);\n\n    constructor() {\n        owner = msg.sender;\n\n    }\n\n    function joinAsOracle() public oracleNotJoined() returns(bool){\n        oracles[msg.sender] = true;\n        return oracles[msg.sender];\n    }\n\n    // @notice user can call function create request\n    // @dev\n    // @param _callbackAddress could be different to address that called the function\n    // @param _callbackFID a particular function in a smart contract that is needed to be called based on request\n    // @param _IoTID the identifier of the IoT device oracle node will be subscribing to\n    // @param _dataType, true false answer, an event, continuous data over time?\n    // @param _requiredResult what is needed from IoT device\n    // @param _numberOfOracles number of oracle nodes that fetch IoT data\n    // @return the requestID so the user can keep track of request\n    function createRequest(\n        address _callbackAddress,\n        bytes memory _callbackFID,\n        bytes memory _IoTID,\n        bytes memory _dataType,\n        bytes memory _requiredResult,\n        uint32 _numberOfOracles) public payable returns(uint256) {\n        // assign id to request\n        uint256 requestId = requestCounter;\n        // log details of the request to array to cross reference later\n        requests[requestId].requestID = requestId;\n        requests[requestId].requester = msg.sender;\n        requests[requestId].callbackAddress = _callbackAddress;\n        requests[requestId].callbackFID = _callbackFID;\n        requests[requestId].IoTID = _IoTID;\n        requests[requestId].dataType = _dataType;\n        //requests[requestId].requiredResult = _requiredResult;\n        requests[requestId].numberOfOracles = _numberOfOracles;\n        //requests[requestId].oracles;\n        requests[requestId].oracleCounter = 0;\n\n\n        // create a hash of the _dataType and _requiredResult:\n        // we will use the actual result to test upon delivery.\n        bytes32 phash = keccak256(abi.encodePacked(_dataType, _requiredResult));\n        requests[requestId].pHash = phash;\n        // increment requestId ready for next create request function.\n        pendingRequests[requestId] = true;\n        requestCounter++;\n\n        emit OpenForBids(requestId, requests[requestId].dataType);\n\n        return requestId;\n    }\n\n    // @notice off-chain oracle node places bid to fetch data, once threshold is reached, emits event details.\n    // @dev\n    // @param requestId oracle node wishes to bid on\n    // @return true to indicate bid successful\n    function placeBid(uint256 _requestID) public oracleHasJoined() returns(bool)  {\n        require(requests[_requestID].oracleCounter < requests[_requestID].numberOfOracles);\n        requests[_requestID].oraclesForRequest[msg.sender] = true;\n        requests[_requestID].oracleCounter++;\n        // also add a timeout\n        emit BidPlaced(msg.sender);\n        if (requests[_requestID].numberOfOracles == requests[_requestID].oracleCounter) {\n            emit ReleaseRequestDetails(requests[_requestID].requestID,\n                requests[_requestID].IoTID,\n                requests[_requestID].dataType);\n            return true;\n        }\n        return oracles[msg.sender];\n    }\n\n    //\n\n    // function deliveryResponse() {} returns result to user smart contract\n    function deliverResponse(uint256 _requestID, bytes memory _finalResult) public {\n        // return single aggregation result\n    }\n\n    // getters\n    function getOracleForRequest(uint256 _requestID, address _orcAddr) public view returns(bool){\n        return requests[_requestID].oraclesForRequest[_orcAddr];\n    }\n    function getNumberOfOracles(uint256 _requestID) public view returns(uint32){\n        return requests[_requestID].numberOfOracles;\n    }\n    function getPHash(uint256 _requestID) public view returns(bytes32){\n        return requests[_requestID].pHash;\n    }\n    function getDataType(uint256 _requestID) public view returns(bytes memory) {\n        return requests[_requestID].dataType;\n    }\n\n    // @notice modifier to confirm calling address is an oracle node address already acknowledged\n    modifier oracleHasJoined() {\n        require(oracles[msg.sender] == true);\n        _;\n    }\n    // @notice modifier to confirm calling address is not yet an oracle node address acknowledged\n    modifier oracleNotJoined() {\n        require(oracles[msg.sender] != true);\n        _;\n    }\n}\n",
  "sourcePath": "/home/willp/Documents/MSc_Computer_Science/PROJECT/Research_Code/july22_projectcode/IoToracle/contracts/OracleRequesterContract.sol",
  "compiler": {
    "name": "solc",
    "version": "0.8.15+commit.e14f2714.Emscripten.clang"
  },
  "schemaVersion": "3.4.8",
  "updatedAt": "2022-07-18T12:39:12.147Z",
  "devdoc": {
    "kind": "dev",
    "methods": {},
    "version": 1
  },
  "userdoc": {
    "kind": "user",
    "methods": {},
    "version": 1
  }
}