{
  "contractName": "OracleRequesterContract",
  "abi": [
    {
      "inputs": [],
      "stateMutability": "nonpayable",
      "type": "constructor"
    },
    {
      "anonymous": false,
      "inputs": [
        {
          "indexed": false,
          "internalType": "address",
          "name": "",
          "type": "address"
        }
      ],
      "name": "BidPlaced",
      "type": "event"
    },
    {
      "anonymous": false,
      "inputs": [
        {
          "indexed": false,
          "internalType": "uint256",
          "name": "",
          "type": "uint256"
        },
        {
          "indexed": false,
          "internalType": "bytes",
          "name": "",
          "type": "bytes"
        }
      ],
      "name": "OpenForBids",
      "type": "event"
    },
    {
      "anonymous": false,
      "inputs": [
        {
          "indexed": false,
          "internalType": "address",
          "name": "",
          "type": "address"
        },
        {
          "indexed": false,
          "internalType": "string",
          "name": "",
          "type": "string"
        }
      ],
      "name": "OracleJoined",
      "type": "event"
    },
    {
      "anonymous": false,
      "inputs": [
        {
          "indexed": false,
          "internalType": "address",
          "name": "",
          "type": "address"
        },
        {
          "indexed": false,
          "internalType": "string",
          "name": "",
          "type": "string"
        }
      ],
      "name": "OracleLeft",
      "type": "event"
    },
    {
      "anonymous": false,
      "inputs": [
        {
          "indexed": false,
          "internalType": "uint256",
          "name": "",
          "type": "uint256"
        },
        {
          "indexed": false,
          "internalType": "bytes",
          "name": "",
          "type": "bytes"
        },
        {
          "indexed": false,
          "internalType": "bytes",
          "name": "",
          "type": "bytes"
        }
      ],
      "name": "ReleaseRequestDetails",
      "type": "event"
    },
    {
      "anonymous": false,
      "inputs": [
        {
          "indexed": false,
          "internalType": "enum OracleRequesterContract.Status",
          "name": "",
          "type": "uint8"
        },
        {
          "indexed": false,
          "internalType": "string",
          "name": "",
          "type": "string"
        }
      ],
      "name": "StatusChange",
      "type": "event"
    },
    {
      "stateMutability": "nonpayable",
      "type": "fallback"
    },
    {
      "inputs": [
        {
          "internalType": "address",
          "name": "",
          "type": "address"
        }
      ],
      "name": "oracles",
      "outputs": [
        {
          "internalType": "bool",
          "name": "",
          "type": "bool"
        }
      ],
      "stateMutability": "view",
      "type": "function",
      "constant": true
    },
    {
      "inputs": [],
      "name": "owner",
      "outputs": [
        {
          "internalType": "address payable",
          "name": "",
          "type": "address"
        }
      ],
      "stateMutability": "view",
      "type": "function",
      "constant": true
    },
    {
      "inputs": [
        {
          "internalType": "uint256",
          "name": "",
          "type": "uint256"
        }
      ],
      "name": "requests",
      "outputs": [
        {
          "internalType": "uint256",
          "name": "requestID",
          "type": "uint256"
        },
        {
          "internalType": "address",
          "name": "requester",
          "type": "address"
        },
        {
          "internalType": "address",
          "name": "callbackAddress",
          "type": "address"
        },
        {
          "internalType": "bytes",
          "name": "callbackFID",
          "type": "bytes"
        },
        {
          "internalType": "bytes",
          "name": "IoTID",
          "type": "bytes"
        },
        {
          "internalType": "bytes",
          "name": "dataType",
          "type": "bytes"
        },
        {
          "internalType": "bytes32",
          "name": "pHash",
          "type": "bytes32"
        },
        {
          "internalType": "uint32",
          "name": "numberOfOracles",
          "type": "uint32"
        },
        {
          "internalType": "uint32",
          "name": "oracleCounter",
          "type": "uint32"
        },
        {
          "internalType": "enum OracleRequesterContract.Status",
          "name": "status",
          "type": "uint8"
        }
      ],
      "stateMutability": "view",
      "type": "function",
      "constant": true
    },
    {
      "inputs": [],
      "name": "joinAsOracle",
      "outputs": [
        {
          "internalType": "bool",
          "name": "",
          "type": "bool"
        }
      ],
      "stateMutability": "nonpayable",
      "type": "function"
    },
    {
      "inputs": [],
      "name": "leaveOracleNetwork",
      "outputs": [
        {
          "internalType": "bool",
          "name": "",
          "type": "bool"
        }
      ],
      "stateMutability": "nonpayable",
      "type": "function"
    },
    {
      "inputs": [
        {
          "internalType": "address",
          "name": "_callbackAddress",
          "type": "address"
        },
        {
          "internalType": "bytes",
          "name": "_callbackFID",
          "type": "bytes"
        },
        {
          "internalType": "bytes",
          "name": "_IoTID",
          "type": "bytes"
        },
        {
          "internalType": "bytes",
          "name": "_dataType",
          "type": "bytes"
        },
        {
          "internalType": "bytes",
          "name": "_requiredResult",
          "type": "bytes"
        },
        {
          "internalType": "uint32",
          "name": "_numberOfOracles",
          "type": "uint32"
        }
      ],
      "name": "createRequest",
      "outputs": [
        {
          "internalType": "uint256",
          "name": "",
          "type": "uint256"
        }
      ],
      "stateMutability": "nonpayable",
      "type": "function"
    },
    {
      "inputs": [
        {
          "internalType": "uint256",
          "name": "_requestID",
          "type": "uint256"
        }
      ],
      "name": "placeBid",
      "outputs": [
        {
          "internalType": "bool",
          "name": "",
          "type": "bool"
        }
      ],
      "stateMutability": "nonpayable",
      "type": "function"
    },
    {
      "inputs": [
        {
          "internalType": "uint256",
          "name": "_requestID",
          "type": "uint256"
        },
        {
          "internalType": "bytes",
          "name": "_finalResult",
          "type": "bytes"
        }
      ],
      "name": "deliverResponse",
      "outputs": [],
      "stateMutability": "nonpayable",
      "type": "function"
    },
    {
      "inputs": [
        {
          "internalType": "uint256",
          "name": "_requestID",
          "type": "uint256"
        }
      ],
      "name": "cancelRequest",
      "outputs": [],
      "stateMutability": "nonpayable",
      "type": "function"
    },
    {
      "inputs": [
        {
          "internalType": "uint256",
          "name": "_requestID",
          "type": "uint256"
        },
        {
          "internalType": "address",
          "name": "_orcAddr",
          "type": "address"
        }
      ],
      "name": "getOracleForRequest",
      "outputs": [
        {
          "internalType": "bool",
          "name": "",
          "type": "bool"
        }
      ],
      "stateMutability": "view",
      "type": "function",
      "constant": true
    },
    {
      "inputs": [
        {
          "internalType": "uint256",
          "name": "_requestID",
          "type": "uint256"
        }
      ],
      "name": "getNumberOfOracles",
      "outputs": [
        {
          "internalType": "uint32",
          "name": "",
          "type": "uint32"
        }
      ],
      "stateMutability": "view",
      "type": "function",
      "constant": true
    },
    {
      "inputs": [
        {
          "internalType": "uint256",
          "name": "_requestID",
          "type": "uint256"
        }
      ],
      "name": "getPHash",
      "outputs": [
        {
          "internalType": "bytes32",
          "name": "",
          "type": "bytes32"
        }
      ],
      "stateMutability": "view",
      "type": "function",
      "constant": true
    },
    {
      "inputs": [
        {
          "internalType": "uint256",
          "name": "_requestID",
          "type": "uint256"
        }
      ],
      "name": "getDataType",
      "outputs": [
        {
          "internalType": "bytes",
          "name": "",
          "type": "bytes"
        }
      ],
      "stateMutability": "view",
      "type": "function",
      "constant": true
    }
  ],
  "bytecode": "0x608060405260016103ea5560016103eb5534801561001c57600080fd5b50336000806101000a81548173ffffffffffffffffffffffffffffffffffffffff021916908373ffffffffffffffffffffffffffffffffffffffff1602179055506120508061006c6000396000f3fe608060405234801561001057600080fd5b50600436106100d35760003560e01c806391a3632a1161008c578063a08702f311610066578063a08702f314610257578063a37b354d14610275578063addd5099146102a5578063ea317d5d146102d5576100d4565b806391a3632a146101d9578063950e1da9146102095780639979ef4514610227576100d4565b80633015394c146100d657806357442e79146100f257806381d12c5814610122578063829c22fd1461015b5780638979a3c21461018b5780638da5cb5b146101bb576100d4565b5b005b6100f060048036038101906100eb919061124f565b6102f1565b005b61010c6004803603810190610107919061124f565b61045d565b6040516101199190611315565b60405180910390f35b61013c6004803603810190610137919061124f565b61050a565b6040516101529a99989796959493929190611436565b60405180910390f35b6101756004803603810190610170919061124f565b610769565b60405161018291906114e7565b60405180910390f35b6101a560048036038101906101a0919061168f565b61078e565b6040516101b2919061178c565b60405180910390f35b6101c3610ac5565b6040516101d091906117c8565b60405180910390f35b6101f360048036038101906101ee919061124f565b610ae9565b60405161020091906117e3565b60405180910390f35b610211610b1e565b60405161021e9190611819565b60405180910390f35b610241600480360381019061023c919061124f565b610c61565b60405161024e9190611819565b60405180910390f35b61025f610f82565b60405161026c9190611819565b60405180910390f35b61028f600480360381019061028a9190611834565b611070565b60405161029c9190611819565b60405180910390f35b6102bf60048036038101906102ba9190611874565b6110e0565b6040516102cc9190611819565b60405180910390f35b6102ef60048036038101906102ea91906118a1565b611101565b005b803373ffffffffffffffffffffffffffffffffffffffff166001826064811061031d5761031c6118fd565b5b600a020160020160009054906101000a900473ffffffffffffffffffffffffffffffffffffffff1673ffffffffffffffffffffffffffffffffffffffff161461036557600080fd5b60018260648110610379576103786118fd565b5b600a02016000808201600090556001820160006101000a81549073ffffffffffffffffffffffffffffffffffffffff02191690556002820160006101000a81549073ffffffffffffffffffffffffffffffffffffffff02191690556003820160006103e491906111a8565b6004820160006103f491906111a8565b60058201600061040491906111a8565b60068201600090556007820160006101000a81549063ffffffff02191690556009820160006101000a81549063ffffffff02191690556009820160046101000a81549060ff0219169055505060016103ea819055505050565b606060018260648110610473576104726118fd565b5b600a020160050180546104859061195b565b80601f01602080910402602001604051908101604052809291908181526020018280546104b19061195b565b80156104fe5780601f106104d3576101008083540402835291602001916104fe565b820191906000526020600020905b8154815290600101906020018083116104e157829003601f168201915b50505050509050919050565b6001816064811061051a57600080fd5b600a02016000915090508060000154908060010160009054906101000a900473ffffffffffffffffffffffffffffffffffffffff16908060020160009054906101000a900473ffffffffffffffffffffffffffffffffffffffff16908060030180546105859061195b565b80601f01602080910402602001604051908101604052809291908181526020018280546105b19061195b565b80156105fe5780601f106105d3576101008083540402835291602001916105fe565b820191906000526020600020905b8154815290600101906020018083116105e157829003601f168201915b5050505050908060040180546106139061195b565b80601f016020809104026020016040519081016040528092919081815260200182805461063f9061195b565b801561068c5780601f106106615761010080835404028352916020019161068c565b820191906000526020600020905b81548152906001019060200180831161066f57829003601f168201915b5050505050908060050180546106a19061195b565b80601f01602080910402602001604051908101604052809291908181526020018280546106cd9061195b565b801561071a5780601f106106ef5761010080835404028352916020019161071a565b820191906000526020600020905b8154815290600101906020018083116106fd57829003601f168201915b5050505050908060060154908060070160009054906101000a900463ffffffff16908060090160009054906101000a900463ffffffff16908060090160049054906101000a900460ff1690508a565b60006001826064811061077f5761077e6118fd565b5b600a0201600601549050919050565b6000806103ea54905080600182606481106107ac576107ab6118fd565b5b600a02016000018190555033600182606481106107cc576107cb6118fd565b5b600a020160010160006101000a81548173ffffffffffffffffffffffffffffffffffffffff021916908373ffffffffffffffffffffffffffffffffffffffff1602179055508760018260648110610826576108256118fd565b5b600a020160020160006101000a81548173ffffffffffffffffffffffffffffffffffffffff021916908373ffffffffffffffffffffffffffffffffffffffff16021790555086600182606481106108805761087f6118fd565b5b600a020160030190816108939190611b38565b5085600182606481106108a9576108a86118fd565b5b600a020160040190816108bc9190611b38565b5084600182606481106108d2576108d16118fd565b5b600a020160050190816108e59190611b38565b5082600182606481106108fb576108fa6118fd565b5b600a020160070160006101000a81548163ffffffff021916908363ffffffff160217905550600060018260648110610936576109356118fd565b5b600a020160090160006101000a81548163ffffffff021916908363ffffffff16021790555060018082606481106109705761096f6118fd565b5b600a020160090160046101000a81548160ff02191690836002811115610999576109986113bf565b5b02179055507f346e0fa9e112a7376778dcb0fe0fdfe51db577b3d0b1592a40266db0b192f822600182606481106109d3576109d26118fd565b5b600a020160090160049054906101000a900460ff166040516109f59190611c67565b60405180910390a160008585604051602001610a12929190611cd1565b6040516020818303038152906040528051906020012090508060018360648110610a3f57610a3e6118fd565b5b600a0201600601819055506103ea6000815480929190610a5e90611d24565b91905055507f9fa3818a0bcd92e6bdf76b585ed9feea4ad7d3467dc3770c2af818d43f9581a58260018460648110610a9957610a986118fd565b5b600a0201600501604051610aae929190611df0565b60405180910390a181925050509695505050505050565b60008054906101000a900473ffffffffffffffffffffffffffffffffffffffff1681565b600060018260648110610aff57610afe6118fd565b5b600a020160070160009054906101000a900463ffffffff169050919050565b6000600115156103e960003373ffffffffffffffffffffffffffffffffffffffff1673ffffffffffffffffffffffffffffffffffffffff16815260200190815260200160002060009054906101000a900460ff16151503610b7e57600080fd5b60016103e960003373ffffffffffffffffffffffffffffffffffffffff1673ffffffffffffffffffffffffffffffffffffffff16815260200190815260200160002060006101000a81548160ff0219169083151502179055507f2d62108771d82d92634e2d038b6c7f09290edfee5b1443e25299f04a0cfbca7233604051610c069190611e6c565b60405180910390a16103e960003373ffffffffffffffffffffffffffffffffffffffff1673ffffffffffffffffffffffffffffffffffffffff16815260200190815260200160002060009054906101000a900460ff16905090565b6000600115156103e960003373ffffffffffffffffffffffffffffffffffffffff1673ffffffffffffffffffffffffffffffffffffffff16815260200190815260200160002060009054906101000a900460ff16151514610cc157600080fd5b60018260648110610cd557610cd46118fd565b5b600a020160070160009054906101000a900463ffffffff1663ffffffff1660018360648110610d0757610d066118fd565b5b600a020160090160009054906101000a900463ffffffff1663ffffffff1610610d2f57600080fd5b6001808360648110610d4457610d436118fd565b5b600a020160080160003373ffffffffffffffffffffffffffffffffffffffff1673ffffffffffffffffffffffffffffffffffffffff16815260200190815260200160002060006101000a81548160ff02191690831515021790555060018260648110610db357610db26118fd565b5b600a0201600901600081819054906101000a900463ffffffff1680929190610dda90611e9a565b91906101000a81548163ffffffff021916908363ffffffff160217905550507fe677a6b9a16a696674f50d2c98a1ce8c5cb51d6b48a0223412c512bbc93664d533604051610e289190611ec6565b60405180910390a160018260648110610e4457610e436118fd565b5b600a020160090160009054906101000a900463ffffffff1663ffffffff1660018360648110610e7657610e756118fd565b5b600a020160070160009054906101000a900463ffffffff1663ffffffff1603610f2c577f2510e6950be86d6001a0b1229da4c21fa8e26b6bcf345d0b348fe42894fceb0360018360648110610ece57610ecd6118fd565b5b600a02016000015460018460648110610eea57610ee96118fd565b5b600a020160040160018560648110610f0557610f046118fd565b5b600a0201600501604051610f1b93929190611ee1565b60405180910390a160019050610f7d565b6103e960003373ffffffffffffffffffffffffffffffffffffffff1673ffffffffffffffffffffffffffffffffffffffff16815260200190815260200160002060009054906101000a900460ff1690505b919050565b6000600115156103e960003373ffffffffffffffffffffffffffffffffffffffff1673ffffffffffffffffffffffffffffffffffffffff16815260200190815260200160002060009054906101000a900460ff16151514610fe257600080fd5b6103e960003373ffffffffffffffffffffffffffffffffffffffff1673ffffffffffffffffffffffffffffffffffffffff16815260200190815260200160002060006101000a81549060ff02191690557f14951d787e2aaf7813982720871de23d576e7d935c0587e12a7fc2c4c960165a336040516110619190611f72565b60405180910390a16001905090565b600060018360648110611086576110856118fd565b5b600a020160080160008373ffffffffffffffffffffffffffffffffffffffff1673ffffffffffffffffffffffffffffffffffffffff16815260200190815260200160002060009054906101000a900460ff16905092915050565b6103e96020528060005260406000206000915054906101000a900460ff1681565b600260018360648110611117576111166118fd565b5b600a020160090160046101000a81548160ff021916908360028111156111405761113f6113bf565b5b02179055507f346e0fa9e112a7376778dcb0fe0fdfe51db577b3d0b1592a40266db0b192f8226001836064811061117a576111796118fd565b5b600a020160090160049054906101000a900460ff1660405161119c9190611fec565b60405180910390a15050565b5080546111b49061195b565b6000825580601f106111c657506111e5565b601f0160209004906000526020600020908101906111e491906111e8565b5b50565b5b808211156112015760008160009055506001016111e9565b5090565b6000604051905090565b600080fd5b600080fd5b6000819050919050565b61122c81611219565b811461123757600080fd5b50565b60008135905061124981611223565b92915050565b6000602082840312156112655761126461120f565b5b60006112738482850161123a565b91505092915050565b600081519050919050565b600082825260208201905092915050565b60005b838110156112b657808201518184015260208101905061129b565b838111156112c5576000848401525b50505050565b6000601f19601f8301169050919050565b60006112e78261127c565b6112f18185611287565b9350611301818560208601611298565b61130a816112cb565b840191505092915050565b6000602082019050818103600083015261132f81846112dc565b905092915050565b61134081611219565b82525050565b600073ffffffffffffffffffffffffffffffffffffffff82169050919050565b600061137182611346565b9050919050565b61138181611366565b82525050565b6000819050919050565b61139a81611387565b82525050565b600063ffffffff82169050919050565b6113b9816113a0565b82525050565b7f4e487b7100000000000000000000000000000000000000000000000000000000600052602160045260246000fd5b600381106113ff576113fe6113bf565b5b50565b6000819050611410826113ee565b919050565b600061142082611402565b9050919050565b61143081611415565b82525050565b60006101408201905061144c600083018d611337565b611459602083018c611378565b611466604083018b611378565b8181036060830152611478818a6112dc565b9050818103608083015261148c81896112dc565b905081810360a08301526114a081886112dc565b90506114af60c0830187611391565b6114bc60e08301866113b0565b6114ca6101008301856113b0565b6114d8610120830184611427565b9b9a5050505050505050505050565b60006020820190506114fc6000830184611391565b92915050565b61150b81611366565b811461151657600080fd5b50565b60008135905061152881611502565b92915050565b600080fd5b600080fd5b7f4e487b7100000000000000000000000000000000000000000000000000000000600052604160045260246000fd5b611570826112cb565b810181811067ffffffffffffffff8211171561158f5761158e611538565b5b80604052505050565b60006115a2611205565b90506115ae8282611567565b919050565b600067ffffffffffffffff8211156115ce576115cd611538565b5b6115d7826112cb565b9050602081019050919050565b82818337600083830152505050565b6000611606611601846115b3565b611598565b90508281526020810184848401111561162257611621611533565b5b61162d8482856115e4565b509392505050565b600082601f83011261164a5761164961152e565b5b813561165a8482602086016115f3565b91505092915050565b61166c816113a0565b811461167757600080fd5b50565b60008135905061168981611663565b92915050565b60008060008060008060c087890312156116ac576116ab61120f565b5b60006116ba89828a01611519565b965050602087013567ffffffffffffffff8111156116db576116da611214565b5b6116e789828a01611635565b955050604087013567ffffffffffffffff81111561170857611707611214565b5b61171489828a01611635565b945050606087013567ffffffffffffffff81111561173557611734611214565b5b61174189828a01611635565b935050608087013567ffffffffffffffff81111561176257611761611214565b5b61176e89828a01611635565b92505060a061177f89828a0161167a565b9150509295509295509295565b60006020820190506117a16000830184611337565b92915050565b60006117b282611346565b9050919050565b6117c2816117a7565b82525050565b60006020820190506117dd60008301846117b9565b92915050565b60006020820190506117f860008301846113b0565b92915050565b60008115159050919050565b611813816117fe565b82525050565b600060208201905061182e600083018461180a565b92915050565b6000806040838503121561184b5761184a61120f565b5b60006118598582860161123a565b925050602061186a85828601611519565b9150509250929050565b60006020828403121561188a5761188961120f565b5b600061189884828501611519565b91505092915050565b600080604083850312156118b8576118b761120f565b5b60006118c68582860161123a565b925050602083013567ffffffffffffffff8111156118e7576118e6611214565b5b6118f385828601611635565b9150509250929050565b7f4e487b7100000000000000000000000000000000000000000000000000000000600052603260045260246000fd5b7f4e487b7100000000000000000000000000000000000000000000000000000000600052602260045260246000fd5b6000600282049050600182168061197357607f821691505b6020821081036119865761198561192c565b5b50919050565b60008190508160005260206000209050919050565b60006020601f8301049050919050565b600082821b905092915050565b6000600883026119ee7fffffffffffffffffffffffffffffffffffffffffffffffffffffffffffffffff826119b1565b6119f886836119b1565b95508019841693508086168417925050509392505050565b6000819050919050565b6000611a35611a30611a2b84611219565b611a10565b611219565b9050919050565b6000819050919050565b611a4f83611a1a565b611a63611a5b82611a3c565b8484546119be565b825550505050565b600090565b611a78611a6b565b611a83818484611a46565b505050565b5b81811015611aa757611a9c600082611a70565b600181019050611a89565b5050565b601f821115611aec57611abd8161198c565b611ac6846119a1565b81016020851015611ad5578190505b611ae9611ae1856119a1565b830182611a88565b50505b505050565b600082821c905092915050565b6000611b0f60001984600802611af1565b1980831691505092915050565b6000611b288383611afe565b9150826002028217905092915050565b611b418261127c565b67ffffffffffffffff811115611b5a57611b59611538565b5b611b64825461195b565b611b6f828285611aab565b600060209050601f831160018114611ba25760008415611b90578287015190505b611b9a8582611b1c565b865550611c02565b601f198416611bb08661198c565b60005b82811015611bd857848901518255600182019150602085019450602081019050611bb3565b86831015611bf55784890151611bf1601f891682611afe565b8355505b6001600288020188555050505b505050505050565b600082825260208201905092915050565b7f50454e44494e4700000000000000000000000000000000000000000000000000600082015250565b6000611c51600783611c0a565b9150611c5c82611c1b565b602082019050919050565b6000604082019050611c7c6000830184611427565b8181036020830152611c8d81611c44565b905092915050565b600081905092915050565b6000611cab8261127c565b611cb58185611c95565b9350611cc5818560208601611298565b80840191505092915050565b6000611cdd8285611ca0565b9150611ce98284611ca0565b91508190509392505050565b7f4e487b7100000000000000000000000000000000000000000000000000000000600052601160045260246000fd5b6000611d2f82611219565b91507fffffffffffffffffffffffffffffffffffffffffffffffffffffffffffffffff8203611d6157611d60611cf5565b5b600182019050919050565b60008154611d798161195b565b611d838186611287565b94506001821660008114611d9e5760018114611db457611de7565b60ff198316865281151560200286019350611de7565b611dbd8561198c565b60005b83811015611ddf57815481890152600182019150602081019050611dc0565b808801955050505b50505092915050565b6000604082019050611e056000830185611337565b8181036020830152611e178184611d6c565b90509392505050565b7f57656c636f6d65206e6577206e6f646521000000000000000000000000000000600082015250565b6000611e56601183611c0a565b9150611e6182611e20565b602082019050919050565b6000604082019050611e816000830184611378565b8181036020830152611e9281611e49565b905092915050565b6000611ea5826113a0565b915063ffffffff8203611ebb57611eba611cf5565b5b600182019050919050565b6000602082019050611edb6000830184611378565b92915050565b6000606082019050611ef66000830186611337565b8181036020830152611f088185611d6c565b90508181036040830152611f1c8184611d6c565b9050949350505050565b7f4e6f646520686173206c6566742c20476f6f6462796500000000000000000000600082015250565b6000611f5c601683611c0a565b9150611f6782611f26565b602082019050919050565b6000604082019050611f876000830184611378565b8181036020830152611f9881611f4f565b905092915050565b7f434f4d504c455445000000000000000000000000000000000000000000000000600082015250565b6000611fd6600883611c0a565b9150611fe182611fa0565b602082019050919050565b60006040820190506120016000830184611427565b818103602083015261201281611fc9565b90509291505056fea26469706673582212203f8cc867d3aa199d9b14f89293c04c966324f46c431d85a2ec33778b9344d73364736f6c634300080f0033",
  "immutableReferences": {},
  "source": "// SPDX-License-Identifier: MIT\npragma solidity ^0.8.0;\n\n\ncontract OracleRequesterContract {\n    //\n\n    address payable public owner;\n\n    Request[100] public requests;\n    mapping (address => bool) public oracles;\n    uint requestCounter = 1;\n    uint pendingCounter = 1;\n    enum Status{NOTSSTARTED, PENDING, COMPLETE}\n    // a single Request structure\n    struct Request {\n        uint256 requestID;\n        address requester;\n        address callbackAddress;\n        bytes callbackFID;\n        bytes IoTID;\n        bytes dataType;\n        bytes32 pHash;\n        //bytes requiredResult;\n        uint32 numberOfOracles;\n        mapping (address => bool) oraclesForRequest;\n        uint32 oracleCounter;\n        Status status;\n    }\n\n    event OpenForBids(uint256, bytes);\n    event BidPlaced(address);\n    event ReleaseRequestDetails(uint256, bytes, bytes);\n    event StatusChange(Status, string);\n    event OracleJoined(address, string);\n    event OracleLeft(address, string);\n\n    constructor() {\n        owner = payable(msg.sender);\n\n    }\n\n    fallback() external{}\n\n    function joinAsOracle() public oracleNotJoined() returns(bool){\n        oracles[address(msg.sender)] = true;\n        emit OracleJoined(msg.sender, \"Welcome new node!\");\n        return oracles[address(msg.sender)];\n    }\n\n    function leaveOracleNetwork() public oracleHasJoined() returns(bool) {\n        delete oracles[msg.sender];\n        emit OracleLeft(msg.sender, \"Node has left, Goodbye\");\n        return true;\n    }\n\n    // @notice user can call function create request\n    // @dev\n    // @param _callbackAddress could be different to address that called the function\n    // @param _callbackFID a particular function in a smart contract that is needed to be called based on request\n    // @param _IoTID the identifier of the IoT device oracle node will be subscribing to\n    // @param _dataType, true false answer, an event, continuous data over time?\n    // @param _requiredResult what is needed from IoT device\n    // @param _numberOfOracles number of oracle nodes that fetch IoT data\n    // @return the requestID so the user can keep track of request\n    function createRequest(\n        address _callbackAddress,\n        bytes memory _callbackFID,\n        bytes memory _IoTID,\n        bytes memory _dataType,\n        bytes memory _requiredResult,\n        uint32 _numberOfOracles) public returns(uint256) {\n        // assign id to request\n        uint256 requestID = requestCounter;\n        // log details of the request to array to cross reference later\n        requests[requestID].requestID = requestID;\n        requests[requestID].requester = msg.sender;\n        requests[requestID].callbackAddress = _callbackAddress;\n        requests[requestID].callbackFID = _callbackFID;\n        requests[requestID].IoTID = _IoTID;\n        requests[requestID].dataType = _dataType;\n        //requests[requestId].requiredResult = _requiredResult; // do not need to store result put in a hash?\n        requests[requestID].numberOfOracles = _numberOfOracles;\n        requests[requestID].oracleCounter = 0;\n        requests[requestID].status = Status.PENDING;\n        emit StatusChange(requests[requestID].status, \"PENDING\");\n\n\n        // create a hash of the _dataType and _requiredResult:\n        // we will use the actual result to test upon delivery.\n        bytes32 phash = keccak256(abi.encodePacked(_dataType, _requiredResult)); // add required result to hash\n        requests[requestID].pHash = phash;\n        // increment requestId ready for next create request function.\n\n        requestCounter++;\n\n        emit OpenForBids(requestID, requests[requestID].dataType);\n\n        return requestID;\n    }\n\n    // @notice off-chain oracle node places bid to fetch data, once threshold is reached, emits event details.\n    // @dev\n    // @param requestId oracle node wishes to bid on\n    // @return true to indicate bid successful\n    function placeBid(uint256 _requestID) public oracleHasJoined() returns(bool)  {\n        require(requests[_requestID].oracleCounter < requests[_requestID].numberOfOracles);\n        requests[_requestID].oraclesForRequest[msg.sender] = true;\n        requests[_requestID].oracleCounter++;\n        // also add a timeout\n        emit BidPlaced(msg.sender);\n        if (requests[_requestID].numberOfOracles == requests[_requestID].oracleCounter) {\n            emit ReleaseRequestDetails(requests[_requestID].requestID,\n                requests[_requestID].IoTID,\n                requests[_requestID].dataType);\n            return true;\n        }\n        return oracles[msg.sender];\n    }\n\n    //\n\n    // function deliveryResponse() {} returns result to user smart contract\n    function deliverResponse(uint256 _requestID, bytes memory _finalResult) public {\n        // return single aggregation result\n        _finalResult;\n        requests[_requestID].status = Status.COMPLETE;\n    emit StatusChange(requests[_requestID].status, \"COMPLETE\");\n    }\n\n    function cancelRequest(uint256 _requestID) external cancelCheck(_requestID){\n        delete requests[_requestID];\n        requestCounter = 1;\n\n    }\n\n    // getters\n    function getOracleForRequest(uint256 _requestID, address _orcAddr) external view returns(bool){\n        return requests[_requestID].oraclesForRequest[_orcAddr];\n    }\n    function getNumberOfOracles(uint256 _requestID) external view returns(uint32){\n        return requests[_requestID].numberOfOracles;\n    }\n    function getPHash(uint256 _requestID) external view returns(bytes32){\n        return requests[_requestID].pHash;\n    }\n    function getDataType(uint256 _requestID) external view returns(bytes memory) {\n        return requests[_requestID].dataType;\n    }\n\n    // @notice modifier to confirm calling address is an oracle node address already acknowledged\n    modifier oracleHasJoined() {\n        require(oracles[msg.sender] == true);\n        _;\n    }\n    // @notice modifier to confirm calling address is not yet an oracle node address acknowledged\n    modifier oracleNotJoined() {\n        require(oracles[msg.sender] != true);\n        _;\n    }\n    //\n    modifier cancelCheck(uint256 _requestID) {\n        require(requests[_requestID].callbackAddress == msg.sender);\n        _;\n    }\n}\n",
  "sourcePath": "/home/willp/Documents/MSc_Computer_Science/PROJECT/Research_Code/july22_projectcode/IoToracle/contracts/OracleRequesterContract.sol",
  "compiler": {
    "name": "solc",
    "version": "0.8.15+commit.e14f2714.Emscripten.clang"
  },
  "schemaVersion": "3.4.8",
  "updatedAt": "2022-07-22T21:55:06.340Z",
  "networkType": "ethereum",
  "devdoc": {
    "kind": "dev",
    "methods": {},
    "version": 1
  },
  "userdoc": {
    "kind": "user",
    "methods": {},
    "version": 1
  }
}