{
  "contractName": "OracleRequestContract",
  "abi": [
    {
      "inputs": [],
      "stateMutability": "nonpayable",
      "type": "constructor"
    },
    {
      "anonymous": false,
      "inputs": [
        {
          "indexed": false,
          "internalType": "address",
          "name": "",
          "type": "address"
        }
      ],
      "name": "BidPlaced",
      "type": "event"
    },
    {
      "anonymous": false,
      "inputs": [
        {
          "indexed": false,
          "internalType": "int256",
          "name": "",
          "type": "int256"
        },
        {
          "indexed": false,
          "internalType": "string",
          "name": "",
          "type": "string"
        }
      ],
      "name": "FinalInt",
      "type": "event"
    },
    {
      "anonymous": false,
      "inputs": [
        {
          "indexed": false,
          "internalType": "bool",
          "name": "",
          "type": "bool"
        },
        {
          "indexed": false,
          "internalType": "string",
          "name": "",
          "type": "string"
        }
      ],
      "name": "FinalResultLog",
      "type": "event"
    },
    {
      "anonymous": false,
      "inputs": [
        {
          "indexed": false,
          "internalType": "string",
          "name": "",
          "type": "string"
        }
      ],
      "name": "Logging",
      "type": "event"
    },
    {
      "anonymous": false,
      "inputs": [
        {
          "indexed": false,
          "internalType": "uint256",
          "name": "",
          "type": "uint256"
        },
        {
          "indexed": false,
          "internalType": "bytes",
          "name": "",
          "type": "bytes"
        },
        {
          "indexed": false,
          "internalType": "uint256",
          "name": "",
          "type": "uint256"
        },
        {
          "indexed": false,
          "internalType": "uint256",
          "name": "",
          "type": "uint256"
        },
        {
          "indexed": false,
          "internalType": "uint256",
          "name": "",
          "type": "uint256"
        }
      ],
      "name": "OpenForBids",
      "type": "event"
    },
    {
      "anonymous": false,
      "inputs": [
        {
          "indexed": false,
          "internalType": "address",
          "name": "",
          "type": "address"
        },
        {
          "indexed": false,
          "internalType": "string",
          "name": "",
          "type": "string"
        }
      ],
      "name": "OracleJoined",
      "type": "event"
    },
    {
      "anonymous": false,
      "inputs": [
        {
          "indexed": false,
          "internalType": "address",
          "name": "",
          "type": "address"
        },
        {
          "indexed": false,
          "internalType": "string",
          "name": "",
          "type": "string"
        }
      ],
      "name": "OracleLeft",
      "type": "event"
    },
    {
      "anonymous": false,
      "inputs": [
        {
          "indexed": false,
          "internalType": "address",
          "name": "",
          "type": "address"
        },
        {
          "indexed": false,
          "internalType": "uint256",
          "name": "",
          "type": "uint256"
        },
        {
          "indexed": false,
          "internalType": "string",
          "name": "",
          "type": "string"
        }
      ],
      "name": "OraclePaid",
      "type": "event"
    },
    {
      "anonymous": false,
      "inputs": [
        {
          "indexed": false,
          "internalType": "uint256",
          "name": "",
          "type": "uint256"
        },
        {
          "indexed": false,
          "internalType": "bytes",
          "name": "",
          "type": "bytes"
        },
        {
          "indexed": false,
          "internalType": "bytes",
          "name": "",
          "type": "bytes"
        }
      ],
      "name": "ReleaseRequestDetails",
      "type": "event"
    },
    {
      "anonymous": false,
      "inputs": [
        {
          "indexed": false,
          "internalType": "enum OracleRequestContract.Status",
          "name": "",
          "type": "uint8"
        },
        {
          "indexed": false,
          "internalType": "string",
          "name": "",
          "type": "string"
        }
      ],
      "name": "StatusChange",
      "type": "event"
    },
    {
      "anonymous": false,
      "inputs": [
        {
          "indexed": false,
          "internalType": "uint256",
          "name": "",
          "type": "uint256"
        },
        {
          "indexed": false,
          "internalType": "uint256",
          "name": "",
          "type": "uint256"
        }
      ],
      "name": "UpdateTimestamp",
      "type": "event"
    },
    {
      "stateMutability": "nonpayable",
      "type": "fallback"
    },
    {
      "inputs": [],
      "name": "aggregatorAddr",
      "outputs": [
        {
          "internalType": "address",
          "name": "",
          "type": "address"
        }
      ],
      "stateMutability": "view",
      "type": "function",
      "constant": true
    },
    {
      "inputs": [
        {
          "internalType": "address",
          "name": "",
          "type": "address"
        }
      ],
      "name": "blacklistedOracles",
      "outputs": [
        {
          "internalType": "bool",
          "name": "",
          "type": "bool"
        }
      ],
      "stateMutability": "view",
      "type": "function",
      "constant": true
    },
    {
      "inputs": [
        {
          "internalType": "uint256",
          "name": "",
          "type": "uint256"
        }
      ],
      "name": "completedRequests",
      "outputs": [
        {
          "internalType": "bool",
          "name": "",
          "type": "bool"
        }
      ],
      "stateMutability": "view",
      "type": "function",
      "constant": true
    },
    {
      "inputs": [
        {
          "internalType": "address",
          "name": "",
          "type": "address"
        }
      ],
      "name": "oracles",
      "outputs": [
        {
          "internalType": "bool",
          "name": "",
          "type": "bool"
        }
      ],
      "stateMutability": "view",
      "type": "function",
      "constant": true
    },
    {
      "inputs": [],
      "name": "owner",
      "outputs": [
        {
          "internalType": "address",
          "name": "",
          "type": "address"
        }
      ],
      "stateMutability": "view",
      "type": "function",
      "constant": true
    },
    {
      "inputs": [],
      "name": "reputationAddr",
      "outputs": [
        {
          "internalType": "address",
          "name": "",
          "type": "address"
        }
      ],
      "stateMutability": "view",
      "type": "function",
      "constant": true
    },
    {
      "inputs": [
        {
          "internalType": "uint256",
          "name": "",
          "type": "uint256"
        }
      ],
      "name": "requests",
      "outputs": [
        {
          "internalType": "uint256",
          "name": "requestID",
          "type": "uint256"
        },
        {
          "internalType": "address",
          "name": "requester",
          "type": "address"
        },
        {
          "internalType": "address",
          "name": "callbackAddress",
          "type": "address"
        },
        {
          "internalType": "bytes",
          "name": "callbackFID",
          "type": "bytes"
        },
        {
          "internalType": "bytes",
          "name": "IoTID",
          "type": "bytes"
        },
        {
          "internalType": "bytes",
          "name": "dataType",
          "type": "bytes"
        },
        {
          "internalType": "uint32",
          "name": "numberOfOracles",
          "type": "uint32"
        },
        {
          "internalType": "uint256",
          "name": "aggregationType",
          "type": "uint256"
        },
        {
          "internalType": "uint32",
          "name": "oracleCounter",
          "type": "uint32"
        },
        {
          "internalType": "enum OracleRequestContract.Status",
          "name": "status",
          "type": "uint8"
        },
        {
          "internalType": "uint8",
          "name": "cancelFlag",
          "type": "uint8"
        },
        {
          "internalType": "uint256",
          "name": "fee",
          "type": "uint256"
        }
      ],
      "stateMutability": "view",
      "type": "function",
      "constant": true
    },
    {
      "inputs": [
        {
          "internalType": "address",
          "name": "",
          "type": "address"
        }
      ],
      "name": "stakeBalance",
      "outputs": [
        {
          "internalType": "uint256",
          "name": "",
          "type": "uint256"
        }
      ],
      "stateMutability": "view",
      "type": "function",
      "constant": true
    },
    {
      "inputs": [
        {
          "internalType": "uint256",
          "name": "",
          "type": "uint256"
        }
      ],
      "name": "timings",
      "outputs": [
        {
          "internalType": "uint256",
          "name": "appealFlag",
          "type": "uint256"
        },
        {
          "internalType": "uint256",
          "name": "timestamp",
          "type": "uint256"
        },
        {
          "internalType": "uint256",
          "name": "elapsedTime",
          "type": "uint256"
        }
      ],
      "stateMutability": "view",
      "type": "function",
      "constant": true
    },
    {
      "inputs": [],
      "name": "joinAsOracle",
      "outputs": [
        {
          "internalType": "bool",
          "name": "",
          "type": "bool"
        }
      ],
      "stateMutability": "payable",
      "type": "function",
      "payable": true
    },
    {
      "inputs": [],
      "name": "leaveOracleNetwork",
      "outputs": [
        {
          "internalType": "bool",
          "name": "",
          "type": "bool"
        }
      ],
      "stateMutability": "nonpayable",
      "type": "function"
    },
    {
      "inputs": [
        {
          "internalType": "address",
          "name": "_callbackAddress",
          "type": "address"
        },
        {
          "internalType": "bytes",
          "name": "_callbackFID",
          "type": "bytes"
        },
        {
          "internalType": "bytes",
          "name": "_IoTID",
          "type": "bytes"
        },
        {
          "internalType": "bytes",
          "name": "_dataType",
          "type": "bytes"
        },
        {
          "internalType": "uint256",
          "name": "_aggregationType",
          "type": "uint256"
        },
        {
          "internalType": "uint32",
          "name": "_numberOfOracles",
          "type": "uint32"
        },
        {
          "internalType": "uint256",
          "name": "_elapsedTime",
          "type": "uint256"
        }
      ],
      "name": "createRequest",
      "outputs": [
        {
          "internalType": "uint256",
          "name": "",
          "type": "uint256"
        }
      ],
      "stateMutability": "payable",
      "type": "function",
      "payable": true
    },
    {
      "inputs": [
        {
          "internalType": "uint256",
          "name": "_requestID",
          "type": "uint256"
        }
      ],
      "name": "timeoutCommitsAppeal",
      "outputs": [],
      "stateMutability": "nonpayable",
      "type": "function"
    },
    {
      "inputs": [
        {
          "internalType": "uint256",
          "name": "_requestID",
          "type": "uint256"
        }
      ],
      "name": "timeoutRevealsAppeal",
      "outputs": [],
      "stateMutability": "nonpayable",
      "type": "function"
    },
    {
      "inputs": [
        {
          "internalType": "uint256",
          "name": "_requestID",
          "type": "uint256"
        }
      ],
      "name": "placeBid",
      "outputs": [
        {
          "internalType": "bool",
          "name": "",
          "type": "bool"
        }
      ],
      "stateMutability": "nonpayable",
      "type": "function"
    },
    {
      "inputs": [
        {
          "internalType": "uint256",
          "name": "_requestID",
          "type": "uint256"
        },
        {
          "internalType": "bool",
          "name": "_finalResult",
          "type": "bool"
        },
        {
          "internalType": "address[]",
          "name": "_correctOracles",
          "type": "address[]"
        },
        {
          "internalType": "address[]",
          "name": "_incorrectOracles",
          "type": "address[]"
        },
        {
          "internalType": "address[]",
          "name": "_incorrectRevealOracles",
          "type": "address[]"
        }
      ],
      "name": "deliverVoteResponse",
      "outputs": [
        {
          "internalType": "bool",
          "name": "",
          "type": "bool"
        }
      ],
      "stateMutability": "nonpayable",
      "type": "function"
    },
    {
      "inputs": [
        {
          "internalType": "uint256",
          "name": "_requestID",
          "type": "uint256"
        },
        {
          "internalType": "int256",
          "name": "_finalResult",
          "type": "int256"
        },
        {
          "internalType": "address[]",
          "name": "_correctOracles",
          "type": "address[]"
        },
        {
          "internalType": "address[]",
          "name": "_incorrectOracles",
          "type": "address[]"
        }
      ],
      "name": "deliverAverageResponse",
      "outputs": [
        {
          "internalType": "bool",
          "name": "",
          "type": "bool"
        }
      ],
      "stateMutability": "nonpayable",
      "type": "function"
    },
    {
      "inputs": [
        {
          "internalType": "uint256",
          "name": "_requestID",
          "type": "uint256"
        }
      ],
      "name": "cancelRequest",
      "outputs": [
        {
          "internalType": "bool",
          "name": "",
          "type": "bool"
        }
      ],
      "stateMutability": "nonpayable",
      "type": "function"
    },
    {
      "inputs": [
        {
          "internalType": "uint256",
          "name": "_requestID",
          "type": "uint256"
        },
        {
          "internalType": "address[]",
          "name": "_incorrectOracleReveals",
          "type": "address[]"
        }
      ],
      "name": "cancelRequestDueToDeadlock",
      "outputs": [
        {
          "internalType": "bool",
          "name": "",
          "type": "bool"
        }
      ],
      "stateMutability": "nonpayable",
      "type": "function"
    },
    {
      "inputs": [
        {
          "internalType": "address",
          "name": "_addr",
          "type": "address"
        }
      ],
      "name": "blacklistOracle",
      "outputs": [
        {
          "internalType": "bool",
          "name": "",
          "type": "bool"
        }
      ],
      "stateMutability": "nonpayable",
      "type": "function"
    },
    {
      "inputs": [
        {
          "internalType": "address",
          "name": "_aggAddr",
          "type": "address"
        }
      ],
      "name": "setAggregatorContract",
      "outputs": [
        {
          "internalType": "bool",
          "name": "",
          "type": "bool"
        }
      ],
      "stateMutability": "nonpayable",
      "type": "function"
    },
    {
      "inputs": [
        {
          "internalType": "address",
          "name": "_repAddr",
          "type": "address"
        }
      ],
      "name": "setReputationContract",
      "outputs": [
        {
          "internalType": "bool",
          "name": "",
          "type": "bool"
        }
      ],
      "stateMutability": "nonpayable",
      "type": "function"
    },
    {
      "inputs": [
        {
          "internalType": "uint256",
          "name": "_requestID",
          "type": "uint256"
        },
        {
          "internalType": "address",
          "name": "_orcAddr",
          "type": "address"
        }
      ],
      "name": "getOracleForRequest",
      "outputs": [
        {
          "internalType": "bool",
          "name": "",
          "type": "bool"
        }
      ],
      "stateMutability": "view",
      "type": "function",
      "constant": true
    },
    {
      "inputs": [
        {
          "internalType": "uint256",
          "name": "_requestID",
          "type": "uint256"
        }
      ],
      "name": "getNumberOfOracles",
      "outputs": [
        {
          "internalType": "uint32",
          "name": "",
          "type": "uint32"
        }
      ],
      "stateMutability": "view",
      "type": "function",
      "constant": true
    },
    {
      "inputs": [
        {
          "internalType": "uint256",
          "name": "_requestID",
          "type": "uint256"
        }
      ],
      "name": "getDataType",
      "outputs": [
        {
          "internalType": "bytes",
          "name": "",
          "type": "bytes"
        }
      ],
      "stateMutability": "view",
      "type": "function",
      "constant": true
    },
    {
      "inputs": [
        {
          "internalType": "address",
          "name": "_addr",
          "type": "address"
        }
      ],
      "name": "getBlacklistedOracle",
      "outputs": [
        {
          "internalType": "bool",
          "name": "",
          "type": "bool"
        }
      ],
      "stateMutability": "view",
      "type": "function",
      "constant": true
    },
    {
      "inputs": [
        {
          "internalType": "uint256",
          "name": "_requestID",
          "type": "uint256"
        }
      ],
      "name": "getAggregationType",
      "outputs": [
        {
          "internalType": "uint256",
          "name": "",
          "type": "uint256"
        }
      ],
      "stateMutability": "view",
      "type": "function",
      "constant": true
    }
  ],
  "bytecode": "0x608060405260016104b65560016104b7556404a817c80061064c55600361064c546200002c9190620000e3565b61064d55600561064c54620000429190620000e3565b61064d5462000052919062000144565b61064e553480156200006357600080fd5b50336000806101000a81548173ffffffffffffffffffffffffffffffffffffffff021916908373ffffffffffffffffffffffffffffffffffffffff160217905550620001a1565b6000819050919050565b7f4e487b7100000000000000000000000000000000000000000000000000000000600052601160045260246000fd5b6000620000f082620000aa565b9150620000fd83620000aa565b9250817fffffffffffffffffffffffffffffffffffffffffffffffffffffffffffffffff0483118215151615620001395762000138620000b4565b5b828202905092915050565b60006200015182620000aa565b91506200015e83620000aa565b9250827fffffffffffffffffffffffffffffffffffffffffffffffffffffffffffffffff03821115620001965762000195620000b4565b5b828201905092915050565b614d7380620001b16000396000f3fe6080604052600436106101a05760003560e01c80638da5cb5b116100ec578063a08702f31161008a578063d175a47f11610064578063d175a47f146106af578063e4888222146106d8578063eee5a59614610715578063f0fbfbf314610752576101a1565b8063a08702f31461060a578063a37b354d14610635578063addd509914610672576101a1565b80639584660f116100c65780639584660f146105145780639610f691146105515780639967cf60146105905780639979ef45146105cd576101a1565b80638da5cb5b1461048e57806391a3632a146104b9578063950e1da9146104f6576101a1565b806357442e79116101595780637d02da09116101335780637d02da09146103b557806381d12c58146103f2578063827626001461043a5780638394d49e14610465576101a1565b806357442e79146102fe57806358621b7a1461033b5780636fbf797314610378576101a1565b8063053ebc9a146101af5780633015394c146101da578063301f1dbd1461021757806330407ad914610247578063498d7df0146102845780634e7c57a6146102c1576101a1565b5b3480156101ad57600080fd5b005b3480156101bb57600080fd5b506101c461078f565b6040516101d191906137f9565b60405180910390f35b3480156101e657600080fd5b5061020160048036038101906101fc919061385e565b6107b5565b60405161020e91906138a6565b60405180910390f35b610231600480360381019061022c9190613a6f565b6109e6565b60405161023e9190613b74565b60405180910390f35b34801561025357600080fd5b5061026e60048036038101906102699190613c83565b610e46565b60405161027b91906138a6565b60405180910390f35b34801561029057600080fd5b506102ab60048036038101906102a69190613d52565b6114d7565b6040516102b891906138a6565b60405180910390f35b3480156102cd57600080fd5b506102e860048036038101906102e39190613dae565b6118f1565b6040516102f59190613b74565b60405180910390f35b34801561030a57600080fd5b506103256004803603810190610320919061385e565b61190a565b6040516103329190613e63565b60405180910390f35b34801561034757600080fd5b50610362600480360381019061035d9190613ebb565b611a11565b60405161036f91906138a6565b60405180910390f35b34801561038457600080fd5b5061039f600480360381019061039a9190613dae565b611d0d565b6040516103ac91906138a6565b60405180910390f35b3480156103c157600080fd5b506103dc60048036038101906103d79190613dae565b611d64565b6040516103e991906138a6565b60405180910390f35b3480156103fe57600080fd5b506104196004803603810190610414919061385e565b611d85565b6040516104319c9b9a99989796959493929190613ffc565b60405180910390f35b34801561044657600080fd5b5061044f611ffd565b60405161045c91906137f9565b60405180910390f35b34801561047157600080fd5b5061048c6004803603810190610487919061385e565b612023565b005b34801561049a57600080fd5b506104a3612479565b6040516104b091906137f9565b60405180910390f35b3480156104c557600080fd5b506104e060048036038101906104db919061385e565b61249d565b6040516104ed91906140cb565b60405180910390f35b6104fe61252c565b60405161050b91906138a6565b60405180910390f35b34801561052057600080fd5b5061053b60048036038101906105369190613dae565b6127c6565b60405161054891906138a6565b60405180910390f35b34801561055d57600080fd5b506105786004803603810190610573919061385e565b61286b565b604051610587939291906140e6565b60405180910390f35b34801561059c57600080fd5b506105b760048036038101906105b29190613dae565b61289c565b6040516105c491906138a6565b60405180910390f35b3480156105d957600080fd5b506105f460048036038101906105ef919061385e565b612941565b60405161060191906138a6565b60405180910390f35b34801561061657600080fd5b5061061f612da0565b60405161062c91906138a6565b60405180910390f35b34801561064157600080fd5b5061065c6004803603810190610657919061411d565b613105565b60405161066991906138a6565b60405180910390f35b34801561067e57600080fd5b5061069960048036038101906106949190613dae565b6131cf565b6040516106a691906138a6565b60405180910390f35b3480156106bb57600080fd5b506106d660048036038101906106d1919061385e565b6131f0565b005b3480156106e457600080fd5b506106ff60048036038101906106fa919061385e565b613604565b60405161070c9190613b74565b60405180910390f35b34801561072157600080fd5b5061073c60048036038101906107379190613dae565b613683565b60405161074991906138a6565b60405180910390f35b34801561075e57600080fd5b506107796004803603810190610774919061385e565b61378d565b60405161078691906138a6565b60405180910390f35b600260009054906101000a900473ffffffffffffffffffffffffffffffffffffffff1681565b600081600381606481106107cc576107cb61415d565b5b600c020160010160009054906101000a900473ffffffffffffffffffffffffffffffffffffffff1673ffffffffffffffffffffffffffffffffffffffff163373ffffffffffffffffffffffffffffffffffffffff161461082b57600080fd5b826000600382606481106108425761084161415d565b5b600c0201600a0160059054906101000a900460ff1660ff161461086457600080fd5b60016003856064811061087a5761087961415d565b5b600c0201600a0160056101000a81548160ff021916908360ff1602179055506002600385606481106108af576108ae61415d565b5b600c0201600a0160046101000a81548160ff021916908360028111156108d8576108d7613f69565b5b02179055507f346e0fa9e112a7376778dcb0fe0fdfe51db577b3d0b1592a40266db0b192f822600385606481106109125761091161415d565b5b600c0201600a0160049054906101000a900460ff1660405161093491906141e9565b60405180910390a1600160009054906101000a900473ffffffffffffffffffffffffffffffffffffffff1673ffffffffffffffffffffffffffffffffffffffff16633015394c856040518263ffffffff1660e01b81526004016109979190613b74565b6020604051808303816000875af11580156109b6573d6000803e3d6000fd5b505050506040513d601f19601f820116820180604052508101906109da919061422c565b50600192505050919050565b600061064e543410156109f857600080fd5b826000600282610a089190614288565b63ffffffff1603610a1857600080fd5b848060011480610a285750600281145b610a3157600080fd5b60006104b6549050426104bc8260648110610a4f57610a4e61415d565b5b6004020160010181905550846104bc8260648110610a7057610a6f61415d565b5b60040201600201819055508060038260648110610a9057610a8f61415d565b5b600c0201600001819055503360038260648110610ab057610aaf61415d565b5b600c020160010160006101000a81548173ffffffffffffffffffffffffffffffffffffffff021916908373ffffffffffffffffffffffffffffffffffffffff1602179055508a60038260648110610b0a57610b0961415d565b5b600c020160020160006101000a81548173ffffffffffffffffffffffffffffffffffffffff021916908373ffffffffffffffffffffffffffffffffffffffff1602179055508960038260648110610b6457610b6361415d565b5b600c02016003019081610b7791906144c5565b508860038260648110610b8d57610b8c61415d565b5b600c02016004019081610ba091906144c5565b508760038260648110610bb657610bb561415d565b5b600c02016005019081610bc991906144c5565b508560038260648110610bdf57610bde61415d565b5b600c020160060160006101000a81548163ffffffff021916908363ffffffff160217905550600060038260648110610c1a57610c1961415d565b5b600c0201600a0160006101000a81548163ffffffff021916908363ffffffff160217905550600060038260648110610c5557610c5461415d565b5b600c0201600a0160046101000a81548160ff02191690836002811115610c7e57610c7d613f69565b5b0217905550600060038260648110610c9957610c9861415d565b5b600c0201600a0160056101000a81548160ff021916908360ff1602179055503460038260648110610ccd57610ccc61415d565b5b600c0201600b01819055508660038260648110610ced57610cec61415d565b5b600c0201600901819055507f346e0fa9e112a7376778dcb0fe0fdfe51db577b3d0b1592a40266db0b192f82260038260648110610d2d57610d2c61415d565b5b600c0201600a0160049054906101000a900460ff16604051610d4f91906145e3565b60405180910390a16104b66000815480929190610d6b90614640565b91905055506104b76000815480929190610d8490614640565b91905055507f45467d61e6f35d1866a79e0828e55247a1cbdbd929532d73c56d73ae64cfe83a8160038360648110610dbf57610dbe61415d565b5b600c020160050160038460648110610dda57610dd961415d565b5b600c0201600901546104bc8560648110610df757610df661415d565b5b60040201600101546104bc8660648110610e1457610e1361415d565b5b6004020160020154604051610e2d95949392919061470c565b60405180910390a1809350505050979650505050505050565b600085600060038260648110610e5f57610e5e61415d565b5b600c0201600a0160059054906101000a900460ff1660ff1614610e8157600080fd5b600160009054906101000a900473ffffffffffffffffffffffffffffffffffffffff1673ffffffffffffffffffffffffffffffffffffffff163373ffffffffffffffffffffffffffffffffffffffff1614610edb57600080fd5b7f5286d5a6d3a87f8e130652b705a8d0ec84042e834444bd00313a08d13a38475586604051610f0a91906147b2565b60405180910390a16000805b8551811015611125576000600260009054906101000a900473ffffffffffffffffffffffffffffffffffffffff1673ffffffffffffffffffffffffffffffffffffffff1663b8f9c2a1888481518110610f7257610f7161415d565b5b60200260200101516040518263ffffffff1660e01b8152600401610f9691906137f9565b602060405180830381865afa158015610fb3573d6000803e3d6000fd5b505050506040513d601f19601f82011682018060405250810190610fd791906147f5565b9050806104b56000898581518110610ff257610ff161415d565b5b602002602001015173ffffffffffffffffffffffffffffffffffffffff1673ffffffffffffffffffffffffffffffffffffffff16815260200190815260200160002060008282546110439190614822565b9250508190555080836110569190614856565b9250600260009054906101000a900473ffffffffffffffffffffffffffffffffffffffff1673ffffffffffffffffffffffffffffffffffffffff166318b529c38884815181106110a9576110a861415d565b5b60200260200101516040518263ffffffff1660e01b81526004016110cd91906137f9565b6020604051808303816000875af11580156110ec573d6000803e3d6000fd5b505050506040513d601f19601f8201168201806040525081019061111091906147f5565b5050808061111d90614640565b915050610f16565b5060005b845181101561127f576000600260009054906101000a900473ffffffffffffffffffffffffffffffffffffffff1673ffffffffffffffffffffffffffffffffffffffff1663b8f9c2a18884815181106111855761118461415d565b5b60200260200101516040518263ffffffff1660e01b81526004016111a991906137f9565b602060405180830381865afa1580156111c6573d6000803e3d6000fd5b505050506040513d601f19601f820116820180604052508101906111ea91906147f5565b905080836111f89190614856565b9250806104b560008885815181106112135761121261415d565b5b602002602001015173ffffffffffffffffffffffffffffffffffffffff1673ffffffffffffffffffffffffffffffffffffffff16815260200190815260200160002060008282546112649190614856565b9250508190555050808061127790614640565b915050611129565b506000865160038a606481106112985761129761415d565b5b600c0201600b01546112aa91906148ac565b905060008751836112bb91906148ac565b905060005b88518110156113d357600082846112d79190614856565b90507f88fa4dc6dc84fb056628ddf02c361252f313bcdd951c9d28e3b628bffac8ab558a838151811061130d5761130c61415d565b5b602002602001015182604051611324929190614929565b60405180910390a189828151811061133f5761133e61415d565b5b602002602001015173ffffffffffffffffffffffffffffffffffffffff166108fc829081150290604051600060405180830381858888f1935050505015801561138c573d6000803e3d6000fd5b508360038d606481106113a2576113a161415d565b5b600c0201600b0160008282546113b89190614822565b925050819055505080806113cb90614640565b9150506112c0565b50600160038b606481106113ea576113e961415d565b5b600c0201600a0160046101000a81548160ff0219169083600281111561141357611412613f69565b5b021790555060016104b88b6064811061142f5761142e61415d565b5b602091828204019190066101000a81548160ff0219169083151502179055507f346e0fa9e112a7376778dcb0fe0fdfe51db577b3d0b1592a40266db0b192f82260038b606481106114835761148261415d565b5b600c0201600a0160049054906101000a900460ff166040516114a591906149b1565b60405180910390a16104b760008154809291906114c1906149df565b9190505550600194505050505095945050505050565b6000600160009054906101000a900473ffffffffffffffffffffffffffffffffffffffff1673ffffffffffffffffffffffffffffffffffffffff163373ffffffffffffffffffffffffffffffffffffffff161461153357600080fd5b8260006003826064811061154a5761154961415d565b5b600c0201600a0160059054906101000a900460ff1660ff161461156c57600080fd5b6001600385606481106115825761158161415d565b5b600c0201600a0160056101000a81548160ff021916908360ff1602179055506002600385606481106115b7576115b661415d565b5b600c0201600a0160046101000a81548160ff021916908360028111156115e0576115df613f69565b5b021790555060005b83518110156117e9576000600260009054906101000a900473ffffffffffffffffffffffffffffffffffffffff1673ffffffffffffffffffffffffffffffffffffffff1663b8f9c2a18684815181106116445761164361415d565b5b60200260200101516040518263ffffffff1660e01b815260040161166891906137f9565b602060405180830381865afa158015611685573d6000803e3d6000fd5b505050506040513d601f19601f820116820180604052508101906116a991906147f5565b9050806104b560008785815181106116c4576116c361415d565b5b602002602001015173ffffffffffffffffffffffffffffffffffffffff1673ffffffffffffffffffffffffffffffffffffffff16815260200190815260200160002060008282546117159190614822565b92505081905550600260009054906101000a900473ffffffffffffffffffffffffffffffffffffffff1673ffffffffffffffffffffffffffffffffffffffff166318b529c386848151811061176d5761176c61415d565b5b60200260200101516040518263ffffffff1660e01b815260040161179191906137f9565b6020604051808303816000875af11580156117b0573d6000803e3d6000fd5b505050506040513d601f19601f820116820180604052508101906117d491906147f5565b505080806117e190614640565b9150506115e8565b50600384606481106117fe576117fd61415d565b5b600c020160010160009054906101000a900473ffffffffffffffffffffffffffffffffffffffff1673ffffffffffffffffffffffffffffffffffffffff166108fc600386606481106118535761185261415d565b5b600c0201600b01549081150290604051600060405180830381858888f19350505050158015611886573d6000803e3d6000fd5b507f346e0fa9e112a7376778dcb0fe0fdfe51db577b3d0b1592a40266db0b192f822600385606481106118bc576118bb61415d565b5b600c0201600a0160049054906101000a900460ff166040516118de91906141e9565b60405180910390a1600191505092915050565b6104b56020528060005260406000206000915090505481565b6060600160009054906101000a900473ffffffffffffffffffffffffffffffffffffffff1673ffffffffffffffffffffffffffffffffffffffff163373ffffffffffffffffffffffffffffffffffffffff161461196657600080fd5b6003826064811061197a5761197961415d565b5b600c0201600501805461198c906142e8565b80601f01602080910402602001604051908101604052809291908181526020018280546119b8906142e8565b8015611a055780601f106119da57610100808354040283529160200191611a05565b820191906000526020600020905b8154815290600101906020018083116119e857829003601f168201915b50505050509050919050565b600084600060038260648110611a2a57611a2961415d565b5b600c0201600a0160059054906101000a900460ff1660ff1614611a4c57600080fd5b600160009054906101000a900473ffffffffffffffffffffffffffffffffffffffff1673ffffffffffffffffffffffffffffffffffffffff163373ffffffffffffffffffffffffffffffffffffffff1614611aa657600080fd5b7f3691000541ef974fd47bc9eebb3e5c3acc93be77b1a5e07d20477d2193be601985604051611ad59190614a63565b60405180910390a16000845160038860648110611af557611af461415d565b5b600c0201600b0154611b0791906148ac565b905060005b8551811015611b7b577f88fa4dc6dc84fb056628ddf02c361252f313bcdd951c9d28e3b628bffac8ab55868281518110611b4957611b4861415d565b5b602002602001015183604051611b60929190614929565b60405180910390a18080611b7390614640565b915050611b0c565b5060005b8451811015611c0c57816104b56000878481518110611ba157611ba061415d565b5b602002602001015173ffffffffffffffffffffffffffffffffffffffff1673ffffffffffffffffffffffffffffffffffffffff1681526020019081526020016000206000828254611bf29190614822565b925050819055508080611c0490614640565b915050611b7f565b50600160038860648110611c2357611c2261415d565b5b600c0201600a0160046101000a81548160ff02191690836002811115611c4c57611c4b613f69565b5b021790555060016104b88860648110611c6857611c6761415d565b5b602091828204019190066101000a81548160ff0219169083151502179055507f346e0fa9e112a7376778dcb0fe0fdfe51db577b3d0b1592a40266db0b192f82260038860648110611cbc57611cbb61415d565b5b600c0201600a0160049054906101000a900460ff16604051611cde91906149b1565b60405180910390a16104b76000815480929190611cfa906149df565b9190505550600192505050949350505050565b60006104b460008373ffffffffffffffffffffffffffffffffffffffff1673ffffffffffffffffffffffffffffffffffffffff16815260200190815260200160002060009054906101000a900460ff169050919050565b6104b46020528060005260406000206000915054906101000a900460ff1681565b60038160648110611d9557600080fd5b600c02016000915090508060000154908060010160009054906101000a900473ffffffffffffffffffffffffffffffffffffffff16908060020160009054906101000a900473ffffffffffffffffffffffffffffffffffffffff1690806003018054611e00906142e8565b80601f0160208091040260200160405190810160405280929190818152602001828054611e2c906142e8565b8015611e795780601f10611e4e57610100808354040283529160200191611e79565b820191906000526020600020905b815481529060010190602001808311611e5c57829003601f168201915b505050505090806004018054611e8e906142e8565b80601f0160208091040260200160405190810160405280929190818152602001828054611eba906142e8565b8015611f075780601f10611edc57610100808354040283529160200191611f07565b820191906000526020600020905b815481529060010190602001808311611eea57829003601f168201915b505050505090806005018054611f1c906142e8565b80601f0160208091040260200160405190810160405280929190818152602001828054611f48906142e8565b8015611f955780601f10611f6a57610100808354040283529160200191611f95565b820191906000526020600020905b815481529060010190602001808311611f7857829003601f168201915b5050505050908060060160009054906101000a900463ffffffff169080600901549080600a0160009054906101000a900463ffffffff169080600a0160049054906101000a900460ff169080600a0160059054906101000a900460ff169080600b015490508c565b600160009054906101000a900473ffffffffffffffffffffffffffffffffffffffff1681565b80426104bc826064811061203a5761203961415d565b5b60040201600201546104bc83606481106120575761205661415d565b5b60040201600101546120699190614856565b1161207357600080fd5b816000600160009054906101000a900473ffffffffffffffffffffffffffffffffffffffff1673ffffffffffffffffffffffffffffffffffffffff16639c0daa7c836040518263ffffffff1660e01b81526004016120d19190613b74565b602060405180830381865afa1580156120ee573d6000803e3d6000fd5b505050506040513d601f19601f8201168201806040525081019061211291906147f5565b1480156121b95750600160009054906101000a900473ffffffffffffffffffffffffffffffffffffffff1673ffffffffffffffffffffffffffffffffffffffff1663f76b365e82336040518363ffffffff1660e01b8152600401612177929190614a91565b602060405180830381865afa158015612194573d6000803e3d6000fd5b505050506040513d601f19601f820116820180604052508101906121b8919061422c565b5b6121c257600080fd5b6000600160009054906101000a900473ffffffffffffffffffffffffffffffffffffffff1673ffffffffffffffffffffffffffffffffffffffff1663f681ee11856040518263ffffffff1660e01b815260040161221f9190613b74565b6000604051808303816000875af115801561223e573d6000803e3d6000fd5b505050506040513d6000823e3d601f19601f820116820180604052508101906122679190614b66565b905060005b815181101561231f576104bc856064811061228a5761228961415d565b5b600402016003018282815181106122a4576122a361415d565b5b60200260200101519080600181540180825580915050600190039060005260206000200160009091909190916101000a81548173ffffffffffffffffffffffffffffffffffffffff021916908373ffffffffffffffffffffffffffffffffffffffff160217905550808061231790614640565b91505061226c565b50426104bc85606481106123365761233561415d565b5b600402016001018190555060966104bc85606481106123585761235761415d565b5b60040201600201819055507ffcc3926d101aa522457e1573d61a93737bd02a313fc248da2c3d9b81846e77d16104bc85606481106123995761239861415d565b5b60040201600101546104bc86606481106123b6576123b561415d565b5b60040201600201546040516123cc929190614baf565b60405180910390a1600160009054906101000a900473ffffffffffffffffffffffffffffffffffffffff1673ffffffffffffffffffffffffffffffffffffffff1663c6d96072856040518263ffffffff1660e01b815260040161242f9190613b74565b6020604051808303816000875af115801561244e573d6000803e3d6000fd5b505050506040513d601f19601f82011682018060405250810190612472919061422c565b5050505050565b60008054906101000a900473ffffffffffffffffffffffffffffffffffffffff1681565b6000600160009054906101000a900473ffffffffffffffffffffffffffffffffffffffff1673ffffffffffffffffffffffffffffffffffffffff163373ffffffffffffffffffffffffffffffffffffffff16146124f957600080fd5b6003826064811061250d5761250c61415d565b5b600c020160060160009054906101000a900463ffffffff169050919050565b6000600115156104b360003373ffffffffffffffffffffffffffffffffffffffff1673ffffffffffffffffffffffffffffffffffffffff16815260200190815260200160002060009054906101000a900460ff1615150361258c57600080fd5b670de0b6b3a764000034146125a057600080fd5b600115156104b460003373ffffffffffffffffffffffffffffffffffffffff1673ffffffffffffffffffffffffffffffffffffffff16815260200190815260200160002060009054906101000a900460ff16151515146125ff57600080fd5b600260009054906101000a900473ffffffffffffffffffffffffffffffffffffffff1673ffffffffffffffffffffffffffffffffffffffff1663df5dd1a5336040518263ffffffff1660e01b815260040161265a91906137f9565b6020604051808303816000875af1158015612679573d6000803e3d6000fd5b505050506040513d601f19601f8201168201806040525081019061269d919061422c565b5060016104b360003373ffffffffffffffffffffffffffffffffffffffff1673ffffffffffffffffffffffffffffffffffffffff16815260200190815260200160002060006101000a81548160ff021916908315150217905550346104b560003373ffffffffffffffffffffffffffffffffffffffff1673ffffffffffffffffffffffffffffffffffffffff168152602001908152602001600020819055507f2d62108771d82d92634e2d038b6c7f09290edfee5b1443e25299f04a0cfbca723360405161276b9190614c24565b60405180910390a16104b360003373ffffffffffffffffffffffffffffffffffffffff1673ffffffffffffffffffffffffffffffffffffffff16815260200190815260200160002060009054906101000a900460ff16905090565b60008060009054906101000a900473ffffffffffffffffffffffffffffffffffffffff1673ffffffffffffffffffffffffffffffffffffffff163373ffffffffffffffffffffffffffffffffffffffff161461282157600080fd5b81600260006101000a81548173ffffffffffffffffffffffffffffffffffffffff021916908373ffffffffffffffffffffffffffffffffffffffff16021790555060019050919050565b6104bc816064811061287c57600080fd5b600402016000915090508060000154908060010154908060020154905083565b60008060009054906101000a900473ffffffffffffffffffffffffffffffffffffffff1673ffffffffffffffffffffffffffffffffffffffff163373ffffffffffffffffffffffffffffffffffffffff16146128f757600080fd5b81600160006101000a81548173ffffffffffffffffffffffffffffffffffffffff021916908373ffffffffffffffffffffffffffffffffffffffff16021790555060019050919050565b6000600115156104b360003373ffffffffffffffffffffffffffffffffffffffff1673ffffffffffffffffffffffffffffffffffffffff16815260200190815260200160002060009054906101000a900460ff161515146129a157600080fd5b816000600382606481106129b8576129b761415d565b5b600c0201600a0160059054906101000a900460ff1660ff16146129da57600080fd5b82600381606481106129ef576129ee61415d565b5b600c020160060160009054906101000a900463ffffffff1663ffffffff1660038260648110612a2157612a2061415d565b5b600c0201600a0160009054906101000a900463ffffffff1663ffffffff1610612a4957600080fd5b600115156104b460003373ffffffffffffffffffffffffffffffffffffffff1673ffffffffffffffffffffffffffffffffffffffff16815260200190815260200160002060009054906101000a900460ff1615151514612aa857600080fd5b600160038560648110612abe57612abd61415d565b5b600c020160070160003373ffffffffffffffffffffffffffffffffffffffff1673ffffffffffffffffffffffffffffffffffffffff16815260200190815260200160002060006101000a81548160ff0219169083151502179055503360038560648110612b2e57612b2d61415d565b5b600c0201600801600060038760648110612b4b57612b4a61415d565b5b600c0201600a0160009054906101000a900463ffffffff1663ffffffff1663ffffffff16815260200190815260200160002060006101000a81548173ffffffffffffffffffffffffffffffffffffffff021916908373ffffffffffffffffffffffffffffffffffffffff16021790555060038460648110612bcf57612bce61415d565b5b600c0201600a01600081819054906101000a900463ffffffff1680929190612bf690614c52565b91906101000a81548163ffffffff021916908363ffffffff160217905550507fe677a6b9a16a696674f50d2c98a1ce8c5cb51d6b48a0223412c512bbc93664d533604051612c4491906137f9565b60405180910390a160038460648110612c6057612c5f61415d565b5b600c0201600a0160009054906101000a900463ffffffff1663ffffffff1660038560648110612c9257612c9161415d565b5b600c020160060160009054906101000a900463ffffffff1663ffffffff1603612d48577f2510e6950be86d6001a0b1229da4c21fa8e26b6bcf345d0b348fe42894fceb0360038560648110612cea57612ce961415d565b5b600c02016000015460038660648110612d0657612d0561415d565b5b600c020160040160038760648110612d2157612d2061415d565b5b600c0201600501604051612d3793929190614c7e565b60405180910390a160019250612d99565b6104b360003373ffffffffffffffffffffffffffffffffffffffff1673ffffffffffffffffffffffffffffffffffffffff16815260200190815260200160002060009054906101000a900460ff1692505b5050919050565b6000600115156104b360003373ffffffffffffffffffffffffffffffffffffffff1673ffffffffffffffffffffffffffffffffffffffff16815260200190815260200160002060009054906101000a900460ff16151514612e0057600080fd5b60006104b560003373ffffffffffffffffffffffffffffffffffffffff1673ffffffffffffffffffffffffffffffffffffffff1681526020019081526020016000205411612e4d57600080fd5b600115156104b460003373ffffffffffffffffffffffffffffffffffffffff1673ffffffffffffffffffffffffffffffffffffffff16815260200190815260200160002060009054906101000a900460ff1615151514612eac57600080fd5b6001600260009054906101000a900473ffffffffffffffffffffffffffffffffffffffff1673ffffffffffffffffffffffffffffffffffffffff16630855078b336040518263ffffffff1660e01b8152600401612f0991906137f9565b602060405180830381865afa158015612f26573d6000803e3d6000fd5b505050506040513d601f19601f82011682018060405250810190612f4a91906147f5565b1115612faa5760016104b460003373ffffffffffffffffffffffffffffffffffffffff1673ffffffffffffffffffffffffffffffffffffffff16815260200190815260200160002060006101000a81548160ff0219169083151502179055505b6104b360003373ffffffffffffffffffffffffffffffffffffffff1673ffffffffffffffffffffffffffffffffffffffff16815260200190815260200160002060006101000a81549060ff02191690553373ffffffffffffffffffffffffffffffffffffffff166108fc6104b560003373ffffffffffffffffffffffffffffffffffffffff1673ffffffffffffffffffffffffffffffffffffffff168152602001908152602001600020549081150290604051600060405180830381858888f19350505050158015613080573d6000803e3d6000fd5b5060006104b560003373ffffffffffffffffffffffffffffffffffffffff1673ffffffffffffffffffffffffffffffffffffffff168152602001908152602001600020819055507f14951d787e2aaf7813982720871de23d576e7d935c0587e12a7fc2c4c960165a336040516130f69190614d0f565b60405180910390a16001905090565b6000600160009054906101000a900473ffffffffffffffffffffffffffffffffffffffff1673ffffffffffffffffffffffffffffffffffffffff163373ffffffffffffffffffffffffffffffffffffffff161461316157600080fd5b600383606481106131755761317461415d565b5b600c020160070160008373ffffffffffffffffffffffffffffffffffffffff1673ffffffffffffffffffffffffffffffffffffffff16815260200190815260200160002060009054906101000a900460ff16905092915050565b6104b36020528060005260406000206000915054906101000a900460ff1681565b8060018060009054906101000a900473ffffffffffffffffffffffffffffffffffffffff1673ffffffffffffffffffffffffffffffffffffffff16639c0daa7c836040518263ffffffff1660e01b815260040161324d9190613b74565b602060405180830381865afa15801561326a573d6000803e3d6000fd5b505050506040513d601f19601f8201168201806040525081019061328e91906147f5565b1480156133355750600160009054906101000a900473ffffffffffffffffffffffffffffffffffffffff1673ffffffffffffffffffffffffffffffffffffffff16632d214d2e82336040518363ffffffff1660e01b81526004016132f3929190614a91565b602060405180830381865afa158015613310573d6000803e3d6000fd5b505050506040513d601f19601f82011682018060405250810190613334919061422c565b5b80156133dc57506000600160009054906101000a900473ffffffffffffffffffffffffffffffffffffffff1673ffffffffffffffffffffffffffffffffffffffff1663ba26ed59836040518263ffffffff1660e01b81526004016133999190613b74565b602060405180830381865afa1580156133b6573d6000803e3d6000fd5b505050506040513d601f19601f820116820180604052508101906133da91906147f5565b145b6133e557600080fd5b6000600160009054906101000a900473ffffffffffffffffffffffffffffffffffffffff1673ffffffffffffffffffffffffffffffffffffffff166319ff76c0846040518263ffffffff1660e01b81526004016134429190613b74565b6000604051808303816000875af1158015613461573d6000803e3d6000fd5b505050506040513d6000823e3d601f19601f8201168201806040525081019061348a9190614b66565b905060005b8151811015613542576104bc84606481106134ad576134ac61415d565b5b600402016003018282815181106134c7576134c661415d565b5b60200260200101519080600181540180825580915050600190039060005260206000200160009091909190916101000a81548173ffffffffffffffffffffffffffffffffffffffff021916908373ffffffffffffffffffffffffffffffffffffffff160217905550808061353a90614640565b91505061348f565b50600160009054906101000a900473ffffffffffffffffffffffffffffffffffffffff1673ffffffffffffffffffffffffffffffffffffffff16634a62715284600386606481106135965761359561415d565b5b600c0201600901546040518363ffffffff1660e01b81526004016135bb929190614baf565b6020604051808303816000875af11580156135da573d6000803e3d6000fd5b505050506040513d601f19601f820116820180604052508101906135fe919061422c565b50505050565b6000600160009054906101000a900473ffffffffffffffffffffffffffffffffffffffff1673ffffffffffffffffffffffffffffffffffffffff163373ffffffffffffffffffffffffffffffffffffffff161461366057600080fd5b600382606481106136745761367361415d565b5b600c0201600901549050919050565b6000600260009054906101000a900473ffffffffffffffffffffffffffffffffffffffff1673ffffffffffffffffffffffffffffffffffffffff163373ffffffffffffffffffffffffffffffffffffffff16146136df57600080fd5b60016104b460008473ffffffffffffffffffffffffffffffffffffffff1673ffffffffffffffffffffffffffffffffffffffff16815260200190815260200160002060006101000a81548160ff0219169083151502179055506104b460008373ffffffffffffffffffffffffffffffffffffffff1673ffffffffffffffffffffffffffffffffffffffff16815260200190815260200160002060009054906101000a900460ff169050919050565b6104b8816064811061379e57600080fd5b60209182820401919006915054906101000a900460ff1681565b600073ffffffffffffffffffffffffffffffffffffffff82169050919050565b60006137e3826137b8565b9050919050565b6137f3816137d8565b82525050565b600060208201905061380e60008301846137ea565b92915050565b6000604051905090565b600080fd5b600080fd5b6000819050919050565b61383b81613828565b811461384657600080fd5b50565b60008135905061385881613832565b92915050565b6000602082840312156138745761387361381e565b5b600061388284828501613849565b91505092915050565b60008115159050919050565b6138a08161388b565b82525050565b60006020820190506138bb6000830184613897565b92915050565b6138ca816137d8565b81146138d557600080fd5b50565b6000813590506138e7816138c1565b92915050565b600080fd5b600080fd5b6000601f19601f8301169050919050565b7f4e487b7100000000000000000000000000000000000000000000000000000000600052604160045260246000fd5b613940826138f7565b810181811067ffffffffffffffff8211171561395f5761395e613908565b5b80604052505050565b6000613972613814565b905061397e8282613937565b919050565b600067ffffffffffffffff82111561399e5761399d613908565b5b6139a7826138f7565b9050602081019050919050565b82818337600083830152505050565b60006139d66139d184613983565b613968565b9050828152602081018484840111156139f2576139f16138f2565b5b6139fd8482856139b4565b509392505050565b600082601f830112613a1a57613a196138ed565b5b8135613a2a8482602086016139c3565b91505092915050565b600063ffffffff82169050919050565b613a4c81613a33565b8114613a5757600080fd5b50565b600081359050613a6981613a43565b92915050565b600080600080600080600060e0888a031215613a8e57613a8d61381e565b5b6000613a9c8a828b016138d8565b975050602088013567ffffffffffffffff811115613abd57613abc613823565b5b613ac98a828b01613a05565b965050604088013567ffffffffffffffff811115613aea57613ae9613823565b5b613af68a828b01613a05565b955050606088013567ffffffffffffffff811115613b1757613b16613823565b5b613b238a828b01613a05565b9450506080613b348a828b01613849565b93505060a0613b458a828b01613a5a565b92505060c0613b568a828b01613849565b91505092959891949750929550565b613b6e81613828565b82525050565b6000602082019050613b896000830184613b65565b92915050565b613b988161388b565b8114613ba357600080fd5b50565b600081359050613bb581613b8f565b92915050565b600067ffffffffffffffff821115613bd657613bd5613908565b5b602082029050602081019050919050565b600080fd5b6000613bff613bfa84613bbb565b613968565b90508083825260208201905060208402830185811115613c2257613c21613be7565b5b835b81811015613c4b5780613c3788826138d8565b845260208401935050602081019050613c24565b5050509392505050565b600082601f830112613c6a57613c696138ed565b5b8135613c7a848260208601613bec565b91505092915050565b600080600080600060a08688031215613c9f57613c9e61381e565b5b6000613cad88828901613849565b9550506020613cbe88828901613ba6565b945050604086013567ffffffffffffffff811115613cdf57613cde613823565b5b613ceb88828901613c55565b935050606086013567ffffffffffffffff811115613d0c57613d0b613823565b5b613d1888828901613c55565b925050608086013567ffffffffffffffff811115613d3957613d38613823565b5b613d4588828901613c55565b9150509295509295909350565b60008060408385031215613d6957613d6861381e565b5b6000613d7785828601613849565b925050602083013567ffffffffffffffff811115613d9857613d97613823565b5b613da485828601613c55565b9150509250929050565b600060208284031215613dc457613dc361381e565b5b6000613dd2848285016138d8565b91505092915050565b600081519050919050565b600082825260208201905092915050565b60005b83811015613e15578082015181840152602081019050613dfa565b83811115613e24576000848401525b50505050565b6000613e3582613ddb565b613e3f8185613de6565b9350613e4f818560208601613df7565b613e58816138f7565b840191505092915050565b60006020820190508181036000830152613e7d8184613e2a565b905092915050565b6000819050919050565b613e9881613e85565b8114613ea357600080fd5b50565b600081359050613eb581613e8f565b92915050565b60008060008060808587031215613ed557613ed461381e565b5b6000613ee387828801613849565b9450506020613ef487828801613ea6565b935050604085013567ffffffffffffffff811115613f1557613f14613823565b5b613f2187828801613c55565b925050606085013567ffffffffffffffff811115613f4257613f41613823565b5b613f4e87828801613c55565b91505092959194509250565b613f6381613a33565b82525050565b7f4e487b7100000000000000000000000000000000000000000000000000000000600052602160045260246000fd5b60038110613fa957613fa8613f69565b5b50565b6000819050613fba82613f98565b919050565b6000613fca82613fac565b9050919050565b613fda81613fbf565b82525050565b600060ff82169050919050565b613ff681613fe0565b82525050565b600061018082019050614012600083018f613b65565b61401f602083018e6137ea565b61402c604083018d6137ea565b818103606083015261403e818c613e2a565b90508181036080830152614052818b613e2a565b905081810360a0830152614066818a613e2a565b905061407560c0830189613f5a565b61408260e0830188613b65565b614090610100830187613f5a565b61409e610120830186613fd1565b6140ac610140830185613fed565b6140ba610160830184613b65565b9d9c50505050505050505050505050565b60006020820190506140e06000830184613f5a565b92915050565b60006060820190506140fb6000830186613b65565b6141086020830185613b65565b6141156040830184613b65565b949350505050565b600080604083850312156141345761413361381e565b5b600061414285828601613849565b9250506020614153858286016138d8565b9150509250929050565b7f4e487b7100000000000000000000000000000000000000000000000000000000600052603260045260246000fd5b600082825260208201905092915050565b7f43414e43454c4c45440000000000000000000000000000000000000000000000600082015250565b60006141d360098361418c565b91506141de8261419d565b602082019050919050565b60006040820190506141fe6000830184613fd1565b818103602083015261420f816141c6565b905092915050565b60008151905061422681613b8f565b92915050565b6000602082840312156142425761424161381e565b5b600061425084828501614217565b91505092915050565b7f4e487b7100000000000000000000000000000000000000000000000000000000600052601260045260246000fd5b600061429382613a33565b915061429e83613a33565b9250826142ae576142ad614259565b5b828206905092915050565b7f4e487b7100000000000000000000000000000000000000000000000000000000600052602260045260246000fd5b6000600282049050600182168061430057607f821691505b602082108103614313576143126142b9565b5b50919050565b60008190508160005260206000209050919050565b60006020601f8301049050919050565b600082821b905092915050565b60006008830261437b7fffffffffffffffffffffffffffffffffffffffffffffffffffffffffffffffff8261433e565b614385868361433e565b95508019841693508086168417925050509392505050565b6000819050919050565b60006143c26143bd6143b884613828565b61439d565b613828565b9050919050565b6000819050919050565b6143dc836143a7565b6143f06143e8826143c9565b84845461434b565b825550505050565b600090565b6144056143f8565b6144108184846143d3565b505050565b5b81811015614434576144296000826143fd565b600181019050614416565b5050565b601f8211156144795761444a81614319565b6144538461432e565b81016020851015614462578190505b61447661446e8561432e565b830182614415565b50505b505050565b600082821c905092915050565b600061449c6000198460080261447e565b1980831691505092915050565b60006144b5838361448b565b9150826002028217905092915050565b6144ce82613ddb565b67ffffffffffffffff8111156144e7576144e6613908565b5b6144f182546142e8565b6144fc828285614438565b600060209050601f83116001811461452f576000841561451d578287015190505b61452785826144a9565b86555061458f565b601f19841661453d86614319565b60005b8281101561456557848901518255600182019150602085019450602081019050614540565b86831015614582578489015161457e601f89168261448b565b8355505b6001600288020188555050505b505050505050565b7f50454e44494e4700000000000000000000000000000000000000000000000000600082015250565b60006145cd60078361418c565b91506145d882614597565b602082019050919050565b60006040820190506145f86000830184613fd1565b8181036020830152614609816145c0565b905092915050565b7f4e487b7100000000000000000000000000000000000000000000000000000000600052601160045260246000fd5b600061464b82613828565b91507fffffffffffffffffffffffffffffffffffffffffffffffffffffffffffffffff820361467d5761467c614611565b5b600182019050919050565b60008154614695816142e8565b61469f8186613de6565b945060018216600081146146ba57600181146146d057614703565b60ff198316865281151560200286019350614703565b6146d985614319565b60005b838110156146fb578154818901526001820191506020810190506146dc565b808801955050505b50505092915050565b600060a0820190506147216000830188613b65565b81810360208301526147338187614688565b90506147426040830186613b65565b61474f6060830185613b65565b61475c6080830184613b65565b9695505050505050565b7f207468652066696e616c20726573756c74000000000000000000000000000000600082015250565b600061479c60118361418c565b91506147a782614766565b602082019050919050565b60006040820190506147c76000830184613897565b81810360208301526147d88161478f565b905092915050565b6000815190506147ef81613832565b92915050565b60006020828403121561480b5761480a61381e565b5b6000614819848285016147e0565b91505092915050565b600061482d82613828565b915061483883613828565b92508282101561484b5761484a614611565b5b828203905092915050565b600061486182613828565b915061486c83613828565b9250827fffffffffffffffffffffffffffffffffffffffffffffffffffffffffffffffff038211156148a1576148a0614611565b5b828201905092915050565b60006148b782613828565b91506148c283613828565b9250826148d2576148d1614259565b5b828204905092915050565b7f4f7261636c6520686173206265656e2050616964210000000000000000000000600082015250565b600061491360158361418c565b915061491e826148dd565b602082019050919050565b600060608201905061493e60008301856137ea565b61494b6020830184613b65565b818103604083015261495c81614906565b90509392505050565b7f434f4d504c455445000000000000000000000000000000000000000000000000600082015250565b600061499b60088361418c565b91506149a682614965565b602082019050919050565b60006040820190506149c66000830184613fd1565b81810360208301526149d78161498e565b905092915050565b60006149ea82613828565b9150600082036149fd576149fc614611565b5b600182039050919050565b614a1181613e85565b82525050565b7f7468652066696e616c20726573756c7400000000000000000000000000000000600082015250565b6000614a4d60108361418c565b9150614a5882614a17565b602082019050919050565b6000604082019050614a786000830184614a08565b8181036020830152614a8981614a40565b905092915050565b6000604082019050614aa66000830185613b65565b614ab360208301846137ea565b9392505050565b600081519050614ac9816138c1565b92915050565b6000614ae2614add84613bbb565b613968565b90508083825260208201905060208402830185811115614b0557614b04613be7565b5b835b81811015614b2e5780614b1a8882614aba565b845260208401935050602081019050614b07565b5050509392505050565b600082601f830112614b4d57614b4c6138ed565b5b8151614b5d848260208601614acf565b91505092915050565b600060208284031215614b7c57614b7b61381e565b5b600082015167ffffffffffffffff811115614b9a57614b99613823565b5b614ba684828501614b38565b91505092915050565b6000604082019050614bc46000830185613b65565b614bd16020830184613b65565b9392505050565b7f57656c636f6d65206e6577206e6f646521000000000000000000000000000000600082015250565b6000614c0e60118361418c565b9150614c1982614bd8565b602082019050919050565b6000604082019050614c3960008301846137ea565b8181036020830152614c4a81614c01565b905092915050565b6000614c5d82613a33565b915063ffffffff8203614c7357614c72614611565b5b600182019050919050565b6000606082019050614c936000830186613b65565b8181036020830152614ca58185614688565b90508181036040830152614cb98184614688565b9050949350505050565b7f4e6f646520686173206c6566742c20476f6f6462796500000000000000000000600082015250565b6000614cf960168361418c565b9150614d0482614cc3565b602082019050919050565b6000604082019050614d2460008301846137ea565b8181036020830152614d3581614cec565b90509291505056fea26469706673582212201a692c8003b7159f851dc23731e829eab83595dd6c5dd9bab8a8d2acad8fc5bb64736f6c634300080f0033",
  "immutableReferences": {},
  "source": "// SPDX-License-Identifier: MIT\npragma solidity ^0.8.0;\n\nimport \"./AggregatorContract.sol\";\nimport \"./ReputationContract.sol\";\n\ncontract OracleRequestContract {\n    //address that deploys contract\n    address public owner;\n    // address of aggregator contract\n    address public aggregatorAddr;\n    // address of reputation contract\n    address public reputationAddr;\n    // Array to populate with requests that come in\n    Request[100] public requests;\n    // all mappings of oracles that have joined network\n    mapping (address => bool) public oracles;\n    // mapping of blacklisted oracles (who's ratings exceed 10)\n    mapping (address => bool) public blacklistedOracles;\n    // stakeBalance of each node, should be equal to 1 eth\n    mapping (address => uint) public stakeBalance;\n    // request and and pending counters, pending decreased when status changed to COMPLETE\n    uint requestCounter = 1;\n    uint pendingCounter = 1;\n    // Status logs for each request\n    enum Status{PENDING, COMPLETE, CANCELLED}\n    struct Timings {\n        uint appealFlag;\n        uint timestamp;\n        uint elapsedTime;\n        address[] timedOutOracles;\n    }\n    // a single Request structure\n    struct Request {\n        uint256 requestID; //Id for each request\n        address requester; // address which made the request\n        address callbackAddress; // an address in which the response can be delivered to\n        bytes callbackFID; // a function in the callback address that can be called\n        bytes IoTID; // the ID of the IoT the user-SC wishes to gather data from\n        bytes dataType; // data type, JSON that is decoded by the oracle node that will collect the data\n        // bytes32 pHash; // a hash of the data type and the actual result required.\n        //bytes requiredResult; // left this out for security reason, we only apply it to the hash\n        uint32 numberOfOracles; // number of oracles needed to fetch the data\n        mapping (address => bool) oraclesForRequest; // must be true in order for oracle node to participate\n        mapping (uint32 => address) oracleAddressAccess; // mapping so we can iterate through addresses\n        uint256 aggregationType;\n        uint32 oracleCounter; // index and counter for the number of oracles\n        Status status; // status of the request\n        uint8 cancelFlag; // cancel flag, if == 1 then do not continue with request\n        uint fee; // fee sent to cover costs and extra for fetch the data\n\n    }\n\n    bool[100] public completedRequests;// true for each requestID once status changes to complete.\n    Timings[100] public timings;\n    event OpenForBids(uint256, bytes, uint256, uint, uint); // tells oracle nodes there is a request that needs bidding on\n    event BidPlaced(address); // tells nodes that a bid has been placed by another node\n    event ReleaseRequestDetails(uint256, bytes, bytes); // the details the node needs to gather\n    event StatusChange(Status, string); // tells nodes in network of status change of requests\n    event OracleJoined(address, string); // tells network that a new oracle has joined the network\n    event OracleLeft(address, string); // tells the network that another oracle has left\n    event OraclePaid(address, uint, string); // tells the network when an oracle has been paid for its services\n    event Logging(string);\n    event FinalResultLog(bool, string);\n    event FinalInt(int256, string);\n    event UpdateTimestamp(uint256, uint256);\n    // ***payments***\n    uint GAS_PRICE = 2 * 10**10; // cost of gas\n    uint FEE = GAS_PRICE * 3; // fee to cover other function calls and pay each oracle\n    uint MIN_FEE = FEE + (GAS_PRICE * 5); // minimum needed to cover all costs\n\n    // @notice constructor when first deployed\n    constructor() {\n        owner = msg.sender; // set the owner of the contract to the address that deploys it\n    }\n    // @notice used if eth is sent to an invalid function etc\n    fallback() external{}\n\n    // @notice function called by addresses of Off-chain Oracle nodes that want to join the network\n    // @return bool, true if successful otherwise reverts\n    function joinAsOracle()\n    public\n    payable\n    oracleNotJoined()\n    valueEqual1Eth()\n    isNotBlacklisted()\n    //oracleCannotRejoin()\n    returns(bool){\n        ReputationContract(reputationAddr).addOracle(msg.sender);\n        oracles[address(msg.sender)] = true; // set to true as is now in network\n        stakeBalance[msg.sender] = msg.value; // added value to stakeBalance as a record\n        emit OracleJoined(msg.sender, \"Welcome new node!\"); // emit event so listeners can be notified\n        return oracles[address(msg.sender)]; // return true\n    }\n    // @notice oracle node calls this function when they wish to leave network\n    // @return bool\n    function leaveOracleNetwork()\n    public\n    oracleHasJoined()\n    stakeCheck()\n    isNotBlacklisted()\n    returns(bool) {\n        if (ReputationContract(reputationAddr).getOracleRating(msg.sender) > 1 ){\n            blacklistedOracles[msg.sender] = true; // allows oracle nodes with penalties to leave, but cannot rejoin\n        }\n        delete oracles[msg.sender]; // deletes address from mapping\n        payable(msg.sender).transfer(stakeBalance[msg.sender]); // transfers their stake back to them\n        stakeBalance[msg.sender] = 0; // set stakeBalance back to 0 for the oracle node\n        emit OracleLeft(msg.sender, \"Node has left, Goodbye\"); // emit event so listeners can be notified\n        return true; // return true to confirm\n    }\n\n    // @notice user can call function create request\n    // @dev\n    // @param _callbackAddress could be different to address that called the function\n    // @param _callbackFID a particular function in a smart contract that is needed to be called based on request\n    // @param _IoTID the identifier of the IoT device oracle node will be subscribing to\n    // @param _dataType, true false answer, an event, continuous data over time?\n    // @param _aggregationType 1 = voting, 2 = averaging\n    // @param _numberOfOracles number of oracle nodes that fetch IoT data\n    // @return the requestID so the user can keep track of request\n    function createRequest(\n        address _callbackAddress,\n        bytes memory _callbackFID,\n        bytes memory _IoTID,\n        bytes memory _dataType,\n        uint256 _aggregationType,\n        uint32 _numberOfOracles,\n        uint _elapsedTime) // time required\n    external\n    payable\n    valueGTMinFeeCheck() // requires the value sent is >= MIN_FEE\n    oddNumOracles(_numberOfOracles) // requires an odd number of oracles\n    aggregationTypeCheck(_aggregationType) // 1 = voting, 2 = averaging\n    returns(uint256)\n    {\n\n        uint256 requestID = requestCounter; // assign id to request\n        timings[requestID].timestamp = block.timestamp;\n        timings[requestID].elapsedTime = _elapsedTime;\n        // log details of the request to array to cross reference later\n        requests[requestID].requestID = requestID;\n        requests[requestID].requester = msg.sender;\n        requests[requestID].callbackAddress = _callbackAddress;\n        requests[requestID].callbackFID = _callbackFID;\n        requests[requestID].IoTID = _IoTID;\n        requests[requestID].dataType = _dataType;\n        requests[requestID].numberOfOracles = _numberOfOracles;\n        requests[requestID].oracleCounter = 0;\n        requests[requestID].status = Status.PENDING;\n        requests[requestID].cancelFlag = 0;\n        requests[requestID].fee = msg.value; // keeps track of the fee for the request\n        requests[requestID].aggregationType = _aggregationType;\n        emit StatusChange(requests[requestID].status, \"PENDING\"); // tells nodes in network of status change of requests\n        // increment requestId ready for next create request function.\n        requestCounter++;\n        pendingCounter++;\n        emit OpenForBids(requestID, requests[requestID].dataType, requests[requestID].aggregationType,\n            timings[requestID].timestamp, timings[requestID].elapsedTime);\n        return requestID;\n    }\n    // @notice\n    function timeoutCommitsAppeal(uint256 _requestID)\n    timeHasElapsed(_requestID)\n    onlySubmittedCommitsOracles(_requestID)\n    external\n    {\n        // call get un-responded nodes\n        address[] memory unRespondedNodes = AggregatorContract(aggregatorAddr).getUnRespondedCommitOracles(_requestID);\n        for (uint i=0; i<unRespondedNodes.length; i++) {\n            timings[_requestID].timedOutOracles.push(unRespondedNodes[i]);\n        }\n        timings[_requestID].timestamp = block.timestamp; // reset timestamp\n        timings[_requestID].elapsedTime = 150; // allow for 2.5 min send a reveal message\n        emit UpdateTimestamp(timings[_requestID].timestamp, timings[_requestID].elapsedTime);\n        AggregatorContract(aggregatorAddr).forceCommitsPlaced(_requestID);\n    }\n\n    function timeoutRevealsAppeal(uint _requestID)\n    onlySubmittedRevealsOracles(_requestID)\n    external\n    {\n        address[] memory unRespondedNodes = AggregatorContract(aggregatorAddr).getUnRespondedRevealOracles(_requestID);\n        for (uint i=0; i<unRespondedNodes.length; i++) {\n            timings[_requestID].timedOutOracles.push(unRespondedNodes[i]);\n        }\n        AggregatorContract(aggregatorAddr).forceRevealsPlaced(_requestID, requests[_requestID].aggregationType);\n    }\n\n    // @notice off-chain oracle node places bid to fetch data, once threshold is reached, emits event details.\n    // @dev\n    // @param requestId oracle node wishes to bid on\n    // @return true to indicate bid successful\n    function placeBid(\n        uint256 _requestID)\n    public\n    oracleHasJoined() // requires that the oracle is in the network\n    cancelFlagZero(_requestID) // requires requests cancel flag is zero\n    orcCountLessThanNum(_requestID) // requires that the oracle counter is still les than the number of oracles needed\n    isNotBlacklisted() // requires the oracle has not exceed its penalty rating past 10\n    returns(bool)\n    {\n        requests[_requestID].oraclesForRequest[msg.sender] = true; // add true for oracle in request so we know they can vote\n        requests[_requestID].oracleAddressAccess[requests[_requestID].oracleCounter] = address(msg.sender); // map addr for iteration\n        requests[_requestID].oracleCounter++; // increment the counter\n        // TODO also add a timeout, if bids take to long\n        emit BidPlaced(msg.sender); // send message to network that a bid has been placed\n        if (requests[_requestID].numberOfOracles == requests[_requestID].oracleCounter) {\n            // when the last oracle has submitted, we can emit the details\n            emit ReleaseRequestDetails(\n                requests[_requestID].requestID, // requestID\n                requests[_requestID].IoTID, // IoT info, this is most of importance\n                requests[_requestID].dataType); // DataType\n            return true; // returns true to show completion of the bidding phase that is now over\n        }\n        return oracles[msg.sender]; // returns true for each oracle that bids\n    }\n\n    // @notice called by aggregator contract to deliver final response\n    // @param _requestID, id of request\n    // @param _finalResult, final aggregated result\n    // @param _correctOracles, array of addresses of oracles to be paid for their work\n    function deliverVoteResponse(\n        uint256 _requestID,\n        bool _finalResult,\n        address[] memory _correctOracles,\n        address[] memory _incorrectOracles,\n        address[] memory _incorrectRevealOracles) // do not penalise\n    public\n    cancelFlagZero(_requestID) // requires that the cancelFlag is = 0\n    onlyAggregator() // only the aggregator contract can call this function\n    returns(bool)\n    {\n        // return single aggregation result\n        emit FinalResultLog(_finalResult, \" the final result\");\n        _finalResult;\n\n        uint slashedRewards = 0; //pay honest nodes fees from the slashing\n        // pay fees\n\n        // add penalties and slash dishonest nodes stake\n        for (uint i=0; i<_incorrectOracles.length; i++){\n\n            // gets penalty fee from reputation contract penalty**rating\n            uint penalty = ReputationContract(reputationAddr).getPenaltyFee(_incorrectOracles[i]);\n            stakeBalance[_incorrectOracles[i]] -= penalty;\n            slashedRewards += penalty;\n            ReputationContract(reputationAddr).incrementRating(_incorrectOracles[i]);\n        }\n        // small penalty for incorrect hashes, as this could be an error\n        for (uint i=0; i<_incorrectRevealOracles.length; i++) {\n\n            uint penalty = ReputationContract(reputationAddr).getPenaltyFee(_incorrectOracles[i]); // charge the fee of the request as a penalty\n            slashedRewards += penalty;\n            stakeBalance[_incorrectRevealOracles[i]] += penalty; // deducted from oracle stake\n        }\n        uint fee = requests[_requestID].fee / _correctOracles.length;\n        uint slashShare = slashedRewards / _correctOracles.length;\n        for (uint i=0; i<_correctOracles.length; i++) {\n            // pay each share to each oracle\n            uint fullReward = fee + slashShare;\n\n            emit OraclePaid(_correctOracles[i], fullReward, \"Oracle has been Paid!\"); // tells listeners oracle node has been paid\n            payable(_correctOracles[i]).transfer(fullReward); // pays oracle their fee\n            requests[_requestID].fee -= fee; // deduct the oracles portion from the logged amount until it reaches 0\n            // and all oracles have been paid\n        }\n        requests[_requestID].status = Status.COMPLETE; // request is complete\n        completedRequests[_requestID] = true; // add request id to completedRequests\n        emit StatusChange(requests[_requestID].status, \"COMPLETE\"); // tell listeners that the status has changed\n        pendingCounter--; // no longer pending so countered can be decremented\n        return true; // return true to so it has finished\n    }\n\n    // @notice called by aggregator contract to deliver final response\n    // @param _requestID, id of request\n    // @param _finalResult, final aggregated result\n    // @param _correctOracles, array of addresses of oracles to be paid for their work\n    function deliverAverageResponse(\n        uint256 _requestID,\n        int256 _finalResult,\n        address[] memory _correctOracles,\n        address[] memory _incorrectOracles)\n        // address[] memory _incorrectOracles,\n        // address[] memory _incorrectRevealOracles) // do not penalise\n    public\n    cancelFlagZero(_requestID) // requires that the cancelFlag is = 0\n    onlyAggregator() // only the aggregator contract can call this function\n    returns(bool)\n    {\n        // return single aggregation result\n        emit FinalInt(_finalResult, \"the final result\");\n        _finalResult;\n        uint fee = requests[_requestID].fee / _correctOracles.length;\n        // pay fees\n        for (uint i=0; i<_correctOracles.length; i++) {\n            // pay each share to each oracle\n            emit OraclePaid(_correctOracles[i], fee, \"Oracle has been Paid!\"); // tells listeners oracle node has been paid\n            //payable(_correctOracles[i]).transfer(fee); // pays oracle their fee\n            //requests[_requestID].fee -= fee; // deduct the oracles portion from the logged amount until it reaches 0\n            // and all oracles have been paid\n        }\n        // small penalty for incorrect hashes, as this could be an error\n        for (uint i=0; i<_incorrectOracles.length; i++) {\n            stakeBalance[_incorrectOracles[i]] -= fee; // deducted fee from stake\n        }\n        requests[_requestID].status = Status.COMPLETE; // request is complete\n        completedRequests[_requestID] = true; // add request id to completedRequests\n        emit StatusChange(requests[_requestID].status, \"COMPLETE\"); // tell listeners that the status has changed\n        pendingCounter--; // no longer pending so countered can be decremented\n        return true; // return true to so it has finished\n    }\n    // @notice function for requester to cancel request\n    // @param _requestID pass requestID to cancel the correct request\n    function cancelRequest(\n        uint256 _requestID)\n    external\n    onlyRequester(_requestID) // requires that only the requester can cancel\n    cancelFlagZero(_requestID) // requires that request is not yet cancelled\n    returns(bool)\n    {\n        requests[_requestID].cancelFlag = 1; // changes flag to 1, if 1 it will not pass other functions\n        requests[_requestID].status = Status.CANCELLED; // status changed\n        emit StatusChange(requests[_requestID].status, \"CANCELLED\");\n        AggregatorContract(aggregatorAddr).cancelRequest(_requestID); // call cancelled request in AggregatorContract\n        return true;\n    }\n    // @notice cancelled request by deadlock in the voting, if there are incorrect nodes,\n    //         correct amount might be even and could cause deadlock in voting,\n    //         in this case we refund the requester and cancel request\n    // @param _requestID\n    // @param _incorrectOracleReveals, we slash the faulty nodes here, as they have caused issues penalties are given\n    function cancelRequestDueToDeadlock(\n        uint256 _requestID,\n        address[] memory _incorrectOracleReveals)\n    external\n    onlyAggregator()\n    cancelFlagZero(_requestID)\n    returns(bool)\n    {\n        requests[_requestID].cancelFlag = 1;\n        requests[_requestID].status = Status.CANCELLED;\n        // return full fee as the user is not at fault here\n        // should be slashed from incorrect nodes for causing deadlock\n        for (uint i=0; i<_incorrectOracleReveals.length; i++){\n            // gets penalty fee from reputation contract penalty**rating\n            uint penalty = ReputationContract(reputationAddr).getPenaltyFee(_incorrectOracleReveals[i]);\n            stakeBalance[_incorrectOracleReveals[i]] -= penalty;\n            ReputationContract(reputationAddr).incrementRating(_incorrectOracleReveals[i]);\n        }\n        payable(requests[_requestID].requester).transfer(requests[_requestID].fee);\n        emit StatusChange(requests[_requestID].status, \"CANCELLED\");\n        return true;\n    }\n    // @notice blacklist oracle that misbehaves 10\n    function blacklistOracle(address _addr)\n    external\n    onlyReputation()\n    returns(bool)\n    {\n        blacklistedOracles[_addr] = true; // adds blacklisted oracle address to map\n        return blacklistedOracles[_addr]; // returns true\n    }\n\n\n\n\n    // *** Setters ***\n    function setAggregatorContract(\n        address _aggAddr)\n    public\n    onlyOwner() // only owner can set aggregator contract\n    returns(bool)\n    {\n        aggregatorAddr = _aggAddr;\n        return true;\n    }\n\n    function setReputationContract(address _repAddr)\n    public\n    onlyOwner()\n    returns(bool)\n    {\n        reputationAddr = _repAddr;\n        return true;\n    }\n\n    // *** Getters ***\n    function getOracleForRequest(\n        uint256 _requestID,\n        address _orcAddr)\n    external\n    view\n    onlyAggregator()\n    returns(bool)\n    {\n        return requests[_requestID].oraclesForRequest[_orcAddr];\n    }\n\n    function getNumberOfOracles(\n        uint256 _requestID)\n    external\n    view\n    onlyAggregator()\n    returns(uint32)\n    {\n        return requests[_requestID].numberOfOracles;\n    }\n\n    function getDataType(\n        uint256 _requestID)\n    external\n    view\n    onlyAggregator()\n    returns(bytes memory)\n    {\n        return requests[_requestID].dataType;\n    }\n    // @notice returns bool whether or not _addr is blacklisted\n    function getBlacklistedOracle(address _addr)\n    external\n    view\n    returns(bool)\n    {\n        return blacklistedOracles[_addr];\n    }\n    // @notice\n    function getAggregationType(uint256 _requestID)\n    external\n    view\n    onlyAggregator()\n    returns(uint256)\n    {\n        return requests[_requestID].aggregationType;\n    }\n    // ***Modifiers***\n    // @notice only owner of contract\n    modifier onlyOwner()\n    {\n        require(msg.sender == owner);\n        _;\n    }\n    // @notice only owner of aggregator contract\n    modifier onlyAggregator()\n    {\n        require(msg.sender == aggregatorAddr);\n        _;\n    }\n    // @notice only owner of reputation contract\n    modifier onlyReputation()\n    {\n        require(msg.sender == reputationAddr);\n        _;\n    }\n    // @notice modifier to confirm calling address is an oracle node address already acknowledged\n    modifier oracleHasJoined()\n    {\n        require(oracles[msg.sender] == true);\n        _;\n    }\n    // @notice modifier to confirm calling address is not yet an oracle node address acknowledged\n    modifier oracleNotJoined()\n    {\n        require(oracles[msg.sender] != true);\n        _;\n    }\n    // @notice requires request cancelFlag == 0\n    modifier cancelFlagZero(\n        uint256 _requestID)\n    {\n        require(requests[_requestID].cancelFlag == 0);\n        _;\n    }\n    // @notice requires stakeBalance to equal exactly 1 ETH\n    modifier stakeCheck()\n    {\n        require(stakeBalance[msg.sender] > 0);\n        _;\n    }\n    // @notice requires the value sent to be >= MIN_FEE set\n    modifier valueGTMinFeeCheck()\n    {\n        // require msg.value has enough to pay oracles for each function call\n        require(msg.value >= MIN_FEE);\n        _;\n    }\n    // @notice requires an odd number of oracles so voting/aggregation doesnt become deadlocked\n    modifier oddNumOracles(\n        uint32 _numberOfOracles)\n    {\n        // makes sure the number that there is always an odd number of oracles so a majority can be reached.\n        require(!(_numberOfOracles % 2 == 0));\n        _;\n    }\n    // @notice requires a new oracle to send 1 eth to be held by contract until it leaves the network\n    modifier valueEqual1Eth()\n    {\n        require(msg.value == 1 ether); // must send 1 eth that is to be held by contract\n        _;\n    }\n    // @notice requires counter to be less than number required\n    modifier orcCountLessThanNum(\n        uint256 _requestID)\n    {\n        // makes sure oracle counter is less than number of oracles required so response can be submitted\n        require(requests[_requestID].oracleCounter < requests[_requestID].numberOfOracles);\n        _;\n    }\n    // @notice requires that only the request can call the function\n    modifier onlyRequester(\n        uint256 _requestID)\n    {\n        require(msg.sender == requests[_requestID].requester);\n        _;\n    }\n\n    modifier isNotBlacklisted() {\n        require(!blacklistedOracles[msg.sender] == true);\n        _;\n    }\n    modifier aggregationTypeCheck(uint256 _aggregationType) {\n        require(1 == _aggregationType || _aggregationType == 2 );\n        _;\n    }\n    modifier elapsedTimeGT10mins(uint _elapsedTime) {\n        require(_elapsedTime > 10 minutes ); // this allows genuine time for oracles to respond..\n        _;\n    }\n    modifier withinTime(uint256 _requestID) {\n        require(block.timestamp < (timings[_requestID].timestamp + timings[_requestID].elapsedTime) );\n        _;\n    }\n    modifier timeHasElapsed(uint _requestID) {\n        require((timings[_requestID].timestamp + timings[_requestID].elapsedTime) > block.timestamp );\n        _;\n    }\n    modifier onlySubmittedCommitsOracles(uint256 _requestID) {\n        require(AggregatorContract(aggregatorAddr).getCommitFlag(_requestID) == 0\n            && AggregatorContract(aggregatorAddr).getOracleHasSubmittedCommit(_requestID, msg.sender));\n        _;\n    }\n\n    modifier onlySubmittedRevealsOracles(uint256 _requestID) {\n        require(AggregatorContract(aggregatorAddr).getCommitFlag(_requestID) == 1\n        && AggregatorContract(aggregatorAddr).getOracleHasSubmittedReveal(_requestID, msg.sender)\n        && AggregatorContract(aggregatorAddr).getRevealFlag(_requestID) == 0);\n        _;\n    }\n}\n",
  "sourcePath": "/home/willp/Documents/MSc_Computer_Science/PROJECT/Research_Code/july22_projectcode/IoToracle/contracts/OracleRequestContract.sol",
  "compiler": {
    "name": "solc",
    "version": "0.8.15+commit.e14f2714.Emscripten.clang"
  },
  "schemaVersion": "3.4.8",
  "updatedAt": "2022-08-16T20:17:54.943Z",
  "networkType": "ethereum",
  "devdoc": {
    "kind": "dev",
    "methods": {},
    "version": 1
  },
  "userdoc": {
    "kind": "user",
    "methods": {},
    "version": 1
  }
}