{
  "contractName": "OracleRequesterContract",
  "abi": [
    {
      "inputs": [],
      "stateMutability": "nonpayable",
      "type": "constructor"
    },
    {
      "anonymous": false,
      "inputs": [
        {
          "indexed": false,
          "internalType": "address",
          "name": "",
          "type": "address"
        }
      ],
      "name": "BidPlaced",
      "type": "event"
    },
    {
      "anonymous": false,
      "inputs": [
        {
          "indexed": false,
          "internalType": "uint256",
          "name": "",
          "type": "uint256"
        },
        {
          "indexed": false,
          "internalType": "bytes",
          "name": "",
          "type": "bytes"
        }
      ],
      "name": "OpenForBids",
      "type": "event"
    },
    {
      "anonymous": false,
      "inputs": [
        {
          "indexed": false,
          "internalType": "address",
          "name": "",
          "type": "address"
        },
        {
          "indexed": false,
          "internalType": "string",
          "name": "",
          "type": "string"
        }
      ],
      "name": "OracleJoined",
      "type": "event"
    },
    {
      "anonymous": false,
      "inputs": [
        {
          "indexed": false,
          "internalType": "address",
          "name": "",
          "type": "address"
        },
        {
          "indexed": false,
          "internalType": "string",
          "name": "",
          "type": "string"
        }
      ],
      "name": "OracleLeft",
      "type": "event"
    },
    {
      "anonymous": false,
      "inputs": [
        {
          "indexed": false,
          "internalType": "address",
          "name": "",
          "type": "address"
        },
        {
          "indexed": false,
          "internalType": "uint256",
          "name": "",
          "type": "uint256"
        },
        {
          "indexed": false,
          "internalType": "string",
          "name": "",
          "type": "string"
        }
      ],
      "name": "OraclePaid",
      "type": "event"
    },
    {
      "anonymous": false,
      "inputs": [
        {
          "indexed": false,
          "internalType": "uint256",
          "name": "",
          "type": "uint256"
        },
        {
          "indexed": false,
          "internalType": "bytes",
          "name": "",
          "type": "bytes"
        },
        {
          "indexed": false,
          "internalType": "bytes",
          "name": "",
          "type": "bytes"
        }
      ],
      "name": "ReleaseRequestDetails",
      "type": "event"
    },
    {
      "anonymous": false,
      "inputs": [
        {
          "indexed": false,
          "internalType": "enum OracleRequesterContract.Status",
          "name": "",
          "type": "uint8"
        },
        {
          "indexed": false,
          "internalType": "string",
          "name": "",
          "type": "string"
        }
      ],
      "name": "StatusChange",
      "type": "event"
    },
    {
      "stateMutability": "nonpayable",
      "type": "fallback"
    },
    {
      "inputs": [
        {
          "internalType": "uint256",
          "name": "",
          "type": "uint256"
        }
      ],
      "name": "completedRequests",
      "outputs": [
        {
          "internalType": "bool",
          "name": "",
          "type": "bool"
        }
      ],
      "stateMutability": "view",
      "type": "function",
      "constant": true
    },
    {
      "inputs": [
        {
          "internalType": "address",
          "name": "",
          "type": "address"
        }
      ],
      "name": "oracles",
      "outputs": [
        {
          "internalType": "bool",
          "name": "",
          "type": "bool"
        }
      ],
      "stateMutability": "view",
      "type": "function",
      "constant": true
    },
    {
      "inputs": [],
      "name": "owner",
      "outputs": [
        {
          "internalType": "address",
          "name": "",
          "type": "address"
        }
      ],
      "stateMutability": "view",
      "type": "function",
      "constant": true
    },
    {
      "inputs": [
        {
          "internalType": "uint256",
          "name": "",
          "type": "uint256"
        }
      ],
      "name": "requests",
      "outputs": [
        {
          "internalType": "uint256",
          "name": "requestID",
          "type": "uint256"
        },
        {
          "internalType": "address",
          "name": "requester",
          "type": "address"
        },
        {
          "internalType": "address",
          "name": "callbackAddress",
          "type": "address"
        },
        {
          "internalType": "bytes",
          "name": "callbackFID",
          "type": "bytes"
        },
        {
          "internalType": "bytes",
          "name": "IoTID",
          "type": "bytes"
        },
        {
          "internalType": "bytes",
          "name": "dataType",
          "type": "bytes"
        },
        {
          "internalType": "bytes32",
          "name": "pHash",
          "type": "bytes32"
        },
        {
          "internalType": "uint32",
          "name": "numberOfOracles",
          "type": "uint32"
        },
        {
          "internalType": "uint32",
          "name": "oracleCounter",
          "type": "uint32"
        },
        {
          "internalType": "enum OracleRequesterContract.Status",
          "name": "status",
          "type": "uint8"
        },
        {
          "internalType": "uint8",
          "name": "cancelFlag",
          "type": "uint8"
        },
        {
          "internalType": "uint256",
          "name": "fee",
          "type": "uint256"
        }
      ],
      "stateMutability": "view",
      "type": "function",
      "constant": true
    },
    {
      "inputs": [],
      "name": "joinAsOracle",
      "outputs": [
        {
          "internalType": "bool",
          "name": "",
          "type": "bool"
        }
      ],
      "stateMutability": "payable",
      "type": "function",
      "payable": true
    },
    {
      "inputs": [],
      "name": "leaveOracleNetwork",
      "outputs": [
        {
          "internalType": "bool",
          "name": "",
          "type": "bool"
        }
      ],
      "stateMutability": "nonpayable",
      "type": "function"
    },
    {
      "inputs": [
        {
          "internalType": "address",
          "name": "_callbackAddress",
          "type": "address"
        },
        {
          "internalType": "bytes",
          "name": "_callbackFID",
          "type": "bytes"
        },
        {
          "internalType": "bytes",
          "name": "_IoTID",
          "type": "bytes"
        },
        {
          "internalType": "bytes",
          "name": "_dataType",
          "type": "bytes"
        },
        {
          "internalType": "bytes",
          "name": "_requiredResult",
          "type": "bytes"
        },
        {
          "internalType": "uint32",
          "name": "_numberOfOracles",
          "type": "uint32"
        }
      ],
      "name": "createRequest",
      "outputs": [
        {
          "internalType": "uint256",
          "name": "",
          "type": "uint256"
        }
      ],
      "stateMutability": "payable",
      "type": "function",
      "payable": true
    },
    {
      "inputs": [
        {
          "internalType": "uint256",
          "name": "_requestID",
          "type": "uint256"
        }
      ],
      "name": "placeBid",
      "outputs": [
        {
          "internalType": "bool",
          "name": "",
          "type": "bool"
        }
      ],
      "stateMutability": "nonpayable",
      "type": "function"
    },
    {
      "inputs": [
        {
          "internalType": "uint256",
          "name": "_requestID",
          "type": "uint256"
        },
        {
          "internalType": "bytes",
          "name": "_finalResult",
          "type": "bytes"
        },
        {
          "internalType": "address[]",
          "name": "_correctOracles",
          "type": "address[]"
        }
      ],
      "name": "deliverResponse",
      "outputs": [],
      "stateMutability": "nonpayable",
      "type": "function"
    },
    {
      "inputs": [
        {
          "internalType": "uint256",
          "name": "_requestID",
          "type": "uint256"
        }
      ],
      "name": "cancelRequest",
      "outputs": [],
      "stateMutability": "nonpayable",
      "type": "function"
    },
    {
      "inputs": [
        {
          "internalType": "uint256",
          "name": "_requestID",
          "type": "uint256"
        },
        {
          "internalType": "address",
          "name": "_orcAddr",
          "type": "address"
        }
      ],
      "name": "getOracleForRequest",
      "outputs": [
        {
          "internalType": "bool",
          "name": "",
          "type": "bool"
        }
      ],
      "stateMutability": "view",
      "type": "function",
      "constant": true
    },
    {
      "inputs": [
        {
          "internalType": "uint256",
          "name": "_requestID",
          "type": "uint256"
        }
      ],
      "name": "getNumberOfOracles",
      "outputs": [
        {
          "internalType": "uint32",
          "name": "",
          "type": "uint32"
        }
      ],
      "stateMutability": "view",
      "type": "function",
      "constant": true
    },
    {
      "inputs": [
        {
          "internalType": "uint256",
          "name": "_requestID",
          "type": "uint256"
        }
      ],
      "name": "getPHash",
      "outputs": [
        {
          "internalType": "bytes32",
          "name": "",
          "type": "bytes32"
        }
      ],
      "stateMutability": "view",
      "type": "function",
      "constant": true
    },
    {
      "inputs": [
        {
          "internalType": "uint256",
          "name": "_requestID",
          "type": "uint256"
        }
      ],
      "name": "getDataType",
      "outputs": [
        {
          "internalType": "bytes",
          "name": "",
          "type": "bytes"
        }
      ],
      "stateMutability": "view",
      "type": "function",
      "constant": true
    }
  ],
  "bytecode": "0x608060405260016104b25560016104b3556404a817c8006104b85560026104b8546200002c9190620000e3565b6104b95560036104b854620000429190620000e3565b6104b95462000052919062000144565b6104ba553480156200006357600080fd5b50336000806101000a81548173ffffffffffffffffffffffffffffffffffffffff021916908373ffffffffffffffffffffffffffffffffffffffff160217905550620001a1565b6000819050919050565b7f4e487b7100000000000000000000000000000000000000000000000000000000600052601160045260246000fd5b6000620000f082620000aa565b9150620000fd83620000aa565b9250817fffffffffffffffffffffffffffffffffffffffffffffffffffffffffffffffff0483118215151615620001395762000138620000b4565b5b828202905092915050565b60006200015182620000aa565b91506200015e83620000aa565b9250827fffffffffffffffffffffffffffffffffffffffffffffffffffffffffffffffff03821115620001965762000195620000b4565b5b828201905092915050565b61271280620001b16000396000f3fe6080604052600436106100e15760003560e01c8063950e1da91161007f578063a08702f311610059578063a08702f3146102f7578063a37b354d14610322578063addd50991461035f578063f0fbfbf31461039c576100e2565b8063950e1da9146102735780639979ef45146102915780639fbcc555146102ce576100e2565b8063829c22fd116100bb578063829c22fd1461019e5780638979a3c2146101db5780638da5cb5b1461020b57806391a3632a14610236576100e2565b80633015394c146100f057806357442e791461011957806381d12c5814610156576100e2565b5b3480156100ee57600080fd5b005b3480156100fc57600080fd5b50610117600480360381019061011291906116a6565b6103d9565b005b34801561012557600080fd5b50610140600480360381019061013b91906116a6565b610503565b60405161014d919061176c565b60405180910390f35b34801561016257600080fd5b5061017d600480360381019061017891906116a6565b6105b0565b6040516101959c9b9a999897969594939291906118a9565b60405180910390f35b3480156101aa57600080fd5b506101c560048036038101906101c091906116a6565b610828565b6040516101d29190611978565b60405180910390f35b6101f560048036038101906101f09190611b20565b61084d565b6040516102029190611c1d565b60405180910390f35b34801561021757600080fd5b50610220610c23565b60405161022d9190611c38565b60405180910390f35b34801561024257600080fd5b5061025d600480360381019061025891906116a6565b610c47565b60405161026a9190611c53565b60405180910390f35b61027b610c7c565b6040516102889190611c89565b60405180910390f35b34801561029d57600080fd5b506102b860048036038101906102b391906116a6565b610dd3565b6040516102c59190611c89565b60405180910390f35b3480156102da57600080fd5b506102f560048036038101906102f09190611d6c565b6111d0565b005b34801561030357600080fd5b5061030c611463565b6040516103199190611c89565b60405180910390f35b34801561032e57600080fd5b5061034960048036038101906103449190611df7565b6115a0565b6040516103569190611c89565b60405180910390f35b34801561036b57600080fd5b5061038660048036038101906103819190611e37565b611610565b6040516103939190611c89565b60405180910390f35b3480156103a857600080fd5b506103c360048036038101906103be91906116a6565b611631565b6040516103d09190611c89565b60405180910390f35b803373ffffffffffffffffffffffffffffffffffffffff166001826064811061040557610404611e64565b5b600c020160020160009054906101000a900473ffffffffffffffffffffffffffffffffffffffff1673ffffffffffffffffffffffffffffffffffffffff161461044d57600080fd5b8160006001826064811061046457610463611e64565b5b600c0201600a0160059054906101000a900460ff1660ff161461048657600080fd5b600180846064811061049b5761049a611e64565b5b600c0201600a0160056101000a81548160ff021916908360ff1602179055506002600184606481106104d0576104cf611e64565b5b600c0201600a0160046101000a81548160ff021916908360028111156104f9576104f8611816565b5b0217905550505050565b60606001826064811061051957610518611e64565b5b600c0201600501805461052b90611ec2565b80601f016020809104026020016040519081016040528092919081815260200182805461055790611ec2565b80156105a45780601f10610579576101008083540402835291602001916105a4565b820191906000526020600020905b81548152906001019060200180831161058757829003601f168201915b50505050509050919050565b600181606481106105c057600080fd5b600c02016000915090508060000154908060010160009054906101000a900473ffffffffffffffffffffffffffffffffffffffff16908060020160009054906101000a900473ffffffffffffffffffffffffffffffffffffffff169080600301805461062b90611ec2565b80601f016020809104026020016040519081016040528092919081815260200182805461065790611ec2565b80156106a45780601f10610679576101008083540402835291602001916106a4565b820191906000526020600020905b81548152906001019060200180831161068757829003601f168201915b5050505050908060040180546106b990611ec2565b80601f01602080910402602001604051908101604052809291908181526020018280546106e590611ec2565b80156107325780601f1061070757610100808354040283529160200191610732565b820191906000526020600020905b81548152906001019060200180831161071557829003601f168201915b50505050509080600501805461074790611ec2565b80601f016020809104026020016040519081016040528092919081815260200182805461077390611ec2565b80156107c05780601f10610795576101008083540402835291602001916107c0565b820191906000526020600020905b8154815290600101906020018083116107a357829003601f168201915b5050505050908060060154908060070160009054906101000a900463ffffffff169080600a0160009054906101000a900463ffffffff169080600a0160049054906101000a900460ff169080600a0160059054906101000a900460ff169080600b015490508c565b60006001826064811061083e5761083d611e64565b5b600c0201600601549050919050565b60006104ba5434101561085f57600080fd5b600060028361086e9190611f22565b63ffffffff160361087e57600080fd5b60006104b2549050806001826064811061089b5761089a611e64565b5b600c02016000018190555033600182606481106108bb576108ba611e64565b5b600c020160010160006101000a81548173ffffffffffffffffffffffffffffffffffffffff021916908373ffffffffffffffffffffffffffffffffffffffff160217905550876001826064811061091557610914611e64565b5b600c020160020160006101000a81548173ffffffffffffffffffffffffffffffffffffffff021916908373ffffffffffffffffffffffffffffffffffffffff160217905550866001826064811061096f5761096e611e64565b5b600c0201600301908161098291906120ff565b50856001826064811061099857610997611e64565b5b600c020160040190816109ab91906120ff565b5084600182606481106109c1576109c0611e64565b5b600c020160050190816109d491906120ff565b5082600182606481106109ea576109e9611e64565b5b600c020160070160006101000a81548163ffffffff021916908363ffffffff160217905550600060018260648110610a2557610a24611e64565b5b600c0201600a0160006101000a81548163ffffffff021916908363ffffffff160217905550600060018260648110610a6057610a5f611e64565b5b600c0201600a0160046101000a81548160ff02191690836002811115610a8957610a88611816565b5b0217905550600060018260648110610aa457610aa3611e64565b5b600c0201600a0160056101000a81548160ff021916908360ff1602179055503460018260648110610ad857610ad7611e64565b5b600c0201600b01819055507f346e0fa9e112a7376778dcb0fe0fdfe51db577b3d0b1592a40266db0b192f82260018260648110610b1857610b17611e64565b5b600c0201600a0160049054906101000a900460ff16604051610b3a919061222e565b60405180910390a160008585604051602001610b57929190612298565b6040516020818303038152906040528051906020012090508060018360648110610b8457610b83611e64565b5b600c0201600601819055506104b26000815480929190610ba3906122eb565b91905055506104b36000815480929190610bbc906122eb565b91905055507f9fa3818a0bcd92e6bdf76b585ed9feea4ad7d3467dc3770c2af818d43f9581a58260018460648110610bf757610bf6611e64565b5b600c0201600501604051610c0c9291906123b7565b60405180910390a181925050509695505050505050565b60008054906101000a900473ffffffffffffffffffffffffffffffffffffffff1681565b600060018260648110610c5d57610c5c611e64565b5b600c020160070160009054906101000a900463ffffffff169050919050565b6000600115156104b160003373ffffffffffffffffffffffffffffffffffffffff1673ffffffffffffffffffffffffffffffffffffffff16815260200190815260200160002060009054906101000a900460ff16151503610cdc57600080fd5b670de0b6b3a76400003414610cf057600080fd5b60016104b160003373ffffffffffffffffffffffffffffffffffffffff1673ffffffffffffffffffffffffffffffffffffffff16815260200190815260200160002060006101000a81548160ff0219169083151502179055507f2d62108771d82d92634e2d038b6c7f09290edfee5b1443e25299f04a0cfbca7233604051610d789190612433565b60405180910390a16104b160003373ffffffffffffffffffffffffffffffffffffffff1673ffffffffffffffffffffffffffffffffffffffff16815260200190815260200160002060009054906101000a900460ff16905090565b6000600115156104b160003373ffffffffffffffffffffffffffffffffffffffff1673ffffffffffffffffffffffffffffffffffffffff16815260200190815260200160002060009054906101000a900460ff16151514610e3357600080fd5b81600060018260648110610e4a57610e49611e64565b5b600c0201600a0160059054906101000a900460ff1660ff1614610e6c57600080fd5b60018360648110610e8057610e7f611e64565b5b600c020160070160009054906101000a900463ffffffff1663ffffffff1660018460648110610eb257610eb1611e64565b5b600c0201600a0160009054906101000a900463ffffffff1663ffffffff1610610eda57600080fd5b6001808460648110610eef57610eee611e64565b5b600c020160080160003373ffffffffffffffffffffffffffffffffffffffff1673ffffffffffffffffffffffffffffffffffffffff16815260200190815260200160002060006101000a81548160ff0219169083151502179055503360018460648110610f5f57610f5e611e64565b5b600c0201600901600060018660648110610f7c57610f7b611e64565b5b600c0201600a0160009054906101000a900463ffffffff1663ffffffff1663ffffffff16815260200190815260200160002060006101000a81548173ffffffffffffffffffffffffffffffffffffffff021916908373ffffffffffffffffffffffffffffffffffffffff1602179055506001836064811061100057610fff611e64565b5b600c0201600a01600081819054906101000a900463ffffffff168092919061102790612461565b91906101000a81548163ffffffff021916908363ffffffff160217905550507fe677a6b9a16a696674f50d2c98a1ce8c5cb51d6b48a0223412c512bbc93664d5336040516110759190611c38565b60405180910390a16001836064811061109157611090611e64565b5b600c0201600a0160009054906101000a900463ffffffff1663ffffffff16600184606481106110c3576110c2611e64565b5b600c020160070160009054906101000a900463ffffffff1663ffffffff1603611179577f2510e6950be86d6001a0b1229da4c21fa8e26b6bcf345d0b348fe42894fceb036001846064811061111b5761111a611e64565b5b600c0201600001546001856064811061113757611136611e64565b5b600c02016004016001866064811061115257611151611e64565b5b600c02016005016040516111689392919061248d565b60405180910390a1600191506111ca565b6104b160003373ffffffffffffffffffffffffffffffffffffffff1673ffffffffffffffffffffffffffffffffffffffff16815260200190815260200160002060009054906101000a900460ff1691505b50919050565b826000600182606481106111e7576111e6611e64565b5b600c0201600a0160059054906101000a900460ff1660ff161461120957600080fd5b60006001856064811061121f5761121e611e64565b5b600c020160070160009054906101000a900463ffffffff1663ffffffff166001866064811061125157611250611e64565b5b600c0201600b015461126391906124d2565b905060005b835181101561136a577f88fa4dc6dc84fb056628ddf02c361252f313bcdd951c9d28e3b628bffac8ab558482815181106112a5576112a4611e64565b5b6020026020010151836040516112bc92919061254f565b60405180910390a18381815181106112d7576112d6611e64565b5b602002602001015173ffffffffffffffffffffffffffffffffffffffff166108fc839081150290604051600060405180830381858888f19350505050158015611324573d6000803e3d6000fd5b50816001876064811061133a57611339611e64565b5b600c0201600b016000828254611350919061258b565b925050819055508080611362906122eb565b915050611268565b5060018086606481106113805761137f611e64565b5b600c0201600a0160046101000a81548160ff021916908360028111156113a9576113a8611816565b5b021790555060016104b486606481106113c5576113c4611e64565b5b602091828204019190066101000a81548160ff0219169083151502179055507f346e0fa9e112a7376778dcb0fe0fdfe51db577b3d0b1592a40266db0b192f8226001866064811061141957611418611e64565b5b600c0201600a0160049054906101000a900460ff1660405161143b919061260b565b60405180910390a16104b3600081548092919061145790612639565b91905055505050505050565b6000600115156104b160003373ffffffffffffffffffffffffffffffffffffffff1673ffffffffffffffffffffffffffffffffffffffff16815260200190815260200160002060009054906101000a900460ff161515146114c357600080fd5b6104b160003373ffffffffffffffffffffffffffffffffffffffff1673ffffffffffffffffffffffffffffffffffffffff16815260200190815260200160002060006101000a81549060ff02191690553373ffffffffffffffffffffffffffffffffffffffff166108fc670de0b6b3a76400009081150290604051600060405180830381858888f19350505050158015611561573d6000803e3d6000fd5b507f14951d787e2aaf7813982720871de23d576e7d935c0587e12a7fc2c4c960165a3360405161159191906126ae565b60405180910390a16001905090565b6000600183606481106115b6576115b5611e64565b5b600c020160080160008373ffffffffffffffffffffffffffffffffffffffff1673ffffffffffffffffffffffffffffffffffffffff16815260200190815260200160002060009054906101000a900460ff16905092915050565b6104b16020528060005260406000206000915054906101000a900460ff1681565b6104b4816064811061164257600080fd5b60209182820401919006915054906101000a900460ff1681565b6000604051905090565b600080fd5b600080fd5b6000819050919050565b61168381611670565b811461168e57600080fd5b50565b6000813590506116a08161167a565b92915050565b6000602082840312156116bc576116bb611666565b5b60006116ca84828501611691565b91505092915050565b600081519050919050565b600082825260208201905092915050565b60005b8381101561170d5780820151818401526020810190506116f2565b8381111561171c576000848401525b50505050565b6000601f19601f8301169050919050565b600061173e826116d3565b61174881856116de565b93506117588185602086016116ef565b61176181611722565b840191505092915050565b600060208201905081810360008301526117868184611733565b905092915050565b61179781611670565b82525050565b600073ffffffffffffffffffffffffffffffffffffffff82169050919050565b60006117c88261179d565b9050919050565b6117d8816117bd565b82525050565b6000819050919050565b6117f1816117de565b82525050565b600063ffffffff82169050919050565b611810816117f7565b82525050565b7f4e487b7100000000000000000000000000000000000000000000000000000000600052602160045260246000fd5b6003811061185657611855611816565b5b50565b600081905061186782611845565b919050565b600061187782611859565b9050919050565b6118878161186c565b82525050565b600060ff82169050919050565b6118a38161188d565b82525050565b6000610180820190506118bf600083018f61178e565b6118cc602083018e6117cf565b6118d9604083018d6117cf565b81810360608301526118eb818c611733565b905081810360808301526118ff818b611733565b905081810360a0830152611913818a611733565b905061192260c08301896117e8565b61192f60e0830188611807565b61193d610100830187611807565b61194b61012083018661187e565b61195961014083018561189a565b61196761016083018461178e565b9d9c50505050505050505050505050565b600060208201905061198d60008301846117e8565b92915050565b61199c816117bd565b81146119a757600080fd5b50565b6000813590506119b981611993565b92915050565b600080fd5b600080fd5b7f4e487b7100000000000000000000000000000000000000000000000000000000600052604160045260246000fd5b611a0182611722565b810181811067ffffffffffffffff82111715611a2057611a1f6119c9565b5b80604052505050565b6000611a3361165c565b9050611a3f82826119f8565b919050565b600067ffffffffffffffff821115611a5f57611a5e6119c9565b5b611a6882611722565b9050602081019050919050565b82818337600083830152505050565b6000611a97611a9284611a44565b611a29565b905082815260208101848484011115611ab357611ab26119c4565b5b611abe848285611a75565b509392505050565b600082601f830112611adb57611ada6119bf565b5b8135611aeb848260208601611a84565b91505092915050565b611afd816117f7565b8114611b0857600080fd5b50565b600081359050611b1a81611af4565b92915050565b60008060008060008060c08789031215611b3d57611b3c611666565b5b6000611b4b89828a016119aa565b965050602087013567ffffffffffffffff811115611b6c57611b6b61166b565b5b611b7889828a01611ac6565b955050604087013567ffffffffffffffff811115611b9957611b9861166b565b5b611ba589828a01611ac6565b945050606087013567ffffffffffffffff811115611bc657611bc561166b565b5b611bd289828a01611ac6565b935050608087013567ffffffffffffffff811115611bf357611bf261166b565b5b611bff89828a01611ac6565b92505060a0611c1089828a01611b0b565b9150509295509295509295565b6000602082019050611c32600083018461178e565b92915050565b6000602082019050611c4d60008301846117cf565b92915050565b6000602082019050611c686000830184611807565b92915050565b60008115159050919050565b611c8381611c6e565b82525050565b6000602082019050611c9e6000830184611c7a565b92915050565b600067ffffffffffffffff821115611cbf57611cbe6119c9565b5b602082029050602081019050919050565b600080fd5b6000611ce8611ce384611ca4565b611a29565b90508083825260208201905060208402830185811115611d0b57611d0a611cd0565b5b835b81811015611d345780611d2088826119aa565b845260208401935050602081019050611d0d565b5050509392505050565b600082601f830112611d5357611d526119bf565b5b8135611d63848260208601611cd5565b91505092915050565b600080600060608486031215611d8557611d84611666565b5b6000611d9386828701611691565b935050602084013567ffffffffffffffff811115611db457611db361166b565b5b611dc086828701611ac6565b925050604084013567ffffffffffffffff811115611de157611de061166b565b5b611ded86828701611d3e565b9150509250925092565b60008060408385031215611e0e57611e0d611666565b5b6000611e1c85828601611691565b9250506020611e2d858286016119aa565b9150509250929050565b600060208284031215611e4d57611e4c611666565b5b6000611e5b848285016119aa565b91505092915050565b7f4e487b7100000000000000000000000000000000000000000000000000000000600052603260045260246000fd5b7f4e487b7100000000000000000000000000000000000000000000000000000000600052602260045260246000fd5b60006002820490506001821680611eda57607f821691505b602082108103611eed57611eec611e93565b5b50919050565b7f4e487b7100000000000000000000000000000000000000000000000000000000600052601260045260246000fd5b6000611f2d826117f7565b9150611f38836117f7565b925082611f4857611f47611ef3565b5b828206905092915050565b60008190508160005260206000209050919050565b60006020601f8301049050919050565b600082821b905092915050565b600060088302611fb57fffffffffffffffffffffffffffffffffffffffffffffffffffffffffffffffff82611f78565b611fbf8683611f78565b95508019841693508086168417925050509392505050565b6000819050919050565b6000611ffc611ff7611ff284611670565b611fd7565b611670565b9050919050565b6000819050919050565b61201683611fe1565b61202a61202282612003565b848454611f85565b825550505050565b600090565b61203f612032565b61204a81848461200d565b505050565b5b8181101561206e57612063600082612037565b600181019050612050565b5050565b601f8211156120b35761208481611f53565b61208d84611f68565b8101602085101561209c578190505b6120b06120a885611f68565b83018261204f565b50505b505050565b600082821c905092915050565b60006120d6600019846008026120b8565b1980831691505092915050565b60006120ef83836120c5565b9150826002028217905092915050565b612108826116d3565b67ffffffffffffffff811115612121576121206119c9565b5b61212b8254611ec2565b612136828285612072565b600060209050601f8311600181146121695760008415612157578287015190505b61216185826120e3565b8655506121c9565b601f19841661217786611f53565b60005b8281101561219f5784890151825560018201915060208501945060208101905061217a565b868310156121bc57848901516121b8601f8916826120c5565b8355505b6001600288020188555050505b505050505050565b600082825260208201905092915050565b7f50454e44494e4700000000000000000000000000000000000000000000000000600082015250565b60006122186007836121d1565b9150612223826121e2565b602082019050919050565b6000604082019050612243600083018461187e565b81810360208301526122548161220b565b905092915050565b600081905092915050565b6000612272826116d3565b61227c818561225c565b935061228c8185602086016116ef565b80840191505092915050565b60006122a48285612267565b91506122b08284612267565b91508190509392505050565b7f4e487b7100000000000000000000000000000000000000000000000000000000600052601160045260246000fd5b60006122f682611670565b91507fffffffffffffffffffffffffffffffffffffffffffffffffffffffffffffffff8203612328576123276122bc565b5b600182019050919050565b6000815461234081611ec2565b61234a81866116de565b94506001821660008114612365576001811461237b576123ae565b60ff1983168652811515602002860193506123ae565b61238485611f53565b60005b838110156123a657815481890152600182019150602081019050612387565b808801955050505b50505092915050565b60006040820190506123cc600083018561178e565b81810360208301526123de8184612333565b90509392505050565b7f57656c636f6d65206e6577206e6f646521000000000000000000000000000000600082015250565b600061241d6011836121d1565b9150612428826123e7565b602082019050919050565b600060408201905061244860008301846117cf565b818103602083015261245981612410565b905092915050565b600061246c826117f7565b915063ffffffff8203612482576124816122bc565b5b600182019050919050565b60006060820190506124a2600083018661178e565b81810360208301526124b48185612333565b905081810360408301526124c88184612333565b9050949350505050565b60006124dd82611670565b91506124e883611670565b9250826124f8576124f7611ef3565b5b828204905092915050565b7f4f7261636c6520686173206265656e2050616964210000000000000000000000600082015250565b60006125396015836121d1565b915061254482612503565b602082019050919050565b600060608201905061256460008301856117cf565b612571602083018461178e565b81810360408301526125828161252c565b90509392505050565b600061259682611670565b91506125a183611670565b9250828210156125b4576125b36122bc565b5b828203905092915050565b7f434f4d504c455445000000000000000000000000000000000000000000000000600082015250565b60006125f56008836121d1565b9150612600826125bf565b602082019050919050565b6000604082019050612620600083018461187e565b8181036020830152612631816125e8565b905092915050565b600061264482611670565b915060008203612657576126566122bc565b5b600182039050919050565b7f4e6f646520686173206c6566742c20476f6f6462796500000000000000000000600082015250565b60006126986016836121d1565b91506126a382612662565b602082019050919050565b60006040820190506126c360008301846117cf565b81810360208301526126d48161268b565b90509291505056fea2646970667358221220d6b77e3b62500b101aaa8e7d8be91f522435414f7ae41fbeff888b78d8f5d41064736f6c634300080f0033",
  "immutableReferences": {},
  "source": "// SPDX-License-Identifier: MIT\npragma solidity ^0.8.0;\n\nimport \"./AggregatorContract.sol\";\n\ncontract OracleRequesterContract {\n    //\n\n    address public owner;\n\n    Request[100] public requests;\n    mapping (address => bool) public oracles;\n    uint requestCounter = 1;\n    uint pendingCounter = 1;\n    enum Status{PENDING, COMPLETE, CANCELLED}\n    // a single Request structure\n    struct Request {\n        uint256 requestID;\n        address requester;\n        address callbackAddress;\n        bytes callbackFID;\n        bytes IoTID;\n        bytes dataType;\n        bytes32 pHash;\n        //bytes requiredResult;\n        uint32 numberOfOracles;\n        mapping (address => bool) oraclesForRequest;\n        mapping (uint32 => address) oracleAddressAccess;\n        uint32 oracleCounter;\n        Status status;\n        uint8 cancelFlag;\n        uint fee;\n    }\n    bool[100] public completedRequests;\n\n    event OpenForBids(uint256, bytes);\n    event BidPlaced(address);\n    event ReleaseRequestDetails(uint256, bytes, bytes);\n    event StatusChange(Status, string);\n    event OracleJoined(address, string);\n    event OracleLeft(address, string);\n    event OraclePaid(address, uint, string);\n\n    uint GAS_PRICE = 2 * 10**10;\n    uint FEE = GAS_PRICE * 2;\n    uint MIN_FEE = FEE + (GAS_PRICE * 3);\n\n\n    constructor() {\n        owner = msg.sender;\n\n    }\n\n    fallback() external{}\n\n    function joinAsOracle() public payable oracleNotJoined() returns(bool){\n        require(msg.value == 10**18);\n        oracles[address(msg.sender)] = true;\n        emit OracleJoined(msg.sender, \"Welcome new node!\");\n        return oracles[address(msg.sender)];\n    }\n\n    function leaveOracleNetwork() public oracleHasJoined() returns(bool) {\n        delete oracles[msg.sender];\n        payable(msg.sender).transfer(10**18);\n        emit OracleLeft(msg.sender, \"Node has left, Goodbye\");\n        return true;\n    }\n\n    // @notice user can call function create request\n    // @dev\n    // @param _callbackAddress could be different to address that called the function\n    // @param _callbackFID a particular function in a smart contract that is needed to be called based on request\n    // @param _IoTID the identifier of the IoT device oracle node will be subscribing to\n    // @param _dataType, true false answer, an event, continuous data over time?\n    // @param _requiredResult what is needed from IoT device\n    // @param _numberOfOracles number of oracle nodes that fetch IoT data\n    // @return the requestID so the user can keep track of request\n    function createRequest(\n        address _callbackAddress,\n        bytes memory _callbackFID,\n        bytes memory _IoTID,\n        bytes memory _dataType,\n        bytes memory _requiredResult,\n        uint32 _numberOfOracles) external payable returns(uint256) {\n        // require msg.value has enough to pay oracles for each function call\n        require(msg.value >= MIN_FEE);\n        // makes sure the number that there is always an odd number of oracles so a majority can be reached.\n        require(!(_numberOfOracles % 2 == 0));\n        // assign id to request\n        uint256 requestID = requestCounter;\n        // log details of the request to array to cross reference later\n        requests[requestID].requestID = requestID;\n        requests[requestID].requester = msg.sender;\n        requests[requestID].callbackAddress = _callbackAddress;\n        requests[requestID].callbackFID = _callbackFID;\n        requests[requestID].IoTID = _IoTID;\n        requests[requestID].dataType = _dataType;\n        //requests[requestId].requiredResult = _requiredResult; // do not need to store result put in a hash?\n        requests[requestID].numberOfOracles = _numberOfOracles;\n        requests[requestID].oracleCounter = 0;\n\n        requests[requestID].status = Status.PENDING;\n        requests[requestID].cancelFlag = 0;\n        requests[requestID].fee = msg.value;\n        emit StatusChange(requests[requestID].status, \"PENDING\");\n\n\n        // create a hash of the _dataType and _requiredResult:\n        // we will use the actual result to test upon delivery.\n        bytes32 phash = keccak256(abi.encodePacked(_dataType, _requiredResult)); // add required result to hash\n        requests[requestID].pHash = phash;\n        // increment requestId ready for next create request function.\n\n        requestCounter++;\n        pendingCounter++;\n\n        emit OpenForBids(requestID, requests[requestID].dataType);\n\n        return requestID;\n    }\n\n    // @notice off-chain oracle node places bid to fetch data, once threshold is reached, emits event details.\n    // @dev\n    // @param requestId oracle node wishes to bid on\n    // @return true to indicate bid successful\n    function placeBid(uint256 _requestID) public oracleHasJoined() cancelFlagZero(_requestID) returns(bool)  {\n        require(requests[_requestID].oracleCounter < requests[_requestID].numberOfOracles);\n        requests[_requestID].oraclesForRequest[msg.sender] = true;\n        requests[_requestID].oracleAddressAccess[requests[_requestID].oracleCounter] = address(msg.sender);\n        requests[_requestID].oracleCounter++;\n\n        // also add a timeout\n        emit BidPlaced(msg.sender);\n        if (requests[_requestID].numberOfOracles == requests[_requestID].oracleCounter) {\n            emit ReleaseRequestDetails(requests[_requestID].requestID,\n                requests[_requestID].IoTID,\n                requests[_requestID].dataType);\n            return true;\n        }\n        return oracles[msg.sender];\n    }\n\n    //\n\n    // function deliveryResponse() {} returns result to user smart contract\n    function deliverResponse(uint256 _requestID, bytes memory _finalResult, address[] memory _correctOracles) public cancelFlagZero(_requestID) {\n        // return single aggregation result\n        _finalResult;\n        uint fee = requests[_requestID].fee / (requests[_requestID].numberOfOracles);\n        // pay fees\n        for (uint i=0; i<_correctOracles.length; i++) {\n            // pay each share to each oracle\n            emit OraclePaid(_correctOracles[i], fee, \"Oracle has been Paid!\");\n            payable(_correctOracles[i]).transfer(fee);\n            requests[_requestID].fee -= fee;\n        }\n        requests[_requestID].status = Status.COMPLETE;\n        completedRequests[_requestID] = true;\n        emit StatusChange(requests[_requestID].status, \"COMPLETE\");\n        pendingCounter--;\n    }\n\n    function cancelRequest(uint256 _requestID) external\n    cancelCheck(_requestID)\n    cancelFlagZero(_requestID){\n        requests[_requestID].cancelFlag = 1;\n        requests[_requestID].status = Status.CANCELLED;\n        //AggregatorContract(_aggAddr).cancelRequest(_requestID);\n    }\n\n    // getters\n    function getOracleForRequest(uint256 _requestID, address _orcAddr) external view returns(bool){\n        return requests[_requestID].oraclesForRequest[_orcAddr];\n    }\n    function getNumberOfOracles(uint256 _requestID) external view returns(uint32){\n        return requests[_requestID].numberOfOracles;\n    }\n    function getPHash(uint256 _requestID) external view returns(bytes32){\n        return requests[_requestID].pHash;\n    }\n    function getDataType(uint256 _requestID) external view returns(bytes memory) {\n        return requests[_requestID].dataType;\n    }\n\n    // @notice modifier to confirm calling address is an oracle node address already acknowledged\n    modifier oracleHasJoined() {\n        require(oracles[msg.sender] == true);\n        _;\n    }\n    // @notice modifier to confirm calling address is not yet an oracle node address acknowledged\n    modifier oracleNotJoined() {\n        require(oracles[msg.sender] != true);\n        _;\n    }\n    //\n    modifier cancelFlagZero(uint256 _requestID) {\n        require(requests[_requestID].cancelFlag == 0);\n        _;\n    }\n\n    modifier cancelCheck(uint256 _requestID) {\n        require(requests[_requestID].callbackAddress == msg.sender);\n        _;\n    }\n\n\n}\n",
  "sourcePath": "/home/willp/Documents/MSc_Computer_Science/PROJECT/Research_Code/july22_projectcode/IoToracle/contracts/OracleRequesterContract.sol",
  "compiler": {
    "name": "solc",
    "version": "0.8.15+commit.e14f2714.Emscripten.clang"
  },
  "schemaVersion": "3.4.8",
  "updatedAt": "2022-07-25T16:40:44.324Z",
  "networkType": "ethereum",
  "devdoc": {
    "kind": "dev",
    "methods": {},
    "version": 1
  },
  "userdoc": {
    "kind": "user",
    "methods": {},
    "version": 1
  }
}