{
  "contractName": "OracleRequestContract",
  "abi": [
    {
      "inputs": [],
      "stateMutability": "nonpayable",
      "type": "constructor"
    },
    {
      "anonymous": false,
      "inputs": [
        {
          "indexed": false,
          "internalType": "address",
          "name": "",
          "type": "address"
        }
      ],
      "name": "BidPlaced",
      "type": "event"
    },
    {
      "anonymous": false,
      "inputs": [
        {
          "indexed": false,
          "internalType": "uint256",
          "name": "",
          "type": "uint256"
        },
        {
          "indexed": false,
          "internalType": "bytes",
          "name": "",
          "type": "bytes"
        }
      ],
      "name": "OpenForBids",
      "type": "event"
    },
    {
      "anonymous": false,
      "inputs": [
        {
          "indexed": false,
          "internalType": "address",
          "name": "",
          "type": "address"
        },
        {
          "indexed": false,
          "internalType": "string",
          "name": "",
          "type": "string"
        }
      ],
      "name": "OracleJoined",
      "type": "event"
    },
    {
      "anonymous": false,
      "inputs": [
        {
          "indexed": false,
          "internalType": "address",
          "name": "",
          "type": "address"
        },
        {
          "indexed": false,
          "internalType": "string",
          "name": "",
          "type": "string"
        }
      ],
      "name": "OracleLeft",
      "type": "event"
    },
    {
      "anonymous": false,
      "inputs": [
        {
          "indexed": false,
          "internalType": "address",
          "name": "",
          "type": "address"
        },
        {
          "indexed": false,
          "internalType": "uint256",
          "name": "",
          "type": "uint256"
        },
        {
          "indexed": false,
          "internalType": "string",
          "name": "",
          "type": "string"
        }
      ],
      "name": "OraclePaid",
      "type": "event"
    },
    {
      "anonymous": false,
      "inputs": [
        {
          "indexed": false,
          "internalType": "uint256",
          "name": "",
          "type": "uint256"
        },
        {
          "indexed": false,
          "internalType": "bytes",
          "name": "",
          "type": "bytes"
        },
        {
          "indexed": false,
          "internalType": "bytes",
          "name": "",
          "type": "bytes"
        }
      ],
      "name": "ReleaseRequestDetails",
      "type": "event"
    },
    {
      "anonymous": false,
      "inputs": [
        {
          "indexed": false,
          "internalType": "enum OracleRequestContract.Status",
          "name": "",
          "type": "uint8"
        },
        {
          "indexed": false,
          "internalType": "string",
          "name": "",
          "type": "string"
        }
      ],
      "name": "StatusChange",
      "type": "event"
    },
    {
      "stateMutability": "nonpayable",
      "type": "fallback"
    },
    {
      "inputs": [],
      "name": "aggregatorAddr",
      "outputs": [
        {
          "internalType": "address",
          "name": "",
          "type": "address"
        }
      ],
      "stateMutability": "view",
      "type": "function",
      "constant": true
    },
    {
      "inputs": [
        {
          "internalType": "uint256",
          "name": "",
          "type": "uint256"
        }
      ],
      "name": "completedRequests",
      "outputs": [
        {
          "internalType": "bool",
          "name": "",
          "type": "bool"
        }
      ],
      "stateMutability": "view",
      "type": "function",
      "constant": true
    },
    {
      "inputs": [
        {
          "internalType": "address",
          "name": "",
          "type": "address"
        }
      ],
      "name": "oracles",
      "outputs": [
        {
          "internalType": "bool",
          "name": "",
          "type": "bool"
        }
      ],
      "stateMutability": "view",
      "type": "function",
      "constant": true
    },
    {
      "inputs": [],
      "name": "owner",
      "outputs": [
        {
          "internalType": "address",
          "name": "",
          "type": "address"
        }
      ],
      "stateMutability": "view",
      "type": "function",
      "constant": true
    },
    {
      "inputs": [
        {
          "internalType": "uint256",
          "name": "",
          "type": "uint256"
        }
      ],
      "name": "requests",
      "outputs": [
        {
          "internalType": "uint256",
          "name": "requestID",
          "type": "uint256"
        },
        {
          "internalType": "address",
          "name": "requester",
          "type": "address"
        },
        {
          "internalType": "address",
          "name": "callbackAddress",
          "type": "address"
        },
        {
          "internalType": "bytes",
          "name": "callbackFID",
          "type": "bytes"
        },
        {
          "internalType": "bytes",
          "name": "IoTID",
          "type": "bytes"
        },
        {
          "internalType": "bytes",
          "name": "dataType",
          "type": "bytes"
        },
        {
          "internalType": "bytes32",
          "name": "pHash",
          "type": "bytes32"
        },
        {
          "internalType": "uint32",
          "name": "numberOfOracles",
          "type": "uint32"
        },
        {
          "internalType": "uint32",
          "name": "oracleCounter",
          "type": "uint32"
        },
        {
          "internalType": "enum OracleRequestContract.Status",
          "name": "status",
          "type": "uint8"
        },
        {
          "internalType": "uint8",
          "name": "cancelFlag",
          "type": "uint8"
        },
        {
          "internalType": "uint256",
          "name": "fee",
          "type": "uint256"
        }
      ],
      "stateMutability": "view",
      "type": "function",
      "constant": true
    },
    {
      "inputs": [
        {
          "internalType": "address",
          "name": "",
          "type": "address"
        }
      ],
      "name": "stakeBalance",
      "outputs": [
        {
          "internalType": "uint256",
          "name": "",
          "type": "uint256"
        }
      ],
      "stateMutability": "view",
      "type": "function",
      "constant": true
    },
    {
      "inputs": [],
      "name": "joinAsOracle",
      "outputs": [
        {
          "internalType": "bool",
          "name": "",
          "type": "bool"
        }
      ],
      "stateMutability": "payable",
      "type": "function",
      "payable": true
    },
    {
      "inputs": [],
      "name": "leaveOracleNetwork",
      "outputs": [
        {
          "internalType": "bool",
          "name": "",
          "type": "bool"
        }
      ],
      "stateMutability": "nonpayable",
      "type": "function"
    },
    {
      "inputs": [
        {
          "internalType": "address",
          "name": "_callbackAddress",
          "type": "address"
        },
        {
          "internalType": "bytes",
          "name": "_callbackFID",
          "type": "bytes"
        },
        {
          "internalType": "bytes",
          "name": "_IoTID",
          "type": "bytes"
        },
        {
          "internalType": "bytes",
          "name": "_dataType",
          "type": "bytes"
        },
        {
          "internalType": "bytes",
          "name": "_requiredResult",
          "type": "bytes"
        },
        {
          "internalType": "uint32",
          "name": "_numberOfOracles",
          "type": "uint32"
        }
      ],
      "name": "createRequest",
      "outputs": [
        {
          "internalType": "uint256",
          "name": "",
          "type": "uint256"
        }
      ],
      "stateMutability": "payable",
      "type": "function",
      "payable": true
    },
    {
      "inputs": [
        {
          "internalType": "uint256",
          "name": "_requestID",
          "type": "uint256"
        }
      ],
      "name": "placeBid",
      "outputs": [
        {
          "internalType": "bool",
          "name": "",
          "type": "bool"
        }
      ],
      "stateMutability": "nonpayable",
      "type": "function"
    },
    {
      "inputs": [
        {
          "internalType": "uint256",
          "name": "_requestID",
          "type": "uint256"
        },
        {
          "internalType": "bytes",
          "name": "_finalResult",
          "type": "bytes"
        },
        {
          "internalType": "address[]",
          "name": "_correctOracles",
          "type": "address[]"
        }
      ],
      "name": "deliverResponse",
      "outputs": [
        {
          "internalType": "bool",
          "name": "",
          "type": "bool"
        }
      ],
      "stateMutability": "nonpayable",
      "type": "function"
    },
    {
      "inputs": [
        {
          "internalType": "uint256",
          "name": "_requestID",
          "type": "uint256"
        }
      ],
      "name": "cancelRequest",
      "outputs": [
        {
          "internalType": "bool",
          "name": "",
          "type": "bool"
        }
      ],
      "stateMutability": "nonpayable",
      "type": "function"
    },
    {
      "inputs": [
        {
          "internalType": "address",
          "name": "_aggAddr",
          "type": "address"
        }
      ],
      "name": "setAggregatorContract",
      "outputs": [
        {
          "internalType": "bool",
          "name": "",
          "type": "bool"
        }
      ],
      "stateMutability": "nonpayable",
      "type": "function"
    },
    {
      "inputs": [
        {
          "internalType": "uint256",
          "name": "_requestID",
          "type": "uint256"
        },
        {
          "internalType": "address",
          "name": "_orcAddr",
          "type": "address"
        }
      ],
      "name": "getOracleForRequest",
      "outputs": [
        {
          "internalType": "bool",
          "name": "",
          "type": "bool"
        }
      ],
      "stateMutability": "view",
      "type": "function",
      "constant": true
    },
    {
      "inputs": [
        {
          "internalType": "uint256",
          "name": "_requestID",
          "type": "uint256"
        }
      ],
      "name": "getNumberOfOracles",
      "outputs": [
        {
          "internalType": "uint32",
          "name": "",
          "type": "uint32"
        }
      ],
      "stateMutability": "view",
      "type": "function",
      "constant": true
    },
    {
      "inputs": [
        {
          "internalType": "uint256",
          "name": "_requestID",
          "type": "uint256"
        }
      ],
      "name": "getPHash",
      "outputs": [
        {
          "internalType": "bytes32",
          "name": "",
          "type": "bytes32"
        }
      ],
      "stateMutability": "view",
      "type": "function",
      "constant": true
    },
    {
      "inputs": [
        {
          "internalType": "uint256",
          "name": "_requestID",
          "type": "uint256"
        }
      ],
      "name": "getDataType",
      "outputs": [
        {
          "internalType": "bytes",
          "name": "",
          "type": "bytes"
        }
      ],
      "stateMutability": "view",
      "type": "function",
      "constant": true
    }
  ],
  "bytecode": "0x608060405260016104b45560016104b5556404a817c8006104ba5560026104ba546200002c9190620000e3565b6104bb5560036104ba54620000429190620000e3565b6104bb5462000052919062000144565b6104bc553480156200006357600080fd5b50336000806101000a81548173ffffffffffffffffffffffffffffffffffffffff021916908373ffffffffffffffffffffffffffffffffffffffff160217905550620001a1565b6000819050919050565b7f4e487b7100000000000000000000000000000000000000000000000000000000600052601160045260246000fd5b6000620000f082620000aa565b9150620000fd83620000aa565b9250817fffffffffffffffffffffffffffffffffffffffffffffffffffffffffffffffff0483118215151615620001395762000138620000b4565b5b828202905092915050565b60006200015182620000aa565b91506200015e83620000aa565b9250827fffffffffffffffffffffffffffffffffffffffffffffffffffffffffffffffff03821115620001965762000195620000b4565b5b828201905092915050565b612ccb80620001b16000396000f3fe6080604052600436106101025760003560e01c806391a3632a116100955780639fbcc555116100645780639fbcc555146103a8578063a08702f3146103e5578063a37b354d14610410578063addd50991461044d578063f0fbfbf31461048a57610103565b806391a3632a146102d3578063950e1da9146103105780639967cf601461032e5780639979ef451461036b57610103565b806382762600116100d15780638276260014610210578063829c22fd1461023b5780638979a3c2146102785780638da5cb5b146102a857610103565b80633015394c146101115780634e7c57a61461014e57806357442e791461018b57806381d12c58146101c857610103565b5b34801561010f57600080fd5b005b34801561011d57600080fd5b5061013860048036038101906101339190611c06565b6104c7565b6040516101459190611c4e565b60405180910390f35b34801561015a57600080fd5b5061017560048036038101906101709190611cc7565b610698565b6040516101829190611d03565b60405180910390f35b34801561019757600080fd5b506101b260048036038101906101ad9190611c06565b6106b1565b6040516101bf9190611db7565b60405180910390f35b3480156101d457600080fd5b506101ef60048036038101906101ea9190611c06565b6107b8565b6040516102079c9b9a99989796959493929190611eb3565b60405180910390f35b34801561021c57600080fd5b50610225610a30565b6040516102329190611f82565b60405180910390f35b34801561024757600080fd5b50610262600480360381019061025d9190611c06565b610a56565b60405161026f9190611f9d565b60405180910390f35b610292600480360381019061028d9190612119565b610ad5565b60405161029f9190611d03565b60405180910390f35b3480156102b457600080fd5b506102bd610ead565b6040516102ca9190611f82565b60405180910390f35b3480156102df57600080fd5b506102fa60048036038101906102f59190611c06565b610ed1565b6040516103079190612216565b60405180910390f35b610318610f60565b6040516103259190611c4e565b60405180910390f35b34801561033a57600080fd5b5061035560048036038101906103509190611cc7565b6110fc565b6040516103629190611c4e565b60405180910390f35b34801561037757600080fd5b50610392600480360381019061038d9190611c06565b6111a1565b60405161039f9190611c4e565b60405180910390f35b3480156103b457600080fd5b506103cf60048036038101906103ca91906122f9565b6115a1565b6040516103dc9190611c4e565b60405180910390f35b3480156103f157600080fd5b506103fa611897565b6040516104079190611c4e565b60405180910390f35b34801561041c57600080fd5b5061043760048036038101906104329190612384565b611aa6565b6040516104449190611c4e565b60405180910390f35b34801561045957600080fd5b50610474600480360381019061046f9190611cc7565b611b70565b6040516104819190611c4e565b60405180910390f35b34801561049657600080fd5b506104b160048036038101906104ac9190611c06565b611b91565b6040516104be9190611c4e565b60405180910390f35b600081600281606481106104de576104dd6123c4565b5b600c020160010160009054906101000a900473ffffffffffffffffffffffffffffffffffffffff1673ffffffffffffffffffffffffffffffffffffffff163373ffffffffffffffffffffffffffffffffffffffff161461053d57600080fd5b82600060028260648110610554576105536123c4565b5b600c0201600a0160059054906101000a900460ff1660ff161461057657600080fd5b60016002856064811061058c5761058b6123c4565b5b600c0201600a0160056101000a81548160ff021916908360ff16021790555060028085606481106105c0576105bf6123c4565b5b600c0201600a0160046101000a81548160ff021916908360028111156105e9576105e8611e20565b5b0217905550600160009054906101000a900473ffffffffffffffffffffffffffffffffffffffff1673ffffffffffffffffffffffffffffffffffffffff16633015394c856040518263ffffffff1660e01b81526004016106499190611d03565b6020604051808303816000875af1158015610668573d6000803e3d6000fd5b505050506040513d601f19601f8201168201806040525081019061068c919061241f565b50600192505050919050565b6104b36020528060005260406000206000915090505481565b6060600160009054906101000a900473ffffffffffffffffffffffffffffffffffffffff1673ffffffffffffffffffffffffffffffffffffffff163373ffffffffffffffffffffffffffffffffffffffff161461070d57600080fd5b60028260648110610721576107206123c4565b5b600c020160050180546107339061247b565b80601f016020809104026020016040519081016040528092919081815260200182805461075f9061247b565b80156107ac5780601f10610781576101008083540402835291602001916107ac565b820191906000526020600020905b81548152906001019060200180831161078f57829003601f168201915b50505050509050919050565b600281606481106107c857600080fd5b600c02016000915090508060000154908060010160009054906101000a900473ffffffffffffffffffffffffffffffffffffffff16908060020160009054906101000a900473ffffffffffffffffffffffffffffffffffffffff16908060030180546108339061247b565b80601f016020809104026020016040519081016040528092919081815260200182805461085f9061247b565b80156108ac5780601f10610881576101008083540402835291602001916108ac565b820191906000526020600020905b81548152906001019060200180831161088f57829003601f168201915b5050505050908060040180546108c19061247b565b80601f01602080910402602001604051908101604052809291908181526020018280546108ed9061247b565b801561093a5780601f1061090f5761010080835404028352916020019161093a565b820191906000526020600020905b81548152906001019060200180831161091d57829003601f168201915b50505050509080600501805461094f9061247b565b80601f016020809104026020016040519081016040528092919081815260200182805461097b9061247b565b80156109c85780601f1061099d576101008083540402835291602001916109c8565b820191906000526020600020905b8154815290600101906020018083116109ab57829003601f168201915b5050505050908060060154908060070160009054906101000a900463ffffffff169080600a0160009054906101000a900463ffffffff169080600a0160049054906101000a900460ff169080600a0160059054906101000a900460ff169080600b015490508c565b600160009054906101000a900473ffffffffffffffffffffffffffffffffffffffff1681565b6000600160009054906101000a900473ffffffffffffffffffffffffffffffffffffffff1673ffffffffffffffffffffffffffffffffffffffff163373ffffffffffffffffffffffffffffffffffffffff1614610ab257600080fd5b60028260648110610ac657610ac56123c4565b5b600c0201600601549050919050565b60006104bc54341015610ae757600080fd5b816000600282610af791906124db565b63ffffffff1603610b0757600080fd5b60006104b45490508060028260648110610b2457610b236123c4565b5b600c0201600001819055503360028260648110610b4457610b436123c4565b5b600c020160010160006101000a81548173ffffffffffffffffffffffffffffffffffffffff021916908373ffffffffffffffffffffffffffffffffffffffff1602179055508860028260648110610b9e57610b9d6123c4565b5b600c020160020160006101000a81548173ffffffffffffffffffffffffffffffffffffffff021916908373ffffffffffffffffffffffffffffffffffffffff1602179055508760028260648110610bf857610bf76123c4565b5b600c02016003019081610c0b91906126b8565b508660028260648110610c2157610c206123c4565b5b600c02016004019081610c3491906126b8565b508560028260648110610c4a57610c496123c4565b5b600c02016005019081610c5d91906126b8565b508360028260648110610c7357610c726123c4565b5b600c020160070160006101000a81548163ffffffff021916908363ffffffff160217905550600060028260648110610cae57610cad6123c4565b5b600c0201600a0160006101000a81548163ffffffff021916908363ffffffff160217905550600060028260648110610ce957610ce86123c4565b5b600c0201600a0160046101000a81548160ff02191690836002811115610d1257610d11611e20565b5b0217905550600060028260648110610d2d57610d2c6123c4565b5b600c0201600a0160056101000a81548160ff021916908360ff1602179055503460028260648110610d6157610d606123c4565b5b600c0201600b01819055507f346e0fa9e112a7376778dcb0fe0fdfe51db577b3d0b1592a40266db0b192f82260028260648110610da157610da06123c4565b5b600c0201600a0160049054906101000a900460ff16604051610dc391906127e7565b60405180910390a160008686604051602001610de0929190612851565b6040516020818303038152906040528051906020012090508060028360648110610e0d57610e0c6123c4565b5b600c0201600601819055506104b46000815480929190610e2c906128a4565b91905055506104b56000815480929190610e45906128a4565b91905055507f9fa3818a0bcd92e6bdf76b585ed9feea4ad7d3467dc3770c2af818d43f9581a58260028460648110610e8057610e7f6123c4565b5b600c0201600501604051610e95929190612970565b60405180910390a18193505050509695505050505050565b60008054906101000a900473ffffffffffffffffffffffffffffffffffffffff1681565b6000600160009054906101000a900473ffffffffffffffffffffffffffffffffffffffff1673ffffffffffffffffffffffffffffffffffffffff163373ffffffffffffffffffffffffffffffffffffffff1614610f2d57600080fd5b60028260648110610f4157610f406123c4565b5b600c020160070160009054906101000a900463ffffffff169050919050565b6000600115156104b260003373ffffffffffffffffffffffffffffffffffffffff1673ffffffffffffffffffffffffffffffffffffffff16815260200190815260200160002060009054906101000a900460ff16151503610fc057600080fd5b670de0b6b3a76400003414610fd457600080fd5b60016104b260003373ffffffffffffffffffffffffffffffffffffffff1673ffffffffffffffffffffffffffffffffffffffff16815260200190815260200160002060006101000a81548160ff021916908315150217905550346104b360003373ffffffffffffffffffffffffffffffffffffffff1673ffffffffffffffffffffffffffffffffffffffff168152602001908152602001600020819055507f2d62108771d82d92634e2d038b6c7f09290edfee5b1443e25299f04a0cfbca72336040516110a191906129ec565b60405180910390a16104b260003373ffffffffffffffffffffffffffffffffffffffff1673ffffffffffffffffffffffffffffffffffffffff16815260200190815260200160002060009054906101000a900460ff16905090565b60008060009054906101000a900473ffffffffffffffffffffffffffffffffffffffff1673ffffffffffffffffffffffffffffffffffffffff163373ffffffffffffffffffffffffffffffffffffffff161461115757600080fd5b81600160006101000a81548173ffffffffffffffffffffffffffffffffffffffff021916908373ffffffffffffffffffffffffffffffffffffffff16021790555060019050919050565b6000600115156104b260003373ffffffffffffffffffffffffffffffffffffffff1673ffffffffffffffffffffffffffffffffffffffff16815260200190815260200160002060009054906101000a900460ff1615151461120157600080fd5b81600060028260648110611218576112176123c4565b5b600c0201600a0160059054906101000a900460ff1660ff161461123a57600080fd5b826002816064811061124f5761124e6123c4565b5b600c020160070160009054906101000a900463ffffffff1663ffffffff1660028260648110611281576112806123c4565b5b600c0201600a0160009054906101000a900463ffffffff1663ffffffff16106112a957600080fd5b6001600285606481106112bf576112be6123c4565b5b600c020160080160003373ffffffffffffffffffffffffffffffffffffffff1673ffffffffffffffffffffffffffffffffffffffff16815260200190815260200160002060006101000a81548160ff021916908315150217905550336002856064811061132f5761132e6123c4565b5b600c020160090160006002876064811061134c5761134b6123c4565b5b600c0201600a0160009054906101000a900463ffffffff1663ffffffff1663ffffffff16815260200190815260200160002060006101000a81548173ffffffffffffffffffffffffffffffffffffffff021916908373ffffffffffffffffffffffffffffffffffffffff160217905550600284606481106113d0576113cf6123c4565b5b600c0201600a01600081819054906101000a900463ffffffff16809291906113f790612a1a565b91906101000a81548163ffffffff021916908363ffffffff160217905550507fe677a6b9a16a696674f50d2c98a1ce8c5cb51d6b48a0223412c512bbc93664d5336040516114459190611f82565b60405180910390a160028460648110611461576114606123c4565b5b600c0201600a0160009054906101000a900463ffffffff1663ffffffff1660028560648110611493576114926123c4565b5b600c020160070160009054906101000a900463ffffffff1663ffffffff1603611549577f2510e6950be86d6001a0b1229da4c21fa8e26b6bcf345d0b348fe42894fceb03600285606481106114eb576114ea6123c4565b5b600c02016000015460028660648110611507576115066123c4565b5b600c020160040160028760648110611522576115216123c4565b5b600c020160050160405161153893929190612a46565b60405180910390a16001925061159a565b6104b260003373ffffffffffffffffffffffffffffffffffffffff1673ffffffffffffffffffffffffffffffffffffffff16815260200190815260200160002060009054906101000a900460ff1692505b5050919050565b6000836000600282606481106115ba576115b96123c4565b5b600c0201600a0160059054906101000a900460ff1660ff16146115dc57600080fd5b600160009054906101000a900473ffffffffffffffffffffffffffffffffffffffff1673ffffffffffffffffffffffffffffffffffffffff163373ffffffffffffffffffffffffffffffffffffffff161461163657600080fd5b60006002866064811061164c5761164b6123c4565b5b600c020160070160009054906101000a900463ffffffff1663ffffffff166002876064811061167e5761167d6123c4565b5b600c0201600b01546116909190612a8b565b905060005b8451811015611797577f88fa4dc6dc84fb056628ddf02c361252f313bcdd951c9d28e3b628bffac8ab558582815181106116d2576116d16123c4565b5b6020026020010151836040516116e9929190612b08565b60405180910390a1848181518110611704576117036123c4565b5b602002602001015173ffffffffffffffffffffffffffffffffffffffff166108fc839081150290604051600060405180830381858888f19350505050158015611751573d6000803e3d6000fd5b508160028860648110611767576117666123c4565b5b600c0201600b01600082825461177d9190612b44565b92505081905550808061178f906128a4565b915050611695565b506001600287606481106117ae576117ad6123c4565b5b600c0201600a0160046101000a81548160ff021916908360028111156117d7576117d6611e20565b5b021790555060016104b687606481106117f3576117f26123c4565b5b602091828204019190066101000a81548160ff0219169083151502179055507f346e0fa9e112a7376778dcb0fe0fdfe51db577b3d0b1592a40266db0b192f82260028760648110611847576118466123c4565b5b600c0201600a0160049054906101000a900460ff166040516118699190612bc4565b60405180910390a16104b5600081548092919061188590612bf2565b91905055506001925050509392505050565b6000600115156104b260003373ffffffffffffffffffffffffffffffffffffffff1673ffffffffffffffffffffffffffffffffffffffff16815260200190815260200160002060009054906101000a900460ff161515146118f757600080fd5b670de0b6b3a76400006104b360003373ffffffffffffffffffffffffffffffffffffffff1673ffffffffffffffffffffffffffffffffffffffff168152602001908152602001600020541461194b57600080fd5b6104b260003373ffffffffffffffffffffffffffffffffffffffff1673ffffffffffffffffffffffffffffffffffffffff16815260200190815260200160002060006101000a81549060ff02191690553373ffffffffffffffffffffffffffffffffffffffff166108fc6104b360003373ffffffffffffffffffffffffffffffffffffffff1673ffffffffffffffffffffffffffffffffffffffff168152602001908152602001600020549081150290604051600060405180830381858888f19350505050158015611a21573d6000803e3d6000fd5b5060006104b360003373ffffffffffffffffffffffffffffffffffffffff1673ffffffffffffffffffffffffffffffffffffffff168152602001908152602001600020819055507f14951d787e2aaf7813982720871de23d576e7d935c0587e12a7fc2c4c960165a33604051611a979190612c67565b60405180910390a16001905090565b6000600160009054906101000a900473ffffffffffffffffffffffffffffffffffffffff1673ffffffffffffffffffffffffffffffffffffffff163373ffffffffffffffffffffffffffffffffffffffff1614611b0257600080fd5b60028360648110611b1657611b156123c4565b5b600c020160080160008373ffffffffffffffffffffffffffffffffffffffff1673ffffffffffffffffffffffffffffffffffffffff16815260200190815260200160002060009054906101000a900460ff16905092915050565b6104b26020528060005260406000206000915054906101000a900460ff1681565b6104b68160648110611ba257600080fd5b60209182820401919006915054906101000a900460ff1681565b6000604051905090565b600080fd5b600080fd5b6000819050919050565b611be381611bd0565b8114611bee57600080fd5b50565b600081359050611c0081611bda565b92915050565b600060208284031215611c1c57611c1b611bc6565b5b6000611c2a84828501611bf1565b91505092915050565b60008115159050919050565b611c4881611c33565b82525050565b6000602082019050611c636000830184611c3f565b92915050565b600073ffffffffffffffffffffffffffffffffffffffff82169050919050565b6000611c9482611c69565b9050919050565b611ca481611c89565b8114611caf57600080fd5b50565b600081359050611cc181611c9b565b92915050565b600060208284031215611cdd57611cdc611bc6565b5b6000611ceb84828501611cb2565b91505092915050565b611cfd81611bd0565b82525050565b6000602082019050611d186000830184611cf4565b92915050565b600081519050919050565b600082825260208201905092915050565b60005b83811015611d58578082015181840152602081019050611d3d565b83811115611d67576000848401525b50505050565b6000601f19601f8301169050919050565b6000611d8982611d1e565b611d938185611d29565b9350611da3818560208601611d3a565b611dac81611d6d565b840191505092915050565b60006020820190508181036000830152611dd18184611d7e565b905092915050565b611de281611c89565b82525050565b6000819050919050565b611dfb81611de8565b82525050565b600063ffffffff82169050919050565b611e1a81611e01565b82525050565b7f4e487b7100000000000000000000000000000000000000000000000000000000600052602160045260246000fd5b60038110611e6057611e5f611e20565b5b50565b6000819050611e7182611e4f565b919050565b6000611e8182611e63565b9050919050565b611e9181611e76565b82525050565b600060ff82169050919050565b611ead81611e97565b82525050565b600061018082019050611ec9600083018f611cf4565b611ed6602083018e611dd9565b611ee3604083018d611dd9565b8181036060830152611ef5818c611d7e565b90508181036080830152611f09818b611d7e565b905081810360a0830152611f1d818a611d7e565b9050611f2c60c0830189611df2565b611f3960e0830188611e11565b611f47610100830187611e11565b611f55610120830186611e88565b611f63610140830185611ea4565b611f71610160830184611cf4565b9d9c50505050505050505050505050565b6000602082019050611f976000830184611dd9565b92915050565b6000602082019050611fb26000830184611df2565b92915050565b600080fd5b600080fd5b7f4e487b7100000000000000000000000000000000000000000000000000000000600052604160045260246000fd5b611ffa82611d6d565b810181811067ffffffffffffffff8211171561201957612018611fc2565b5b80604052505050565b600061202c611bbc565b90506120388282611ff1565b919050565b600067ffffffffffffffff82111561205857612057611fc2565b5b61206182611d6d565b9050602081019050919050565b82818337600083830152505050565b600061209061208b8461203d565b612022565b9050828152602081018484840111156120ac576120ab611fbd565b5b6120b784828561206e565b509392505050565b600082601f8301126120d4576120d3611fb8565b5b81356120e484826020860161207d565b91505092915050565b6120f681611e01565b811461210157600080fd5b50565b600081359050612113816120ed565b92915050565b60008060008060008060c0878903121561213657612135611bc6565b5b600061214489828a01611cb2565b965050602087013567ffffffffffffffff81111561216557612164611bcb565b5b61217189828a016120bf565b955050604087013567ffffffffffffffff81111561219257612191611bcb565b5b61219e89828a016120bf565b945050606087013567ffffffffffffffff8111156121bf576121be611bcb565b5b6121cb89828a016120bf565b935050608087013567ffffffffffffffff8111156121ec576121eb611bcb565b5b6121f889828a016120bf565b92505060a061220989828a01612104565b9150509295509295509295565b600060208201905061222b6000830184611e11565b92915050565b600067ffffffffffffffff82111561224c5761224b611fc2565b5b602082029050602081019050919050565b600080fd5b600061227561227084612231565b612022565b905080838252602082019050602084028301858111156122985761229761225d565b5b835b818110156122c157806122ad8882611cb2565b84526020840193505060208101905061229a565b5050509392505050565b600082601f8301126122e0576122df611fb8565b5b81356122f0848260208601612262565b91505092915050565b60008060006060848603121561231257612311611bc6565b5b600061232086828701611bf1565b935050602084013567ffffffffffffffff81111561234157612340611bcb565b5b61234d868287016120bf565b925050604084013567ffffffffffffffff81111561236e5761236d611bcb565b5b61237a868287016122cb565b9150509250925092565b6000806040838503121561239b5761239a611bc6565b5b60006123a985828601611bf1565b92505060206123ba85828601611cb2565b9150509250929050565b7f4e487b7100000000000000000000000000000000000000000000000000000000600052603260045260246000fd5b6123fc81611c33565b811461240757600080fd5b50565b600081519050612419816123f3565b92915050565b60006020828403121561243557612434611bc6565b5b60006124438482850161240a565b91505092915050565b7f4e487b7100000000000000000000000000000000000000000000000000000000600052602260045260246000fd5b6000600282049050600182168061249357607f821691505b6020821081036124a6576124a561244c565b5b50919050565b7f4e487b7100000000000000000000000000000000000000000000000000000000600052601260045260246000fd5b60006124e682611e01565b91506124f183611e01565b925082612501576125006124ac565b5b828206905092915050565b60008190508160005260206000209050919050565b60006020601f8301049050919050565b600082821b905092915050565b60006008830261256e7fffffffffffffffffffffffffffffffffffffffffffffffffffffffffffffffff82612531565b6125788683612531565b95508019841693508086168417925050509392505050565b6000819050919050565b60006125b56125b06125ab84611bd0565b612590565b611bd0565b9050919050565b6000819050919050565b6125cf8361259a565b6125e36125db826125bc565b84845461253e565b825550505050565b600090565b6125f86125eb565b6126038184846125c6565b505050565b5b818110156126275761261c6000826125f0565b600181019050612609565b5050565b601f82111561266c5761263d8161250c565b61264684612521565b81016020851015612655578190505b61266961266185612521565b830182612608565b50505b505050565b600082821c905092915050565b600061268f60001984600802612671565b1980831691505092915050565b60006126a8838361267e565b9150826002028217905092915050565b6126c182611d1e565b67ffffffffffffffff8111156126da576126d9611fc2565b5b6126e4825461247b565b6126ef82828561262b565b600060209050601f8311600181146127225760008415612710578287015190505b61271a858261269c565b865550612782565b601f1984166127308661250c565b60005b8281101561275857848901518255600182019150602085019450602081019050612733565b868310156127755784890151612771601f89168261267e565b8355505b6001600288020188555050505b505050505050565b600082825260208201905092915050565b7f50454e44494e4700000000000000000000000000000000000000000000000000600082015250565b60006127d160078361278a565b91506127dc8261279b565b602082019050919050565b60006040820190506127fc6000830184611e88565b818103602083015261280d816127c4565b905092915050565b600081905092915050565b600061282b82611d1e565b6128358185612815565b9350612845818560208601611d3a565b80840191505092915050565b600061285d8285612820565b91506128698284612820565b91508190509392505050565b7f4e487b7100000000000000000000000000000000000000000000000000000000600052601160045260246000fd5b60006128af82611bd0565b91507fffffffffffffffffffffffffffffffffffffffffffffffffffffffffffffffff82036128e1576128e0612875565b5b600182019050919050565b600081546128f98161247b565b6129038186611d29565b9450600182166000811461291e576001811461293457612967565b60ff198316865281151560200286019350612967565b61293d8561250c565b60005b8381101561295f57815481890152600182019150602081019050612940565b808801955050505b50505092915050565b60006040820190506129856000830185611cf4565b818103602083015261299781846128ec565b90509392505050565b7f57656c636f6d65206e6577206e6f646521000000000000000000000000000000600082015250565b60006129d660118361278a565b91506129e1826129a0565b602082019050919050565b6000604082019050612a016000830184611dd9565b8181036020830152612a12816129c9565b905092915050565b6000612a2582611e01565b915063ffffffff8203612a3b57612a3a612875565b5b600182019050919050565b6000606082019050612a5b6000830186611cf4565b8181036020830152612a6d81856128ec565b90508181036040830152612a8181846128ec565b9050949350505050565b6000612a9682611bd0565b9150612aa183611bd0565b925082612ab157612ab06124ac565b5b828204905092915050565b7f4f7261636c6520686173206265656e2050616964210000000000000000000000600082015250565b6000612af260158361278a565b9150612afd82612abc565b602082019050919050565b6000606082019050612b1d6000830185611dd9565b612b2a6020830184611cf4565b8181036040830152612b3b81612ae5565b90509392505050565b6000612b4f82611bd0565b9150612b5a83611bd0565b925082821015612b6d57612b6c612875565b5b828203905092915050565b7f434f4d504c455445000000000000000000000000000000000000000000000000600082015250565b6000612bae60088361278a565b9150612bb982612b78565b602082019050919050565b6000604082019050612bd96000830184611e88565b8181036020830152612bea81612ba1565b905092915050565b6000612bfd82611bd0565b915060008203612c1057612c0f612875565b5b600182039050919050565b7f4e6f646520686173206c6566742c20476f6f6462796500000000000000000000600082015250565b6000612c5160168361278a565b9150612c5c82612c1b565b602082019050919050565b6000604082019050612c7c6000830184611dd9565b8181036020830152612c8d81612c44565b90509291505056fea2646970667358221220ccb72516cfea646f9897f0315e11495d3104080033cdaf59001ab30b80cb6ec464736f6c634300080f0033",
  "immutableReferences": {},
  "source": "// SPDX-License-Identifier: MIT\npragma solidity ^0.8.0;\n\nimport \"./AggregatorContract.sol\";\n\ncontract OracleRequestContract {\n    //address that deploys contract\n    address public owner;\n    // address of aggregator contract\n    address public aggregatorAddr;\n    // Array to populate with requests that come in\n    Request[100] public requests;\n    // all mappings of oracles that have joined network\n    mapping (address => bool) public oracles;\n    // stakeBalance of each node, should be equal to 1 eth\n    mapping (address => uint) public stakeBalance;\n    // request and and pending counters, pending decreased when status changed to COMPLETE\n    uint requestCounter = 1;\n    uint pendingCounter = 1;\n    // Status logs for each request\n    enum Status{PENDING, COMPLETE, CANCELLED}\n    // a single Request structure\n    struct Request {\n        uint256 requestID; //Id for each request\n        address requester; // address which made the request\n        address callbackAddress; // an address in which the response can be delivered to\n        bytes callbackFID; // a function in the callback address that can be called\n        bytes IoTID; // the ID of the IoT the user-SC wishes to gather data from\n        bytes dataType; // data type, JSON that is decoded by the oracle node that will collect the data\n        bytes32 pHash; // a hash of the data type and the actual result required.\n        //bytes requiredResult; // left this out for security reason, we only apply it to the hash\n        uint32 numberOfOracles; // number of oracles needed to fetch the data\n        mapping (address => bool) oraclesForRequest; // must be true in order for oracle node to participate\n        mapping (uint32 => address) oracleAddressAccess; // mapping so we can iterate through addresses\n        uint32 oracleCounter; // index and counter for the number of oracles\n        Status status; // status of the request\n        uint8 cancelFlag; // cancel flag, if == 1 then do not continue with request\n        uint fee; // fee sent to cover costs and extra for fetch the data\n    }\n\n    bool[100] public completedRequests;// true for each requestID once status changes to complete.\n\n    event OpenForBids(uint256, bytes); // tells oracle nodes there is a request that needs bidding on\n    event BidPlaced(address); // tells nodes that a bid has been placed by another node\n    event ReleaseRequestDetails(uint256, bytes, bytes); // the details the node needs to gather\n    event StatusChange(Status, string); // tells nodes in network of status change of requests\n    event OracleJoined(address, string); // tells network that a new oracle has joined the network\n    event OracleLeft(address, string); // tells the network that another oracle has left\n    event OraclePaid(address, uint, string); // tells the network when an oracle has been paid for its services\n    // ***payments***\n    uint GAS_PRICE = 2 * 10**10; // cost of gas\n    uint FEE = GAS_PRICE * 2; // fee to cover other function calls and pay each oracle\n    uint MIN_FEE = FEE + (GAS_PRICE * 3); // minimum needed to cover all costs\n\n    // @notice constructor when first deployed\n    constructor() {\n        owner = msg.sender; // set the owner of the contract to the address that deploys it\n    }\n    // @notice used if eth is sent to an invalid function etc\n    fallback() external{}\n\n    // @notice function called by addresses of Off-chain Oracle nodes that want to join the network\n    // @return bool, true if successful otherwise reverts\n    function joinAsOracle()\n    public\n    payable\n    oracleNotJoined()\n    valueEqual1Eth()\n    returns(bool){\n        oracles[address(msg.sender)] = true; // set to true as is now in network\n        stakeBalance[msg.sender] = msg.value; // added value to stakeBalance as a record\n        emit OracleJoined(msg.sender, \"Welcome new node!\"); // emit event so listeners can be notified\n        return oracles[address(msg.sender)]; // return true\n    }\n    // @notice oracle node calls this function when they wish to leave network\n    // @return bool\n    function leaveOracleNetwork()\n    public\n    oracleHasJoined()\n    stakeCheck()\n    returns(bool) {\n        delete oracles[msg.sender]; // deletes address from mapping\n        payable(msg.sender).transfer(stakeBalance[msg.sender]); // transfers their stake back to them\n        stakeBalance[msg.sender] = 0; // set stakeBalance back to 0 for the oracle node\n        emit OracleLeft(msg.sender, \"Node has left, Goodbye\"); // emit event so listeners can be notified\n        return true; // return true to confirm\n    }\n\n    // @notice user can call function create request\n    // @dev\n    // @param _callbackAddress could be different to address that called the function\n    // @param _callbackFID a particular function in a smart contract that is needed to be called based on request\n    // @param _IoTID the identifier of the IoT device oracle node will be subscribing to\n    // @param _dataType, true false answer, an event, continuous data over time?\n    // @param _requiredResult what is needed from IoT device\n    // @param _numberOfOracles number of oracle nodes that fetch IoT data\n    // @return the requestID so the user can keep track of request\n    function createRequest(\n        address _callbackAddress,\n        bytes memory _callbackFID,\n        bytes memory _IoTID,\n        bytes memory _dataType,\n        bytes memory _requiredResult,\n        uint32 _numberOfOracles)\n    external\n    payable\n    valueGTMinFeeCheck() // requires the value sent is >= MIN_FEE\n    oddNumOracles(_numberOfOracles) // requires an odd number of oracles\n    returns(uint256)\n    {\n        uint256 requestID = requestCounter; // assign id to request\n        // log details of the request to array to cross reference later\n        requests[requestID].requestID = requestID;\n        requests[requestID].requester = msg.sender;\n        requests[requestID].callbackAddress = _callbackAddress;\n        requests[requestID].callbackFID = _callbackFID;\n        requests[requestID].IoTID = _IoTID;\n        requests[requestID].dataType = _dataType;\n        //requests[requestId].requiredResult = _requiredResult; // do not need to store result put in a hash?\n        requests[requestID].numberOfOracles = _numberOfOracles;\n        requests[requestID].oracleCounter = 0;\n        requests[requestID].status = Status.PENDING;\n        requests[requestID].cancelFlag = 0;\n        requests[requestID].fee = msg.value; // keeps track of the fee for the request\n        emit StatusChange(requests[requestID].status, \"PENDING\"); // tells nodes in network of status change of requests\n        // create a hash of the _dataType and _requiredResult:\n        // we will use the actual result to test upon delivery.\n        bytes32 phash = keccak256(abi.encodePacked(_dataType, _requiredResult));\n        // add required result to hash, only time it is used, we assume that the user-SC knows what answer they are looking for\n        requests[requestID].pHash = phash;\n        // increment requestId ready for next create request function.\n        requestCounter++;\n        pendingCounter++;\n        emit OpenForBids(requestID, requests[requestID].dataType);\n        return requestID;\n    }\n\n    // @notice off-chain oracle node places bid to fetch data, once threshold is reached, emits event details.\n    // @dev\n    // @param requestId oracle node wishes to bid on\n    // @return true to indicate bid successful\n    function placeBid(\n        uint256 _requestID)\n    public\n    oracleHasJoined() // requires that the oracle is in the network\n    cancelFlagZero(_requestID) // requires requests cancel flag is zero\n    orcCountLessThanNum(_requestID) // requires that the oracle counter is still les than the number of oracles needed\n    returns(bool)\n    {\n        requests[_requestID].oraclesForRequest[msg.sender] = true; // add true for oracle in request so we know they can vote\n        requests[_requestID].oracleAddressAccess[requests[_requestID].oracleCounter] = address(msg.sender); // map addr for iteration\n        requests[_requestID].oracleCounter++; // increment the counter\n        // TODO also add a timeout, if bids take to long\n        emit BidPlaced(msg.sender); // send message to network that a bid has been placed\n        if (requests[_requestID].numberOfOracles == requests[_requestID].oracleCounter) {\n            // when the last oracle has submitted, we can emit the details\n            emit ReleaseRequestDetails(\n                requests[_requestID].requestID, // requestID\n                requests[_requestID].IoTID, // IoT info, this is most of importance\n                requests[_requestID].dataType); // DataType\n            return true; // returns true to show completion of the bidding phase that is now over\n        }\n        return oracles[msg.sender]; // returns true for each oracle that bids\n    }\n\n    // @notice called by aggregator contract to deliver final response\n    // @param _requestID, id of request\n    // @param _finalResult, final aggregated result\n    // @param _correctOracles, array of addresses of oracles to be paid for their work\n    function deliverResponse(\n        uint256 _requestID,\n        bytes memory _finalResult,\n        address[] memory _correctOracles)\n    public\n    cancelFlagZero(_requestID) // requires that the cancelFlag is = 0\n    onlyAggregator() // only the aggregator contract can call this function\n    returns(bool)\n    {\n        // return single aggregation result\n        _finalResult;\n        uint fee = requests[_requestID].fee / (requests[_requestID].numberOfOracles);\n        // pay fees\n        for (uint i=0; i<_correctOracles.length; i++) {\n            // pay each share to each oracle\n            emit OraclePaid(_correctOracles[i], fee, \"Oracle has been Paid!\"); // tells listeners oracle node has been paid\n            payable(_correctOracles[i]).transfer(fee); // pays oracle their fee\n            requests[_requestID].fee -= fee; // deduct the oracles portion from the logged amount until it reaches 0\n            // and all oracles have been paid\n        }\n        requests[_requestID].status = Status.COMPLETE; // request is complete\n        completedRequests[_requestID] = true; // add request id to completedRequests\n        emit StatusChange(requests[_requestID].status, \"COMPLETE\"); // tell listeners that the status has changed\n        pendingCounter--; // no longer pending so countered can be decremented\n        return true; // return true to so it has finished\n    }\n\n    function cancelRequest(\n        uint256 _requestID)\n    external\n    // need to make sure only the requester cancel the request\n    onlyRequester(_requestID) // requires that only the requester can cancel\n    cancelFlagZero(_requestID)\n    returns(bool)\n    {\n        requests[_requestID].cancelFlag = 1;\n        requests[_requestID].status = Status.CANCELLED;\n        AggregatorContract(aggregatorAddr).cancelRequest(_requestID);\n        return true;\n    }\n    // *** Setters ***\n    function setAggregatorContract(\n        address _aggAddr)\n    public\n    onlyOwner() // only owner can set aggregator contract\n    returns(bool)\n    {\n        aggregatorAddr = _aggAddr;\n        return true;\n    }\n\n    // *** Getters ***\n    function getOracleForRequest(\n        uint256 _requestID,\n        address _orcAddr)\n    external\n    view\n    onlyAggregator()\n    returns(bool)\n    {\n        return requests[_requestID].oraclesForRequest[_orcAddr];\n    }\n\n    function getNumberOfOracles(\n        uint256 _requestID)\n    external\n    view\n    onlyAggregator()\n    returns(uint32)\n    {\n        return requests[_requestID].numberOfOracles;\n    }\n    function getPHash(\n        uint256 _requestID)\n    external\n    view\n    onlyAggregator()\n    returns(bytes32)\n    {\n        return requests[_requestID].pHash;\n    }\n    function getDataType(\n        uint256 _requestID)\n    external\n    view\n    onlyAggregator()\n    returns(bytes memory)\n    {\n        return requests[_requestID].dataType;\n    }\n    // ***Modifiers***\n    // @notice only owner of contract\n    modifier onlyOwner()\n    {\n        require(msg.sender == owner);\n        _;\n    }\n    // @notice only owner of aggregator contract\n    modifier onlyAggregator()\n    {\n        require(msg.sender == aggregatorAddr);\n        _;\n    }\n    // @notice modifier to confirm calling address is an oracle node address already acknowledged\n    modifier oracleHasJoined()\n    {\n        require(oracles[msg.sender] == true);\n        _;\n    }\n    // @notice modifier to confirm calling address is not yet an oracle node address acknowledged\n    modifier oracleNotJoined()\n    {\n        require(oracles[msg.sender] != true);\n        _;\n    }\n    // @notice requires request cancelFlag == 0\n    modifier cancelFlagZero(\n        uint256 _requestID)\n    {\n        require(requests[_requestID].cancelFlag == 0);\n        _;\n    }\n    // @notice requires stakeBalance to equal exactly 1 ETH\n    modifier stakeCheck()\n    {\n        require(stakeBalance[msg.sender] == 1 ether);\n        _;\n    }\n    // @notice requires the value sent to be >= MIN_FEE set\n    modifier valueGTMinFeeCheck()\n    {\n        // require msg.value has enough to pay oracles for each function call\n        require(msg.value >= MIN_FEE);\n        _;\n    }\n    // @notice requires an odd number of oracles so voting/aggregation doesnt become deadlocked\n    modifier oddNumOracles(\n        uint32 _numberOfOracles)\n    {\n        // makes sure the number that there is always an odd number of oracles so a majority can be reached.\n        require(!(_numberOfOracles % 2 == 0));\n        _;\n    }\n    // @notice requires a new oracle to send 1 eth to be held by contract until it leaves the network\n    modifier valueEqual1Eth()\n    {\n        require(msg.value == 1 ether); // must send 1 eth that is to be held by contract\n        _;\n    }\n    // @notice requires counter to be less than number required\n    modifier orcCountLessThanNum(\n        uint256 _requestID)\n    {\n        // makes sure oracle counter is less than number of oracles required so response can be submitted\n        require(requests[_requestID].oracleCounter < requests[_requestID].numberOfOracles);\n        _;\n    }\n    // @notice requires that only the request can call the function\n    modifier onlyRequester(\n        uint256 _requestID)\n    {\n        require(msg.sender == requests[_requestID].requester);\n        _;\n    }\n\n}\n",
  "sourcePath": "/home/willp/Documents/MSc_Computer_Science/Msc_project/Research_Code/IoToracle/IoToracle/contracts/OracleRequestContract.sol",
  "compiler": {
    "name": "solc",
    "version": "0.8.15+commit.e14f2714.Emscripten.clang"
  },
  "schemaVersion": "3.4.7",
  "updatedAt": "2022-07-28T11:19:50.510Z",
  "networkType": "ethereum",
  "devdoc": {
    "kind": "dev",
    "methods": {},
    "version": 1
  },
  "userdoc": {
    "kind": "user",
    "methods": {},
    "version": 1
  }
}