{
  "contractName": "OracleRequestContract",
  "abi": [
    {
      "inputs": [],
      "stateMutability": "nonpayable",
      "type": "constructor"
    },
    {
      "anonymous": false,
      "inputs": [
        {
          "indexed": false,
          "internalType": "address",
          "name": "",
          "type": "address"
        }
      ],
      "name": "BidPlaced",
      "type": "event"
    },
    {
      "anonymous": false,
      "inputs": [
        {
          "indexed": false,
          "internalType": "uint256",
          "name": "",
          "type": "uint256"
        },
        {
          "indexed": false,
          "internalType": "bytes",
          "name": "",
          "type": "bytes"
        },
        {
          "indexed": false,
          "internalType": "uint256",
          "name": "",
          "type": "uint256"
        }
      ],
      "name": "OpenForBids",
      "type": "event"
    },
    {
      "anonymous": false,
      "inputs": [
        {
          "indexed": false,
          "internalType": "address",
          "name": "",
          "type": "address"
        },
        {
          "indexed": false,
          "internalType": "string",
          "name": "",
          "type": "string"
        }
      ],
      "name": "OracleJoined",
      "type": "event"
    },
    {
      "anonymous": false,
      "inputs": [
        {
          "indexed": false,
          "internalType": "address",
          "name": "",
          "type": "address"
        },
        {
          "indexed": false,
          "internalType": "string",
          "name": "",
          "type": "string"
        }
      ],
      "name": "OracleLeft",
      "type": "event"
    },
    {
      "anonymous": false,
      "inputs": [
        {
          "indexed": false,
          "internalType": "address",
          "name": "",
          "type": "address"
        },
        {
          "indexed": false,
          "internalType": "uint256",
          "name": "",
          "type": "uint256"
        },
        {
          "indexed": false,
          "internalType": "string",
          "name": "",
          "type": "string"
        }
      ],
      "name": "OraclePaid",
      "type": "event"
    },
    {
      "anonymous": false,
      "inputs": [
        {
          "indexed": false,
          "internalType": "uint256",
          "name": "",
          "type": "uint256"
        },
        {
          "indexed": false,
          "internalType": "bytes",
          "name": "",
          "type": "bytes"
        },
        {
          "indexed": false,
          "internalType": "bytes",
          "name": "",
          "type": "bytes"
        }
      ],
      "name": "ReleaseRequestDetails",
      "type": "event"
    },
    {
      "anonymous": false,
      "inputs": [
        {
          "indexed": false,
          "internalType": "enum OracleRequestContract.Status",
          "name": "",
          "type": "uint8"
        },
        {
          "indexed": false,
          "internalType": "string",
          "name": "",
          "type": "string"
        }
      ],
      "name": "StatusChange",
      "type": "event"
    },
    {
      "stateMutability": "nonpayable",
      "type": "fallback"
    },
    {
      "inputs": [],
      "name": "aggregatorAddr",
      "outputs": [
        {
          "internalType": "address",
          "name": "",
          "type": "address"
        }
      ],
      "stateMutability": "view",
      "type": "function",
      "constant": true
    },
    {
      "inputs": [
        {
          "internalType": "address",
          "name": "",
          "type": "address"
        }
      ],
      "name": "blacklistedOracles",
      "outputs": [
        {
          "internalType": "bool",
          "name": "",
          "type": "bool"
        }
      ],
      "stateMutability": "view",
      "type": "function",
      "constant": true
    },
    {
      "inputs": [
        {
          "internalType": "uint256",
          "name": "",
          "type": "uint256"
        }
      ],
      "name": "completedRequests",
      "outputs": [
        {
          "internalType": "bool",
          "name": "",
          "type": "bool"
        }
      ],
      "stateMutability": "view",
      "type": "function",
      "constant": true
    },
    {
      "inputs": [
        {
          "internalType": "address",
          "name": "",
          "type": "address"
        }
      ],
      "name": "oracles",
      "outputs": [
        {
          "internalType": "bool",
          "name": "",
          "type": "bool"
        }
      ],
      "stateMutability": "view",
      "type": "function",
      "constant": true
    },
    {
      "inputs": [],
      "name": "owner",
      "outputs": [
        {
          "internalType": "address",
          "name": "",
          "type": "address"
        }
      ],
      "stateMutability": "view",
      "type": "function",
      "constant": true
    },
    {
      "inputs": [],
      "name": "reputationAddr",
      "outputs": [
        {
          "internalType": "address",
          "name": "",
          "type": "address"
        }
      ],
      "stateMutability": "view",
      "type": "function",
      "constant": true
    },
    {
      "inputs": [
        {
          "internalType": "uint256",
          "name": "",
          "type": "uint256"
        }
      ],
      "name": "requests",
      "outputs": [
        {
          "internalType": "uint256",
          "name": "requestID",
          "type": "uint256"
        },
        {
          "internalType": "address",
          "name": "requester",
          "type": "address"
        },
        {
          "internalType": "address",
          "name": "callbackAddress",
          "type": "address"
        },
        {
          "internalType": "bytes",
          "name": "callbackFID",
          "type": "bytes"
        },
        {
          "internalType": "bytes",
          "name": "IoTID",
          "type": "bytes"
        },
        {
          "internalType": "bytes",
          "name": "dataType",
          "type": "bytes"
        },
        {
          "internalType": "uint32",
          "name": "numberOfOracles",
          "type": "uint32"
        },
        {
          "internalType": "uint256",
          "name": "aggregationType",
          "type": "uint256"
        },
        {
          "internalType": "uint32",
          "name": "oracleCounter",
          "type": "uint32"
        },
        {
          "internalType": "enum OracleRequestContract.Status",
          "name": "status",
          "type": "uint8"
        },
        {
          "internalType": "uint8",
          "name": "cancelFlag",
          "type": "uint8"
        },
        {
          "internalType": "uint256",
          "name": "fee",
          "type": "uint256"
        }
      ],
      "stateMutability": "view",
      "type": "function",
      "constant": true
    },
    {
      "inputs": [
        {
          "internalType": "address",
          "name": "",
          "type": "address"
        }
      ],
      "name": "stakeBalance",
      "outputs": [
        {
          "internalType": "uint256",
          "name": "",
          "type": "uint256"
        }
      ],
      "stateMutability": "view",
      "type": "function",
      "constant": true
    },
    {
      "inputs": [],
      "name": "joinAsOracle",
      "outputs": [
        {
          "internalType": "bool",
          "name": "",
          "type": "bool"
        }
      ],
      "stateMutability": "payable",
      "type": "function",
      "payable": true
    },
    {
      "inputs": [],
      "name": "leaveOracleNetwork",
      "outputs": [
        {
          "internalType": "bool",
          "name": "",
          "type": "bool"
        }
      ],
      "stateMutability": "nonpayable",
      "type": "function"
    },
    {
      "inputs": [
        {
          "internalType": "address",
          "name": "_callbackAddress",
          "type": "address"
        },
        {
          "internalType": "bytes",
          "name": "_callbackFID",
          "type": "bytes"
        },
        {
          "internalType": "bytes",
          "name": "_IoTID",
          "type": "bytes"
        },
        {
          "internalType": "bytes",
          "name": "_dataType",
          "type": "bytes"
        },
        {
          "internalType": "uint256",
          "name": "_aggregationType",
          "type": "uint256"
        },
        {
          "internalType": "uint32",
          "name": "_numberOfOracles",
          "type": "uint32"
        }
      ],
      "name": "createRequest",
      "outputs": [
        {
          "internalType": "uint256",
          "name": "",
          "type": "uint256"
        }
      ],
      "stateMutability": "payable",
      "type": "function",
      "payable": true
    },
    {
      "inputs": [
        {
          "internalType": "uint256",
          "name": "_requestID",
          "type": "uint256"
        }
      ],
      "name": "placeBid",
      "outputs": [
        {
          "internalType": "bool",
          "name": "",
          "type": "bool"
        }
      ],
      "stateMutability": "nonpayable",
      "type": "function"
    },
    {
      "inputs": [
        {
          "internalType": "uint256",
          "name": "_requestID",
          "type": "uint256"
        },
        {
          "internalType": "bool",
          "name": "_finalResult",
          "type": "bool"
        },
        {
          "internalType": "address[]",
          "name": "_correctOracles",
          "type": "address[]"
        },
        {
          "internalType": "address[]",
          "name": "_incorrectOracles",
          "type": "address[]"
        },
        {
          "internalType": "address[]",
          "name": "_incorrectRevealOracles",
          "type": "address[]"
        }
      ],
      "name": "deliverVoteResponse",
      "outputs": [
        {
          "internalType": "bool",
          "name": "",
          "type": "bool"
        }
      ],
      "stateMutability": "nonpayable",
      "type": "function"
    },
    {
      "inputs": [
        {
          "internalType": "uint256",
          "name": "_requestID",
          "type": "uint256"
        },
        {
          "internalType": "int256",
          "name": "_finalResult",
          "type": "int256"
        },
        {
          "internalType": "address[]",
          "name": "_correctOracles",
          "type": "address[]"
        },
        {
          "internalType": "address[]",
          "name": "_incorrectOracles",
          "type": "address[]"
        }
      ],
      "name": "deliverAverageResponse",
      "outputs": [
        {
          "internalType": "bool",
          "name": "",
          "type": "bool"
        }
      ],
      "stateMutability": "nonpayable",
      "type": "function"
    },
    {
      "inputs": [
        {
          "internalType": "uint256",
          "name": "_requestID",
          "type": "uint256"
        }
      ],
      "name": "cancelRequest",
      "outputs": [
        {
          "internalType": "bool",
          "name": "",
          "type": "bool"
        }
      ],
      "stateMutability": "nonpayable",
      "type": "function"
    },
    {
      "inputs": [
        {
          "internalType": "uint256",
          "name": "_requestID",
          "type": "uint256"
        },
        {
          "internalType": "address[]",
          "name": "_incorrectOracleReveals",
          "type": "address[]"
        }
      ],
      "name": "cancelRequestDueToDeadlock",
      "outputs": [
        {
          "internalType": "bool",
          "name": "",
          "type": "bool"
        }
      ],
      "stateMutability": "nonpayable",
      "type": "function"
    },
    {
      "inputs": [
        {
          "internalType": "address",
          "name": "_addr",
          "type": "address"
        }
      ],
      "name": "blacklistOracle",
      "outputs": [
        {
          "internalType": "bool",
          "name": "",
          "type": "bool"
        }
      ],
      "stateMutability": "nonpayable",
      "type": "function"
    },
    {
      "inputs": [
        {
          "internalType": "address",
          "name": "_aggAddr",
          "type": "address"
        }
      ],
      "name": "setAggregatorContract",
      "outputs": [
        {
          "internalType": "bool",
          "name": "",
          "type": "bool"
        }
      ],
      "stateMutability": "nonpayable",
      "type": "function"
    },
    {
      "inputs": [
        {
          "internalType": "address",
          "name": "_repAddr",
          "type": "address"
        }
      ],
      "name": "setReputationContract",
      "outputs": [
        {
          "internalType": "bool",
          "name": "",
          "type": "bool"
        }
      ],
      "stateMutability": "nonpayable",
      "type": "function"
    },
    {
      "inputs": [
        {
          "internalType": "uint256",
          "name": "_requestID",
          "type": "uint256"
        },
        {
          "internalType": "address",
          "name": "_orcAddr",
          "type": "address"
        }
      ],
      "name": "getOracleForRequest",
      "outputs": [
        {
          "internalType": "bool",
          "name": "",
          "type": "bool"
        }
      ],
      "stateMutability": "view",
      "type": "function",
      "constant": true
    },
    {
      "inputs": [
        {
          "internalType": "uint256",
          "name": "_requestID",
          "type": "uint256"
        }
      ],
      "name": "getNumberOfOracles",
      "outputs": [
        {
          "internalType": "uint32",
          "name": "",
          "type": "uint32"
        }
      ],
      "stateMutability": "view",
      "type": "function",
      "constant": true
    },
    {
      "inputs": [
        {
          "internalType": "uint256",
          "name": "_requestID",
          "type": "uint256"
        }
      ],
      "name": "getDataType",
      "outputs": [
        {
          "internalType": "bytes",
          "name": "",
          "type": "bytes"
        }
      ],
      "stateMutability": "view",
      "type": "function",
      "constant": true
    },
    {
      "inputs": [
        {
          "internalType": "address",
          "name": "_addr",
          "type": "address"
        }
      ],
      "name": "getBlacklistedOracle",
      "outputs": [
        {
          "internalType": "bool",
          "name": "",
          "type": "bool"
        }
      ],
      "stateMutability": "view",
      "type": "function",
      "constant": true
    },
    {
      "inputs": [
        {
          "internalType": "uint256",
          "name": "_requestID",
          "type": "uint256"
        }
      ],
      "name": "getAggregationType",
      "outputs": [
        {
          "internalType": "uint256",
          "name": "",
          "type": "uint256"
        }
      ],
      "stateMutability": "view",
      "type": "function",
      "constant": true
    }
  ],
  "bytecode": "0x608060405260016104b65560016104b7556404a817c8006104bc5560036104bc546200002c9190620000e3565b6104bd5560056104bc54620000429190620000e3565b6104bd5462000052919062000144565b6104be553480156200006357600080fd5b50336000806101000a81548173ffffffffffffffffffffffffffffffffffffffff021916908373ffffffffffffffffffffffffffffffffffffffff160217905550620001a1565b6000819050919050565b7f4e487b7100000000000000000000000000000000000000000000000000000000600052601160045260246000fd5b6000620000f082620000aa565b9150620000fd83620000aa565b9250817fffffffffffffffffffffffffffffffffffffffffffffffffffffffffffffffff0483118215151615620001395762000138620000b4565b5b828202905092915050565b60006200015182620000aa565b91506200015e83620000aa565b9250827fffffffffffffffffffffffffffffffffffffffffffffffffffffffffffffffff03821115620001965762000195620000b4565b5b828201905092915050565b613ff480620001b16000396000f3fe60806040526004361061014f5760003560e01c806391a3632a116100b6578063a37b354d1161006f578063a37b354d1461054c578063addd509914610589578063e4888222146105c6578063ea2d8e3014610603578063eee5a59614610633578063f0fbfbf31461067057610150565b806391a3632a1461040f578063950e1da91461044c5780639584660f1461046a5780639967cf60146104a75780639979ef45146104e4578063a08702f31461052157610150565b806358621b7a1161010857806358621b7a146102ba5780636fbf7973146102f75780637d02da091461033457806381d12c581461037157806382762600146103b95780638da5cb5b146103e457610150565b8063053ebc9a1461015e5780633015394c1461018957806330407ad9146101c6578063498d7df0146102035780634e7c57a61461024057806357442e791461027d57610150565b5b34801561015c57600080fd5b005b34801561016a57600080fd5b506101736106ad565b6040516101809190612d2c565b60405180910390f35b34801561019557600080fd5b506101b060048036038101906101ab9190612d91565b6106d3565b6040516101bd9190612dd9565b60405180910390f35b3480156101d257600080fd5b506101ed60048036038101906101e89190612fa5565b610904565b6040516101fa9190612dd9565b60405180910390f35b34801561020f57600080fd5b5061022a60048036038101906102259190613074565b610e68565b6040516102379190612dd9565b60405180910390f35b34801561024c57600080fd5b50610267600480360381019061026291906130d0565b611282565b604051610274919061310c565b60405180910390f35b34801561028957600080fd5b506102a4600480360381019061029f9190612d91565b61129b565b6040516102b191906131af565b60405180910390f35b3480156102c657600080fd5b506102e160048036038101906102dc9190613207565b6113a2565b6040516102ee9190612dd9565b60405180910390f35b34801561030357600080fd5b5061031e600480360381019061031991906130d0565b6116fa565b60405161032b9190612dd9565b60405180910390f35b34801561034057600080fd5b5061035b600480360381019061035691906130d0565b611751565b6040516103689190612dd9565b60405180910390f35b34801561037d57600080fd5b5061039860048036038101906103939190612d91565b611772565b6040516103b09c9b9a99989796959493929190613358565b60405180910390f35b3480156103c557600080fd5b506103ce6119ea565b6040516103db9190612d2c565b60405180910390f35b3480156103f057600080fd5b506103f9611a10565b6040516104069190612d2c565b60405180910390f35b34801561041b57600080fd5b5061043660048036038101906104319190612d91565b611a34565b6040516104439190613427565b60405180910390f35b610454611ac3565b6040516104619190612dd9565b60405180910390f35b34801561047657600080fd5b50610491600480360381019061048c91906130d0565b611d5d565b60405161049e9190612dd9565b60405180910390f35b3480156104b357600080fd5b506104ce60048036038101906104c991906130d0565b611e02565b6040516104db9190612dd9565b60405180910390f35b3480156104f057600080fd5b5061050b60048036038101906105069190612d91565b611ea7565b6040516105189190612dd9565b60405180910390f35b34801561052d57600080fd5b50610536612306565b6040516105439190612dd9565b60405180910390f35b34801561055857600080fd5b50610573600480360381019061056e9190613442565b61266b565b6040516105809190612dd9565b60405180910390f35b34801561059557600080fd5b506105b060048036038101906105ab91906130d0565b612735565b6040516105bd9190612dd9565b60405180910390f35b3480156105d257600080fd5b506105ed60048036038101906105e89190612d91565b612756565b6040516105fa919061310c565b60405180910390f35b61061d60048036038101906106189190613563565b6127d5565b60405161062a919061310c565b60405180910390f35b34801561063f57600080fd5b5061065a600480360381019061065591906130d0565b612bb6565b6040516106679190612dd9565b60405180910390f35b34801561067c57600080fd5b5061069760048036038101906106929190612d91565b612cc0565b6040516106a49190612dd9565b60405180910390f35b600260009054906101000a900473ffffffffffffffffffffffffffffffffffffffff1681565b600081600381606481106106ea576106e9613644565b5b600c020160010160009054906101000a900473ffffffffffffffffffffffffffffffffffffffff1673ffffffffffffffffffffffffffffffffffffffff163373ffffffffffffffffffffffffffffffffffffffff161461074957600080fd5b826000600382606481106107605761075f613644565b5b600c0201600a0160059054906101000a900460ff1660ff161461078257600080fd5b60016003856064811061079857610797613644565b5b600c0201600a0160056101000a81548160ff021916908360ff1602179055506002600385606481106107cd576107cc613644565b5b600c0201600a0160046101000a81548160ff021916908360028111156107f6576107f56132c5565b5b02179055507f346e0fa9e112a7376778dcb0fe0fdfe51db577b3d0b1592a40266db0b192f822600385606481106108305761082f613644565b5b600c0201600a0160049054906101000a900460ff1660405161085291906136d0565b60405180910390a1600160009054906101000a900473ffffffffffffffffffffffffffffffffffffffff1673ffffffffffffffffffffffffffffffffffffffff16633015394c856040518263ffffffff1660e01b81526004016108b5919061310c565b6020604051808303816000875af11580156108d4573d6000803e3d6000fd5b505050506040513d601f19601f820116820180604052508101906108f89190613713565b50600192505050919050565b60008560006003826064811061091d5761091c613644565b5b600c0201600a0160059054906101000a900460ff1660ff161461093f57600080fd5b600160009054906101000a900473ffffffffffffffffffffffffffffffffffffffff1673ffffffffffffffffffffffffffffffffffffffff163373ffffffffffffffffffffffffffffffffffffffff161461099957600080fd5b60008551600389606481106109b1576109b0613644565b5b600c0201600b01546109c3919061379e565b905060005b8651811015610aca577f88fa4dc6dc84fb056628ddf02c361252f313bcdd951c9d28e3b628bffac8ab55878281518110610a0557610a04613644565b5b602002602001015183604051610a1c92919061381b565b60405180910390a1868181518110610a3757610a36613644565b5b602002602001015173ffffffffffffffffffffffffffffffffffffffff166108fc839081150290604051600060405180830381858888f19350505050158015610a84573d6000803e3d6000fd5b508160038a60648110610a9a57610a99613644565b5b600c0201600b016000828254610ab09190613857565b925050819055508080610ac29061388b565b9150506109c8565b5060005b8551811015610ccf576000600260009054906101000a900473ffffffffffffffffffffffffffffffffffffffff1673ffffffffffffffffffffffffffffffffffffffff1663b8f9c2a1888481518110610b2a57610b29613644565b5b60200260200101516040518263ffffffff1660e01b8152600401610b4e9190612d2c565b602060405180830381865afa158015610b6b573d6000803e3d6000fd5b505050506040513d601f19601f82011682018060405250810190610b8f91906138e8565b9050806104b56000898581518110610baa57610ba9613644565b5b602002602001015173ffffffffffffffffffffffffffffffffffffffff1673ffffffffffffffffffffffffffffffffffffffff1681526020019081526020016000206000828254610bfb9190613857565b92505081905550600260009054906101000a900473ffffffffffffffffffffffffffffffffffffffff1673ffffffffffffffffffffffffffffffffffffffff166318b529c3888481518110610c5357610c52613644565b5b60200260200101516040518263ffffffff1660e01b8152600401610c779190612d2c565b6020604051808303816000875af1158015610c96573d6000803e3d6000fd5b505050506040513d601f19601f82011682018060405250810190610cba91906138e8565b50508080610cc79061388b565b915050610ace565b5060005b8451811015610d66576000829050806104b56000888581518110610cfa57610cf9613644565b5b602002602001015173ffffffffffffffffffffffffffffffffffffffff1673ffffffffffffffffffffffffffffffffffffffff1681526020019081526020016000206000828254610d4b9190613915565b92505081905550508080610d5e9061388b565b915050610cd3565b50600160038960648110610d7d57610d7c613644565b5b600c0201600a0160046101000a81548160ff02191690836002811115610da657610da56132c5565b5b021790555060016104b88960648110610dc257610dc1613644565b5b602091828204019190066101000a81548160ff0219169083151502179055507f346e0fa9e112a7376778dcb0fe0fdfe51db577b3d0b1592a40266db0b192f82260038960648110610e1657610e15613644565b5b600c0201600a0160049054906101000a900460ff16604051610e3891906139b7565b60405180910390a16104b76000815480929190610e54906139e5565b919050555060019250505095945050505050565b6000600160009054906101000a900473ffffffffffffffffffffffffffffffffffffffff1673ffffffffffffffffffffffffffffffffffffffff163373ffffffffffffffffffffffffffffffffffffffff1614610ec457600080fd5b82600060038260648110610edb57610eda613644565b5b600c0201600a0160059054906101000a900460ff1660ff1614610efd57600080fd5b600160038560648110610f1357610f12613644565b5b600c0201600a0160056101000a81548160ff021916908360ff160217905550600260038560648110610f4857610f47613644565b5b600c0201600a0160046101000a81548160ff02191690836002811115610f7157610f706132c5565b5b021790555060005b835181101561117a576000600260009054906101000a900473ffffffffffffffffffffffffffffffffffffffff1673ffffffffffffffffffffffffffffffffffffffff1663b8f9c2a1868481518110610fd557610fd4613644565b5b60200260200101516040518263ffffffff1660e01b8152600401610ff99190612d2c565b602060405180830381865afa158015611016573d6000803e3d6000fd5b505050506040513d601f19601f8201168201806040525081019061103a91906138e8565b9050806104b5600087858151811061105557611054613644565b5b602002602001015173ffffffffffffffffffffffffffffffffffffffff1673ffffffffffffffffffffffffffffffffffffffff16815260200190815260200160002060008282546110a69190613857565b92505081905550600260009054906101000a900473ffffffffffffffffffffffffffffffffffffffff1673ffffffffffffffffffffffffffffffffffffffff166318b529c38684815181106110fe576110fd613644565b5b60200260200101516040518263ffffffff1660e01b81526004016111229190612d2c565b6020604051808303816000875af1158015611141573d6000803e3d6000fd5b505050506040513d601f19601f8201168201806040525081019061116591906138e8565b505080806111729061388b565b915050610f79565b506003846064811061118f5761118e613644565b5b600c020160010160009054906101000a900473ffffffffffffffffffffffffffffffffffffffff1673ffffffffffffffffffffffffffffffffffffffff166108fc600386606481106111e4576111e3613644565b5b600c0201600b01549081150290604051600060405180830381858888f19350505050158015611217573d6000803e3d6000fd5b507f346e0fa9e112a7376778dcb0fe0fdfe51db577b3d0b1592a40266db0b192f8226003856064811061124d5761124c613644565b5b600c0201600a0160049054906101000a900460ff1660405161126f91906136d0565b60405180910390a1600191505092915050565b6104b56020528060005260406000206000915090505481565b6060600160009054906101000a900473ffffffffffffffffffffffffffffffffffffffff1673ffffffffffffffffffffffffffffffffffffffff163373ffffffffffffffffffffffffffffffffffffffff16146112f757600080fd5b6003826064811061130b5761130a613644565b5b600c0201600501805461131d90613a3d565b80601f016020809104026020016040519081016040528092919081815260200182805461134990613a3d565b80156113965780601f1061136b57610100808354040283529160200191611396565b820191906000526020600020905b81548152906001019060200180831161137957829003601f168201915b50505050509050919050565b6000846000600382606481106113bb576113ba613644565b5b600c0201600a0160059054906101000a900460ff1660ff16146113dd57600080fd5b600160009054906101000a900473ffffffffffffffffffffffffffffffffffffffff1673ffffffffffffffffffffffffffffffffffffffff163373ffffffffffffffffffffffffffffffffffffffff161461143757600080fd5b600084516003886064811061144f5761144e613644565b5b600c0201600b0154611461919061379e565b905060005b8551811015611568577f88fa4dc6dc84fb056628ddf02c361252f313bcdd951c9d28e3b628bffac8ab558682815181106114a3576114a2613644565b5b6020026020010151836040516114ba92919061381b565b60405180910390a18581815181106114d5576114d4613644565b5b602002602001015173ffffffffffffffffffffffffffffffffffffffff166108fc839081150290604051600060405180830381858888f19350505050158015611522573d6000803e3d6000fd5b50816003896064811061153857611537613644565b5b600c0201600b01600082825461154e9190613857565b9250508190555080806115609061388b565b915050611466565b5060005b84518110156115f957816104b5600087848151811061158e5761158d613644565b5b602002602001015173ffffffffffffffffffffffffffffffffffffffff1673ffffffffffffffffffffffffffffffffffffffff16815260200190815260200160002060008282546115df9190613857565b9250508190555080806115f19061388b565b91505061156c565b506001600388606481106116105761160f613644565b5b600c0201600a0160046101000a81548160ff02191690836002811115611639576116386132c5565b5b021790555060016104b8886064811061165557611654613644565b5b602091828204019190066101000a81548160ff0219169083151502179055507f346e0fa9e112a7376778dcb0fe0fdfe51db577b3d0b1592a40266db0b192f822600388606481106116a9576116a8613644565b5b600c0201600a0160049054906101000a900460ff166040516116cb91906139b7565b60405180910390a16104b760008154809291906116e7906139e5565b9190505550600192505050949350505050565b60006104b460008373ffffffffffffffffffffffffffffffffffffffff1673ffffffffffffffffffffffffffffffffffffffff16815260200190815260200160002060009054906101000a900460ff169050919050565b6104b46020528060005260406000206000915054906101000a900460ff1681565b6003816064811061178257600080fd5b600c02016000915090508060000154908060010160009054906101000a900473ffffffffffffffffffffffffffffffffffffffff16908060020160009054906101000a900473ffffffffffffffffffffffffffffffffffffffff16908060030180546117ed90613a3d565b80601f016020809104026020016040519081016040528092919081815260200182805461181990613a3d565b80156118665780601f1061183b57610100808354040283529160200191611866565b820191906000526020600020905b81548152906001019060200180831161184957829003601f168201915b50505050509080600401805461187b90613a3d565b80601f01602080910402602001604051908101604052809291908181526020018280546118a790613a3d565b80156118f45780601f106118c9576101008083540402835291602001916118f4565b820191906000526020600020905b8154815290600101906020018083116118d757829003601f168201915b50505050509080600501805461190990613a3d565b80601f016020809104026020016040519081016040528092919081815260200182805461193590613a3d565b80156119825780601f1061195757610100808354040283529160200191611982565b820191906000526020600020905b81548152906001019060200180831161196557829003601f168201915b5050505050908060060160009054906101000a900463ffffffff169080600901549080600a0160009054906101000a900463ffffffff169080600a0160049054906101000a900460ff169080600a0160059054906101000a900460ff169080600b015490508c565b600160009054906101000a900473ffffffffffffffffffffffffffffffffffffffff1681565b60008054906101000a900473ffffffffffffffffffffffffffffffffffffffff1681565b6000600160009054906101000a900473ffffffffffffffffffffffffffffffffffffffff1673ffffffffffffffffffffffffffffffffffffffff163373ffffffffffffffffffffffffffffffffffffffff1614611a9057600080fd5b60038260648110611aa457611aa3613644565b5b600c020160060160009054906101000a900463ffffffff169050919050565b6000600115156104b360003373ffffffffffffffffffffffffffffffffffffffff1673ffffffffffffffffffffffffffffffffffffffff16815260200190815260200160002060009054906101000a900460ff16151503611b2357600080fd5b670de0b6b3a76400003414611b3757600080fd5b600115156104b460003373ffffffffffffffffffffffffffffffffffffffff1673ffffffffffffffffffffffffffffffffffffffff16815260200190815260200160002060009054906101000a900460ff1615151514611b9657600080fd5b600260009054906101000a900473ffffffffffffffffffffffffffffffffffffffff1673ffffffffffffffffffffffffffffffffffffffff1663df5dd1a5336040518263ffffffff1660e01b8152600401611bf19190612d2c565b6020604051808303816000875af1158015611c10573d6000803e3d6000fd5b505050506040513d601f19601f82011682018060405250810190611c349190613713565b5060016104b360003373ffffffffffffffffffffffffffffffffffffffff1673ffffffffffffffffffffffffffffffffffffffff16815260200190815260200160002060006101000a81548160ff021916908315150217905550346104b560003373ffffffffffffffffffffffffffffffffffffffff1673ffffffffffffffffffffffffffffffffffffffff168152602001908152602001600020819055507f2d62108771d82d92634e2d038b6c7f09290edfee5b1443e25299f04a0cfbca7233604051611d029190613aba565b60405180910390a16104b360003373ffffffffffffffffffffffffffffffffffffffff1673ffffffffffffffffffffffffffffffffffffffff16815260200190815260200160002060009054906101000a900460ff16905090565b60008060009054906101000a900473ffffffffffffffffffffffffffffffffffffffff1673ffffffffffffffffffffffffffffffffffffffff163373ffffffffffffffffffffffffffffffffffffffff1614611db857600080fd5b81600260006101000a81548173ffffffffffffffffffffffffffffffffffffffff021916908373ffffffffffffffffffffffffffffffffffffffff16021790555060019050919050565b60008060009054906101000a900473ffffffffffffffffffffffffffffffffffffffff1673ffffffffffffffffffffffffffffffffffffffff163373ffffffffffffffffffffffffffffffffffffffff1614611e5d57600080fd5b81600160006101000a81548173ffffffffffffffffffffffffffffffffffffffff021916908373ffffffffffffffffffffffffffffffffffffffff16021790555060019050919050565b6000600115156104b360003373ffffffffffffffffffffffffffffffffffffffff1673ffffffffffffffffffffffffffffffffffffffff16815260200190815260200160002060009054906101000a900460ff16151514611f0757600080fd5b81600060038260648110611f1e57611f1d613644565b5b600c0201600a0160059054906101000a900460ff1660ff1614611f4057600080fd5b8260038160648110611f5557611f54613644565b5b600c020160060160009054906101000a900463ffffffff1663ffffffff1660038260648110611f8757611f86613644565b5b600c0201600a0160009054906101000a900463ffffffff1663ffffffff1610611faf57600080fd5b600115156104b460003373ffffffffffffffffffffffffffffffffffffffff1673ffffffffffffffffffffffffffffffffffffffff16815260200190815260200160002060009054906101000a900460ff161515151461200e57600080fd5b60016003856064811061202457612023613644565b5b600c020160070160003373ffffffffffffffffffffffffffffffffffffffff1673ffffffffffffffffffffffffffffffffffffffff16815260200190815260200160002060006101000a81548160ff021916908315150217905550336003856064811061209457612093613644565b5b600c02016008016000600387606481106120b1576120b0613644565b5b600c0201600a0160009054906101000a900463ffffffff1663ffffffff1663ffffffff16815260200190815260200160002060006101000a81548173ffffffffffffffffffffffffffffffffffffffff021916908373ffffffffffffffffffffffffffffffffffffffff1602179055506003846064811061213557612134613644565b5b600c0201600a01600081819054906101000a900463ffffffff168092919061215c90613ae8565b91906101000a81548163ffffffff021916908363ffffffff160217905550507fe677a6b9a16a696674f50d2c98a1ce8c5cb51d6b48a0223412c512bbc93664d5336040516121aa9190612d2c565b60405180910390a1600384606481106121c6576121c5613644565b5b600c0201600a0160009054906101000a900463ffffffff1663ffffffff16600385606481106121f8576121f7613644565b5b600c020160060160009054906101000a900463ffffffff1663ffffffff16036122ae577f2510e6950be86d6001a0b1229da4c21fa8e26b6bcf345d0b348fe42894fceb03600385606481106122505761224f613644565b5b600c0201600001546003866064811061226c5761226b613644565b5b600c02016004016003876064811061228757612286613644565b5b600c020160050160405161229d93929190613bad565b60405180910390a1600192506122ff565b6104b360003373ffffffffffffffffffffffffffffffffffffffff1673ffffffffffffffffffffffffffffffffffffffff16815260200190815260200160002060009054906101000a900460ff1692505b5050919050565b6000600115156104b360003373ffffffffffffffffffffffffffffffffffffffff1673ffffffffffffffffffffffffffffffffffffffff16815260200190815260200160002060009054906101000a900460ff1615151461236657600080fd5b60006104b560003373ffffffffffffffffffffffffffffffffffffffff1673ffffffffffffffffffffffffffffffffffffffff16815260200190815260200160002054116123b357600080fd5b600115156104b460003373ffffffffffffffffffffffffffffffffffffffff1673ffffffffffffffffffffffffffffffffffffffff16815260200190815260200160002060009054906101000a900460ff161515151461241257600080fd5b6001600260009054906101000a900473ffffffffffffffffffffffffffffffffffffffff1673ffffffffffffffffffffffffffffffffffffffff16630855078b336040518263ffffffff1660e01b815260040161246f9190612d2c565b602060405180830381865afa15801561248c573d6000803e3d6000fd5b505050506040513d601f19601f820116820180604052508101906124b091906138e8565b11156125105760016104b460003373ffffffffffffffffffffffffffffffffffffffff1673ffffffffffffffffffffffffffffffffffffffff16815260200190815260200160002060006101000a81548160ff0219169083151502179055505b6104b360003373ffffffffffffffffffffffffffffffffffffffff1673ffffffffffffffffffffffffffffffffffffffff16815260200190815260200160002060006101000a81549060ff02191690553373ffffffffffffffffffffffffffffffffffffffff166108fc6104b560003373ffffffffffffffffffffffffffffffffffffffff1673ffffffffffffffffffffffffffffffffffffffff168152602001908152602001600020549081150290604051600060405180830381858888f193505050501580156125e6573d6000803e3d6000fd5b5060006104b560003373ffffffffffffffffffffffffffffffffffffffff1673ffffffffffffffffffffffffffffffffffffffff168152602001908152602001600020819055507f14951d787e2aaf7813982720871de23d576e7d935c0587e12a7fc2c4c960165a3360405161265c9190613c3e565b60405180910390a16001905090565b6000600160009054906101000a900473ffffffffffffffffffffffffffffffffffffffff1673ffffffffffffffffffffffffffffffffffffffff163373ffffffffffffffffffffffffffffffffffffffff16146126c757600080fd5b600383606481106126db576126da613644565b5b600c020160070160008373ffffffffffffffffffffffffffffffffffffffff1673ffffffffffffffffffffffffffffffffffffffff16815260200190815260200160002060009054906101000a900460ff16905092915050565b6104b36020528060005260406000206000915054906101000a900460ff1681565b6000600160009054906101000a900473ffffffffffffffffffffffffffffffffffffffff1673ffffffffffffffffffffffffffffffffffffffff163373ffffffffffffffffffffffffffffffffffffffff16146127b257600080fd5b600382606481106127c6576127c5613644565b5b600c0201600901549050919050565b60006104be543410156127e757600080fd5b8160006002826127f79190613c6c565b63ffffffff160361280757600080fd5b8380600114806128175750600281145b61282057600080fd5b60006104b6549050806003826064811061283d5761283c613644565b5b600c020160000181905550336003826064811061285d5761285c613644565b5b600c020160010160006101000a81548173ffffffffffffffffffffffffffffffffffffffff021916908373ffffffffffffffffffffffffffffffffffffffff16021790555089600382606481106128b7576128b6613644565b5b600c020160020160006101000a81548173ffffffffffffffffffffffffffffffffffffffff021916908373ffffffffffffffffffffffffffffffffffffffff160217905550886003826064811061291157612910613644565b5b600c020160030190816129249190613e34565b50876003826064811061293a57612939613644565b5b600c0201600401908161294d9190613e34565b50866003826064811061296357612962613644565b5b600c020160050190816129769190613e34565b50846003826064811061298c5761298b613644565b5b600c020160060160006101000a81548163ffffffff021916908363ffffffff1602179055506000600382606481106129c7576129c6613644565b5b600c0201600a0160006101000a81548163ffffffff021916908363ffffffff160217905550600060038260648110612a0257612a01613644565b5b600c0201600a0160046101000a81548160ff02191690836002811115612a2b57612a2a6132c5565b5b0217905550600060038260648110612a4657612a45613644565b5b600c0201600a0160056101000a81548160ff021916908360ff1602179055503460038260648110612a7a57612a79613644565b5b600c0201600b01819055508560038260648110612a9a57612a99613644565b5b600c0201600901819055507f346e0fa9e112a7376778dcb0fe0fdfe51db577b3d0b1592a40266db0b192f82260038260648110612ada57612ad9613644565b5b600c0201600a0160049054906101000a900460ff16604051612afc9190613f52565b60405180910390a16104b66000815480929190612b189061388b565b91905055506104b76000815480929190612b319061388b565b91905055507fc668bf865a88698478ed2bc34c4926d4d20090065fd190fe9bf099fca888109d8160038360648110612b6c57612b6b613644565b5b600c020160050160038460648110612b8757612b86613644565b5b600c020160090154604051612b9e93929190613f80565b60405180910390a18093505050509695505050505050565b6000600260009054906101000a900473ffffffffffffffffffffffffffffffffffffffff1673ffffffffffffffffffffffffffffffffffffffff163373ffffffffffffffffffffffffffffffffffffffff1614612c1257600080fd5b60016104b460008473ffffffffffffffffffffffffffffffffffffffff1673ffffffffffffffffffffffffffffffffffffffff16815260200190815260200160002060006101000a81548160ff0219169083151502179055506104b460008373ffffffffffffffffffffffffffffffffffffffff1673ffffffffffffffffffffffffffffffffffffffff16815260200190815260200160002060009054906101000a900460ff169050919050565b6104b88160648110612cd157600080fd5b60209182820401919006915054906101000a900460ff1681565b600073ffffffffffffffffffffffffffffffffffffffff82169050919050565b6000612d1682612ceb565b9050919050565b612d2681612d0b565b82525050565b6000602082019050612d416000830184612d1d565b92915050565b6000604051905090565b600080fd5b600080fd5b6000819050919050565b612d6e81612d5b565b8114612d7957600080fd5b50565b600081359050612d8b81612d65565b92915050565b600060208284031215612da757612da6612d51565b5b6000612db584828501612d7c565b91505092915050565b60008115159050919050565b612dd381612dbe565b82525050565b6000602082019050612dee6000830184612dca565b92915050565b612dfd81612dbe565b8114612e0857600080fd5b50565b600081359050612e1a81612df4565b92915050565b600080fd5b6000601f19601f8301169050919050565b7f4e487b7100000000000000000000000000000000000000000000000000000000600052604160045260246000fd5b612e6e82612e25565b810181811067ffffffffffffffff82111715612e8d57612e8c612e36565b5b80604052505050565b6000612ea0612d47565b9050612eac8282612e65565b919050565b600067ffffffffffffffff821115612ecc57612ecb612e36565b5b602082029050602081019050919050565b600080fd5b612eeb81612d0b565b8114612ef657600080fd5b50565b600081359050612f0881612ee2565b92915050565b6000612f21612f1c84612eb1565b612e96565b90508083825260208201905060208402830185811115612f4457612f43612edd565b5b835b81811015612f6d5780612f598882612ef9565b845260208401935050602081019050612f46565b5050509392505050565b600082601f830112612f8c57612f8b612e20565b5b8135612f9c848260208601612f0e565b91505092915050565b600080600080600060a08688031215612fc157612fc0612d51565b5b6000612fcf88828901612d7c565b9550506020612fe088828901612e0b565b945050604086013567ffffffffffffffff81111561300157613000612d56565b5b61300d88828901612f77565b935050606086013567ffffffffffffffff81111561302e5761302d612d56565b5b61303a88828901612f77565b925050608086013567ffffffffffffffff81111561305b5761305a612d56565b5b61306788828901612f77565b9150509295509295909350565b6000806040838503121561308b5761308a612d51565b5b600061309985828601612d7c565b925050602083013567ffffffffffffffff8111156130ba576130b9612d56565b5b6130c685828601612f77565b9150509250929050565b6000602082840312156130e6576130e5612d51565b5b60006130f484828501612ef9565b91505092915050565b61310681612d5b565b82525050565b600060208201905061312160008301846130fd565b92915050565b600081519050919050565b600082825260208201905092915050565b60005b83811015613161578082015181840152602081019050613146565b83811115613170576000848401525b50505050565b600061318182613127565b61318b8185613132565b935061319b818560208601613143565b6131a481612e25565b840191505092915050565b600060208201905081810360008301526131c98184613176565b905092915050565b6000819050919050565b6131e4816131d1565b81146131ef57600080fd5b50565b600081359050613201816131db565b92915050565b6000806000806080858703121561322157613220612d51565b5b600061322f87828801612d7c565b9450506020613240878288016131f2565b935050604085013567ffffffffffffffff81111561326157613260612d56565b5b61326d87828801612f77565b925050606085013567ffffffffffffffff81111561328e5761328d612d56565b5b61329a87828801612f77565b91505092959194509250565b600063ffffffff82169050919050565b6132bf816132a6565b82525050565b7f4e487b7100000000000000000000000000000000000000000000000000000000600052602160045260246000fd5b60038110613305576133046132c5565b5b50565b6000819050613316826132f4565b919050565b600061332682613308565b9050919050565b6133368161331b565b82525050565b600060ff82169050919050565b6133528161333c565b82525050565b60006101808201905061336e600083018f6130fd565b61337b602083018e612d1d565b613388604083018d612d1d565b818103606083015261339a818c613176565b905081810360808301526133ae818b613176565b905081810360a08301526133c2818a613176565b90506133d160c08301896132b6565b6133de60e08301886130fd565b6133ec6101008301876132b6565b6133fa61012083018661332d565b613408610140830185613349565b6134166101608301846130fd565b9d9c50505050505050505050505050565b600060208201905061343c60008301846132b6565b92915050565b6000806040838503121561345957613458612d51565b5b600061346785828601612d7c565b925050602061347885828601612ef9565b9150509250929050565b600080fd5b600067ffffffffffffffff8211156134a2576134a1612e36565b5b6134ab82612e25565b9050602081019050919050565b82818337600083830152505050565b60006134da6134d584613487565b612e96565b9050828152602081018484840111156134f6576134f5613482565b5b6135018482856134b8565b509392505050565b600082601f83011261351e5761351d612e20565b5b813561352e8482602086016134c7565b91505092915050565b613540816132a6565b811461354b57600080fd5b50565b60008135905061355d81613537565b92915050565b60008060008060008060c087890312156135805761357f612d51565b5b600061358e89828a01612ef9565b965050602087013567ffffffffffffffff8111156135af576135ae612d56565b5b6135bb89828a01613509565b955050604087013567ffffffffffffffff8111156135dc576135db612d56565b5b6135e889828a01613509565b945050606087013567ffffffffffffffff81111561360957613608612d56565b5b61361589828a01613509565b935050608061362689828a01612d7c565b92505060a061363789828a0161354e565b9150509295509295509295565b7f4e487b7100000000000000000000000000000000000000000000000000000000600052603260045260246000fd5b600082825260208201905092915050565b7f43414e43454c4c45440000000000000000000000000000000000000000000000600082015250565b60006136ba600983613673565b91506136c582613684565b602082019050919050565b60006040820190506136e5600083018461332d565b81810360208301526136f6816136ad565b905092915050565b60008151905061370d81612df4565b92915050565b60006020828403121561372957613728612d51565b5b6000613737848285016136fe565b91505092915050565b7f4e487b7100000000000000000000000000000000000000000000000000000000600052601260045260246000fd5b7f4e487b7100000000000000000000000000000000000000000000000000000000600052601160045260246000fd5b60006137a982612d5b565b91506137b483612d5b565b9250826137c4576137c3613740565b5b828204905092915050565b7f4f7261636c6520686173206265656e2050616964210000000000000000000000600082015250565b6000613805601583613673565b9150613810826137cf565b602082019050919050565b60006060820190506138306000830185612d1d565b61383d60208301846130fd565b818103604083015261384e816137f8565b90509392505050565b600061386282612d5b565b915061386d83612d5b565b9250828210156138805761387f61376f565b5b828203905092915050565b600061389682612d5b565b91507fffffffffffffffffffffffffffffffffffffffffffffffffffffffffffffffff82036138c8576138c761376f565b5b600182019050919050565b6000815190506138e281612d65565b92915050565b6000602082840312156138fe576138fd612d51565b5b600061390c848285016138d3565b91505092915050565b600061392082612d5b565b915061392b83612d5b565b9250827fffffffffffffffffffffffffffffffffffffffffffffffffffffffffffffffff038211156139605761395f61376f565b5b828201905092915050565b7f434f4d504c455445000000000000000000000000000000000000000000000000600082015250565b60006139a1600883613673565b91506139ac8261396b565b602082019050919050565b60006040820190506139cc600083018461332d565b81810360208301526139dd81613994565b905092915050565b60006139f082612d5b565b915060008203613a0357613a0261376f565b5b600182039050919050565b7f4e487b7100000000000000000000000000000000000000000000000000000000600052602260045260246000fd5b60006002820490506001821680613a5557607f821691505b602082108103613a6857613a67613a0e565b5b50919050565b7f57656c636f6d65206e6577206e6f646521000000000000000000000000000000600082015250565b6000613aa4601183613673565b9150613aaf82613a6e565b602082019050919050565b6000604082019050613acf6000830184612d1d565b8181036020830152613ae081613a97565b905092915050565b6000613af3826132a6565b915063ffffffff8203613b0957613b0861376f565b5b600182019050919050565b60008190508160005260206000209050919050565b60008154613b3681613a3d565b613b408186613132565b94506001821660008114613b5b5760018114613b7157613ba4565b60ff198316865281151560200286019350613ba4565b613b7a85613b14565b60005b83811015613b9c57815481890152600182019150602081019050613b7d565b808801955050505b50505092915050565b6000606082019050613bc260008301866130fd565b8181036020830152613bd48185613b29565b90508181036040830152613be88184613b29565b9050949350505050565b7f4e6f646520686173206c6566742c20476f6f6462796500000000000000000000600082015250565b6000613c28601683613673565b9150613c3382613bf2565b602082019050919050565b6000604082019050613c536000830184612d1d565b8181036020830152613c6481613c1b565b905092915050565b6000613c77826132a6565b9150613c82836132a6565b925082613c9257613c91613740565b5b828206905092915050565b60006020601f8301049050919050565b600082821b905092915050565b600060088302613cea7fffffffffffffffffffffffffffffffffffffffffffffffffffffffffffffffff82613cad565b613cf48683613cad565b95508019841693508086168417925050509392505050565b6000819050919050565b6000613d31613d2c613d2784612d5b565b613d0c565b612d5b565b9050919050565b6000819050919050565b613d4b83613d16565b613d5f613d5782613d38565b848454613cba565b825550505050565b600090565b613d74613d67565b613d7f818484613d42565b505050565b5b81811015613da357613d98600082613d6c565b600181019050613d85565b5050565b601f821115613de857613db981613b14565b613dc284613c9d565b81016020851015613dd1578190505b613de5613ddd85613c9d565b830182613d84565b50505b505050565b600082821c905092915050565b6000613e0b60001984600802613ded565b1980831691505092915050565b6000613e248383613dfa565b9150826002028217905092915050565b613e3d82613127565b67ffffffffffffffff811115613e5657613e55612e36565b5b613e608254613a3d565b613e6b828285613da7565b600060209050601f831160018114613e9e5760008415613e8c578287015190505b613e968582613e18565b865550613efe565b601f198416613eac86613b14565b60005b82811015613ed457848901518255600182019150602085019450602081019050613eaf565b86831015613ef15784890151613eed601f891682613dfa565b8355505b6001600288020188555050505b505050505050565b7f50454e44494e4700000000000000000000000000000000000000000000000000600082015250565b6000613f3c600783613673565b9150613f4782613f06565b602082019050919050565b6000604082019050613f67600083018461332d565b8181036020830152613f7881613f2f565b905092915050565b6000606082019050613f9560008301866130fd565b8181036020830152613fa78185613b29565b9050613fb660408301846130fd565b94935050505056fea2646970667358221220ca36c930d67be4cd5e37f35c8cd304928cc6eb89d971e4e871dedb7261311c7364736f6c634300080f0033",
  "immutableReferences": {},
  "source": "// SPDX-License-Identifier: MIT\npragma solidity ^0.8.0;\n\nimport \"./AggregatorContract.sol\";\nimport \"./ReputationContract.sol\";\n\ncontract OracleRequestContract {\n    //address that deploys contract\n    address public owner;\n    // address of aggregator contract\n    address public aggregatorAddr;\n    // address of reputation contract\n    address public reputationAddr;\n    // Array to populate with requests that come in\n    Request[100] public requests;\n    // all mappings of oracles that have joined network\n    mapping (address => bool) public oracles;\n    // mapping of blacklisted oracles (who's ratings exceed 10)\n    mapping (address => bool) public blacklistedOracles;\n    // stakeBalance of each node, should be equal to 1 eth\n    mapping (address => uint) public stakeBalance;\n    // request and and pending counters, pending decreased when status changed to COMPLETE\n    uint requestCounter = 1;\n    uint pendingCounter = 1;\n    // Status logs for each request\n    enum Status{PENDING, COMPLETE, CANCELLED}\n\n    // a single Request structure\n    struct Request {\n        uint256 requestID; //Id for each request\n        address requester; // address which made the request\n        address callbackAddress; // an address in which the response can be delivered to\n        bytes callbackFID; // a function in the callback address that can be called\n        bytes IoTID; // the ID of the IoT the user-SC wishes to gather data from\n        bytes dataType; // data type, JSON that is decoded by the oracle node that will collect the data\n        // bytes32 pHash; // a hash of the data type and the actual result required.\n        //bytes requiredResult; // left this out for security reason, we only apply it to the hash\n        uint32 numberOfOracles; // number of oracles needed to fetch the data\n        mapping (address => bool) oraclesForRequest; // must be true in order for oracle node to participate\n        mapping (uint32 => address) oracleAddressAccess; // mapping so we can iterate through addresses\n        uint256 aggregationType;\n        uint32 oracleCounter; // index and counter for the number of oracles\n        Status status; // status of the request\n        uint8 cancelFlag; // cancel flag, if == 1 then do not continue with request\n        uint fee; // fee sent to cover costs and extra for fetch the data\n    }\n\n    bool[100] public completedRequests;// true for each requestID once status changes to complete.\n\n    event OpenForBids(uint256, bytes, uint256); // tells oracle nodes there is a request that needs bidding on\n    event BidPlaced(address); // tells nodes that a bid has been placed by another node\n    event ReleaseRequestDetails(uint256, bytes, bytes); // the details the node needs to gather\n    event StatusChange(Status, string); // tells nodes in network of status change of requests\n    event OracleJoined(address, string); // tells network that a new oracle has joined the network\n    event OracleLeft(address, string); // tells the network that another oracle has left\n    event OraclePaid(address, uint, string); // tells the network when an oracle has been paid for its services\n    // ***payments***\n    uint GAS_PRICE = 2 * 10**10; // cost of gas\n    uint FEE = GAS_PRICE * 3; // fee to cover other function calls and pay each oracle\n    uint MIN_FEE = FEE + (GAS_PRICE * 5); // minimum needed to cover all costs\n\n    // @notice constructor when first deployed\n    constructor() {\n        owner = msg.sender; // set the owner of the contract to the address that deploys it\n    }\n    // @notice used if eth is sent to an invalid function etc\n    fallback() external{}\n\n    // @notice function called by addresses of Off-chain Oracle nodes that want to join the network\n    // @return bool, true if successful otherwise reverts\n    function joinAsOracle()\n    public\n    payable\n    oracleNotJoined()\n    valueEqual1Eth()\n    isNotBlacklisted()\n    //oracleCannotRejoin()\n    returns(bool){\n        ReputationContract(reputationAddr).addOracle(msg.sender);\n        oracles[address(msg.sender)] = true; // set to true as is now in network\n        stakeBalance[msg.sender] = msg.value; // added value to stakeBalance as a record\n        emit OracleJoined(msg.sender, \"Welcome new node!\"); // emit event so listeners can be notified\n        return oracles[address(msg.sender)]; // return true\n    }\n    // @notice oracle node calls this function when they wish to leave network\n    // @return bool\n    function leaveOracleNetwork()\n    public\n    oracleHasJoined()\n    stakeCheck()\n    isNotBlacklisted()\n    returns(bool) {\n        if (ReputationContract(reputationAddr).getOracleRating(msg.sender) > 1 ){\n            blacklistedOracles[msg.sender] = true; // allows oracle nodes with penalties to leave, but cannot rejoin\n        }\n        delete oracles[msg.sender]; // deletes address from mapping\n        payable(msg.sender).transfer(stakeBalance[msg.sender]); // transfers their stake back to them\n        stakeBalance[msg.sender] = 0; // set stakeBalance back to 0 for the oracle node\n        emit OracleLeft(msg.sender, \"Node has left, Goodbye\"); // emit event so listeners can be notified\n        return true; // return true to confirm\n    }\n\n    // @notice user can call function create request\n    // @dev\n    // @param _callbackAddress could be different to address that called the function\n    // @param _callbackFID a particular function in a smart contract that is needed to be called based on request\n    // @param _IoTID the identifier of the IoT device oracle node will be subscribing to\n    // @param _dataType, true false answer, an event, continuous data over time?\n    // @param _aggregationType 1 = voting, 2 = averaging\n    // @param _numberOfOracles number of oracle nodes that fetch IoT data\n    // @return the requestID so the user can keep track of request\n    function createRequest(\n        address _callbackAddress,\n        bytes memory _callbackFID,\n        bytes memory _IoTID,\n        bytes memory _dataType,\n        uint256 _aggregationType,\n        uint32 _numberOfOracles)\n    external\n    payable\n    valueGTMinFeeCheck() // requires the value sent is >= MIN_FEE\n    oddNumOracles(_numberOfOracles) // requires an odd number of oracles\n    aggregationTypeCheck(_aggregationType) // 1 = voting, 2 = averaging\n    returns(uint256)\n    {\n        uint256 requestID = requestCounter; // assign id to request\n        // log details of the request to array to cross reference later\n        requests[requestID].requestID = requestID;\n        requests[requestID].requester = msg.sender;\n        requests[requestID].callbackAddress = _callbackAddress;\n        requests[requestID].callbackFID = _callbackFID;\n        requests[requestID].IoTID = _IoTID;\n        requests[requestID].dataType = _dataType;\n        requests[requestID].numberOfOracles = _numberOfOracles;\n        requests[requestID].oracleCounter = 0;\n        requests[requestID].status = Status.PENDING;\n        requests[requestID].cancelFlag = 0;\n        requests[requestID].fee = msg.value; // keeps track of the fee for the request\n        requests[requestID].aggregationType = _aggregationType;\n        emit StatusChange(requests[requestID].status, \"PENDING\"); // tells nodes in network of status change of requests\n        // increment requestId ready for next create request function.\n        requestCounter++;\n        pendingCounter++;\n        emit OpenForBids(requestID, requests[requestID].dataType, requests[requestID].aggregationType);\n        return requestID;\n    }\n\n    // @notice off-chain oracle node places bid to fetch data, once threshold is reached, emits event details.\n    // @dev\n    // @param requestId oracle node wishes to bid on\n    // @return true to indicate bid successful\n    function placeBid(\n        uint256 _requestID)\n    public\n    oracleHasJoined() // requires that the oracle is in the network\n    cancelFlagZero(_requestID) // requires requests cancel flag is zero\n    orcCountLessThanNum(_requestID) // requires that the oracle counter is still les than the number of oracles needed\n    isNotBlacklisted() // requires the oracle has not exceed its penalty rating past 10\n    returns(bool)\n    {\n        requests[_requestID].oraclesForRequest[msg.sender] = true; // add true for oracle in request so we know they can vote\n        requests[_requestID].oracleAddressAccess[requests[_requestID].oracleCounter] = address(msg.sender); // map addr for iteration\n        requests[_requestID].oracleCounter++; // increment the counter\n        // TODO also add a timeout, if bids take to long\n        emit BidPlaced(msg.sender); // send message to network that a bid has been placed\n        if (requests[_requestID].numberOfOracles == requests[_requestID].oracleCounter) {\n            // when the last oracle has submitted, we can emit the details\n            emit ReleaseRequestDetails(\n                requests[_requestID].requestID, // requestID\n                requests[_requestID].IoTID, // IoT info, this is most of importance\n                requests[_requestID].dataType); // DataType\n            return true; // returns true to show completion of the bidding phase that is now over\n        }\n        return oracles[msg.sender]; // returns true for each oracle that bids\n    }\n\n    // @notice called by aggregator contract to deliver final response\n    // @param _requestID, id of request\n    // @param _finalResult, final aggregated result\n    // @param _correctOracles, array of addresses of oracles to be paid for their work\n    function deliverVoteResponse(\n        uint256 _requestID,\n        bool _finalResult,\n        address[] memory _correctOracles,\n        address[] memory _incorrectOracles,\n        address[] memory _incorrectRevealOracles) // do not penalise\n    public\n    cancelFlagZero(_requestID) // requires that the cancelFlag is = 0\n    onlyAggregator() // only the aggregator contract can call this function\n    returns(bool)\n    {\n        // return single aggregation result\n        _finalResult;\n        uint fee = requests[_requestID].fee / _correctOracles.length;\n        // pay fees\n        for (uint i=0; i<_correctOracles.length; i++) {\n            // pay each share to each oracle\n            emit OraclePaid(_correctOracles[i], fee, \"Oracle has been Paid!\"); // tells listeners oracle node has been paid\n            payable(_correctOracles[i]).transfer(fee); // pays oracle their fee\n            requests[_requestID].fee -= fee; // deduct the oracles portion from the logged amount until it reaches 0\n            // and all oracles have been paid\n        }\n        // add penalties and slash dishonest nodes stake\n        for (uint i=0; i<_incorrectOracles.length; i++){\n            // gets penalty fee from reputation contract penalty**rating\n            uint penalty = ReputationContract(reputationAddr).getPenaltyFee(_incorrectOracles[i]);\n            stakeBalance[_incorrectOracles[i]] -= penalty;\n            ReputationContract(reputationAddr).incrementRating(_incorrectOracles[i]);\n        }\n        // small penalty for incorrect hashes, as this could be an error\n        for (uint i=0; i<_incorrectRevealOracles.length; i++) {\n            uint penalty = fee; // charge the fee of the request as a penalty\n            stakeBalance[_incorrectRevealOracles[i]] += penalty; // deducted from oracle stake\n        }\n        requests[_requestID].status = Status.COMPLETE; // request is complete\n        completedRequests[_requestID] = true; // add request id to completedRequests\n        emit StatusChange(requests[_requestID].status, \"COMPLETE\"); // tell listeners that the status has changed\n        pendingCounter--; // no longer pending so countered can be decremented\n        return true; // return true to so it has finished\n    }\n\n    // @notice called by aggregator contract to deliver final response\n    // @param _requestID, id of request\n    // @param _finalResult, final aggregated result\n    // @param _correctOracles, array of addresses of oracles to be paid for their work\n    function deliverAverageResponse(\n        uint256 _requestID,\n        int256 _finalResult,\n        address[] memory _correctOracles,\n        address[] memory _incorrectOracles)\n        // address[] memory _incorrectOracles,\n        // address[] memory _incorrectRevealOracles) // do not penalise\n    public\n    cancelFlagZero(_requestID) // requires that the cancelFlag is = 0\n    onlyAggregator() // only the aggregator contract can call this function\n    returns(bool)\n    {\n        // return single aggregation result\n        _finalResult;\n        uint fee = requests[_requestID].fee / _correctOracles.length;\n        // pay fees\n        for (uint i=0; i<_correctOracles.length; i++) {\n            // pay each share to each oracle\n            emit OraclePaid(_correctOracles[i], fee, \"Oracle has been Paid!\"); // tells listeners oracle node has been paid\n            payable(_correctOracles[i]).transfer(fee); // pays oracle their fee\n            requests[_requestID].fee -= fee; // deduct the oracles portion from the logged amount until it reaches 0\n            // and all oracles have been paid\n        }\n        // small penalty for incorrect hashes, as this could be an error\n        for (uint i=0; i<_incorrectOracles.length; i++) {\n            stakeBalance[_incorrectOracles[i]] -= fee; // deducted fee from stake\n        }\n        requests[_requestID].status = Status.COMPLETE; // request is complete\n        completedRequests[_requestID] = true; // add request id to completedRequests\n        emit StatusChange(requests[_requestID].status, \"COMPLETE\"); // tell listeners that the status has changed\n        pendingCounter--; // no longer pending so countered can be decremented\n        return true; // return true to so it has finished\n    }\n    // @notice function for requester to cancel request\n    // @param _requestID pass requestID to cancel the correct request\n    function cancelRequest(\n        uint256 _requestID)\n    external\n    onlyRequester(_requestID) // requires that only the requester can cancel\n    cancelFlagZero(_requestID) // requires that request is not yet cancelled\n    returns(bool)\n    {\n        requests[_requestID].cancelFlag = 1; // changes flag to 1, if 1 it will not pass other functions\n        requests[_requestID].status = Status.CANCELLED; // status changed\n        emit StatusChange(requests[_requestID].status, \"CANCELLED\");\n        AggregatorContract(aggregatorAddr).cancelRequest(_requestID); // call cancelled request in AggregatorContract\n        return true;\n    }\n    // @notice cancelled request by deadlock in the voting, if there are incorrect nodes,\n    //         correct amount might be even and could cause deadlock in voting,\n    //         in this case we refund the requester and cancel request\n    // @param _requestID\n    // @param _incorrectOracleReveals, we slash the faulty nodes here, as they have caused issues penalties are given\n    function cancelRequestDueToDeadlock(\n        uint256 _requestID,\n        address[] memory _incorrectOracleReveals)\n    external\n    onlyAggregator()\n    cancelFlagZero(_requestID)\n    returns(bool)\n    {\n        requests[_requestID].cancelFlag = 1;\n        requests[_requestID].status = Status.CANCELLED;\n        // return full fee as the user is not at fault here\n        // should be slashed from incorrect nodes for causing deadlock\n        for (uint i=0; i<_incorrectOracleReveals.length; i++){\n            // gets penalty fee from reputation contract penalty**rating\n            uint penalty = ReputationContract(reputationAddr).getPenaltyFee(_incorrectOracleReveals[i]);\n            stakeBalance[_incorrectOracleReveals[i]] -= penalty;\n            ReputationContract(reputationAddr).incrementRating(_incorrectOracleReveals[i]);\n        }\n        payable(requests[_requestID].requester).transfer(requests[_requestID].fee);\n        emit StatusChange(requests[_requestID].status, \"CANCELLED\");\n        return true;\n    }\n    // @notice blacklist oracle that misbehaves 10\n    function blacklistOracle(address _addr)\n    external\n    onlyReputation()\n    returns(bool)\n    {\n        blacklistedOracles[_addr] = true; // adds blacklisted oracle address to map\n        return blacklistedOracles[_addr]; // returns true\n    }\n\n\n\n\n    // *** Setters ***\n    function setAggregatorContract(\n        address _aggAddr)\n    public\n    onlyOwner() // only owner can set aggregator contract\n    returns(bool)\n    {\n        aggregatorAddr = _aggAddr;\n        return true;\n    }\n\n    function setReputationContract(address _repAddr)\n    public\n    onlyOwner()\n    returns(bool)\n    {\n        reputationAddr = _repAddr;\n        return true;\n    }\n\n    // *** Getters ***\n    function getOracleForRequest(\n        uint256 _requestID,\n        address _orcAddr)\n    external\n    view\n    onlyAggregator()\n    returns(bool)\n    {\n        return requests[_requestID].oraclesForRequest[_orcAddr];\n    }\n\n    function getNumberOfOracles(\n        uint256 _requestID)\n    external\n    view\n    onlyAggregator()\n    returns(uint32)\n    {\n        return requests[_requestID].numberOfOracles;\n    }\n\n    function getDataType(\n        uint256 _requestID)\n    external\n    view\n    onlyAggregator()\n    returns(bytes memory)\n    {\n        return requests[_requestID].dataType;\n    }\n    // @notice returns bool whether or not _addr is blacklisted\n    function getBlacklistedOracle(address _addr)\n    external\n    view\n    returns(bool)\n    {\n        return blacklistedOracles[_addr];\n    }\n    // @notice\n    function getAggregationType(uint256 _requestID)\n    external\n    view\n    onlyAggregator()\n    returns(uint256)\n    {\n        return requests[_requestID].aggregationType;\n    }\n    // ***Modifiers***\n    // @notice only owner of contract\n    modifier onlyOwner()\n    {\n        require(msg.sender == owner);\n        _;\n    }\n    // @notice only owner of aggregator contract\n    modifier onlyAggregator()\n    {\n        require(msg.sender == aggregatorAddr);\n        _;\n    }\n    // @notice only owner of reputation contract\n    modifier onlyReputation()\n    {\n        require(msg.sender == reputationAddr);\n        _;\n    }\n    // @notice modifier to confirm calling address is an oracle node address already acknowledged\n    modifier oracleHasJoined()\n    {\n        require(oracles[msg.sender] == true);\n        _;\n    }\n    // @notice modifier to confirm calling address is not yet an oracle node address acknowledged\n    modifier oracleNotJoined()\n    {\n        require(oracles[msg.sender] != true);\n        _;\n    }\n    // @notice requires request cancelFlag == 0\n    modifier cancelFlagZero(\n        uint256 _requestID)\n    {\n        require(requests[_requestID].cancelFlag == 0);\n        _;\n    }\n    // @notice requires stakeBalance to equal exactly 1 ETH\n    modifier stakeCheck()\n    {\n        require(stakeBalance[msg.sender] > 0);\n        _;\n    }\n    // @notice requires the value sent to be >= MIN_FEE set\n    modifier valueGTMinFeeCheck()\n    {\n        // require msg.value has enough to pay oracles for each function call\n        require(msg.value >= MIN_FEE);\n        _;\n    }\n    // @notice requires an odd number of oracles so voting/aggregation doesnt become deadlocked\n    modifier oddNumOracles(\n        uint32 _numberOfOracles)\n    {\n        // makes sure the number that there is always an odd number of oracles so a majority can be reached.\n        require(!(_numberOfOracles % 2 == 0));\n        _;\n    }\n    // @notice requires a new oracle to send 1 eth to be held by contract until it leaves the network\n    modifier valueEqual1Eth()\n    {\n        require(msg.value == 1 ether); // must send 1 eth that is to be held by contract\n        _;\n    }\n    // @notice requires counter to be less than number required\n    modifier orcCountLessThanNum(\n        uint256 _requestID)\n    {\n        // makes sure oracle counter is less than number of oracles required so response can be submitted\n        require(requests[_requestID].oracleCounter < requests[_requestID].numberOfOracles);\n        _;\n    }\n    // @notice requires that only the request can call the function\n    modifier onlyRequester(\n        uint256 _requestID)\n    {\n        require(msg.sender == requests[_requestID].requester);\n        _;\n    }\n\n    modifier isNotBlacklisted() {\n        require(!blacklistedOracles[msg.sender] == true);\n        _;\n    }\n    modifier aggregationTypeCheck(uint256 _aggregationType) {\n        require(1 == _aggregationType || _aggregationType == 2 );\n        _;\n    }\n\n}\n",
  "sourcePath": "/home/willp/Documents/MSc_Computer_Science/PROJECT/Research_Code/july22_projectcode/IoToracle/contracts/OracleRequestContract.sol",
  "compiler": {
    "name": "solc",
    "version": "0.8.15+commit.e14f2714.Emscripten.clang"
  },
  "schemaVersion": "3.4.8",
  "updatedAt": "2022-08-11T18:01:04.540Z",
  "networkType": "ethereum",
  "devdoc": {
    "kind": "dev",
    "methods": {},
    "version": 1
  },
  "userdoc": {
    "kind": "user",
    "methods": {},
    "version": 1
  }
}