{
  "contractName": "OracleRequestContract",
  "abi": [
    {
      "inputs": [],
      "stateMutability": "nonpayable",
      "type": "constructor"
    },
    {
      "anonymous": false,
      "inputs": [
        {
          "indexed": false,
          "internalType": "address",
          "name": "",
          "type": "address"
        }
      ],
      "name": "BidPlaced",
      "type": "event"
    },
    {
      "anonymous": false,
      "inputs": [
        {
          "indexed": false,
          "internalType": "int256",
          "name": "",
          "type": "int256"
        },
        {
          "indexed": false,
          "internalType": "string",
          "name": "",
          "type": "string"
        }
      ],
      "name": "FinalInt",
      "type": "event"
    },
    {
      "anonymous": false,
      "inputs": [
        {
          "indexed": false,
          "internalType": "bool",
          "name": "",
          "type": "bool"
        },
        {
          "indexed": false,
          "internalType": "string",
          "name": "",
          "type": "string"
        }
      ],
      "name": "FinalResultLog",
      "type": "event"
    },
    {
      "anonymous": false,
      "inputs": [
        {
          "indexed": false,
          "internalType": "string",
          "name": "",
          "type": "string"
        }
      ],
      "name": "Logging",
      "type": "event"
    },
    {
      "anonymous": false,
      "inputs": [
        {
          "indexed": false,
          "internalType": "uint256",
          "name": "",
          "type": "uint256"
        },
        {
          "indexed": false,
          "internalType": "bytes",
          "name": "",
          "type": "bytes"
        },
        {
          "indexed": false,
          "internalType": "uint256",
          "name": "",
          "type": "uint256"
        },
        {
          "indexed": false,
          "internalType": "uint256",
          "name": "",
          "type": "uint256"
        },
        {
          "indexed": false,
          "internalType": "uint256",
          "name": "",
          "type": "uint256"
        }
      ],
      "name": "OpenForBids",
      "type": "event"
    },
    {
      "anonymous": false,
      "inputs": [
        {
          "indexed": false,
          "internalType": "address",
          "name": "",
          "type": "address"
        },
        {
          "indexed": false,
          "internalType": "string",
          "name": "",
          "type": "string"
        }
      ],
      "name": "OracleJoined",
      "type": "event"
    },
    {
      "anonymous": false,
      "inputs": [
        {
          "indexed": false,
          "internalType": "address",
          "name": "",
          "type": "address"
        },
        {
          "indexed": false,
          "internalType": "string",
          "name": "",
          "type": "string"
        }
      ],
      "name": "OracleLeft",
      "type": "event"
    },
    {
      "anonymous": false,
      "inputs": [
        {
          "indexed": false,
          "internalType": "address",
          "name": "",
          "type": "address"
        },
        {
          "indexed": false,
          "internalType": "uint256",
          "name": "",
          "type": "uint256"
        },
        {
          "indexed": false,
          "internalType": "string",
          "name": "",
          "type": "string"
        }
      ],
      "name": "OraclePaid",
      "type": "event"
    },
    {
      "anonymous": false,
      "inputs": [
        {
          "indexed": false,
          "internalType": "uint256",
          "name": "",
          "type": "uint256"
        },
        {
          "indexed": false,
          "internalType": "bytes",
          "name": "",
          "type": "bytes"
        },
        {
          "indexed": false,
          "internalType": "bytes",
          "name": "",
          "type": "bytes"
        }
      ],
      "name": "ReleaseRequestDetails",
      "type": "event"
    },
    {
      "anonymous": false,
      "inputs": [
        {
          "indexed": false,
          "internalType": "enum OracleRequestContract.Status",
          "name": "",
          "type": "uint8"
        },
        {
          "indexed": false,
          "internalType": "string",
          "name": "",
          "type": "string"
        }
      ],
      "name": "StatusChange",
      "type": "event"
    },
    {
      "anonymous": false,
      "inputs": [
        {
          "indexed": false,
          "internalType": "uint256",
          "name": "",
          "type": "uint256"
        },
        {
          "indexed": false,
          "internalType": "uint256",
          "name": "",
          "type": "uint256"
        },
        {
          "indexed": false,
          "internalType": "uint256",
          "name": "",
          "type": "uint256"
        }
      ],
      "name": "UpdateTimestamp",
      "type": "event"
    },
    {
      "stateMutability": "nonpayable",
      "type": "fallback"
    },
    {
      "inputs": [],
      "name": "aggregatorAddr",
      "outputs": [
        {
          "internalType": "address",
          "name": "",
          "type": "address"
        }
      ],
      "stateMutability": "view",
      "type": "function",
      "constant": true
    },
    {
      "inputs": [
        {
          "internalType": "address",
          "name": "",
          "type": "address"
        }
      ],
      "name": "blacklistedOracles",
      "outputs": [
        {
          "internalType": "bool",
          "name": "",
          "type": "bool"
        }
      ],
      "stateMutability": "view",
      "type": "function",
      "constant": true
    },
    {
      "inputs": [
        {
          "internalType": "uint256",
          "name": "",
          "type": "uint256"
        }
      ],
      "name": "completedRequests",
      "outputs": [
        {
          "internalType": "bool",
          "name": "",
          "type": "bool"
        }
      ],
      "stateMutability": "view",
      "type": "function",
      "constant": true
    },
    {
      "inputs": [
        {
          "internalType": "address",
          "name": "",
          "type": "address"
        }
      ],
      "name": "oracles",
      "outputs": [
        {
          "internalType": "bool",
          "name": "",
          "type": "bool"
        }
      ],
      "stateMutability": "view",
      "type": "function",
      "constant": true
    },
    {
      "inputs": [],
      "name": "owner",
      "outputs": [
        {
          "internalType": "address",
          "name": "",
          "type": "address"
        }
      ],
      "stateMutability": "view",
      "type": "function",
      "constant": true
    },
    {
      "inputs": [],
      "name": "reputationAddr",
      "outputs": [
        {
          "internalType": "address",
          "name": "",
          "type": "address"
        }
      ],
      "stateMutability": "view",
      "type": "function",
      "constant": true
    },
    {
      "inputs": [
        {
          "internalType": "uint256",
          "name": "",
          "type": "uint256"
        }
      ],
      "name": "requests",
      "outputs": [
        {
          "internalType": "uint256",
          "name": "requestID",
          "type": "uint256"
        },
        {
          "internalType": "address",
          "name": "requester",
          "type": "address"
        },
        {
          "internalType": "address",
          "name": "callbackAddress",
          "type": "address"
        },
        {
          "internalType": "bytes",
          "name": "callbackFID",
          "type": "bytes"
        },
        {
          "internalType": "bytes",
          "name": "IoTID",
          "type": "bytes"
        },
        {
          "internalType": "bytes",
          "name": "dataType",
          "type": "bytes"
        },
        {
          "internalType": "uint32",
          "name": "numberOfOracles",
          "type": "uint32"
        },
        {
          "internalType": "uint256",
          "name": "aggregationType",
          "type": "uint256"
        },
        {
          "internalType": "uint32",
          "name": "oracleCounter",
          "type": "uint32"
        },
        {
          "internalType": "enum OracleRequestContract.Status",
          "name": "status",
          "type": "uint8"
        },
        {
          "internalType": "uint8",
          "name": "cancelFlag",
          "type": "uint8"
        },
        {
          "internalType": "uint256",
          "name": "fee",
          "type": "uint256"
        }
      ],
      "stateMutability": "view",
      "type": "function",
      "constant": true
    },
    {
      "inputs": [
        {
          "internalType": "address",
          "name": "",
          "type": "address"
        }
      ],
      "name": "stakeBalance",
      "outputs": [
        {
          "internalType": "uint256",
          "name": "",
          "type": "uint256"
        }
      ],
      "stateMutability": "view",
      "type": "function",
      "constant": true
    },
    {
      "inputs": [
        {
          "internalType": "uint256",
          "name": "",
          "type": "uint256"
        }
      ],
      "name": "timings",
      "outputs": [
        {
          "internalType": "uint256",
          "name": "appealFlag",
          "type": "uint256"
        },
        {
          "internalType": "uint256",
          "name": "timestamp",
          "type": "uint256"
        },
        {
          "internalType": "uint256",
          "name": "elapsedTime",
          "type": "uint256"
        }
      ],
      "stateMutability": "view",
      "type": "function",
      "constant": true
    },
    {
      "inputs": [],
      "name": "joinAsOracle",
      "outputs": [
        {
          "internalType": "bool",
          "name": "",
          "type": "bool"
        }
      ],
      "stateMutability": "payable",
      "type": "function",
      "payable": true
    },
    {
      "inputs": [],
      "name": "leaveOracleNetwork",
      "outputs": [
        {
          "internalType": "bool",
          "name": "",
          "type": "bool"
        }
      ],
      "stateMutability": "nonpayable",
      "type": "function"
    },
    {
      "inputs": [
        {
          "internalType": "address",
          "name": "_callbackAddress",
          "type": "address"
        },
        {
          "internalType": "bytes",
          "name": "_callbackFID",
          "type": "bytes"
        },
        {
          "internalType": "bytes",
          "name": "_IoTID",
          "type": "bytes"
        },
        {
          "internalType": "bytes",
          "name": "_dataType",
          "type": "bytes"
        },
        {
          "internalType": "uint256",
          "name": "_aggregationType",
          "type": "uint256"
        },
        {
          "internalType": "uint32",
          "name": "_numberOfOracles",
          "type": "uint32"
        },
        {
          "internalType": "uint256",
          "name": "_elapsedTime",
          "type": "uint256"
        }
      ],
      "name": "createRequest",
      "outputs": [
        {
          "internalType": "uint256",
          "name": "",
          "type": "uint256"
        }
      ],
      "stateMutability": "payable",
      "type": "function",
      "payable": true
    },
    {
      "inputs": [
        {
          "internalType": "uint256",
          "name": "_requestID",
          "type": "uint256"
        }
      ],
      "name": "timeoutCommitsAppeal",
      "outputs": [],
      "stateMutability": "nonpayable",
      "type": "function"
    },
    {
      "inputs": [
        {
          "internalType": "uint256",
          "name": "_requestID",
          "type": "uint256"
        }
      ],
      "name": "timeoutRevealsAppeal",
      "outputs": [],
      "stateMutability": "nonpayable",
      "type": "function"
    },
    {
      "inputs": [
        {
          "internalType": "uint256",
          "name": "_requestID",
          "type": "uint256"
        }
      ],
      "name": "placeBid",
      "outputs": [
        {
          "internalType": "bool",
          "name": "",
          "type": "bool"
        }
      ],
      "stateMutability": "nonpayable",
      "type": "function"
    },
    {
      "inputs": [
        {
          "internalType": "uint256",
          "name": "_requestID",
          "type": "uint256"
        },
        {
          "internalType": "bool",
          "name": "_finalResult",
          "type": "bool"
        },
        {
          "internalType": "address[]",
          "name": "_correctOracles",
          "type": "address[]"
        },
        {
          "internalType": "address[]",
          "name": "_incorrectOracles",
          "type": "address[]"
        },
        {
          "internalType": "address[]",
          "name": "_incorrectRevealOracles",
          "type": "address[]"
        }
      ],
      "name": "deliverVoteResponse",
      "outputs": [
        {
          "internalType": "bool",
          "name": "",
          "type": "bool"
        }
      ],
      "stateMutability": "nonpayable",
      "type": "function"
    },
    {
      "inputs": [
        {
          "internalType": "uint256",
          "name": "_requestID",
          "type": "uint256"
        },
        {
          "internalType": "int256",
          "name": "_finalResult",
          "type": "int256"
        },
        {
          "internalType": "address[]",
          "name": "_correctOracles",
          "type": "address[]"
        },
        {
          "internalType": "address[]",
          "name": "_incorrectOracles",
          "type": "address[]"
        }
      ],
      "name": "deliverAverageResponse",
      "outputs": [
        {
          "internalType": "bool",
          "name": "",
          "type": "bool"
        }
      ],
      "stateMutability": "nonpayable",
      "type": "function"
    },
    {
      "inputs": [
        {
          "internalType": "uint256",
          "name": "_requestID",
          "type": "uint256"
        }
      ],
      "name": "cancelRequest",
      "outputs": [
        {
          "internalType": "bool",
          "name": "",
          "type": "bool"
        }
      ],
      "stateMutability": "nonpayable",
      "type": "function"
    },
    {
      "inputs": [
        {
          "internalType": "uint256",
          "name": "_requestID",
          "type": "uint256"
        },
        {
          "internalType": "address[]",
          "name": "_incorrectOracleReveals",
          "type": "address[]"
        }
      ],
      "name": "cancelRequestDueToDeadlock",
      "outputs": [
        {
          "internalType": "bool",
          "name": "",
          "type": "bool"
        }
      ],
      "stateMutability": "nonpayable",
      "type": "function"
    },
    {
      "inputs": [
        {
          "internalType": "address",
          "name": "_addr",
          "type": "address"
        }
      ],
      "name": "blacklistOracle",
      "outputs": [
        {
          "internalType": "bool",
          "name": "",
          "type": "bool"
        }
      ],
      "stateMutability": "nonpayable",
      "type": "function"
    },
    {
      "inputs": [
        {
          "internalType": "address",
          "name": "_aggAddr",
          "type": "address"
        }
      ],
      "name": "setAggregatorContract",
      "outputs": [
        {
          "internalType": "bool",
          "name": "",
          "type": "bool"
        }
      ],
      "stateMutability": "nonpayable",
      "type": "function"
    },
    {
      "inputs": [
        {
          "internalType": "address",
          "name": "_repAddr",
          "type": "address"
        }
      ],
      "name": "setReputationContract",
      "outputs": [
        {
          "internalType": "bool",
          "name": "",
          "type": "bool"
        }
      ],
      "stateMutability": "nonpayable",
      "type": "function"
    },
    {
      "inputs": [
        {
          "internalType": "uint256",
          "name": "_requestID",
          "type": "uint256"
        },
        {
          "internalType": "address",
          "name": "_orcAddr",
          "type": "address"
        }
      ],
      "name": "getOracleForRequest",
      "outputs": [
        {
          "internalType": "bool",
          "name": "",
          "type": "bool"
        }
      ],
      "stateMutability": "view",
      "type": "function",
      "constant": true
    },
    {
      "inputs": [
        {
          "internalType": "uint256",
          "name": "_requestID",
          "type": "uint256"
        }
      ],
      "name": "getNumberOfOracles",
      "outputs": [
        {
          "internalType": "uint32",
          "name": "",
          "type": "uint32"
        }
      ],
      "stateMutability": "view",
      "type": "function",
      "constant": true
    },
    {
      "inputs": [
        {
          "internalType": "uint256",
          "name": "_requestID",
          "type": "uint256"
        }
      ],
      "name": "getDataType",
      "outputs": [
        {
          "internalType": "bytes",
          "name": "",
          "type": "bytes"
        }
      ],
      "stateMutability": "view",
      "type": "function",
      "constant": true
    },
    {
      "inputs": [
        {
          "internalType": "address",
          "name": "_addr",
          "type": "address"
        }
      ],
      "name": "getBlacklistedOracle",
      "outputs": [
        {
          "internalType": "bool",
          "name": "",
          "type": "bool"
        }
      ],
      "stateMutability": "view",
      "type": "function",
      "constant": true
    },
    {
      "inputs": [
        {
          "internalType": "uint256",
          "name": "_requestID",
          "type": "uint256"
        }
      ],
      "name": "getAggregationType",
      "outputs": [
        {
          "internalType": "uint256",
          "name": "",
          "type": "uint256"
        }
      ],
      "stateMutability": "view",
      "type": "function",
      "constant": true
    }
  ],
  "bytecode": "0x608060405260016104b65560016104b7556404a817c80061064c55600361064c546200002c9190620000e3565b61064d55600561064c54620000429190620000e3565b61064d5462000052919062000144565b61064e553480156200006357600080fd5b50336000806101000a81548173ffffffffffffffffffffffffffffffffffffffff021916908373ffffffffffffffffffffffffffffffffffffffff160217905550620001a1565b6000819050919050565b7f4e487b7100000000000000000000000000000000000000000000000000000000600052601160045260246000fd5b6000620000f082620000aa565b9150620000fd83620000aa565b9250817fffffffffffffffffffffffffffffffffffffffffffffffffffffffffffffffff0483118215151615620001395762000138620000b4565b5b828202905092915050565b60006200015182620000aa565b91506200015e83620000aa565b9250827fffffffffffffffffffffffffffffffffffffffffffffffffffffffffffffffff03821115620001965762000195620000b4565b5b828201905092915050565b614fa680620001b16000396000f3fe6080604052600436106101a05760003560e01c80638da5cb5b116100ec578063a08702f31161008a578063d175a47f11610064578063d175a47f146106af578063e4888222146106d8578063eee5a59614610715578063f0fbfbf314610752576101a1565b8063a08702f31461060a578063a37b354d14610635578063addd509914610672576101a1565b80639584660f116100c65780639584660f146105145780639610f691146105515780639967cf60146105905780639979ef45146105cd576101a1565b80638da5cb5b1461048e57806391a3632a146104b9578063950e1da9146104f6576101a1565b806357442e79116101595780637d02da09116101335780637d02da09146103b557806381d12c58146103f2578063827626001461043a5780638394d49e14610465576101a1565b806357442e79146102fe57806358621b7a1461033b5780636fbf797314610378576101a1565b8063053ebc9a146101af5780633015394c146101da578063301f1dbd1461021757806330407ad914610247578063498d7df0146102845780634e7c57a6146102c1576101a1565b5b3480156101ad57600080fd5b005b3480156101bb57600080fd5b506101c461078f565b6040516101d19190613a2c565b60405180910390f35b3480156101e657600080fd5b5061020160048036038101906101fc9190613a91565b6107b5565b60405161020e9190613ad9565b60405180910390f35b610231600480360381019061022c9190613ca2565b6109e6565b60405161023e9190613da7565b60405180910390f35b34801561025357600080fd5b5061026e60048036038101906102699190613eb6565b610e46565b60405161027b9190613ad9565b60405180910390f35b34801561029057600080fd5b506102ab60048036038101906102a69190613f85565b611708565b6040516102b89190613ad9565b60405180910390f35b3480156102cd57600080fd5b506102e860048036038101906102e39190613fe1565b611b22565b6040516102f59190613da7565b60405180910390f35b34801561030a57600080fd5b5061032560048036038101906103209190613a91565b611b3b565b6040516103329190614096565b60405180910390f35b34801561034757600080fd5b50610362600480360381019061035d91906140ee565b611c42565b60405161036f9190613ad9565b60405180910390f35b34801561038457600080fd5b5061039f600480360381019061039a9190613fe1565b611f3e565b6040516103ac9190613ad9565b60405180910390f35b3480156103c157600080fd5b506103dc60048036038101906103d79190613fe1565b611f95565b6040516103e99190613ad9565b60405180910390f35b3480156103fe57600080fd5b5061041960048036038101906104149190613a91565b611fb6565b6040516104319c9b9a9998979695949392919061422f565b60405180910390f35b34801561044657600080fd5b5061044f61222e565b60405161045c9190613a2c565b60405180910390f35b34801561047157600080fd5b5061048c60048036038101906104879190613a91565b612254565b005b34801561049a57600080fd5b506104a36126ac565b6040516104b09190613a2c565b60405180910390f35b3480156104c557600080fd5b506104e060048036038101906104db9190613a91565b6126d0565b6040516104ed91906142fe565b60405180910390f35b6104fe61275f565b60405161050b9190613ad9565b60405180910390f35b34801561052057600080fd5b5061053b60048036038101906105369190613fe1565b6129f9565b6040516105489190613ad9565b60405180910390f35b34801561055d57600080fd5b5061057860048036038101906105739190613a91565b612a9e565b60405161058793929190614319565b60405180910390f35b34801561059c57600080fd5b506105b760048036038101906105b29190613fe1565b612acf565b6040516105c49190613ad9565b60405180910390f35b3480156105d957600080fd5b506105f460048036038101906105ef9190613a91565b612b74565b6040516106019190613ad9565b60405180910390f35b34801561061657600080fd5b5061061f612fd3565b60405161062c9190613ad9565b60405180910390f35b34801561064157600080fd5b5061065c60048036038101906106579190614350565b613338565b6040516106699190613ad9565b60405180910390f35b34801561067e57600080fd5b5061069960048036038101906106949190613fe1565b613402565b6040516106a69190613ad9565b60405180910390f35b3480156106bb57600080fd5b506106d660048036038101906106d19190613a91565b613423565b005b3480156106e457600080fd5b506106ff60048036038101906106fa9190613a91565b613837565b60405161070c9190613da7565b60405180910390f35b34801561072157600080fd5b5061073c60048036038101906107379190613fe1565b6138b6565b6040516107499190613ad9565b60405180910390f35b34801561075e57600080fd5b5061077960048036038101906107749190613a91565b6139c0565b6040516107869190613ad9565b60405180910390f35b600260009054906101000a900473ffffffffffffffffffffffffffffffffffffffff1681565b600081600381606481106107cc576107cb614390565b5b600c020160010160009054906101000a900473ffffffffffffffffffffffffffffffffffffffff1673ffffffffffffffffffffffffffffffffffffffff163373ffffffffffffffffffffffffffffffffffffffff161461082b57600080fd5b8260006003826064811061084257610841614390565b5b600c0201600a0160059054906101000a900460ff1660ff161461086457600080fd5b60016003856064811061087a57610879614390565b5b600c0201600a0160056101000a81548160ff021916908360ff1602179055506002600385606481106108af576108ae614390565b5b600c0201600a0160046101000a81548160ff021916908360028111156108d8576108d761419c565b5b02179055507f346e0fa9e112a7376778dcb0fe0fdfe51db577b3d0b1592a40266db0b192f8226003856064811061091257610911614390565b5b600c0201600a0160049054906101000a900460ff16604051610934919061441c565b60405180910390a1600160009054906101000a900473ffffffffffffffffffffffffffffffffffffffff1673ffffffffffffffffffffffffffffffffffffffff16633015394c856040518263ffffffff1660e01b81526004016109979190613da7565b6020604051808303816000875af11580156109b6573d6000803e3d6000fd5b505050506040513d601f19601f820116820180604052508101906109da919061445f565b50600192505050919050565b600061064e543410156109f857600080fd5b826000600282610a0891906144bb565b63ffffffff1603610a1857600080fd5b848060011480610a285750600281145b610a3157600080fd5b60006104b6549050426104bc8260648110610a4f57610a4e614390565b5b6004020160010181905550846104bc8260648110610a7057610a6f614390565b5b60040201600201819055508060038260648110610a9057610a8f614390565b5b600c0201600001819055503360038260648110610ab057610aaf614390565b5b600c020160010160006101000a81548173ffffffffffffffffffffffffffffffffffffffff021916908373ffffffffffffffffffffffffffffffffffffffff1602179055508a60038260648110610b0a57610b09614390565b5b600c020160020160006101000a81548173ffffffffffffffffffffffffffffffffffffffff021916908373ffffffffffffffffffffffffffffffffffffffff1602179055508960038260648110610b6457610b63614390565b5b600c02016003019081610b7791906146f8565b508860038260648110610b8d57610b8c614390565b5b600c02016004019081610ba091906146f8565b508760038260648110610bb657610bb5614390565b5b600c02016005019081610bc991906146f8565b508560038260648110610bdf57610bde614390565b5b600c020160060160006101000a81548163ffffffff021916908363ffffffff160217905550600060038260648110610c1a57610c19614390565b5b600c0201600a0160006101000a81548163ffffffff021916908363ffffffff160217905550600060038260648110610c5557610c54614390565b5b600c0201600a0160046101000a81548160ff02191690836002811115610c7e57610c7d61419c565b5b0217905550600060038260648110610c9957610c98614390565b5b600c0201600a0160056101000a81548160ff021916908360ff1602179055503460038260648110610ccd57610ccc614390565b5b600c0201600b01819055508660038260648110610ced57610cec614390565b5b600c0201600901819055507f346e0fa9e112a7376778dcb0fe0fdfe51db577b3d0b1592a40266db0b192f82260038260648110610d2d57610d2c614390565b5b600c0201600a0160049054906101000a900460ff16604051610d4f9190614816565b60405180910390a16104b66000815480929190610d6b90614873565b91905055506104b76000815480929190610d8490614873565b91905055507f45467d61e6f35d1866a79e0828e55247a1cbdbd929532d73c56d73ae64cfe83a8160038360648110610dbf57610dbe614390565b5b600c020160050160038460648110610dda57610dd9614390565b5b600c0201600901546104bc8560648110610df757610df6614390565b5b60040201600101546104bc8660648110610e1457610e13614390565b5b6004020160020154604051610e2d95949392919061493f565b60405180910390a1809350505050979650505050505050565b600085600060038260648110610e5f57610e5e614390565b5b600c0201600a0160059054906101000a900460ff1660ff1614610e8157600080fd5b600160009054906101000a900473ffffffffffffffffffffffffffffffffffffffff1673ffffffffffffffffffffffffffffffffffffffff163373ffffffffffffffffffffffffffffffffffffffff1614610edb57600080fd5b7f5286d5a6d3a87f8e130652b705a8d0ec84042e834444bd00313a08d13a38475586604051610f0a91906149e5565b60405180910390a16000805b6104bc8960648110610f2b57610f2a614390565b5b6004020160030180549050811015611143576000600260009054906101000a900473ffffffffffffffffffffffffffffffffffffffff1673ffffffffffffffffffffffffffffffffffffffff1663b8f9c2a1888481518110610f9057610f8f614390565b5b60200260200101516040518263ffffffff1660e01b8152600401610fb49190613a2c565b602060405180830381865afa158015610fd1573d6000803e3d6000fd5b505050506040513d601f19601f82011682018060405250810190610ff59190614a28565b9050806104b560008985815181106110105761100f614390565b5b602002602001015173ffffffffffffffffffffffffffffffffffffffff1673ffffffffffffffffffffffffffffffffffffffff16815260200190815260200160002060008282546110619190614a55565b9250508190555080836110749190614a89565b9250600260009054906101000a900473ffffffffffffffffffffffffffffffffffffffff1673ffffffffffffffffffffffffffffffffffffffff166318b529c38884815181106110c7576110c6614390565b5b60200260200101516040518263ffffffff1660e01b81526004016110eb9190613a2c565b6020604051808303816000875af115801561110a573d6000803e3d6000fd5b505050506040513d601f19601f8201168201806040525081019061112e9190614a28565b5050808061113b90614873565b915050610f16565b5060005b8551811015611356576000600260009054906101000a900473ffffffffffffffffffffffffffffffffffffffff1673ffffffffffffffffffffffffffffffffffffffff1663b8f9c2a18884815181106111a3576111a2614390565b5b60200260200101516040518263ffffffff1660e01b81526004016111c79190613a2c565b602060405180830381865afa1580156111e4573d6000803e3d6000fd5b505050506040513d601f19601f820116820180604052508101906112089190614a28565b9050806104b5600089858151811061122357611222614390565b5b602002602001015173ffffffffffffffffffffffffffffffffffffffff1673ffffffffffffffffffffffffffffffffffffffff16815260200190815260200160002060008282546112749190614a55565b9250508190555080836112879190614a89565b9250600260009054906101000a900473ffffffffffffffffffffffffffffffffffffffff1673ffffffffffffffffffffffffffffffffffffffff166318b529c38884815181106112da576112d9614390565b5b60200260200101516040518263ffffffff1660e01b81526004016112fe9190613a2c565b6020604051808303816000875af115801561131d573d6000803e3d6000fd5b505050506040513d601f19601f820116820180604052508101906113419190614a28565b5050808061134e90614873565b915050611147565b5060005b84518110156114b0576000600260009054906101000a900473ffffffffffffffffffffffffffffffffffffffff1673ffffffffffffffffffffffffffffffffffffffff1663b8f9c2a18884815181106113b6576113b5614390565b5b60200260200101516040518263ffffffff1660e01b81526004016113da9190613a2c565b602060405180830381865afa1580156113f7573d6000803e3d6000fd5b505050506040513d601f19601f8201168201806040525081019061141b9190614a28565b905080836114299190614a89565b9250806104b5600088858151811061144457611443614390565b5b602002602001015173ffffffffffffffffffffffffffffffffffffffff1673ffffffffffffffffffffffffffffffffffffffff16815260200190815260200160002060008282546114959190614a89565b925050819055505080806114a890614873565b91505061135a565b506000865160038a606481106114c9576114c8614390565b5b600c0201600b01546114db9190614adf565b905060008751836114ec9190614adf565b905060005b885181101561160457600082846115089190614a89565b90507f88fa4dc6dc84fb056628ddf02c361252f313bcdd951c9d28e3b628bffac8ab558a838151811061153e5761153d614390565b5b602002602001015182604051611555929190614b5c565b60405180910390a18982815181106115705761156f614390565b5b602002602001015173ffffffffffffffffffffffffffffffffffffffff166108fc829081150290604051600060405180830381858888f193505050501580156115bd573d6000803e3d6000fd5b508360038d606481106115d3576115d2614390565b5b600c0201600b0160008282546115e99190614a55565b925050819055505080806115fc90614873565b9150506114f1565b50600160038b6064811061161b5761161a614390565b5b600c0201600a0160046101000a81548160ff021916908360028111156116445761164361419c565b5b021790555060016104b88b606481106116605761165f614390565b5b602091828204019190066101000a81548160ff0219169083151502179055507f346e0fa9e112a7376778dcb0fe0fdfe51db577b3d0b1592a40266db0b192f82260038b606481106116b4576116b3614390565b5b600c0201600a0160049054906101000a900460ff166040516116d69190614be4565b60405180910390a16104b760008154809291906116f290614c12565b9190505550600194505050505095945050505050565b6000600160009054906101000a900473ffffffffffffffffffffffffffffffffffffffff1673ffffffffffffffffffffffffffffffffffffffff163373ffffffffffffffffffffffffffffffffffffffff161461176457600080fd5b8260006003826064811061177b5761177a614390565b5b600c0201600a0160059054906101000a900460ff1660ff161461179d57600080fd5b6001600385606481106117b3576117b2614390565b5b600c0201600a0160056101000a81548160ff021916908360ff1602179055506002600385606481106117e8576117e7614390565b5b600c0201600a0160046101000a81548160ff021916908360028111156118115761181061419c565b5b021790555060005b8351811015611a1a576000600260009054906101000a900473ffffffffffffffffffffffffffffffffffffffff1673ffffffffffffffffffffffffffffffffffffffff1663b8f9c2a186848151811061187557611874614390565b5b60200260200101516040518263ffffffff1660e01b81526004016118999190613a2c565b602060405180830381865afa1580156118b6573d6000803e3d6000fd5b505050506040513d601f19601f820116820180604052508101906118da9190614a28565b9050806104b560008785815181106118f5576118f4614390565b5b602002602001015173ffffffffffffffffffffffffffffffffffffffff1673ffffffffffffffffffffffffffffffffffffffff16815260200190815260200160002060008282546119469190614a55565b92505081905550600260009054906101000a900473ffffffffffffffffffffffffffffffffffffffff1673ffffffffffffffffffffffffffffffffffffffff166318b529c386848151811061199e5761199d614390565b5b60200260200101516040518263ffffffff1660e01b81526004016119c29190613a2c565b6020604051808303816000875af11580156119e1573d6000803e3d6000fd5b505050506040513d601f19601f82011682018060405250810190611a059190614a28565b50508080611a1290614873565b915050611819565b5060038460648110611a2f57611a2e614390565b5b600c020160010160009054906101000a900473ffffffffffffffffffffffffffffffffffffffff1673ffffffffffffffffffffffffffffffffffffffff166108fc60038660648110611a8457611a83614390565b5b600c0201600b01549081150290604051600060405180830381858888f19350505050158015611ab7573d6000803e3d6000fd5b507f346e0fa9e112a7376778dcb0fe0fdfe51db577b3d0b1592a40266db0b192f82260038560648110611aed57611aec614390565b5b600c0201600a0160049054906101000a900460ff16604051611b0f919061441c565b60405180910390a1600191505092915050565b6104b56020528060005260406000206000915090505481565b6060600160009054906101000a900473ffffffffffffffffffffffffffffffffffffffff1673ffffffffffffffffffffffffffffffffffffffff163373ffffffffffffffffffffffffffffffffffffffff1614611b9757600080fd5b60038260648110611bab57611baa614390565b5b600c02016005018054611bbd9061451b565b80601f0160208091040260200160405190810160405280929190818152602001828054611be99061451b565b8015611c365780601f10611c0b57610100808354040283529160200191611c36565b820191906000526020600020905b815481529060010190602001808311611c1957829003601f168201915b50505050509050919050565b600084600060038260648110611c5b57611c5a614390565b5b600c0201600a0160059054906101000a900460ff1660ff1614611c7d57600080fd5b600160009054906101000a900473ffffffffffffffffffffffffffffffffffffffff1673ffffffffffffffffffffffffffffffffffffffff163373ffffffffffffffffffffffffffffffffffffffff1614611cd757600080fd5b7f3691000541ef974fd47bc9eebb3e5c3acc93be77b1a5e07d20477d2193be601985604051611d069190614c96565b60405180910390a16000845160038860648110611d2657611d25614390565b5b600c0201600b0154611d389190614adf565b905060005b8551811015611dac577f88fa4dc6dc84fb056628ddf02c361252f313bcdd951c9d28e3b628bffac8ab55868281518110611d7a57611d79614390565b5b602002602001015183604051611d91929190614b5c565b60405180910390a18080611da490614873565b915050611d3d565b5060005b8451811015611e3d57816104b56000878481518110611dd257611dd1614390565b5b602002602001015173ffffffffffffffffffffffffffffffffffffffff1673ffffffffffffffffffffffffffffffffffffffff1681526020019081526020016000206000828254611e239190614a55565b925050819055508080611e3590614873565b915050611db0565b50600160038860648110611e5457611e53614390565b5b600c0201600a0160046101000a81548160ff02191690836002811115611e7d57611e7c61419c565b5b021790555060016104b88860648110611e9957611e98614390565b5b602091828204019190066101000a81548160ff0219169083151502179055507f346e0fa9e112a7376778dcb0fe0fdfe51db577b3d0b1592a40266db0b192f82260038860648110611eed57611eec614390565b5b600c0201600a0160049054906101000a900460ff16604051611f0f9190614be4565b60405180910390a16104b76000815480929190611f2b90614c12565b9190505550600192505050949350505050565b60006104b460008373ffffffffffffffffffffffffffffffffffffffff1673ffffffffffffffffffffffffffffffffffffffff16815260200190815260200160002060009054906101000a900460ff169050919050565b6104b46020528060005260406000206000915054906101000a900460ff1681565b60038160648110611fc657600080fd5b600c02016000915090508060000154908060010160009054906101000a900473ffffffffffffffffffffffffffffffffffffffff16908060020160009054906101000a900473ffffffffffffffffffffffffffffffffffffffff16908060030180546120319061451b565b80601f016020809104026020016040519081016040528092919081815260200182805461205d9061451b565b80156120aa5780601f1061207f576101008083540402835291602001916120aa565b820191906000526020600020905b81548152906001019060200180831161208d57829003601f168201915b5050505050908060040180546120bf9061451b565b80601f01602080910402602001604051908101604052809291908181526020018280546120eb9061451b565b80156121385780601f1061210d57610100808354040283529160200191612138565b820191906000526020600020905b81548152906001019060200180831161211b57829003601f168201915b50505050509080600501805461214d9061451b565b80601f01602080910402602001604051908101604052809291908181526020018280546121799061451b565b80156121c65780601f1061219b576101008083540402835291602001916121c6565b820191906000526020600020905b8154815290600101906020018083116121a957829003601f168201915b5050505050908060060160009054906101000a900463ffffffff169080600901549080600a0160009054906101000a900463ffffffff169080600a0160049054906101000a900460ff169080600a0160059054906101000a900460ff169080600b015490508c565b600160009054906101000a900473ffffffffffffffffffffffffffffffffffffffff1681565b80426104bc826064811061226b5761226a614390565b5b60040201600201546104bc836064811061228857612287614390565b5b600402016001015461229a9190614a89565b116122a457600080fd5b816000600160009054906101000a900473ffffffffffffffffffffffffffffffffffffffff1673ffffffffffffffffffffffffffffffffffffffff16639c0daa7c836040518263ffffffff1660e01b81526004016123029190613da7565b602060405180830381865afa15801561231f573d6000803e3d6000fd5b505050506040513d601f19601f820116820180604052508101906123439190614a28565b1480156123ea5750600160009054906101000a900473ffffffffffffffffffffffffffffffffffffffff1673ffffffffffffffffffffffffffffffffffffffff1663f76b365e82336040518363ffffffff1660e01b81526004016123a8929190614cc4565b602060405180830381865afa1580156123c5573d6000803e3d6000fd5b505050506040513d601f19601f820116820180604052508101906123e9919061445f565b5b6123f357600080fd5b6000600160009054906101000a900473ffffffffffffffffffffffffffffffffffffffff1673ffffffffffffffffffffffffffffffffffffffff1663f681ee11856040518263ffffffff1660e01b81526004016124509190613da7565b6000604051808303816000875af115801561246f573d6000803e3d6000fd5b505050506040513d6000823e3d601f19601f820116820180604052508101906124989190614d99565b905060005b8151811015612550576104bc85606481106124bb576124ba614390565b5b600402016003018282815181106124d5576124d4614390565b5b60200260200101519080600181540180825580915050600190039060005260206000200160009091909190916101000a81548173ffffffffffffffffffffffffffffffffffffffff021916908373ffffffffffffffffffffffffffffffffffffffff160217905550808061254890614873565b91505061249d565b50426104bc856064811061256757612566614390565b5b600402016001018190555060966104bc856064811061258957612588614390565b5b60040201600201819055507f6a54c2949cfe447c07615c41ee2012ce51a3d9b8acb122e210098f51b2d4798d846104bc86606481106125cb576125ca614390565b5b60040201600101546104bc87606481106125e8576125e7614390565b5b60040201600201546040516125ff93929190614319565b60405180910390a1600160009054906101000a900473ffffffffffffffffffffffffffffffffffffffff1673ffffffffffffffffffffffffffffffffffffffff1663c6d96072856040518263ffffffff1660e01b81526004016126629190613da7565b6020604051808303816000875af1158015612681573d6000803e3d6000fd5b505050506040513d601f19601f820116820180604052508101906126a5919061445f565b5050505050565b60008054906101000a900473ffffffffffffffffffffffffffffffffffffffff1681565b6000600160009054906101000a900473ffffffffffffffffffffffffffffffffffffffff1673ffffffffffffffffffffffffffffffffffffffff163373ffffffffffffffffffffffffffffffffffffffff161461272c57600080fd5b600382606481106127405761273f614390565b5b600c020160060160009054906101000a900463ffffffff169050919050565b6000600115156104b360003373ffffffffffffffffffffffffffffffffffffffff1673ffffffffffffffffffffffffffffffffffffffff16815260200190815260200160002060009054906101000a900460ff161515036127bf57600080fd5b670de0b6b3a764000034146127d357600080fd5b600115156104b460003373ffffffffffffffffffffffffffffffffffffffff1673ffffffffffffffffffffffffffffffffffffffff16815260200190815260200160002060009054906101000a900460ff161515151461283257600080fd5b600260009054906101000a900473ffffffffffffffffffffffffffffffffffffffff1673ffffffffffffffffffffffffffffffffffffffff1663df5dd1a5336040518263ffffffff1660e01b815260040161288d9190613a2c565b6020604051808303816000875af11580156128ac573d6000803e3d6000fd5b505050506040513d601f19601f820116820180604052508101906128d0919061445f565b5060016104b360003373ffffffffffffffffffffffffffffffffffffffff1673ffffffffffffffffffffffffffffffffffffffff16815260200190815260200160002060006101000a81548160ff021916908315150217905550346104b560003373ffffffffffffffffffffffffffffffffffffffff1673ffffffffffffffffffffffffffffffffffffffff168152602001908152602001600020819055507f2d62108771d82d92634e2d038b6c7f09290edfee5b1443e25299f04a0cfbca723360405161299e9190614e2e565b60405180910390a16104b360003373ffffffffffffffffffffffffffffffffffffffff1673ffffffffffffffffffffffffffffffffffffffff16815260200190815260200160002060009054906101000a900460ff16905090565b60008060009054906101000a900473ffffffffffffffffffffffffffffffffffffffff1673ffffffffffffffffffffffffffffffffffffffff163373ffffffffffffffffffffffffffffffffffffffff1614612a5457600080fd5b81600260006101000a81548173ffffffffffffffffffffffffffffffffffffffff021916908373ffffffffffffffffffffffffffffffffffffffff16021790555060019050919050565b6104bc8160648110612aaf57600080fd5b600402016000915090508060000154908060010154908060020154905083565b60008060009054906101000a900473ffffffffffffffffffffffffffffffffffffffff1673ffffffffffffffffffffffffffffffffffffffff163373ffffffffffffffffffffffffffffffffffffffff1614612b2a57600080fd5b81600160006101000a81548173ffffffffffffffffffffffffffffffffffffffff021916908373ffffffffffffffffffffffffffffffffffffffff16021790555060019050919050565b6000600115156104b360003373ffffffffffffffffffffffffffffffffffffffff1673ffffffffffffffffffffffffffffffffffffffff16815260200190815260200160002060009054906101000a900460ff16151514612bd457600080fd5b81600060038260648110612beb57612bea614390565b5b600c0201600a0160059054906101000a900460ff1660ff1614612c0d57600080fd5b8260038160648110612c2257612c21614390565b5b600c020160060160009054906101000a900463ffffffff1663ffffffff1660038260648110612c5457612c53614390565b5b600c0201600a0160009054906101000a900463ffffffff1663ffffffff1610612c7c57600080fd5b600115156104b460003373ffffffffffffffffffffffffffffffffffffffff1673ffffffffffffffffffffffffffffffffffffffff16815260200190815260200160002060009054906101000a900460ff1615151514612cdb57600080fd5b600160038560648110612cf157612cf0614390565b5b600c020160070160003373ffffffffffffffffffffffffffffffffffffffff1673ffffffffffffffffffffffffffffffffffffffff16815260200190815260200160002060006101000a81548160ff0219169083151502179055503360038560648110612d6157612d60614390565b5b600c0201600801600060038760648110612d7e57612d7d614390565b5b600c0201600a0160009054906101000a900463ffffffff1663ffffffff1663ffffffff16815260200190815260200160002060006101000a81548173ffffffffffffffffffffffffffffffffffffffff021916908373ffffffffffffffffffffffffffffffffffffffff16021790555060038460648110612e0257612e01614390565b5b600c0201600a01600081819054906101000a900463ffffffff1680929190612e2990614e5c565b91906101000a81548163ffffffff021916908363ffffffff160217905550507fe677a6b9a16a696674f50d2c98a1ce8c5cb51d6b48a0223412c512bbc93664d533604051612e779190613a2c565b60405180910390a160038460648110612e9357612e92614390565b5b600c0201600a0160009054906101000a900463ffffffff1663ffffffff1660038560648110612ec557612ec4614390565b5b600c020160060160009054906101000a900463ffffffff1663ffffffff1603612f7b577f2510e6950be86d6001a0b1229da4c21fa8e26b6bcf345d0b348fe42894fceb0360038560648110612f1d57612f1c614390565b5b600c02016000015460038660648110612f3957612f38614390565b5b600c020160040160038760648110612f5457612f53614390565b5b600c0201600501604051612f6a93929190614e88565b60405180910390a160019250612fcc565b6104b360003373ffffffffffffffffffffffffffffffffffffffff1673ffffffffffffffffffffffffffffffffffffffff16815260200190815260200160002060009054906101000a900460ff1692505b5050919050565b6000600115156104b360003373ffffffffffffffffffffffffffffffffffffffff1673ffffffffffffffffffffffffffffffffffffffff16815260200190815260200160002060009054906101000a900460ff1615151461303357600080fd5b60006104b560003373ffffffffffffffffffffffffffffffffffffffff1673ffffffffffffffffffffffffffffffffffffffff168152602001908152602001600020541161308057600080fd5b600115156104b460003373ffffffffffffffffffffffffffffffffffffffff1673ffffffffffffffffffffffffffffffffffffffff16815260200190815260200160002060009054906101000a900460ff16151515146130df57600080fd5b6001600260009054906101000a900473ffffffffffffffffffffffffffffffffffffffff1673ffffffffffffffffffffffffffffffffffffffff16630855078b336040518263ffffffff1660e01b815260040161313c9190613a2c565b602060405180830381865afa158015613159573d6000803e3d6000fd5b505050506040513d601f19601f8201168201806040525081019061317d9190614a28565b11156131dd5760016104b460003373ffffffffffffffffffffffffffffffffffffffff1673ffffffffffffffffffffffffffffffffffffffff16815260200190815260200160002060006101000a81548160ff0219169083151502179055505b6104b360003373ffffffffffffffffffffffffffffffffffffffff1673ffffffffffffffffffffffffffffffffffffffff16815260200190815260200160002060006101000a81549060ff02191690553373ffffffffffffffffffffffffffffffffffffffff166108fc6104b560003373ffffffffffffffffffffffffffffffffffffffff1673ffffffffffffffffffffffffffffffffffffffff168152602001908152602001600020549081150290604051600060405180830381858888f193505050501580156132b3573d6000803e3d6000fd5b5060006104b560003373ffffffffffffffffffffffffffffffffffffffff1673ffffffffffffffffffffffffffffffffffffffff168152602001908152602001600020819055507f14951d787e2aaf7813982720871de23d576e7d935c0587e12a7fc2c4c960165a336040516133299190614f19565b60405180910390a16001905090565b6000600160009054906101000a900473ffffffffffffffffffffffffffffffffffffffff1673ffffffffffffffffffffffffffffffffffffffff163373ffffffffffffffffffffffffffffffffffffffff161461339457600080fd5b600383606481106133a8576133a7614390565b5b600c020160070160008373ffffffffffffffffffffffffffffffffffffffff1673ffffffffffffffffffffffffffffffffffffffff16815260200190815260200160002060009054906101000a900460ff16905092915050565b6104b36020528060005260406000206000915054906101000a900460ff1681565b8060018060009054906101000a900473ffffffffffffffffffffffffffffffffffffffff1673ffffffffffffffffffffffffffffffffffffffff16639c0daa7c836040518263ffffffff1660e01b81526004016134809190613da7565b602060405180830381865afa15801561349d573d6000803e3d6000fd5b505050506040513d601f19601f820116820180604052508101906134c19190614a28565b1480156135685750600160009054906101000a900473ffffffffffffffffffffffffffffffffffffffff1673ffffffffffffffffffffffffffffffffffffffff16632d214d2e82336040518363ffffffff1660e01b8152600401613526929190614cc4565b602060405180830381865afa158015613543573d6000803e3d6000fd5b505050506040513d601f19601f82011682018060405250810190613567919061445f565b5b801561360f57506000600160009054906101000a900473ffffffffffffffffffffffffffffffffffffffff1673ffffffffffffffffffffffffffffffffffffffff1663ba26ed59836040518263ffffffff1660e01b81526004016135cc9190613da7565b602060405180830381865afa1580156135e9573d6000803e3d6000fd5b505050506040513d601f19601f8201168201806040525081019061360d9190614a28565b145b61361857600080fd5b6000600160009054906101000a900473ffffffffffffffffffffffffffffffffffffffff1673ffffffffffffffffffffffffffffffffffffffff166319ff76c0846040518263ffffffff1660e01b81526004016136759190613da7565b6000604051808303816000875af1158015613694573d6000803e3d6000fd5b505050506040513d6000823e3d601f19601f820116820180604052508101906136bd9190614d99565b905060005b8151811015613775576104bc84606481106136e0576136df614390565b5b600402016003018282815181106136fa576136f9614390565b5b60200260200101519080600181540180825580915050600190039060005260206000200160009091909190916101000a81548173ffffffffffffffffffffffffffffffffffffffff021916908373ffffffffffffffffffffffffffffffffffffffff160217905550808061376d90614873565b9150506136c2565b50600160009054906101000a900473ffffffffffffffffffffffffffffffffffffffff1673ffffffffffffffffffffffffffffffffffffffff16634a62715284600386606481106137c9576137c8614390565b5b600c0201600901546040518363ffffffff1660e01b81526004016137ee929190614f47565b6020604051808303816000875af115801561380d573d6000803e3d6000fd5b505050506040513d601f19601f82011682018060405250810190613831919061445f565b50505050565b6000600160009054906101000a900473ffffffffffffffffffffffffffffffffffffffff1673ffffffffffffffffffffffffffffffffffffffff163373ffffffffffffffffffffffffffffffffffffffff161461389357600080fd5b600382606481106138a7576138a6614390565b5b600c0201600901549050919050565b6000600260009054906101000a900473ffffffffffffffffffffffffffffffffffffffff1673ffffffffffffffffffffffffffffffffffffffff163373ffffffffffffffffffffffffffffffffffffffff161461391257600080fd5b60016104b460008473ffffffffffffffffffffffffffffffffffffffff1673ffffffffffffffffffffffffffffffffffffffff16815260200190815260200160002060006101000a81548160ff0219169083151502179055506104b460008373ffffffffffffffffffffffffffffffffffffffff1673ffffffffffffffffffffffffffffffffffffffff16815260200190815260200160002060009054906101000a900460ff169050919050565b6104b881606481106139d157600080fd5b60209182820401919006915054906101000a900460ff1681565b600073ffffffffffffffffffffffffffffffffffffffff82169050919050565b6000613a16826139eb565b9050919050565b613a2681613a0b565b82525050565b6000602082019050613a416000830184613a1d565b92915050565b6000604051905090565b600080fd5b600080fd5b6000819050919050565b613a6e81613a5b565b8114613a7957600080fd5b50565b600081359050613a8b81613a65565b92915050565b600060208284031215613aa757613aa6613a51565b5b6000613ab584828501613a7c565b91505092915050565b60008115159050919050565b613ad381613abe565b82525050565b6000602082019050613aee6000830184613aca565b92915050565b613afd81613a0b565b8114613b0857600080fd5b50565b600081359050613b1a81613af4565b92915050565b600080fd5b600080fd5b6000601f19601f8301169050919050565b7f4e487b7100000000000000000000000000000000000000000000000000000000600052604160045260246000fd5b613b7382613b2a565b810181811067ffffffffffffffff82111715613b9257613b91613b3b565b5b80604052505050565b6000613ba5613a47565b9050613bb18282613b6a565b919050565b600067ffffffffffffffff821115613bd157613bd0613b3b565b5b613bda82613b2a565b9050602081019050919050565b82818337600083830152505050565b6000613c09613c0484613bb6565b613b9b565b905082815260208101848484011115613c2557613c24613b25565b5b613c30848285613be7565b509392505050565b600082601f830112613c4d57613c4c613b20565b5b8135613c5d848260208601613bf6565b91505092915050565b600063ffffffff82169050919050565b613c7f81613c66565b8114613c8a57600080fd5b50565b600081359050613c9c81613c76565b92915050565b600080600080600080600060e0888a031215613cc157613cc0613a51565b5b6000613ccf8a828b01613b0b565b975050602088013567ffffffffffffffff811115613cf057613cef613a56565b5b613cfc8a828b01613c38565b965050604088013567ffffffffffffffff811115613d1d57613d1c613a56565b5b613d298a828b01613c38565b955050606088013567ffffffffffffffff811115613d4a57613d49613a56565b5b613d568a828b01613c38565b9450506080613d678a828b01613a7c565b93505060a0613d788a828b01613c8d565b92505060c0613d898a828b01613a7c565b91505092959891949750929550565b613da181613a5b565b82525050565b6000602082019050613dbc6000830184613d98565b92915050565b613dcb81613abe565b8114613dd657600080fd5b50565b600081359050613de881613dc2565b92915050565b600067ffffffffffffffff821115613e0957613e08613b3b565b5b602082029050602081019050919050565b600080fd5b6000613e32613e2d84613dee565b613b9b565b90508083825260208201905060208402830185811115613e5557613e54613e1a565b5b835b81811015613e7e5780613e6a8882613b0b565b845260208401935050602081019050613e57565b5050509392505050565b600082601f830112613e9d57613e9c613b20565b5b8135613ead848260208601613e1f565b91505092915050565b600080600080600060a08688031215613ed257613ed1613a51565b5b6000613ee088828901613a7c565b9550506020613ef188828901613dd9565b945050604086013567ffffffffffffffff811115613f1257613f11613a56565b5b613f1e88828901613e88565b935050606086013567ffffffffffffffff811115613f3f57613f3e613a56565b5b613f4b88828901613e88565b925050608086013567ffffffffffffffff811115613f6c57613f6b613a56565b5b613f7888828901613e88565b9150509295509295909350565b60008060408385031215613f9c57613f9b613a51565b5b6000613faa85828601613a7c565b925050602083013567ffffffffffffffff811115613fcb57613fca613a56565b5b613fd785828601613e88565b9150509250929050565b600060208284031215613ff757613ff6613a51565b5b600061400584828501613b0b565b91505092915050565b600081519050919050565b600082825260208201905092915050565b60005b8381101561404857808201518184015260208101905061402d565b83811115614057576000848401525b50505050565b60006140688261400e565b6140728185614019565b935061408281856020860161402a565b61408b81613b2a565b840191505092915050565b600060208201905081810360008301526140b0818461405d565b905092915050565b6000819050919050565b6140cb816140b8565b81146140d657600080fd5b50565b6000813590506140e8816140c2565b92915050565b6000806000806080858703121561410857614107613a51565b5b600061411687828801613a7c565b9450506020614127878288016140d9565b935050604085013567ffffffffffffffff81111561414857614147613a56565b5b61415487828801613e88565b925050606085013567ffffffffffffffff81111561417557614174613a56565b5b61418187828801613e88565b91505092959194509250565b61419681613c66565b82525050565b7f4e487b7100000000000000000000000000000000000000000000000000000000600052602160045260246000fd5b600381106141dc576141db61419c565b5b50565b60008190506141ed826141cb565b919050565b60006141fd826141df565b9050919050565b61420d816141f2565b82525050565b600060ff82169050919050565b61422981614213565b82525050565b600061018082019050614245600083018f613d98565b614252602083018e613a1d565b61425f604083018d613a1d565b8181036060830152614271818c61405d565b90508181036080830152614285818b61405d565b905081810360a0830152614299818a61405d565b90506142a860c083018961418d565b6142b560e0830188613d98565b6142c361010083018761418d565b6142d1610120830186614204565b6142df610140830185614220565b6142ed610160830184613d98565b9d9c50505050505050505050505050565b6000602082019050614313600083018461418d565b92915050565b600060608201905061432e6000830186613d98565b61433b6020830185613d98565b6143486040830184613d98565b949350505050565b6000806040838503121561436757614366613a51565b5b600061437585828601613a7c565b925050602061438685828601613b0b565b9150509250929050565b7f4e487b7100000000000000000000000000000000000000000000000000000000600052603260045260246000fd5b600082825260208201905092915050565b7f43414e43454c4c45440000000000000000000000000000000000000000000000600082015250565b60006144066009836143bf565b9150614411826143d0565b602082019050919050565b60006040820190506144316000830184614204565b8181036020830152614442816143f9565b905092915050565b60008151905061445981613dc2565b92915050565b60006020828403121561447557614474613a51565b5b60006144838482850161444a565b91505092915050565b7f4e487b7100000000000000000000000000000000000000000000000000000000600052601260045260246000fd5b60006144c682613c66565b91506144d183613c66565b9250826144e1576144e061448c565b5b828206905092915050565b7f4e487b7100000000000000000000000000000000000000000000000000000000600052602260045260246000fd5b6000600282049050600182168061453357607f821691505b602082108103614546576145456144ec565b5b50919050565b60008190508160005260206000209050919050565b60006020601f8301049050919050565b600082821b905092915050565b6000600883026145ae7fffffffffffffffffffffffffffffffffffffffffffffffffffffffffffffffff82614571565b6145b88683614571565b95508019841693508086168417925050509392505050565b6000819050919050565b60006145f56145f06145eb84613a5b565b6145d0565b613a5b565b9050919050565b6000819050919050565b61460f836145da565b61462361461b826145fc565b84845461457e565b825550505050565b600090565b61463861462b565b614643818484614606565b505050565b5b818110156146675761465c600082614630565b600181019050614649565b5050565b601f8211156146ac5761467d8161454c565b61468684614561565b81016020851015614695578190505b6146a96146a185614561565b830182614648565b50505b505050565b600082821c905092915050565b60006146cf600019846008026146b1565b1980831691505092915050565b60006146e883836146be565b9150826002028217905092915050565b6147018261400e565b67ffffffffffffffff81111561471a57614719613b3b565b5b614724825461451b565b61472f82828561466b565b600060209050601f8311600181146147625760008415614750578287015190505b61475a85826146dc565b8655506147c2565b601f1984166147708661454c565b60005b8281101561479857848901518255600182019150602085019450602081019050614773565b868310156147b557848901516147b1601f8916826146be565b8355505b6001600288020188555050505b505050505050565b7f50454e44494e4700000000000000000000000000000000000000000000000000600082015250565b60006148006007836143bf565b915061480b826147ca565b602082019050919050565b600060408201905061482b6000830184614204565b818103602083015261483c816147f3565b905092915050565b7f4e487b7100000000000000000000000000000000000000000000000000000000600052601160045260246000fd5b600061487e82613a5b565b91507fffffffffffffffffffffffffffffffffffffffffffffffffffffffffffffffff82036148b0576148af614844565b5b600182019050919050565b600081546148c88161451b565b6148d28186614019565b945060018216600081146148ed576001811461490357614936565b60ff198316865281151560200286019350614936565b61490c8561454c565b60005b8381101561492e5781548189015260018201915060208101905061490f565b808801955050505b50505092915050565b600060a0820190506149546000830188613d98565b818103602083015261496681876148bb565b90506149756040830186613d98565b6149826060830185613d98565b61498f6080830184613d98565b9695505050505050565b7f207468652066696e616c20726573756c74000000000000000000000000000000600082015250565b60006149cf6011836143bf565b91506149da82614999565b602082019050919050565b60006040820190506149fa6000830184613aca565b8181036020830152614a0b816149c2565b905092915050565b600081519050614a2281613a65565b92915050565b600060208284031215614a3e57614a3d613a51565b5b6000614a4c84828501614a13565b91505092915050565b6000614a6082613a5b565b9150614a6b83613a5b565b925082821015614a7e57614a7d614844565b5b828203905092915050565b6000614a9482613a5b565b9150614a9f83613a5b565b9250827fffffffffffffffffffffffffffffffffffffffffffffffffffffffffffffffff03821115614ad457614ad3614844565b5b828201905092915050565b6000614aea82613a5b565b9150614af583613a5b565b925082614b0557614b0461448c565b5b828204905092915050565b7f4f7261636c6520686173206265656e2050616964210000000000000000000000600082015250565b6000614b466015836143bf565b9150614b5182614b10565b602082019050919050565b6000606082019050614b716000830185613a1d565b614b7e6020830184613d98565b8181036040830152614b8f81614b39565b90509392505050565b7f434f4d504c455445000000000000000000000000000000000000000000000000600082015250565b6000614bce6008836143bf565b9150614bd982614b98565b602082019050919050565b6000604082019050614bf96000830184614204565b8181036020830152614c0a81614bc1565b905092915050565b6000614c1d82613a5b565b915060008203614c3057614c2f614844565b5b600182039050919050565b614c44816140b8565b82525050565b7f7468652066696e616c20726573756c7400000000000000000000000000000000600082015250565b6000614c806010836143bf565b9150614c8b82614c4a565b602082019050919050565b6000604082019050614cab6000830184614c3b565b8181036020830152614cbc81614c73565b905092915050565b6000604082019050614cd96000830185613d98565b614ce66020830184613a1d565b9392505050565b600081519050614cfc81613af4565b92915050565b6000614d15614d1084613dee565b613b9b565b90508083825260208201905060208402830185811115614d3857614d37613e1a565b5b835b81811015614d615780614d4d8882614ced565b845260208401935050602081019050614d3a565b5050509392505050565b600082601f830112614d8057614d7f613b20565b5b8151614d90848260208601614d02565b91505092915050565b600060208284031215614daf57614dae613a51565b5b600082015167ffffffffffffffff811115614dcd57614dcc613a56565b5b614dd984828501614d6b565b91505092915050565b7f57656c636f6d65206e6577206e6f646521000000000000000000000000000000600082015250565b6000614e186011836143bf565b9150614e2382614de2565b602082019050919050565b6000604082019050614e436000830184613a1d565b8181036020830152614e5481614e0b565b905092915050565b6000614e6782613c66565b915063ffffffff8203614e7d57614e7c614844565b5b600182019050919050565b6000606082019050614e9d6000830186613d98565b8181036020830152614eaf81856148bb565b90508181036040830152614ec381846148bb565b9050949350505050565b7f4e6f646520686173206c6566742c20476f6f6462796500000000000000000000600082015250565b6000614f036016836143bf565b9150614f0e82614ecd565b602082019050919050565b6000604082019050614f2e6000830184613a1d565b8181036020830152614f3f81614ef6565b905092915050565b6000604082019050614f5c6000830185613d98565b614f696020830184613d98565b939250505056fea2646970667358221220fa3b17fc121fbb4f724d774c7433813baebb3b46ffc24fba6b375bd7723e64c264736f6c634300080f0033",
  "immutableReferences": {},
  "source": "// SPDX-License-Identifier: MIT\npragma solidity ^0.8.0;\n\nimport \"./AggregatorContract.sol\";\nimport \"./ReputationContract.sol\";\n\ncontract OracleRequestContract {\n    //address that deploys contract\n    address public owner;\n    // address of aggregator contract\n    address public aggregatorAddr;\n    // address of reputation contract\n    address public reputationAddr;\n    // Array to populate with requests that come in\n    Request[100] public requests;\n    // all mappings of oracles that have joined network\n    mapping (address => bool) public oracles;\n    // mapping of blacklisted oracles (who's ratings exceed 10)\n    mapping (address => bool) public blacklistedOracles;\n    // stakeBalance of each node, should be equal to 1 eth\n    mapping (address => uint) public stakeBalance;\n    // request and and pending counters, pending decreased when status changed to COMPLETE\n    uint requestCounter = 1;\n    uint pendingCounter = 1;\n    // Status logs for each request\n    enum Status{PENDING, COMPLETE, CANCELLED}\n    struct Timings {\n        uint appealFlag;\n        uint timestamp;\n        uint elapsedTime;\n        address[] timedOutOracles;\n    }\n    // a single Request structure\n    struct Request {\n        uint256 requestID; //Id for each request\n        address requester; // address which made the request\n        address callbackAddress; // an address in which the response can be delivered to\n        bytes callbackFID; // a function in the callback address that can be called\n        bytes IoTID; // the ID of the IoT the user-SC wishes to gather data from\n        bytes dataType; // data type, JSON that is decoded by the oracle node that will collect the data\n        // bytes32 pHash; // a hash of the data type and the actual result required.\n        //bytes requiredResult; // left this out for security reason, we only apply it to the hash\n        uint32 numberOfOracles; // number of oracles needed to fetch the data\n        mapping (address => bool) oraclesForRequest; // must be true in order for oracle node to participate\n        mapping (uint32 => address) oracleAddressAccess; // mapping so we can iterate through addresses\n        uint256 aggregationType;\n        uint32 oracleCounter; // index and counter for the number of oracles\n        Status status; // status of the request\n        uint8 cancelFlag; // cancel flag, if == 1 then do not continue with request\n        uint fee; // fee sent to cover costs and extra for fetch the data\n\n    }\n\n    bool[100] public completedRequests;// true for each requestID once status changes to complete.\n    Timings[100] public timings;\n    event OpenForBids(uint256, bytes, uint256, uint, uint); // tells oracle nodes there is a request that needs bidding on\n    event BidPlaced(address); // tells nodes that a bid has been placed by another node\n    event ReleaseRequestDetails(uint256, bytes, bytes); // the details the node needs to gather\n    event StatusChange(Status, string); // tells nodes in network of status change of requests\n    event OracleJoined(address, string); // tells network that a new oracle has joined the network\n    event OracleLeft(address, string); // tells the network that another oracle has left\n    event OraclePaid(address, uint, string); // tells the network when an oracle has been paid for its services\n    event Logging(string);\n    event FinalResultLog(bool, string);\n    event FinalInt(int256, string);\n    event UpdateTimestamp(uint256, uint256, uint256);\n    // ***payments***\n    uint GAS_PRICE = 2 * 10**10; // cost of gas\n    uint FEE = GAS_PRICE * 3; // fee to cover other function calls and pay each oracle\n    uint MIN_FEE = FEE + (GAS_PRICE * 5); // minimum needed to cover all costs\n\n    // @notice constructor when first deployed\n    constructor() {\n        owner = msg.sender; // set the owner of the contract to the address that deploys it\n    }\n    // @notice used if eth is sent to an invalid function etc\n    fallback() external{}\n\n    // @notice function called by addresses of Off-chain Oracle nodes that want to join the network\n    // @return bool, true if successful otherwise reverts\n    function joinAsOracle()\n    public\n    payable\n    oracleNotJoined()\n    valueEqual1Eth()\n    isNotBlacklisted()\n    //oracleCannotRejoin()\n    returns(bool){\n        ReputationContract(reputationAddr).addOracle(msg.sender);\n        oracles[address(msg.sender)] = true; // set to true as is now in network\n        stakeBalance[msg.sender] = msg.value; // added value to stakeBalance as a record\n        emit OracleJoined(msg.sender, \"Welcome new node!\"); // emit event so listeners can be notified\n        return oracles[address(msg.sender)]; // return true\n    }\n    // @notice oracle node calls this function when they wish to leave network\n    // @return bool\n    function leaveOracleNetwork()\n    public\n    oracleHasJoined()\n    stakeCheck()\n    isNotBlacklisted()\n    returns(bool) {\n        if (ReputationContract(reputationAddr).getOracleRating(msg.sender) > 1 ){\n            blacklistedOracles[msg.sender] = true; // allows oracle nodes with penalties to leave, but cannot rejoin\n        }\n        delete oracles[msg.sender]; // deletes address from mapping\n        payable(msg.sender).transfer(stakeBalance[msg.sender]); // transfers their stake back to them\n        stakeBalance[msg.sender] = 0; // set stakeBalance back to 0 for the oracle node\n        emit OracleLeft(msg.sender, \"Node has left, Goodbye\"); // emit event so listeners can be notified\n        return true; // return true to confirm\n    }\n\n    // @notice user can call function create request\n    // @dev\n    // @param _callbackAddress could be different to address that called the function\n    // @param _callbackFID a particular function in a smart contract that is needed to be called based on request\n    // @param _IoTID the identifier of the IoT device oracle node will be subscribing to\n    // @param _dataType, true false answer, an event, continuous data over time?\n    // @param _aggregationType 1 = voting, 2 = averaging\n    // @param _numberOfOracles number of oracle nodes that fetch IoT data\n    // @return the requestID so the user can keep track of request\n    function createRequest(\n        address _callbackAddress,\n        bytes memory _callbackFID,\n        bytes memory _IoTID,\n        bytes memory _dataType,\n        uint256 _aggregationType,\n        uint32 _numberOfOracles,\n        uint _elapsedTime) // time required\n    external\n    payable\n    valueGTMinFeeCheck() // requires the value sent is >= MIN_FEE\n    oddNumOracles(_numberOfOracles) // requires an odd number of oracles\n    aggregationTypeCheck(_aggregationType) // 1 = voting, 2 = averaging\n    returns(uint256)\n    {\n\n        uint256 requestID = requestCounter; // assign id to request\n        timings[requestID].timestamp = block.timestamp;\n        timings[requestID].elapsedTime = _elapsedTime;\n        // log details of the request to array to cross reference later\n        requests[requestID].requestID = requestID;\n        requests[requestID].requester = msg.sender;\n        requests[requestID].callbackAddress = _callbackAddress;\n        requests[requestID].callbackFID = _callbackFID;\n        requests[requestID].IoTID = _IoTID;\n        requests[requestID].dataType = _dataType;\n        requests[requestID].numberOfOracles = _numberOfOracles;\n        requests[requestID].oracleCounter = 0;\n        requests[requestID].status = Status.PENDING;\n        requests[requestID].cancelFlag = 0;\n        requests[requestID].fee = msg.value; // keeps track of the fee for the request\n        requests[requestID].aggregationType = _aggregationType;\n        emit StatusChange(requests[requestID].status, \"PENDING\"); // tells nodes in network of status change of requests\n        // increment requestId ready for next create request function.\n        requestCounter++;\n        pendingCounter++;\n        emit OpenForBids(requestID, requests[requestID].dataType, requests[requestID].aggregationType,\n            timings[requestID].timestamp, timings[requestID].elapsedTime);\n        return requestID;\n    }\n    // @notice\n    function timeoutCommitsAppeal(uint256 _requestID)\n    timeHasElapsed(_requestID)\n    onlySubmittedCommitsOracles(_requestID)\n    external\n    {\n        // call get un-responded nodes\n        address[] memory unRespondedNodes = AggregatorContract(aggregatorAddr).getUnRespondedCommitOracles(_requestID);\n        for (uint i=0; i<unRespondedNodes.length; i++) {\n            timings[_requestID].timedOutOracles.push(unRespondedNodes[i]);\n        }\n        timings[_requestID].timestamp = block.timestamp; // reset timestamp\n        timings[_requestID].elapsedTime = 150; // allow for 2.5 min send a reveal message\n        emit UpdateTimestamp(_requestID, timings[_requestID].timestamp, timings[_requestID].elapsedTime);\n        AggregatorContract(aggregatorAddr).forceCommitsPlaced(_requestID);\n    }\n\n    function timeoutRevealsAppeal(uint _requestID)\n    onlySubmittedRevealsOracles(_requestID)\n    external\n    {\n        address[] memory unRespondedNodes = AggregatorContract(aggregatorAddr).getUnRespondedRevealOracles(_requestID);\n        for (uint i=0; i<unRespondedNodes.length; i++) {\n            timings[_requestID].timedOutOracles.push(unRespondedNodes[i]);\n        }\n        AggregatorContract(aggregatorAddr).forceRevealsPlaced(_requestID, requests[_requestID].aggregationType);\n    }\n\n    // @notice off-chain oracle node places bid to fetch data, once threshold is reached, emits event details.\n    // @dev\n    // @param requestId oracle node wishes to bid on\n    // @return true to indicate bid successful\n    function placeBid(\n        uint256 _requestID)\n    public\n    oracleHasJoined() // requires that the oracle is in the network\n    cancelFlagZero(_requestID) // requires requests cancel flag is zero\n    orcCountLessThanNum(_requestID) // requires that the oracle counter is still les than the number of oracles needed\n    isNotBlacklisted() // requires the oracle has not exceed its penalty rating past 10\n    returns(bool)\n    {\n        requests[_requestID].oraclesForRequest[msg.sender] = true; // add true for oracle in request so we know they can vote\n        requests[_requestID].oracleAddressAccess[requests[_requestID].oracleCounter] = address(msg.sender); // map addr for iteration\n        requests[_requestID].oracleCounter++; // increment the counter\n        // TODO also add a timeout, if bids take to long\n        emit BidPlaced(msg.sender); // send message to network that a bid has been placed\n        if (requests[_requestID].numberOfOracles == requests[_requestID].oracleCounter) {\n            // when the last oracle has submitted, we can emit the details\n            emit ReleaseRequestDetails(\n                requests[_requestID].requestID, // requestID\n                requests[_requestID].IoTID, // IoT info, this is most of importance\n                requests[_requestID].dataType); // DataType\n            return true; // returns true to show completion of the bidding phase that is now over\n        }\n        return oracles[msg.sender]; // returns true for each oracle that bids\n    }\n\n    // @notice called by aggregator contract to deliver final response\n    // @param _requestID, id of request\n    // @param _finalResult, final aggregated result\n    // @param _correctOracles, array of addresses of oracles to be paid for their work\n    function deliverVoteResponse(\n        uint256 _requestID,\n        bool _finalResult,\n        address[] memory _correctOracles,\n        address[] memory _incorrectOracles,\n        address[] memory _incorrectRevealOracles) // do not penalise\n    public\n    cancelFlagZero(_requestID) // requires that the cancelFlag is = 0\n    onlyAggregator() // only the aggregator contract can call this function\n    returns(bool)\n    {\n        // return single aggregation result\n        emit FinalResultLog(_finalResult, \" the final result\");\n        _finalResult;\n\n        uint slashedRewards = 0; //pay honest nodes fees from the slashing\n        // pay fees\n        for (uint i=0; i<timings[_requestID].timedOutOracles.length; i++) {\n            uint penalty = ReputationContract(reputationAddr).getPenaltyFee(_incorrectOracles[i]);\n            stakeBalance[_incorrectOracles[i]] -= penalty;\n            slashedRewards += penalty;\n            ReputationContract(reputationAddr).incrementRating(_incorrectOracles[i]);\n        }\n        // add penalties and slash dishonest nodes stake\n        for (uint i=0; i<_incorrectOracles.length; i++){\n            // gets penalty fee from reputation contract penalty**rating\n            uint penalty = ReputationContract(reputationAddr).getPenaltyFee(_incorrectOracles[i]);\n            stakeBalance[_incorrectOracles[i]] -= penalty;\n            slashedRewards += penalty;\n            ReputationContract(reputationAddr).incrementRating(_incorrectOracles[i]);\n        }\n        // small penalty for incorrect hashes, as this could be an error\n        for (uint i=0; i<_incorrectRevealOracles.length; i++) {\n\n            uint penalty = ReputationContract(reputationAddr).getPenaltyFee(_incorrectOracles[i]); // charge the fee of the request as a penalty\n            slashedRewards += penalty;\n            stakeBalance[_incorrectRevealOracles[i]] += penalty; // deducted from oracle stake\n        }\n        uint fee = requests[_requestID].fee / _correctOracles.length;\n        uint slashShare = slashedRewards / _correctOracles.length;\n        for (uint i=0; i<_correctOracles.length; i++) {\n            // pay each share to each oracle\n            uint fullReward = fee + slashShare;\n\n            emit OraclePaid(_correctOracles[i], fullReward, \"Oracle has been Paid!\"); // tells listeners oracle node has been paid\n            payable(_correctOracles[i]).transfer(fullReward); // pays oracle their fee\n            requests[_requestID].fee -= fee; // deduct the oracles portion from the logged amount until it reaches 0\n            // and all oracles have been paid\n        }\n        requests[_requestID].status = Status.COMPLETE; // request is complete\n        completedRequests[_requestID] = true; // add request id to completedRequests\n        emit StatusChange(requests[_requestID].status, \"COMPLETE\"); // tell listeners that the status has changed\n        pendingCounter--; // no longer pending so countered can be decremented\n        return true; // return true to so it has finished\n    }\n\n    // @notice called by aggregator contract to deliver final response\n    // @param _requestID, id of request\n    // @param _finalResult, final aggregated result\n    // @param _correctOracles, array of addresses of oracles to be paid for their work\n    function deliverAverageResponse(\n        uint256 _requestID,\n        int256 _finalResult,\n        address[] memory _correctOracles,\n        address[] memory _incorrectOracles)\n        // address[] memory _incorrectOracles,\n        // address[] memory _incorrectRevealOracles) // do not penalise\n    public\n    cancelFlagZero(_requestID) // requires that the cancelFlag is = 0\n    onlyAggregator() // only the aggregator contract can call this function\n    returns(bool)\n    {\n        // return single aggregation result\n        emit FinalInt(_finalResult, \"the final result\");\n        _finalResult;\n        uint fee = requests[_requestID].fee / _correctOracles.length;\n        // pay fees\n        for (uint i=0; i<_correctOracles.length; i++) {\n            // pay each share to each oracle\n            emit OraclePaid(_correctOracles[i], fee, \"Oracle has been Paid!\"); // tells listeners oracle node has been paid\n            //payable(_correctOracles[i]).transfer(fee); // pays oracle their fee\n            //requests[_requestID].fee -= fee; // deduct the oracles portion from the logged amount until it reaches 0\n            // and all oracles have been paid\n        }\n        // small penalty for incorrect hashes, as this could be an error\n        for (uint i=0; i<_incorrectOracles.length; i++) {\n            stakeBalance[_incorrectOracles[i]] -= fee; // deducted fee from stake\n        }\n        requests[_requestID].status = Status.COMPLETE; // request is complete\n        completedRequests[_requestID] = true; // add request id to completedRequests\n        emit StatusChange(requests[_requestID].status, \"COMPLETE\"); // tell listeners that the status has changed\n        pendingCounter--; // no longer pending so countered can be decremented\n        return true; // return true to so it has finished\n    }\n    // @notice function for requester to cancel request\n    // @param _requestID pass requestID to cancel the correct request\n    function cancelRequest(\n        uint256 _requestID)\n    external\n    onlyRequester(_requestID) // requires that only the requester can cancel\n    cancelFlagZero(_requestID) // requires that request is not yet cancelled\n    returns(bool)\n    {\n        requests[_requestID].cancelFlag = 1; // changes flag to 1, if 1 it will not pass other functions\n        requests[_requestID].status = Status.CANCELLED; // status changed\n        emit StatusChange(requests[_requestID].status, \"CANCELLED\");\n        AggregatorContract(aggregatorAddr).cancelRequest(_requestID); // call cancelled request in AggregatorContract\n        return true;\n    }\n    // @notice cancelled request by deadlock in the voting, if there are incorrect nodes,\n    //         correct amount might be even and could cause deadlock in voting,\n    //         in this case we refund the requester and cancel request\n    // @param _requestID\n    // @param _incorrectOracleReveals, we slash the faulty nodes here, as they have caused issues penalties are given\n    function cancelRequestDueToDeadlock(\n        uint256 _requestID,\n        address[] memory _incorrectOracleReveals)\n    external\n    onlyAggregator()\n    cancelFlagZero(_requestID)\n    returns(bool)\n    {\n        requests[_requestID].cancelFlag = 1;\n        requests[_requestID].status = Status.CANCELLED;\n        // return full fee as the user is not at fault here\n        // should be slashed from incorrect nodes for causing deadlock\n        for (uint i=0; i<_incorrectOracleReveals.length; i++){\n            // gets penalty fee from reputation contract penalty**rating\n            uint penalty = ReputationContract(reputationAddr).getPenaltyFee(_incorrectOracleReveals[i]);\n            stakeBalance[_incorrectOracleReveals[i]] -= penalty;\n            ReputationContract(reputationAddr).incrementRating(_incorrectOracleReveals[i]);\n        }\n        payable(requests[_requestID].requester).transfer(requests[_requestID].fee);\n        emit StatusChange(requests[_requestID].status, \"CANCELLED\");\n        return true;\n    }\n    // @notice blacklist oracle that misbehaves 10\n    function blacklistOracle(address _addr)\n    external\n    onlyReputation()\n    returns(bool)\n    {\n        blacklistedOracles[_addr] = true; // adds blacklisted oracle address to map\n        return blacklistedOracles[_addr]; // returns true\n    }\n\n\n\n\n    // *** Setters ***\n    function setAggregatorContract(\n        address _aggAddr)\n    public\n    onlyOwner() // only owner can set aggregator contract\n    returns(bool)\n    {\n        aggregatorAddr = _aggAddr;\n        return true;\n    }\n\n    function setReputationContract(address _repAddr)\n    public\n    onlyOwner()\n    returns(bool)\n    {\n        reputationAddr = _repAddr;\n        return true;\n    }\n\n    // *** Getters ***\n    function getOracleForRequest(\n        uint256 _requestID,\n        address _orcAddr)\n    external\n    view\n    onlyAggregator()\n    returns(bool)\n    {\n        return requests[_requestID].oraclesForRequest[_orcAddr];\n    }\n\n    function getNumberOfOracles(\n        uint256 _requestID)\n    external\n    view\n    onlyAggregator()\n    returns(uint32)\n    {\n        return requests[_requestID].numberOfOracles;\n    }\n\n    function getDataType(\n        uint256 _requestID)\n    external\n    view\n    onlyAggregator()\n    returns(bytes memory)\n    {\n        return requests[_requestID].dataType;\n    }\n    // @notice returns bool whether or not _addr is blacklisted\n    function getBlacklistedOracle(address _addr)\n    external\n    view\n    returns(bool)\n    {\n        return blacklistedOracles[_addr];\n    }\n    // @notice\n    function getAggregationType(uint256 _requestID)\n    external\n    view\n    onlyAggregator()\n    returns(uint256)\n    {\n        return requests[_requestID].aggregationType;\n    }\n    // ***Modifiers***\n    // @notice only owner of contract\n    modifier onlyOwner()\n    {\n        require(msg.sender == owner);\n        _;\n    }\n    // @notice only owner of aggregator contract\n    modifier onlyAggregator()\n    {\n        require(msg.sender == aggregatorAddr);\n        _;\n    }\n    // @notice only owner of reputation contract\n    modifier onlyReputation()\n    {\n        require(msg.sender == reputationAddr);\n        _;\n    }\n    // @notice modifier to confirm calling address is an oracle node address already acknowledged\n    modifier oracleHasJoined()\n    {\n        require(oracles[msg.sender] == true);\n        _;\n    }\n    // @notice modifier to confirm calling address is not yet an oracle node address acknowledged\n    modifier oracleNotJoined()\n    {\n        require(oracles[msg.sender] != true);\n        _;\n    }\n    // @notice requires request cancelFlag == 0\n    modifier cancelFlagZero(\n        uint256 _requestID)\n    {\n        require(requests[_requestID].cancelFlag == 0);\n        _;\n    }\n    // @notice requires stakeBalance to equal exactly 1 ETH\n    modifier stakeCheck()\n    {\n        require(stakeBalance[msg.sender] > 0);\n        _;\n    }\n    // @notice requires the value sent to be >= MIN_FEE set\n    modifier valueGTMinFeeCheck()\n    {\n        // require msg.value has enough to pay oracles for each function call\n        require(msg.value >= MIN_FEE);\n        _;\n    }\n    // @notice requires an odd number of oracles so voting/aggregation doesnt become deadlocked\n    modifier oddNumOracles(\n        uint32 _numberOfOracles)\n    {\n        // makes sure the number that there is always an odd number of oracles so a majority can be reached.\n        require(!(_numberOfOracles % 2 == 0));\n        _;\n    }\n    // @notice requires a new oracle to send 1 eth to be held by contract until it leaves the network\n    modifier valueEqual1Eth()\n    {\n        require(msg.value == 1 ether); // must send 1 eth that is to be held by contract\n        _;\n    }\n    // @notice requires counter to be less than number required\n    modifier orcCountLessThanNum(\n        uint256 _requestID)\n    {\n        // makes sure oracle counter is less than number of oracles required so response can be submitted\n        require(requests[_requestID].oracleCounter < requests[_requestID].numberOfOracles);\n        _;\n    }\n    // @notice requires that only the request can call the function\n    modifier onlyRequester(\n        uint256 _requestID)\n    {\n        require(msg.sender == requests[_requestID].requester);\n        _;\n    }\n\n    modifier isNotBlacklisted() {\n        require(!blacklistedOracles[msg.sender] == true);\n        _;\n    }\n    modifier aggregationTypeCheck(uint256 _aggregationType) {\n        require(1 == _aggregationType || _aggregationType == 2 );\n        _;\n    }\n    modifier elapsedTimeGT10mins(uint _elapsedTime) {\n        require(_elapsedTime > 10 minutes ); // this allows genuine time for oracles to respond..\n        _;\n    }\n    modifier withinTime(uint256 _requestID) {\n        require(block.timestamp < (timings[_requestID].timestamp + timings[_requestID].elapsedTime) );\n        _;\n    }\n    modifier timeHasElapsed(uint _requestID) {\n        require((timings[_requestID].timestamp + timings[_requestID].elapsedTime) > block.timestamp );\n        _;\n    }\n    modifier onlySubmittedCommitsOracles(uint256 _requestID) {\n        require(AggregatorContract(aggregatorAddr).getCommitFlag(_requestID) == 0\n            && AggregatorContract(aggregatorAddr).getOracleHasSubmittedCommit(_requestID, msg.sender));\n        _;\n    }\n\n    modifier onlySubmittedRevealsOracles(uint256 _requestID) {\n        require(AggregatorContract(aggregatorAddr).getCommitFlag(_requestID) == 1\n        && AggregatorContract(aggregatorAddr).getOracleHasSubmittedReveal(_requestID, msg.sender)\n        && AggregatorContract(aggregatorAddr).getRevealFlag(_requestID) == 0);\n        _;\n    }\n}\n",
  "sourcePath": "/home/willp/Documents/MSc_Computer_Science/PROJECT/Research_Code/july22_projectcode/IoToracle/contracts/OracleRequestContract.sol",
  "compiler": {
    "name": "solc",
    "version": "0.8.15+commit.e14f2714.Emscripten.clang"
  },
  "schemaVersion": "3.4.8",
  "updatedAt": "2022-08-16T21:02:22.590Z",
  "networkType": "ethereum",
  "devdoc": {
    "kind": "dev",
    "methods": {},
    "version": 1
  },
  "userdoc": {
    "kind": "user",
    "methods": {},
    "version": 1
  }
}