{
  "contractName": "OracleRequestContract",
  "abi": [
    {
      "inputs": [],
      "stateMutability": "nonpayable",
      "type": "constructor"
    },
    {
      "anonymous": false,
      "inputs": [
        {
          "indexed": false,
          "internalType": "address",
          "name": "",
          "type": "address"
        }
      ],
      "name": "BidPlaced",
      "type": "event"
    },
    {
      "anonymous": false,
      "inputs": [
        {
          "indexed": false,
          "internalType": "bool",
          "name": "",
          "type": "bool"
        },
        {
          "indexed": false,
          "internalType": "string",
          "name": "",
          "type": "string"
        }
      ],
      "name": "FinalResultLog",
      "type": "event"
    },
    {
      "anonymous": false,
      "inputs": [
        {
          "indexed": false,
          "internalType": "string",
          "name": "",
          "type": "string"
        }
      ],
      "name": "Logging",
      "type": "event"
    },
    {
      "anonymous": false,
      "inputs": [
        {
          "indexed": false,
          "internalType": "uint256",
          "name": "",
          "type": "uint256"
        },
        {
          "indexed": false,
          "internalType": "bytes",
          "name": "",
          "type": "bytes"
        },
        {
          "indexed": false,
          "internalType": "uint256",
          "name": "",
          "type": "uint256"
        }
      ],
      "name": "OpenForBids",
      "type": "event"
    },
    {
      "anonymous": false,
      "inputs": [
        {
          "indexed": false,
          "internalType": "address",
          "name": "",
          "type": "address"
        },
        {
          "indexed": false,
          "internalType": "string",
          "name": "",
          "type": "string"
        }
      ],
      "name": "OracleJoined",
      "type": "event"
    },
    {
      "anonymous": false,
      "inputs": [
        {
          "indexed": false,
          "internalType": "address",
          "name": "",
          "type": "address"
        },
        {
          "indexed": false,
          "internalType": "string",
          "name": "",
          "type": "string"
        }
      ],
      "name": "OracleLeft",
      "type": "event"
    },
    {
      "anonymous": false,
      "inputs": [
        {
          "indexed": false,
          "internalType": "address",
          "name": "",
          "type": "address"
        },
        {
          "indexed": false,
          "internalType": "uint256",
          "name": "",
          "type": "uint256"
        },
        {
          "indexed": false,
          "internalType": "string",
          "name": "",
          "type": "string"
        }
      ],
      "name": "OraclePaid",
      "type": "event"
    },
    {
      "anonymous": false,
      "inputs": [
        {
          "indexed": false,
          "internalType": "uint256",
          "name": "",
          "type": "uint256"
        },
        {
          "indexed": false,
          "internalType": "bytes",
          "name": "",
          "type": "bytes"
        },
        {
          "indexed": false,
          "internalType": "bytes",
          "name": "",
          "type": "bytes"
        }
      ],
      "name": "ReleaseRequestDetails",
      "type": "event"
    },
    {
      "anonymous": false,
      "inputs": [
        {
          "indexed": false,
          "internalType": "enum OracleRequestContract.Status",
          "name": "",
          "type": "uint8"
        },
        {
          "indexed": false,
          "internalType": "string",
          "name": "",
          "type": "string"
        }
      ],
      "name": "StatusChange",
      "type": "event"
    },
    {
      "stateMutability": "nonpayable",
      "type": "fallback"
    },
    {
      "inputs": [],
      "name": "aggregatorAddr",
      "outputs": [
        {
          "internalType": "address",
          "name": "",
          "type": "address"
        }
      ],
      "stateMutability": "view",
      "type": "function",
      "constant": true
    },
    {
      "inputs": [
        {
          "internalType": "address",
          "name": "",
          "type": "address"
        }
      ],
      "name": "blacklistedOracles",
      "outputs": [
        {
          "internalType": "bool",
          "name": "",
          "type": "bool"
        }
      ],
      "stateMutability": "view",
      "type": "function",
      "constant": true
    },
    {
      "inputs": [
        {
          "internalType": "uint256",
          "name": "",
          "type": "uint256"
        }
      ],
      "name": "completedRequests",
      "outputs": [
        {
          "internalType": "bool",
          "name": "",
          "type": "bool"
        }
      ],
      "stateMutability": "view",
      "type": "function",
      "constant": true
    },
    {
      "inputs": [
        {
          "internalType": "address",
          "name": "",
          "type": "address"
        }
      ],
      "name": "oracles",
      "outputs": [
        {
          "internalType": "bool",
          "name": "",
          "type": "bool"
        }
      ],
      "stateMutability": "view",
      "type": "function",
      "constant": true
    },
    {
      "inputs": [],
      "name": "owner",
      "outputs": [
        {
          "internalType": "address",
          "name": "",
          "type": "address"
        }
      ],
      "stateMutability": "view",
      "type": "function",
      "constant": true
    },
    {
      "inputs": [],
      "name": "reputationAddr",
      "outputs": [
        {
          "internalType": "address",
          "name": "",
          "type": "address"
        }
      ],
      "stateMutability": "view",
      "type": "function",
      "constant": true
    },
    {
      "inputs": [
        {
          "internalType": "uint256",
          "name": "",
          "type": "uint256"
        }
      ],
      "name": "requests",
      "outputs": [
        {
          "internalType": "uint256",
          "name": "requestID",
          "type": "uint256"
        },
        {
          "internalType": "address",
          "name": "requester",
          "type": "address"
        },
        {
          "internalType": "address",
          "name": "callbackAddress",
          "type": "address"
        },
        {
          "internalType": "bytes",
          "name": "callbackFID",
          "type": "bytes"
        },
        {
          "internalType": "bytes",
          "name": "IoTID",
          "type": "bytes"
        },
        {
          "internalType": "bytes",
          "name": "dataType",
          "type": "bytes"
        },
        {
          "internalType": "uint32",
          "name": "numberOfOracles",
          "type": "uint32"
        },
        {
          "internalType": "uint256",
          "name": "aggregationType",
          "type": "uint256"
        },
        {
          "internalType": "uint32",
          "name": "oracleCounter",
          "type": "uint32"
        },
        {
          "internalType": "enum OracleRequestContract.Status",
          "name": "status",
          "type": "uint8"
        },
        {
          "internalType": "uint8",
          "name": "cancelFlag",
          "type": "uint8"
        },
        {
          "internalType": "uint256",
          "name": "fee",
          "type": "uint256"
        }
      ],
      "stateMutability": "view",
      "type": "function",
      "constant": true
    },
    {
      "inputs": [
        {
          "internalType": "address",
          "name": "",
          "type": "address"
        }
      ],
      "name": "stakeBalance",
      "outputs": [
        {
          "internalType": "uint256",
          "name": "",
          "type": "uint256"
        }
      ],
      "stateMutability": "view",
      "type": "function",
      "constant": true
    },
    {
      "inputs": [],
      "name": "joinAsOracle",
      "outputs": [
        {
          "internalType": "bool",
          "name": "",
          "type": "bool"
        }
      ],
      "stateMutability": "payable",
      "type": "function",
      "payable": true
    },
    {
      "inputs": [],
      "name": "leaveOracleNetwork",
      "outputs": [
        {
          "internalType": "bool",
          "name": "",
          "type": "bool"
        }
      ],
      "stateMutability": "nonpayable",
      "type": "function"
    },
    {
      "inputs": [
        {
          "internalType": "address",
          "name": "_callbackAddress",
          "type": "address"
        },
        {
          "internalType": "bytes",
          "name": "_callbackFID",
          "type": "bytes"
        },
        {
          "internalType": "bytes",
          "name": "_IoTID",
          "type": "bytes"
        },
        {
          "internalType": "bytes",
          "name": "_dataType",
          "type": "bytes"
        },
        {
          "internalType": "uint256",
          "name": "_aggregationType",
          "type": "uint256"
        },
        {
          "internalType": "uint32",
          "name": "_numberOfOracles",
          "type": "uint32"
        }
      ],
      "name": "createRequest",
      "outputs": [
        {
          "internalType": "uint256",
          "name": "",
          "type": "uint256"
        }
      ],
      "stateMutability": "payable",
      "type": "function",
      "payable": true
    },
    {
      "inputs": [
        {
          "internalType": "uint256",
          "name": "_requestID",
          "type": "uint256"
        }
      ],
      "name": "placeBid",
      "outputs": [
        {
          "internalType": "bool",
          "name": "",
          "type": "bool"
        }
      ],
      "stateMutability": "nonpayable",
      "type": "function"
    },
    {
      "inputs": [
        {
          "internalType": "uint256",
          "name": "_requestID",
          "type": "uint256"
        },
        {
          "internalType": "bool",
          "name": "_finalResult",
          "type": "bool"
        },
        {
          "internalType": "address[]",
          "name": "_correctOracles",
          "type": "address[]"
        },
        {
          "internalType": "address[]",
          "name": "_incorrectOracles",
          "type": "address[]"
        },
        {
          "internalType": "address[]",
          "name": "_incorrectRevealOracles",
          "type": "address[]"
        }
      ],
      "name": "deliverVoteResponse",
      "outputs": [
        {
          "internalType": "bool",
          "name": "",
          "type": "bool"
        }
      ],
      "stateMutability": "nonpayable",
      "type": "function"
    },
    {
      "inputs": [
        {
          "internalType": "uint256",
          "name": "_requestID",
          "type": "uint256"
        },
        {
          "internalType": "int256",
          "name": "_finalResult",
          "type": "int256"
        },
        {
          "internalType": "address[]",
          "name": "_correctOracles",
          "type": "address[]"
        },
        {
          "internalType": "address[]",
          "name": "_incorrectOracles",
          "type": "address[]"
        }
      ],
      "name": "deliverAverageResponse",
      "outputs": [
        {
          "internalType": "bool",
          "name": "",
          "type": "bool"
        }
      ],
      "stateMutability": "nonpayable",
      "type": "function"
    },
    {
      "inputs": [
        {
          "internalType": "uint256",
          "name": "_requestID",
          "type": "uint256"
        }
      ],
      "name": "cancelRequest",
      "outputs": [
        {
          "internalType": "bool",
          "name": "",
          "type": "bool"
        }
      ],
      "stateMutability": "nonpayable",
      "type": "function"
    },
    {
      "inputs": [
        {
          "internalType": "uint256",
          "name": "_requestID",
          "type": "uint256"
        },
        {
          "internalType": "address[]",
          "name": "_incorrectOracleReveals",
          "type": "address[]"
        }
      ],
      "name": "cancelRequestDueToDeadlock",
      "outputs": [
        {
          "internalType": "bool",
          "name": "",
          "type": "bool"
        }
      ],
      "stateMutability": "nonpayable",
      "type": "function"
    },
    {
      "inputs": [
        {
          "internalType": "address",
          "name": "_addr",
          "type": "address"
        }
      ],
      "name": "blacklistOracle",
      "outputs": [
        {
          "internalType": "bool",
          "name": "",
          "type": "bool"
        }
      ],
      "stateMutability": "nonpayable",
      "type": "function"
    },
    {
      "inputs": [
        {
          "internalType": "address",
          "name": "_aggAddr",
          "type": "address"
        }
      ],
      "name": "setAggregatorContract",
      "outputs": [
        {
          "internalType": "bool",
          "name": "",
          "type": "bool"
        }
      ],
      "stateMutability": "nonpayable",
      "type": "function"
    },
    {
      "inputs": [
        {
          "internalType": "address",
          "name": "_repAddr",
          "type": "address"
        }
      ],
      "name": "setReputationContract",
      "outputs": [
        {
          "internalType": "bool",
          "name": "",
          "type": "bool"
        }
      ],
      "stateMutability": "nonpayable",
      "type": "function"
    },
    {
      "inputs": [
        {
          "internalType": "uint256",
          "name": "_requestID",
          "type": "uint256"
        },
        {
          "internalType": "address",
          "name": "_orcAddr",
          "type": "address"
        }
      ],
      "name": "getOracleForRequest",
      "outputs": [
        {
          "internalType": "bool",
          "name": "",
          "type": "bool"
        }
      ],
      "stateMutability": "view",
      "type": "function",
      "constant": true
    },
    {
      "inputs": [
        {
          "internalType": "uint256",
          "name": "_requestID",
          "type": "uint256"
        }
      ],
      "name": "getNumberOfOracles",
      "outputs": [
        {
          "internalType": "uint32",
          "name": "",
          "type": "uint32"
        }
      ],
      "stateMutability": "view",
      "type": "function",
      "constant": true
    },
    {
      "inputs": [
        {
          "internalType": "uint256",
          "name": "_requestID",
          "type": "uint256"
        }
      ],
      "name": "getDataType",
      "outputs": [
        {
          "internalType": "bytes",
          "name": "",
          "type": "bytes"
        }
      ],
      "stateMutability": "view",
      "type": "function",
      "constant": true
    },
    {
      "inputs": [
        {
          "internalType": "address",
          "name": "_addr",
          "type": "address"
        }
      ],
      "name": "getBlacklistedOracle",
      "outputs": [
        {
          "internalType": "bool",
          "name": "",
          "type": "bool"
        }
      ],
      "stateMutability": "view",
      "type": "function",
      "constant": true
    },
    {
      "inputs": [
        {
          "internalType": "uint256",
          "name": "_requestID",
          "type": "uint256"
        }
      ],
      "name": "getAggregationType",
      "outputs": [
        {
          "internalType": "uint256",
          "name": "",
          "type": "uint256"
        }
      ],
      "stateMutability": "view",
      "type": "function",
      "constant": true
    }
  ],
  "bytecode": "0x608060405260016104b65560016104b7556404a817c8006104bc5560036104bc546200002c9190620000e3565b6104bd5560056104bc54620000429190620000e3565b6104bd5462000052919062000144565b6104be553480156200006357600080fd5b50336000806101000a81548173ffffffffffffffffffffffffffffffffffffffff021916908373ffffffffffffffffffffffffffffffffffffffff160217905550620001a1565b6000819050919050565b7f4e487b7100000000000000000000000000000000000000000000000000000000600052601160045260246000fd5b6000620000f082620000aa565b9150620000fd83620000aa565b9250817fffffffffffffffffffffffffffffffffffffffffffffffffffffffffffffffff0483118215151615620001395762000138620000b4565b5b828202905092915050565b60006200015182620000aa565b91506200015e83620000aa565b9250827fffffffffffffffffffffffffffffffffffffffffffffffffffffffffffffffff03821115620001965762000195620000b4565b5b828201905092915050565b61429380620001b16000396000f3fe60806040526004361061014f5760003560e01c806391a3632a116100b6578063a37b354d1161006f578063a37b354d1461054c578063addd509914610589578063e4888222146105c6578063ea2d8e3014610603578063eee5a59614610633578063f0fbfbf31461067057610150565b806391a3632a1461040f578063950e1da91461044c5780639584660f1461046a5780639967cf60146104a75780639979ef45146104e4578063a08702f31461052157610150565b806358621b7a1161010857806358621b7a146102ba5780636fbf7973146102f75780637d02da091461033457806381d12c581461037157806382762600146103b95780638da5cb5b146103e457610150565b8063053ebc9a1461015e5780633015394c1461018957806330407ad9146101c6578063498d7df0146102035780634e7c57a61461024057806357442e791461027d57610150565b5b34801561015c57600080fd5b005b34801561016a57600080fd5b506101736106ad565b6040516101809190612d70565b60405180910390f35b34801561019557600080fd5b506101b060048036038101906101ab9190612dd5565b6106d3565b6040516101bd9190612e1d565b60405180910390f35b3480156101d257600080fd5b506101ed60048036038101906101e89190612fe9565b610904565b6040516101fa9190612e1d565b60405180910390f35b34801561020f57600080fd5b5061022a600480360381019061022591906130b8565b610f3f565b6040516102379190612e1d565b60405180910390f35b34801561024c57600080fd5b5061026760048036038101906102629190613114565b611359565b6040516102749190613150565b60405180910390f35b34801561028957600080fd5b506102a4600480360381019061029f9190612dd5565b611372565b6040516102b191906131f3565b60405180910390f35b3480156102c657600080fd5b506102e160048036038101906102dc919061324b565b611479565b6040516102ee9190612e1d565b60405180910390f35b34801561030357600080fd5b5061031e60048036038101906103199190613114565b61173e565b60405161032b9190612e1d565b60405180910390f35b34801561034057600080fd5b5061035b60048036038101906103569190613114565b611795565b6040516103689190612e1d565b60405180910390f35b34801561037d57600080fd5b5061039860048036038101906103939190612dd5565b6117b6565b6040516103b09c9b9a9998979695949392919061339c565b60405180910390f35b3480156103c557600080fd5b506103ce611a2e565b6040516103db9190612d70565b60405180910390f35b3480156103f057600080fd5b506103f9611a54565b6040516104069190612d70565b60405180910390f35b34801561041b57600080fd5b5061043660048036038101906104319190612dd5565b611a78565b604051610443919061346b565b60405180910390f35b610454611b07565b6040516104619190612e1d565b60405180910390f35b34801561047657600080fd5b50610491600480360381019061048c9190613114565b611da1565b60405161049e9190612e1d565b60405180910390f35b3480156104b357600080fd5b506104ce60048036038101906104c99190613114565b611e46565b6040516104db9190612e1d565b60405180910390f35b3480156104f057600080fd5b5061050b60048036038101906105069190612dd5565b611eeb565b6040516105189190612e1d565b60405180910390f35b34801561052d57600080fd5b5061053661234a565b6040516105439190612e1d565b60405180910390f35b34801561055857600080fd5b50610573600480360381019061056e9190613486565b6126af565b6040516105809190612e1d565b60405180910390f35b34801561059557600080fd5b506105b060048036038101906105ab9190613114565b612779565b6040516105bd9190612e1d565b60405180910390f35b3480156105d257600080fd5b506105ed60048036038101906105e89190612dd5565b61279a565b6040516105fa9190613150565b60405180910390f35b61061d600480360381019061061891906135a7565b612819565b60405161062a9190613150565b60405180910390f35b34801561063f57600080fd5b5061065a60048036038101906106559190613114565b612bfa565b6040516106679190612e1d565b60405180910390f35b34801561067c57600080fd5b5061069760048036038101906106929190612dd5565b612d04565b6040516106a49190612e1d565b60405180910390f35b600260009054906101000a900473ffffffffffffffffffffffffffffffffffffffff1681565b600081600381606481106106ea576106e9613688565b5b600c020160010160009054906101000a900473ffffffffffffffffffffffffffffffffffffffff1673ffffffffffffffffffffffffffffffffffffffff163373ffffffffffffffffffffffffffffffffffffffff161461074957600080fd5b826000600382606481106107605761075f613688565b5b600c0201600a0160059054906101000a900460ff1660ff161461078257600080fd5b60016003856064811061079857610797613688565b5b600c0201600a0160056101000a81548160ff021916908360ff1602179055506002600385606481106107cd576107cc613688565b5b600c0201600a0160046101000a81548160ff021916908360028111156107f6576107f5613309565b5b02179055507f346e0fa9e112a7376778dcb0fe0fdfe51db577b3d0b1592a40266db0b192f822600385606481106108305761082f613688565b5b600c0201600a0160049054906101000a900460ff166040516108529190613714565b60405180910390a1600160009054906101000a900473ffffffffffffffffffffffffffffffffffffffff1673ffffffffffffffffffffffffffffffffffffffff16633015394c856040518263ffffffff1660e01b81526004016108b59190613150565b6020604051808303816000875af11580156108d4573d6000803e3d6000fd5b505050506040513d601f19601f820116820180604052508101906108f89190613757565b50600192505050919050565b60008560006003826064811061091d5761091c613688565b5b600c0201600a0160059054906101000a900460ff1660ff161461093f57600080fd5b600160009054906101000a900473ffffffffffffffffffffffffffffffffffffffff1673ffffffffffffffffffffffffffffffffffffffff163373ffffffffffffffffffffffffffffffffffffffff161461099957600080fd5b7f5286d5a6d3a87f8e130652b705a8d0ec84042e834444bd00313a08d13a384755866040516109c891906137d0565b60405180910390a160008551600389606481106109e8576109e7613688565b5b600c0201600b01546109fa919061385c565b905060005b8651811015610b37577fb1ed47ced4562a888b3c47e728f82f7863e472cad724018fe1585bc6853ec82d604051610a35906138d9565b60405180910390a17f88fa4dc6dc84fb056628ddf02c361252f313bcdd951c9d28e3b628bffac8ab55878281518110610a7157610a70613688565b5b60200260200101516000604051610a8992919061398a565b60405180910390a1868181518110610aa457610aa3613688565b5b602002602001015173ffffffffffffffffffffffffffffffffffffffff166108fc839081150290604051600060405180830381858888f19350505050158015610af1573d6000803e3d6000fd5b508160038a60648110610b0757610b06613688565b5b600c0201600b016000828254610b1d91906139c6565b925050819055508080610b2f906139fa565b9150506109ff565b5060005b8551811015610d71577fb1ed47ced4562a888b3c47e728f82f7863e472cad724018fe1585bc6853ec82d604051610b7190613a8e565b60405180910390a16000600260009054906101000a900473ffffffffffffffffffffffffffffffffffffffff1673ffffffffffffffffffffffffffffffffffffffff1663b8f9c2a1888481518110610bcc57610bcb613688565b5b60200260200101516040518263ffffffff1660e01b8152600401610bf09190612d70565b602060405180830381865afa158015610c0d573d6000803e3d6000fd5b505050506040513d601f19601f82011682018060405250810190610c319190613ac3565b9050806104b56000898581518110610c4c57610c4b613688565b5b602002602001015173ffffffffffffffffffffffffffffffffffffffff1673ffffffffffffffffffffffffffffffffffffffff1681526020019081526020016000206000828254610c9d91906139c6565b92505081905550600260009054906101000a900473ffffffffffffffffffffffffffffffffffffffff1673ffffffffffffffffffffffffffffffffffffffff166318b529c3888481518110610cf557610cf4613688565b5b60200260200101516040518263ffffffff1660e01b8152600401610d199190612d70565b6020604051808303816000875af1158015610d38573d6000803e3d6000fd5b505050506040513d601f19601f82011682018060405250810190610d5c9190613ac3565b50508080610d69906139fa565b915050610b3b565b5060005b8451811015610e3d577fb1ed47ced4562a888b3c47e728f82f7863e472cad724018fe1585bc6853ec82d604051610dab90613b62565b60405180910390a16000829050806104b56000888581518110610dd157610dd0613688565b5b602002602001015173ffffffffffffffffffffffffffffffffffffffff1673ffffffffffffffffffffffffffffffffffffffff1681526020019081526020016000206000828254610e229190613b82565b92505081905550508080610e35906139fa565b915050610d75565b50600160038960648110610e5457610e53613688565b5b600c0201600a0160046101000a81548160ff02191690836002811115610e7d57610e7c613309565b5b021790555060016104b88960648110610e9957610e98613688565b5b602091828204019190066101000a81548160ff0219169083151502179055507f346e0fa9e112a7376778dcb0fe0fdfe51db577b3d0b1592a40266db0b192f82260038960648110610eed57610eec613688565b5b600c0201600a0160049054906101000a900460ff16604051610f0f9190613c24565b60405180910390a16104b76000815480929190610f2b90613c52565b919050555060019250505095945050505050565b6000600160009054906101000a900473ffffffffffffffffffffffffffffffffffffffff1673ffffffffffffffffffffffffffffffffffffffff163373ffffffffffffffffffffffffffffffffffffffff1614610f9b57600080fd5b82600060038260648110610fb257610fb1613688565b5b600c0201600a0160059054906101000a900460ff1660ff1614610fd457600080fd5b600160038560648110610fea57610fe9613688565b5b600c0201600a0160056101000a81548160ff021916908360ff16021790555060026003856064811061101f5761101e613688565b5b600c0201600a0160046101000a81548160ff0219169083600281111561104857611047613309565b5b021790555060005b8351811015611251576000600260009054906101000a900473ffffffffffffffffffffffffffffffffffffffff1673ffffffffffffffffffffffffffffffffffffffff1663b8f9c2a18684815181106110ac576110ab613688565b5b60200260200101516040518263ffffffff1660e01b81526004016110d09190612d70565b602060405180830381865afa1580156110ed573d6000803e3d6000fd5b505050506040513d601f19601f820116820180604052508101906111119190613ac3565b9050806104b5600087858151811061112c5761112b613688565b5b602002602001015173ffffffffffffffffffffffffffffffffffffffff1673ffffffffffffffffffffffffffffffffffffffff168152602001908152602001600020600082825461117d91906139c6565b92505081905550600260009054906101000a900473ffffffffffffffffffffffffffffffffffffffff1673ffffffffffffffffffffffffffffffffffffffff166318b529c38684815181106111d5576111d4613688565b5b60200260200101516040518263ffffffff1660e01b81526004016111f99190612d70565b6020604051808303816000875af1158015611218573d6000803e3d6000fd5b505050506040513d601f19601f8201168201806040525081019061123c9190613ac3565b50508080611249906139fa565b915050611050565b506003846064811061126657611265613688565b5b600c020160010160009054906101000a900473ffffffffffffffffffffffffffffffffffffffff1673ffffffffffffffffffffffffffffffffffffffff166108fc600386606481106112bb576112ba613688565b5b600c0201600b01549081150290604051600060405180830381858888f193505050501580156112ee573d6000803e3d6000fd5b507f346e0fa9e112a7376778dcb0fe0fdfe51db577b3d0b1592a40266db0b192f8226003856064811061132457611323613688565b5b600c0201600a0160049054906101000a900460ff166040516113469190613714565b60405180910390a1600191505092915050565b6104b56020528060005260406000206000915090505481565b6060600160009054906101000a900473ffffffffffffffffffffffffffffffffffffffff1673ffffffffffffffffffffffffffffffffffffffff163373ffffffffffffffffffffffffffffffffffffffff16146113ce57600080fd5b600382606481106113e2576113e1613688565b5b600c020160050180546113f490613caa565b80601f016020809104026020016040519081016040528092919081815260200182805461142090613caa565b801561146d5780601f106114425761010080835404028352916020019161146d565b820191906000526020600020905b81548152906001019060200180831161145057829003601f168201915b50505050509050919050565b60008460006003826064811061149257611491613688565b5b600c0201600a0160059054906101000a900460ff1660ff16146114b457600080fd5b600160009054906101000a900473ffffffffffffffffffffffffffffffffffffffff1673ffffffffffffffffffffffffffffffffffffffff163373ffffffffffffffffffffffffffffffffffffffff161461150e57600080fd5b600084516003886064811061152657611525613688565b5b600c0201600b0154611538919061385c565b905060005b85518110156115ac577f88fa4dc6dc84fb056628ddf02c361252f313bcdd951c9d28e3b628bffac8ab5586828151811061157a57611579613688565b5b602002602001015183604051611591929190613cdb565b60405180910390a180806115a4906139fa565b91505061153d565b5060005b845181101561163d57816104b560008784815181106115d2576115d1613688565b5b602002602001015173ffffffffffffffffffffffffffffffffffffffff1673ffffffffffffffffffffffffffffffffffffffff168152602001908152602001600020600082825461162391906139c6565b925050819055508080611635906139fa565b9150506115b0565b5060016003886064811061165457611653613688565b5b600c0201600a0160046101000a81548160ff0219169083600281111561167d5761167c613309565b5b021790555060016104b8886064811061169957611698613688565b5b602091828204019190066101000a81548160ff0219169083151502179055507f346e0fa9e112a7376778dcb0fe0fdfe51db577b3d0b1592a40266db0b192f822600388606481106116ed576116ec613688565b5b600c0201600a0160049054906101000a900460ff1660405161170f9190613c24565b60405180910390a16104b7600081548092919061172b90613c52565b9190505550600192505050949350505050565b60006104b460008373ffffffffffffffffffffffffffffffffffffffff1673ffffffffffffffffffffffffffffffffffffffff16815260200190815260200160002060009054906101000a900460ff169050919050565b6104b46020528060005260406000206000915054906101000a900460ff1681565b600381606481106117c657600080fd5b600c02016000915090508060000154908060010160009054906101000a900473ffffffffffffffffffffffffffffffffffffffff16908060020160009054906101000a900473ffffffffffffffffffffffffffffffffffffffff169080600301805461183190613caa565b80601f016020809104026020016040519081016040528092919081815260200182805461185d90613caa565b80156118aa5780601f1061187f576101008083540402835291602001916118aa565b820191906000526020600020905b81548152906001019060200180831161188d57829003601f168201915b5050505050908060040180546118bf90613caa565b80601f01602080910402602001604051908101604052809291908181526020018280546118eb90613caa565b80156119385780601f1061190d57610100808354040283529160200191611938565b820191906000526020600020905b81548152906001019060200180831161191b57829003601f168201915b50505050509080600501805461194d90613caa565b80601f016020809104026020016040519081016040528092919081815260200182805461197990613caa565b80156119c65780601f1061199b576101008083540402835291602001916119c6565b820191906000526020600020905b8154815290600101906020018083116119a957829003601f168201915b5050505050908060060160009054906101000a900463ffffffff169080600901549080600a0160009054906101000a900463ffffffff169080600a0160049054906101000a900460ff169080600a0160059054906101000a900460ff169080600b015490508c565b600160009054906101000a900473ffffffffffffffffffffffffffffffffffffffff1681565b60008054906101000a900473ffffffffffffffffffffffffffffffffffffffff1681565b6000600160009054906101000a900473ffffffffffffffffffffffffffffffffffffffff1673ffffffffffffffffffffffffffffffffffffffff163373ffffffffffffffffffffffffffffffffffffffff1614611ad457600080fd5b60038260648110611ae857611ae7613688565b5b600c020160060160009054906101000a900463ffffffff169050919050565b6000600115156104b360003373ffffffffffffffffffffffffffffffffffffffff1673ffffffffffffffffffffffffffffffffffffffff16815260200190815260200160002060009054906101000a900460ff16151503611b6757600080fd5b670de0b6b3a76400003414611b7b57600080fd5b600115156104b460003373ffffffffffffffffffffffffffffffffffffffff1673ffffffffffffffffffffffffffffffffffffffff16815260200190815260200160002060009054906101000a900460ff1615151514611bda57600080fd5b600260009054906101000a900473ffffffffffffffffffffffffffffffffffffffff1673ffffffffffffffffffffffffffffffffffffffff1663df5dd1a5336040518263ffffffff1660e01b8152600401611c359190612d70565b6020604051808303816000875af1158015611c54573d6000803e3d6000fd5b505050506040513d601f19601f82011682018060405250810190611c789190613757565b5060016104b360003373ffffffffffffffffffffffffffffffffffffffff1673ffffffffffffffffffffffffffffffffffffffff16815260200190815260200160002060006101000a81548160ff021916908315150217905550346104b560003373ffffffffffffffffffffffffffffffffffffffff1673ffffffffffffffffffffffffffffffffffffffff168152602001908152602001600020819055507f2d62108771d82d92634e2d038b6c7f09290edfee5b1443e25299f04a0cfbca7233604051611d469190613d63565b60405180910390a16104b360003373ffffffffffffffffffffffffffffffffffffffff1673ffffffffffffffffffffffffffffffffffffffff16815260200190815260200160002060009054906101000a900460ff16905090565b60008060009054906101000a900473ffffffffffffffffffffffffffffffffffffffff1673ffffffffffffffffffffffffffffffffffffffff163373ffffffffffffffffffffffffffffffffffffffff1614611dfc57600080fd5b81600260006101000a81548173ffffffffffffffffffffffffffffffffffffffff021916908373ffffffffffffffffffffffffffffffffffffffff16021790555060019050919050565b60008060009054906101000a900473ffffffffffffffffffffffffffffffffffffffff1673ffffffffffffffffffffffffffffffffffffffff163373ffffffffffffffffffffffffffffffffffffffff1614611ea157600080fd5b81600160006101000a81548173ffffffffffffffffffffffffffffffffffffffff021916908373ffffffffffffffffffffffffffffffffffffffff16021790555060019050919050565b6000600115156104b360003373ffffffffffffffffffffffffffffffffffffffff1673ffffffffffffffffffffffffffffffffffffffff16815260200190815260200160002060009054906101000a900460ff16151514611f4b57600080fd5b81600060038260648110611f6257611f61613688565b5b600c0201600a0160059054906101000a900460ff1660ff1614611f8457600080fd5b8260038160648110611f9957611f98613688565b5b600c020160060160009054906101000a900463ffffffff1663ffffffff1660038260648110611fcb57611fca613688565b5b600c0201600a0160009054906101000a900463ffffffff1663ffffffff1610611ff357600080fd5b600115156104b460003373ffffffffffffffffffffffffffffffffffffffff1673ffffffffffffffffffffffffffffffffffffffff16815260200190815260200160002060009054906101000a900460ff161515151461205257600080fd5b60016003856064811061206857612067613688565b5b600c020160070160003373ffffffffffffffffffffffffffffffffffffffff1673ffffffffffffffffffffffffffffffffffffffff16815260200190815260200160002060006101000a81548160ff02191690831515021790555033600385606481106120d8576120d7613688565b5b600c02016008016000600387606481106120f5576120f4613688565b5b600c0201600a0160009054906101000a900463ffffffff1663ffffffff1663ffffffff16815260200190815260200160002060006101000a81548173ffffffffffffffffffffffffffffffffffffffff021916908373ffffffffffffffffffffffffffffffffffffffff1602179055506003846064811061217957612178613688565b5b600c0201600a01600081819054906101000a900463ffffffff16809291906121a090613d91565b91906101000a81548163ffffffff021916908363ffffffff160217905550507fe677a6b9a16a696674f50d2c98a1ce8c5cb51d6b48a0223412c512bbc93664d5336040516121ee9190612d70565b60405180910390a16003846064811061220a57612209613688565b5b600c0201600a0160009054906101000a900463ffffffff1663ffffffff166003856064811061223c5761223b613688565b5b600c020160060160009054906101000a900463ffffffff1663ffffffff16036122f2577f2510e6950be86d6001a0b1229da4c21fa8e26b6bcf345d0b348fe42894fceb036003856064811061229457612293613688565b5b600c020160000154600386606481106122b0576122af613688565b5b600c0201600401600387606481106122cb576122ca613688565b5b600c02016005016040516122e193929190613e56565b60405180910390a160019250612343565b6104b360003373ffffffffffffffffffffffffffffffffffffffff1673ffffffffffffffffffffffffffffffffffffffff16815260200190815260200160002060009054906101000a900460ff1692505b5050919050565b6000600115156104b360003373ffffffffffffffffffffffffffffffffffffffff1673ffffffffffffffffffffffffffffffffffffffff16815260200190815260200160002060009054906101000a900460ff161515146123aa57600080fd5b60006104b560003373ffffffffffffffffffffffffffffffffffffffff1673ffffffffffffffffffffffffffffffffffffffff16815260200190815260200160002054116123f757600080fd5b600115156104b460003373ffffffffffffffffffffffffffffffffffffffff1673ffffffffffffffffffffffffffffffffffffffff16815260200190815260200160002060009054906101000a900460ff161515151461245657600080fd5b6001600260009054906101000a900473ffffffffffffffffffffffffffffffffffffffff1673ffffffffffffffffffffffffffffffffffffffff16630855078b336040518263ffffffff1660e01b81526004016124b39190612d70565b602060405180830381865afa1580156124d0573d6000803e3d6000fd5b505050506040513d601f19601f820116820180604052508101906124f49190613ac3565b11156125545760016104b460003373ffffffffffffffffffffffffffffffffffffffff1673ffffffffffffffffffffffffffffffffffffffff16815260200190815260200160002060006101000a81548160ff0219169083151502179055505b6104b360003373ffffffffffffffffffffffffffffffffffffffff1673ffffffffffffffffffffffffffffffffffffffff16815260200190815260200160002060006101000a81549060ff02191690553373ffffffffffffffffffffffffffffffffffffffff166108fc6104b560003373ffffffffffffffffffffffffffffffffffffffff1673ffffffffffffffffffffffffffffffffffffffff168152602001908152602001600020549081150290604051600060405180830381858888f1935050505015801561262a573d6000803e3d6000fd5b5060006104b560003373ffffffffffffffffffffffffffffffffffffffff1673ffffffffffffffffffffffffffffffffffffffff168152602001908152602001600020819055507f14951d787e2aaf7813982720871de23d576e7d935c0587e12a7fc2c4c960165a336040516126a09190613ee7565b60405180910390a16001905090565b6000600160009054906101000a900473ffffffffffffffffffffffffffffffffffffffff1673ffffffffffffffffffffffffffffffffffffffff163373ffffffffffffffffffffffffffffffffffffffff161461270b57600080fd5b6003836064811061271f5761271e613688565b5b600c020160070160008373ffffffffffffffffffffffffffffffffffffffff1673ffffffffffffffffffffffffffffffffffffffff16815260200190815260200160002060009054906101000a900460ff16905092915050565b6104b36020528060005260406000206000915054906101000a900460ff1681565b6000600160009054906101000a900473ffffffffffffffffffffffffffffffffffffffff1673ffffffffffffffffffffffffffffffffffffffff163373ffffffffffffffffffffffffffffffffffffffff16146127f657600080fd5b6003826064811061280a57612809613688565b5b600c0201600901549050919050565b60006104be5434101561282b57600080fd5b81600060028261283b9190613f15565b63ffffffff160361284b57600080fd5b83806001148061285b5750600281145b61286457600080fd5b60006104b6549050806003826064811061288157612880613688565b5b600c02016000018190555033600382606481106128a1576128a0613688565b5b600c020160010160006101000a81548173ffffffffffffffffffffffffffffffffffffffff021916908373ffffffffffffffffffffffffffffffffffffffff16021790555089600382606481106128fb576128fa613688565b5b600c020160020160006101000a81548173ffffffffffffffffffffffffffffffffffffffff021916908373ffffffffffffffffffffffffffffffffffffffff160217905550886003826064811061295557612954613688565b5b600c0201600301908161296891906140d3565b50876003826064811061297e5761297d613688565b5b600c0201600401908161299191906140d3565b5086600382606481106129a7576129a6613688565b5b600c020160050190816129ba91906140d3565b5084600382606481106129d0576129cf613688565b5b600c020160060160006101000a81548163ffffffff021916908363ffffffff160217905550600060038260648110612a0b57612a0a613688565b5b600c0201600a0160006101000a81548163ffffffff021916908363ffffffff160217905550600060038260648110612a4657612a45613688565b5b600c0201600a0160046101000a81548160ff02191690836002811115612a6f57612a6e613309565b5b0217905550600060038260648110612a8a57612a89613688565b5b600c0201600a0160056101000a81548160ff021916908360ff1602179055503460038260648110612abe57612abd613688565b5b600c0201600b01819055508560038260648110612ade57612add613688565b5b600c0201600901819055507f346e0fa9e112a7376778dcb0fe0fdfe51db577b3d0b1592a40266db0b192f82260038260648110612b1e57612b1d613688565b5b600c0201600a0160049054906101000a900460ff16604051612b4091906141f1565b60405180910390a16104b66000815480929190612b5c906139fa565b91905055506104b76000815480929190612b75906139fa565b91905055507fc668bf865a88698478ed2bc34c4926d4d20090065fd190fe9bf099fca888109d8160038360648110612bb057612baf613688565b5b600c020160050160038460648110612bcb57612bca613688565b5b600c020160090154604051612be29392919061421f565b60405180910390a18093505050509695505050505050565b6000600260009054906101000a900473ffffffffffffffffffffffffffffffffffffffff1673ffffffffffffffffffffffffffffffffffffffff163373ffffffffffffffffffffffffffffffffffffffff1614612c5657600080fd5b60016104b460008473ffffffffffffffffffffffffffffffffffffffff1673ffffffffffffffffffffffffffffffffffffffff16815260200190815260200160002060006101000a81548160ff0219169083151502179055506104b460008373ffffffffffffffffffffffffffffffffffffffff1673ffffffffffffffffffffffffffffffffffffffff16815260200190815260200160002060009054906101000a900460ff169050919050565b6104b88160648110612d1557600080fd5b60209182820401919006915054906101000a900460ff1681565b600073ffffffffffffffffffffffffffffffffffffffff82169050919050565b6000612d5a82612d2f565b9050919050565b612d6a81612d4f565b82525050565b6000602082019050612d856000830184612d61565b92915050565b6000604051905090565b600080fd5b600080fd5b6000819050919050565b612db281612d9f565b8114612dbd57600080fd5b50565b600081359050612dcf81612da9565b92915050565b600060208284031215612deb57612dea612d95565b5b6000612df984828501612dc0565b91505092915050565b60008115159050919050565b612e1781612e02565b82525050565b6000602082019050612e326000830184612e0e565b92915050565b612e4181612e02565b8114612e4c57600080fd5b50565b600081359050612e5e81612e38565b92915050565b600080fd5b6000601f19601f8301169050919050565b7f4e487b7100000000000000000000000000000000000000000000000000000000600052604160045260246000fd5b612eb282612e69565b810181811067ffffffffffffffff82111715612ed157612ed0612e7a565b5b80604052505050565b6000612ee4612d8b565b9050612ef08282612ea9565b919050565b600067ffffffffffffffff821115612f1057612f0f612e7a565b5b602082029050602081019050919050565b600080fd5b612f2f81612d4f565b8114612f3a57600080fd5b50565b600081359050612f4c81612f26565b92915050565b6000612f65612f6084612ef5565b612eda565b90508083825260208201905060208402830185811115612f8857612f87612f21565b5b835b81811015612fb15780612f9d8882612f3d565b845260208401935050602081019050612f8a565b5050509392505050565b600082601f830112612fd057612fcf612e64565b5b8135612fe0848260208601612f52565b91505092915050565b600080600080600060a0868803121561300557613004612d95565b5b600061301388828901612dc0565b955050602061302488828901612e4f565b945050604086013567ffffffffffffffff81111561304557613044612d9a565b5b61305188828901612fbb565b935050606086013567ffffffffffffffff81111561307257613071612d9a565b5b61307e88828901612fbb565b925050608086013567ffffffffffffffff81111561309f5761309e612d9a565b5b6130ab88828901612fbb565b9150509295509295909350565b600080604083850312156130cf576130ce612d95565b5b60006130dd85828601612dc0565b925050602083013567ffffffffffffffff8111156130fe576130fd612d9a565b5b61310a85828601612fbb565b9150509250929050565b60006020828403121561312a57613129612d95565b5b600061313884828501612f3d565b91505092915050565b61314a81612d9f565b82525050565b60006020820190506131656000830184613141565b92915050565b600081519050919050565b600082825260208201905092915050565b60005b838110156131a557808201518184015260208101905061318a565b838111156131b4576000848401525b50505050565b60006131c58261316b565b6131cf8185613176565b93506131df818560208601613187565b6131e881612e69565b840191505092915050565b6000602082019050818103600083015261320d81846131ba565b905092915050565b6000819050919050565b61322881613215565b811461323357600080fd5b50565b6000813590506132458161321f565b92915050565b6000806000806080858703121561326557613264612d95565b5b600061327387828801612dc0565b945050602061328487828801613236565b935050604085013567ffffffffffffffff8111156132a5576132a4612d9a565b5b6132b187828801612fbb565b925050606085013567ffffffffffffffff8111156132d2576132d1612d9a565b5b6132de87828801612fbb565b91505092959194509250565b600063ffffffff82169050919050565b613303816132ea565b82525050565b7f4e487b7100000000000000000000000000000000000000000000000000000000600052602160045260246000fd5b6003811061334957613348613309565b5b50565b600081905061335a82613338565b919050565b600061336a8261334c565b9050919050565b61337a8161335f565b82525050565b600060ff82169050919050565b61339681613380565b82525050565b6000610180820190506133b2600083018f613141565b6133bf602083018e612d61565b6133cc604083018d612d61565b81810360608301526133de818c6131ba565b905081810360808301526133f2818b6131ba565b905081810360a0830152613406818a6131ba565b905061341560c08301896132fa565b61342260e0830188613141565b6134306101008301876132fa565b61343e610120830186613371565b61344c61014083018561338d565b61345a610160830184613141565b9d9c50505050505050505050505050565b600060208201905061348060008301846132fa565b92915050565b6000806040838503121561349d5761349c612d95565b5b60006134ab85828601612dc0565b92505060206134bc85828601612f3d565b9150509250929050565b600080fd5b600067ffffffffffffffff8211156134e6576134e5612e7a565b5b6134ef82612e69565b9050602081019050919050565b82818337600083830152505050565b600061351e613519846134cb565b612eda565b90508281526020810184848401111561353a576135396134c6565b5b6135458482856134fc565b509392505050565b600082601f83011261356257613561612e64565b5b813561357284826020860161350b565b91505092915050565b613584816132ea565b811461358f57600080fd5b50565b6000813590506135a18161357b565b92915050565b60008060008060008060c087890312156135c4576135c3612d95565b5b60006135d289828a01612f3d565b965050602087013567ffffffffffffffff8111156135f3576135f2612d9a565b5b6135ff89828a0161354d565b955050604087013567ffffffffffffffff8111156136205761361f612d9a565b5b61362c89828a0161354d565b945050606087013567ffffffffffffffff81111561364d5761364c612d9a565b5b61365989828a0161354d565b935050608061366a89828a01612dc0565b92505060a061367b89828a01613592565b9150509295509295509295565b7f4e487b7100000000000000000000000000000000000000000000000000000000600052603260045260246000fd5b600082825260208201905092915050565b7f43414e43454c4c45440000000000000000000000000000000000000000000000600082015250565b60006136fe6009836136b7565b9150613709826136c8565b602082019050919050565b60006040820190506137296000830184613371565b818103602083015261373a816136f1565b905092915050565b60008151905061375181612e38565b92915050565b60006020828403121561376d5761376c612d95565b5b600061377b84828501613742565b91505092915050565b7f207468652066696e616c20726573756c74000000000000000000000000000000600082015250565b60006137ba6011836136b7565b91506137c582613784565b602082019050919050565b60006040820190506137e56000830184612e0e565b81810360208301526137f6816137ad565b905092915050565b7f4e487b7100000000000000000000000000000000000000000000000000000000600052601260045260246000fd5b7f4e487b7100000000000000000000000000000000000000000000000000000000600052601160045260246000fd5b600061386782612d9f565b915061387283612d9f565b925082613882576138816137fe565b5b828204905092915050565b7f6765747320746f20696e7369646520636f72726563744f7261636c6573000000600082015250565b60006138c3601d836136b7565b91506138ce8261388d565b602082019050919050565b600060208201905081810360008301526138f2816138b6565b9050919050565b6000819050919050565b6000819050919050565b600061392861392361391e846138f9565b613903565b612d9f565b9050919050565b6139388161390d565b82525050565b7f4f7261636c6520686173206265656e2050616964210000000000000000000000600082015250565b60006139746015836136b7565b915061397f8261393e565b602082019050919050565b600060608201905061399f6000830185612d61565b6139ac602083018461392f565b81810360408301526139bd81613967565b90509392505050565b60006139d182612d9f565b91506139dc83612d9f565b9250828210156139ef576139ee61382d565b5b828203905092915050565b6000613a0582612d9f565b91507fffffffffffffffffffffffffffffffffffffffffffffffffffffffffffffffff8203613a3757613a3661382d565b5b600182019050919050565b7f6765747320746f206c6f6f7020696e636f72726563744f7261636c6573000000600082015250565b6000613a78601d836136b7565b9150613a8382613a42565b602082019050919050565b60006020820190508181036000830152613aa781613a6b565b9050919050565b600081519050613abd81612da9565b92915050565b600060208284031215613ad957613ad8612d95565b5b6000613ae784828501613aae565b91505092915050565b7f77652067657420696e736964652070656e616c747920696e636f72726563742060008201527f6861736865730000000000000000000000000000000000000000000000000000602082015250565b6000613b4c6026836136b7565b9150613b5782613af0565b604082019050919050565b60006020820190508181036000830152613b7b81613b3f565b9050919050565b6000613b8d82612d9f565b9150613b9883612d9f565b9250827fffffffffffffffffffffffffffffffffffffffffffffffffffffffffffffffff03821115613bcd57613bcc61382d565b5b828201905092915050565b7f434f4d504c455445000000000000000000000000000000000000000000000000600082015250565b6000613c0e6008836136b7565b9150613c1982613bd8565b602082019050919050565b6000604082019050613c396000830184613371565b8181036020830152613c4a81613c01565b905092915050565b6000613c5d82612d9f565b915060008203613c7057613c6f61382d565b5b600182039050919050565b7f4e487b7100000000000000000000000000000000000000000000000000000000600052602260045260246000fd5b60006002820490506001821680613cc257607f821691505b602082108103613cd557613cd4613c7b565b5b50919050565b6000606082019050613cf06000830185612d61565b613cfd6020830184613141565b8181036040830152613d0e81613967565b90509392505050565b7f57656c636f6d65206e6577206e6f646521000000000000000000000000000000600082015250565b6000613d4d6011836136b7565b9150613d5882613d17565b602082019050919050565b6000604082019050613d786000830184612d61565b8181036020830152613d8981613d40565b905092915050565b6000613d9c826132ea565b915063ffffffff8203613db257613db161382d565b5b600182019050919050565b60008190508160005260206000209050919050565b60008154613ddf81613caa565b613de98186613176565b94506001821660008114613e045760018114613e1a57613e4d565b60ff198316865281151560200286019350613e4d565b613e2385613dbd565b60005b83811015613e4557815481890152600182019150602081019050613e26565b808801955050505b50505092915050565b6000606082019050613e6b6000830186613141565b8181036020830152613e7d8185613dd2565b90508181036040830152613e918184613dd2565b9050949350505050565b7f4e6f646520686173206c6566742c20476f6f6462796500000000000000000000600082015250565b6000613ed16016836136b7565b9150613edc82613e9b565b602082019050919050565b6000604082019050613efc6000830184612d61565b8181036020830152613f0d81613ec4565b905092915050565b6000613f20826132ea565b9150613f2b836132ea565b925082613f3b57613f3a6137fe565b5b828206905092915050565b60006020601f8301049050919050565b600082821b905092915050565b600060088302613f937fffffffffffffffffffffffffffffffffffffffffffffffffffffffffffffffff82613f56565b613f9d8683613f56565b95508019841693508086168417925050509392505050565b6000613fd0613fcb613fc684612d9f565b613903565b612d9f565b9050919050565b6000819050919050565b613fea83613fb5565b613ffe613ff682613fd7565b848454613f63565b825550505050565b600090565b614013614006565b61401e818484613fe1565b505050565b5b818110156140425761403760008261400b565b600181019050614024565b5050565b601f8211156140875761405881613dbd565b61406184613f46565b81016020851015614070578190505b61408461407c85613f46565b830182614023565b50505b505050565b600082821c905092915050565b60006140aa6000198460080261408c565b1980831691505092915050565b60006140c38383614099565b9150826002028217905092915050565b6140dc8261316b565b67ffffffffffffffff8111156140f5576140f4612e7a565b5b6140ff8254613caa565b61410a828285614046565b600060209050601f83116001811461413d576000841561412b578287015190505b61413585826140b7565b86555061419d565b601f19841661414b86613dbd565b60005b828110156141735784890151825560018201915060208501945060208101905061414e565b86831015614190578489015161418c601f891682614099565b8355505b6001600288020188555050505b505050505050565b7f50454e44494e4700000000000000000000000000000000000000000000000000600082015250565b60006141db6007836136b7565b91506141e6826141a5565b602082019050919050565b60006040820190506142066000830184613371565b8181036020830152614217816141ce565b905092915050565b60006060820190506142346000830186613141565b81810360208301526142468185613dd2565b90506142556040830184613141565b94935050505056fea26469706673582212201b486286c8c7858f8178dad8e3134a91fa74f28d9c40bad37c7b44f71d45883764736f6c634300080f0033",
  "immutableReferences": {},
  "source": "// SPDX-License-Identifier: MIT\npragma solidity ^0.8.0;\n\nimport \"./AggregatorContract.sol\";\nimport \"./ReputationContract.sol\";\n\ncontract OracleRequestContract {\n    //address that deploys contract\n    address public owner;\n    // address of aggregator contract\n    address public aggregatorAddr;\n    // address of reputation contract\n    address public reputationAddr;\n    // Array to populate with requests that come in\n    Request[100] public requests;\n    // all mappings of oracles that have joined network\n    mapping (address => bool) public oracles;\n    // mapping of blacklisted oracles (who's ratings exceed 10)\n    mapping (address => bool) public blacklistedOracles;\n    // stakeBalance of each node, should be equal to 1 eth\n    mapping (address => uint) public stakeBalance;\n    // request and and pending counters, pending decreased when status changed to COMPLETE\n    uint requestCounter = 1;\n    uint pendingCounter = 1;\n    // Status logs for each request\n    enum Status{PENDING, COMPLETE, CANCELLED}\n\n    // a single Request structure\n    struct Request {\n        uint256 requestID; //Id for each request\n        address requester; // address which made the request\n        address callbackAddress; // an address in which the response can be delivered to\n        bytes callbackFID; // a function in the callback address that can be called\n        bytes IoTID; // the ID of the IoT the user-SC wishes to gather data from\n        bytes dataType; // data type, JSON that is decoded by the oracle node that will collect the data\n        // bytes32 pHash; // a hash of the data type and the actual result required.\n        //bytes requiredResult; // left this out for security reason, we only apply it to the hash\n        uint32 numberOfOracles; // number of oracles needed to fetch the data\n        mapping (address => bool) oraclesForRequest; // must be true in order for oracle node to participate\n        mapping (uint32 => address) oracleAddressAccess; // mapping so we can iterate through addresses\n        uint256 aggregationType;\n        uint32 oracleCounter; // index and counter for the number of oracles\n        Status status; // status of the request\n        uint8 cancelFlag; // cancel flag, if == 1 then do not continue with request\n        uint fee; // fee sent to cover costs and extra for fetch the data\n    }\n\n    bool[100] public completedRequests;// true for each requestID once status changes to complete.\n\n    event OpenForBids(uint256, bytes, uint256); // tells oracle nodes there is a request that needs bidding on\n    event BidPlaced(address); // tells nodes that a bid has been placed by another node\n    event ReleaseRequestDetails(uint256, bytes, bytes); // the details the node needs to gather\n    event StatusChange(Status, string); // tells nodes in network of status change of requests\n    event OracleJoined(address, string); // tells network that a new oracle has joined the network\n    event OracleLeft(address, string); // tells the network that another oracle has left\n    event OraclePaid(address, uint, string); // tells the network when an oracle has been paid for its services\n    event Logging(string);\n    event FinalResultLog(bool, string);\n    // ***payments***\n    uint GAS_PRICE = 2 * 10**10; // cost of gas\n    uint FEE = GAS_PRICE * 3; // fee to cover other function calls and pay each oracle\n    uint MIN_FEE = FEE + (GAS_PRICE * 5); // minimum needed to cover all costs\n\n    // @notice constructor when first deployed\n    constructor() {\n        owner = msg.sender; // set the owner of the contract to the address that deploys it\n    }\n    // @notice used if eth is sent to an invalid function etc\n    fallback() external{}\n\n    // @notice function called by addresses of Off-chain Oracle nodes that want to join the network\n    // @return bool, true if successful otherwise reverts\n    function joinAsOracle()\n    public\n    payable\n    oracleNotJoined()\n    valueEqual1Eth()\n    isNotBlacklisted()\n    //oracleCannotRejoin()\n    returns(bool){\n        ReputationContract(reputationAddr).addOracle(msg.sender);\n        oracles[address(msg.sender)] = true; // set to true as is now in network\n        stakeBalance[msg.sender] = msg.value; // added value to stakeBalance as a record\n        emit OracleJoined(msg.sender, \"Welcome new node!\"); // emit event so listeners can be notified\n        return oracles[address(msg.sender)]; // return true\n    }\n    // @notice oracle node calls this function when they wish to leave network\n    // @return bool\n    function leaveOracleNetwork()\n    public\n    oracleHasJoined()\n    stakeCheck()\n    isNotBlacklisted()\n    returns(bool) {\n        if (ReputationContract(reputationAddr).getOracleRating(msg.sender) > 1 ){\n            blacklistedOracles[msg.sender] = true; // allows oracle nodes with penalties to leave, but cannot rejoin\n        }\n        delete oracles[msg.sender]; // deletes address from mapping\n        payable(msg.sender).transfer(stakeBalance[msg.sender]); // transfers their stake back to them\n        stakeBalance[msg.sender] = 0; // set stakeBalance back to 0 for the oracle node\n        emit OracleLeft(msg.sender, \"Node has left, Goodbye\"); // emit event so listeners can be notified\n        return true; // return true to confirm\n    }\n\n    // @notice user can call function create request\n    // @dev\n    // @param _callbackAddress could be different to address that called the function\n    // @param _callbackFID a particular function in a smart contract that is needed to be called based on request\n    // @param _IoTID the identifier of the IoT device oracle node will be subscribing to\n    // @param _dataType, true false answer, an event, continuous data over time?\n    // @param _aggregationType 1 = voting, 2 = averaging\n    // @param _numberOfOracles number of oracle nodes that fetch IoT data\n    // @return the requestID so the user can keep track of request\n    function createRequest(\n        address _callbackAddress,\n        bytes memory _callbackFID,\n        bytes memory _IoTID,\n        bytes memory _dataType,\n        uint256 _aggregationType,\n        uint32 _numberOfOracles)\n    external\n    payable\n    valueGTMinFeeCheck() // requires the value sent is >= MIN_FEE\n    oddNumOracles(_numberOfOracles) // requires an odd number of oracles\n    aggregationTypeCheck(_aggregationType) // 1 = voting, 2 = averaging\n    returns(uint256)\n    {\n        uint256 requestID = requestCounter; // assign id to request\n        // log details of the request to array to cross reference later\n        requests[requestID].requestID = requestID;\n        requests[requestID].requester = msg.sender;\n        requests[requestID].callbackAddress = _callbackAddress;\n        requests[requestID].callbackFID = _callbackFID;\n        requests[requestID].IoTID = _IoTID;\n        requests[requestID].dataType = _dataType;\n        requests[requestID].numberOfOracles = _numberOfOracles;\n        requests[requestID].oracleCounter = 0;\n        requests[requestID].status = Status.PENDING;\n        requests[requestID].cancelFlag = 0;\n        requests[requestID].fee = msg.value; // keeps track of the fee for the request\n        requests[requestID].aggregationType = _aggregationType;\n        emit StatusChange(requests[requestID].status, \"PENDING\"); // tells nodes in network of status change of requests\n        // increment requestId ready for next create request function.\n        requestCounter++;\n        pendingCounter++;\n        emit OpenForBids(requestID, requests[requestID].dataType, requests[requestID].aggregationType);\n        return requestID;\n    }\n\n    // @notice off-chain oracle node places bid to fetch data, once threshold is reached, emits event details.\n    // @dev\n    // @param requestId oracle node wishes to bid on\n    // @return true to indicate bid successful\n    function placeBid(\n        uint256 _requestID)\n    public\n    oracleHasJoined() // requires that the oracle is in the network\n    cancelFlagZero(_requestID) // requires requests cancel flag is zero\n    orcCountLessThanNum(_requestID) // requires that the oracle counter is still les than the number of oracles needed\n    isNotBlacklisted() // requires the oracle has not exceed its penalty rating past 10\n    returns(bool)\n    {\n        requests[_requestID].oraclesForRequest[msg.sender] = true; // add true for oracle in request so we know they can vote\n        requests[_requestID].oracleAddressAccess[requests[_requestID].oracleCounter] = address(msg.sender); // map addr for iteration\n        requests[_requestID].oracleCounter++; // increment the counter\n        // TODO also add a timeout, if bids take to long\n        emit BidPlaced(msg.sender); // send message to network that a bid has been placed\n        if (requests[_requestID].numberOfOracles == requests[_requestID].oracleCounter) {\n            // when the last oracle has submitted, we can emit the details\n            emit ReleaseRequestDetails(\n                requests[_requestID].requestID, // requestID\n                requests[_requestID].IoTID, // IoT info, this is most of importance\n                requests[_requestID].dataType); // DataType\n            return true; // returns true to show completion of the bidding phase that is now over\n        }\n        return oracles[msg.sender]; // returns true for each oracle that bids\n    }\n\n    // @notice called by aggregator contract to deliver final response\n    // @param _requestID, id of request\n    // @param _finalResult, final aggregated result\n    // @param _correctOracles, array of addresses of oracles to be paid for their work\n    function deliverVoteResponse(\n        uint256 _requestID,\n        bool _finalResult,\n        address[] memory _correctOracles,\n        address[] memory _incorrectOracles,\n        address[] memory _incorrectRevealOracles) // do not penalise\n    public\n    cancelFlagZero(_requestID) // requires that the cancelFlag is = 0\n    onlyAggregator() // only the aggregator contract can call this function\n    returns(bool)\n    {\n        // return single aggregation result\n        emit FinalResultLog(_finalResult, \" the final result\");\n        _finalResult;\n        uint fee = requests[_requestID].fee / _correctOracles.length;\n        // pay fees\n        for (uint i=0; i<_correctOracles.length; i++) {\n            // pay each share to each oracle\n            emit Logging(\"gets to inside correctOracles\");\n            emit OraclePaid(_correctOracles[i], 0, \"Oracle has been Paid!\"); // tells listeners oracle node has been paid\n            payable(_correctOracles[i]).transfer(fee); // pays oracle their fee\n            requests[_requestID].fee -= fee; // deduct the oracles portion from the logged amount until it reaches 0\n            // and all oracles have been paid\n        }\n        // add penalties and slash dishonest nodes stake\n        for (uint i=0; i<_incorrectOracles.length; i++){\n            emit Logging(\"gets to loop incorrectOracles\");\n            // gets penalty fee from reputation contract penalty**rating\n            uint penalty = ReputationContract(reputationAddr).getPenaltyFee(_incorrectOracles[i]);\n            stakeBalance[_incorrectOracles[i]] -= penalty;\n            ReputationContract(reputationAddr).incrementRating(_incorrectOracles[i]);\n        }\n        // small penalty for incorrect hashes, as this could be an error\n        for (uint i=0; i<_incorrectRevealOracles.length; i++) {\n            emit Logging(\"we get inside penalty incorrect hashes\");\n            uint penalty = fee; // charge the fee of the request as a penalty\n            stakeBalance[_incorrectRevealOracles[i]] += penalty; // deducted from oracle stake\n        }\n        requests[_requestID].status = Status.COMPLETE; // request is complete\n        completedRequests[_requestID] = true; // add request id to completedRequests\n        emit StatusChange(requests[_requestID].status, \"COMPLETE\"); // tell listeners that the status has changed\n        pendingCounter--; // no longer pending so countered can be decremented\n        return true; // return true to so it has finished\n    }\n\n    // @notice called by aggregator contract to deliver final response\n    // @param _requestID, id of request\n    // @param _finalResult, final aggregated result\n    // @param _correctOracles, array of addresses of oracles to be paid for their work\n    function deliverAverageResponse(\n        uint256 _requestID,\n        int256 _finalResult,\n        address[] memory _correctOracles,\n        address[] memory _incorrectOracles)\n        // address[] memory _incorrectOracles,\n        // address[] memory _incorrectRevealOracles) // do not penalise\n    public\n    cancelFlagZero(_requestID) // requires that the cancelFlag is = 0\n    onlyAggregator() // only the aggregator contract can call this function\n    returns(bool)\n    {\n        // return single aggregation result\n        _finalResult;\n        uint fee = requests[_requestID].fee / _correctOracles.length;\n        // pay fees\n        for (uint i=0; i<_correctOracles.length; i++) {\n            // pay each share to each oracle\n            emit OraclePaid(_correctOracles[i], fee, \"Oracle has been Paid!\"); // tells listeners oracle node has been paid\n            //payable(_correctOracles[i]).transfer(fee); // pays oracle their fee\n            //requests[_requestID].fee -= fee; // deduct the oracles portion from the logged amount until it reaches 0\n            // and all oracles have been paid\n        }\n        // small penalty for incorrect hashes, as this could be an error\n        for (uint i=0; i<_incorrectOracles.length; i++) {\n            stakeBalance[_incorrectOracles[i]] -= fee; // deducted fee from stake\n        }\n        requests[_requestID].status = Status.COMPLETE; // request is complete\n        completedRequests[_requestID] = true; // add request id to completedRequests\n        emit StatusChange(requests[_requestID].status, \"COMPLETE\"); // tell listeners that the status has changed\n        pendingCounter--; // no longer pending so countered can be decremented\n        return true; // return true to so it has finished\n    }\n    // @notice function for requester to cancel request\n    // @param _requestID pass requestID to cancel the correct request\n    function cancelRequest(\n        uint256 _requestID)\n    external\n    onlyRequester(_requestID) // requires that only the requester can cancel\n    cancelFlagZero(_requestID) // requires that request is not yet cancelled\n    returns(bool)\n    {\n        requests[_requestID].cancelFlag = 1; // changes flag to 1, if 1 it will not pass other functions\n        requests[_requestID].status = Status.CANCELLED; // status changed\n        emit StatusChange(requests[_requestID].status, \"CANCELLED\");\n        AggregatorContract(aggregatorAddr).cancelRequest(_requestID); // call cancelled request in AggregatorContract\n        return true;\n    }\n    // @notice cancelled request by deadlock in the voting, if there are incorrect nodes,\n    //         correct amount might be even and could cause deadlock in voting,\n    //         in this case we refund the requester and cancel request\n    // @param _requestID\n    // @param _incorrectOracleReveals, we slash the faulty nodes here, as they have caused issues penalties are given\n    function cancelRequestDueToDeadlock(\n        uint256 _requestID,\n        address[] memory _incorrectOracleReveals)\n    external\n    onlyAggregator()\n    cancelFlagZero(_requestID)\n    returns(bool)\n    {\n        requests[_requestID].cancelFlag = 1;\n        requests[_requestID].status = Status.CANCELLED;\n        // return full fee as the user is not at fault here\n        // should be slashed from incorrect nodes for causing deadlock\n        for (uint i=0; i<_incorrectOracleReveals.length; i++){\n            // gets penalty fee from reputation contract penalty**rating\n            uint penalty = ReputationContract(reputationAddr).getPenaltyFee(_incorrectOracleReveals[i]);\n            stakeBalance[_incorrectOracleReveals[i]] -= penalty;\n            ReputationContract(reputationAddr).incrementRating(_incorrectOracleReveals[i]);\n        }\n        payable(requests[_requestID].requester).transfer(requests[_requestID].fee);\n        emit StatusChange(requests[_requestID].status, \"CANCELLED\");\n        return true;\n    }\n    // @notice blacklist oracle that misbehaves 10\n    function blacklistOracle(address _addr)\n    external\n    onlyReputation()\n    returns(bool)\n    {\n        blacklistedOracles[_addr] = true; // adds blacklisted oracle address to map\n        return blacklistedOracles[_addr]; // returns true\n    }\n\n\n\n\n    // *** Setters ***\n    function setAggregatorContract(\n        address _aggAddr)\n    public\n    onlyOwner() // only owner can set aggregator contract\n    returns(bool)\n    {\n        aggregatorAddr = _aggAddr;\n        return true;\n    }\n\n    function setReputationContract(address _repAddr)\n    public\n    onlyOwner()\n    returns(bool)\n    {\n        reputationAddr = _repAddr;\n        return true;\n    }\n\n    // *** Getters ***\n    function getOracleForRequest(\n        uint256 _requestID,\n        address _orcAddr)\n    external\n    view\n    onlyAggregator()\n    returns(bool)\n    {\n        return requests[_requestID].oraclesForRequest[_orcAddr];\n    }\n\n    function getNumberOfOracles(\n        uint256 _requestID)\n    external\n    view\n    onlyAggregator()\n    returns(uint32)\n    {\n        return requests[_requestID].numberOfOracles;\n    }\n\n    function getDataType(\n        uint256 _requestID)\n    external\n    view\n    onlyAggregator()\n    returns(bytes memory)\n    {\n        return requests[_requestID].dataType;\n    }\n    // @notice returns bool whether or not _addr is blacklisted\n    function getBlacklistedOracle(address _addr)\n    external\n    view\n    returns(bool)\n    {\n        return blacklistedOracles[_addr];\n    }\n    // @notice\n    function getAggregationType(uint256 _requestID)\n    external\n    view\n    onlyAggregator()\n    returns(uint256)\n    {\n        return requests[_requestID].aggregationType;\n    }\n    // ***Modifiers***\n    // @notice only owner of contract\n    modifier onlyOwner()\n    {\n        require(msg.sender == owner);\n        _;\n    }\n    // @notice only owner of aggregator contract\n    modifier onlyAggregator()\n    {\n        require(msg.sender == aggregatorAddr);\n        _;\n    }\n    // @notice only owner of reputation contract\n    modifier onlyReputation()\n    {\n        require(msg.sender == reputationAddr);\n        _;\n    }\n    // @notice modifier to confirm calling address is an oracle node address already acknowledged\n    modifier oracleHasJoined()\n    {\n        require(oracles[msg.sender] == true);\n        _;\n    }\n    // @notice modifier to confirm calling address is not yet an oracle node address acknowledged\n    modifier oracleNotJoined()\n    {\n        require(oracles[msg.sender] != true);\n        _;\n    }\n    // @notice requires request cancelFlag == 0\n    modifier cancelFlagZero(\n        uint256 _requestID)\n    {\n        require(requests[_requestID].cancelFlag == 0);\n        _;\n    }\n    // @notice requires stakeBalance to equal exactly 1 ETH\n    modifier stakeCheck()\n    {\n        require(stakeBalance[msg.sender] > 0);\n        _;\n    }\n    // @notice requires the value sent to be >= MIN_FEE set\n    modifier valueGTMinFeeCheck()\n    {\n        // require msg.value has enough to pay oracles for each function call\n        require(msg.value >= MIN_FEE);\n        _;\n    }\n    // @notice requires an odd number of oracles so voting/aggregation doesnt become deadlocked\n    modifier oddNumOracles(\n        uint32 _numberOfOracles)\n    {\n        // makes sure the number that there is always an odd number of oracles so a majority can be reached.\n        require(!(_numberOfOracles % 2 == 0));\n        _;\n    }\n    // @notice requires a new oracle to send 1 eth to be held by contract until it leaves the network\n    modifier valueEqual1Eth()\n    {\n        require(msg.value == 1 ether); // must send 1 eth that is to be held by contract\n        _;\n    }\n    // @notice requires counter to be less than number required\n    modifier orcCountLessThanNum(\n        uint256 _requestID)\n    {\n        // makes sure oracle counter is less than number of oracles required so response can be submitted\n        require(requests[_requestID].oracleCounter < requests[_requestID].numberOfOracles);\n        _;\n    }\n    // @notice requires that only the request can call the function\n    modifier onlyRequester(\n        uint256 _requestID)\n    {\n        require(msg.sender == requests[_requestID].requester);\n        _;\n    }\n\n    modifier isNotBlacklisted() {\n        require(!blacklistedOracles[msg.sender] == true);\n        _;\n    }\n    modifier aggregationTypeCheck(uint256 _aggregationType) {\n        require(1 == _aggregationType || _aggregationType == 2 );\n        _;\n    }\n\n}\n",
  "sourcePath": "/home/willp/Documents/MSc_Computer_Science/PROJECT/Research_Code/july22_projectcode/IoToracle/contracts/OracleRequestContract.sol",
  "compiler": {
    "name": "solc",
    "version": "0.8.15+commit.e14f2714.Emscripten.clang"
  },
  "schemaVersion": "3.4.8",
  "updatedAt": "2022-08-14T12:55:08.887Z",
  "networkType": "ethereum",
  "devdoc": {
    "kind": "dev",
    "methods": {},
    "version": 1
  },
  "userdoc": {
    "kind": "user",
    "methods": {},
    "version": 1
  }
}