{
  "contractName": "ReputationContract",
  "abi": [
    {
      "inputs": [
        {
          "internalType": "address",
          "name": "_addr",
          "type": "address"
        }
      ],
      "stateMutability": "nonpayable",
      "type": "constructor"
    },
    {
      "anonymous": false,
      "inputs": [
        {
          "indexed": false,
          "internalType": "address",
          "name": "",
          "type": "address"
        },
        {
          "indexed": false,
          "internalType": "string",
          "name": "",
          "type": "string"
        }
      ],
      "name": "OracleBlacklisted",
      "type": "event"
    },
    {
      "inputs": [
        {
          "internalType": "address",
          "name": "",
          "type": "address"
        }
      ],
      "name": "oracleRatings",
      "outputs": [
        {
          "internalType": "uint256",
          "name": "",
          "type": "uint256"
        }
      ],
      "stateMutability": "view",
      "type": "function"
    },
    {
      "inputs": [],
      "name": "owner",
      "outputs": [
        {
          "internalType": "address",
          "name": "",
          "type": "address"
        }
      ],
      "stateMutability": "view",
      "type": "function"
    },
    {
      "inputs": [
        {
          "internalType": "address",
          "name": "_addr",
          "type": "address"
        }
      ],
      "name": "addOracle",
      "outputs": [
        {
          "internalType": "bool",
          "name": "",
          "type": "bool"
        }
      ],
      "stateMutability": "nonpayable",
      "type": "function"
    },
    {
      "inputs": [
        {
          "internalType": "address",
          "name": "_addr",
          "type": "address"
        }
      ],
      "name": "incrementRating",
      "outputs": [
        {
          "internalType": "uint256",
          "name": "",
          "type": "uint256"
        }
      ],
      "stateMutability": "nonpayable",
      "type": "function"
    },
    {
      "inputs": [
        {
          "internalType": "address",
          "name": "_addr",
          "type": "address"
        }
      ],
      "name": "getOracleRating",
      "outputs": [
        {
          "internalType": "uint256",
          "name": "",
          "type": "uint256"
        }
      ],
      "stateMutability": "view",
      "type": "function"
    },
    {
      "inputs": [
        {
          "internalType": "address",
          "name": "_addr",
          "type": "address"
        }
      ],
      "name": "getPenaltyFee",
      "outputs": [
        {
          "internalType": "uint256",
          "name": "",
          "type": "uint256"
        }
      ],
      "stateMutability": "view",
      "type": "function"
    }
  ],
  "bytecode": "0x608060405234801561001057600080fd5b50604051610b72380380610b728339818101604052810190610032919061011c565b336000806101000a81548173ffffffffffffffffffffffffffffffffffffffff021916908373ffffffffffffffffffffffffffffffffffffffff16021790555080600160006101000a81548173ffffffffffffffffffffffffffffffffffffffff021916908373ffffffffffffffffffffffffffffffffffffffff16021790555050610149565b600080fd5b600073ffffffffffffffffffffffffffffffffffffffff82169050919050565b60006100e9826100be565b9050919050565b6100f9816100de565b811461010457600080fd5b50565b600081519050610116816100f0565b92915050565b600060208284031215610132576101316100b9565b5b600061014084828501610107565b91505092915050565b610a1a806101586000396000f3fe608060405234801561001057600080fd5b50600436106100625760003560e01c80630855078b1461006757806318b529c3146100975780631d803317146100c75780638da5cb5b146100f7578063b8f9c2a114610115578063df5dd1a514610145575b600080fd5b610081600480360381019061007c9190610624565b610175565b60405161008e919061066a565b60405180910390f35b6100b160048036038101906100ac9190610624565b6101be565b6040516100be919061066a565b60405180910390f35b6100e160048036038101906100dc9190610624565b610484565b6040516100ee919061066a565b60405180910390f35b6100ff61049c565b60405161010c9190610694565b60405180910390f35b61012f600480360381019061012a9190610624565b6104c0565b60405161013c919061066a565b60405180910390f35b61015f600480360381019061015a9190610624565b610517565b60405161016c91906106ca565b60405180910390f35b6000600260008373ffffffffffffffffffffffffffffffffffffffff1673ffffffffffffffffffffffffffffffffffffffff168152602001908152602001600020549050919050565b6000600160009054906101000a900473ffffffffffffffffffffffffffffffffffffffff1673ffffffffffffffffffffffffffffffffffffffff163373ffffffffffffffffffffffffffffffffffffffff161461021a57600080fd5b8160011515600160009054906101000a900473ffffffffffffffffffffffffffffffffffffffff1673ffffffffffffffffffffffffffffffffffffffff16636fbf7973836040518263ffffffff1660e01b815260040161027a9190610694565b602060405180830381865afa158015610297573d6000803e3d6000fd5b505050506040513d601f19601f820116820180604052508101906102bb9190610711565b151515146102c857600080fd5b600260008473ffffffffffffffffffffffffffffffffffffffff1673ffffffffffffffffffffffffffffffffffffffff16815260200190815260200160002060008154809291906103189061076d565b91905055506001600260008573ffffffffffffffffffffffffffffffffffffffff1673ffffffffffffffffffffffffffffffffffffffff16815260200190815260200160002054111561043c57600160009054906101000a900473ffffffffffffffffffffffffffffffffffffffff1673ffffffffffffffffffffffffffffffffffffffff1663eee5a596846040518263ffffffff1660e01b81526004016103c09190610694565b6020604051808303816000875af11580156103df573d6000803e3d6000fd5b505050506040513d601f19601f820116820180604052508101906104039190610711565b507fdffbba745a852c1b2b282e3aa033195de3b054875aab03a94fdc488e7bed956c836040516104339190610838565b60405180910390a15b600260008473ffffffffffffffffffffffffffffffffffffffff1673ffffffffffffffffffffffffffffffffffffffff16815260200190815260200160002054915050919050565b60026020528060005260406000206000915090505481565b60008054906101000a900473ffffffffffffffffffffffffffffffffffffffff1681565b6000600260008373ffffffffffffffffffffffffffffffffffffffff1673ffffffffffffffffffffffffffffffffffffffff16815260200190815260200160002054620557306105109190610999565b9050919050565b6000600160009054906101000a900473ffffffffffffffffffffffffffffffffffffffff1673ffffffffffffffffffffffffffffffffffffffff163373ffffffffffffffffffffffffffffffffffffffff161461057357600080fd5b6001600260008473ffffffffffffffffffffffffffffffffffffffff1673ffffffffffffffffffffffffffffffffffffffff1681526020019081526020016000208190555060019050919050565b600080fd5b600073ffffffffffffffffffffffffffffffffffffffff82169050919050565b60006105f1826105c6565b9050919050565b610601816105e6565b811461060c57600080fd5b50565b60008135905061061e816105f8565b92915050565b60006020828403121561063a576106396105c1565b5b60006106488482850161060f565b91505092915050565b6000819050919050565b61066481610651565b82525050565b600060208201905061067f600083018461065b565b92915050565b61068e816105e6565b82525050565b60006020820190506106a96000830184610685565b92915050565b60008115159050919050565b6106c4816106af565b82525050565b60006020820190506106df60008301846106bb565b92915050565b6106ee816106af565b81146106f957600080fd5b50565b60008151905061070b816106e5565b92915050565b600060208284031215610727576107266105c1565b5b6000610735848285016106fc565b91505092915050565b7f4e487b7100000000000000000000000000000000000000000000000000000000600052601160045260246000fd5b600061077882610651565b91507fffffffffffffffffffffffffffffffffffffffffffffffffffffffffffffffff82036107aa576107a961073e565b5b600182019050919050565b600082825260208201905092915050565b7f6f7261636c65206e6f646520686173206265656e20626c61636b6c697374656460008201527f2066726f6d206e6574776f726b2e000000000000000000000000000000000000602082015250565b6000610822602e836107b5565b915061082d826107c6565b604082019050919050565b600060408201905061084d6000830184610685565b818103602083015261085e81610815565b905092915050565b60008160011c9050919050565b6000808291508390505b60018511156108bd578086048111156108995761089861073e565b5b60018516156108a85780820291505b80810290506108b685610866565b945061087d565b94509492505050565b6000826108d65760019050610992565b816108e45760009050610992565b81600181146108fa576002811461090457610933565b6001915050610992565b60ff8411156109165761091561073e565b5b8360020a91508482111561092d5761092c61073e565b5b50610992565b5060208310610133831016604e8410600b84101617156109685782820a9050838111156109635761096261073e565b5b610992565b6109758484846001610873565b9250905081840481111561098c5761098b61073e565b5b81810290505b9392505050565b60006109a482610651565b91506109af83610651565b92506109dc7fffffffffffffffffffffffffffffffffffffffffffffffffffffffffffffffff84846108c6565b90509291505056fea26469706673582212200980fcb2d444542fa1364f9bbee5bfe6af5d331b99d60ea651b00c135c8a91f164736f6c634300080f0033",
  "immutableReferences": {},
  "source": "// SPDX-License-Identifier: MIT\npragma solidity ^0.8.0;\n\nimport \"./OracleRequestContract.sol\";\n\n\ncontract ReputationContract {\n    address public owner; // owner of contract\n    OracleRequestContract orc; // instance of ORC contract\n    // global vars\n    mapping (address => uint256 ) public oracleRatings;\n    // rating values\n    uint constant MIN_RATING = 1;\n    uint constant MAX_RATING = 10;\n    // penalty fee\n    uint constant PENALTY_FEE = 350000;\n\n    event OracleBlacklisted(address, string);\n\n    constructor(address _addr) {\n        owner = msg.sender;\n        // address of deployed OracleRequestContract\n        orc = OracleRequestContract(_addr);\n    }\n    // @notice addOracle adds oracle to rating mapping to track behaviour\n    function addOracle(address _addr)\n    external\n    onlyORC()\n    returns(bool)\n    {\n        oracleRatings[_addr] = MIN_RATING;\n        return true;\n    }\n\n    function incrementRating(address _addr)\n    external\n    onlyORC()\n    onlyNonBlacklistedOracles(_addr)\n    returns(uint)\n    {\n        oracleRatings[_addr] ++;\n        if (oracleRatings[_addr] > MIN_RATING) {\n            // orc blacklist function\n            orc.blacklistOracle(_addr);\n            emit OracleBlacklisted(_addr, \"oracle node has been blacklisted from network.\");\n        }\n        return oracleRatings[_addr];\n    }\n    // @notice\n\n\n    // ***getters***\n    function getOracleRating(address _addr)\n    public\n    view\n    returns(uint256)\n    {\n        return oracleRatings[_addr];\n    }\n\n    function getPenaltyFee(address _addr)\n    public\n    view\n    returns(uint256)\n    {\n        return PENALTY_FEE**oracleRatings[_addr];\n    }\n\n    // ***modifiers***\n\n\n    // @notice only OracleRequestContract can call the function with modifier\n    modifier onlyORC()\n    {\n        require(msg.sender == address(orc));\n        _;\n    }\n    // @notice only non blacklisted oracles\n    modifier onlyNonBlacklistedOracles(address _addr) {\n        require(!orc.getBlacklistedOracle(_addr) == true);\n        _;\n    }\n\n}\n",
  "sourcePath": "/home/willp/Documents/MSc_Computer_Science/PROJECT/Research_Code/july22_projectcode/IoToracle/contracts/ReputationContract.sol",
  "compiler": {
    "name": "solc",
    "version": "0.8.15+commit.e14f2714.Emscripten.clang"
  },
  "schemaVersion": "3.4.8",
  "updatedAt": "2022-08-05T11:50:56.879Z",
  "devdoc": {
    "kind": "dev",
    "methods": {},
    "version": 1
  },
  "userdoc": {
    "kind": "user",
    "methods": {},
    "version": 1
  }
}